{"abi":[{"type":"constructor","inputs":[],"stateMutability":"nonpayable"},{"type":"function","name":"decodeLocation","inputs":[{"name":"data","type":"bytes","internalType":"bytes"}],"outputs":[{"name":"","type":"tuple","internalType":"struct Seaports.Location","components":[{"name":"code","type":"string","internalType":"string"},{"name":"lat","type":"int256","internalType":"int256"},{"name":"lng","type":"int256","internalType":"int256"},{"name":"heading","type":"int256","internalType":"int256"},{"name":"isLeftSided","type":"bool","internalType":"bool"},{"name":"neighbours","type":"uint256[]","internalType":"uint256[]"}]}],"stateMutability":"pure"},{"type":"function","name":"getAllLocations","inputs":[],"outputs":[{"name":"","type":"tuple[]","internalType":"struct Seaports.Location[]","components":[{"name":"code","type":"string","internalType":"string"},{"name":"lat","type":"int256","internalType":"int256"},{"name":"lng","type":"int256","internalType":"int256"},{"name":"heading","type":"int256","internalType":"int256"},{"name":"isLeftSided","type":"bool","internalType":"bool"},{"name":"neighbours","type":"uint256[]","internalType":"uint256[]"}]}],"stateMutability":"view"},{"type":"function","name":"locationData","inputs":[{"name":"","type":"uint256","internalType":"uint256"}],"outputs":[{"name":"","type":"bytes","internalType":"bytes"}],"stateMutability":"view"}],"bytecode":{"object":"0x608060405234610b7b5760008054680100000000000000009081811015610b3f576100306001918281018555610b80565b610b5357806100696100637f5343504f56ffb966c0034e5075013701012400000000000000000000000000249354610bad565b82610be7565b55825482811015610b6757808261008292018555610b80565b610b5357806100b56100637f4d5a4d4e43ff2220c8026c8269003100000200000000000000000000000000249354610bad565b55825482811015610b675780826100ce92018555610b80565b610b5357806101016100637f4d47544c45fe9b46f2029a430a014b00010300000000000000000000000000249354610bad565b55825482811015610b6757808261011a92018555610b80565b610b53578061014d6100637f5a41445552fe382a0001d9a725013b00020400000000000000000000000000249354610bad565b55825482811015610b6757808261016692018555610b80565b610b5357806101996100637f5a41504c5afdf9d49d0187347a005201030500000000000000000000000000249354610bad565b55825482811015610b675780826101b292018555610b80565b610b5357806101e56100637f5a41435054fdfa8fd6011982a9008601040806000000000000000000000000269354610bad565b55825482811015610b675780826101fe92018555610b80565b610b5357806102316100637f4e414e5642fea1ca8a00dd083f001601050708090a000000000000000000002a9354610bad565b55825482811015610b6757808261024a92018555610b80565b610b53578061027d6100637f4252524543ff851c55fdebf59e0163010609080a0000000000000000000000289354610bad565b55825482811015610b6757808261029692018555610b80565b610b5357806102c96100637f4253535341ff3a46befdb4691d0012000705060a0000000000000000000000289354610bad565b55825482811015610b675780826102e292018555610b80565b610b5357806103156100637f42524e4154ffa7d0c8fde6dc8c016301070a00000000000000000000000000249354610bad565b55825482811015610b6757808261032e92018555610b80565b610b5357806103616100637f534853484eff0d1ec9ffa8ced7000f0107090806050b0000000000000000002c9354610bad565b55825482811015610b6757808261037a92018555610b80565b610b5357806103ad6100637f4c524d4c570060c0baff5b3fa700cb010a0c00000000000000000000000000249354610bad565b55825482811015610b675780826103c692018555610b80565b610b5357806103f96100637f475947454f0067f96efc886c450008000b0d00000000000000000000000000249354610bad565b55825482811015610b6757808261041292018555610b80565b610b5357806104456100637f424242474900c7fccbfc721cfb0155000c0e00000000000000000000000000249354610bad565b55825482811015610b6757808261045e92018555610b80565b610b5357806104916100637f4a4d4b494e01125343fb6ba9430084000d0f00000000000000000000000000249354610bad565b55825482811015610b675780826104aa92018555610b80565b610b5357806104dd6100637f434f435447009ec526fb7f6fde0114000e1000000000000000000000000000249354610bad565b55825482811015610b675780826104f692018555610b80565b610b5357806105296100637f5041434f4c008ed659fb3d0ea30150000f1100000000000000000000000000249354610bad565b55825482811015610b6757808261054292018555610b80565b610b5357806105756100637f504150434e0088b9b5fb41e66f013e00101200000000000000000000000000249354610bad565b55825482811015610b6757808261058e92018555610b80565b610b5357806105c16100637f45434d4543fff1c33efb304fbd005101111300000000000000000000000000249354610bad565b55825482811015610b675780826105da92018555610b80565b610b53578061060d6100637f5553484e4c01452c0ef69702ac007d01121400000000000000000000000000249354610bad565b55825482811015610b6757808261062692018555610b80565b610b5357806106596100637f434e53484101de028b07409964013201131500000000000000000000000000249354610bad565b55825482811015610b6757808261067292018555610b80565b610b5357806106a56100637f434e4e474201c8f370074306cc007200141600000000000000000000000000249354610bad565b55825482811015610b675780826106be92018555610b80565b610b5357806106f16100637f54574b454c017f9efc0741cf5700f001151700000000000000000000000000249354610bad565b55825482811015610b6757808261070a92018555610b80565b610b53578061073d6100637f434e584d4e0174f3620708f458005e01161800000000000000000000000000249354610bad565b55825482811015610b6757808261075692018555610b80565b610b5357806107896100637f54574b4848015839a5072bc02c00f001191700000000000000000000000000249354610bad565b55825482811015610b675780826107a292018555610b80565b610b5357806107d56100637f484b484b470154c41f06cd4bde015701181a00000000000000000000000000249354610bad565b55825482811015610b675780826107ee92018555610b80565b610b5357806108216100637f564e44414400f5efb606733d8c008d01191b00000000000000000000000000249354610bad565b55825482811015610b6757808261083a92018555610b80565b610b53578061086d6100637f50484d4e4c00de89c10735c348002d011a1c00000000000000000000000000249354610bad565b55825482811015610b6757808261088692018555610b80565b610b5357806108b96100637f564e53474e00a0505d0660cd050032001b1d00000000000000000000000000249354610bad565b55825482811015610b675780826108d292018555610b80565b610b5357806109056100637f534753494e001379e1062f3321012d001c1e00000000000000000000000000249354610bad565b55825482811015610b6757808261091e92018555610b80565b610b5357806109516100637f4d59504b47002e0d1d060a94650002001d1f00000000000000000000000000249354610bad565b55825482811015610b6757808261096a92018555610b80565b610b53578061099d6100637f4944424c570039f9de05e25db1002f001e2000000000000000000000000000249354610bad565b55825482811015610b675780826109b692018555610b80565b610b5357806109e96100637f5448484b540077568e05dd8cbd009f001f2100000000000000000000000000249354610bad565b55825482811015610b67578082610a0292018555610b80565b610b535780610a356100637f494e49585a00b24afb0586ccb9002600202200000000000000000000000000249354610bad565b55825482811015610b67578082610a4e92018555610b80565b610b535780610a816100637f494e4d414100c7d61904c9520d002600212300000000000000000000000000249354610bad565b55825482811015610b67578082610a9a92018555610b80565b610b535780610acd6100637f4c4b434d42006a0f4304c275a7000c00222400000000000000000000000000249354610bad565b55825491821015610b3f5781018255610ae590610b80565b919091610b2b577f4d564d4c45003fcb9e04619bf70017002100000000000000000000000000002482610b1b6100638254610bad565b556040516108049081610c218239f35b634e487b7160e01b81526004819052602490fd5b634e487b7160e01b83526041600452602483fd5b634e487b7160e01b84526004849052602484fd5b634e487b7160e01b84526041600452602484fd5b600080fd5b906000918254811015610b995782805260208320019190565b634e487b7160e01b83526032600452602483fd5b90600182811c92168015610bdd575b6020831014610bc757565b634e487b7160e01b600052602260045260246000fd5b91607f1691610bbc565b601f8211610bf3575050565b600090600052601f6020600020920160051c8201915b828110610c1557505050565b818155600101610c0956fe6040608081526004908136101561001557600080fd5b6000803560e01c80631076e967146101525780634bbad126146100aa5763e4d1d44d1461004157600080fd5b346100a75760203660031901126100a757823581548110156100a35761006690610360565b9390936100915761008d8361007a866103aa565b9051918291602083526020830190610250565b0390f35b634e487b7160e01b8252819052602490fd5b5080fd5b80fd5b5082346100a357602091826003193601126100a75781359167ffffffffffffffff9081841161013b573660238501121561013b578381013591821161013f5750845192610100601f8301601f191686018561033e565b818452366024838301011161013b5791848261008d9593602461012b96018386013783010152610504565b9251928284938452830190610290565b8280fd5b634e487b7160e01b835260419052602482fd5b50346100a757806003193601126100a75780549061016f8261047d565b9061017c8451928361033e565b8282526101888361047d565b60209390601f190184835b82811061023a57505050815b81811061020157505083519280840190808552835180925280868601968360051b870101940192955b8287106101d55785850386f35b9091929382806101f1600193603f198a82030186528851610290565b96019201960195929190926101c8565b8061021e610219610213600194610360565b506103aa565b610504565b61022882876104c9565b5261023381866104c9565b500161019f565b610242610495565b828288010152018590610193565b919082519283825260005b84811061027c575050826000602080949584010152601f8019910116010190565b60208183018101518483018201520161025b565b6102a3815160c0845260c0840190610250565b60a06020928381015184860152604081015160408601526060810151606086015260808101511515608086015201519260a081830391015281808451928381520193019160005b8281106102f8575050505090565b8351855293810193928101926001016102ea565b60c0810190811067ffffffffffffffff82111761032857604052565b634e487b7160e01b600052604160045260246000fd5b90601f8019910116810190811067ffffffffffffffff82111761032857604052565b906000918254811015610396578280527f290decd9548b62a8d60345a988386fc84ba6bc95484008f6362f93160ef3e563019190565b634e487b7160e01b83526032600452602483fd5b9060405190600083549060018260011c9060018416968715610473575b602094858410891461045f578798848997989952908160001461043d57506001146103fe575b5050506103fc9250038361033e565b565b600090815285812095935091905b8183106104255750506103fc93508201013880806103ed565b8554888401850152948501948794509183019161040c565b925050506103fc94925060ff191682840152151560051b8201013880806103ed565b634e487b7160e01b85526022600452602485fd5b91607f16916103c7565b67ffffffffffffffff81116103285760051b60200190565b604051906104a28261030c565b606060a0838281526000602082015260006040820152600083820152600060808201520152565b80518210156104dd5760209160051b010190565b634e487b7160e01b600052603260045260246000fd5b9081518110156104dd570160200190565b61050c610495565b5060119060118151106107955760009160005b600581106107565750604080516001600160d81b031990941660208501526005845283810167ffffffffffffffff8111858210176103285781528251600510156104dd5760ff60f81b90816025850151168451600610156104dd5782602686015116908551600710156104dd57836027870151168651600810156104dd576105ce928560288901511663ff0000009261ff0062ff00009260f81c9160f01c16179160e81c16179160e01c161790565b908451600910156104dd57826029860151168551600a10156104dd5783602a87015116908651600b10156104dd5784602b880151168751600c10156104dd5761063e9286602c8a01511663ff0000009261ff0062ff00009260f81c9160f01c16179160e81c16179160e01c161790565b918551600e10156104dd57602e86015160f8908751600d10156104dd5761ff00602d89015160f01c169060f81c17948751600f10156104dd57600160f81b90602f890151161495600f1960ff8951160160ff81116107405760ff16906106a38261047d565b986106b086519a8b61033e565b828a52601f196106bf8461047d565b013660208c013760005b8381106106fd5750505050508151966106e18861030c565b875260208701528501526060840152608083015260a082015290565b601081810180911161072b57908b6107248261071b600195876104f3565b51891c926104c9565b52016106c9565b83634e487b7160e01b60005260045260246000fd5b634e487b7160e01b600052601160045260246000fd5b926001600160f81b031961076a85856104f3565b51168460031b908582046008148615171561072b57901c6001600160d81b031916179260010161051f565b60405162461bcd60e51b815260206004820152601160248201527011185d18481a5cc81d1bdbc81cda1bdc9d607a1b6044820152606490fdfea2646970667358221220b471d729514d3763abd7b918edc55f344fba3b2fce7aa909c8cb9166398afe9264736f6c63430008190033","linkReferences":{}},"methodIdentifiers":{"decodeLocation(bytes)":"4bbad126","getAllLocations()":"1076e967","locationData(uint256)":"e4d1d44d"},"id":8}