{"abi":[{"type":"function","name":"bytesToInt","inputs":[{"name":"_bytes","type":"bytes","internalType":"bytes"}],"outputs":[{"name":"","type":"int256","internalType":"int256"}],"stateMutability":"pure"},{"type":"function","name":"bytesToIntArray","inputs":[{"name":"data","type":"bytes","internalType":"bytes"},{"name":"bytesPerInt","type":"uint8","internalType":"uint8"}],"outputs":[{"name":"","type":"int256[]","internalType":"int256[]"}],"stateMutability":"pure"},{"type":"function","name":"decodeAssetsForScenes","inputs":[{"name":"_data","type":"bytes","internalType":"bytes"}],"outputs":[{"name":"","type":"tuple[]","internalType":"struct AssetInScene[]","components":[{"name":"name","type":"string","internalType":"string"},{"name":"minDuration","type":"uint256","internalType":"uint256"},{"name":"maxDuration","type":"uint256","internalType":"uint256"},{"name":"checkInterval","type":"uint256","internalType":"uint256"},{"name":"possibleOffset","type":"uint256","internalType":"uint256"},{"name":"probability","type":"uint256","internalType":"uint256"},{"name":"dayTime","type":"DAYTIME","internalType":"enum DAYTIME"}]}],"stateMutability":"view"},{"type":"function","name":"decodeGenericMotif","inputs":[{"name":"_data","type":"bytes","internalType":"bytes"}],"outputs":[{"name":"","type":"tuple","internalType":"struct GenericMotif","components":[{"name":"name","type":"string","internalType":"string"},{"name":"lat","type":"int256","internalType":"int256"},{"name":"lng","type":"int256","internalType":"int256"},{"name":"heading","type":"int256","internalType":"int256"}]}],"stateMutability":"pure"},{"type":"function","name":"decodeMotif","inputs":[{"name":"_data","type":"bytes","internalType":"bytes"}],"outputs":[{"name":"","type":"tuple","internalType":"struct Motif","components":[{"name":"name","type":"string","internalType":"string"},{"name":"lat","type":"int256","internalType":"int256"},{"name":"lng","type":"int256","internalType":"int256"},{"name":"heading","type":"int256","internalType":"int256"},{"name":"horizon","type":"int256","internalType":"int256"},{"name":"svg","type":"string","internalType":"string"},{"name":"scenes","type":"tuple[]","internalType":"struct SceneInMotif[]","components":[{"name":"placeHolder","type":"string","internalType":"string"},{"name":"sceneDetails","type":"tuple[]","internalType":"struct Scene[]","components":[{"name":"area","type":"int256[4]","internalType":"int256[4]"},{"name":"assets","type":"uint256[]","internalType":"uint256[]"},{"name":"scale","type":"uint256","internalType":"uint256"}]}]},{"name":"replacements","type":"tuple[]","internalType":"struct Replacement[]","components":[{"name":"tag","type":"ObjectType","internalType":"enum ObjectType"},{"name":"dataType","type":"RenderDataType","internalType":"enum RenderDataType"},{"name":"data","type":"int256[]","internalType":"int256[]"},{"name":"placeholder","type":"string","internalType":"string"},{"name":"ref","type":"string","internalType":"string"}]},{"name":"motifType","type":"MotifType","internalType":"enum MotifType"}]}],"stateMutability":"pure"},{"type":"function","name":"decodeReplacements","inputs":[{"name":"_data","type":"bytes","internalType":"bytes"},{"name":"index","type":"uint256","internalType":"uint256"}],"outputs":[{"name":"","type":"tuple[]","internalType":"struct Replacement[]","components":[{"name":"tag","type":"ObjectType","internalType":"enum ObjectType"},{"name":"dataType","type":"RenderDataType","internalType":"enum RenderDataType"},{"name":"data","type":"int256[]","internalType":"int256[]"},{"name":"placeholder","type":"string","internalType":"string"},{"name":"ref","type":"string","internalType":"string"}]},{"name":"","type":"uint256","internalType":"uint256"}],"stateMutability":"pure"},{"type":"function","name":"decodeSceneIMotif","inputs":[{"name":"_data","type":"bytes","internalType":"bytes"},{"name":"index","type":"uint256","internalType":"uint256"}],"outputs":[{"name":"","type":"tuple[]","internalType":"struct SceneInMotif[]","components":[{"name":"placeHolder","type":"string","internalType":"string"},{"name":"sceneDetails","type":"tuple[]","internalType":"struct Scene[]","components":[{"name":"area","type":"int256[4]","internalType":"int256[4]"},{"name":"assets","type":"uint256[]","internalType":"uint256[]"},{"name":"scale","type":"uint256","internalType":"uint256"}]}]},{"name":"","type":"uint256","internalType":"uint256"}],"stateMutability":"pure"},{"type":"function","name":"flzDecompress","inputs":[{"name":"data","type":"bytes","internalType":"bytes"}],"outputs":[{"name":"result","type":"bytes","internalType":"bytes"}],"stateMutability":"pure"},{"type":"function","name":"trimNullBytes","inputs":[{"name":"data","type":"bytes","internalType":"bytes"}],"outputs":[{"name":"","type":"string","internalType":"string"}],"stateMutability":"pure"}],"bytecode":{"object":"0x60808060405234601957611d31908161001f823930815050f35b600080fdfe6080604052600436101561001257600080fd5b60003560e01c80630ce3b96b146100a757806327f9164d146100a25780634a9fd6131461009d57806351a32702146100985780635a60e6311461009357806374f18c651461008e5780638ed06234146100895780639ea37654146100845763f1a5fc991461007f57600080fd5b610c2d565b610b64565b610a8d565b6109c7565b61099f565b610790565b61060b565b61044c565b6100d06100bc6100b63661023f565b90610fe6565b6040519283926040845260408401906102b1565b9060208301520390f35b634e487b7160e01b600052604160045260246000fd5b604051906080820182811067ffffffffffffffff82111761011057604052565b6100da565b6040519060e0820182811067ffffffffffffffff82111761011057604052565b60405190610120820182811067ffffffffffffffff82111761011057604052565b604051906040820182811067ffffffffffffffff82111761011057604052565b604051906060820182811067ffffffffffffffff82111761011057604052565b6040519060a0820182811067ffffffffffffffff82111761011057604052565b6040519190601f01601f1916820167ffffffffffffffff81118382101761011057604052565b67ffffffffffffffff811161011057601f01601f191660200190565b81601f8201121561023a57803590610217610212836101dc565b6101b6565b928284526020838301011161023a57816000926020809301838601378301015290565b600080fd5b604060031982011261023a576004359067ffffffffffffffff821161023a5761026a916004016101f8565b9060243590565b919082519283825260005b84811061029d575050826000602080949584010152601f8019910116010190565b60208183018101518483018201520161027c565b9080602083519182815201916020808360051b8301019401926000915b8383106102dd57505050505090565b9091929394601f19828203018352855160206103028251604085526040850190610271565b910151916020818303910152815180825260208201906020808260051b85010194019260005b828110610349575050505050602080600192970193019301919392906102ce565b9091929394601f198382030185528551908151816000905b600482106103ce5750505060208201519160c0608083015282518060c0840152602060e084019401906000905b8082106103b5575050506040015160a0909101529460209081019401929190600101610328565b825186526020958601959092019160019091019061038e565b825181526020928301926001929092019101610361565b602060031982011261023a576004359067ffffffffffffffff821161023a57610410916004016101f8565b90565b6020815260806060610430845183602086015260a0850190610271565b9360208101516040850152604081015182850152015191015290565b610455366103e5565b61045d6100f0565b9060608252600060606020938260208201528260408201520152610485600482511015611837565b604051916004830190600884019060048401915b8084106105215760048652601f8401601f191660405261051d856104bc88611743565b906104ce6104c982611877565b611743565b6104f66104f16104e06104c9856118c4565b936104eb8151611180565b90611bf2565b611432565b926104ff6100f0565b93845260208401526040830152606082015260405191829182610413565b0390f35b825184529281019291810191610499565b634e487b7160e01b600052602160045260246000fd5b6003111561055257565b610532565b6020808201908083528351809252604092604081018260408560051b8401019601946000925b85841061058e575050505050505090565b909192939495968580600192603f198582030187528a51906105b960e0835190808452830190610271565b9183810151848301528781015188830152606080820151908301526080808201519083015260a0808201519083015260c080910151916105f883610548565b015299019401940192959493919061057d565b610614366103e5565b61064061063a61063461062684610c59565b516001600160f81b03191690565b60f81c90565b60ff1690565b6001809161064d8161119c565b9260005b828110610666576040518061051d8782610557565b839061067e6106786104f1858a611a04565b93610cb5565b92610740886106996106936104c98884611af5565b96610cc3565b6106af6106a96104c98385611af5565b91610cc3565b6106bf6106a96104c98386611af5565b906106d66106d06104c98487611af5565b92610cc3565b9261071261070361063a6106346106266106fc6106f66104c98b8d611af5565b99610cc3565b809a610c7b565b9561070d87610548565b610cd1565b9961071b610115565b978852602088015260408701526060860152608085015260a084015260c0830161120d565b61074a8288610e29565b526107558187610e29565b5001610651565b90815180825260208080930193019160005b82811061077c575050505090565b83518552938101939281019260010161076e565b60408060031936011261023a576004803567ffffffffffffffff811161023a576107be9036906004016101f8565b916024359160ff831680930361023a576107e26107dc84865161122f565b1561123e565b6107f56107f0848651611280565b610e01565b90600092600060028614905b87518110156109895786821561088757816108696108638b61085861063a61063461062661084861083e61063a6106346106266108829e8a610c7b565b60081b61ff001690565b9461085289610cd1565b90610c7b565b1761ffff1660010b90565b60010b90565b61087c6108768484611280565b89610e29565b52610d09565b610801565b840361093e5786816109396109338b61092661063a6106346106268761091b61090f61063a6106346106266108829f806109026108f661063a8f610626816108526108f06108e461063a6106346106266109099d61063499610c7b565b60181b63ff0000001690565b97610cd1565b60101b63ffff00001690565b1796610ca2565b8b610c7b565b60081b63ffffff001690565b179461085289610cdf565b1763ffffffff1660030b90565b60030b90565b610869565b825162461bcd60e51b81526020818601818152601b918101919091527f556e737570706f72746564206e756d626572206f662062797465730000000000604082015281906060010390fd5b6040516020808252819061051d9082018861075c565b61051d6109b36109ae366103e5565b611308565b604051918291602083526020830190610271565b61051d6109b36104f1366103e5565b908082519081815260208091019281808460051b8301019501936000915b848310610a045750505050505090565b9091929394958480610a7d600193601f198682030187528a51610a6a610a5760a08351610a3081610548565b855286840151610a3f81610548565b8786015260409080828601519287015285019061075c565b6060808401519085830390860152610271565b9160808092015191818403910152610271565b98019301930191949392906109f4565b6100d0610aa2610a9c3661023f565b9061154c565b6040519283926040845260408401906109d6565b9060048210156105525752565b61041090602081528251610ae561012091826020850152610140840190610271565b602085015160408401526040850151606084015260608501516080840152608085015160a0840152610b59610b43610b2f60a088015193601f1994858883030160c0890152610271565b60c0880151848783030160e08801526102b1565b60e08701516101009386830301848701526109d6565b940151910190610ab6565b61051d610b81610b73366103e5565b610b7b61169d565b50611308565b610b8d6104f182611b4e565b90610bd7610b9d6104c983611a5d565b610ba96104c984611aa9565b610bb56104c985611910565b610bc16104c98661195c565b91610bea610bce87610e3d565b8897919761154c565b610be4818a939a5161118f565b91611c7d565b93610bf3610135565b978852602088015260408701526060860152608085015260a084015260c083015260e0820152600061010082015260405191829182610ac3565b6020610c3b6104c9366103e5565b604051908152f35b634e487b7160e01b600052603260045260246000fd5b805115610c665760200190565b610c43565b805160201015610c665760400190565b908151811015610c66570160200190565b634e487b7160e01b600052601160045260246000fd5b9060028201809211610cb057565b610c8c565b9060088201809211610cb057565b9060048201809211610cb057565b9060018201809211610cb057565b9060038201809211610cb057565b90601f8201809211610cb057565b600a019081600a11610cb057565b91908201809211610cb057565b67ffffffffffffffff81116101105760051b60200190565b90610d3b61021283610d16565b8281528092610d4c601f1991610d16565b019060005b828110610d5d57505050565b602090610d68610156565b60608082528382015283820183015201610d51565b610d856100f0565b906080368337565b90610d9a61021283610d16565b8281528092610dab601f1991610d16565b01906000805b838110610dbe5750505050565b602090610dc9610176565b610dd16100f0565b6080368237815282606081830152846040830152828601015201610db1565b906004811015610c665760051b0190565b90610e0e61021283610d16565b8281528092610e1f601f1991610d16565b0190602036910137565b8051821015610c665760209160051b010190565b906020610e5261063a61063461062686610c6b565b602193610e5e82610d2e565b9260005b838110610e7157505050509190565b610e87610e816104f18986611a04565b97610cb5565b96610ea4610e9e61063a6106346106268c89610c7b565b98610cd1565b97610eae81610d8d565b9060005b818110610eeb5750509060019291610ec8610156565b91825284820152610ed98288610e29565b52610ee48187610e29565b5001610e62565b610ef3610d7d565b60005b60048110610fba5750610f1c610f1661063a6106348f610626908d610c7b565b9c610cd1565b610f258d610e01565b809d6000915b8b828410610f85578460019796959450610f549350610f4e92506104c9916119ab565b91610ca2565b9d610f5d610176565b928352898301526040820152610f738286610e29565b52610f7e8185610e29565b5001610eb2565b93610fb191610fab85610fa561063a6106346106268760019a9b9c610c7b565b92610e29565b52610cd1565b9201908e610f2b565b9b610fdf818e610fd9610fd26104c96001968f6119ab565b9186610df0565b52610ca2565b9c01610ef6565b919091611005610fff61063a6106346106268786610c7b565b93610cd1565b9261100f81610d2e565b9160005b828110611021575050509190565b6110376110316104f18885611a04565b96610cb5565b9561104e6108f061063a6106346106268b88610c7b565b9661105881610d8d565b9060005b8181106110965750509060019291611072610156565b91825260208201526110848287610e29565b5261108f8186610e29565b5001611013565b61109e610d7d565b60005b6004811061115257506110c66110c061063a6106346106268f8c610c7b565b9b610cd1565b6110cf8c610e01565b9b6000905b8d8a82841061112a5784600197969594506110f89350610f4e92506104c9916119ab565b9c611101610176565b928352602083015260408201526111188286610e29565b526111238185610e29565b500161105c565b9361114a91610fab85610fa561063a6106346106268760019a9b9c610c7b565b9201906110d4565b9a61116a818d610fd9610fd26104c96001968e6119ab565b9b016110a1565b600019810191908211610cb057565b600919810191908211610cb057565b91908203918211610cb057565b906111a961021283610d16565b82815280926111ba601f1991610d16565b019060005b8281106111cb57505050565b6020906111d6610115565b606080825260008491818385015281604085015283015260006080830152600060a0830152600060c08301528285010152016111bf565b61121682610548565b52565b634e487b7160e01b600052601260045260246000fd5b8115611239570690565b611219565b1561124557565b60405162461bcd60e51b8152602060048201526013602482015272092dcecc2d8d2c840c8c2e8c240d8cadccee8d606b1b6044820152606490fd5b8115611239570490565b600161129a60018351161561123e565b806112a8835160011c610e01565b926000915b6112b8575b50505090565b8051821015611303576112fd8261ff006112d3869585610c7b565b5160f01c166112ea6112e483610cd1565b85610c7b565b5160f81c17840b610fd982861c88610e29565b916112ad565b6112b2565b906040519160209081840190828082518301019101905b80821061133b575050838103601f190184526000815201604052565b8151600081811a918260051c9081156113e0576007928383149260019483861a01811884021893600295611f00868801948684011a9160081b160181808201918b03918c81188d8211021893905b61139b575b505050505050505061131f565b839060009b9a969798999b198184010151818c0152018481106113d3575050505050908391010192010191388080808080808061138e565b829a98979695999a611389565b5050506002816001959493959384810151865201019201019161131f565b611406610156565b600181529060203681840137565b90611421610212836101dc565b8281528092610e1f601f19916101dc565b80515b8015801580611493575b1561145157610cb05760001901611435565b5061145b81611414565b9160009060005b838110611470575050505090565b8061148061062660019385610c7b565b841a61148c8288610c7b565b5301611462565b506000198201828111610cb0576001600160f81b0319906114b49085610c7b565b51161561143f565b906114c961021283610d16565b82815280926114da601f1991610d16565b01906000805b8381106114ed5750505050565b6020906114f8610196565b8381528284818301526060806040840152808084015260808301528286010152016114e0565b908160011b9180830460021490151715610cb057565b600381901b91906001600160fd1b03811603610cb057565b919091611565610fff61063a6106346106268786610c7b565b9261156f816114bc565b916000805b83811061158357505050509190565b6001906115a661159c61063a6106346106268c89610c7b565b9861070d8a610548565b976115c76115bd61063a6106346106268d8a610c7b565b9961070d8b610548565b6116266115fc6115f66115d86113fe565b6115e5610626868c610c7b565b891a6115f082610c59565b53611743565b92610cd1565b61162061161a61161561160e8661151e565b848c611c7d565b61128a565b9361151e565b90610d09565b61163c6116366104f1838a611b99565b91610cb5565b916116726116566116506104f1868c611b99565b94610cb5565b9c611669611662610196565b968761120d565b6020860161120d565b60408401526060830152608082015261168b8288610e29565b526116968187610e29565b5001611574565b6116a5610135565b906060825260006020830152600060408301526000606083015260006080830152606060a0830152606060c0830152606060e08301526000610100830152565b156116ec57565b60405162461bcd60e51b815260206004820152600f60248201526e24b7383aba103a37b7903637b7339760891b6044820152606490fd5b60ff8111610cb0576001901b90565b600160ff1b8114610cb05760000390565b6117516020825111156116e5565b600090815b81518310156117a25761179a60019161177861063a6106346106268888610c7b565b61179361178e876117898851611171565b61118f565b611534565b1b90610d09565b920191611756565b91508051826020821091826117db575b5050156117bd575090565b610410916117896117d16117d69351611534565b611723565b611732565b600192506117eb6117f091611534565b611171565b1c161582386117b2565b1561180157565b60405162461bcd60e51b815260206004820152600e60248201526d736c6963655f6f766572666c6f7760901b6044820152606490fd5b1561183e57565b60405162461bcd60e51b8152602060048201526011602482015270736c6963655f6f75744f66426f756e647360781b6044820152606490fd5b611885600882511015611837565b60405190600482019060088084019101905b8083106118b157505060048252601f01601f191660405290565b9091825181526020809101920190611897565b6118d2600a82511015611837565b604051906002820190600a01600483015b8083106118fd57505060028252601f01601f191660405290565b90918251815260208091019201906118e3565b61191e601e82511015611837565b604051906002820190601e01600483015b80831061194957505060028252601f01601f191660405290565b909182518152602080910192019061192f565b602061196c602083511015611837565b6040519160028301916020600485019201915b80841061199a5750506002835250601f01601f191660405290565b82518452928101929181019161197f565b90815160028201808311610cb0576119c4911015611837565b6040519160028084019260048501920101905b8083106119f157505060028252601f01601f191660405290565b90918251815260208091019201906119d7565b90815160088201808311610cb057611a1d911015611837565b6040519160088084019260108501920101905b808310611a4a57505060088252601f01601f191660405290565b9091825181526020809101920190611a30565b611a6b601882511015611837565b604051906004820190601801600883015b808310611a9657505060048252601f01601f191660405290565b9091825181526020809101920190611a7c565b611ab7601c82511015611837565b604051906004820190601c01600883015b808310611ae257505060048252601f01601f191660405290565b9091825181526020809101920190611ac8565b90815160048201808311610cb057611b0e911015611837565b6040519160048084019260088501920101905b808310611b3b57505060048252601f01601f191660405290565b9091825181526020809101920190611b21565b611b5c601482511015611837565b6040519060148083019101602883015b808310611b8657505060148252601f01601f191660405290565b9091825181526020809101920190611b6c565b90815160088201808311610cb057611bb2911015611837565b6040519160088084019260108501920101905b808310611bdf57505060088252601f01601f191660405290565b9091825181526020809101920190611bc5565b611c0682611bff81610ced565b10156117fa565b611c1b8151611c1484610cfb565b1115611837565b81611c33575050604051600081526020810160405290565b60405191601f811691600a831560051b80858701019484860193010101905b808410611c6a5750508252601f01601f191660405290565b9092835181526020809101930190611c52565b91611c8b81611bff81610ced565b611c9a8351611c148385610d09565b80611cb357505050604051600081526020810160405290565b60405192601f821692831560051b80858701019484860193010101905b808410611ce85750508252601f01601f191660405290565b9092835181526020809101930190611cd056fea264697066735822122033889ac1e94d06fbd4faca8cdeccefeda7da06f598191b0f9b07ad208113c5b064736f6c63430008190033","linkReferences":{}},"methodIdentifiers":{"bytesToInt(bytes)":"f1a5fc99","bytesToIntArray(bytes,uint8)":"51a32702","decodeAssetsForScenes(bytes)":"4a9fd613","decodeGenericMotif(bytes)":"27f9164d","decodeMotif(bytes)":"9ea37654","decodeReplacements(bytes,uint256)":"8ed06234","decodeSceneIMotif(bytes,uint256)":"0ce3b96b","flzDecompress(bytes)":"5a60e631","trimNullBytes(bytes)":"74f18c65"},"id":3}