{"abi":[{"type":"function","name":"bytesToInt","inputs":[{"name":"_bytes","type":"bytes","internalType":"bytes"}],"outputs":[{"name":"","type":"int256","internalType":"int256"}],"stateMutability":"pure"},{"type":"function","name":"bytesToIntArray","inputs":[{"name":"data","type":"bytes","internalType":"bytes"},{"name":"bytesPerInt","type":"uint8","internalType":"uint8"}],"outputs":[{"name":"","type":"int256[]","internalType":"int256[]"}],"stateMutability":"pure"},{"type":"function","name":"decodeAssetsForScenes","inputs":[{"name":"_data","type":"bytes","internalType":"bytes"}],"outputs":[{"name":"","type":"tuple[]","internalType":"struct AssetInScene[]","components":[{"name":"name","type":"string","internalType":"string"},{"name":"minDuration","type":"uint256","internalType":"uint256"},{"name":"maxDuration","type":"uint256","internalType":"uint256"},{"name":"checkInterval","type":"uint256","internalType":"uint256"},{"name":"possibleOffset","type":"uint256","internalType":"uint256"},{"name":"probability","type":"uint256","internalType":"uint256"},{"name":"dayTime","type":"DAYTIME","internalType":"enum DAYTIME"}]}],"stateMutability":"pure"},{"type":"function","name":"decodeGenericMotif","inputs":[{"name":"_data","type":"bytes","internalType":"bytes"}],"outputs":[{"name":"","type":"tuple","internalType":"struct GenericMotif","components":[{"name":"name","type":"string","internalType":"string"},{"name":"lat","type":"int256","internalType":"int256"},{"name":"lng","type":"int256","internalType":"int256"},{"name":"heading","type":"int256","internalType":"int256"}]}],"stateMutability":"pure"},{"type":"function","name":"decodeMotif","inputs":[{"name":"_data","type":"bytes","internalType":"bytes"}],"outputs":[{"name":"","type":"tuple","internalType":"struct Motif","components":[{"name":"name","type":"string","internalType":"string"},{"name":"lat","type":"int256","internalType":"int256"},{"name":"lng","type":"int256","internalType":"int256"},{"name":"heading","type":"int256","internalType":"int256"},{"name":"horizon","type":"int256","internalType":"int256"},{"name":"svg","type":"string","internalType":"string"},{"name":"scenes","type":"tuple[]","internalType":"struct SceneInMotif[]","components":[{"name":"placeHolder","type":"string","internalType":"string"},{"name":"assets","type":"uint8[]","internalType":"uint8[]"},{"name":"area","type":"int256[4]","internalType":"int256[4]"},{"name":"scale","type":"uint256","internalType":"uint256"}]},{"name":"replacements","type":"tuple[]","internalType":"struct Replacement[]","components":[{"name":"tag","type":"ObjectType","internalType":"enum ObjectType"},{"name":"dataType","type":"RenderDataType","internalType":"enum RenderDataType"},{"name":"data","type":"int256[]","internalType":"int256[]"},{"name":"placeholder","type":"string","internalType":"string"},{"name":"ref","type":"string","internalType":"string"}]},{"name":"motifType","type":"MotifType","internalType":"enum MotifType"}]}],"stateMutability":"pure"},{"type":"function","name":"decodeReplacements","inputs":[{"name":"_data","type":"bytes","internalType":"bytes"},{"name":"index","type":"uint256","internalType":"uint256"}],"outputs":[{"name":"","type":"tuple[]","internalType":"struct Replacement[]","components":[{"name":"tag","type":"ObjectType","internalType":"enum ObjectType"},{"name":"dataType","type":"RenderDataType","internalType":"enum RenderDataType"},{"name":"data","type":"int256[]","internalType":"int256[]"},{"name":"placeholder","type":"string","internalType":"string"},{"name":"ref","type":"string","internalType":"string"}]},{"name":"","type":"uint256","internalType":"uint256"}],"stateMutability":"pure"},{"type":"function","name":"decodeSceneIMotif","inputs":[{"name":"_data","type":"bytes","internalType":"bytes"},{"name":"index","type":"uint256","internalType":"uint256"}],"outputs":[{"name":"","type":"tuple[]","internalType":"struct SceneInMotif[]","components":[{"name":"placeHolder","type":"string","internalType":"string"},{"name":"assets","type":"uint8[]","internalType":"uint8[]"},{"name":"area","type":"int256[4]","internalType":"int256[4]"},{"name":"scale","type":"uint256","internalType":"uint256"}]},{"name":"","type":"uint256","internalType":"uint256"}],"stateMutability":"pure"},{"type":"function","name":"extractBytes","inputs":[{"name":"_data","type":"bytes","internalType":"bytes"},{"name":"_index","type":"uint256","internalType":"uint256"},{"name":"_byteCount","type":"uint256","internalType":"uint256"}],"outputs":[{"name":"","type":"bytes","internalType":"bytes"}],"stateMutability":"pure"},{"type":"function","name":"trimNullBytes","inputs":[{"name":"data","type":"bytes","internalType":"bytes"}],"outputs":[{"name":"","type":"string","internalType":"string"}],"stateMutability":"pure"}],"bytecode":{"object":"0x60808060405234601957611ad1908161001f823930815050f35b600080fdfe6080604052600436101561001257600080fd5b60003560e01c80630ce3b96b14610ea457806327f9164d14610c8a5780634a9fd61314610a0b57806351a32702146107b457806374f18c65146107835780638ed0623414610750578063993c3b2c146106fa5780639ea37654146100c15763f1a5fc991461007f57600080fd5b60203660031901126100bc576004356001600160401b0381116100bc576100b46100af6020923690600401611260565b611976565b604051908152f35b600080fd5b60203660031901126100bc576004356001600160401b0381116100bc576100ec903690600401611260565b60006101006100f96111c2565b60608152826020820152826040820152826060820152826080820152606060a0820152606060c0820152606060e08201520152610134611201565b90601491601481526020368183013760005b8381106106ce5750610157906114a1565b91610160611201565b90600482526020368184013760005b6004811061069657505061018290611976565b61018a611201565b600481526020368183013760005b6004811061065d57506101aa90611976565b906101b3611201565b600281526020368183013760005b6002811061062457506101d390611976565b6101db611201565b600281526020368183013760005b600281106105eb57506101fb90611976565b908451602010156105d557604085015193602161022261021d8760f81c611421565b611220565b958060f81c8752601f196102388260f81c611421565b0160005b81811061059b5750506000905b8060f81c82106104415750506102626102759188611548565b61026f818a939a5161144c565b91611926565b9361027e6111c2565b978852602088015260408701526060860152608085015260a084015260c083015260e08201526000610100820152604051906020825261030d6102cf825161012060208601526101408501906112ce565b602083015160408501526040830151606085015260608301516080850152608083015160a085015260a0830151601f198583030160c08601526112ce565b60c082015190601f198482030160e0850152815180825260208201916020808360051b8301019401926000915b83831061038e57878761010061035f8960e0840151601f19868303018487015261134c565b9101519060048210156103785782916101208301520390f35b634e487b7160e01b600052602160045260246000fd5b9091929394601f198282030183528551906103b2825160e0835260e08301906112ce565b916020810151928281036020840152602080855192838152019401906000905b8082106104265750505060408181015160009184015b60048310610410575050506060015160c090910152946020908101949360010192019061033a565b60208060019284518152019201920191906103e8565b90919460208060019260ff89511681520196019201906103d2565b9091610455610450828b61180f565b6114a1565b90600881018111610524576008019261046c61116e565b91608036843760005b8b6004821061056e5761048a91508690611403565b5160f81c9460018101811161052457600101928b6104aa61021d88611421565b87815296601f196104ba82611421565b013660208a01376000905b80821061053a5750506100af856104db926118cb565b9060028501851161052457600260019501966104f561116e565b938452602084015260408301526060820152610511828b611438565b5261051c818a611438565b500190610249565b634e487b7160e01b600052601160045260246000fd5b918661054891979297611403565b5160f81c610556878a611438565b52600181018091116105245760019095018d916104c5565b6100af8761057e929893986118cb565b8660051b8501526002810181116105245760020194600101610475565b6020906105a661116e565b606081526060838201526105b861116e565b608036823760408201526000606082015282828c0101520161023c565b634e487b7160e01b600052603260045260246000fd5b601e810190818111610524576001916001600160f81b03199061060e9089611403565b511660001a61061d8285611403565b53016101e9565b601c810190818111610524576001916001600160f81b0319906106479088611403565b511660001a6106568285611403565b53016101c1565b6018810190818111610524576001916001600160f81b0319906106809087611403565b511660001a61068f8285611403565b5301610198565b81810190818111610524576001916001600160f81b0319906106b89087611403565b511660001a6106c78286611403565b530161016f565b6001906001600160f81b03196106e48286611403565b511660001a6106f38285611403565b5301610146565b60603660031901126100bc576004356001600160401b0381116100bc5761073861072b61074c923690600401611260565b6044359060243590611926565b6040519182916020835260208301906112ce565b0390f35b61077961076561075f3661129d565b90611548565b60405192839260408452604084019061134c565b9060208301520390f35b60203660031901126100bc576004356001600160401b0381116100bc5761073861045061074c923690600401611260565b60403660031901126100bc576004356001600160401b0381116100bc576107df903690600401611260565b602480359060ff82168092036100bc57825182156109f6578290066109bc57610809828451611459565b61082161081861021d83611421565b91808352611421565b602090601f1901368383013760009260029160028614945b87518110156109a65785156108b35761ff00610855828a611403565b5160f01c1660019081830180841161089e579161089993916108788b948d611403565b5160f81c17900b5b61089361088d8484611459565b89611438565b52611414565b610839565b85634e487b7160e01b60005260116004526000fd5b600487036109635763ff0000006108ca828a611403565b5160e01c166001820180831161094e576108e862ff0000918b611403565b5160e81c169085830180841161089e5761090561ff00918c611403565b5160f01c16600392838501808611610939579161089995939161092a8d96948f611403565b5160f81c92171717900b610880565b87634e487b7160e01b60005260116004526000fd5b84634e487b7160e01b60005260116004526000fd5b50601b6064926040519262461bcd60e51b845260048401528201527f556e737570706f72746564206e756d626572206f6620627974657300000000006044820152fd5b6040516020808252819061074c90820188611318565b60649060136040519162461bcd60e51b83526020600484015282015272092dcecc2d8d2c840c8c2e8c240d8cadccee8d606b1b6044820152fd5b50634e487b7160e01b60009081526012600452fd5b60203660031901126100bc576004356001600160401b0381116100bc57610a36903690600401611260565b8051156105d557602081015190600191610a5561021d8260f81c611421565b928160f81c8452610a688260f81c611421565b601f190160005b818110610c495750506000905b8260f81c8210610b3d57846040518091602082016020835281518091526040830190602060408260051b8601019301916000905b828210610abf57505050500390f35b919360019193955060208091603f19898203018552875190610aea825160e0835260e08301906112ce565b91838101518483015260408101516040830152606080820151908301526080808201519083015260a0808201519083015260c08091015191610b2b8361130e565b01529601920192018594939192610ab0565b610b4a610450828661180f565b91600882019283831161052457610b646100af8588611870565b93600c840180911161052457610b7d6100af8289611870565b6010850180921161052457610b956100af838a611870565b6014860180931161052457610bad6100af848b611870565b906018870180941161052457610bc66100af858c611870565b92601c880180951161052457610bdc858c611403565b5160f81c94610bea8661130e565b601d89011061052457601d6001980198610c026111a3565b968752602087015260408601526060850152608084015260a0830152610c278161130e565b60c0820152610c368288611438565b52610c418187611438565b500190610a7c565b602090610c546111a3565b60006060808352818584015281604084015282015260006080820152600060a0820152600060c082015282828901015201610a6f565b6020806003193601126100bc576004356001600160401b0381116100bc57610cb6903690600401611260565b9060006060610cc361116e565b81815282848201528260408201520152610cdb611201565b6004815281368183013760005b60048110610e785750610cfa90611976565b610d02611201565b6004815282368183013760005b60048110610e3f5750610d2190611976565b610d29611201565b600280825284368184013760005b818110610e06575050610d4990611976565b90845194600919860195861161052457610d6286611479565b9560005b818110610dcd57505050610db6610d7e6080966114a1565b94610d8761116e565b9586528086019485526040860192835260608601938452604051968796828852519187015260a08601906112ce565b925160408501525160608401525160808301520390f35b600a810190818111610524576001916001600160f81b031990610df09086611403565b511660001a610dff828b611403565b5301610d66565b6008810190818111610524576001916001600160f81b031990610e29908a611403565b511660001a610e388286611403565b5301610d37565b6004810190818111610524576001916001600160f81b031990610e629088611403565b511660001a610e718285611403565b5301610d0f565b6001906001600160f81b0319610e8e8287611403565b511660001a610e9d8285611403565b5301610ce8565b610ead3661129d565b610eb78183611403565b5190600181018091116105245791610ed461021d8360f81c611421565b908260f81c8252601f19610eea8460f81c611421565b0160005b81811061113557505090916000915b8160f81c8310610fff575050506040519060408201926040835281518094526060916060840160608660051b860101936020809301916000915b888310610f4a5787808888888301520390f35b90919295605f198882030183528487519183610f6f845160e0845260e08401906112ce565b938381015194838103858501528480875192838152019601906000905b808210610fdf5750505060408181015160009185015b60048310610fc557505050015160c0909101529096810193600101920190610f37565b815181528b96899550600193909301929182019101610fa2565b825160ff168852968601968b968995509290920191600190910190610f8c565b90929193611010610450828461180f565b9060088101809111610524579461102561116e565b91608036843760005b6004811061110c57506110418785611403565b5160f81c9660018101809111610524579261105e61021d89611421565b9780895261106b81611421565b601f19013660208b01376000905b8082106110da57505061108f6100af85876118cb565b9060028501851161052457600260019501986110a961116e565b9384526020840152604083015260608201526110c58286611438565b526110d08185611438565b5001919290610efd565b90946110e68188611403565b5160f81c6110f4878c611438565b52600181018111610524576001809101950190611079565b9661111a6100af82876118cb565b8860051b85015260028101809111610524579660010161102e565b60209061114061116e565b606080825260008491808385015261115661116e565b60803682376040850152830152828701015201610eee565b60405190608082018281106001600160401b0382111761118d57604052565b634e487b7160e01b600052604160045260246000fd5b6040519060e082018281106001600160401b0382111761118d57604052565b6040519061012082018281106001600160401b0382111761118d57604052565b6040519060a082018281106001600160401b0382111761118d57604052565b60405190604082018281106001600160401b0382111761118d57604052565b6040519190601f01601f191682016001600160401b0381118382101761118d57604052565b6001600160401b03811161118d57601f01601f191660200190565b81601f820112156100bc5780359061127a61021d83611245565b92828452602083830101116100bc57816000926020809301838601378301015290565b60406003198201126100bc57600435906001600160401b0382116100bc576112c791600401611260565b9060243590565b919082519283825260005b8481106112fa575050826000602080949584010152601f8019910116010190565b6020818301810151848301820152016112d9565b6003111561037857565b90815180825260208080930193019160005b828110611338575050505090565b83518552938101939281019260010161132a565b908082519081815260208091019281808460051b8301019501936000915b84831061137a5750505050505090565b90919293949584806113f3600193601f198682030187528a516113e06113cd60a083516113a68161130e565b8552868401516113b58161130e565b87860152604090808286015192870152850190611318565b60608084015190858303908601526112ce565b91608080920151918184039101526112ce565b980193019301919493929061136a565b9081518110156105d5570160200190565b9190820180921161052457565b6001600160401b03811161118d5760051b60200190565b80518210156105d55760209160051b010190565b9190820391821161052457565b8115611463570490565b634e487b7160e01b600052601260045260246000fd5b9061148661021d83611245565b8281528092611497601f1991611245565b0190602036910137565b80515b801580158061151f575b156114d5576114c057600019016114a4565b60246000634e487b7160e01b81526011600452fd5b506114df81611479565b9160009060005b8381106114f4575050505090565b6001906001600160f81b031961150a8285611403565b5116841a6115188288611403565b53016114e6565b5060001982018281116114c0576001600160f81b0319906115409085611403565b5116156114ae565b9190916115558382611403565b5160f81c926001908181018091116105245793919061157661021d84611421565b83815292601f198061158783611421565b0160005b8181106117d25750506000935b8285106115a85750505050509190565b90919293966115b78183611403565b5160f81c976115c58961130e565b85820198898311610524576115da8a85611403565b5160f81c926115e88461130e565b60028101809b116105245760409081519b828d018d81106001600160401b0382111761118d578352898d5260209c8d81018e3682376001600160f81b0319611630848b611403565b511660001a918051156105d55760039261164a9253611976565b920180911161052457818a1b918083046002149015171561052457611670828289611926565b8a81511661179857908a828f95949351821c958b61169c61169361021d8a611421565b98808a52611421565b019036908801376000915b61173b575b5050906116b891611414565b916116c6610450848961180f565b9160088401968785116105245760106116e26104508a8c61180f565b9501809811610524578b979e6116f66111e2565b966117008161130e565b875261170b8261130e565b860152840152606083015260808201526117258289611438565b526117308188611438565b500193929190611598565b80518210156117935761ff006117518383611403565b5160f01c168d83019081841161052457838f92916117726117819386611403565b5160f81c17830b921c88611438565b5260028201809211610524578c6116a7565b6116ac565b835162461bcd60e51b8152600481018f90526013602482015272092dcecc2d8d2c840c8c2e8c240d8cadccee8d606b1b6044820152606490fd5b6020906117e296939495966111e2565b6000815282600081830152606080604084015280808401526080830152828a01015201949392919461158b565b90611818611201565b91600891600884526020368186013760009160005b84811061183c57505050505090565b6001906001600160f81b031961185b6118558684611414565b85611403565b5116851a6118698289611403565b530161182d565b90611879611201565b91600491600484526020368186013760009160005b84811061189d57505050505090565b6001906001600160f81b03196118b66118558684611414565b5116851a6118c48289611403565b530161188e565b906118d4611201565b91600291600284526020368186013760009160005b8481106118f857505050505090565b6001906001600160f81b03196119116118558684611414565b5116851a61191f8289611403565b53016118e9565b91909161193282611479565b9260009160005b84811061194857505050505090565b6001906001600160f81b03196119616118558684611414565b5116851a61196f8289611403565b5301611939565b906020825111611a64576000805b83518210156119de576119978285611403565b5160f81c908451600019810190811161052457836119b49161144c565b906001600160fd1b0382168203610524576001926119d69260031b1b90611414565b910190611984565b919290508051602081109081611a35575b50156119f9575090565b51600381901b91906001600160fd1b038116036105245760ff8211610524576001611a24921b61144c565b600160ff1b81146105245760000390565b600381901b91506001600160fd1b0381160361052457600019810190811161052457826001911c1615386119ef565b60405162461bcd60e51b815260206004820152600f60248201526e24b7383aba103a37b7903637b7339760891b6044820152606490fdfea26469706673582212209268c270dfc28ceb813a1c1be0697f9c52b7456ad10c3875fc46681b0078619964736f6c63430008190033","linkReferences":{}},"methodIdentifiers":{"bytesToInt(bytes)":"f1a5fc99","bytesToIntArray(bytes,uint8)":"51a32702","decodeAssetsForScenes(bytes)":"4a9fd613","decodeGenericMotif(bytes)":"27f9164d","decodeMotif(bytes)":"9ea37654","decodeReplacements(bytes,uint256)":"8ed06234","decodeSceneIMotif(bytes,uint256)":"0ce3b96b","extractBytes(bytes,uint256,uint256)":"993c3b2c","trimNullBytes(bytes)":"74f18c65"},"id":4}