{"abi":[{"type":"function","name":"bytesToInt","inputs":[{"name":"_bytes","type":"bytes","internalType":"bytes"}],"outputs":[{"name":"","type":"int256","internalType":"int256"}],"stateMutability":"pure"},{"type":"function","name":"bytesToIntArray","inputs":[{"name":"data","type":"bytes","internalType":"bytes"},{"name":"bytesPerInt","type":"uint8","internalType":"uint8"}],"outputs":[{"name":"","type":"int256[]","internalType":"int256[]"}],"stateMutability":"pure"},{"type":"function","name":"decodeAssetsForScenes","inputs":[{"name":"_data","type":"bytes","internalType":"bytes"}],"outputs":[{"name":"","type":"tuple[]","internalType":"struct AssetInScene[]","components":[{"name":"name","type":"string","internalType":"string"},{"name":"minDuration","type":"uint256","internalType":"uint256"},{"name":"maxDuration","type":"uint256","internalType":"uint256"},{"name":"checkInterval","type":"uint256","internalType":"uint256"},{"name":"possibleOffset","type":"uint256","internalType":"uint256"},{"name":"probability","type":"uint256","internalType":"uint256"},{"name":"dayTime","type":"DAYTIME","internalType":"enum DAYTIME"}]}],"stateMutability":"view"},{"type":"function","name":"decodeGenericMotif","inputs":[{"name":"_data","type":"bytes","internalType":"bytes"}],"outputs":[{"name":"","type":"tuple","internalType":"struct GenericMotif","components":[{"name":"name","type":"string","internalType":"string"},{"name":"lat","type":"int256","internalType":"int256"},{"name":"lng","type":"int256","internalType":"int256"},{"name":"heading","type":"int256","internalType":"int256"}]}],"stateMutability":"pure"},{"type":"function","name":"decodeMotif","inputs":[{"name":"_data","type":"bytes","internalType":"bytes"}],"outputs":[{"name":"","type":"tuple","internalType":"struct Motif","components":[{"name":"name","type":"string","internalType":"string"},{"name":"lat","type":"int256","internalType":"int256"},{"name":"lng","type":"int256","internalType":"int256"},{"name":"heading","type":"int256","internalType":"int256"},{"name":"horizon","type":"int256","internalType":"int256"},{"name":"svg","type":"string","internalType":"string"},{"name":"scenes","type":"tuple[]","internalType":"struct SceneInMotif[]","components":[{"name":"placeHolder","type":"string","internalType":"string"},{"name":"assets","type":"uint8[]","internalType":"uint8[]"},{"name":"area","type":"int256[4]","internalType":"int256[4]"},{"name":"scale","type":"uint256","internalType":"uint256"}]},{"name":"replacements","type":"tuple[]","internalType":"struct Replacement[]","components":[{"name":"tag","type":"ObjectType","internalType":"enum ObjectType"},{"name":"dataType","type":"RenderDataType","internalType":"enum RenderDataType"},{"name":"data","type":"int256[]","internalType":"int256[]"},{"name":"placeholder","type":"string","internalType":"string"},{"name":"ref","type":"string","internalType":"string"}]},{"name":"motifType","type":"MotifType","internalType":"enum MotifType"}]}],"stateMutability":"pure"},{"type":"function","name":"decodeReplacements","inputs":[{"name":"_data","type":"bytes","internalType":"bytes"},{"name":"index","type":"uint256","internalType":"uint256"}],"outputs":[{"name":"","type":"tuple[]","internalType":"struct Replacement[]","components":[{"name":"tag","type":"ObjectType","internalType":"enum ObjectType"},{"name":"dataType","type":"RenderDataType","internalType":"enum RenderDataType"},{"name":"data","type":"int256[]","internalType":"int256[]"},{"name":"placeholder","type":"string","internalType":"string"},{"name":"ref","type":"string","internalType":"string"}]},{"name":"","type":"uint256","internalType":"uint256"}],"stateMutability":"pure"},{"type":"function","name":"decodeSceneIMotif","inputs":[{"name":"_data","type":"bytes","internalType":"bytes"},{"name":"index","type":"uint256","internalType":"uint256"}],"outputs":[{"name":"","type":"tuple[]","internalType":"struct SceneInMotif[]","components":[{"name":"placeHolder","type":"string","internalType":"string"},{"name":"assets","type":"uint8[]","internalType":"uint8[]"},{"name":"area","type":"int256[4]","internalType":"int256[4]"},{"name":"scale","type":"uint256","internalType":"uint256"}]},{"name":"","type":"uint256","internalType":"uint256"}],"stateMutability":"pure"},{"type":"function","name":"flzDecompress","inputs":[{"name":"data","type":"bytes","internalType":"bytes"}],"outputs":[{"name":"result","type":"bytes","internalType":"bytes"}],"stateMutability":"pure"},{"type":"function","name":"trimNullBytes","inputs":[{"name":"data","type":"bytes","internalType":"bytes"}],"outputs":[{"name":"","type":"string","internalType":"string"}],"stateMutability":"pure"}],"bytecode":{"object":"0x60808060405234601957611c3e908161001f823930815050f35b600080fdfe6080604052600436101561001257600080fd5b60003560e01c80630ce3b96b146100a757806327f9164d146100a25780634a9fd6131461009d57806351a32702146100985780635a60e6311461009357806374f18c651461008e5780638ed06234146100895780639ea37654146100845763f1a5fc991461007f57600080fd5b610c75565b610bac565b610a00565b61093a565b610912565b610703565b61057e565b6103bf565b6100b96100b3366102be565b90610f88565b906040519060408201926040835281518094526060936060840194602060608360051b87010194019160005b8181106100f9578680878760208301520390f35b90919294605f198782030188528551908461011d835160e0845260e08401906102f0565b926020810151938381036020850152602080865192838152019501906000905b808210610179575050509260209260c0849386610164604060019901516040860190610330565b015191015297019801910196929190966100e5565b825160ff1687526020968701968a9550909201916001919091019061013d565b634e487b7160e01b600052604160045260246000fd5b604051906080820182811067ffffffffffffffff8211176101cf57604052565b610199565b6040519060e0820182811067ffffffffffffffff8211176101cf57604052565b60405190610120820182811067ffffffffffffffff8211176101cf57604052565b6040519060a0820182811067ffffffffffffffff8211176101cf57604052565b6040519190601f01601f1916820167ffffffffffffffff8111838210176101cf57604052565b67ffffffffffffffff81116101cf57601f01601f191660200190565b81601f820112156102b9578035906102966102918361025b565b610235565b92828452602083830101116102b957816000926020809301838601378301015290565b600080fd5b60406003198201126102b9576004359067ffffffffffffffff82116102b9576102e991600401610277565b9060243590565b919082519283825260005b84811061031c575050826000602080949584010152601f8019910116010190565b6020818301810151848301820152016102fb565b6000915b6004831061034157505050565b600190825181526020809101920192019190610334565b60206003198201126102b9576004359067ffffffffffffffff82116102b95761038391600401610277565b90565b60208152608060606103a3845183602086015260a08501906102f0565b9360208101516040850152604081015182850152015191015290565b6103c836610358565b6103d06101af565b90606082526000606060209382602082015282604082015201526103f860048251101561179d565b604051916004830190600884019060048401915b8084106104945760048652601f8401601f19166040526104908561042f886116a9565b9061044161043c826117dd565b6116a9565b61046961046461045361043c8561182a565b9361045e81516110d1565b90611aff565b611398565b926104726101af565b93845260208401526040830152606082015260405191829182610386565b0390f35b82518452928101929181019161040c565b634e487b7160e01b600052602160045260246000fd5b600311156104c557565b6104a5565b6020808201908083528351809252604092604081018260408560051b8401019601946000925b858410610501575050505050505090565b909192939495968580600192603f198582030187528a519061052c60e08351908084528301906102f0565b9183810151848301528781015188830152606080820151908301526080808201519083015260a0808201519083015260c0809101519161056b836104bb565b01529901940194019295949391906104f0565b61058736610358565b6105b36105ad6105a761059984610ca1565b516001600160f81b03191690565b60f81c90565b60ff1690565b600180916105c0816110ed565b9260005b8281106105d9576040518061049087826104ca565b83906105f16105eb610464858a61196a565b93610cfd565b926106b38861060c61060661043c8884611a0f565b96610d0b565b61062261061c61043c8385611a0f565b91610d0b565b61063261061c61043c8386611a0f565b9061064961064361043c8487611a0f565b92610d0b565b926106856106766105ad6105a761059961066f61066961043c8b8d611a0f565b99610d0b565b809a610cc3565b95610680876104bb565b610d19565b9961068e6101d4565b978852602088015260408701526060860152608085015260a084015260c0830161115e565b6106bd8288610e28565b526106c88187610e28565b50016105c4565b90815180825260208080930193019160005b8281106106ef575050505090565b8351855293810193928101926001016106e1565b6040806003193601126102b9576004803567ffffffffffffffff81116102b957610731903690600401610277565b916024359160ff83168093036102b95761075561074f848651611180565b1561118f565b6107686107638486516111d1565b610e00565b90600092600060028614905b87518110156108fc578682156107fa57816107dc6107d68b6107cb6105ad6105a76105996107bb6107b16105ad6105a76105996107f59e8a610cc3565b60081b61ff001690565b946107c589610d19565b90610cc3565b1761ffff1660010b90565b60010b90565b6107ef6107e984846111d1565b89610e28565b52610d51565b610774565b84036108b15786816108ac6108a68b6108996105ad6105a76105998761088e6108826105ad6105a76105996107f59f806108756108696105ad8f610599816107c56108636108576105ad6105a761059961087c9d6105a799610cc3565b60181b63ff0000001690565b97610d19565b60101b63ffff00001690565b1796610cea565b8b610cc3565b60081b63ffffff001690565b17946107c589610d27565b1763ffffffff1660030b90565b60030b90565b6107dc565b825162461bcd60e51b81526020818601818152601b918101919091527f556e737570706f72746564206e756d626572206f662062797465730000000000604082015281906060010390fd5b60405160208082528190610490908201886106cf565b61049061092661092136610358565b611259565b6040519182916020835260208301906102f0565b61049061092661046436610358565b908082519081815260208091019281808460051b8301019501936000915b8483106109775750505050505090565b90919293949584806109f0600193601f198682030187528a516109dd6109ca60a083516109a3816104bb565b8552868401516109b2816104bb565b878601526040908082860151928701528501906106cf565b60608084015190858303908601526102f0565b91608080920151918184039101526102f0565b9801930193019194939290610967565b610a29610a15610a0f366102be565b906114b2565b604051928392604084526040840190610949565b9060208301520390f35b908082519081815260208091019281808460051b830101950193600080925b858410610a63575050505050505090565b90919293949596601f19828203018452858851610a8960e08251908086528501906102f0565b9082810151918481038486015283808451928381520193019087905b808210610ae1575050509060019360c060608594610acb60408083015190860190610330565b0151910152990194019401929594939190610a52565b825160ff1685528b95948501949092019160019190910190610aa5565b9060048210156104c55752565b61038390602081528251610b2d610120918260208501526101408401906102f0565b602085015160408401526040850151606084015260608501516080840152608085015160a0840152610ba1610b8b610b7760a088015193601f1994858883030160c08901526102f0565b60c0880151848783030160e0880152610a33565b60e0870151610100938683030184870152610949565b940151910190610afe565b610490610bc9610bbb36610358565b610bc3611603565b50611259565b610bd561046482611a68565b90610c1f610be561043c83611ab3565b610bf161043c846119c3565b610bfd61043c85611876565b610c0961043c866118c2565b91610c32610c1687610e3c565b889791976114b2565b610c2c818a939a516110e0565b91611b8a565b93610c3b6101f4565b978852602088015260408701526060860152608085015260a084015260c083015260e0820152600061010082015260405191829182610b0b565b6020610c8361043c36610358565b604051908152f35b634e487b7160e01b600052603260045260246000fd5b805115610cae5760200190565b610c8b565b805160201015610cae5760400190565b908151811015610cae570160200190565b634e487b7160e01b600052601160045260246000fd5b9060028201809211610cf857565b610cd4565b9060088201809211610cf857565b9060048201809211610cf857565b9060018201809211610cf857565b9060038201809211610cf857565b90601f8201809211610cf857565b600a019081600a11610cf857565b91908201809211610cf857565b67ffffffffffffffff81116101cf5760051b60200190565b610d7e6101af565b906080368337565b90610d9361029183610d5e565b8281528092610da4601f1991610d5e565b01906000805b838110610db75750505050565b602090610dc26101af565b60608082528484918083850152610dd76101af565b60803682376040850152830152828601015201610daa565b906004811015610cae5760051b0190565b90610e0d61029183610d5e565b8281528092610e1e601f1991610d5e565b0190602036910137565b8051821015610cae5760209160051b010190565b906020610e516105ad6105a761059986610cb3565b602193610e5d82610d86565b9260005b838110610e7057505050509190565b610e86610e80610464898661196a565b97610cfd565b96610e8f610d76565b60005b60048110610f5d5750610eb7610eb16105ad6105a76105998d8a610cc3565b99610d19565b90610ec18a610e00565b996000905b8b88828410610f2757856001989796959450610ef19350610eeb925061043c91611911565b92610cea565b9a610efa6101af565b9384528684015260408301526060820152610f158288610e28565b52610f208187610e28565b5001610e61565b94610680610f5592610f4d86610f476105a76105998760019a9b9d610cc3565b92610e28565b9060ff169052565b930190610ec6565b98610f8181610f7161043c6001948a611911565b610f7b8d86610def565b52610cea565b9901610e92565b919091610fa7610fa16105ad6105a76105998786610cc3565b93610d19565b92610fb181610d86565b9160005b828110610fc3575050509190565b610fd9610fd3610464888561196a565b96610cfd565b95610fe2610d76565b60005b6004811061109d575061100a6110046105ad6105a76105998c89610cc3565b98610d19565b9061101489610e00565b986000905b8a878284106110755785600198979695945061103e9350610eeb925061043c91611911565b996110476101af565b9384526020840152604083015260608201526110638287610e28565b5261106e8186610e28565b5001610fb5565b9461068061109592610f4d86610f476105a76105998760019a9b9d610cc3565b930190611019565b976110bb816110b161043c60019489611911565b610f7b8c86610def565b9801610fe5565b600019810191908211610cf857565b600919810191908211610cf857565b91908203918211610cf857565b906110fa61029183610d5e565b828152809261110b601f1991610d5e565b019060005b82811061111c57505050565b6020906111276101d4565b606080825260008491818385015281604085015283015260006080830152600060a0830152600060c0830152828501015201611110565b611167826104bb565b52565b634e487b7160e01b600052601260045260246000fd5b811561118a570690565b61116a565b1561119657565b60405162461bcd60e51b8152602060048201526013602482015272092dcecc2d8d2c840c8c2e8c240d8cadccee8d606b1b6044820152606490fd5b811561118a570490565b60016111eb60018351161561118f565b806111f9835160011c610e00565b926000915b611209575b50505090565b80518210156112545761124e8261ff00611224869585610cc3565b5160f01c1661123b61123583610d19565b85610cc3565b5160f81c17840b610f7b82861c88610e28565b916111fe565b611203565b906040519160209081840190828082518301019101905b80821061128c575050838103601f190184526000815201604052565b8151600081811a918260051c908115611331576007928383149260019483861a01811884021893600295611f00868801948684011a9160081b160181808201918b03918c81188d8211021893905b6112ec575b5050505050505050611270565b839060009b9a969798999b198184010151818c01520184811061132457505050505090839101019201019138808080808080806112df565b829a98979695999a6112da565b50505060028160019594939593848101518652010192010191611270565b604051906040820182811067ffffffffffffffff8211176101cf576040526001825260203681840137565b906113876102918361025b565b8281528092610e1e601f199161025b565b80515b80158015806113f9575b156113b757610cf8576000190161139b565b506113c18161137a565b9160009060005b8381106113d6575050505090565b806113e661059960019385610cc3565b841a6113f28288610cc3565b53016113c8565b506000198201828111610cf8576001600160f81b03199061141a9085610cc3565b5116156113a5565b9061142f61029183610d5e565b8281528092611440601f1991610d5e565b01906000805b8381106114535750505050565b60209061145e610215565b838152828481830152606080604084015280808401526080830152828601015201611446565b908160011b9180830460021490151715610cf857565b600381901b91906001600160fd1b03811603610cf857565b9190916114cb610fa16105ad6105a76105998786610cc3565b926114d581611422565b916000805b8381106114e957505050509190565b60019061150c6115026105ad6105a76105998c89610cc3565b986106808a6104bb565b9761152d6115236105ad6105a76105998d8a610cc3565b996106808b6104bb565b61158c61156261155c61153e61134f565b61154b610599868c610cc3565b891a61155682610ca1565b536116a9565b92610d19565b61158661158061157b61157486611484565b848c611b8a565b6111db565b93611484565b90610d51565b6115a261159c610464838a61196a565b91610cfd565b916115d86115bc6115b6610464868c61196a565b94610cfd565b9c6115cf6115c8610215565b968761115e565b6020860161115e565b6040840152606083015260808201526115f18288610e28565b526115fc8187610e28565b50016114da565b61160b6101f4565b906060825260006020830152600060408301526000606083015260006080830152606060a0830152606060c0830152606060e08301526000610100830152565b1561165257565b60405162461bcd60e51b815260206004820152600f60248201526e24b7383aba103a37b7903637b7339760891b6044820152606490fd5b60ff8111610cf8576001901b90565b600160ff1b8114610cf85760000390565b6116b760208251111561164b565b600090815b8151831015611708576117006001916116de6105ad6105a76105998888610cc3565b6116f96116f4876116ef88516110c2565b6110e0565b61149a565b1b90610d51565b9201916116bc565b9150805182602082109182611741575b505015611723575090565b610383916116ef61173761173c935161149a565b611689565b611698565b600192506117516117569161149a565b6110c2565b1c16158238611718565b1561176757565b60405162461bcd60e51b815260206004820152600e60248201526d736c6963655f6f766572666c6f7760901b6044820152606490fd5b156117a457565b60405162461bcd60e51b8152602060048201526011602482015270736c6963655f6f75744f66426f756e647360781b6044820152606490fd5b6117eb60088251101561179d565b60405190600482019060088084019101905b80831061181757505060048252601f01601f191660405290565b90918251815260208091019201906117fd565b611838600a8251101561179d565b604051906002820190600a01600483015b80831061186357505060028252601f01601f191660405290565b9091825181526020809101920190611849565b611884601e8251101561179d565b604051906002820190601e01600483015b8083106118af57505060028252601f01601f191660405290565b9091825181526020809101920190611895565b60206118d260208351101561179d565b6040519160028301916020600485019201915b8084106119005750506002835250601f01601f191660405290565b8251845292810192918101916118e5565b90815160028201808311610cf85761192a91101561179d565b6040519160028084019260048501920101905b80831061195757505060028252601f01601f191660405290565b909182518152602080910192019061193d565b90815160088201808311610cf85761198391101561179d565b6040519160088084019260108501920101905b8083106119b057505060088252601f01601f191660405290565b9091825181526020809101920190611996565b6119d1601c8251101561179d565b604051906004820190601c01600883015b8083106119fc57505060048252601f01601f191660405290565b90918251815260208091019201906119e2565b90815160048201808311610cf857611a2891101561179d565b6040519160048084019260088501920101905b808310611a5557505060048252601f01601f191660405290565b9091825181526020809101920190611a3b565b611a7660148251101561179d565b6040519060148083019101602883015b808310611aa057505060148252601f01601f191660405290565b9091825181526020809101920190611a86565b611ac160188251101561179d565b604051906004820190601801600883015b808310611aec57505060048252601f01601f191660405290565b9091825181526020809101920190611ad2565b611b1382611b0c81610d35565b1015611760565b611b288151611b2184610d43565b111561179d565b81611b40575050604051600081526020810160405290565b60405191601f811691600a831560051b80858701019484860193010101905b808410611b775750508252601f01601f191660405290565b9092835181526020809101930190611b5f565b91611b9881611b0c81610d35565b611ba78351611b218385610d51565b80611bc057505050604051600081526020810160405290565b60405192601f821692831560051b80858701019484860193010101905b808410611bf55750508252601f01601f191660405290565b9092835181526020809101930190611bdd56fea26469706673582212208e0bf99a025e65305dd46e681b87f0e323d8c3929fb98d6911b9f423eb249fbc64736f6c63430008190033","linkReferences":{}},"methodIdentifiers":{"bytesToInt(bytes)":"f1a5fc99","bytesToIntArray(bytes,uint8)":"51a32702","decodeAssetsForScenes(bytes)":"4a9fd613","decodeGenericMotif(bytes)":"27f9164d","decodeMotif(bytes)":"9ea37654","decodeReplacements(bytes,uint256)":"8ed06234","decodeSceneIMotif(bytes,uint256)":"0ce3b96b","flzDecompress(bytes)":"5a60e631","trimNullBytes(bytes)":"74f18c65"},"id":3}