{"abi":[{"type":"function","name":"getMotifData","inputs":[{"name":"index","type":"uint256","internalType":"uint256"}],"outputs":[{"name":"","type":"bytes","internalType":"bytes"}],"stateMutability":"pure"}],"bytecode":{"object":"0x60808060405234601557614965908161001b8239f35b600080fdfe600436101561000d57600080fd5b60003560e01c63fedd6fec1461002257600080fd5b3461490957602036600319011261490957610a976101609081527f4368726973740000000000000000000000000000fea1c900fd6ca76c0069015e610180527e0200010c0133041a003e01f5048d003e01c50404003e010f047e003e70616c6101a0527f6d3200000070616c6d3200000000000c0286043a0171037201d4035601da03dd6101c0527f034a043a041c03f5627573683100000062757368310000003c672069643d22736101e0527f6561223e3c706174682066696c6c3d22234639423233332220643d224d302034610200527f343468313038307636333548307a222f3e3c706174682066696c6c3d2275726c610220527f28237761746572292220643d224d302034343468313038307636333548307a22610240527f2f3e3c2f673e3c672069643d2269736c616e64735f6e61636b222066696c6c3d610260527f2223394242323234223e3c7061746820643d226d353039203438312d3134362d610280527f33322d3134372033327a222f3e3c7061746820643d224d3233362034383320366102a0527f39203433356c2d3136382034387a222f3e3c7061746820643d226d33393020346102c0527f38332d3133342d33382d3133332033387a222f3e3c7061746820643d226d35356102e0527f34203438332d3130342d33302d3130342033307a222f3e3c7061746820643d22610300527f6d343636203438332d34382d34392d34392034397a6d2d3233302d31352d3735610320527f2d31392d37352031397a6d3432322034312d33362d31312d33382031317a6d2d610340527f3434372033304c3435203439316c2d3136362034387a222f3e3c706174682064610360527f3d226d323931203533392d37312d32302d37312032307a222f3e3c2f673e3c67610380527f2069643d2269736c616e6473223e3c706174682066696c6c3d222341464331356103a0527f302220643d226d2d31303120363738203138312d34322031312d34352032372d6103c0527f33386831386c3136203230203532203130327a222f3e3c706174682066696c6c6103e0527f3d22234646444231392220643d226d323630203638372033302031302d383120610400527f31392d3132392d31307a4d2d3234203534356c3334372d362d3334372d367a22610420527f2f3e3c706174682066696c6c3d22234646444231392220643d226d3230342036610440527f37352031322032332d3331372d32307a222f3e3c2f673e3c672069643d226869610460527f6c6c5f626165616368223e3c706174682066696c6c3d22676f6c642220643d22610480527f4d302038343868313135317631363448307a222f3e3c706174682066696c6c3d6104a0527f22234146433135302220643d226d33383420383331203236302d3131352035346104c0527f36203234397a222f3e3c706174682066696c6c3d22233942423232342220643d6104e0527f226d333935203737352034322d36322033342d31302031392031372033352033610500527f2036312033342034373820323732203132352039312d313330372d3620343732610520527f2d3332397a4d3830203730366c35332d36392034362d31332032332033203538610540527f2036302d36302031347a6d3433312d35372036362031382034392d31382d3536610560527f2d31367a222f3e3c2f673e3c672069643d22636974797368617065223e3c7061610580527f74682066696c6c3d22234246363645452220643d224d313531203830396835316105a0527f76323634682d35317a222f3e3c706174682066696c6c3d2223424636364545226105c0527f20643d224d3131302038343268353176323634682d35317a6d2d38312d3968356105e0527f31763236344832397a222f3e3c706174682066696c6c3d222344343939463422610600527f20643d224d3020383930683334377632323548307a222f3e3c70617468206669610620527f6c6c3d22234434393946342220643d224d363820383734683232327631393948610640527f36387a4d30203834386834307632333548307a222f3e3c706174682066696c6c610660527f3d22234434393946342220643d224d363820383537683333763232354836387a610680527f6d3530203068353176323235682d35317a6d39312d323768353176323434682d6106a0527f35317a222f3e3c706174682066696c6c3d22234246363645452220643d224d376106c0527f33203930396834357632384837337a6d3630203335683435763739682d34357a6106e0527f6d2d39332032316834357639374834307a6d3138332d3635683333763533682d610700527f33337a222f3e3c706174682066696c6c3d22234234344345422220643d224d30610720527f203130313968353076343348307a6d3136312d3138683935763834682d39357a610740527f222f3e3c2f673e3c672069643d22666f7272657374223e3c656c6c6970736520610760527f63783d22353036222063793d2231313037222066696c6c3d2223363439363234610780527f222072783d22323731222072793d22333031222f3e3c636972636c652063783d6107a0527f22393432222063793d22313231302220723d22333031222066696c6c3d2223366107c0527f3439363234222f3e3c706174682066696c6c3d22234339383046312220643d226107e0527f6d383237203839302d3230362d39362d353220397631326c2d34322d32332d34610800527f3420337631346c3130342036387a222f3e3c212d2d70616c6d322d2d3e3c6720610820527f66696c6c3d2223394242323234223e3c636972636c652063783d223532372220610840527f63793d223835372220723d223435222f3e3c636972636c652063783d22313038610860527f33222063793d223934392220723d223234222f3e3c636972636c652063783d22610880527f31303039222063793d223935322220723d223234222f3e3c636972636c6520636108a0527f783d22333639222063793d22313032332220723d223837222f3e3c2f673e3c216108c0527f2d2d62757368312d2d3e3c2f673e3c672069643d22706c6174656175223e3c706108e0527f6174682066696c6c3d22233946313945362220643d224d343939203839397636610900527f336c3733203134392032352d3130387a222f3e3c706174682066696c6c3d2223610920527f3946313945362220643d226d353937203130303320313037203435683233306c610940527f37342d3432762d39336c2d3530392d31347a222f3e3c706174682066696c6c3d610960527f22234339383046312220643d226d353239203835372d33302034322032303520610980527f3837683233306c37342d3433762d35307a222f3e3c706174682066696c6c3d226109a0527f234339383046312220643d226d343939203839392036312031203836203230396109c0527f2d373420327a222f3e3c2f673e3c672069643d22666f72726573745f746f70226109e0527f2066696c6c3d2223394242323234223e3c636972636c652063783d2237333322610a00527f2063793d22313037382220723d223733222f3e3c636972636c652063783d2236610a20527f3431222063793d22313032342220723d223234222f3e3c636972636c65206378610a40527f3d22393835222063793d22313134332220723d22313433222f3e3c2f673e3c67610a60527f2069643d22737461747565223e3c706174682066696c6c3d2223424636364545610a80527f2220643d226d373939203233362d32342031372031372036362d34362038322d610aa0527f3720323039203920372d39203133392d323520352d313220313136682d31306c610ac0527f2d31203234203533203239203131362d3230307a222f3e3c706174682066696c610ae0527f6c3d22233934303045332220643d226d353536203333352035332d3130203920610b00527f3130203131392d352035382d323320342d373120333320322031372036312037610b20527f342033312036382031322032312d36203239203920312031332d353020332d32610b40527f332035342d36372d392d31382031302d31372035372033203239382032302038610b60527f20362031313468396c332033312d313634203620332d323768386c31322d3131610b80527f372032382d322d32362d31342031352d3239382d31382d35362d32302d31352d610ba0527f38392031342d33312d36332d313820382d35312d387a222f3e3c2f673e3c6720610bc0527f7472616e73666f726d3d226d6174726978282e3520302030202e352032303020610be0527f36333529223e3c212d2d666c6f7765722d2d3e3c2f673e000000000000000000610c00526080526115206040526108ce610c209081527f436f6c6f737365756d0000000000000000000000027f304500bea48200b4015e610c40527e0100026c032a010e0047ff4502080113006bff79021e017e007bfedb024e01610c60527f7e007bfee101ef017e007bfee1027e017e007bfee702ae017e007bfeed02de01610c80527f7e007bfef3030e017d007bfef9033e017d007bfefe036f017d007bff0400eb01610ca0527f6a0092febb021e0215007bfedc024d0214007bfedc01ef0216007bfedc027d02610cc0527f13007bfedc018e0212007bfede015c020f007bfedb01890181007bfeee015c01610ce0527f81007bfeee02ad0210007bfedc02dc020c007bfedb030c0207007bfedb033c02610d00527f01007bfedb036b01f8007bfedb010a0203008efee600cf01f7008efee6726f75610d20527f6e64000000726f756e640000003c646566733e3c672069643d22726f756e6422610d40527f2066696c6c3d2223393430304533223e3c7061746820643d224d2d31322d3137610d60527f6832345636682d32347a222f3e3c636972636c652063793d22352e352220723d610d80527f223132222f3e3c2f673e3c2f646566733e3c706174682066696c6c3d22234641610da0527f433135432220643d226d332037323820313131382d3133322d372d3232354c38610dc0527f203335327a222f3e3c672066696c6c3d2223443439394634223e3c7061746820610de0527f643d224d302033333368393976383748307a222f3e3c7061746820643d224d2d610e00527f3920333133683431763837482d397a6d3130332034376833327632394839347a610e20527f6d35342d3134683534763434682d35347a6d3732382030683935763936682d39610e40527f357a6d3132322d3331683434763735682d34347a6d3434203135683434763735610e60527f682d34347a222f3e3c7061746820643d224d3933332033313168333876343268610e80527f2d33387a6d2d37352d37683534763434682d35347a222f3e3c2f673e3c706174610ea0527f682066696c6c3d22234639423233332220643d224d3020333839683130383076610ec0527f36393148307a222f3e3c706174682066696c6c3d22234641433135432220643d610ee0527f224d3130383520313033342d37203930367633313168313039327a6d31332d32610f00527f37334c2d3230203632396c372d32303820313130362d31397a222f3e3c706174610f20527f682066696c6c3d22234641433135432220643d226d3137392039373220393432610f40527f2d3138382d34362d33392d393432203138377a222f3e3c706174682066696c6c610f60527f3d22234434393946342220643d226d373036203738352034203132203130312d610f80527f31372d342d31327a222f3e3c67207472616e73666f726d3d227472616e736c61610fa0527f7465283832302039333529223e3c212d2d666c6f7765722d2d3e3c2f673e3c70610fc0527f6174682066696c6c3d22234632384430302220643d226d373830203931332032610fe0527f37392033382d332033312d3238302d33387a222f3e3c706174682066696c6c3d611000527f22234644453041442220643d226d32363420383636203236342d353320352032611020527f312d3236342035337a222f3e3c706174682066696c6c3d222346394232333322611040527f20643d226d2d31393920353630203539382d313232682d3731347a6d31373533611060527f2034304c39353620343738683731347a222f3e3c672066696c6c3d2223423935611080527f394544223e3c7061746820643d226d323936203235332d32302d3120362031326110a0527f366832337a6d2d32332d37332d33352d35763133306833387a222f3e3c7061746110c0527f6820643d226d323532203131372d31362d32763133306832317a222f3e3c2f676110e0527f3e3c672066696c6c3d2223454143434639223e3c7061746820643d224d313739611100527f203331386837323176323136483137397a222f3e3c7061746820643d226d3137611120527f39203534392031333720323820313938203130203234312d3130203134352d32611140527f34762d3234483137397a6d35372d3232332039352d3232203530332034203636611160527f2031307a222f3e3c7061746820643d226d3137392034343420392d3330332034611180527f382d323620322036302032312031307636316c32312037763230317a6d3232346111a0527f203368343335563230386c2d3132362d32352d3132392d31302d31383020357a6111c0527f222f3e3c7061746820643d224d3331332032363668313238763639483331337a6111e0527f222f3e3c7061746820643d224d33313320323436683335763331682d33357a22611200527f2f3e3c2f673e3c706174682066696c6c3d22234239353945442220643d224d34611220527f363420333534682d34356c3133203233316834357a6d2d313338203239682d32611240527f336c3134203139356832337a6d3132322d3334682d33336c2d372d3631683332611260527f7a222f3e3c706174682066696c6c3d22233934303045332220643d224d343638611280527f20313931683139763337682d31397a6d38332d32683139763337682d31397a6d6112a0527f3834203236683139763337682d31397a6d3335203535683139763337682d31396112c0527f7a6d34322d3437683139763337682d31397a6d3433203136683139763337682d6112e0527f31397a6d2d353634203735683132763634682d31327a6d31332d313538683130611300527f763236682d31307a6d30203531683231763539682d32317a222f3e3c212d2d72611320527f6f756e642d2d3e3c672069643d2274726565223e3c672066696c6c3d22233942611340527f42323234223e3c7061746820643d224d2d36342038323868333638762d363148611360527f2d36347a222f3e3c656c6c697073652063783d22323035222063793d22373637611380527f222072783d223939222072793d223631222f3e3c656c6c697073652063783d226113a0527f3334222063793d22373634222072783d223939222072793d223633222f3e3c656113c0527f6c6c697073652063783d22313232222063793d22363839222072783d223131336113e0527f222072793d223930222f3e3c2f673e3c706174682066696c6c3d222341413730611400527f33352220643d224d3832203839366833356c34342d3730682d33357a222f3e3c611420527f706174682066696c6c3d22234141373033352220643d224d3132342038353468611440527f2d31326c2d31392d32376831327a222f3e3c2f673e3c75736520687265663d22611460527f237472656522207472616e73666f726d3d226d6174726978282e363320302030611480527f202e3633203331382032363529222f3e3c75736520687265663d2223747265656114a0527f22207472616e73666f726d3d226d6174726978282e393220302030202e3932206114c0527f39323420343629222f3e3c212d2d74726565312d2d3e3c212d2d74726565322d6114e0526d169f1e109696ba3932b29996969f60911b6115005260a0526116d461490e565b61073f81527f4b696c696d616e6473636861726f000000000000ffd6ad7302369e550093015e60208201527d3c646566733e3c706174682069643d2262757368222066696c6c3d22233960408201527f42423232342220643d224d2d34302d32306837354c353220322034312031396c60608201527f2d32362d332d333820342d32392d392d352d31357a222f3e3c2f646566733e3c60808201527f706174682066696c6c3d22234639423233332220643d224d302036353568313060a08201527f38307634373948307a222f3e3c706174682066696c6c3d22234641433135432260c08201527f20643d226d2d31313420373831203438392d35372d3439352d32327a6d31343260e08201527f302d33302d3439312d3330203439332d31397a4d353237203836386c3730312d6101008201527f36382d3130203136337a6d2d36313620313839203836302d33302d3836302d366101208201527f397a6d313331332039372d3737362d3636203738302d36387a222f3e3c7061746101408201527f682066696c6c3d22234637413930302220643d226d373334203239302d3232396101608201527f2034332d3133392036392d3338372038332d3133352031373868313634316c2d6101808201527f372d3134362d3535322d3230327a222f3e3c706174682066696c6c3d222346326101a08201527f384430302220643d226d33363120353030203136342d3135352d3131302034396101c08201527f2039302d3631203137362d3431203231312031312038332033302d35392031346101e08201527f2038352035302d3235312d31332d3230382036312033302d39387a222f3e3c706102008201527f6174682066696c6c3d22234632384430302220643d224d3934362035333820386102208201527f3134203334396c2d36372031347a222f3e3c706174682066696c6c3d22676f6c6102408201527f642220643d226d353932203331382d362032392033342d31312d3430203732206102608201527f37362d37326833326c34352d33382034203437203130352d3120352d313820346102808201527f39203220322d31312032382d322d38372d33312d323020362d34352d31332d326102a08201527f3820382d36392d352d34352031342d34392d342d34362033332d333120392d316102c08201527f20312034392d337a222f3e3c706174682066696c6c3d222341464332353022206102e08201527f643d226d31313533203635382d33392d32332d3238392d32302d3130312032306103008201527f2d3138322d32372d3233302032302d3137362d32332d3139302034377a222f3e6103208201527f3c75736520687265663d22237472656522207472616e73666f726d3d226d61746103408201527f726978282d2e3620302030202e3620313430332032353029222f3e3c757365206103608201527f687265663d22236275736822207472616e73666f726d3d226d6174726978282d6103808201527f322e3320302030202d312e3137203235342037393729222f3e3c7573652068726103a08201527f65663d22236275736822207472616e73666f726d3d226d617472697828322e386103c08201527f3620302030202d322034312039343729222f3e3c75736520687265663d2223626103e08201527f75736822207472616e73666f726d3d226d617472697828332e353620302030206104008201527f2d322e383520313036312039383729222f3e3c75736520687265663d222362756104208201527f736822207472616e73666f726d3d226d617472697828342e393320302030202d6104408201527f312e3136203432332036353229222f3e3c75736520687265663d2223627573686104608201527f22207472616e73666f726d3d226d617472697828322e343420302030202d312e6104808201527f32332038352036363629222f3e3c75736520687265663d2223627573682220746104a08201527f72616e73666f726d3d226d617472697828312e353920302030202d312e3032206104c08201527f34362036343229222f3e3c75736520687265663d22236275736822207472616e6104e08201527f73666f726d3d226d617472697828322e323620302030202d2e393820313031346105008201527f2036353529222f3e3c75736520687265663d22236275736822207472616e73666105208201527f6f726d3d226d617472697828322e3420302030202d2e393120383331203634376105408201527f29222f3e3c75736520687265663d22237472656522207472616e73666f726d3d6105608201527f226d617472697828322e312030203020322e31202d31323732202d35383429226105808201527f2f3e3c672069643d2274726565223e3c706174682066696c6c3d2223414137306105a08201527f33352220643d226d373035203638302d31332d38312d37362d323620332d32206105c08201527f37332032342d34302d353720342d312033382035342032382d333920313120326105e08201527f2d32382034302034302d3131203220332d34302031322031362038317a222f3e6106008201527f3c672066696c6c3d2223363439363234223e3c7061746820643d224d383638206106208201527f353133613132342033382030203120302d3234382030203132342033382030206106408201527f312030203234382030222f3e3c7061746820643d224d383330203536346136356106608201527f2032302d38203120302d31323020302036352032302d382031203020313230206106808201527f30222f3e3c7061746820643d224d3737332035343561313039203332203020316106a08201527f20302d323139203020313039203332203020312030203231392030222f3e3c2f6106c08201527f673e3c2f673e3c75736520687265663d22236275736822207472616e73666f726106e08201527f6d3d226d617472697828332e363620302030202d312e312037363420363733296107008201527f222f3e3c67207472616e73666f726d3d226d617472697828312e3320302030206107208201527f312e33203339352039383529223e3c212d2d666c6f7765722d2d3e3c2f673e00610740820152604060800152611fb461490e565b61072981527f4b796f746f00000000000000000000000000000002158e3f0817b8590055015e60208201527e0200011e03c5025300fc038e01d100f10426019500b7031401c100b702820160408201527fe500b70079025300fc008401d700f10015016b00b7010501b800b7018701ed0060608201527fb76461726b000000006461726b00000000000118000701c100fc009a01dc00a760808201527f0106022300a7018e021a006f03b001d700d3044201f700a70338022300a702af60a08201527f021a006f627269676874000062726967687400003c646566733e3c636972636c60c08201527f652069643d22627269676874222063783d2230222063793d22302220723d223560e08201527f36222066696c6c3d2223394242323234222f3e3c636972636c652069643d22646101008201527f61726b222063783d2230222063793d22302220723d223536222066696c6c3d226101208201527f23363439363234222f3e3c2f646566733e3c212d2d6461726b2d2d3e3c212d2d6101408201527f6272696768742d2d3e3c672069643d224562656e655f36223e3c7061746820666101608201527f696c6c3d22234639423233332220643d224d2d363320363636683132313276346101808201527f3339482d36337a222f3e3c706174682066696c6c3d22234646453736362220646101a08201527f3d224d2d3231203636396831313237763436482d32317a222f3e3c70617468206101c08201527f66696c6c3d22234646453736362220643d224d36333120373034483435346c2d6101e08201527f31333720333831683435317a222f3e3c2f673e3c706174682066696c6c3d22236102008201527f4539344531422220643d224d3430392034343968323638763931483430397a6d6102208201527f2d32343020393868373438763935483136397a222f3e3c706174682066696c6c6102408201527f3d22233934303045332220643d224d39343820353733483133376c33332d33336102608201527f683734357a6d2d343335203130683630763532682d36307a222f3e3c706174686102808201527f2066696c6c3d22234339383046312220643d224d2d32312036333568313132376102a08201527f763530482d32317a222f3e3c706174682066696c6c3d222344464232463722206102c08201527f643d224d36333520363335483435316c2d3333203530683234397a222f3e3c706102e08201527f6174682066696c6c3d22233942423232342220643d224d3532342034373968336103008201527f38763437682d33387a6d383720313034683338763532682d33387a6d2d3137346103208201527f2030683338763532682d33387a222f3e3c706174682066696c6c3d22234246366103408201527f3645452220643d224d35393720353134683338763237682d33387a6d2d3134366103608201527f2030683338763237682d33387a222f3e3c706174682066696c6c3d22234245316103808201527f3632322220643d224d34303020343438683138763331682d31387a6d383920306103a08201527f683138763331682d31387a4d31383220353733683138763331682d31387a6d316103c08201527f32392030683138763331682d31387a6d38392030683138763331682d31387a6d6103e08201527f38392030683138763331682d31387a6d38392d313235683138763331682d31386104008201527f7a6d38392030683138763331682d31387a6d32313820313235683138763331686104208201527f2d31387a6d2d3132382030683138763331682d31387a6d2d39302030683138766104408201527f3331682d31387a6d2d38392030683138763331682d31387a222f3e3c706174686104608201527f2066696c6c3d22233934303045332220643d224d37323820343439483335386c6104808201527f35312d3332683236377a6d2d36322d313030483431396c2d31302036386832366104a08201527f377a222f3e3c672069643d226c656674223e3c706174682066696c6c3d2223436104c08201527f39383046312220643d224d33363920363932683335763131682d33357a222f3e6104e08201527f3c706174682066696c6c3d22234539344531422220643d224d333832203636366105008201527f6839763235682d397a222f3e3c706174682066696c6c3d2223424531363232226105208201527f20643d224d33373520363431683234763235682d32347a222f3e3c70617468206105408201527f66696c6c3d22233942423232342220643d224d34303620363431682d33396c316105608201527f392d31357a222f3e3c2f673e3c75736520687265663d22236c656674222074726105808201527f616e73666f726d3d227472616e736c6174652833313329222f3e3c672069643d6105a08201527f224562656e655f34223e3c706174682066696c6c3d22234245313632322220646105c08201527f3d226d393739203230302d3433362034302d3433372d3430762d33326c3433376105e08201527f203430203433362d34307631367a6d2d383434203736683831367634374831336106008201527f357a222f3e3c706174682066696c6c3d22234245313632322220643d224d35316106208201527f362032313268353576313030682d35357a6d323837203568373176373835682d6106408201527f37317a6d2d353931203068373176373835682d37317a222f3e3c7061746820666106608201527f696c6c3d22233934303045332220643d224d31393720393234683130307638326106808201527f483139377a6d302d37313768313030763230483139377a6d33343620312d34336106a08201527f372d34302d32372d333420343634203434203436332d34342d32372033347a6d6106c08201527f3234352037313668313030763832483738387a6d302d373137683130307632306106e08201527f483738387a222f3e3c2f673e3c67207472616e73666f726d3d226d61747269786107008201527f28312e352030203020312e3520393635203130303029223e3c212d2d666c6f776107208201526832b916969f1e17b39f60b91b61074082015260606080015260405180610b4081011067ffffffffffffffff610b40830111176148f357610b408101604052610b1e81527f4d61636875506963636875000000000000000000ff372db0fbad0679008e015e60208201527e0200011202de0338005102ac03b2002f039f035a005900cb0410006f041b0360408201527f7b00d7020303c3006f62757368310000006275736831000000000115035903b660608201527e6401ce03e4003c0119043c003c027903a700460363044200500401039f004b60808201527f024d0426004b70616c6d3200000070616c6d320000003c646566733e3c70617460a08201527f682069643d2267617264656e222066696c6c3d22234144433034422220643d2260c08201527f6d2d39362033342d372d37203235372d36312d3330382036307a222f3e3c2f6460e08201527f6566733e3c706174682066696c6c3d22234542434646412220643d224d3020346101008201527f3531683435397633383948307a222f3e3c672069643d224562656e655f3234226101208201527f3e3c706174682066696c6c3d22234239433936362220643d224d3536382033336101408201527f37483333356c2d34342d32352d373220342d35392d33312d31313820323820326101608201527f30362032313720333020327a222f3e3c706174682066696c6c3d2223414643316101808201527f35302220643d226d37363220353733203232302d3235302d31362d31382d36306101a08201527f2d322d32322d31342d3131392d342d32302d31362d3732203436682d32377a226101c08201527f2f3e3c706174682066696c6c3d22233942423232342220643d226d37353220356101e08201527f3437203337362032322d33392d3239322d35372d382d36302032387a4d3633376102008201527f20323839483436396c2d38312033352d31313020313935203437342032387a4d6102208201527f3432203236366c2d37382d3239203232203339376834326c34342d35326832396102408201527f6c32332d32302d31362d33386836366c2d31302d376838347a222f3e3c2f673e6102608201527f3c706174682066696c6c3d22234144433034422220643d226d313632203731316102808201527f2d36312d38352038312d3837203131382d377a6d2d39332d36382d31312033346102a08201527f2d3934203135382039203834203137322d37332d382d3132392d33362d34362d6102c08201527f31342d32397a222f3e3c706174682066696c6c3d22233942423232342220643d6102e08201527f226d323031203534372032362d31302031382d32382034322d31302033332d336103008201527f352032372d342031382d32312d39203134392d3133392036362d34362d33367a6103208201527f222f3e3c706174682066696c6c3d22234234344345422220643d226d373138206103408201527f3335312032332031372034352d332037352034352034342037302033382031396103608201527f203335203132332d3239342d3136372031362d39347a6d2d32383820363020386103808201527f342d34302036332d39362033382d32322031372032203331203232387a4d31316103a08201527f39203734396c3139312d3233372031372d362037302d313236203134203236386103c08201527f7a222f3e3c706174682066696c6c3d22234434393946342220643d226d3636336103e08201527f203239392d33372d35322d313120362031322032382d32332039382d323120336104008201527f20362031322d3330203738203239342039372d33372d35382d32352d3135682d6104208201527f31396c2d31302d35332d31302d342d31312d37312d32332d313720392038322d6104408201527f31332033392d31332d3133337a4d333930203532356c2d33382d32302032312d6104608201527f31372032352d3130382034372d31352031382033372032332d313420313120316104808201527f352033302d31376831366c3230203133397a6d3533372031392d32312d37392d6104a08201527f34332d3533203334203135327a222f3e3c672069643d224562656e655f3230226104c08201527f3e3c706174682066696c6c3d22233942423232342220643d226d2d31382038386104e08201527f33203139332d3232302039332d35302031372d32302031362d32312034352d326105008201527f372031362d33342037322d31382034322d3432203933203320313120313268396105208201527f366c333536203138354c313720313338307a222f3e3c75736520687265663d226105408201527f23627573683122207472616e73666f726d3d22726f74617465282d32362031356105608201527f3239202d3339297363616c65282e383129222f3e3c75736520687265663d22236105808201527f67617264656e22207472616e73666f726d3d226d6174726978283120302030206105a08201527f2d31203335312037303229222f3e3c75736520687265663d222367617264656e6105c08201527f22207472616e73666f726d3d226d6174726978283120302030202d312e3334206105e08201527f3239332037383129222f3e3c75736520687265663d222367617264656e2220746106008201527f72616e73666f726d3d226d6174726978283120302030202d312e3637203233356106208201527f2038353929222f3e3c75736520687265663d222367617264656e22207472616e6106408201527f73666f726d3d226d6174726978283120302030202d322e3031203137372039336106608201527f3829222f3e3c75736520687265663d222367617264656e22207472616e73666f6106808201527f726d3d226d6174726978283120302030202d322e3334203131382031303136296106a08201527f222f3e3c2f673e3c706174682066696c6c3d22234641433135432220643d226d6106c08201527f323935203632392037332033302031372d31362d37322d33317a6d32323120336106e08201527f392d38352d33362d31332d31357632326c31332031342038352033377a6d32386107008201527f312d38312d3130382d34312d34342036203131372035307a6d2d3332332d32316107208201527f2033332d3233683131366c2d33302032347a6d3138302d38312d31332d3131686107408201527f2d34386c31322031327a6d3138302037392d32342d31342d37322033203232206107608201527f31357a6d2d3339322034342032312d313820363320332d35302033367a222f3e6107808201527f3c706174682066696c6c3d22234646454238302220643d226d363631203530306107a08201527f2033322d392038312033342d32392031317a4d323734203634306c2d33322d316107c08201527f332032362d32342033322031317a222f3e3c706174682066696c6c3d222346466107e08201527f454238302220643d226d323734203634302d33322d31332d32203135203333206108008201527f31327a6d38322d35322035352032342031332d31332d35352d32357a6d3136376108208201527f2d31303020353220312035302032312d343720367a222f3e3c706174682066696108408201527f6c6c3d22234639423233332220643d226d343237203532392037302d3820372d6108608201527f33362d32302d372d382d32372d35372035307a6d32353220332d31382d31352d6108808201527f333720312d31302031347a6d2d3239352034312034372032312031312d31322d6108a08201527f34372d32327a6d2d35362033342036342032372031352d31352d36342d32387a6108c08201527f222f3e3c706174682066696c6c3d22233634393632342220643d226d313336206108e08201527f31303632203338372d343438203130382d343168313731762d31336c3135392d6109008201527f32302031342d313820343420372031382d3236683438763533367a222f3e3c216109208201527f2d2d62757368312d2d3e3c212d2d70616c6d322d2d3e3c75736520687265663d6109408201527f2223627573683222207472616e73666f726d3d226d617472697828312e3320306109608201527f203020312e3320343034203130313029222f3e3c75736520687265663d2223626109808201527f7573683222207472616e73666f726d3d226d617472697828312e3320302030206109a08201527f312e33203737342039333029222f3e3c706174682066696c6c3d2223464143316109c08201527f35432220643d226d393735203532322035352033332d362d33337a4d383030206109e08201527f3635306c31353820382d3133342d33367a222f3e3c706174682066696c6c3d22610a008201527f234639423233332220643d226d3130303720363530203833203132322031332d610a208201527f39332d35382d34337a6d33302d3134372035392033372d31312d35377a4d3532610a408201527f33203631346c313238203131332d38382d313035762d366c3130302036332d36610a608201527f382d3638762d31396c3836203439203132312d3237762d3431483633317a6d2d610a808201527f35383620343639203435352d3839203135332031392037322d3538203530332d610aa08201527f373876323739482d35327a222f3e3c706174682066696c6c3d22234646454238610ac08201527f302220643d226d38303220353630203136382035362d392d3736483831377a22610ae08201527f2f3e3c67207472616e73666f726d3d226d617472697828312e33203020302031610b008201527f2e33203735302039373529223e3c212d2d666c6f7765722d2d3e3c2f673e0000610b208201526080800152604051806106c081011067ffffffffffffffff6106c0830111176148f3576106c0810160405261069a81527f4368696368656e2049747a610000000000000000013b9b6dfab88fa600e1015e60208201527d3c706174682066696c6c3d22234639423233332220643d224d302033303860408201527f68313038307637373148307a222f3e3c706174682066696c6c3d22234641433160608201527f35432220643d224d31303839203932392d33203830305633303868313039327a60808201527f222f3e3c672066696c6c3d2223394242323234223e3c7061746820643d226d3460a08201527f3535203331322d3436352d34342d3436362034347a6d3130353320302d34313960c08201527f2d34342d3432302034347a222f3e3c7061746820643d226d383631203331322d60e08201527f3438382d32372d3438372032377a222f3e3c7061746820643d226d31333135206101008201527f3331322d3436322d33332d3436332033337a222f3e3c2f673e3c656c6c6970736101208201527f652063783d22323137222063793d22383235222066696c6c3d222345424346466101408201527f41222072783d22313638222072793d223134222f3e3c706174682066696c6c3d6101608201527f22234632384430302220643d224d34323220323639683334763534682d33347a6101808201527f6d34322d3534683334763534682d33347a6d2d31392d3138683332763138682d6101a08201527f33327a6d2d363720313237683434763534682d34347a6d2d34322035346835326101c08201527f763534682d35327a6d2d3431203534683539763534682d35397a6d2d343220356101e08201527f34683636763534682d36367a6d2d3431203534683734763534682d37347a6d2d6102008201527f3432203534683831763534682d38317a6d2d3432203534683839763534682d386102208201527f397a222f3e3c706174682066696c6c3d22676f6c642220643d224d34393420326102408201527f313268313530763537483439347a6d2d343020353768323330763534483435346102608201527f7a6d2d333420353568323938763534483432307a6d2d333420353468333637766102808201527f3534483338367a6d2d333520353468343335763534483335317a6d2d333420356102a08201527f3468353033763534483331377a6d2d333420353468353732763534483238337a6102c08201527f6d2d333420353468363430763534483234397a6d2d33342035346837303876356102e08201527f34483231357a222f3e3c706174682066696c6c3d22233934303045332220643d6103008201527f224d35343120323237683537763432682d35377a222f3e3c70617468207374726103208201527f6f6b653d222346394232333322207374726f6b652d6461736861727261793d226103408201527f31322e392031332e3322207374726f6b652d77696474683d2236372220643d226103608201527f4d3537352032373076343337222f3e3c706174682066696c6c3d2223463238446103808201527f30302220643d224d3437342031393768313839763138483437347a222f3e3c706103a08201527f6174682066696c6c3d22234644453041442220643d224d3533302032363968316103c08201527f3276343333682d31327a222f3e3c672069643d2274726565223e3c70617468206103e08201527f66696c6c3d22234141373033352220643d224d393834203931386837387635336104008201527f683138762d3835682d36306c34352d3435682d31396c2d3330203330762d33306104208201527f682d33327a222f3e3c672066696c6c3d2223394242323234223e3c636972636c6104408201527f652063783d22383735222063793d223738352220723d223539222f3e3c6369726104608201527f636c652063783d22393731222063793d223639382220723d223539222f3e3c636104808201527f6972636c652063783d2231303636222063793d223738352220723d223539222f6104a08201527f3e3c636972636c652063783d2231303234222063793d223732372220723d22356104c08201527f39222f3e3c636972636c652063783d22393731222063793d223738312220723d6104e08201527f223739222f3e3c636972636c652063783d22393038222063793d2237363322206105008201527f723d223732222f3e3c2f673e3c2f673e3c75736520687265663d2223747265656105208201527f22207472616e73666f726d3d226d6174726978282d31203020302031203130316105408201527f3020383629222f3e3c75736520687265663d2223627573683222207472616e736105608201527f666f726d3d227472616e736c617465283331372038343729222f3e3c757365206105808201527f687265663d2223627573683222207472616e73666f726d3d226d6174726978286105a08201527f2e3620302030202e36203937302035363829222f3e3c75736520687265663d226105c08201527f23627573683222207472616e73666f726d3d226d6174726978282e34203020306105e08201527f202e34203131382034333229222f3e3c75736520687265663d222362757368326106008201527f22207472616e73666f726d3d226d6174726978282e3220302030202e322039326106208201527f332033373429222f3e3c75736520687265663d2223627573683222207472616e6106408201527f73666f726d3d226d617472697828312e312030203020312e31203736372031306106608201527f383029222f3e3c67207472616e73666f726d3d227472616e736c6174652839336106808201527f35203130353529223e3c212d2d666c6f7765722d2d3e3c2f673e0000000000006106a082015260a0608001526040518061084081011067ffffffffffffffff610840830111176148f357610840810160405261081a81527f506574726100000000000000000000000000000001ceecfb021c9e1a006c00fa60208201527d3c706174682069643d224562656e655f32222066696c6c3d22234639423260408201527f33332220643d224d302033373468313038307637303648307a222f3e3c67206960608201527f643d224562656e655f33223e3c706174682066696c6c3d22234641433135432260808201527f20643d226d33363720343634203438362d37342d3439342d357a222f3e3c706160a08201527f74682066696c6c3d22234644453041442220643d226d31313535203338312d3360c08201527f39322d33372d3339322033377a222f3e3c706174682069643d22707972616d6960e08201527f645f32222066696c6c3d22234633393230302220643d226d383536203339332d6101008201527f3338302d36392d333236203130347a222f3e3c706174682066696c6c3d2223456101208201527f44384130302220643d226d31303332203335312d3231352039322034353020316101408201527f3436563337317a222f3e3c706174682066696c6c3d22234641433135432220646101608201527f3d226d35353620353733203932312d3138332d3135203332367a222f3e3c70616101808201527f74682066696c6c3d22234635413833332220643d224d343835203530362032366101a08201527f38203632306c313232332039387a222f3e3c706174682066696c6c3d222346326101c08201527f384430302220643d226d37323420373135203137352d313039203239372031306101e08201527f357a222f3e3c706174682066696c6c3d22234632384430302220643d226d39346102008201527f34203730382037332d3836203132332038337a222f3e3c706174682066696c6c6102208201527f3d22234632384430302220643d224d38393220373238762d33306c32352d32326102408201527f20353720333020322032357a222f3e3c706174682066696c6c3d22676f6c64226102608201527f20643d226d393736203733312036332d31762d32326c2d38352d33352d3337206102808201527f332035372033307a6d34312d3130392034332038342038302d317a6d2d38382d6102a08201527f31323320313531203939563436397a4d313136203131396834366c36353720366102c08201527f34322d313436382037387a222f3e3c706174682066696c6c3d22676f6c6422206102e08201527f643d224d383933203733332034363420323936203335203733337a222f3e3c706103008201527f6174682066696c6c3d22676f6c642220643d226d373333203538392034322d316103208201527f3320333820313620382033322039372038372d32352032327a6d3231332031366103408201527f382d32332d33322d32342033327a222f3e3c706174682066696c6c3d222346376103608201527f413930302220643d226d39363720373831203139382d31392d3239203930682d6103808201527f37367a222f3e3c706174682066696c6c3d22234632384430302220643d224d316103a08201527f3136203131396834366c38203130362d353133203531322d35322d3133377a6d6103c08201527f3636362036333220312d34322d32392d33372031342d35322d33352d33312d336103e08201527f3720323520333120333820372035387a6d2d323539203239203137392d382d316104008201527f2d34352d34382d34382031372d37372d33372d36352d32342d322d31392d34316104208201527f682d36377a6d34343420312d313136203433203231352032387a222f3e3c2f676104408201527f3e3c672069643d224562656e655f38223e3c706174682066696c6c3d222342396104608201527f353945442220643d226d353239203433352d38382d35362d3237342d392031326104808201527f3520343230203234302d31307a222f3e3c706174682066696c6c3d22234434396104a08201527f3946342220643d226d353235203432392d38342d35307635317a4d32363320356104c08201527f38326c3739203420372d3134342d37392d347a6d3231302032346835307631366104e08201527f32682d35307a6d2d34332d31353568353076313335682d35307a6d2d3138302d6105008201527f3233203130342d35307635337a222f3e3c706174682066696c6c3d22233934306105208201527f3045332220643d224d33363020363735683233763539682d32337a6d38362d316105408201527f3835683137763632682d31377a6d333420313934683233763533682d32337a4d6105608201527f32373820343930683237763930682d32377a222f3e3c706174682066696c6c3d6105808201527f22234541434346392220643d226d333330203539362d33352d3120362d3130206105a08201527f342d31343920323320312d34203134397a6d3136372d3138306834326c2d37206105c08201527f313076313536682d32366c2d312d3135367a6d34203137336834366c2d3720316105e08201527f3276313832682d32396c2d322d3138327a4d333633203433326834306c2d36206106008201527f313076313532682d32356c2d312d3135327a6d2d3135372d32346834306c2d366106208201527f20313176313533682d32356c2d312d3135337a6d323234203138366833366c2d6106408201527f3620313276313830682d32326c2d312d3138307a6d2d353620386833366c2d366106608201527f20313276313736682d32326c2d312d3137367a6d33372d3136366833386c2d366106808201527f20313076313432682d32346c2d312d3134327a6d2d38372031363520333620336106a08201527f2d362031302d38203136382d32322d3120362d3136387a222f3e3c2f673e3c676106c08201527f2069643d224562656e655f36223e3c706174682066696c6c3d222346374139306106e08201527f302220643d226d3132353620313038312d3131333820353220313132332d32326107008201527f397a222f3e3c706174682066696c6c3d22234632384430302220643d226d2d356107208201527f3120393036203631352d37392d3237312d36342d35372d3234322d38372d32386107408201527f682d34326c2d33312d3137682d39377a222f3e3c706174682066696c6c3d22676107608201527f6f6c642220643d224d3533203637316834346c2d3236203933203439332036336107808201527f2d3237312d36342d35372d3234324839326c31372033387a222f3e3c757365206107a08201527f687265663d2223627573683122207472616e73666f726d3d227472616e736c616107c08201527f74652831363020373635297363616c6528312e313129222f3e3c2f673e3c67206107e08201527f7472616e73666f726d3d226d617472697828312e332030203020312e332037316108008201527f30203130343529223e3c212d2d666c6f7765722d2d3e3c2f673e00000000000061082082015260c060800152600760043510156148dd5760043560051b6080015160405190602082528181519182602083015260005b8381106148c55750508160006040809484010152601f80199101168101030190f35b602082820181015160408784010152859350016148a3565b634e487b7160e01b600052603260045260246000fd5b634e487b7160e01b600052604160045260246000fd5b600080fd5b60405190610760820182811067ffffffffffffffff8211176148f35760405256fea2646970667358221220c6e78ace90911a1f1e20f749632cb16913749921f63db0d02aec4955fc6aa1ab64736f6c63430008190033","linkReferences":{}},"methodIdentifiers":{"getMotifData(uint256)":"fedd6fec"},"id":14}