{"abi":[{"type":"function","name":"getMotifData","inputs":[{"name":"index","type":"uint256","internalType":"uint256"}],"outputs":[{"name":"","type":"bytes","internalType":"bytes"}],"stateMutability":"pure"}],"bytecode":{"object":"0x608080604052346015576154fe908161001b8239f35b600080fdfe600436101561000d57600080fd5b60003560e01c63fedd6fec1461002257600080fd5b346154a25760203660031901126154a25761045e6101609081527f436169726f00000000000000000000000000000001c97ec601db0c1700b4015e610180527f02627573000000000001ec03ca02440066010300646d61696e000000000127026101a0527fba02ed0096030001020064003c706174682066696c6c3d2223463942323333226101c0527f20643d224d302033363068313038307637323048307a222f3e3c7061746820666101e0527f696c6c3d22233934303045332220643d224d3130383020353334203020343336610200527f762d32346c313038302039397a222f3e3c706174682066696c6c3d2223463942610220527f3233332220643d226d383430203337342d3232302d3430483530306c2d313030610240527f2034307a6d3235352d3132483836306c3233352d34307a6d2d31313134203068610260527f3431374c3530203239326c2d36392032317a222f3e3c706174682066696c6c3d610280527f22234641433135432220643d226d31303937203632302d3239392033346832396102a0527f397a4d2d3139203530377636386c3136302d32337a6d3020323233763131376c6102c0527f3631392d37397a6d31313136203138362d39363520313833683936357a222f3e6102e0527f3c706174682066696c6c3d22676f6c642220643d226d35313620353937203234610300527f342d33353720323435203335377a222f3e3c706174682066696c6c3d22676f6c610320527f642220643d226d373520363934203336332d35333020333633203533307a222f610340527f3e3c706174682066696c6c3d22234141373033352220643d224d313132342037610360527f39302d3336203932397635386c313136302d3133397a222f3e3c706174682066610380527f696c6c3d22234639423233332220643d226d363936203333342036342d3934206103a0527f36352039347a222f3e3c706174682066696c6c3d22234632384430302220643d6103c0527f224d39383120333230683637763539682d36377a6d2d3836312d3536683630766103e0527f313136682d36307a222f3e3c706174682066696c6c3d22234632384430302220610400527f643d224d31363820333430683430763431682d34307a222f3e3c706174682066610420527f696c6c3d22234632384430302220643d224d3136362033373068373976323068610440527f2d37397a6d2d37362d33376836307635334839307a222f3e3c70617468206669610460527f6c6c3d22234637424236362220643d224d32303820333430683132763330682d610480527f31327a6d2d32392d3736683133763735682d31337a6d2d3432203639683133766104a0527f3533682d31337a6d3839322d3133683138763539682d31387a6d2d37393720356104c0527f30683134763230682d31347a222f3e3c75736520687265663d222370616c6d316104e0527f22207472616e73666f726d3d227472616e736c61746528313731203836302922610500527f2f3e3c75736520687265663d222370616c6d3122207472616e73666f726d3d22610520527f6d6174726978282e3520302030202e35203234362038363029222f3e3c706174610540527f682066696c6c3d22234641433135432220643d226d31303937203432362d3135610560527f37203238683135377a222f3e3c212d2d6d61696e2d2d3e3c212d2d6275732d2d610580527f3e3c67207472616e73666f726d3d226d617472697828312e332030203020312e6105a0527f3320373830203130353029223e3c212d2d666c6f7765722d2d3e3c2f673e00006105c052608052610e006040526107fc6105e09081527f546f7272652064656c204865726f6573000000000295fe12ff7fad460034015e610600527d3c706174682066696c6c3d223c212d2d7761746572636f6c6f722d2d3e22610620527f20643d224d302033313068313038307637373048307a222f3e3c706174682066610640527f696c6c3d2275726c28237761746572292220643d224d30203331306831303830610660527f7637373048307a222f3e3c212d2d77617465727363656e652d2d3e3c70617468610680527f2066696c6c3d22233942423232342220643d226d31303933203630322d32362d6106a0527f3132682d34346c2d31302d38682d32366c2d33342d31322d3134302d323148366106c0527f34336c2d3131382033332d32332032302d36342034682d35306c2d31382032316106e0527f2d323120342d31362031312d34312031302d3720342d313220362d3330203135610700527f2d32302d352d31362d312d34342033356831313732762d37347a222f3e3c7061610720527f74682066696c6c3d22676f6c642220643d224d36383920323539683132307632610740527f3630483638397a6d34362d3830683534763830682d35347a6d2d31302d343068610760527f3633763330682d36337a6d34342030683230762d33306c2d31302d35302d3130610780527f2035307a222f3e3c706174682066696c6c3d22676f6c642220643d224d3734316107a0527f203231396834386c3230203230682d36397a222f3e3c706174682066696c6c3d6107c0527f22234646454238302220643d224d37323520313339683138763330682d31387a6107e0527f6d313020313030682d34366c32302d32306832367a6d2d343620323068333076610800527f323630682d33307a222f3e3c706174682066696c6c3d22234646454238302220610820527f643d224d37303920313739683236763830682d32367a222f3e3c706174682066610840527f696c6c3d22234639423233332220643d224d3730342031363968393076313068610860527f2d39307a6d36352d33306831305635396c2d31302035307a222f3e3c70617468610880527f2066696c6c3d22234639423233332220643d224d3732312031333268373276376108a0527f682d37327a6d31303820313037483636396c3230203230683132307a222f3e3c6108c0527f706174682066696c6c3d22234141364432392220643d224d36343920353139686108e0527f323030763230483634397a6d2d323020323068323430763230483632397a4d37610900527f35342039396c2d31352032306833307a222f3e3c706174682066696c6c3d2223610920527f4141373033352220643d226d323433203637372d32302d352d31362d312d3434610940527f2033356831313732762d35306c2d3234302032382d31373820342d37372d362d610960527f343920342d34312031302d31302d32302d333420342d32362d31302d34362031610980527f382d3135312d342d36332d382d38372031312d34382d33312d313220367a222f6109a0527f3e3c706174682066696c6c3d22234339383046312220643d224d3733392031316109c0527f39683330763230682d33307a222f3e3c706174682066696c6c3d2223393430306109e0527f45332220643d224d37343620313938683131763232682d31317a6d3020373768610a00527f3131763232682d31317a6d32342030683131763232682d31317a6d2d32342035610a20527f34683131763232682d31317a6d32342030683131763232682d31317a6d2d3234610a40527f203533683131763232682d31317a6d32342030683131763232682d31317a6d2d610a60527f3234203533683131763232682d31317a6d32342030683131763232682d31317a610a80527f6d2d3234203533683131763232682d31317a6d32342030683131763232682d31610aa0527f317a222f3e3c706174682066696c6c3d22234639423233332220643d226d3830610ac0527f39203236332d313230203139762d356c3132302d31397a6d302035332d313230610ae0527f203139762d366c3132302d31387a6d302035332d313230203138762d356c3132610b00527f302d31387a6d302035332d313230203138762d356c3132302d31387a6d302035610b20527f332d313230203138762d356c3132302d31387a222f3e3c706174682066696c6c610b40527f3d22234633393230302220643d226d36323920313033312d3138362d33382d32610b60527f35302031392d3131382d392d37352037763138346c3636392d33327a222f3e3c610b80527f706174682066696c6c3d22234434423739412220643d226d3236312031303132610ba0527f2032302d35392038352d323020313820343720383620342031362032387a6d2d610bc0527f31343620342031352d34332036332d31362032302035397a222f3e3c70617468610be0527f2066696c6c3d22234434423739412220643d226d353320313030362031352d34610c00527f332036332d31352031392035387a222f3e3c706174682066696c6c3d22234434610c20527f423739412220643d226d313134203937322031342d34342036342d3135203139610c40527f2035397a222f3e3c706174682066696c6c3d22234434423739412220643d226d610c60527f313534203939332031342d34342036342d31352031392035397a222f3e3c7061610c80527f74682066696c6c3d22234646462220643d224d2d37302031303139683230376c610ca0527f2d34362d33324835337a222f3e3c706174682066696c6c3d2223464646222064610cc0527f3d224d35312031303331683331366c2d37302d3439682d35387a6d3535312d37610ce0527f483338336c34392d33346834307a222f3e3c706174682066696c6c3d22233942610d00527f423232342220643d226d3137342031303932203933302d323034203137203231610d20527f397a222f3e3c706174682066696c6c3d22234141373033352220643d224d3130610d40527f38302039333020302031313830763130346c313038302d3235307a222f3e3c67610d60527f2069643d226c69676874686f75736522207472616e73666f726d3d227472616e610d80527f736c617465283734302031323529223e3c212d2d6c696768742d2d3e3c2f673e610da0527f3c67207472616e73666f726d3d226d617472697828312e352030203020312e35610dc0527f203135302039353029223e3c212d2d666c6f7765722d2d3e3c2f673e00000000610de05260a052610ea66154a7565b61090581527f416e746172637469730000000000000000000000fb5c1a7409ef21a800b4012c60208201527d3c706174682066696c6c3d223c212d2d7761746572636f6c6f722d2d3e2260408201527f20643d224d302033313068313038307637373048307a222f3e3c70617468206660608201527f696c6c3d2275726c28237761746572292220643d224d3020333130683130383060808201527f7637373048307a222f3e3c706174682066696c6c3d222343363738463022206460a08201527f3d224d38313120353231483638386c32392d31326837347a4d3136392034313860c08201527f4839316c31382d386834387a6d383933203233682d37396c31392d396834377a60e08201527f6d2d353536203536483331386c32392d3133683133397a6d3435332d31682d336101008201527f396c392d376832347a6d2d3530382d3638682d33396c392d376832337a222f3e6101208201527f3c706174682066696c6c3d22234339383046312220643d226d393533203331306101408201527f2d38312d32392d3838203132682d3120316c2d36312d382d3139322d39392d376101608201527f332031332d31363320313337683139346c323136203537203432312035762d376101808201527f327a222f3e3c706174682066696c6c3d22234446423246372220643d224d36346101a08201527f38203339336835376c2d3330362d38382d31303420362d33382d35302d3836206101c08201527f31302d32362d31322d3238362039332038322037203238352032203132372d316101e08201527f203137332031387a222f3e3c706174682066696c6c3d222343393830463122206102008201527f643d226d313837203331332d323436203436203134312d3120313720313568396102208201527f336c33342d31322031372d32397a222f3e3c706174682066696c6c3d222341416102408201527f373033352220643d224d32323520333536683930763130682d39307a222f3e3c6102608201527f706174682066696c6c3d22234141373033352220643d226d323935203331312d6102808201527f32362035316831316c372d32302037342d362034362031342031322d322d35346102a08201527f2d31372d3735203420392d32347a6d32322032333420363720333620323235206102c08201527f35392d33323920313234482d3234563531387a222f3e3c706174682066696c6c6102e08201527f3d22234541434346392220643d226d343238203234332039312d33322031322d6103008201527f323520343520383420343020372031312031392036302d3220363420343420316103208201527f382d31312034312031302032322d31352d34382d3239682d316c2d33362d31396103408201527f2d3130362d33392d39382d38392d36392033392d313620313420313420337a4d6103608201527f313836203631376c35352034302034342d31352d36302d33327a6d31373620376103808201527f2032382d313920363620382d33312032377a6d2d34312d34352d35302d3239206103a08201527f34362d352d3131352d31392d392d32312d3230392d34312d36203934203135306103c08201527f2d362034352033332035352d31332d312d362035362032387a6d39312038372d6103e08201527f3131372034372038323420313735563631386c2d3138382d32302d31303120346104008201527f372d3231342d32397a222f3e3c706174682066696c6c3d2223444642324637226104208201527f20643d226d3330332037313120313139203120323839203539203130332d39206104408201527f313630203530203134332d353976313830483236337a222f3e3c7061746820666104608201527f696c6c3d22234239353945442220643d226d31313132203930322035203230346104808201527f2d313138392031342d31342d343330203230362d3420333631203838203239366104a08201527f203735203230203235203130382033307a6d2d3237302d3931203131312d32356104c08201527f2034342032392d34312031367a4d353634203339356c3134312d322d3232362d6104e08201527f37392d313639203634683231367a222f3e3c706174682066696c6c3d222339336105008201527f303045322220643d226d2d3331203833342031373920362031353220363520316105208201527f32312032332d36332035382d3338392033307a222f3e3c706174682066696c6c6105408201527f3d22234141373033352220643d226d35363820313034302032342d35352032366105608201527f362d31333520393120383620373120313420313532203134332d3220343748336105808201527f33307a222f3e3c706174682066696c6c3d22234541434346392220643d226d2d6105a08201527f363020363530203231302d3920323134203839203131372034342d36302031306105c08201527f2d3130372d32342d32342031362d3135302d37302d33312032302d3137312d356105e08201527f7a6d37363320323734203135332d3830203730203630203130312033392031396106008201527f2032362d3133362d31342d3131302032372d35392d34347a6d2d32383220342d6106208201527f3132342031302d3332382d3432762d36326c3138382d347a222f3e3c706174686106408201527f2066696c6c3d22234339383046312220643d226d35383820313034352038302d6106608201527f34332032312031392d33312032377a6d3333362d32342031372032332033352d6106808201527f31302d32382d32357a6d2d38302d36342d31322d32342033302d3132203234206106a08201527f32377a6d2d34312d3232342038342d353268323332762d32346c2d3230372d396106c08201527f332d3135372033322d35312033302d33352036203932203130337a222f3e3c756106e08201527f736520687265663d222372656422207472616e73666f726d3d227472616e736c6107008201527f617465282d3330202d313029222f3e3c672069643d22677265656e223e3c70616107208201527f74682066696c6c3d22233942423232342220643d224d333830203239386833316107408201527f6c352035682d34317a6d342035683332763134682d33327a222f3e3c706174686107608201527f2066696c6c3d22234245434437312220643d224d3337352033303368397631346107808201527f682d397a6d3920302d342d352d3520357a222f3e3c2f673e3c672069643d22726107a08201527f6564223e3c706174682066696c6c3d22234245313632322220643d224d3430306107c08201527f20333038683332763134682d33327a6d2d352d356833326c352035682d34317a6107e08201527f222f3e3c706174682066696c6c3d22234536333332412220643d226d343030206108008201527f3330382d352d352d3420357a6d2d3920306839763134682d397a222f3e3c2f676108208201527f3e3c75736520687265663d2223677265656e22207472616e73666f726d3d226d6108408201527f6174726978282d3120302030203120363530203529222f3e3c757365206872656108608201527f663d222372656422207472616e73666f726d3d226d6174726978282d2e3620306108808201527f2030202e36203439342031303229222f3e3c75736520687265663d22237265646108a08201527f22207472616e73666f726d3d226d6174726978282d2e3820302030202e3820356108c08201527f333020343829222f3e3c67207472616e73666f726d3d226d617472697828312e6108e08201527f352030203020312e35203938302039333029223e3c212d2d666c6f7765722d2d610900820152641f1e17b39f60d91b6109208201526040608001526119b76154a7565b61090981527f417263746973000000000000000000000000000004c4b400000f424000b400fa60208201527f017363656e6500000001b0038c00230018010a012c003c706174682066696c6c60408201527f3d223c212d2d7761746572636f6c6f722d2d3e2220643d224d3020333130683160608201527f3038307637373048307a222f3e3c706174682066696c6c3d2275726c2823776160808201527f746572292220643d224d302033313068313038307637373048307a222f3e3c7060a08201527f6174682066696c6c3d22234535443443322220643d226d31303839203331352d60c08201527f31383820382d3139372d38483139326c2d323130203132762d32306c3235322060e08201527f33683533356c3332302d337a222f3e3c706174682066696c6c3d2223433637386101008201527f46302220643d224d34363420373338483238376c34322d3139683130377a6d376101208201527f3035203136483939326c34312d3138683130377a6d2d3231382d3435483737346101408201527f6c34312d3138683130377a6d2d3320323735483734306c34392d3231683132356101608201527f7a6d2d3733342d3131482d37396c36392d3330683137367a6d3434302d3736486101808201527f3437376c34322d3139683130377a6d35382d343231483533356c34322d3138686101a08201527f3130377a6d33383120333835483931366c34322d3138683130367a4d373620386101c08201527f3437682d3137376c34322d31384834377a6d363936203235682d39356c32322d6101e08201527f31306835377a6d313436203432682d39356c32332d31306835377a6d2d3920316102008201527f3437682d39366c32332d31306835377a6d2d3431382d38682d39366c32332d316102208201527f306835377a6d2d3232352d3230483131376c33352d31356839307a6d3439332d6102408201527f3138682d39356c32322d31306835377a4d35343620383237682d39356c32322d6102608201527f31306835387a6d3234342d3339682d39356c32322d396835387a6d32323820326102808201527f31682d39356c32322d396835387a6d383620313432682d39356c32332d3968356102a08201527f377a6d2d363536203337682d39366c32332d31306835377a6d39372d333336686102c08201527f2d37396c31392d386834377a6d2d3820313232682d37396c31392d386834377a6102e08201527f6d2d3333322d3132682d37396c31392d396834377a6d3432322d313936682d376103008201527f386c31382d386834387a6d2d313920313534682d37396c31392d386834377a4d6103208201527f33313320343136682d36316c31342d366833377a6d37352d3337682d36326c316103408201527f352d366833377a6d3934203237682d36316c31342d366833377a6d2d3234302d6103608201527f3536682d36316c31342d366833377a6d3135372d3235682d36316c31342d36686103808201527f33377a6d313438203134682d36326c31352d366833377a6d2d313520313230686103a08201527f2d36326c31352d366833377a6d32333020313437682d37356c31382d386834346103c08201527f7a6d38312d3732682d37356c31382d386834357a6d323031203230682d37356c6103e08201527f31382d386834357a6d2d393420313237682d37356c31382d376834357a6d2d316104008201527f31372d3336682d37356c31382d386834357a4d36363620343938682d37346c316104208201527f372d376834357a6d33353220313332682d37356c31382d386834347a222f3e3c6104408201527f706174682066696c6c3d22233934303045332220643d224d35323320363831686104608201527f3135356c32312d32352d3138332031317a4d33323120343236682d33306c2d356104808201527f362d32332d3833203734683136397a6d373420313930203134392d332d322d366104a08201527f352d31343720317a6d3439332d3234302d3230382035362d342032392d3334206104c08201527f3335683235306c323720313368313930762d39337a6d393720313836483835386104e08201527f6c2d31382d3231203135302031307a222f3e3c706174682066696c6c3d2223436105008201527f39383046312220643d226d383431203534312034392d31352031342d313320326105208201527f352031382033312033203331203136682d36387a4d373238203430366c2d32306105408201527f2031352d32382031316832386c35362d31386837326c382d31372035392d31306105608201527f2038203236203536203420313432203233762d35386c2d3131362d31312d31396105808201527f2d32367a4d34383820353437762d32396c2d34352d32392d323220382d32302d6105a08201527f31362d32362d36382d34332d382d31302031342d33332032362d3531203132206105c08201527f3120312d313220313035683233316c38342d3135762d317a222f3e3c706174686105e08201527f2066696c6c3d22234234344345422220643d226d3130322037313920313535206106008201527f3220332d32314839347a4d2d34312035383568353137763634482d34317a6d386106208201527f33382d3637483639306c2d31352d31382031323720387a222f3e3c70617468206106408201527f66696c6c3d22234446423246372220643d226d333939203539382035342037206106608201527f342d31322032302d38762d31366c2d3131392d33362d37342d352d34352d37306106808201527f2d34322d34342d313034203337203420323333683237347a222f3e3c706174686106a08201527f2066696c6c3d22233934303045332220643d224d34333220363039762d3336486106c08201527f3231336c2d32352d39392d33352d3131372d352031482d3431763333376835306106e08201527f306c32362d36337a4d3234302039323368333939763437483234307a222f3e3c6107008201527f706174682066696c6c3d22234339383046312220643d226d32343020393233206107208201527f3333332031392036362d31392d3138382d34377a6d35312d3335332d36312d386107408201527f362d34322d313020322031302d3136203520342032332d32342031332d33372d6107608201527f342d38302d352d373820317635376c3131352032342036392d313420313820316107808201527f332039332d31302039342034372038342d3537762d34307a4d3936203430356c6107a08201527f323720352032332d31302d35302d32322035322d313020352d31312d35332d366107c08201527f2d32352d31312d33372d35392d37392033347639396c383820317a6d313633206107e08201527f3239362d35302d32342d37312d32352d343420343820353420347a6d3434302d6108008201527f34362d35352d32342d31303820392d32312032356838337a6d2d32332d3135356108208201527f2033382d31362037352036203134203138682d35377a222f3e3c7061746820666108408201527f696c6c3d22234446423246372220643d226d393330203336332d33332d39342d6108608201527f33352031352d32382034332d343320363620323120347a4d323139203536326c6108808201527f2d32312d34322d32302033347a4d3539203430306c31332d33352d31322d31396108a08201527f2d333120377a6d333231203131362031332d33352d31322d31392d333120377a6108c08201527f222f3e3c67207472616e73666f726d3d226d6174726978282e3820302030202e6108e08201527f38203331302035353029223e3c212d2d666c6f7765722d2d3e3c2f673e3c212d6109008201526816b9b1b2b73296969f60b91b610920820152606060800152604051806107e081011067ffffffffffffffff6107e08301111761548c576107e081016040526107bf81527f417965727320526f636b00000000000000000000fe7d381607cfcd53010e015e60208201527f027363656e6531000000a5026e037a00ab010400647363656e6532000000040160408201527fa2042c0035010400320100026403ec03c40064ff9c0082033b004effb200b50360608201527f370064ff9c0189024f0059ffa903aa01f00064ffc0020e024fffa7ffa903ed0160808201527ff0ff9cffc000db01e10069ffdf010a01e5ff97ffdf01db024b0073ff9100360160a08201527f8d0059ffa900bb018dffa7ffa9008701880073ff9103a9018d0059ffa904440160c08201527f83ffa7ffa903fb01880073ff91032f0183006effbc03880185008dffa9022a0160e08201527f8b0076ffcc020301800093ffcc02e10183ff8affcc028b01800097ffbd0142016101008201527f830111ffa0001b01880111ffa0027801910097ffbd62757368000000006275736101208201527f68000000003c646566733e3c706174682069643d2262757368222066696c6c3d6101408201527f22233942423232342220643d224d2d34302d32306837356c2d3820394c3532206101608201527f326c2d342031382d33332d342d323320342d31312d362d313220342d32312d376101808201527f20372d31352031332d377a222f3e3c706174682069643d22747265655f6c65616101a08201527f766573222066696c6c3d22233942423232342220643d224d2d38382d323020326101c08201527f2d35362033362d376c343820323820342033322d353620332d31312d32352d336101e08201527f332032322d33302d372032302d34352d35342031377a222f3e3c2f646566733e6102008201527f3c706174682066696c6c3d22234644453041442220643d226d313334203336376102208201527f2d3134382d31362d3134372031367a222f3e3c706174682066696c6c3d2223466102408201527f44453041442220643d226d353630203336372d3238322d32342d3238322032346102608201527f7a6d3639362031302d3238332d32372d3238322032377a222f3e3c70617468206102808201527f66696c6c3d22234639423233332220643d224d302033363468313038307637376102a08201527f3048307a222f3e3c706174682066696c6c3d22234641433135432220643d226d6102c08201527f2d353920353135203438392d35372d3439352d32327a6d313230362d34322d346102e08201527f39302d3331203439322d31397a6d2d373330203830203730312d36382d3130206103008201527f3136337a6d2d35343920323731203836312d33302d3836312d36397a6d3133396103208201527f34203231332d3737372d3636203738312d36387a222f3e3c706174682066696c6103408201527f6c3d22676f6c642220643d226d3830322033383020332d3131392d31303020336103608201527f2d33342d31362d363620342d36392d31352d3137322034322d3133322032322d6103808201527f33392031392d3630203630222f3e3c706174682066696c6c3d222346323844306103a08201527f302220643d224d38303220333830683136326c2d33362d32332d33352d36362d6103c08201527f38382d33307a222f3e3c706174682066696c6c3d22234637413930302220643d6103e08201527f226d323730203338302033322d3331203137382d38302d373020392d313234206104008201527f35382d33382d31392d37342032322d34312034317a6d35373120302d32392d356104208201527f392d342d34342d3139362d3220362d31312d3132342031312d3137372038332d6104408201527f31322032327a222f3e3c706174682066696c6c3d22234632384430302220643d6104608201527f226d343934203237352036322d3231203235203220312034312d3733203833686104808201527f2d35396c34342d34327a6d32323020314c36313320333830683138397a6d2d346104a08201527f36362034312039342d32382d3135322039317a222f3e3c212d2d627573682d2d6104c08201527f3e3c212d2d7363656e65312d2d3e3c212d2d7363656e65322d2d3e3c672069646104e08201527f3d2274726565223e3c75736520687265663d2223747265655f6c6561766573226105008201527f207472616e73666f726d3d226d6174726978282e3632202e3332202e3231202d6105208201527f2e3433203830332038313229222f3e3c75736520687265663d2223747265655f6105408201527f6c656176657322207472616e73666f726d3d226d6174726978282d2e3335202e6105608201527f3331202d2e3132202d2e3433203837372038323329222f3e3c706174682066696105808201527f6c6c3d22234141373033352220643d226d383338203938362d31392d3138392d6105a08201527f3131312d363120342d36203130372035382d35392d31333520372d33203536206105c08201527f3132382034312d393120313520332d34302039352035382d3236203320372d356105e08201527f39203237203234203139327a222f3e3c75736520687265663d2223747265655f6106008201527f6c656176657322207472616e73666f726d3d226d6174726978283120302030206106208201527f2d31203737302036313929222f3e3c75736520687265663d2223747265655f6c6106408201527f656176657322207472616e73666f726d3d226d617472697828312e32202e35376106608201527f202e3536202d312e3034203839372036353529222f3e3c75736520687265663d6106808201527f2223747265655f6c656176657322207472616e73666f726d3d226d61747269786106a08201527f282d2e3931202e3236202d2e3138202d2e3632203638392037323529222f3e3c6106c08201527f75736520687265663d2223747265655f6c656176657322207472616e73666f726106e08201527f6d3d226d6174726978282e3932202e32202e3134202d2e3633203637362037346107008201527f3629222f3e3c75736520687265663d2223747265655f6c6561766573222074726107208201527f616e73666f726d3d226d6174726978282d2e3937202e3438202d2e3333202d2e6107408201527f3637203936352037353329222f3e3c2f673e3c75736520687265663d222374726107608201527f656522207472616e73666f726d3d226d6174726978282d2e3620302030202e366107808201527f203539322031353029222f3e3c67207472616e73666f726d3d227472616e736c6107a08201527f617465283238302037393529223e3c212d2d666c6f7765722d2d3e3c2f673e006107c0820152608080015260405180610d0081011067ffffffffffffffff610d008301111761548c57610d008101604052610cd981527f4361707061000000000000000000000000000000024d9b040213b66200b4015e60208201527e03000264036c02940036003601b80251ffcd0033006002b1002b002b00510260408201527fba002b002b0060028b002b002b00510294002b002b001f02cc002b002b009e0260608201527fbd001b001b027c02da00640064026e0337003c003c01030335ffb8004800c80260808201527ffc0032003200c802d7003200320082034effb800480082030fffb8004801d40360a08201527f68ffb00050020803a5004f004f032103a2002b002b0321037c002b002b03210360c08201527f56002b002b031003df0044004403f103c5ffcf0031037603ebffaf005103760360e08201527fa3ffaf005101df020fffd6002a686f757365000000686f7573650000000001126101008201527f015c03ff006403b40429007403f70364004b01d902fd006403b10271004600896101208201527f025500646275736831000000627573683100000000010c0093040b003c03c6016101408201527fe500120321030a0028012c020f001a70616c6d3100000070616c6d310000003c6101608201527f646566733e3c706174682069643d2268696c6c5f31222066696c6c3d222346466101808201527f453736362220643d226d3330362d3131382d39362034302d31312035372d38306101a08201527f2034302d3937203130362d3332382d3235307a222f3e3c706174682069643d226101c08201527f68696c6c5f32222066696c6c3d22234639423233332220643d224d34352d32396101e08201527f203620333648314c2d392d376c2d33362d31392035362d31307a222f3e3c67206102008201527f69643d22686f757365223e3c706174682066696c6c3d222346354139343022206102208201527f643d224d313136203334762d3839482d38324c38322035357a222f3e3c7061746102408201527f682066696c6c3d22676f6c642220643d224d2d3131362d3334483832763839686102608201527f2d3139387a222f3e3c706174682066696c6c3d22234632384430302220643d226102808201527f4d2d39322d3132683138763335682d31387a6d3134322d3568313256374835306102a08201527f7a4d2d32392035683232763431682d32327a6d2d38372d33392033342d3231686102c08201527f3139384c38322d33347a222f3e3c2f673e3c2f646566733e3c706174682066696102e08201527f6c6c3d22234644453041442220643d226d31313938203333362d3632352d36316103008201527f2d3130372033302d3231342d32332d323631203431763130317a222f3e3c70616103208201527f74682066696c6c3d22234642433937302220643d226d363720333531203131386103408201527f322d323520372036397a222f3e3c706174682066696c6c3d22234642433937306103608201527f2220643d226d353834203334382d32332d33382d332d312d362032362d3231206103808201527f313120333320367a222f3e3c706174682066696c6c3d222346394232333322206103a08201527f643d224d2d39203131313568313133316c2d32302d3732392d313136342d34366103c08201527f7a222f3e3c75736520687265663d222368696c6c5f3222207472616e73666f726103e08201527f6d3d226d6174726978283120302030202d31203936362033353929222f3e3c756104008201527f736520687265663d222368696c6c5f3222207472616e73666f726d3d226d61746104208201527f726978283120302030202d31203135312033323329222f3e3c757365206872656104408201527f663d222368696c6c5f3222207472616e73666f726d3d22726f746174652831386104608201527f302032313720313730297363616c65282e363129222f3e3c706174682066696c6104808201527f6c3d22234141373033352220643d226d38363720353534203338342035342d326104a08201527f2031322d3338342d35347a222f3e3c706174682066696c6c3d222341413730336104c08201527f352220643d226d38373320373436203332392d32303520372031302d333330206104e08201527f3230357a6d2d32393820323737203138352d323131203920382d3138352032316105008201527f307a4d2d3333203337396c313135342035357631324c2d3334203339317a222f6105208201527f3e3c706174682066696c6c3d22234141373033352220643d226d2d31323220386105408201527f30392031303933203331392d3220382d313039342d3331397a6d36322d3332206105608201527f3131333920333476394c2d3630203738367a6d33322d323836203338302037346105808201527f2d322031322d3338302d37347a6d3432342039374c3135203636326c2d322d316105a08201527f32203338302d37347a222f3e3c706174682066696c6c3d2223414137303335226105c08201527f20643d224d3539342037373920323431203631366c352d3131203335332031366105e08201527f337a6d3234322d323734203338372d333820312031322d3338362033387a222f6106008201527f3e3c706174682066696c6c3d22234646453334432220643d226d3132383720356106208201527f30342d3330342035352d35342d33327a222f3e3c706174682066696c6c3d22236106408201527f4646453334412220643d226d32323320343338203133312034322d31353720326106608201527f352d3437312d3130397a222f3e3c706174682066696c6c3d22676f6c642220646106808201527f3d226d393939203534332033382d313331203138203131203139203130357a6d6106a08201527f2d3835372d37312038332d3132306831306c31342038362036362034312d31306106c08201527f382031337a6d343736203135354c343534203435356c2d36302035302d31352d6106e08201527f31342d39332039327a222f3e3c75736520687265663d2223686f7573652220746107008201527f72616e73666f726d3d226d6174726978282d2e353420302030202e35342033376107208201527f312035363729222f3e3c706174682066696c6c3d22234646453736362220643d6107408201527f226d353438203634382d31353720372d38352d34302038342d35387a6d2d33356107608201527f312d32332d32332d34322d35362d312d33322d39304836396c2d34332037372d6107808201527f37302033332d313020313234683530387a6d3531332033312038372d343433206107a08201527f32302d31312034382032313820383920353220323520313530203230203133206107c08201527f352032347a222f3e3c706174682066696c6c3d22676f6c642220643d226d38376107e08201527f3020353736203435203132563437366c33392d342d38392d35322d34382d32316108008201527f382d3620332d36203235302036332032387a6d2d3733392032382d36362d392d6108208201527f31393820313331683434326c2d3133332d33387a222f3e3c706174682066696c6108408201527f6c3d22676f6c642220643d226d373632203537382d31372d3137322d32352d326108608201527f372d382d3133312d33322d35372d3638203230352d313138203236322d3135346108808201527f2036312d32372d362d3830203335683632377a222f3e3c706174682066696c6c6108a08201527f3d22234646453736362220643d226d33343020373139203134322d36392035316108c08201527f2d3132312031352d3830203133322d3235382033322035372d33322d353720316108e08201527f2032303620313320387634306c2d363120313720323620313920312033362d366109008201527f332032302d31312033382037362033397a222f3e3c706174682066696c6c3d226109208201527f234632384430302220643d224d36333320333630683131763138682d31317a6d6109408201527f3731203531683132763132682d31327a6d2d33203631683131763134682d31316109608201527f7a6d2d36372d3533683131763134682d31317a6d2d37392036396831387632366109808201527f682d31387a6d35322030683138763236682d31387a6d343320363268313876326109a08201527f36682d31387a6d2d3130322033346838763132682d387a6d3238372d383568316109c08201527f35763333682d31357a6d2d3630203235683139763237682d31397a6d34392d316109e08201527f3030683131763233682d31317a6d2d32312d313139683131763138682d31317a610a008201527f6d2d3234203736683131763138682d31317a6d31353320313131683131763231610a208201527f682d31317a6d2d3339203336683131763231682d31317a222f3e3c7061746820610a408201527f66696c6c3d22234635413934302220643d226d383232203635362031392d3131610a608201527f222f3e3c706174682066696c6c3d22234646453736362220643d226d37313820610a808201527f36323720333520323020353620383620323032203330483336367a222f3e3c75610aa08201527f736520687265663d222368696c6c5f3122207472616e73666f726d3d22726f74610ac08201527f61746528313830203536322033363829222f3e3c212d2d686f7573652d2d3e3c610ae08201527f75736520687265663d222368696c6c5f3122207472616e73666f726d3d226d61610b008201527f74726978283120302030202d31203333322039353029222f3e3c706174682066610b208201527f696c6c3d22676f6c642220643d226d393138203835362035382031362033362d610b408201527f31362d31312d39312d32302d31347a6d3136382d3137382d3735203334352d38610b608201527f322036312031363320387a222f3e3c706174682066696c6c3d22234646443430610b808201527f302220643d224d393238203130383468316c31362d387a6d2d3333322031324c610ba08201527f333539203938306c2d31332d34382d3337362d3134312d34203330377a222f3e610bc08201527f3c706174682066696c6c3d22234639423233332220643d226d33333620313030610be08201527f382d3230372d37392d39312d39312d333231203230317a222f3e3c7061746820610c008201527f66696c6c3d22234646453133442220643d224d33333620313030382033392039610c208201527f38326c2d36382d3639763139336c35333520352d37322d37327a222f3e3c212d610c408201527f2d62757368312d2d3e3c75736520687265663d2223686f75736522207472616e610c608201527f73666f726d3d226d6174726978282d2e363220302030202e3632203233392031610c808201527f30303229222f3e3c212d2d70616c6d312d2d3e3c67207472616e73666f726d3d610ca08201527f226d6174726978282e3820302030202e3820363730203130363029223e3c212d610cc08201527f2d666c6f7765722d2d3e3c2f673e3c212d2d62616c6c2d2d3e00000000000000610ce082015260a0608001526040518061120081011067ffffffffffffffff6112008301111761548c5761120081016040526111c381527f4368696e61000000000000000000000000000000022334c40635e54800b4015e60208201527d3c646566733e3c706174682069643d22627573685f32222066696c6c3d2260408201527f233942423232342220643d224d2d333020313563302d33392036302d3339203660608201527f3020307a222f3e3c706174682069643d22627573685f33222066696c6c3d222360808201527f3634393632342220643d224d2d333020313563302d33392036302d333920363060a08201527f20307a222f3e3c672069643d22617369616e5f747265655f31223e3c656c6c6960c08201527f7073652063783d223231222063793d2237222066696c6c3d222339424232323460e08201527f222072783d2239222072793d2236222f3e3c706174682066696c6c3d222341416101008201527f373033352220643d226d323520322032382031322d33382031372031372031386101208201527f2d3320322d31372d31392d3520322d322d352033352d31352d31372d37682d376101408201527f326c36342d32372d382d32376831346c392033302d34332031397a222f3e3c656101608201527f6c6c697073652063783d223239222063793d222d32222066696c6c3d222339426101808201527f42323234222072783d223232222072793d2238222f3e3c656c6c6970736520636101a08201527f783d222d3139222063793d222d3138222066696c6c3d222339424232323422206101c08201527f72783d223333222072793d2238222f3e3c656c6c697073652063783d222d33366101e08201527f222063793d2234222066696c6c3d2223394242323234222072783d22313722206102008201527f72793d2239222f3e3c656c6c697073652063783d2231222063793d22313422206102208201527f66696c6c3d2223394242323234222072783d223230222072793d2239222f3e3c6102408201527f656c6c697073652063783d222d3138222063793d223231222066696c6c3d22236102608201527f394242323234222072783d2238222072793d2235222f3e3c656c6c69707365206102808201527f63783d223336222063793d223238222066696c6c3d22233942423232342220726102a08201527f783d223136222072793d2236222f3e3c656c6c697073652063783d22323022206102c08201527f63793d223530222066696c6c3d2223394242323234222072783d2231312220726102e08201527f793d2237222f3e3c656c6c697073652063783d223333222063793d22353022206103008201527f66696c6c3d2223394242323234222072783d223130222072793d2234222f3e3c6103208201527f656c6c697073652063783d2232222063793d223334222066696c6c3d222339426103408201527f42323234222072783d2238222072793d2236222f3e3c656c6c697073652063786103608201527f3d223533222063793d223135222066696c6c3d2223394242323234222072783d6103808201527f2238222072793d2236222f3e3c2f673e3c672069643d22617369616e5f7472656103a08201527f655f32223e3c706174682066696c6c3d22234141364432392220643d226d32376103c08201527f2d31352d3220352d33342d313520352032372d3231203334203130203138682d6103e08201527f346c2d31322d31382031382d33332d32392d3130316831376c31342036367a226104008201527f2f3e3c656c6c697073652063783d222d3130222063793d2239222066696c6c3d6104208201527f2223463339323030222072783d223336222072793d223133222f3e3c656c6c696104408201527f7073652063783d223337222063793d222d3131222066696c6c3d2223463339326104608201527f3030222072783d223234222072793d2238222f3e3c656c6c697073652063783d6104808201527f222d39222063793d223537222066696c6c3d2223463339323030222072783d226104a08201527f3135222072793d2237222f3e3c656c6c697073652063783d222d3332222063796104c08201527f3d223335222066696c6c3d2223463339323030222072783d223230222072793d6104e08201527f2238222f3e3c656c6c697073652063783d222d3135222063793d222d333522206105008201527f66696c6c3d2223463339323030222072783d223335222072793d223137222f3e6105208201527f3c2f673e3c2f646566733e3c672069643d224247223e3c706174682066696c6c6105408201527f3d22234642443138352220643d226d2d3331203237342036392d3234203130346105608201527f2032382036382d33382038362034302036352d32352034342032302036302d336105808201527f35203532203338203130322d36203436203139203134302d32352039302034386105a08201527f2036322d34322034362032382039382d3334763838482d33317a222f3e3c70616105c08201527f74682066696c6c3d22234238433836342220643d226d2d3331203330392031356105e08201527f352d343720323236203631203238342d313820323239203436203236372d32306106008201527f76313537482d32357a222f3e3c706174682066696c6c3d2223464645373636226106208201527f20643d226d2d32303420343039203334312d323120333635203136392d3733306106408201527f203132327a222f3e3c706174682066696c6c3d22234333443137432220643d226106608201527f6d353020343139203436342039302d31342037312d3436342d39307a222f3e3c6106808201527f706174682066696c6c3d22234339383046312220643d226d35393220343438206106a08201527f3134332d31333176374c353931203437347a222f3e3c2f673e3c672069643d226106c08201527f4d47223e3c706174682066696c6c3d22233942423232342220643d226d3234376106e08201527f20353338203235342d313334203230382035397a222f3e3c75736520687265666107008201527f3d2223627573685f3322207472616e73666f726d3d226d617472697828352e306107208201527f382030203020312e3934203335332034383829222f3e3c706174682066696c6c6107408201527f3d22233942423232342220643d226d38323920343734203237382d31323120316107608201527f36342033377a222f3e3c706174682066696c6c3d22234642443138352220643d6107808201527f226d32363920353233203233362d3732203630362d3432763234317a222f3e3c6107a08201527f706174682066696c6c3d22234637423033332220643d224d323139203733322d6107c08201527f3432203437316c3639382038357a222f3e3c706174682066696c6c3d222339426107e08201527f423232342220643d226d2d31302033373520323530203136314c2d35203634376108008201527f7a222f3e3c706174682066696c6c3d22234642443138352220643d224d2d31316108208201527f312036383020393835203436376c3836203434332d31303937203231337a222f6108408201527f3e3c706174682066696c6c3d22234642443138352220643d226d2d32392039316108608201527f392d36342d34323220383931203336317a222f3e3c2f673e3c672069643d22466108808201527f47223e3c706174682066696c6c3d22233932303045312220643d224d383934206108a08201527f323534683331763836682d33317a222f3e3c706174682066696c6c3d222343396108c08201527f383046312220643d224d393037203237346838763135682d387a6d2d34362d326108e08201527f30683333763836682d33337a4d373436203439306c2d36332d3531762d31356c6109008201527f3637203530763231222f3e3c75736520687265663d2223617369616e5f7472656109208201527f655f3222207472616e73666f726d3d226d6174726978282d2e3438202e3037206109408201527f2d2e3037202d2e3438203735392033373229222f3e3c706174682066696c6c3d6109608201527f22234637423033332220643d224d3835392033303920363835203533326c2d326109808201527f38312039322d3130302d31382d3535392035313520313337372d31312d32342d6109a08201527f3636322d35362d31352d38352d3130377a222f3e3c75736520687265663d22236109c08201527f627573685f3222207472616e73666f726d3d226d6174726978282e38372030206109e08201527f30202e3837203938352034343429222f3e3c75736520687265663d2223627573610a008201527f685f3222207472616e73666f726d3d227472616e736c61746528383939203531610a208201527f38297363616c6528312e303429222f3e3c75736520687265663d222361736961610a408201527f6e5f747265655f3222207472616e73666f726d3d226d6174726978282e343820610a608201527f2e3037202e3037202d2e343820313031322033333629222f3e3c757365206872610a808201527f65663d2223617369616e5f747265655f3122207472616e73666f726d3d227363610aa08201527f616c6528312e31202d312e3129726f7461746528313920313833392039393029610ac08201527f222f3e3c706174682066696c6c3d22233932303045312220643d226d38373020610ae08201527f3239362d34312033387633316c35302d36387a222f3e3c706174682066696c6c610b008201527f3d22234339383046312220643d226d383739203239372d33392033387633306c610b208201527f33392d34397a222f3e3c706174682066696c6c3d22233932303045312220643d610b408201527f224d3936342034383820383239203333346c382d3520313837203135397a222f610b608201527f3e3c706174682066696c6c3d22234339383046312220643d224d393639203532610b808201527f392038323920333635762d33316c313434203134307a222f3e3c706174682066610ba08201527f696c6c3d22234339383046312220643d224d3130313320353533682d35346c35610bc08201527f2d3130326834397a222f3e3c706174682066696c6c3d22234339383046312220610be08201527f643d226d36353620353536203333372d34357636346c2d3333372034397a6d2d610c008201527f37203530682d32386c372d38386832317a222f3e3c706174682066696c6c3d22610c208201527f233932303045312220643d224d39383020343834683132763232682d31327a6d610c408201527f33332d333368343676313039682d34367a4d363439203630366832336c2d372d610c608201527f3838682d31367a222f3e3c75736520687265663d2223627573685f3322207472610c808201527f616e73666f726d3d227472616e736c6174652838343420353938297363616c65610ca08201527f28322e343229222f3e3c706174682066696c6c3d22233942423232342220643d610cc08201527f226d31313231203530312d3130382035322d33302d382d3134332034352d3139610ce08201527f322d31342d3131382034372d33322d31352d3233322031373520383535203735610d008201527f7a222f3e3c75736520687265663d2223627573685f3322207472616e73666f72610d208201527f6d3d227472616e736c617465283535342036323429222f3e3c70617468206669610d408201527f6c6c3d22234339383046312220643d226d383439203733332d342d37392d3138610d608201527f332d39392d3620317a222f3e3c706174682066696c6c3d222339323030453122610d808201527f20643d226d383434203733352d342d36342d3138342d3131357632307a222f3e610da08201527f3c706174682066696c6c3d22234339383046312220643d226d33363320373031610dc08201527f2d32352d36682d3335763134682d32357634306c3631203138203130342d3435610de08201527f2d31362d332d36342031307a6d3533302d34362d34382d31312d363120362d37610e008201527f2036352d313739203835203737203239203135302d34317a222f3e3c70617468610e208201527f2066696c6c3d22233932303045312220643d224d363334203533356835763132610e408201527f682d357a6d31363620313435683130763233682d31307a222f3e3c7061746820610e608201527f66696c6c3d22233932303045312220643d226d393137203838362d3637362d33610e808201527f362d35302d3131372032382d312038372038762d3234683237762d3135683330610ea08201527f7633356c38302d313420323237203631203133382d373520323120362d332d34610ec08201527f392036372d31307a222f3e3c706174682066696c6c3d22234339383046312220610ee08201527f643d224d333436203731346838763131682d387a222f3e3c706174682066696c610f008201527f6c3d22234641433135432220643d226d32323120373830203231362d32332032610f208201527f3333203737203132382d3835203237203130203138382d3934203130392d3133610f408201527f362d32203536377a222f3e3c75736520687265663d2223617369616e5f747265610f608201527f655f3222207472616e73666f726d3d22726f7461746528313830203439352033610f808201527f3038297363616c65282e373529222f3e3c706174682066696c6c3d2223433938610fa08201527f3046312220643d226d313931203733332032382d31203134312037302d313236610fc08201527f2034377a6d3230332034386836396c333234203135342d3138322034317a222f610fe08201527f3e3c706174682066696c6c3d22233932303045312220643d224d3534382038396110008201527f3720333934203738316c2d3131332032382d39302d37362d35342033373968316110208201527f303035563736327a222f3e3c75736520687265663d2223627573685f332220746110408201527f72616e73666f726d3d227472616e736c617465283130363520393935297363616110608201527f6c6528322e343229222f3e3c706174682066696c6c3d222339424232323422206110808201527f643d226d2d323820383431203231392d353820313420353720373020353520316110a08201527f31322d332031363720313438203635322d343476313432482d33317a222f3e3c6110c08201527f2f673e3c75736520687265663d2223617369616e5f747265655f3122207472616110e08201527f6e73666f726d3d226d617472697828332e313220302030202d332e31322038366111008201527f382038393929222f3e3c75736520687265663d2223617369616e5f747265655f6111208201527f3222207472616e73666f726d3d226d617472697828322e323620302030202d326111408201527f2e3236203135392038313629222f3e3c75736520687265663d2223627573685f6111608201527f3322207472616e73666f726d3d227472616e736c6174652831313520313032376111808201527f297363616c6528322e343229222f3e3c67207472616e73666f726d3d227472616111a08201527f6e736c61746528363435203130353029223e3c212d2d666c6f7765722d2d3e3c6111c08201526217b39f60e91b6111e082015260c060800152600760043510156154765760043560051b6080015160405190602082528181519182602083015260005b83811061545e5750508160006040809484010152601f80199101168101030190f35b6020828201810151604087840101528593500161543c565b634e487b7160e01b600052603260045260246000fd5b634e487b7160e01b600052604160045260246000fd5b600080fd5b60405190610940820182811067ffffffffffffffff82111761548c5760405256fea2646970667358221220bb2a7aa1c9463a935baa2ca70f8fbff2b55816bfe6c9aec5893549a8a6281a3d64736f6c63430008190033","linkReferences":{}},"methodIdentifiers":{"getMotifData(uint256)":"fedd6fec"},"id":13}