{"abi":[{"type":"function","name":"altitude","inputs":[{"name":"H","type":"int256","internalType":"int256"},{"name":"phi","type":"uint256","internalType":"uint256"},{"name":"dec","type":"int256","internalType":"int256"}],"outputs":[{"name":"","type":"int256","internalType":"int256"}],"stateMutability":"pure"},{"type":"function","name":"approxTransit","inputs":[{"name":"Ht","type":"uint256","internalType":"uint256"},{"name":"lw","type":"int256","internalType":"int256"},{"name":"n","type":"uint256","internalType":"uint256"}],"outputs":[{"name":"","type":"uint256","internalType":"uint256"}],"stateMutability":"pure"},{"type":"function","name":"azimuth","inputs":[{"name":"H","type":"int256","internalType":"int256"},{"name":"phi","type":"uint256","internalType":"uint256"},{"name":"dec","type":"int256","internalType":"int256"}],"outputs":[{"name":"","type":"int256","internalType":"int256"}],"stateMutability":"pure"},{"type":"function","name":"declination","inputs":[{"name":"l","type":"int256","internalType":"int256"},{"name":"b","type":"int256","internalType":"int256"}],"outputs":[{"name":"","type":"int256","internalType":"int256"}],"stateMutability":"pure"},{"type":"function","name":"eclipticLongitude","inputs":[{"name":"M","type":"uint256","internalType":"uint256"}],"outputs":[{"name":"","type":"int256","internalType":"int256"}],"stateMutability":"pure"},{"type":"function","name":"fromJulian","inputs":[{"name":"j","type":"uint256","internalType":"uint256"}],"outputs":[{"name":"","type":"uint256","internalType":"uint256"}],"stateMutability":"pure"},{"type":"function","name":"getMoonIllumination","inputs":[{"name":"timestamp","type":"uint256","internalType":"uint256"}],"outputs":[{"name":"","type":"int256","internalType":"int256"},{"name":"","type":"int256","internalType":"int256"},{"name":"","type":"int256","internalType":"int256"}],"stateMutability":"pure"},{"type":"function","name":"getMoonPosition","inputs":[{"name":"lat","type":"int256","internalType":"int256"},{"name":"lng","type":"int256","internalType":"int256"},{"name":"timestamp","type":"uint256","internalType":"uint256"}],"outputs":[{"name":"","type":"int256","internalType":"int256"},{"name":"","type":"int256","internalType":"int256"},{"name":"","type":"int256","internalType":"int256"}],"stateMutability":"pure"},{"type":"function","name":"getPosition","inputs":[{"name":"lat","type":"int256","internalType":"int256"},{"name":"lng","type":"int256","internalType":"int256"},{"name":"timestamp","type":"uint256","internalType":"uint256"}],"outputs":[{"name":"","type":"int256","internalType":"int256"},{"name":"","type":"int256","internalType":"int256"}],"stateMutability":"pure"},{"type":"function","name":"getSunRiseSet","inputs":[{"name":"date","type":"uint256","internalType":"uint256"},{"name":"lat","type":"int256","internalType":"int256"},{"name":"lng","type":"int256","internalType":"int256"}],"outputs":[{"name":"sunrise","type":"uint256","internalType":"uint256"},{"name":"sunset","type":"uint256","internalType":"uint256"}],"stateMutability":"pure"},{"type":"function","name":"hourAngle","inputs":[{"name":"h","type":"uint256","internalType":"uint256"},{"name":"phi","type":"uint256","internalType":"uint256"},{"name":"d","type":"uint256","internalType":"uint256"}],"outputs":[{"name":"","type":"uint256","internalType":"uint256"}],"stateMutability":"pure"},{"type":"function","name":"julianCycle","inputs":[{"name":"d","type":"uint256","internalType":"uint256"},{"name":"lw","type":"int256","internalType":"int256"}],"outputs":[{"name":"","type":"int256","internalType":"int256"}],"stateMutability":"pure"},{"type":"function","name":"moonCoords","inputs":[{"name":"d","type":"uint256","internalType":"uint256"}],"outputs":[{"name":"","type":"int256","internalType":"int256"},{"name":"","type":"int256","internalType":"int256"},{"name":"","type":"uint256","internalType":"uint256"}],"stateMutability":"pure"},{"type":"function","name":"p_atan2","inputs":[{"name":"y","type":"int256","internalType":"int256"},{"name":"x","type":"int256","internalType":"int256"}],"outputs":[{"name":"T","type":"int256","internalType":"int256"}],"stateMutability":"pure"},{"type":"function","name":"rightAscension","inputs":[{"name":"l","type":"int256","internalType":"int256"},{"name":"b","type":"int256","internalType":"int256"}],"outputs":[{"name":"","type":"int256","internalType":"int256"}],"stateMutability":"pure"},{"type":"function","name":"sideRealTime","inputs":[{"name":"d","type":"uint256","internalType":"uint256"},{"name":"lw","type":"int256","internalType":"int256"}],"outputs":[{"name":"","type":"int256","internalType":"int256"}],"stateMutability":"pure"},{"type":"function","name":"solarMeanAnomaly","inputs":[{"name":"d","type":"uint256","internalType":"uint256"}],"outputs":[{"name":"","type":"uint256","internalType":"uint256"}],"stateMutability":"pure"},{"type":"function","name":"solarTransitJ","inputs":[{"name":"ds","type":"uint256","internalType":"uint256"},{"name":"M","type":"uint256","internalType":"uint256"},{"name":"L","type":"uint256","internalType":"uint256"}],"outputs":[{"name":"","type":"uint256","internalType":"uint256"}],"stateMutability":"pure"},{"type":"function","name":"sunCoords","inputs":[{"name":"d","type":"uint256","internalType":"uint256"}],"outputs":[{"name":"","type":"int256","internalType":"int256"},{"name":"","type":"int256","internalType":"int256"}],"stateMutability":"pure"},{"type":"function","name":"tan","inputs":[{"name":"x","type":"int256","internalType":"int256"}],"outputs":[{"name":"","type":"int256","internalType":"int256"}],"stateMutability":"pure"},{"type":"function","name":"tan","inputs":[{"name":"x","type":"uint256","internalType":"uint256"}],"outputs":[{"name":"","type":"int256","internalType":"int256"}],"stateMutability":"pure"},{"type":"function","name":"toDays","inputs":[{"name":"timestamp","type":"uint256","internalType":"uint256"}],"outputs":[{"name":"","type":"uint256","internalType":"uint256"}],"stateMutability":"pure"},{"type":"error","name":"PRBMath_MulDiv18_Overflow","inputs":[{"name":"x","type":"uint256","internalType":"uint256"},{"name":"y","type":"uint256","internalType":"uint256"}]},{"type":"error","name":"PRBMath_MulDiv_Overflow","inputs":[{"name":"x","type":"uint256","internalType":"uint256"},{"name":"y","type":"uint256","internalType":"uint256"},{"name":"denominator","type":"uint256","internalType":"uint256"}]},{"type":"error","name":"PRBMath_SD59x18_Div_InputTooSmall","inputs":[]},{"type":"error","name":"PRBMath_SD59x18_Div_Overflow","inputs":[{"name":"x","type":"int256","internalType":"SD59x18"},{"name":"y","type":"int256","internalType":"SD59x18"}]},{"type":"error","name":"PRBMath_SD59x18_Mul_InputTooSmall","inputs":[]},{"type":"error","name":"PRBMath_SD59x18_Mul_Overflow","inputs":[{"name":"x","type":"int256","internalType":"SD59x18"},{"name":"y","type":"int256","internalType":"SD59x18"}]},{"type":"error","name":"PRBMath_SD59x18_Sqrt_NegativeInput","inputs":[{"name":"x","type":"int256","internalType":"SD59x18"}]},{"type":"error","name":"PRBMath_SD59x18_Sqrt_Overflow","inputs":[{"name":"x","type":"int256","internalType":"SD59x18"}]}],"bytecode":{"object":"0x6080806040523460195761240b908161001f823930815050f35b600080fdfe6080604052600436101561001257600080fd5b60003560e01c8063036886fa146101775780630cd6f239146101725780631873689c1461016d5780631c9cafd7146101685780632526c04d146101635780634332cd4b1461015e5780635d1a218d1461015957806377127512146101545780637e3927531461014f578063835a0d561461014a5780639d75332b14610145578063b012805e14610140578063b03d1f641461013b578063b4ce66db14610136578063cfcfa86014610131578063d75ec3fc1461012c578063e8f3522114610127578063eb9796f214610122578063edfae3b41461011d578063f1b99d9f14610118578063f55d5b7c146101135763fc50e1e01461010e57600080fd5b610a28565b610829565b610815565b6106b4565b6105c6565b610532565b610519565b6104fd565b6104e1565b61032b565b61030f565b6102f6565b6102e2565b6102c6565b6102aa565b610291565b610265565b61021e565b6101ea565b6101d6565b6101a3565b606036600319011261019e576020610196604435602435600435610de0565b604051908152f35b600080fd5b602036600319011261019e576020610196600435610e3b565b606090600319011261019e57600435906024359060443590565b60206101966101e4366101bc565b91610efb565b602036600319011261019e57602061019660043561021861021261020d83611727565b610bfe565b91611752565b90610d8c565b602036600319011261019e5761023d6102386004356112e8565b6110a9565b61024f610249826111a7565b91611335565b60408051928352602083019190915290f35b0390f35b602036600319011261019e57606061027e600435610f81565b9060405192835260208301526040820152f35b602036600319011261019e5760206101966004356110a9565b604036600319011261019e57602061019660243560043561114e565b604036600319011261019e57602061019660243560043561122a565b60206101966102f0366101bc565b9161125f565b602036600319011261019e5760206101966004356112e8565b604036600319011261019e5760206101966024356004356113aa565b606036600319011261019e57600435610345604435610c1b565b670de0b6b3a7640000900561035990610c37565b90610365602435610c1b565b670de0b6b3a7640000900561037990610b76565b918061038483610e3b565b9061038e91611575565b926103998483610dac565b926103a3846112e8565b809484876103b0846110a9565b92836103bb81611335565b996103c59261125f565b976103d09087611619565b916103da92610de0565b916103e49261125f565b936103ef8186610e00565b6103f891610e00565b610401906116e7565b9361040b906116e7565b948185119361046e9185156104c85761042390610e81565b905b6104696104328383610dac565b9261043c846112e8565b92610464610449856110a9565b9561045e878761045882611335565b9361125f565b99611619565b610de0565b61125f565b921561049257505061024f9192506116e7565b604080519182526020820192909252f35b84929192106104a3575b5050610481565b6104c19250906104b6816104bc93610e00565b90610e00565b6116e7565b388061049c565b908388101561042557906104db90610a57565b90610425565b604036600319011261019e5760206101966024356004356114ac565b604036600319011261019e576020610196602435600435611575565b602036600319011261019e5760206101966004356115f6565b60206101966105c16105bc6105b06105b761055961054f366101bc565b9491929092611d1e565b6105aa61056584611d1e565b9161058e61057288611d1e565b956105876715cc96efd11924eb809201611d1e565b9801611d1e565b926105a3670de0b6b3a7640000968792610d29565b0590610ee2565b94610d29565b0591610bfe565b610d8c565b611dba565b610ebf565b6105f96105f36105ed6105d8366101bc565b94919390670de0b6b3a7640000938491610c1b565b05610c37565b92610c1b565b05916757325bbf446493ac92600084820194851291129080158216911516176106af5761062861065691610e3b565b91610651610638610238856112e8565b9161064b610645846111a7565b93611335565b9461114e565b610ee2565b9161067b61066d610668848487610efb565b610c4e565b672b992ddfa23249d6900590565b926809c2007651b250000093600085820195861291129080158216911516176106af5761024f9261066d9261066892611690565b610a41565b6106e76106f561078061066d61066861072061070b6107056107006106e76106fa6106de366101bc565b9b919c90610c1b565b670de0b6b3a7640000900590565b610c37565b99610c1b565b610b76565b95610e3b565b61065161071782610f81565b5098909261114e565b9461072c818688611690565b9461077a61076c6106e7610751610742856115f6565b61074b87611752565b90610d29565b61076661075d87611727565b61074b8d611752565b90610ee2565b61077589611727565b6114ac565b96610efb565b6809c2007651b250000090600082820192831291129080158216911516176106af5768138400eca364a00000900790600082126107f0575b6107d361066d6107cd61066d61026194610c4e565b94610c4e565b604051938493846040919493926060820195825260208201520152565b906107d361066d6107cd61066d61080961026195610a7b565b959450505050506107b8565b6020610196610823366101bc565b91611690565b602036600319011261019e57610840600435610e3b565b61084981610f62565b909161085490610f81565b61086084939294611727565b61086985611727565b61087291610d29565b670de0b6b3a7640000900561088684611752565b61088f86611752565b61089891610d29565b6108a28488610ee2565b6108ab90611752565b6108b491610d29565b6ec097ce7bc90715b34b9f100000000090056108cf91610be2565b6108d890611dba565b6108e190610ebf565b906108eb82611727565b6108f490610c6c565b670de0b6b3a764000090059161090990611752565b61091290610c6c565b670de0b6b3a7640000900561092691610ee2565b61092f916114ac565b9361093983611752565b6109438383610ee2565b61094c90611727565b61095591610d29565b670de0b6b3a764000090059361096a84611727565b61097382611752565b61097c91610d29565b670de0b6b3a764000090059361099190611752565b9061099b90611727565b6109a491610d29565b916109ae91610ee2565b6109b790611752565b6109c091610d29565b6ec097ce7bc90715b34b9f100000000090056109db91610ee2565b6109e4916114ac565b6109ed90610c4e565b672b992ddfa23249d6900590610a0290611752565b610a0b90610aa0565b600290056040805191825260006020830152810191909152606090f35b602036600319011261019e5760206101966004356116e7565b634e487b7160e01b600052601160045260246000fd5b90670de0b6b3a764000091600083820193841291129080158216911516176106af57565b9068138400eca364a0000091600083820193841291129080158216911516176106af57565b9081670de0b6b3a7640000019182126001166106af57565b906305f5e10091600083820193841291129080158216911516176106af57565b90670ae64b77e88c928591600083820193841291129080158216911516176106af57565b9081670107d3fc6daa5000019182126001166106af57565b90816702f194ec47bebfff1901918212156001166106af57565b90816715cc59858279c000019182126001166106af57565b908167010a741a46278000019182126001166106af57565b90816702501e734690aaaa019182126001166106af57565b906757325bbf446493ac91600083820193841291129080158216911516176106af57565b906720b2e267b9a5b78f91600083820193841291129080158216911516176106af57565b90674487f5bed35cbebf91600083820193841291129080158216911516176106af57565b919091600083820193841291129080158216911516176106af57565b90670de0b6b3a7640000918281029281840514901517156106af57565b90663e01ad54cfec80918281029281840514901517156106af57565b90816000039180830560001914901517156106af57565b906809c2007651b2500000918281029281840514901517156106af57565b906a7bbe9bd4793284bec0000091808302928305036106af57565b906151a991808302928305036106af57565b90816003029160038305036106af57565b90663e01ad54cfec8091808302928305036106af57565b906702b965cf5968c00091808302928305036106af57565b90670d9fb2f2e000400091808302928305036106af57565b906e1523c5620c6c2b78929bf79540000091808302928305036106af57565b906804da11980ae4f9640091808302928305036106af57565b818102929160008212600160ff1b8214166106af5781840514901517156106af57565b90663e01ad54cfec8091808302928304036106af57565b9062c9dd2691808302928304036106af57565b634e487b7160e01b600052601260045260246000fd5b8115610da757600160ff1b81146000198314166106af570590565b610d76565b610dbe6757325bbf446493ac91610bfe565b0590816603328b944c4000019182126001166106af57610ddd91610be2565b90565b61020d6757325bbf446493ac92610dbe92610be2565b8115610da7570490565b919082039182116106af57565b90680750fce56f750b80009182018092116106af57565b9068050e68b5d2e23c00009182018092116106af57565b6201518090046706f05b59d3b1ffff198101908082116106af576a0204d083738f3c8afe000081018092116106af5769025201dc22ad46c5ffff19019081116106af5790565b90670de0b6b3a763ffff1982019182136001166106af57565b90695186f22f0d4776040000600083820393128184128116918413901516176106af57565b906715cc96efd11924eb600083820393128184128116918413901516176106af57565b818103929160001380158285131691841216176106af57565b90610f5b670de0b6b3a764000091610766610ddd95610f55610f25610f1f88611727565b97611752565b936105aa610f456715cc96efd11924eb610f3e84611d1e565b9301611d1e565b9361021861021261020d83611727565b92610d29565b05906114ac565b610238610f6e916112e8565b90610ddd610f7b836111a7565b92611335565b9062c90e4c9082820291820483036106af57620f42409182680bd5be3d4ff02e0000910481018091116106af57610fc0670de0b6b3a764000091610d4c565b049162c75b2184810290810485036106af5704610fdc90610e0d565b610fe590610d4c565b670de0b6b3a7640000900492610ffa90610d63565b620f4240900461100990610e24565b61101290610d4c565b670de0b6b3a764000090049161102784611d1e565b61103090610cf1565b6ec097ce7bc90715b34b9f1000000000900561104b91610be2565b9161105590611d1e565b61105e90610d10565b683635c9adc5dea000009005926715cc96efd11924eb0161107e90611d1e565b61108790610c87565b61109090610e9a565b9161109b848261122a565b936110a5916113aa565b9190565b6110b281611d1e565b614acc90808202918205036106af576001600160ff1b03821682036106af576110dd8260011b611d1e565b918260011b9260028405036106af5780600302926003840482036106af576106e761113e61114392611139611149966127106064611130611128611123610ddd9d611d1e565b610c99565b612710900590565b94059105610be2565b610be2565b610caa565b90610be2565b610bbe565b9063d72a08eb91808302928304036106af5762989680680f300043a611700000920482018092116106af57663e01ad54cfec8091808302928304036106af57670de0b6b3a7640000916107666111a392610bfe565b0590565b610ddd906112246111c26111ba83611727565b61074b611cad565b670de0b6b3a76400009061121d9061076661121563ffffffff637fffffff866111fe82828560086111f161179f565b015160201c160205610bfe565b9261040461120a61179f565b015116020590610d8c565b61074b611ce5565b0591611752565b906114ac565b611224670de0b6b3a764000061121d610ddd9461076661121561124f6111ba88611727565b9261021861021261020d83611727565b9190826a020722854fb1e9d1c40000019283126001166106af5761128290611d1e565b916612d452694f400092808402938405036106af576112ad90670de0b6b3a764000080940590610be2565b906001600160ff1b03811681036106af576112ca9060011b611d1e565b9164019b45a50092808402938405036106af57610ddd920590610ee2565b6305dfe81c90808202918204036106af576305f5e100681361b6862dfd1cc000910481018091116106af57663e01ad54cfec8090808202918204036106af57670de0b6b3a7640000900490565b61139d6113a4610ddd92637fffffff90670de0b6b3a764000093849161074b61139763ffffffff958561137e82828a600861136e61179f565b015160201c16020561074b611cad565b9761040461138a61179f565b015116020561074b611ce5565b91611727565b0590610be2565b05611dba565b6113a4610ddd9261074b9261139d6113d06112156113ca6111ba86611727565b94611752565b670de0b6b3a7640000958693611727565b600160ff1b81146106af5760000390565b80156114a657600081138060011461148e5715611477575b808002906001805b808211611448575050600081136001600160ff1b038390048211166106af5760008112600160ff1b8390058212166106af570290565b90926001600160ff1b0381900481116106af5781841661146e575b800292811c90611412565b80920291611463565b6001600160ff1b0381900581121561140a57610a41565b506001600160ff1b0381900481111561140a57610a41565b50600090565b6000811291906114c0908361156757610ab8565b6000821261153b576114e982610218836114e361020d6115269661152b98610ee2565b92610be2565b6107666106e76115206115036114fe856113f2565b610cc1565b760a70c3c40a64e6c51999090b65f67d9240000000000000900590565b92610cd9565b610ad8565b905b15610ddd57610ddd906113e1565b6114e9816102188461155661020d61155c9661156198610be2565b92610ee2565b610b9a565b9061152d565b611570906113e1565b610ab8565b906603328b944c3fff1982019182136001166106af57670de0b6b3a76400009181830291838305036106af576757325bbf446493ac6115b5920590610ee2565b6706f05b59d3b20000828206116115d15790610ddd9105610bfe565b816115dc9105610bfe565b600082820192831291129080158216911516176106af5790565b610ddd906102186715cc96efd11924eb61161261020d84611d1e565b9201611d1e565b6105bc610ddd926105b76105c1936105b0670de0b6b3a7640000916105aa637fffffff8463ffffffff600861164c61179f565b015160201c160205846105a361166185611d1e565b9461168a61166e8b611d1e565b916116836715cc96efd11924eb809201611d1e565b9b01611d1e565b95610d29565b906ec097ce7bc90715b34b9f100000000061139d6105bc9361074b610212610ddd9761074b6102126715cc96efd11924eb670de0b6b3a76400006116df6116d68c611d1e565b61074b87611727565b059901611d1e565b6706f05b59d3b200008101908181116106af576a0204d083738f3c8afdffff19019081116106af5762015180908181029181830414901517156106af5790565b60008112156117495761174461173f610ddd926113e1565b611d1e565b6113e1565b610ddd90611d1e565b6000811215611776576715cc96efd11924eb611770610ddd926113e1565b01611d1e565b6715cc96efd11924eb610ddd9101611d1e565b634e487b7160e01b600052604160045260246000fd5b60405190610440820182811067ffffffffffffffff821117611ca857604090815261040483527ac90f8801921d20025b26d703242abf03ed26e604b6195d057f003560208401527f0647d97c0710a34507d95b9e08a2009a096a90490a3308bc0afb68050bc3ac35908301527f0c8bd35e0d53db920e1bc2e40ee387660fab272b1072a0481139f0cf120116d560608301527f12c8106e138edbb1145576b1151bdf8515e2144416a81305176dd9de183366e860808301527f18f8b83c19bdcbf31a82a0251b4732ef1c0b826a1ccf8cb31d934fe51e56ca1e60a08301527f1f19f97b1fdcdc1b209f701c2161b39f2223a4c522e541af23a6887e2467775760c08301527f25280c5d25e845b626a8218527679df42826b92828e5714a29a3c4852a61b10160e08301527f2b1f34eb2bdc4e6f2c98fbba2d553afb2e110a622ecc681e2f8752623041c7606101008301527f30fbc54d31b54a5d326e54c73326e2c233def2873496824f354d905636041ad96101208301527f36ba2013376f9e46382493b038d8fe93398cdd323a402dd13af2eeb73ba51e296101408301527f3c56ba703d07c1d53db832a53e680b2c3f1749b73fc5ec974073f21d4121589a6101608301527f41ce1e64427a41d04325c13543d09aec447acd50452456bc45cd358f467568276101808301527f471cece647c3c22e4869e664490f57ee49b415334a581c9d4afb6c974b9e038f6101a08301527f4c3fdff34ce100344d8162c34e2106174ebfe8a44f5e08e24ffb654c5097fc5e6101c08301527f5133cc9451ced46e5269126e53028517539b2aef5433027d54ca0a4a556040e26101e08301527f55f5a4d2568a34a9571deef957b0d2555842dd5458d40e8c5964649759f3de126102008301527f5a8279995b1035ce5b9d11535c290acc5cb420df5d3e52365dc79d7b5e50015d6102208301527f5ed77c895f5e0db25fe3b38d60686cce60ec382f616f146b61f1003e6271fa686102408301527f62f201ac637114cc63ef328f646c59bf64e889256563bf9165ddfbd266573cbb6102608301527f66cf811f6746c7d767bd0fbc683257aa68a69e806919e31f698c246b69fd614a6102808301527f6a6d98a36adcc9646b4af2786bb812d06c24295f6c8f351b6cf934fb6d6227f96102a08301527f6dca0d146e30e3496e96a99c6efb5f116f5f02b16fc1938470231099708378fe6102c08301527f70e2cbc571410804719e2cd171fa394872552c8472af05a67307c3cf735f66256102e08301527f73b5ebd0740b53fa745f9dd074b2c8837504d3447555bd4b75a585ce75f42c0a6103008301527f7641af3c768e0ea576d9498877235f2c776c4eda77b417df77fab988784033286103208301527f7884841378c7aba17909a92c794a7c11798a23b079c89f6d7a05eeac7a4210d86103408301527f7a7d055a7ab6cba37aef63237b26cb4e7b5d039d7b920b887bc5e28f7bf8882f6103608301527f7c29fbed7c5a3d4f7c894bdd7cb727237ce3ceb17d0f42177d3980eb7d628ac56103808301527f7d8a5f3f7db0fdf77dd6668e7dfa98a77e1d93e97e3f57fe7e5fe4927e7f39566103a08301527f7e9d55fb7eba3a387ed5e5c57ef0585f7f0991c37f2191b37f3857f57f4de4506103c08301527f7f62368e7f754e7f7f872bf27f97cebc7fa736b37fb563b27fc255957fce0c3d6103e08301527f7fd8878d7fe1c76a7fe9cbbf7ff094777ff621817ffa72d07ffd88597fff6215610400830152637fffffff60e01b610420830152565b611789565b637fffffff670de0b6b3a76400006102fc611cc661179f565b015161ac4463ffffffff8083169260201c1682030260101c9003020590565b637fffffff670de0b6b3a7640000610110611cfe61179f565b015161ac4463ffffffff91828160201c1692839116030260101c01020590565b670de0b6b3a7640000637fffffff916757325bbf446493ac809106601e1b0460ff8160141c166310000000821615908115611db2575b6002611d5e61179f565b910160021b015163ffffffff808260201c16911661ffff8460041c168282030260101c92600014611daa5750015b6320000000819216611d9f575b50020590565b905060000338611d99565b905003611d8c565b60ff03611d54565b670de0b6b3a763ffff1981121580611e52575b15611e0d5760008112908115611e0857611de6906113e1565b6706a50a102e750000811215611dff5761152b90611f23565b61156190611e64565b611de6565b60405162461bcd60e51b815260206004820152601b60248201527f496e7665727365547269676f6e6f6d657472793a20444f4d41494e00000000006044820152606490fd5b50670de0b6b3a7640000811315611dcd565b670de0b6b3a764000081810360008312828212811690838313901516176106af5760008112611f0b577809392ee8e921d5d073aff322e62439fcf32d7f344649470f908113611ef35791611ee8611eee611ec56105c194610ddd960261210a565b92611ee8611ee3611edd611ed884611fee565b610afc565b8361207b565b610b14565b9061207b565b610b2e565b6024906040519063063103bf60e01b82526004820152fd5b6024906040519063b9b0f49b60e01b82526004820152fd5b90611f2e828061207b565b91600160ff1b83148015611fe6575b611fd4576000831215611fcb57611f5683600003612242565b6001600160ff1b038111611fa557611f98610ddd9394611ee8611f93611edd611ee895600019669e9a7129c22db6861813600014611f9d57610b46565b610b5e565b610aa0565b600003610b46565b60405163120b5b4360e01b815260048101859052669e9a7129c22db66024820152604490fd5b611f5683612242565b60405163a6070c2560e01b8152600490fd5b506000611f3d565b600160ff1b81148015612073575b611fd457600081121561206a57612015816000036122df565b906001600160ff1b0382116120425760001966428a32f96447ff19909118131561203c5790565b60000390565b60405163120b5b4360e01b8152600481019190915266428a32f96447ff196024820152604490fd5b612015816122df565b506000611ffc565b600160ff1b818114908115612100575b50611fd45760008112156120f7576120b4816000035b60008412156120f057836000039061234d565b916001600160ff1b0383116120d1576000199118131561203c5790565b60405163120b5b4360e01b815260048101929092526024820152604490fd5b839061234d565b6120b4816120a1565b905082143861208b565b90811561223c57600182600160801b81101561222a575b6121c36121b96121af6121a561219b6121916121d497600488600160401b6121cd9a101561221d575b640100000000811015612210575b62010000811015612203575b6101008110156121f7575b60108110156121eb575b10156121e3575b61218a818c610df6565b0160011c90565b61218a818b610df6565b61218a818a610df6565b61218a8189610df6565b61218a8188610df6565b61218a8187610df6565b61218a8186610df6565b8093610df6565b808310156121df5750565b9150565b60011b612180565b811c9160021b91612179565b60081c91811b9161216f565b60101c9160081b91612164565b60201c9160101b91612158565b60401c9160201b9161214a565b50600160401b9050608083901c612121565b60009150565b669e9a7129c22db69190600019838209838202918280831092039180830392146122ce57670de0b6b3a764000090818310156122b057947faccb18165bd6fe31ae1cf318dc5b51eee0e1ba569b88cd74c1773b91fac1066994950990828211900360ee1b910360121c170290565b6044908660405191635173648d60e01b835260048301526024820152fd5b5050670de0b6b3a764000090049150565b66428a32f96448009190600019838209838202918280831092039180830392146122ce57670de0b6b3a764000090818310156122b057947faccb18165bd6fe31ae1cf318dc5b51eee0e1ba569b88cd74c1773b91fac1066994950990828211900360ee1b910360121c170290565b909190600019838209838202918280831092039180830392146122ce57670de0b6b3a764000090818310156123b457947faccb18165bd6fe31ae1cf318dc5b51eee0e1ba569b88cd74c1773b91fac1066994950990828211900360ee1b910360121c170290565b604051635173648d60e01b8152600481019190915260248101869052604490fdfea26469706673582212205a8ae51692446e986a6feb965fee9004c30c9346a9831dac910c6a9aa8ff833764736f6c63430008190033","linkReferences":{}},"methodIdentifiers":{"altitude(int256,uint256,int256)":"f1b99d9f","approxTransit(uint256,int256,uint256)":"036886fa","azimuth(int256,uint256,int256)":"1873689c","declination(int256,int256)":"b012805e","eclipticLongitude(uint256)":"5d1a218d","fromJulian(uint256)":"fc50e1e0","getMoonIllumination(uint256)":"f55d5b7c","getMoonPosition(int256,int256,uint256)":"edfae3b4","getPosition(int256,int256,uint256)":"eb9796f2","getSunRiseSet(uint256,int256,int256)":"b03d1f64","hourAngle(uint256,uint256,uint256)":"e8f35221","julianCycle(uint256,int256)":"cfcfa860","moonCoords(uint256)":"4332cd4b","p_atan2(int256,int256)":"b4ce66db","rightAscension(int256,int256)":"7e392753","sideRealTime(uint256,int256)":"77127512","solarMeanAnomaly(uint256)":"9d75332b","solarTransitJ(uint256,uint256,uint256)":"835a0d56","sunCoords(uint256)":"2526c04d","tan(int256)":"1c9cafd7","tan(uint256)":"d75ec3fc","toDays(uint256)":"0cd6f239"},"id":9}