{"abi":[{"type":"function","name":"altitude","inputs":[{"name":"H","type":"int256","internalType":"int256"},{"name":"phi","type":"uint256","internalType":"uint256"},{"name":"dec","type":"int256","internalType":"int256"}],"outputs":[{"name":"","type":"int256","internalType":"int256"}],"stateMutability":"pure"},{"type":"function","name":"approxTransit","inputs":[{"name":"Ht","type":"uint256","internalType":"uint256"},{"name":"lw","type":"int256","internalType":"int256"},{"name":"n","type":"uint256","internalType":"uint256"}],"outputs":[{"name":"","type":"uint256","internalType":"uint256"}],"stateMutability":"pure"},{"type":"function","name":"azimuth","inputs":[{"name":"H","type":"int256","internalType":"int256"},{"name":"phi","type":"uint256","internalType":"uint256"},{"name":"dec","type":"int256","internalType":"int256"}],"outputs":[{"name":"","type":"int256","internalType":"int256"}],"stateMutability":"pure"},{"type":"function","name":"declination","inputs":[{"name":"l","type":"int256","internalType":"int256"},{"name":"b","type":"int256","internalType":"int256"}],"outputs":[{"name":"","type":"int256","internalType":"int256"}],"stateMutability":"pure"},{"type":"function","name":"eclipticLongitude","inputs":[{"name":"M","type":"uint256","internalType":"uint256"}],"outputs":[{"name":"","type":"int256","internalType":"int256"}],"stateMutability":"pure"},{"type":"function","name":"fromJulian","inputs":[{"name":"j","type":"uint256","internalType":"uint256"}],"outputs":[{"name":"","type":"uint256","internalType":"uint256"}],"stateMutability":"pure"},{"type":"function","name":"getMoonIllumination","inputs":[{"name":"timestamp","type":"uint256","internalType":"uint256"}],"outputs":[{"name":"","type":"int256","internalType":"int256"},{"name":"","type":"int256","internalType":"int256"},{"name":"","type":"int256","internalType":"int256"}],"stateMutability":"pure"},{"type":"function","name":"getMoonPosition","inputs":[{"name":"lat","type":"int256","internalType":"int256"},{"name":"lng","type":"int256","internalType":"int256"},{"name":"timestamp","type":"uint256","internalType":"uint256"}],"outputs":[{"name":"","type":"int256","internalType":"int256"},{"name":"","type":"int256","internalType":"int256"},{"name":"","type":"int256","internalType":"int256"}],"stateMutability":"pure"},{"type":"function","name":"getPosition","inputs":[{"name":"lat","type":"int256","internalType":"int256"},{"name":"lng","type":"int256","internalType":"int256"},{"name":"timestamp","type":"uint256","internalType":"uint256"}],"outputs":[{"name":"","type":"int256","internalType":"int256"},{"name":"","type":"int256","internalType":"int256"}],"stateMutability":"pure"},{"type":"function","name":"getSunRiseSet","inputs":[{"name":"date","type":"uint256","internalType":"uint256"},{"name":"lat","type":"int256","internalType":"int256"},{"name":"lng","type":"int256","internalType":"int256"}],"outputs":[{"name":"","type":"uint256","internalType":"uint256"},{"name":"","type":"uint256","internalType":"uint256"}],"stateMutability":"view"},{"type":"function","name":"hourAngle","inputs":[{"name":"h","type":"uint256","internalType":"uint256"},{"name":"phi","type":"int256","internalType":"int256"},{"name":"d","type":"int256","internalType":"int256"}],"outputs":[{"name":"","type":"uint256","internalType":"uint256"}],"stateMutability":"view"},{"type":"function","name":"julianCycle","inputs":[{"name":"d","type":"uint256","internalType":"uint256"},{"name":"lw","type":"int256","internalType":"int256"}],"outputs":[{"name":"","type":"int256","internalType":"int256"}],"stateMutability":"pure"},{"type":"function","name":"moonCoords","inputs":[{"name":"d","type":"uint256","internalType":"uint256"}],"outputs":[{"name":"","type":"int256","internalType":"int256"},{"name":"","type":"int256","internalType":"int256"},{"name":"","type":"uint256","internalType":"uint256"}],"stateMutability":"pure"},{"type":"function","name":"p_atan2","inputs":[{"name":"y","type":"int256","internalType":"int256"},{"name":"x","type":"int256","internalType":"int256"}],"outputs":[{"name":"T","type":"int256","internalType":"int256"}],"stateMutability":"pure"},{"type":"function","name":"rightAscension","inputs":[{"name":"l","type":"int256","internalType":"int256"},{"name":"b","type":"int256","internalType":"int256"}],"outputs":[{"name":"","type":"int256","internalType":"int256"}],"stateMutability":"pure"},{"type":"function","name":"sideRealTime","inputs":[{"name":"d","type":"uint256","internalType":"uint256"},{"name":"lw","type":"int256","internalType":"int256"}],"outputs":[{"name":"","type":"int256","internalType":"int256"}],"stateMutability":"pure"},{"type":"function","name":"solarMeanAnomaly","inputs":[{"name":"d","type":"uint256","internalType":"uint256"}],"outputs":[{"name":"","type":"uint256","internalType":"uint256"}],"stateMutability":"pure"},{"type":"function","name":"solarTransitJ","inputs":[{"name":"ds","type":"uint256","internalType":"uint256"},{"name":"M","type":"uint256","internalType":"uint256"},{"name":"L","type":"uint256","internalType":"uint256"}],"outputs":[{"name":"","type":"uint256","internalType":"uint256"}],"stateMutability":"pure"},{"type":"function","name":"sunCoords","inputs":[{"name":"d","type":"uint256","internalType":"uint256"}],"outputs":[{"name":"","type":"int256","internalType":"int256"},{"name":"","type":"int256","internalType":"int256"}],"stateMutability":"pure"},{"type":"function","name":"tan","inputs":[{"name":"x","type":"int256","internalType":"int256"}],"outputs":[{"name":"","type":"int256","internalType":"int256"}],"stateMutability":"pure"},{"type":"function","name":"tan","inputs":[{"name":"x","type":"uint256","internalType":"uint256"}],"outputs":[{"name":"","type":"int256","internalType":"int256"}],"stateMutability":"pure"},{"type":"function","name":"toDays","inputs":[{"name":"timestamp","type":"uint256","internalType":"uint256"}],"outputs":[{"name":"","type":"uint256","internalType":"uint256"}],"stateMutability":"pure"},{"type":"error","name":"PRBMath_MulDiv18_Overflow","inputs":[{"name":"x","type":"uint256","internalType":"uint256"},{"name":"y","type":"uint256","internalType":"uint256"}]},{"type":"error","name":"PRBMath_MulDiv_Overflow","inputs":[{"name":"x","type":"uint256","internalType":"uint256"},{"name":"y","type":"uint256","internalType":"uint256"},{"name":"denominator","type":"uint256","internalType":"uint256"}]},{"type":"error","name":"PRBMath_SD59x18_Div_InputTooSmall","inputs":[]},{"type":"error","name":"PRBMath_SD59x18_Div_Overflow","inputs":[{"name":"x","type":"int256","internalType":"SD59x18"},{"name":"y","type":"int256","internalType":"SD59x18"}]},{"type":"error","name":"PRBMath_SD59x18_Mul_InputTooSmall","inputs":[]},{"type":"error","name":"PRBMath_SD59x18_Mul_Overflow","inputs":[{"name":"x","type":"int256","internalType":"SD59x18"},{"name":"y","type":"int256","internalType":"SD59x18"}]},{"type":"error","name":"PRBMath_SD59x18_Sqrt_NegativeInput","inputs":[{"name":"x","type":"int256","internalType":"SD59x18"}]},{"type":"error","name":"PRBMath_SD59x18_Sqrt_Overflow","inputs":[{"name":"x","type":"int256","internalType":"SD59x18"}]}],"bytecode":{"object":"0x60808060405234601957612420908161001f823930815050f35b600080fdfe6080604052600436101561001257600080fd5b60003560e01c8063036886fa146101775780630cd6f239146101725780631873689c1461016d5780631c9cafd7146101685780632526c04d146101635780634332cd4b1461015e5780635d1a218d1461015957806377127512146101545780637e3927531461014f578063835a0d561461014a578063851f09c6146101455780639d75332b14610140578063b012805e1461013b578063b03d1f6414610136578063b4ce66db14610131578063cfcfa8601461012c578063d75ec3fc14610127578063eb9796f214610122578063edfae3b41461011d578063f1b99d9f14610118578063f55d5b7c146101135763fc50e1e01461010e57600080fd5b610a16565b610817565b610803565b6106a2565b6105b4565b61059b565b61057f565b610563565b6103bd565b6103a1565b610388565b610301565b6102e2565b6102c6565b6102aa565b610291565b610265565b61021e565b6101ea565b6101d6565b6101a3565b606036600319011261019e576020610196604435602435600435610de6565b604051908152f35b600080fd5b602036600319011261019e576020610196600435610e41565b606090600319011261019e57600435906024359060443590565b60206101966101e4366101bc565b91610f01565b602036600319011261019e57602061019660043561021861021261020d83611710565b610bec565b9161173b565b90610d92565b602036600319011261019e5761023d610238600435611354565b6110a9565b61024f610249826111a7565b916113a1565b60408051928352602083019190915290f35b0390f35b602036600319011261019e57606061027e600435610f81565b9060405192835260208301526040820152f35b602036600319011261019e5760206101966004356110a9565b604036600319011261019e57602061019660243560043561114e565b604036600319011261019e57602061019660243560043561122a565b606036600319011261019e57602061019660443560243560043561125f565b602061019661038361037e61037261037961032861031e366101bc565b9491929092611d07565b61036c61033484611710565b9161035061034a61034489611710565b9661173b565b9761173b565b92610365670de0b6b3a7640000968792610d2f565b0590610ee8565b94610d2f565b0591610caf565b610d92565b611da3565b610ec5565b602036600319011261019e576020610196600435611354565b604036600319011261019e576020610196602435600435611416565b6103c6366101bc565b6103d290929192610c09565b670de0b6b3a764000090056103e690610c25565b916103f090610c09565b670de0b6b3a76400009005918061040683610e41565b90610410916115e1565b9261041b8483610db2565b9261042584611354565b80948487610432846110a9565b928361043d816113a1565b996104479261125f565b9761045290876112ea565b9161045c92610de6565b916104669261125f565b936104718186610e06565b61047a91610e06565b610483906116d0565b9361048d906116d0565b94818511936104f091851561054a576104a590610e87565b905b6104eb6104b48383610db2565b926104be84611354565b926104e66104cb856110a9565b956104e087876104da826113a1565b9361125f565b996112ea565b610de6565b61125f565b921561051457505061024f9192506116d0565b604080519182526020820192909252f35b8492919210610525575b5050610503565b6105439250906105388161053e93610e06565b90610e06565b6116d0565b388061051e565b90838810156104a7579061055d90610a45565b906104a7565b604036600319011261019e576020610196602435600435611518565b604036600319011261019e5760206101966024356004356115e1565b602036600319011261019e576020610196600435611656565b6105e76105e16105db6105c6366101bc565b94919390670de0b6b3a7640000938491610c09565b05610c25565b92610c09565b05916757325bbf446493ac926000848201948512911290801582169115161761069d5761061661064491610e41565b9161063f61062661023885611354565b91610639610633846111a7565b936113a1565b9461114e565b610ee8565b9161066961065b610656848487610f01565b610c3c565b672b992ddfa23249d6900590565b926809c2007651b2500000936000858201958612911290801582169115161761069d5761024f9261065b9261065692611679565b610a2f565b6106d56106e361076e61065b61065661070e6106f96106f36106ee6106d56106e86106cc366101bc565b9b919c90610c09565b670de0b6b3a7640000900590565b610c25565b99610c09565b610b64565b95610e41565b61063f61070582610f81565b5098909261114e565b9461071a818688611679565b9461076861075a6106d561073f61073085611656565b6107398761173b565b90610d2f565b61075461074b87611710565b6107398d61173b565b90610ee8565b61076389611710565b611518565b96610f01565b6809c2007651b2500000906000828201928312911290801582169115161761069d5768138400eca364a00000900790600082126107de575b6107c161065b6107bb61065b61026194610c3c565b94610c3c565b604051938493846040919493926060820195825260208201520152565b906107c161065b6107bb61065b6107f761026195610a69565b959450505050506107a6565b6020610196610811366101bc565b91611679565b602036600319011261019e5761082e600435610e41565b61083781610f62565b909161084290610f81565b61084e84939294611710565b61085785611710565b61086091610d2f565b670de0b6b3a764000090056108748461173b565b61087d8661173b565b61088691610d2f565b6108908488610ee8565b6108999061173b565b6108a291610d2f565b6ec097ce7bc90715b34b9f100000000090056108bd91610bd0565b6108c690611da3565b6108cf90610ec5565b906108d982611710565b6108e290610c5a565b670de0b6b3a76400009005916108f79061173b565b61090090610c5a565b670de0b6b3a7640000900561091491610ee8565b61091d91611518565b936109278361173b565b6109318383610ee8565b61093a90611710565b61094391610d2f565b670de0b6b3a764000090059361095884611710565b6109618261173b565b61096a91610d2f565b670de0b6b3a764000090059361097f9061173b565b9061098990611710565b61099291610d2f565b9161099c91610ee8565b6109a59061173b565b6109ae91610d2f565b6ec097ce7bc90715b34b9f100000000090056109c991610ee8565b6109d291611518565b6109db90610c3c565b672b992ddfa23249d69005906109f09061173b565b6109f990610a8e565b600290056040805191825260006020830152810191909152606090f35b602036600319011261019e5760206101966004356116d0565b634e487b7160e01b600052601160045260246000fd5b90670de0b6b3a7640000916000838201938412911290801582169115161761069d57565b9068138400eca364a00000916000838201938412911290801582169115161761069d57565b9081670de0b6b3a76400000191821260011661069d57565b906305f5e100916000838201938412911290801582169115161761069d57565b90670ae64b77e88c9285916000838201938412911290801582169115161761069d57565b9081670107d3fc6daa50000191821260011661069d57565b90816702f194ec47bebfff19019182121560011661069d57565b90816715cc59858279c0000191821260011661069d57565b908167010a741a462780000191821260011661069d57565b90816702501e734690aaaa0191821260011661069d57565b906757325bbf446493ac916000838201938412911290801582169115161761069d57565b906720b2e267b9a5b78f916000838201938412911290801582169115161761069d57565b90674487f5bed35cbebf916000838201938412911290801582169115161761069d57565b9190916000838201938412911290801582169115161761069d57565b90670de0b6b3a76400009182810292818405149015171561069d57565b90663e01ad54cfec809182810292818405149015171561069d57565b908160000391808305600019149015171561069d57565b906809c2007651b25000009182810292818405149015171561069d57565b906a7bbe9bd4793284bec00000918083029283050361069d57565b906151a9918083029283050361069d57565b908160030291600383050361069d57565b90663e01ad54cfec80918083029283050361069d57565b90670de0b6b3a7640000918083029283050361069d57565b906702b965cf5968c000918083029283050361069d57565b90670d9fb2f2e0004000918083029283050361069d57565b906e1523c5620c6c2b78929bf795400000918083029283050361069d57565b906804da11980ae4f96400918083029283050361069d57565b818102929160008212600160ff1b82141661069d57818405149015171561069d57565b90663e01ad54cfec80918083029283040361069d57565b9062c9dd26918083029283040361069d57565b634e487b7160e01b600052601260045260246000fd5b8115610dad57600160ff1b811460001983141661069d570590565b610d7c565b610dc46757325bbf446493ac91610bec565b0590816603328b944c40000191821260011661069d57610de391610bd0565b90565b61020d6757325bbf446493ac92610dc492610bd0565b8115610dad570490565b9190820391821161069d57565b90680750fce56f750b800091820180921161069d57565b9068050e68b5d2e23c000091820180921161069d57565b6201518090046706f05b59d3b1ffff1981019080821161069d576a0204d083738f3c8afe0000810180921161069d5769025201dc22ad46c5ffff190190811161069d5790565b90670de0b6b3a763ffff19820191821360011661069d57565b90695186f22f0d47760400006000838203931281841281169184139015161761069d57565b906715cc96efd11924eb6000838203931281841281169184139015161761069d57565b8181039291600013801582851316918412161761069d57565b90610f5b670de0b6b3a764000091610754610de395610f55610f2561034a88611710565b9361036c610f456715cc96efd11924eb610f3e84611d07565b9301611d07565b9361021861021261020d83611710565b92610d2f565b0590611518565b610238610f6e91611354565b90610de3610f7b836111a7565b926113a1565b9062c90e4c90828202918204830361069d57620f42409182680bd5be3d4ff02e00009104810180911161069d57610fc0670de0b6b3a764000091610d52565b049162c75b21848102908104850361069d5704610fdc90610e13565b610fe590610d52565b670de0b6b3a7640000900492610ffa90610d69565b620f4240900461100990610e2a565b61101290610d52565b670de0b6b3a764000090049161102784611d07565b61103090610cf7565b6ec097ce7bc90715b34b9f1000000000900561104b91610bd0565b9161105590611d07565b61105e90610d16565b683635c9adc5dea000009005926715cc96efd11924eb0161107e90611d07565b61108790610c75565b61109090610ea0565b9161109b848261122a565b936110a591611416565b9190565b6110b281611d07565b614acc908082029182050361069d576001600160ff1b038216820361069d576110dd8260011b611d07565b918260011b92600284050361069d57806003029260038404820361069d576106d561113e61114392611139611149966127106064611130611128611123610de39d611d07565b610c87565b612710900590565b94059105610bd0565b610bd0565b610c98565b90610bd0565b610bac565b9063d72a08eb918083029283040361069d5762989680680f300043a6117000009204820180921161069d57663e01ad54cfec80918083029283040361069d57670de0b6b3a7640000916107546111a392610bec565b0590565b610de3906112246111c26111ba83611710565b610739611c96565b670de0b6b3a76400009061121d9061075461121563ffffffff637fffffff866111fe82828560086111f1611788565b015160201c160205610bec565b9261040461120a611788565b015116020590610d92565b610739611cce565b059161173b565b90611518565b611224670de0b6b3a764000061121d610de39461075461121561124f6111ba88611710565b9261021861021261020d83611710565b9190826a020722854fb1e9d1c400000192831260011661069d5761128290611d07565b916612d452694f4000928084029384050361069d576112ad90670de0b6b3a764000080940590610bd0565b906001600160ff1b038116810361069d576112ca9060011b611d07565b916618838370f34000928084029384050361069d57610de3920590610ee8565b61037e610de39261037961038393610372670de0b6b3a76400009161036c637fffffff8463ffffffff600861131d611788565b015160201c1602058461036561133285611710565b9461134e6113486113428c611710565b9261173b565b9a61173b565b95610d2f565b6305dfe81c908082029182040361069d576305f5e100681361b6862dfd1cc0009104810180911161069d57663e01ad54cfec80908082029182040361069d57670de0b6b3a7640000900490565b611409611410610de392637fffffff90670de0b6b3a764000093849161073961140363ffffffff95856113ea82828a60086113da611788565b015160201c160205610739611c96565b976104046113f6611788565b0151160205610739611cce565b91611710565b0590610bd0565b05611da3565b611410610de3926107399261140961143c6112156114366111ba86611710565b9461173b565b670de0b6b3a7640000958693611710565b600160ff1b811461069d5760000390565b80156115125760008113806001146114fa57156114e3575b808002906001805b8082116114b4575050600081136001600160ff1b0383900482111661069d5760008112600160ff1b83900582121661069d570290565b90926001600160ff1b03819004811161069d578184166114da575b800292811c9061147e565b809202916114cf565b6001600160ff1b0381900581121561147657610a2f565b506001600160ff1b0381900481111561147657610a2f565b50600090565b60008112919061152c90836115d357610aa6565b600082126115a757611555826102188361154f61020d6115929661159798610ee8565b92610bd0565b6107546106d561158c61156f61156a8561145e565b610cc7565b760a70c3c40a64e6c51999090b65f67d9240000000000000900590565b92610cdf565b610ac6565b905b15610de357610de39061144d565b61155581610218846115c261020d6115c8966115cd98610bd0565b92610ee8565b610b88565b90611599565b6115dc9061144d565b610aa6565b6603328b944c3fff19810190811360011661069d576757325bbf446493ac61036561160b93610caf565b670de0b6b3a7640000906706f05b59d3b20000828206116116315790610de39105610bec565b8161163c9105610bec565b6000828201928312911290801582169115161761069d5790565b610de3906102186715cc96efd11924eb61167261020d84611d07565b9201611d07565b906ec097ce7bc90715b34b9f100000000061140961037e93610739610212610de3976107396102126715cc96efd11924eb670de0b6b3a76400006116c86116bf8c611d07565b61073987611710565b059901611d07565b6706f05b59d3b2000081019081811161069d576a0204d083738f3c8afdffff190190811161069d57620151809081810291818304149015171561069d5790565b60008112156117325761172d611728610de39261144d565b611d07565b61144d565b610de390611d07565b600081121561175f576715cc96efd11924eb611759610de39261144d565b01611d07565b6715cc96efd11924eb610de39101611d07565b634e487b7160e01b600052604160045260246000fd5b60405190610440820182811067ffffffffffffffff821117611c9157604090815261040483527ac90f8801921d20025b26d703242abf03ed26e604b6195d057f003560208401527f0647d97c0710a34507d95b9e08a2009a096a90490a3308bc0afb68050bc3ac35908301527f0c8bd35e0d53db920e1bc2e40ee387660fab272b1072a0481139f0cf120116d560608301527f12c8106e138edbb1145576b1151bdf8515e2144416a81305176dd9de183366e860808301527f18f8b83c19bdcbf31a82a0251b4732ef1c0b826a1ccf8cb31d934fe51e56ca1e60a08301527f1f19f97b1fdcdc1b209f701c2161b39f2223a4c522e541af23a6887e2467775760c08301527f25280c5d25e845b626a8218527679df42826b92828e5714a29a3c4852a61b10160e08301527f2b1f34eb2bdc4e6f2c98fbba2d553afb2e110a622ecc681e2f8752623041c7606101008301527f30fbc54d31b54a5d326e54c73326e2c233def2873496824f354d905636041ad96101208301527f36ba2013376f9e46382493b038d8fe93398cdd323a402dd13af2eeb73ba51e296101408301527f3c56ba703d07c1d53db832a53e680b2c3f1749b73fc5ec974073f21d4121589a6101608301527f41ce1e64427a41d04325c13543d09aec447acd50452456bc45cd358f467568276101808301527f471cece647c3c22e4869e664490f57ee49b415334a581c9d4afb6c974b9e038f6101a08301527f4c3fdff34ce100344d8162c34e2106174ebfe8a44f5e08e24ffb654c5097fc5e6101c08301527f5133cc9451ced46e5269126e53028517539b2aef5433027d54ca0a4a556040e26101e08301527f55f5a4d2568a34a9571deef957b0d2555842dd5458d40e8c5964649759f3de126102008301527f5a8279995b1035ce5b9d11535c290acc5cb420df5d3e52365dc79d7b5e50015d6102208301527f5ed77c895f5e0db25fe3b38d60686cce60ec382f616f146b61f1003e6271fa686102408301527f62f201ac637114cc63ef328f646c59bf64e889256563bf9165ddfbd266573cbb6102608301527f66cf811f6746c7d767bd0fbc683257aa68a69e806919e31f698c246b69fd614a6102808301527f6a6d98a36adcc9646b4af2786bb812d06c24295f6c8f351b6cf934fb6d6227f96102a08301527f6dca0d146e30e3496e96a99c6efb5f116f5f02b16fc1938470231099708378fe6102c08301527f70e2cbc571410804719e2cd171fa394872552c8472af05a67307c3cf735f66256102e08301527f73b5ebd0740b53fa745f9dd074b2c8837504d3447555bd4b75a585ce75f42c0a6103008301527f7641af3c768e0ea576d9498877235f2c776c4eda77b417df77fab988784033286103208301527f7884841378c7aba17909a92c794a7c11798a23b079c89f6d7a05eeac7a4210d86103408301527f7a7d055a7ab6cba37aef63237b26cb4e7b5d039d7b920b887bc5e28f7bf8882f6103608301527f7c29fbed7c5a3d4f7c894bdd7cb727237ce3ceb17d0f42177d3980eb7d628ac56103808301527f7d8a5f3f7db0fdf77dd6668e7dfa98a77e1d93e97e3f57fe7e5fe4927e7f39566103a08301527f7e9d55fb7eba3a387ed5e5c57ef0585f7f0991c37f2191b37f3857f57f4de4506103c08301527f7f62368e7f754e7f7f872bf27f97cebc7fa736b37fb563b27fc255957fce0c3d6103e08301527f7fd8878d7fe1c76a7fe9cbbf7ff094777ff621817ffa72d07ffd88597fff6215610400830152637fffffff60e01b610420830152565b611772565b637fffffff670de0b6b3a76400006102fc611caf611788565b015161ac4463ffffffff8083169260201c1682030260101c9003020590565b637fffffff670de0b6b3a7640000610110611ce7611788565b015161ac4463ffffffff91828160201c1692839116030260101c01020590565b670de0b6b3a7640000637fffffff916757325bbf446493ac809106601e1b0460ff8160141c166310000000821615908115611d9b575b6002611d47611788565b910160021b015163ffffffff808260201c16911661ffff8460041c168282030260101c92600014611d935750015b6320000000819216611d88575b50020590565b905060000338611d82565b905003611d75565b60ff03611d3d565b670de0b6b3a763ffff199081811215611e595750805b81121580611e47575b15611e025760008112908115611dfd57611ddb9061144d565b6706a50a102e750000811215611df45761159790611f38565b6115cd90611e79565b611ddb565b60405162461bcd60e51b815260206004820152601b60248201527f496e7665727365547269676f6e6f6d657472793a20444f4d41494e00000000006044820152606490fd5b50670de0b6b3a7640000811315611dc2565b90670de0b6b3a7640000808313611e71575b50611db9565b915038611e6b565b670de0b6b3a7640000818103600083128282128116908383139015161761069d5760008112611f20577809392ee8e921d5d073aff322e62439fcf32d7f344649470f908113611f085791611efd611f03611eda61038394610de3960261211f565b92611efd611ef8611ef2611eed84612003565b610aea565b83612090565b610b02565b90612090565b610b1c565b6024906040519063063103bf60e01b82526004820152fd5b6024906040519063b9b0f49b60e01b82526004820152fd5b90611f438280612090565b91600160ff1b83148015611ffb575b611fe9576000831215611fe057611f6b83600003612257565b6001600160ff1b038111611fba57611fad610de39394611efd611fa8611ef2611efd95600019669e9a7129c22db6861813600014611fb257610b34565b610b4c565b610a8e565b600003610b34565b60405163120b5b4360e01b815260048101859052669e9a7129c22db66024820152604490fd5b611f6b83612257565b60405163a6070c2560e01b8152600490fd5b506000611f52565b600160ff1b81148015612088575b611fe957600081121561207f5761202a816000036122f4565b906001600160ff1b0382116120575760001966428a32f96447ff1990911813156120515790565b60000390565b60405163120b5b4360e01b8152600481019190915266428a32f96447ff196024820152604490fd5b61202a816122f4565b506000612011565b600160ff1b818114908115612115575b50611fe957600081121561210c576120c9816000035b6000841215612105578360000390612362565b916001600160ff1b0383116120e657600019911813156120515790565b60405163120b5b4360e01b815260048101929092526024820152604490fd5b8390612362565b6120c9816120b6565b90508214386120a0565b90811561225157600182600160801b81101561223f575b6121d86121ce6121c46121ba6121b06121a66121e997600488600160401b6121e29a1015612232575b640100000000811015612225575b62010000811015612218575b61010081101561220c575b6010811015612200575b10156121f8575b61219f818c610dfc565b0160011c90565b61219f818b610dfc565b61219f818a610dfc565b61219f8189610dfc565b61219f8188610dfc565b61219f8187610dfc565b61219f8186610dfc565b8093610dfc565b808310156121f45750565b9150565b60011b612195565b811c9160021b9161218e565b60081c91811b91612184565b60101c9160081b91612179565b60201c9160101b9161216d565b60401c9160201b9161215f565b50600160401b9050608083901c612136565b60009150565b669e9a7129c22db69190600019838209838202918280831092039180830392146122e357670de0b6b3a764000090818310156122c557947faccb18165bd6fe31ae1cf318dc5b51eee0e1ba569b88cd74c1773b91fac1066994950990828211900360ee1b910360121c170290565b6044908660405191635173648d60e01b835260048301526024820152fd5b5050670de0b6b3a764000090049150565b66428a32f96448009190600019838209838202918280831092039180830392146122e357670de0b6b3a764000090818310156122c557947faccb18165bd6fe31ae1cf318dc5b51eee0e1ba569b88cd74c1773b91fac1066994950990828211900360ee1b910360121c170290565b909190600019838209838202918280831092039180830392146122e357670de0b6b3a764000090818310156123c957947faccb18165bd6fe31ae1cf318dc5b51eee0e1ba569b88cd74c1773b91fac1066994950990828211900360ee1b910360121c170290565b604051635173648d60e01b8152600481019190915260248101869052604490fdfea26469706673582212203f4c7108e5d6ebd98efe4d6c0c884c9e32f8ecff9cf582e9c1c7d24c87064f1764736f6c63430008190033","linkReferences":{}},"methodIdentifiers":{"altitude(int256,uint256,int256)":"f1b99d9f","approxTransit(uint256,int256,uint256)":"036886fa","azimuth(int256,uint256,int256)":"1873689c","declination(int256,int256)":"b012805e","eclipticLongitude(uint256)":"5d1a218d","fromJulian(uint256)":"fc50e1e0","getMoonIllumination(uint256)":"f55d5b7c","getMoonPosition(int256,int256,uint256)":"edfae3b4","getPosition(int256,int256,uint256)":"eb9796f2","getSunRiseSet(uint256,int256,int256)":"b03d1f64","hourAngle(uint256,int256,int256)":"851f09c6","julianCycle(uint256,int256)":"cfcfa860","moonCoords(uint256)":"4332cd4b","p_atan2(int256,int256)":"b4ce66db","rightAscension(int256,int256)":"7e392753","sideRealTime(uint256,int256)":"77127512","solarMeanAnomaly(uint256)":"9d75332b","solarTransitJ(uint256,uint256,uint256)":"835a0d56","sunCoords(uint256)":"2526c04d","tan(int256)":"1c9cafd7","tan(uint256)":"d75ec3fc","toDays(uint256)":"0cd6f239"},"id":8}