{"abi":[{"type":"function","name":"getGenericSVG","inputs":[{"name":"motifType","type":"uint8","internalType":"enum MotifType"}],"outputs":[{"name":"","type":"bytes","internalType":"bytes"}],"stateMutability":"pure"},{"type":"function","name":"getHorizon","inputs":[{"name":"motifType","type":"uint8","internalType":"enum MotifType"}],"outputs":[{"name":"","type":"uint256","internalType":"uint256"}],"stateMutability":"pure"},{"type":"function","name":"getScene","inputs":[{"name":"motifType","type":"uint8","internalType":"enum MotifType"}],"outputs":[{"name":"","type":"bytes","internalType":"bytes"}],"stateMutability":"pure"}],"bytecode":{"object":"0x608080604052346015576128aa908161001b8239f35b600080fdfe608060405260048036101561001357600080fd5b6000803560e01c8063c482a49d146100a1578063cf4e224b146100795763fedd325e1461003f57600080fd5b3461007657602036600319011261007657813591821015610076576100726100668361031e565b604051918291826100d0565b0390f35b80fd5b5034610076576020366003190112610076578135918210156100765761007261006683610168565b5034610076576020366003190112610076578135918210156100765760206100c883610119565b604051908152f35b6020808252825181830181905290939260005b82811061010557505060409293506000838284010152601f8019910116010190565b8181018601518482016040015285016100e3565b6004811015610152576001811461014b57600281146101445760031461013e57600090565b61016790565b506101db90565b5061013690565b634e487b7160e01b600052602160045260246000fd5b9060609160048110156101525760018103610214575090506040516080810181811067ffffffffffffffff8211176101fe57604052604581527f026a00000000000000030035018803cd001e0212250096003501b003cd001e0260208201527f122500c8003501e003cd003c0112015e670000000000000001009c033000850060408201526411008680af60d91b606082015290565b634e487b7160e01b600052604160045260246000fd5b6002810361027d575090506040516060810181811067ffffffffffffffff8211176101fe57604052602b81527f026d000000000000000102dd03ad01360069010001f47362000000000000010060208201526a06802e80cbc0010047404b60aa1b604082015290565b60031461028657565b90506040516080810181811067ffffffffffffffff8211176101fe57604052605d81527f023100000000000000010352040e003c0000010002bc3200000000000000050060208201527f77018d0026002e020b1e00c803c101cc000a0014020b1e0064018701e601100060408201527f28011a00c802b401ff009d0028011a00c803ea026b003f0028011a012c000000606082015290565b906060916004811015610152576001810361075a57509050604051610380810181811067ffffffffffffffff8211176101fe5760405261034581527f1f3c706174682066696c6c3d222477632220643d224d3020333130683130383060208201527f761437373048307a222f3e3c7573652077696474683d2240190922206865696760408201527f68743d222022200c0a7265663d22237761746572402d0c67207472616e73666f60608201527f726d3d22600a006c201a002860590e29223e2477733c2f673e246a246269e00460808201527f820062e0008202383134808202323637a0820070e001ab0623316131323035c060a08201527faf02383135802c013332402b0b206f7061636974793d222e3120231d7374796c60c08201527f653d226d69782d626c656e642d6d6f64653a6d756c7469706c7920ae0424672460e08201527f746f20b3006920fd036c656722c11002736322e00575053934303065338075116101008201527f3432312036343568343976313931682d3439612760a420471e6d3437332031326101208201527f31372d33302d3335382d3134302032392d31383220323331e0072b1f342038396101408201527f392d34362d3132332d32302d312d3834203131372033342034372036033920316101608201527f33e006330d3633203832372d372d3139382d32202d01322d20260733322035356101808201527f203135e0022d81de04233533323641b8409c0b333730203731322039342d33206101a08201527fa6072035372d38372034406102247368619b01626561f3a1d9006c411661c8816101c08201527fd30a6d6174726978282d312030200102312031222d002021daa229a03507666c6101e08201527f5f24666c6f6be00b3a003220372111072039303020383038603a8182056e66746102008201527f2d70692209e0096f002e20b30630202d2e303220400a02393035203b2076a1776102208201527fa0e90266666660e6034d2d353020020268313122ca043133383048200d60e3206102408201527f620a3c7465787420783d22353422c0222b013132400808666f6e742d73697a656102608201527f2010400f4025062d616e63686f7220f50d6964646c65223e474d203a293c2f406102808201527f1b003e412c043c64656673a083424404746f77656c8082003840a223450532376102a08201527f376c2d3320b7023235372090e2030140310073205f0174736032026d343721516102c08201527f0b3030352d3136382d34312d3120352006003920ef04376833383340c14267236102e08201527f6b006e603c047a69677a6122b6a39f003620cfc39d400b2292402a06556e69746103008201527f733d2223c8097253706163654f6e557320cb4049e10239218a203e4223419e006103208201527f3321a102304c36200a00762007200d22c44012015a222082002fa058073e3c2f610340820152643232b3399f60d91b61036082015290565b600281036118f757509050604051610e80810181811067ffffffffffffffff8211176101fe57604052610e4f81527f1f3c7061747465726e2069643d2277696e646f7733222077696474683d22343060208201527f30072220686569676874a00c08783d222478632220792007007920070070803d60408201527f1c556e6974733d227573657253706163654f6e557365222076696577426f203360608201527f0730202d3230302034800302223e3c20290d20687265663d2223636974792d6c60808201527f40630573222f3e3c2fa052023e3c67203f04736962696c2020206e01776120a760a08201527f203a201f05682066696c6c4013208220b7004d205a0c3735683130383076383960c08201527f48307a4048006740242032209619726c282373696c6824746f6b29222074726160e08201527f6e73666f726d3d22600a006c205900284042093729223e2477733c2f672087206101008201527f03e0026a0623453642463741806e1f3132373820353532482d323130762d36316101208201527f6c3332332d33332032353420323120163136332d3133203135332037203132386101408201527f2d313120343637201a007a4114e002d4016f6340aae0036705464344413944806101608201527f6704302035323680d60235343480d70724736b796c246269e00adf042d6269726101808201527f6440c201736260be006761d402696e6e2137410c21310623636339393364c1466101a08201527f813b0238393280640231383880648091401d0938383820306831393276415d006101c08201527f48200e615c60b1401f0130202034a03d0032e0073c02313834403c08327639306101e08201527f30682d3132603ae107580039221500452273404d0e31303536203439364839316102008201527f305633352078013436603480ca056e66742d706921f361b681c1076d617472696102208201527f78282e216f0030200140070639313220333532410920316070e2026f037365616102408201527f74e00b41012d31203e20ce032031313920b600294198e00736217e036d2464696102608201527fe0031707666c5f24666c6f6be00b520032204f073020322035393520210240526102808201527f02246265813c82c1026e6f6e2327057374726f6b65219d003620fb013234c0106102a08201527e2dc386811c0e36302037383776313437683230322221a50364656673c11be36102c08201527f0346a05c0323464646c1e943de036669727320fa41680f34372d3136316836766102e08201527f36682d367a6d36213402386835400d03357a6d2d22b7400d0035601b003722be6103008201527f013336c01c024d3232200e2038801c033136372d6039200e4039003921efa01b6103208201527f054d38342d3432c037006d21da201ba062004d20440030404502364832201a236103408201527f320033e00129002d2038013537c046016d32e00253201b6044806d21100231316103608201527f35e00028e0037c8028c0890433392d3139e001eda04420fa2097a035200c82696103808201527fe102f2a12fe2096c8229223044d444d941d9e025390031250ae01a36607b649f6103a08201527f2130224ae01b6ae001330033e00232437683450073856d0522206d61736ba51d6103c08201527f016d2d44562331e2039c6537a6132536423720b4a3ec256ba3eee00259635a826103e08201527fd9e40a690933343520373934683231242b013068253c63dbe4004b02323731426104008201527fe1076831363876323148200e21fd0331372035254402392d3920fe02312035216104208201527f6e234be00438076d34393220383334257702203735456c225e02362d3741dd456104408201527f94200c8017012d3220224017433ce000760b35303720383531682d37367620936104608201527f0168378208e001d606632d7461626c65c11c410700362516033935314825330a6104808201527f3239683630366c38322d3884e06058a10401316120e90035813ba033037634376104a08201527f6c202a05203832682d34254d03206f706143bc033d222e312029037374796c246104c08201527f0a036d69782d20730f6e642d6d6f64653a6d756c7469706c7940b8e00298e7066104e08201527f0fe5044b01323423d4003022d70439356c2d3721420134392159046c33312d366105008201527f21c32013013236265e40120232362d20080139322008a011201b4012202502336105208201527f3120402e811207636972636c65206327d101313920ab006320b40438353822206105408201527f276402313636e100fa0543423834463140cba4d704424536354526d48010c4d76105608201527e3164c4e002540232363780540037a0540032200fa1490544454232463640ff6105808201527fe00230003325078085285560852006e00830e101300070e107300561393333656105a08201527f39619f086d313434203939322d20f20332387633284f01323820ff002d200c016105c08201527f2d33e20233a05f46b70065c6b7003127ed003022d3203220390048200fe201636105e08201527fa02f026666666067014d33255e0b3733384833306c313632203222a7e20304006106008201527f3340e3e20343e0043802393432c038231ee01e3726380233386828a3037632306106208201527f34203ee004376153e1012201636ce404f1e4014c2378e4061fe606bcc110e1056106408201527fe4a15c2752003923de0333353920215102372d322125013637e10824046161376106608201527f303322592363016d32218d0338203338203129de2186013948432f2569e1031d6106808201527f01653040016031004d262a08393834683334386c34206529a0003720ebe006306106a08201527fe1004e00322060013736e0032d0036e109b5c0d42090034d323639217424b8056106c08201527f36306c2d352063f8605e0063e3011701323320f0431701373027b6431722a1a26106e08201527f01a04b208fe1016e016c61c456c02425b400452033607021b826e001333421b86107008201527f0335354832806de003fd4052c93c003347c5003922ac013238202a006c20a5046107208201527f203631763221f80034e4099805424636364545e00066023937302026003320346107408201527f23ef0331482d34e0096ac3d44098013338225104336833303725a802394833246107608201527fc620d5e00398044639423233a31de0022d0033e0002ce103020172672904a0ff6107808201527faaffa04d406c493d013435238e0034263702303648200fe0016e4020003626206107a08201527f01343124ae03313676312061200f27d72578012d33220c063876313738682d206107c08201527fa3260d225028f60032402802363948202c6049e0018b01686f27ff015f33c07e6107e08201527fa0932232013563a193470104373236763322c0e10924036666653745084096e06108008201527e29eb0417c0520463646139648028003120df4b43464c243b26b62a826768a06108208201527f11013334e00712023235334012490dc0250033240fe00638003427282012e0036108408201527f25033630387a40702cb8e00039e05971421de107640034e107640339626534a36108608201527fc800352d30285e047634383968200b603fe2035de1033d4542023448352b172a6108808201527fb321e400362bbc02483639800f2208231523b200354b382020e00c102031e0166108a08201527f21e00843e0063240852266e07b860033226f410d2139e1040d200fe005fce00f6108c08201527f10e001dae00f21e1010da021e0063241eee104ae03666639642517431521ce026108e08201527f20375641dc0031218ea1dbe2071b0031e2071be30656023533302380e30b7f036109008201527f616337362e2040692c1d206140290038e30daae301d400342e7603353956332c6109208201527f3202307637293325d8026d2d3720d6601300318013235f012d3720fb6013e0036109408201527f27e006130331563539402ae0173e2f4de00a29638e0134344c22003145cb606a6109608201527f2cf0e00092801420934014c09380142094401460bc2094e00414204c003422006109808201527f60968018e010422098e00c2ce0029a00328042e0037020ee8014e01057c0c4e06109a08201527f4e9a4276e207490032e20749e202200131352b0b4c6e0033228f200c007a22326109c08201527f0330683433243bf10407c5b2e20484225b402902353337e20b86e2025b0033286109e08201527f350438316835396244821924dde00310200f27a3e00311e0082228cd409c6045610a008201527f4906044d31342036a032014831261f00322a8227c46020806620a30030e00577610a208201527f01313430918022014838266640654f78409a4044034d38352023032cd2273300610a408201527f376022405632c7e00013013239407b00352027206cc028200fe10c7c0035e107610a608201527f7ce502e2003220c02b0401313228a1003350d06041e40f350132322071003333610a808201527f6a2614003130ff003260bd335b0034227224ee003527d32711316a2dc3003320610aa08201527f100039201020233341003922cae00210032d313735e003114234e00475026163610ac08201527f62c7c100334d3601314840310033272f3175e0092ee402da00332e140036424a610ae08201527f013633e001a4003520a4232c0033201502387638e0009523608012e000a80231610b008201527f3137c013c026002d402600346039c026c0be404d801340c0e207f50036e10778610b208201527fe204ba2ab86516e51740202401203353d500563272200c606ae1042be202e62a610b408201527f6c60242c622310217800338065e0380e40dfe00574e901622d49228500362a57610b608201527f21f38bbce1070a0037e1070ae4020000345033003124d601334c22d12b012a24610b808201527fe0086ee0022f2b2703356834342af440e3e008290366656639a6e5238c205801610ba08201527f683430ea4ce9229b402d76925585213800612cb4a0d846ac0332342031216500610bc08201527f3228a62ce7013234602f0063ec015700332f094c5620248c5600344050e00220610be08201527e39293ae014200131342b8e40210132332aca4c99e007420131392fc2e01421610c008201527f01323420dfe014210133302ff7e0152100352d184021e010ca01343020e3e009610c208201527f216204412b013736e1032b31ae006d220700382402213c013034325726e62011610c408201527f23b0e0251031c180442a75e00544a0104172425f6089e60115e100f52daf0732610c608201527f3933683430367625294305022d3937e0010e403ee102b1013232c1b240ef2190610c808201527f5152a05535b902414530e0173000382127c030044244343844e01730003521e0610ca08201527fc030044143373643e01730426dc0300246454622de2de7e100025654036d6567610cc08201527f61e00123f802bc2c6925b200342db6232f0131376c79046d3230382d414d0131610ce08201527f372bdc00302662003121ab022d37302fad20142ee70034274f2339007a236b21610d008201527f74043939763436e404a6607202696469e00c72003528830434363468393a0600610d208201527f3332f82181206d023620322e1b00322b132e3c25a3295d0030398b27f8608401610d408201527f48372e4f036d2d363436ae20ad023934762380a80d0235313620390333763539610d608201527f24d340fa61f98083006ee0118300352e8ce0078324a720820038a08100338d94610d808201527f208001353630a422c2012d356482e0077f40b9e0027f218b3ad260813ad079f0610da08201527ffb00ad361c0025fb01ae800d33a9226433a6446c086665466c6f6f6420664005610dc08201527f042d636f6c6f2274d5a7032072657334643825401d40eb0d6665436f6d706f73610de08201527f69746520696ec018200a0c323d22536f75726365416c706821fc056f70657261610e008201527f74404c01696e4038002f80a5013e3c566060ab965e24ef2f5d0020bbf7567040610e208201527f2d40128030b671076d616b65426c61635baaa02b9ac3227ae01b2c6fc3007340610e408201526e168617b6b0b9b59f1e17b232b3399f60891b610e6082015290565b60031461190057565b9050604051610cc0810181811067ffffffffffffffff8211176101fe57604052610c9281527f1d3c67207669736962696c6974793d22246f63223e3c706174682066696c6c2060208201527f101a77632220643d224d3020333539683130383076383948307a222f3e203b2060408201527f241f7465723d2275726c282373696c6824746f6b2922207472616e73666f726d60608201527f3d22600a046c6174652820420b363029223e2477733c2f673e4003182462652460808201527f322473683c75736520687265663d222373756e636c205e02246269e00316076660a08201527f6c5f24666c6f6be0045c0b6d617472697828312e35203020014007053830372060c08201527f3932206720a0e002c8062341393333453980cc163334203936375630682d353360e08201527f7631303936683131313456201360d7e00f3620fd0d32203136357631324830766101008201527f2d3132e0142d033338362020312064013132206a202d046d33353120e0020f206101208201527fa2042466752431214861258130a0d3022e333220d101302040070633303820366101408201527f3337413b026e66744138e103190670616c65747465404d0670653c64656673416101608201527f9a006921b5c0190c3e3c636972636c652063783d2220ef0222206321ec0438346101808201527f35222021bc0236322241c821ed06234242384435442049e00330013738a02f006101a08201527f362008202f013131e0002f05394242323234e0072f0030a02f00332058e0042f6101c08201527f03676f6c64e0062c013934a02c013033e0062c0623453633333241402fe103906101e08201527fa0a2002020de0d6d34313020383230203620352d35200404362d352d364156616102008201527f2281030361727469e1050001323020f74100023635366073013633e0006440556102208201527f023130322245217101203121e90c306c2d31372037302d33312d374027e1024a6102408201527f02333437804901383880490032e00549043236372038203d403a0620343120316102608201527f383120460b20377a6d363920363520323720b8013234222620060036e008ba036102808201527f6669723120bae003fd04414137303320be20a7074d2d362d3131364822b701346102a08201527f48a03be0032aa19b602a0334372d384322202f002d600b005a40c943848124206102c08201527f6921ab23cd4204a038e0054de0037841200637353168323956233703682d32396102e08201527f6173607c4098003122e6013133606d40e2433400338431e001220338312032216103008201527f67209003203935202030200d057a6d3436203740d505302d36354c37203c00386103208201527f233400382021062d3134382d38332006204f0033e0056e0632383820343633206103408201527f4b416922090034400e027a6d3121580235344c401600342178218b02363137606103608201527f3ae001f8046274726565e009f904656c6c69702492432f22f4422c01353021216103808201527e72233f003922de0072233e003961ebe003290132312205802b2034e0092b606103a08201527ffd00668164e1034f003721000b30306836347632353848373560a3e00e2c006d6103c08201527f20ec003521310231392d21cb013830245c200300382496213d02332037200b216103e08201527f2401203620080032201520020034604ee202b501313720c940a60034424943a06104008201527f013331420ee0022201323422386022442ce00c2220e140200133372302e00c206104208201527f013237a10d013235413121300030e0066501333622c9604400322492202100346104408201527fe00721003920174020003220194020257c4043e101bf0070e10dbfe10e3c044d6104608201527f2d323231468526cc221b0d31562d3738683433763233336c2d20af012032a2206104808201527fe00f3f02323939603e0b37382032353756313434483424240331356c3222a6016104a08201527f3130825ee203130038a14801323620ca4212003164e8223f00356537e0002b206104c08201527f11013239210f402345714022245e24cbe00022227c20b08111013332215de0156104e08201527f2bc28d01343221ef402a20dd2008206823b5e00758003242b24084013335a0846105008201527f013133206a402d013932e0072c002d24e7a02c4197209701323020e7402c01316105208201527f316316e101a1026c2d70244ae702df05742d62757368e704c666fd006c4823226105408201527fdd0d373434297363616c6528342e313667c7e01f3d218800372185013030a0406105608201527f0331302e32e0074024ea26bf6071e7046f01312e876f002d40080239373144436105808201527fe00a3b610be003dd007420dde2032e03363439362712850825eb063431632d326105a08201527f2d39249e0134358006053320307a6d3924b005323532632d34214c00352254006105c08201527f36200700362007401d416fe002f384a42209e00213a2f8e009c7012d2e2041206105e08201527f01012d2e28e40438302035378143e003b3006420b3e0024b418fe105136056616106008201527f90249b02373433c14f012e38e10813e0133c231025bc0034c18e03342e3438e16106208201527f075228a2006de00f7b0131342369013535a07c02322e302901e10505056361636106408201527f747573e10b0620aa2104268320072a0e0120342047403ce10106056665646f726106608201527f61e501fb043430304533211861cc01643d27bd269b083536352d33302d332d446106808201527f3321c30233203628160131312a38042d33352d34620ee303a0003143c34347286106a08201527fbc2311231a0038437d437423576157827602726f7442f0012d32248925cf202e6106c08201527fe0069f0662617365636170e009a0e0036e00324055806e2273e01b6e44e4e0016106e08201527f6ec0ec014d31289e01363722ab274028ae01322d28a10832392d38347336392d6107008201527f290f0034200de1063f0872656e63685f686174e015a2013138210860a20031a46107208201527f2c296f611100322119e10e11003821680031eb02c4418f0231363122cd2938026107408201527f2d3320256c29ea00208809e101d3046265616e69e702cfe107d3014d3121c4026107608201527f36343820e6003841d748682431291d05337336342d3529ad239540e7c118006d6107808201527f2453203128a927672415003126002886225101373163a7e702350031220e60e96107a08201527e3525db66ae65bfe0019e2cdae10c2ee0006c00372acb23b301323220622bff6107c08201527f208f004c2380033638385ae0059326c500362ce7003820b2402d01203320c1006107e08201527f3428446026e0016f05676c61737365231fa874e1080f036d31393720dd20622a6108008201527f982a8c0320382d36204d00366047e0009500322aaa00362062003124ab0034286108208201527f6222b1220e00346024e0016c0763796c696e646572e0136d0032617d234000376108408201527f425f29fa002d200a012036ea053f016d32215d02353938416e0034228803362d6108608201527f393680ea6170e00171257c0261626c4cdec0aa034d37333926000932316833356108808201527f3676323748200f6034e000200038257e09313034306832337637392abb2a28406108a08201527f8be0051002392d3420eb232a0035604823a46045e0017a0065239c006ce4022c6108c08201527f024d343629970830376832367636333620578c87e0007702333031258e0032206108e08201527f4e043976323248200e017a6d2457013734e00311e104e40135372687003021de6109008201527f2469237c227940ae29e622bb22872093249649e30139382075017a6d229f03336109208201527f313468253428cf289640602c740037e00311e000608210026e6f6e232c0573746109408201527f726f6b652d7004464244313824a58010072d6d697465726c69200622da23baa06109608201527f160477696474688011239520d821c00033212702343876200320d98904e1012b6109808201527f22f52fd0a10b8078ea04fe0038220200352f270534763834682dea08ae22fd836109a08201527f5500364ea82a25200ea04525d801304568cae3028500362b98638500366972206109c08201527f07e0002f004327100046e0072f2314a02fa3b5e0182f29c964cf0035494ee0186109e08201527f8f00384b42402f00372975402fe0015fe00cbf210ec02f2098e0045fe00cbf00610a008201527f38486d805f21bb202f247be1131fe0285f00372086405f00366a722007e0165f610a208201527e362080602f2c56402f200ea08fe00dbfcad20136332068e0045fe00c2f0037610a408201527f4a73805f802fe00b5f427d637b9106016e74250442ad446e2b8132c902373676610a608201527f289e00482010e30115402c037368697226d1602c261b033732386827fc900423610a808201527f842e6223bf203f0239355621d9006c2d8701352d2004003723f3013632321422610aa08201527fc200376b02e0007e026c2d6de10001044541434346223f205e006d23ae301930610ac08201527f67276064940020300f0036269725d801362028fb287b04323520343423e225ee610ae08201527e2d32b50035259c253e013032504f249e28df0134304024003923ea20490032610b008201527f2891601828f4204823510138482066e005e1016c2d33d3a19105424636364545610b208201527f608f24c22044033036683220c601323224c22f90013632246832eb013330200f610b408201527f0136764006053134762d343323a801357620f100682906007625502007202640610b608201527f0f0232397660060336563237301c20162742203600392036402e0031249e2025610b808201527f20640036200702343676345730946015013138206a200e202440060132312089610ba08201527e372007003825cb201d20420035408801327660066049013776217220112097610bc08201527f21d40276313834a42036400702327632255e20ae60d303313068334026013168610be08201527f204d013368205321760068420530c8200b203820c900394030003125a7003720610c008201527f4300356025254201323524db0168332609013333342b04763332683520572006610c208201527f40b12046002d4f7f27b3272802316831202720424013e50070425a016c2de708610c408201527f1c4208314f2a00003525bf21e725b04050006c2a6321f73113e0044106636869610c608201527f6e6f697325b4a1bf24bc00302ab54046016d322c640035223f347427d3a00600610c808201527110139f0698991abd11179f1e17b232b3399f60711b610ca08201529056fea264697066735822122047252d70523d749060320ee9dee2219d80a2074593ebfa84d9328c9f9b1f51e664736f6c63430008190033","linkReferences":{}},"methodIdentifiers":{"getGenericSVG(uint8)":"fedd325e","getHorizon(uint8)":"c482a49d","getScene(uint8)":"cf4e224b"},"id":10}