{"abi":[{"type":"function","name":"getBeachSVG","inputs":[],"outputs":[{"name":"","type":"string","internalType":"string"}],"stateMutability":"pure"},{"type":"function","name":"getLandscapeSVG","inputs":[],"outputs":[{"name":"","type":"string","internalType":"string"}],"stateMutability":"pure"},{"type":"function","name":"getSkyscraperSVG","inputs":[],"outputs":[{"name":"","type":"string","internalType":"string"}],"stateMutability":"pure"}],"bytecode":{"object":"0x60808060405234601557612cdf908161001b8239f35b600080fdfe60806040818152600436101561001457600080fd5b600091823560e01c90816384f959ab1461152057508063e7e5a563146107735763f932c8301461004357600080fd5b3461076f578160031936011261076f578051906105c0820182811067ffffffffffffffff82111761075b576107579350815261059b82527f3c706174682066696c6c3d223c212d2d7761746572636f6c6f722d2d3e22206460208301527f3d224d302033313068313038307637373048307a222f3e3c7573652077696474818301527f683d223130383022206865696768743d223737302220687265663d222377617460608301527f6572222f3e246a3c706174682066696c6c3d223c212d2d62632d2d3e2220643d60808301527f224d302038313468313038307632363748307a222f3e3c706174682066696c6c60a08301527f3d22233161313230352220643d224d3020383135683130383076333248307a2260c08301527f206f7061636974793d222e313522207374796c653d226d69782d626c656e642d60e08301527f6d6f64653a6d756c7469706c79222f3e3c706174682066696c6c3d22233533386101008301527f3032362220643d224d38303520383730483237376c2d333032203235376831316101208301527f33317a222f3e3c706174682066696c6c3d22234646462220643d226d2d3139206101408301527f3839322d3238312036342d31323920313733203630322d3133377a222f3e3c676101608301527f2069643d226c6567222066696c6c3d223c212d2d73632d2d3e223e3c706174686101808301527f20643d226d34373320313231372d33302d3335382d3134302032392d313832206101a08301527f3233317a222f3e3c7061746820643d226d343734203839362d32302d3133312d6101c08301527f35302d312d3839203132342033362035302037332031347a6d2d31342d3137366101e08301527f2d352d36332d32342d33332d323720332d35312034332032312035307a222f3e6102008301527f3c706174682066696c6c3d22234245313632322220643d226d343730203130306102208301527f352d3136382d34312d3130322034312d3932203937683338337a222f3e3c2f676102408301527f3e3c75736520687265663d22236c656722207472616e73666f726d3d226d61746102608301527f726978282d312030203020312031303830203029222f3e3c7573652069643d226102808301527f66672d6d61736b2220687265663d2223666722207472616e73666f726d3d226d6102a08301527f61747269782832203020302032203832372038303829222f3e3c672069643d226102c08301527f726164696f223e3c706174682066696c6c3d22234245313632322220643d226d6102e08301527f38303920373435203231332033342d3120342d3231332d33347a222f3e3c70616103008301527f74682066696c6c3d22676f6c642220643d224d383737203737346831357631356103208301527f682d31357a6d32302030683135763135682d31357a6d323020306831357631356103408301527f682d31357a6d31392030683135763135682d31357a222f3e3c706174682066696103608301527f6c6c3d22233934303045332220643d224d3830392037383668323138763130396103808301527f483830397a222f3e3c706174682066696c6c3d22234141373033352220643d226103a08301527f4d38313820373936683930763930682d39307a222f3e3c706174682066696c6c6103c08301527f3d22234246363645452220643d224d39323220383030683930763435682d39306103e08301527f7a222f3e3c706174682066696c6c3d22233934303045332220643d224d3933316104008301527f20383030683731763336682d37317a222f3e3c636972636c652063783d2231306104208301527f3232222063793d223738302e362220723d22342e34222066696c6c3d222339426104408301527f42323234222f3e3c672069643d226e66742d70696322207472616e73666f726d6104608301527f3d226d6174726978282e312030202e3032202e31203931302038303029223e3c6104808301527f706174682066696c6c3d22236666662220643d224d2d35302d353068313138306104a08301527f7631333830482d35307a222f3e3c212d2d6e66742d2d3e3c7465787420783d226104c08301527f3534302220793d22313234302220666f6e742d73697a653d22313430222074656104e08301527f78742d616e63686f723d226d6964646c65223e285e2d5e292f3c2f746578743e6105008301527f3c2f673e3c636972636c652063783d22313530222063793d223930342220723d6105208301527f223235222066696c6c3d2223463339323030222f3e3c706174682066696c6c3d6105408301527f22234141373033352220643d226d313820393535203134342d313820342d32366105608301527f2d34392d32362d3134362033327a222f3e3c2f673e3c67207472616e73666f726105808301527f6d3d227472616e736c61746528302033313029223e24773c2f673e00000000006105a08301525191829182612c60565b0390f35b634e487b7160e01b84526041600452602484fd5b5080fd5b503461076f578160031936011261076f57805190610b40820182811067ffffffffffffffff82111761075b5761075793508152610b0182527f3c67207669736962696c6974793d223c212d2d77617465722d2d3e223e3c706160208301527f74682066696c6c3d223c212d2d7761746572636f6c6f722d2d3e2220643d224d818301527f3020343735683130383076383948307a222f3e3c672066696c7465723d22757260608301527f6c282373696c632922207472616e73666f726d3d227472616e736c617465283060808301527f2034373729223e24773c2f673e3c2f673e3c706174682066696c6c3d2223453660a08301527f424637412220643d226d31323831203535322d313438372d312d312d3734203560c08301527f31332d373520313437203433203335322d3239203437362032367a222076697360e08301527f6962696c6974793d223c212d2d636f617374616c2d2d3e222f3e3c70617468206101008301527f66696c6c3d22234643444139442220643d224d363038203333346831343776326101208301527f3137483630387a6d3230382d3138396831373076343037483831377a6d2d37306101408301527f312d32396831343376343337483131357a4d302038396839397634363348307a6101608301527f22207669736962696c6974793d223c212d2d6d6567612d2d3e222f3e3c6720666101808301527f696c6c3d222346434441394422207669736962696c6974793d223c212d2d6c616101a08301527f7267652d2d3e223e3c7061746820643d224d35393520343535683134317631306101c08301527f36483539357a222f3e3c7061746820643d224d363537203431326831313676316101e08301527f3339483635377a6d2d3132302d333468333876313738682d33387a6d2d3339386102008301527f2036316832313676313639483133397a222f3e3c2f673e3c706174682066696c6102208301527f6c3d22234643444139442220643d224d35373420343634683930763833682d396102408301527f307a6d2d3138362032326831323576313036483338387a6d34303720323768316102608301527f3730763430483739357a6d2d3634342d343468313934763839483135317a4d306102808301527f203531366831323376353948307a22207669736962696c6974793d223c212d2d6102a08301527f6d6964692d2d3e222f3e3c706174682066696c6c3d22234643444139442220646102c08301527f3d224d35373420353132683930763833682d39307a6d2d3138362030683132356102e08301527f763836483338387a6d333138203068313730763536483730367a6d2d353535206103008301527f3068313934763839483135317a4d30203531326831323376353948307a2220766103208301527f69736962696c6974793d223c212d2d6d696e692d2d3e222f3e3c7061746820666103408301527f696c6c3d22234643444139442220643d224d30203533366831303830763534346103608301527f48307a222f3e3c706174682066696c6c3d22234646453736362220643d224d386103808301527f3835203734366833763632682d337a222f3e3c706174682066696c6c3d2223466103a08301527f46463543322220643d224d3336372036313568333034763331483336377a222f6103c08301527f3e3c706174682066696c6c3d22234646453736362220643d224d3632392036366103e08301527f3968333031763437483632397a6d2d333633203068323132763437483236367a6104008301527f4d3335203534396831303476374833357a6d33393820306831353976374834336104208301527f337a6d3336352030683130347637483739387a222f3e3c706174682066696c6c6104408301527f3d22234646463543322220643d224d31343520353737683235367631364831346104608301527f357a6d353132203068313936763136483635377a4d35343820373338683330346104808301527f763632483534387a222f3e3c706174682066696c6c3d222346464537363622206104a08301527f643d224d3631392038323368333034763733483631397a222f3e3c70617468206104c08301527f66696c6c3d22236363393933642220643d224d302038393268313038307631386104e08301527f3848307a222f3e3c706174682066696c6c3d22236363393933642220643d224d6105008301527f383838203130383056306831393276313038307a222f3e3c706174682066696c6105208301527f6c3d22236363393933642220643d224d39303920313838763132482d323937766105408301527f2d31327a222f3e3c706174682066696c6c3d22236363393933642220643d224d6105608301527f3138342d32333668313256393730682d31327a222f3e3c706174682066696c6c6105808301527f3d22233934303045332220643d224d31303536203439364839313056333530686105a08301527f3134367a222f3e3c672069643d226e66742d70696322207472616e73666f726d6105c08301527f3d226d6174726978282e313320302030202e3133203931322033353229223e3c6105e08301527f212d2d6e66742d2d3e3c2f673e3c75736520687265663d2223736561742220746106008301527f72616e73666f726d3d226d6174726978282d31203020302031203131393420306106208301527f29222f3e3c672069643d2273656174222066696c6c3d2223636339393364223e6106408301527f3c7061746820643d224d3334352037393468323176313230682d32317a222f3e6106608301527f3c7061746820643d224d3237312037383768313638763231483237317a6d32316106808301527f372035372031392d393020323120352d32302039307a222f3e3c7061746820646106a08301527f3d226d343932203833342031362037352d313120322d31362d37357a6d2d33336106c08301527f20322d31362037352d31312d322031362d37357a222f3e3c7061746820643d226106e08301527f4d35303720383531682d3736762d32316837367a222f3e3c2f673e246d3c67206107008301527f7472616e73666f726d3d227472616e736c617465283020313029223e3c7061746107208301527f682066696c6c3d22234141373033352220643d224d36383820393938762d34376107408301527f6c2d37323120323032683536367a222f3e3c706174682066696c6c3d222342426107608301527f384435442220643d224d36383820393531483076313534683533337a222f3e3c6107808301527f706174682066696c6c3d22233934303045332220643d224d34303920393731766107a08301527f2d3231482d3138763938683335307a222f3e3c706174682066696c6c3d2223426107c08301527f46363645452220643d224d34303920393530482d3138763737683335307a222f6107e08301527f3e3c706174682066696c6c3d22233933303045322220643d224d3020353835686108008301527f3430387633363548307a222f3e3c706174682066696c6c3d22234245363545446108208301527f2220643d224d3020353934683430307633343748307a222f3e3c7061746820666108408301527f696c6c3d22233946423532442220643d224d30203836386834303076373348306108608301527f7a222f3e3c706174682066696c6c3d22234639423233332220643d224d3020356108808301527f39336834303076343648307a222f3e3c706174682066696c6c3d226e6f6e65226108a08301527f207374726f6b653d222346464622207374726f6b652d77696474683d223422206108c08301527f643d224d3331203635377631383968333530222f3e3c212d2d63686172742d2d6108e08301527f3e3c672066696c6c3d22676f6c642220666f6e742d66616d696c793d224172696109008301527f616c2d426f6c644d542220666f6e742d73697a653d223234223e3c6720666f6e6109208301527f742d73697a653d2231362220746578742d616e63686f723d22656e64223e3c746109408301527f657874207472616e73666f726d3d227472616e736c61746528333935203638336109608301527f29223e3c212d2d6d61702d2d3e3c2f746578743e3c74657874207472616e73666109808301527f6f726d3d227472616e736c617465283339352038333329223e3c212d2d6d69706109a08301527f2d2d3e3c2f746578743e3c2f673e3c706174682066696c6c3d222339343030456109c08301527f332220643d224d3438203838386839307633354834387a222f3e3c74657874206109e08301527f7472616e73666f726d3d227472616e736c6174652835392039313229223e4255610a008301527f593c2f746578743e3c706174682066696c6c3d22234536333332412220643d22610a208301527f4d31353820383837683930763335682d39307a222f3e3c74657874207472616e610a408301527f73666f726d3d227472616e736c617465283136362039313229223e53454c4c3c610a608301527f2f746578743e3c706174682066696c6c3d22234632384430302220643d224d32610a808301527f363820383837683930763335682d39307a222f3e3c74657874207472616e7366610aa08301527f6f726d3d227472616e736c617465283237392039313229223e464c49503c2f74610ac08301527f6578743e3c2f673e3c2f673e3c75736520687265663d2223666722207472616e610ae08301527f73666f726d3d226d61747269782832203020302032203539352039303029222f610b00830152601f60f91b610b208301525191829182612c60565b91905034612c5c5782600319360112612c5c57611360820182811067ffffffffffffffff82111761075b576107579350815261132a82527f3c646566733e3c672069643d2266697231223e3c706174682066696c6c3d222360208301527f4141373033352220643d224d2d362d3131364834563934482d367a222f3e3c70818301527f6174682066696c6c3d22233942423232342220643d224d34372d38352030203160608301527f31362d34372d38355a222f3e3c2f673e3c672069643d2266697232222066696c60808301527f6c3d2223394242323234223e3c706174682066696c6c3d22234141373033352260a08301527f20643d224d3130322037353168323956313131682d32397a222f3e3c7061746860c08301527f20643d224d3135312031333020313136203237203832203133307a222f3e3c7060e08301527f61746820643d224d3138312032303220313136203935203531203230327a6d346101008301527f362037362d3131302d36354c37203237387a6d33382039352d3134382d38332d6101208301527f3134372038337a222f3e3c7061746820643d224d3238382034363320313137206101408301527f3331352d3534203436337a6d3134203135344c313137203438312d36372036316101608301527f377a222f3e3c2f673e3c672069643d226274726565222066696c6c3d222339426101808301527f42323234223e3c656c6c697073652063783d2238222063793d223530322220726101a08301527f783d223930222072793d223933222f3e3c656c6c697073652063783d223231366101c08301527f222063793d22353038222072783d223930222072793d223933222f3e3c7061746101e08301527f682066696c6c3d22234141373033352220643d224d37352035303068363476326102008301527f35384837357a222f3e3c706174682066696c6c3d22234141373033352220643d6102208301527f226d3838203539352031392d31362d38302d3132302d31382031367a6d3433206102408301527f372d31382d31342036372d3132382031382031347a222f3e3c636972636c65206102608301527f63783d22313732222063793d223433352220723d22313331222f3e3c636972636102808301527f6c652063783d22323434222063793d223430392220723d22313331222f3e3c636102a08301527f6972636c652063783d2238222063793d223337372220723d22313331222f3e3c6102c08301527f636972636c652063783d22323736222063793d223235302220723d223930222f6102e08301527f3e3c636972636c652063783d22333635222063793d223332392220723d2234306103008301527f222f3e3c636972636c652063783d223939222063793d223234302220723d22316103208301527f3635222f3e3c2f673e3c672069643d227074726565222066696c6c3d222339426103408301527f42323234223e3c706174682066696c6c3d22234141373033352220643d224d2d6103608301527f3232312033363020333520313531562d3738683433763233336c2d32373620326103808301527f31377a222f3e3c706174682066696c6c3d22234141373033352220643d224d326103a08301527f3939203336302037382032353756313434483431763131356c323338203130376103c08301527f7a222f3e3c656c6c697073652063783d223834222063793d22323639222072786103e08301527f3d22313033222072793d223534222f3e3c656c6c697073652063793d223239356104008301527f222072783d223738222072793d223437222f3e3c656c6c697073652063783d226104208301527f2d3738222063793d22333236222072783d223738222072793d223437222f3e3c6104408301527f656c6c697073652063783d223136222063793d22343232222072783d223231376104608301527f222072793d22313131222f3e3c656c6c697073652063783d22323038222063796104808301527f3d22333535222072783d22313338222072793d223932222f3e3c656c6c6970736104a08301527f652063783d222d3233222063793d22333530222072783d22323034222072793d6104c08301527f22313133222f3e3c2f673e3c706174682069643d227462757368222066696c6c6104e08301527f3d22233942423232342220643d226d2d31352d39203220332d342031203320336105008301527f2d332033203520312031203520352d332031203520342d342033203320322d336105208301527f2034203420322d35203420322d312d3420332d322d322d3320342d322d342d326105408301527f20312d327a222f3e3c2f646566733e3c67207669736962696c6974793d223c216105608301527f2d2d6f2d2d3e223e3c706174682066696c6c3d223c212d2d7761746572636f6c6105808301527f6f722d2d3e2220643d224d3020333539683130383076383948307a222f3e3c676105a08301527f2066696c7465723d2275726c282373696c632922207472616e73666f726d3d226105c08301527f7472616e736c61746528302033363029223e24773c2f673e3c2f673e3c7061746105e08301527f682066696c6c3d22234541434346392220643d226d2d3331203331382036392d6106008301527f3233203130342032372036382d33372038362034302036352d323520343420316106208301527f392036302d3334203532203338203130322d37203436203230203134302d32356106408301527f2039302034382036322d34322034362032382039382d3334763838482d33317a6106608301527f22207669736962696c6974793d223c212d2d6d2d2d3e222f3e3c7061746820666106808301527f696c6c3d223c212d2d63632d2d3e2220643d224d3130393520313039365633346106a08301527f356c2d3236352034382d3235312d32342d3138332032352d3334362d34342d366106c08301527f392d3134763736307a222f3e3c706174682066696c6c3d2223424636364545226106e08301527f20643d224d34363020343036683232762d3232682d32327a6d3632312d3230766107008301527f2d3330682d3236763330682d3134762d3433682d3435762d3632682d333576316107208301527f3034682d3330762d3632682d3239763632682d323656323731682d33307631316107408301527f35682d3139762d3432682d3331763233682d3232762d3633682d3436763539686107608301527f2d3437763233682d3138762d3339682d3331763339682d3231762d3237682d326107808301527f38763237682d3139762d3530682d3232763530682d32317632336837763134686107a08301527f3232762d313468313776313868313031762d3138683132763234683334762d366107c08301527f683232763130683332762d31316838763233683238762d3233683676313068326107e08301527f39762d3238683135763139683334763132683337762d3135683238762d3137686108008301527f3235763334683336762d3333683131763332683534762d3332683138762d32336108208301527f682d31367a6d2d313335203631683136762d3132682d31367a222076697369626108408301527f696c6974793d223c212d2d632d2d3e222f3e3c706174682066696c6c3d2223396108608301527f34303045332220643d224d31303935203532302d313920343137762d32336c316108808301527f313134203130327a22207669736962696c6974793d223c212d2d722d2d3e222f6108a08301527f3e3c67207669736962696c6974793d223c212d2d702d2d3e223e3c75736520686108c08301527f7265663d2223746275736822207472616e73666f726d3d226d617472697828346108e08301527f2e313620302030202d342e31362038382037303629222f3e3c757365206872656109008301527f663d222374686275736822207472616e73666f726d3d226d61747269782831306109208301527f2e3220302030202d31302e3220313135372039303529222f3e3c7573652068726109408301527f65663d22236669723122207472616e73666f726d3d226d617472697828312e326109608301527f20302030202d312e32203937312034363329222f3e3c75736520687265663d226109808301527f2366697232222f3e3c2f673e3c67207669736962696c6974793d223c212d2d746109a08301527f2d2d3e223e3c706174682066696c6c3d22233634393632342220643d224d31316109c08301527f20373431632d322d3933203134352d39332031343320307a6d393633203235326109e08301527f632d342d323335203336362d3233362033363320307a222f3e3c757365206872610a008301527f65663d22236274726565222f3e3c75736520687265663d222370747265652220610a208301527f7472616e73666f726d3d226d6174726978282d2e3320302030202d2e34203938610a408301527f302035373629222f3e3c2f673e3c67207669736962696c6974793d223c212d2d610a608301527f642d2d3e223e3c75736520687265663d2223627573683122207472616e73666f610a808301527f726d3d227472616e736c61746528373520373433297363616c6528312e383329610aa08301527f222f3e3c75736520687265663d2223627573683122207472616e73666f726d3d610ac08301527f227472616e736c617465283130373820393430297363616c6528342e34382922610ae08301527f2f3e3c75736520687265663d222370616c6d3122207472616e73666f726d3d22610b008301527f7472616e736c6174652831343020373535297363616c6528322e303729222f3e610b208301527f3c75736520687265663d222363616374757322207472616e73666f726d3d226d610b408301527f617472697828312e382030203020312e38203932302034353529222f3e3c2f67610b608301527f3e3c706174682066696c6c3d22234139333345392220643d224d333420393637610b808301527f5630682d353376313039366831313134563936377a222f3e24733c7061746820610ba08301527f66696c6c3d22234141373033352220643d224d38313720353830683476383468610bc08301527f2d347a222f3e3c636972636c652063783d22363838222063793d223636322220610be08301527f723d2238222066696c6c3d2223393230304531222f3e3c636972636c65206378610c008301527f3d22363933222063793d223636392220723d2236222066696c6c3d2223433938610c208301527f304631222f3e3c636972636c652063783d22393430222063793d223635342220610c408301527f723d2236222066696c6c3d2223433938304631222f3e3c636972636c6520637880610c608401527f3d22393439222063793d223635372220723d2238222066696c6c3d2223393230610c808401527f304531222f3e3c636972636c652063783d22383039222063793d223731312220610ca08401527f723d2236222066696c6c3d2223393230304531222f3e3c636972636c6520637880610cc08501527f3d22383137222063793d223731302220723d2238222066696c6c3d222343393880610ce08601527f304631222f3e3c636972636c652063783d22383234222063793d223731352220610d008601527f723d2234222066696c6c3d2223393230304531222f3e3c636972636c65206378610d20860152610d408501527f304631222f3e3c636972636c652063783d22383730222063793d223632362220610d60850152610d808401527f3d22383634222063793d223633312220723d2234222066696c6c3d2223433938610da08401527f304631222f3e3c636972636c652063783d22383738222063793d223633302220610dc0840152610de08301527f3d22373530222063793d223633302220723d2234222066696c6c3d2223433938610e008301527f304631222f3e3c75736520687265663d2223666722207472616e73666f726d3d610e208301527f226d617472697828312e352030203020312e35203830372039323029222f3e3c610e408301527f706174682066696c6c3d22234139333345392220643d224d3334203936375630610e608301527f682d353376313039366831313134563936377a222f3e3c706174682066696c6c610e808301527f3d22234139333345392220643d224d31303832203136357631324830762d3132610ea08301527f7a222f3e3c706174682066696c6c3d22234139333345392220643d224d333836610ec08301527f2031303830682d313256306831327a6d3335312030682d313256306831327a22610ee08301527f2f3e3c706174682066696c6c3d22234141373033352220643d224d3733392031610f008301527f30323168333536763237483733397a222f3e3c706174682066696c6c3d222341610f208301527f41373033352220643d224d3834332031303430683233763739682d32337a6d2d610f408301527f36392030683233763739682d32337a4d3436332035313268323576363336682d610f608301527f32357a222f3e3c706174682066696c6c3d22234141373033352220643d224d32610f808301527f38362039383268333739763232483238367a6d302d3336396833373976323248610fa08301527f3238367a222f3e3c706174682066696c6c3d22234141373033352220643d226d610fc08301527f33363320313230372d32352d332038372d36333020323520337a6d3133382d36610fe08301527f33302032352d33203837203633302d323520337a222f3e3c706174682066696c6110008301527f6c3d22234242384435442220643d224d383238203933326832363776383948376110208301527f3339222f3e24313c67207472616e73666f726d3d226d6174726978282e3332206110408301527f302030202e3332203330322036333629223e3c212d2d6e66742d2d3e3c2f673e6110608301527f3c706174682066696c6c3d226e6f6e6522207374726f6b653d222346424431386110808301527f3522207374726f6b652d77696474683d2231302220643d224d333031203633356110a08301527f6833343876333438483330317a222f3e3c706174682066696c6c3d22234141376110c08301527f3033352220643d224d3430352039373868313430763337483430357a6d302d336110e08301527f383668313430763433483430357a222f3e3c636972636c652063783d223130396111008301527f222063793d223834352220723d223632222066696c6c3d2223424238443544226111208301527f2f3e3c636972636c652063783d223738222063793d223836382220723d2231316111408301527f222066696c6c3d2223394242323234222f3e3c636972636c652063783d2237306111608301527f222063793d223833322220723d223131222066696c6c3d22676f6c64222f3e3c6111808301527f636972636c652063783d223934222063793d223830332220723d2231312220666111a08301527f696c6c3d2223453633333241222f3e3c636972636c652063783d2232313222206111c08301527f63793d223635362220723d223633222066696c6c3d223c212d2d73632d2d3e226111e08301527f2f3e3c706174682066696c6c3d22234242384435442220643d226d34313020386112008301527f3230203620352d35362035362d352d367a222f3e3c636972636c652063783d226112208301527f333534222063793d223838362220723d223233222066696c6c3d2223464339226112408301527f2f3e3c706174682066696c6c3d22236632653563652220643d226d32333520376112608301527f34362037342d3137203631203236382d37342031377a222f3e3c7061746820666112808301527f696c6c3d22236632653563652220643d224d31313420373239683139347634346112a08301527f32483131347a222f3e3c706174682066696c6c3d22236632653563652220643d6112c08301527f226d313135203732392037332031362d3437203231322d37342d31377a6d32306112e08301527f35203134372037332031372d3233203130342d37342d31377a222f3e3c7061746113008301527f682066696c6c3d22236632653563652220643d224d313733203731346837377661132083015269199834169b9b3d11179f60b11b6113408301525191829182612c60565b8280fd5b6020808252825181830181905290939260005b828110612c9557505060409293506000838284010152601f8019910116010190565b818101860151848201604001528501612c7356fea2646970667358221220fa746b4367d34af9e13cefe2dd04607f9d4ebeea37f9ae5f4c2836e0e76715be64736f6c63430008190033","linkReferences":{}},"methodIdentifiers":{"getBeachSVG()":"f932c830","getLandscapeSVG()":"84f959ab","getSkyscraperSVG()":"e7e5a563"},"id":11}