{"abi":[{"type":"function","name":"getGenericSVG","inputs":[{"name":"motifType","type":"uint8","internalType":"enum MotifType"}],"outputs":[{"name":"","type":"bytes","internalType":"bytes"}],"stateMutability":"pure"},{"type":"function","name":"getHorizon","inputs":[{"name":"motifType","type":"uint8","internalType":"enum MotifType"}],"outputs":[{"name":"","type":"uint256","internalType":"uint256"}],"stateMutability":"pure"},{"type":"function","name":"getScene","inputs":[{"name":"motifType","type":"uint8","internalType":"enum MotifType"}],"outputs":[{"name":"","type":"bytes","internalType":"bytes"}],"stateMutability":"pure"}],"bytecode":{"object":"0x60808060405234601557612419908161001b8239f35b600080fdfe608060405260048036101561001357600080fd5b6000803560e01c8063c482a49d146100a1578063cf4e224b146100795763fedd325e1461003f57600080fd5b34610076576020366003190112610076578135918210156100765761007261006683610248565b604051918291826100d0565b0390f35b80fd5b50346100765760203660031901126100765781359182101561007657610072610066836101a2565b5034610076576020366003190112610076578135918210156100765760206100c883610119565b604051908152f35b6020808252825181830181905290939260005b82811061010557505060409293506000838284010152601f8019910116010190565b8181018601518482016040015285016100e3565b6004811015610152576001811461014b57600281146101445760031461013e57600090565b61016790565b506101db90565b5061013690565b634e487b7160e01b600052602160045260246000fd5b604051906040820182811067ffffffffffffffff82111761018c5760405260158252565b634e487b7160e01b600052604160045260246000fd5b90606091600481101561015257600181036101e2575090506101c2610168565b73b500000000000000001900f001e6801e008000af60591b602082015290565b60028103610215575090506101f5610168565b735b4000000000000000b740eb404d801a4040007d605a1b602082015290565b60031461021e57565b9050610228610168565b734c4000000000000000d48103802a8000004000af605a1b602082015290565b9060609160048110156101525760018103610708575090506040516103e0810181811067ffffffffffffffff82111761018c576040526103b481527f1f3c706174682066696c6c3d222477632220643d224d3020333130683130383060208201527f761437373048307a222f3e3c7573652077696474683d2240190922206865696760408201527f68743d222022200c0a7265663d22237761746572402d0c67207472616e73666f60608201527f726d3d22600a006c201a002860590e29223e2477733c2f673e246a246269e00460808201527f820062e0008202383134808202323637a0820070e001ab0623316131323035c060a08201527faf02383135802c013332402b0b206f7061636974793d222e3120231d7374796c60c08201527f653d226d69782d626c656e642d6d6f64653a6d756c7469706c7920ae0224746f60e08201527f20b1006920fb036c656722c10e02736322a07320181e6d34373320313231372d6101008201527f33302d3335382d3134302032392d313832203233316122609f802b0d342038396101208201527f362d32302d3133312d352006022d3839203e073420333620353020404b02347a6101408201527f6d20440d2d3137362d352d36332d32342d3320050b3720332d353120343320326101608201527f31202a405802247368412d6182a16860a7615781620a6d6174726978282d31206101808201527f3020010231203121bc0020216921b8e1048aa0270032202420be0720393030206101a08201527f383038419101666c60638106056e66742d7069218be00962012e31403c042d2e6101c08201527f303220400a0239303520412069a0fe824a0323666666819b40fc0035224c00316101e08201527f224c043133383048200d60d320620a3c7465787420783d223534224221ad21206102008201527f200808666f6e742d73697a652010400f4025062d616e63686f7220c00d6964646102208201527f6c65223e474d203a293c2f401b003e60b8036465667360832281006e61cb047a6102408201527f69677a6121cea2b50036205ac2b3400b21ad402a06556e6974733d2222de09726102608201527f53706163654f6e5573205f81cce000cd2124203e41db41380033213b02304c366102808201527f200a00762007200d220b4012005a416f002fa05860424061608c04706f6c6b616102a08201527fe0108b2103012d312060e201b7003722b7a048e00fa107636972636c652063206102c08201527f3c403b00634140204321244006a0ba0046200020ba2207e0022e4155402e40076102e08201527fe00f2ee00dc605616e696d616ce000c70131302070c154600ce016b32166c2c26103008201527f0363616d652049e20a610034214c013020200604313320343262c4e0253701356103208201527f3822976037e00dc50073232c02706564e000c60033e002c5400b2151e1197e206103408201527fe9e20220a2ee20b80468313576336535e105ce2182e0048d0068621702746f776103608201527f41052259014d38434a256f033237376c246524570135372338e4035c44a200736103808201527f23070174736032026d343723ec093030352d3136382d343122430132202006006103a0820152731c91cb879bb4199c19bd11179f1e17b232b3399f60611b6103c082015290565b600281036112cf575090506040516109c0810181811067ffffffffffffffff82111761018c5760405261098481527f1f3c67207669736962696c6974793d22247761746572223e3c7061746820666960208201527f6c006c401319632220643d224d3020343735683130383076383948307a222f3e60408201527f203e202420321c3d2275726c282373696c6824746f6b2922207472616e73666f60608201527f726d3d22600a006c2059002840420a3729223e2477733c2f673e6003e0026a0660808201527f23453642463741606e0f6d31323831203535322d313438372d3120011137342060a08201527f3531332d3735203134372034332033201d013239209605362032367a22e005ca60c08201527f016f6340a0e0035d05464344413944605d20cc0235333680cc0235343480cd0760e08201527f24736b796c246269e0043405636339393364c0340238393280340231383880346101008201527fe0102c093838382030683139327641320048200e6131e00390e0055b2052a05b6101208201527e32e0165a02313834405a083276393030682d3132e0085805393430304533806101408201527fb40e31303536203439364839313056333520920034212b20b80267206921d6056101608201527f6e66742d706921e261a581b00b6d6174726978282e31332030200140070239316101808201527f32416e41bb203161b807757365206872656621b70373656174e00b41012d31206101a08201527f3e20d9032031313920b200294076e007362177026d2464e104740b6e6f6e65226101c08201527f207374726f6b65205d003620bd013234c010072d77696474683d22201020be076101e08201527f4d3630203738377622110368323032204d20d7e009ca003220850730203220356102008201527f393520213440c601666c60c503646566734033410b80c622d122f6c19ca1b1406102208201527f6a093334352037393468323121a22178013231614761d1401f02323731408b076102408201527f6831363876323148200e0c7a6d3231372035372031392d39207f22d0022d32306102608201527f2081e00438116d343932203833342031362037352d31312022f4003622e7047a6102808201527f6d2d3333600c8017012d322022401740e6e000760b35303720383531682d37366102a08201527f76209301683781de435f80d606632d7461626c65e003ca0036229c03393531486102c08201527f22c80a3239683630366c38322d38e2094801316120e90035a1698033037634376102e08201527f6c202a05203832682d3422d304206f706163643d012e312029037374796c21b46103008201527f036d69782d20730f6e642d6d6f64653a6d756c7469706c7940b8e00298e4066a6103208201527fe204b7003223e009393036682d39356c2d3721420134392159046c33312d36226103408201527fc320130332362035238d04366c32362d20080139322008a011201b40122025026103608201527f333120402e81120c636972636c652063783d22313920ab006324f204383538226103808201527f2024bf02313636e100fa0543423834463140cba28104424536354524398010c26103a08201527f810031626ee002540232363780540037a0540032200fa24e05444542324636406103c08201527fffe00230003322b1808501303080852006e00830e101300070e10730056139336103e08201527f336539619f026d31342241033030372d20f3033133763325ab0132382100002d6104008201527f200c012d33e20234a06044240065c424013133203b22d4203220390048200fe26104208201527f0164a02f026666666068104d333533203733384833306c313632203222a8e2036104408201527f05003340e4629de00b3802393432c038231fe01e3723e30933386833323376326104608201527f3034203ee004376154e1012301636cc2e8807ee4064cc0f5e105caa14224a4006104808201527f3923c40333353920236c02372d32210a013637e10809046161373033223f23f46104a08201527f086d322039393820333820312688012d32271a43152487e103020165304001606104c08201527f31004d26b108393834683334386c342065033532483720d0e00630e1006c00326104e08201527f2060013736e0032d0036e1099ac0d42090034d3236392159249e0536306c2d356105008201527f2063de605e0063e201fd01323320f042fd013730254642fd2287812ec04b208f6105208201527fe10153016c61e1055302233933266020336070219d01313520a1219d033535486105408201527f32806de003fd409ec68e013336220301393824a90038202a006c20a5042036316105608201527f763221dd0034e4097e05424636364545e000660239373020260033203423d5036105808201527f31482d34e0096ac3ba40980133382236043368333037258e0239483324ac20d56105a08201527fe00398044639423233a302e0022d0033e0002ce103020172672694a124a84aa06105c08201527f4d406c465901343523730034261d02303648200fe0016e4020003626060134316105e08201527f249403313676312061200f25df255e012d33220c063876313738682d20a325f36106008201527f22500136312666202802363948202c6049e0018b01686f2744015f33c07ea0936106208201527f2232013563a19326ed0568373236763322c0e10924036666653744ee4096e0006106408201527f29e80b74056663646139648028003120df48a046322420269c27d42066e000116106608201527f013334e007120232353340126907a037003323f4e006380034270e2012e003256106808201527f033630387a4070003222c7c039e05971421de107640034e107640339626534a36106a08201527fc8003527a9003027420334383968200b603fe2035de1033d45270234483528a76106c08201527f0238683521e40036290e02483639800f2208231523b2003548c82020e00c10206106e08201527f31e01621e00843e0063240852266e07b860033226f410d2139e1040d200fe0056107008201527ffce00f10e001dae00f21e1010da021e0063241eee104ae0366663964251743156107208201527f21ce0220375641dc0031218ea1dbe2071b0031e2071be30656023533302380e36107408201527f0b7f03616337362b7240692b1d206140290038e30daae301d400342bc80435396107608201527f56333029b0017637291925d8006d4d152bd7201300318013235f012d3720fb606107808201527f13e00327e006130331563539402ae0173e2cb9e00a29638e01343428690130316107a08201527f45cb606a0035e00292801420934014c09380142094401460bc2094e00414204c6107c08201527e34220060968018e010422098e00c2ce0029a00328042e0037020ee8014e0106107e08201527f57c0c4e04e9a4276e207490032e20749e202200131352af14c540033228f200c6108008201527e7a22320330683433243bee0b82e20584225b402902353337e20b86e2025b006108208201527f3328350438316835396244821924dde00310200f27a3e00311e0082228cd409c6108408201527f60454906044d31342036a032014831261f00322a6727c46020806620a30030e06108608201527f05770131342dad8022014838266640650033e00244034d38352022ef2cb827336108808201527e376022405602313533e00013013239407b00352027206cc028200fe1007c636108a08201527ff74df2036d656761e707d56397268224a4003427cf483d00376692056d3230386108c08201527f2d3125ed01313725f50030207b003162ab003029c620142900003421680031266108e08201527fa921a32026043939763436e40400607202696469e00c720035229c04343634686109008201527f39316000332cf7432004313836203228340032252c28550133382085207901206109208201527f32221160840148372868066d2d3634342d3420ad023934762a81a226023531366109408201527f20390333763539e103fd8083006ee01183003528a5e00783414602357638a0816109608201527e3387ad20800135362abd003620800035216d2024e0067f40b9e0027f052f646109808201526332b3399f60e11b6109a082015290565b6003146112d857565b9050604051610e20810181811067ffffffffffffffff82111761018c57604052610de181527f1d3c67207669736962696c6974793d22246f63223e3c706174682066696c6c2060208201527f101a77632220643d224d3020333539683130383076383948307a222f3e203b2060408201527f241f7465723d2275726c282373696c6824746f6b2922207472616e73666f726d60608201527f3d22600a046c6174652820420b363029223e2477733c2f673e400302246265e060808201527f046d0063a06d04313039352020041f36563334356c2d3236352034382d32353160a08201527f2d32342d3138332032352d3334362d0a34342d36392d3134763736609216246160c08201527f662473683c75736520687265663d222373756e636c20ac0224626920af608c8060e08201527f970b6d617472697828312e352030200140070538303720393260a201666c409e6101008201527fe0039b0623413933334539810d0c3334203936375630682d35337640a70568316101208201527f3131345620136118e10240e00436213e0d32203136357631324830762d3132e06101408201527f142d02333836210300382064013132206a202d046d33353120e0020f40d703666101608201527f752431e00cd9022e333220d701302040070633303820363337417c026e6674606101808201527fdae102230670616c65747465404d0670653c6465667341db006921f6c0190c3e6101a08201527f3c636972636c652063783d2220ef02222063222d04383435222021fd023632226101c08201527f4209222e06234242384435442049e00330013738a02f00362008202f013131e06101e08201527e2f05394242323234e0072f0030a02f00332058e0042f03676f6c64e0062c016102008201527f3934a02c013033e0062c0623453633333241402fe10390a0a242d50d6d3431306102208201527f20383230203620352d35200404362d352d364156612281030361727469e105006102408201527f01323020f74100023635366073013633e000642134036d313032224b217101206102608201527f3121e90c306c2d31372037302d33312d374027e1024a023334378049013838806102808201527f490032e00549043236372038203d403a062034312031383120460620377a6d366102a08201527f3920231401323720b8013234222620060036e008ba036669723120bae003fd046102c08201527f414137303320be20a7074d2d362d3131364822b7013448a03be0032aa19b602a6102e08201527f0334372d384328202f002d600b005a40c943c58124206921ab240e4204a038e06103008201527f054de0037841200637353168323956233703682d32396173607c4098003122e66103208201527f013133606d40e24334003363dfe002220338312032216720900020242b2030206103408201527f0d057a6d3436203740d505302d36354c37203c0038233400382021242403382d6103608201527f38332006204f0033e0056e0632383820343633204b416922090034400e027a6d6103808201527f3121580235344c401600342178218b02363137603ae001f8046274726565e0096103a08201527ff904656c6c69702485432f22f4422c01353021210072233f003922de0072233e6103c08201527e3961ebe003290132312205802b2034e0092b612000668164e1034f003721006103e08201527f0b30306836347632353848373560a3e00e2c006d20ec003521310031253703366104008201527f2d3830245c200300382496213d02332037200b212401203620080032201520026104208201527e34604ee202b501313720c940a60034424943a0013331420ee00222013234226104408201527f386022442ce00c2220e140200133372302e00c20013237a10d013235413121306104608201527e30e0066501333622c960440032249220210034e007210039201740200032206104808201527f194020257c4043e101bf0070e10dbfe10e3c044d2d32323146c6270d221b0b316104a08201527f562d37386834337632333326a5003722ada220e00f3f02323939603e013738266104c08201527fc2063756313434483424240331356c3222a6013130825ee203130038a14801326104e08201527f3620ca4212003164e8223f00356537e0002b2011013239210f402345714022246105008201527f5e2334e00022227c20b08111013332215de0152bc28d01343221ef402a20dd206105208201527f08206823b5e00758003242b24084013335a084013133206a402d013932e0072c6105408201527e2d24e7a02c4197209701323020e7402c0131316316e101a1026c2d70244ae66105608201527f02ae047462757368e80463a7cb01342e240c46f2002d600922e80337303629406105808201527f7be0033d0068e00f3e0231302e8731002d60092194280e013035e0074024ea266105a08201527fbfe80b49c03d2008023937314443e00a3b610be003dd007420dde2032e0336346105c08201527f39362712850825eb063431632d322d39249e0134358006053320307a6d3924b06105e08201527f05323532632d34214c003522540036200700362007401de006f384a42209e1026106008201527f07a2f8e009c7012d2e20412001012d2e28e40438302035378143e003b30064206106208201527fb3e0024b4151e105136056006c49f5249b08373433297363616c65296d0038e16106408201527f0813e0133c231025bc013430a03e03342e3438e1075228a2006de00f7b0131346106608201527f2369013535a03d02322e302901e1050505636163747573e10b0620aa210426836106808201527f20072a140120342047403ce10106056665646f7261e501fb04343030453321186106a08201527f61cc0064229525ce28522aa903302d332d443321c30233203628160131312a386106c08201527f042d33352d34620ee303a0003143c3434728bc2311231a0038437d43742357616106e08201527f578ac002726f74415f2b1525cb013520202ee0069f0662617365636170e009a06107008201527fe0036e00324055806e2273e01b6e44e4e0016ec0ec014d31289e01363722ab276107208201527f4028ae00322b98062032392d3834732ba1290f0034200de1063f0872656e63686107408201527f5f686174e015a22befa0a20031a42c296f611100322119e10e112c23202e61116107608201527fc0a2036d31363122cd2938022d3320256c29ea00208809e101d3046265616e696107808201527fe702cfe107d3014d3121c40236343820e6003841d7486802372031291d0533736107a08201527f36342d3529ad239540e7e00175412d0034244f276724150031260028862251016107c08201527f373163a7e702350031220e618c003525db66ae65bfe0019e2ccde10c2ee0006c6107e08201527e372acb23b301323220622bff208f004c2380033638385ae0059326c500362c6108008201527fed003820b2402d01203320c1003428446026e0016f05676c61737365231fa8746108208201527fe1080f036d31393720dd20622a982a8c0320382d36204d00366047e000954dbf6108408201527e362062003124ab0034286222b1220e00346024e0016c0763796c696e6465726108608201527fe0136d0032617d23400037425f29fa002d200a012036ea053f016d32215d02356108808201527f3938416e0034228803362d393680ea6170e00171257c0261626c4cdec0aa034d6108a08201527f37333927860932316833353676323748200f6034e000200038257e09313034306108c08201527f6832337637392abb2a28408be0051001392d2e9a432a0035604823a46045e0016108e08201527f7a0065239c006ce4022c024d343629970830376832367636333620578c87e0006109008201527f7702333031258e0032204e043976323248200e017a6d2457013734e00311e1046109208201527fe40135372687003021de2469237c227940ae29e622bb22872093249649e301396109408201527f382075017a6d229f0333313468253428cf289640602c740037e00311e00060826109608201527f10026e6f6e232c057374726f6b652d7004464244313824a58010072d6d6974656109808201527f726c69200622da23baa0160477696474688011252520d821c0003321270234386109a08201527f76200320d98904e1012b22f52fc3a10b8078ea04fe0038220200352f270534766109c08201527f3834682dea08ae22fd835500364ea82a25200ea04525d801304568cae30285006109e08201527f362b986385003669722007e0002f004327100046e0072f2314a02fa3b5e0182f610a008201527f29c965720035494ee0188f00384b42402f00372975402fe0015fe00cbf210ec0610a208201527f2f2098e0045fe00cbf0038486d805f21bb202f247be1131fe0285f0037208640610a408201527f5f00366a722007e0165f00362080602f2c56402f200ea08fe00dbfcad2013633610a608201527f2068e0045fe00c2f00374a73805f802fe00b5f427d637b9106016e74250442ad610a808201527f446e2b81330a02373676289e00482010e30115402c037368697226d1602c261b610aa08201527f033732386827fc900423842e6223bf203f0239355621d9006c2d8701352d2004610ac08201527e3723f3013632321422c200376b02e0007e00744922e10003af5d406023c92a610ae08201527f1200202570022d34202c9720072003258523de200523df60070034201d401700610b008201527f32200f2eda2007201320050031401727a96017200520034416e005ce026c2d6d610b208201527fe0007a04454143434622bc20db006d242b309630e427dd20660030205023c727610b408201527f142655013620297828f800322067209825a8245a265e20a825bb01303250cc28610b608201527f46295c01343040240039246720492081003260182971204823ce0138482066e0610b808201527f078f3423a20e05424636364545608f253f204403303668322143013232253f30610ba08201527f0d01363224e53368013330200f0136764006342b022d34332425013576216e00610bc08201527f682983007620bb20072026400f02323976600603365632373099201627bf2036610be08201527e392036402e0031251b20252064003620070234367635153111601501313820610c008201527f6a200e2024400601323120890037200700382648201d20420035408801327660610c208201527f06604901377621ef20112097016831200c00383562203640070232763225db20610c408201527fae60d303313068334026013168204d01336820532176006842823145200b2038610c608201527f20c90039403000312624003720430035602525bf013235255801683326860133610c808201527f3334a80476333268352057200640b12046002d4ffc283027a502316831202720610ca08201527f424013e500ed42d7016c2de70899420831cc2a7d0035263c21e7262d4050006c610cc08201527f2ae021f73190e00441066368696e6f69732631a1bf253900302b324046016d32610ce08201527f2ce10035223f34f12850a006002027bb0031a73b230e264e006e608b03706f6c610d008201527f6b2b79a649003623c60468656967682667400b2b33203f0522206f70616376d6610d208201527f012e3724d8a03f04556e69747336b10373657253201f03654f6e552091e60400610d408201527f403b441f4007244e4006a0b0004620000038f00763c5fe4007e00f2e002fa07d610d608201527fe005c62a6b026d616ce000c701313020b4c0c8600ca035e00fb320c40020b6e7610d808201527f0263616d284f0020eb020daf142dc54cc620062c7b023432294191e025370035610da08201527f238e8b49e00dc527d60369706564e000c60033e002c5400b218ee1197e20e9e7610dc08201527edb026666666213387436f622bc00305870e105ce2dc6e0018d052f64656673610de0820152601f60f91b610e008201529056fea2646970667358221220ddfaab4bf5b553a26e6803179335768027ea7380132ccf219a569341d00a443564736f6c63430008190033","linkReferences":{}},"methodIdentifiers":{"getGenericSVG(uint8)":"fedd325e","getHorizon(uint8)":"c482a49d","getScene(uint8)":"cf4e224b"},"id":10}