{"abi":[{"type":"function","name":"getBeachSVG","inputs":[],"outputs":[{"name":"","type":"string","internalType":"string"}],"stateMutability":"pure"},{"type":"function","name":"getLandscapeSVG","inputs":[],"outputs":[{"name":"","type":"string","internalType":"string"}],"stateMutability":"pure"},{"type":"function","name":"getSkyscraperSVG","inputs":[],"outputs":[{"name":"","type":"string","internalType":"string"}],"stateMutability":"pure"}],"bytecode":{"object":"0x60808060405234601557612955908161001b8239f35b600080fdfe60806040818152600436101561001457600080fd5b600091823560e01c90816384f959ab1461146257508063e7e5a5631461075c5763f932c8301461004357600080fd5b346107585781600319360112610758578051906105c0820182811067ffffffffffffffff821117610744576107409350815261058682527f3c706174682066696c6c3d223c212d2d7761746572636f6c6f722d2d3e22206460208301527f3d224d302033313068313038307637373048307a222f3e3c706174682066696c818301527f6c3d2275726c28237761746572292220643d224d30203331306831303830763760608301527f373048307a222f3e3c706174682066696c6c3d223c212d2d62632d2d3e22206460808301527f3d224d302038313468313038307632363748307a222f3e3c706174682066696c60a08301527f6c3d22233161313230352220643d224d3020383135683130383076333248307a60c08301527f22206f7061636974793d222e313522207374796c653d226d69782d626c656e6460e08301527f2d6d6f64653a6d756c7469706c79222f3e3c706174682066696c6c3d222335336101008301527f383032362220643d224d38303520383730483237376c2d3330322032353768316101208301527f3133317a222f3e3c706174682066696c6c3d22234646462220643d226d2d31396101408301527f203839322d3238312036342d31323920313733203630322d3133377a222f3e3c6101608301527f672069643d226c6567222066696c6c3d223c212d2d73632d2d3e223e3c7061746101808301527f6820643d226d34373320313231372d33302d3335382d3134302032392d3138326101a08301527f203233317a222f3e3c7061746820643d226d343734203839362d32392d3138386101c08301527f2d313330203138302033362035302037332031347a222f3e3c7061746820643d6101e08301527f226d343535203632312d32342d33332d323720332d35312034332037312031366102008301527f362034352d367a222f3e3c706174682066696c6c3d22234245313632322220646102208301527f3d226d34373020313030352d3136382d34312d3130322034312d3932203937686102408301527f3338337a222f3e3c2f673e3c75736520687265663d22236c656722207472616e6102608301527f73666f726d3d226d6174726978282d312030203020312031303830203029222f6102808301527f3e3c67207472616e73666f726d3d226d617472697828322030203020322038326102a08301527f372038303829223e3c212d2d666c6f7765722d2d3e3c2f673e3c672069643d226102c08301527f726164696f223e3c706174682066696c6c3d22234245313632322220643d226d6102e08301527f38303920373435203231332033342d3120342d3231332d33347a222f3e3c70616103008301527f74682066696c6c3d22676f6c642220643d224d383737203737346831357631356103208301527f682d31357a6d32302030683135763135682d31357a6d323020306831357631356103408301527f682d31357a6d31392030683135763135682d31357a222f3e3c706174682066696103608301527f6c6c3d22233934303045332220643d224d3830392037383668323138763130396103808301527f483830397a222f3e3c706174682066696c6c3d22234141373033352220643d226103a08301527f4d38313820373936683930763930682d39307a222f3e3c706174682066696c6c6103c08301527f3d22234246363645452220643d224d39323220383030683930763435682d39306103e08301527f7a222f3e3c706174682066696c6c3d22233934303045332220643d224d3933316104008301527f20383030683731763336682d37317a222f3e3c636972636c652063783d2231306104208301527f3232222063793d223738302e362220723d22342e34222066696c6c3d222339426104408301527f42323234222f3e3c672069643d226e66742d70696322207472616e73666f726d6104608301527f3d226d6174726978282e312030202e3032202e31203931302038303029223e3c6104808301527f706174682066696c6c3d22236666662220643d224d2d35302d353068313138306104a08301527f7631333830482d35307a222f3e3c212d2d6e66742d2d3e3c7465787420783d226104c08301527f3534302220793d22313234302220666f6e742d73697a653d22313430222074656104e08301527f78742d616e63686f723d226d6964646c65223e285e2d5e292f3c2f746578743e6105008301527f3c2f673e3c636972636c652063783d22313530222063793d223930342220723d6105208301527f223235222066696c6c3d2223463339323030222f3e3c706174682066696c6c3d6105408301527f22234141373033352220643d226d313820393535203134342d313820342d32366105608301527f2d34392d32362d3134362033327a222f3e3c2f673e3c212d2d776174657273636105808301526532b73296969f60d11b6105a083015251918291826128d6565b0390f35b634e487b7160e01b84526041600452602484fd5b5080fd5b5034610758578160031936011261075857805190610aa0820182811067ffffffffffffffff8211176107445761074093508152610a7d82527f3c706174682066696c6c3d22234639423233332220643d224d3020343735683160208301527f30383076383948307a222f3e3c706174682066696c6c3d222345364246374122818301527f20643d226d31323831203535322d313438372d312d312d3734203531332d373560608301527f20313437203433203335322d3239203437362032367a22207669736962696c6960808301527f74793d223c212d2d636f617374656c2d2d3e222f3e3c706174682066696c6c3d60a08301527f22234643444139442220643d224d36303820333334683134377632313748363060c08301527f387a6d3230382d3138396831373076343037483831377a6d2d3730312d32396860e08301527f31343376343337483131357a4d302038396839397634363348307a22207669736101008301527f6962696c6974793d223c212d2d6d6567612d2d3e222f3e3c672066696c6c3d226101208301527f2346434441394422207669736962696c6974793d223c212d2d6c617267652d2d6101408301527f3e223e3c7061746820643d224d353935203435356831343176313036483539356101608301527f7a222f3e3c7061746820643d224d3635372034313268313136763133394836356101808301527f377a6d2d3132302d333468333876313738682d33387a6d2d33393820363168326101a08301527f313676313639483133397a222f3e3c2f673e3c706174682066696c6c3d2223466101c08301527f43444139442220643d224d35373420343634683930763833682d39307a6d2d316101e08301527f38362032326831323576313036483338387a6d343037203237683137307634306102008301527f483739357a6d2d3634342d343468313934763839483135317a4d3020353136686102208301527f31323376353948307a22207669736962696c6974793d223c212d2d6d6964692d6102408301527f2d3e222f3e3c706174682066696c6c3d22234643444139442220643d224d35376102608301527f3420353132683930763833682d39307a6d2d31383620306831323576383648336102808301527f38387a6d333138203068313730763536483730367a6d2d3535352030683139346102a08301527f763839483135317a4d30203531326831323376353948307a22207669736962696102c08301527f6c6974793d223c212d2d6d696e692d2d3e222f3e3c706174682066696c6c3d226102e08301527f234643444139442220643d224d302035333668313038307635343448307a222f6103008301527f3e3c706174682066696c6c3d22234646453736362220643d224d3838352037346103208301527f366833763632682d337a222f3e3c706174682066696c6c3d22234646463543326103408301527f2220643d224d3336372036313568333034763331483336377a222f3e3c7061746103608301527f682066696c6c3d22234646453736362220643d224d36323920363639683330316103808301527f763437483632397a6d2d333633203068323132763437483236367a4d333520356103a08301527f34396831303476374833357a6d3339382030683135397637483433337a6d33366103c08301527f352030683130347637483739387a222f3e3c706174682066696c6c3d222346466103e08301527f463543322220643d224d3134352035373768323536763136483134357a6d35316104008301527f32203068313936763136483635377a4d353438203733386833303476363248356104208301527f34387a222f3e3c706174682066696c6c3d22234646453736362220643d224d366104408301527f31392038323368333034763733483631397a222f3e3c706174682066696c6c3d6104608301527f22234639423233332220643d224d302038393268313038307631383848307a226104808301527f2f3e3c706174682066696c6c3d22234639423233332220643d224d38383820316104a08301527f30383056306831393276313038307a222f3e3c706174682066696c6c3d2223466104c08301527f39423233332220643d224d39303920313838763132482d323937762d31327a226104e08301527f2f3e3c706174682066696c6c3d22234639423233332220643d224d3138342d326105008301527f333668313256393730682d31327a222f3e3c706174682066696c6c3d222339346105208301527f303045332220643d224d31303536203439364839313056333530683134367a226105408301527f2f3e3c672069643d226e66742d70696322207472616e73666f726d3d226d61746105608301527f726978282e313320302030202e3133203931322033353229223e3c212d2d6e666105808301527f742d2d3e3c2f673e3c75736520687265663d22237365617422207472616e73666105a08301527f6f726d3d226d6174726978282d312030203020312031313934203029222f3e3c6105c08301527f672069643d2273656174222066696c6c3d2223463942323333223e3c706174686105e08301527f20643d224d3334352037393468323176313230682d32317a222f3e3c706174686106008301527f20643d224d3237312037383768313638763231483237317a6d323137203537206106208301527f31392d393020323120352d32302039307a222f3e3c7061746820643d226d34396106408301527f32203833342031362037352d313120322d31362d37357a6d2d333320322d31366106608301527f2037352d31312d322031362d37357a222f3e3c7061746820643d224d353037206106808301527f383531682d3736762d32316837367a222f3e3c2f673e3c212d2d6d61696e2d2d6106a08301527f3e3c67207472616e73666f726d3d227472616e736c617465283020313029223e6106c08301527f3c706174682066696c6c3d22234141373033352220643d224d363838203939386106e08301527f762d34376c2d37323120323032683536367a222f3e3c706174682066696c6c3d6107008301527f22234242384435442220643d224d36383820393531483076313534683533337a6107208301527f222f3e3c706174682066696c6c3d22233934303045332220643d224d343039206107408301527f393731762d3231482d3138763938683335307a222f3e3c706174682066696c6c6107608301527f3d22234246363645452220643d224d34303920393530482d31387637376833356107808301527f307a222f3e3c706174682066696c6c3d22233933303045322220643d224d30206107a08301527f353835683430387633363548307a222f3e3c706174682066696c6c3d222342456107c08301527f363545442220643d224d3020353934683430307633343748307a222f3e3c70616107e08301527f74682066696c6c3d22233946423532442220643d224d302038363868343030766108008301527f373348307a222f3e3c706174682066696c6c3d22234639423233332220643d226108208301527f4d30203539336834303076343648307a222f3e3c706174682066696c6c3d226e6108408301527f6f6e6522207374726f6b653d222346464622207374726f6b652d77696474683d6108608301527f22342220643d224d3331203635377631383968333530222f3e3c212d2d6368616108808301527f72742d2d3e3c706174682066696c6c3d22233934303045332220643d224d34386108a08301527f203838386839307633354834387a222f3e3c6720666f6e742d66616d696c793d6108c08301527f22417269616c2d426f6c644d542220666f6e742d73697a653d223234223e3c746108e08301527f657874207472616e73666f726d3d227472616e736c61746528353920393132296109008301527f223e3c747370616e20783d22302220793d2230222066696c6c3d22676f6c64226109208301527f3e4255593c2f747370616e3e3c2f746578743e3c706174682066696c6c3d22236109408301527f4536333332412220643d224d31353820383837683930763335682d39307a222f6109608301527f3e3c74657874207472616e73666f726d3d227472616e736c61746528313636206109808301527f39313229223e3c747370616e20783d22302220793d2230222066696c6c3d22676109a08301527f6f6c64223e53454c4c3c2f747370616e3e3c2f746578743e3c706174682066696109c08301527f6c6c3d22234632384430302220643d224d32363820383837683930763335682d6109e08301527f39307a222f3e3c74657874207472616e73666f726d3d227472616e736c617465610a008301527f283237392039313229223e3c747370616e20783d22302220793d223022206669610a208301527f6c6c3d22676f6c64223e464c49503c2f747370616e3e3c2f746578743e3c2f67610a408301527f3e3c2f673e3c67207472616e73666f726d3d226d617472697828322030203020610a608301527f32203539352039303029223e3c212d2d666c6f7765722d2d3e3c2f673e000000610a8083015251918291826128d6565b919050346128d257826003193601126128d2576110c0820182811067ffffffffffffffff82111761074457815261109182527f3c646566733e3c672069643d2266697231223e3c706174682066696c6c3d222360208301527f4141373033352220643d224d2d362d3131364834563934482d367a222f3e3c70828201527f6174682066696c6c3d22233942423232342220643d224d34372d38352030203160608301527f31362d34372d38355a222f3e3c2f673e3c672069643d2266697232222066696c60808301527f6c3d2223394242323234223e3c706174682066696c6c3d22234141373033352260a08301527f20643d224d3130322037353168323956313131682d32397a222f3e3c7061746860c08301527f20643d224d3135312031333020313136203237203832203133307a222f3e3c7060e08301527f61746820643d224d3138312032303220313136203935203531203230327a6d346101008301527f362037362d3131302d36354c37203237387a6d33382039352d3134382d38332d6101208301527f3134372038337a222f3e3c7061746820643d224d3238382034363320313137206101408301527f3331352d3534203436337a6d3134203135344c313137203438312d36372036316101608301527f377a222f3e3c2f673e3c672069643d226274726565222066696c6c3d222339426101808301527f42323234223e3c656c6c697073652063783d2238222063793d223530322220726101a08301527f783d223930222072793d223933222f3e3c656c6c697073652063783d223231366101c08301527f222063793d22353038222072783d223930222072793d223933222f3e3c7061746101e08301527f682066696c6c3d22234141373033352220643d224d37352035303068363476326102008301527f35384837357a222f3e3c706174682066696c6c3d22234141373033352220643d6102208301527f226d3838203539352031392d31362d38302d3132302d31382031367a6d3433206102408301527f372d31382d31342036372d3132382031382031347a222f3e3c636972636c65206102608301527f63783d22313732222063793d223433352220723d22313331222f3e3c636972636102808301527f6c652063783d22323434222063793d223430392220723d22313331222f3e3c636102a08301527f6972636c652063783d2238222063793d223337372220723d22313331222f3e3c6102c08301527f636972636c652063783d22323736222063793d223235302220723d223930222f6102e08301527f3e3c636972636c652063783d22333635222063793d223332392220723d2234306103008301527f222f3e3c636972636c652063783d223939222063793d223234302220723d22316103208301527f3635222f3e3c2f673e3c672069643d227074726565222066696c6c3d222339426103408301527f42323234223e3c706174682066696c6c3d22234141373033352220643d224d2d6103608301527f3232312033363020333520313531562d3738683433763233336c2d32373620326103808301527f31377a222f3e3c706174682066696c6c3d22234141373033352220643d224d326103a08301527f3939203336302037382032353756313434483431763131356c323338203130376103c08301527f7a222f3e3c656c6c697073652063783d223834222063793d22323639222072786103e08301527f3d22313033222072793d223534222f3e3c656c6c697073652063793d223239356104008301527f222072783d223738222072793d223437222f3e3c656c6c697073652063783d226104208301527f2d3738222063793d22333236222072783d223738222072793d223437222f3e3c6104408301527f656c6c697073652063783d223136222063793d22343232222072783d223231376104608301527f222072793d22313131222f3e3c656c6c697073652063783d22323038222063796104808301527f3d22333535222072783d22313338222072793d223932222f3e3c656c6c6970736104a08301527f652063783d222d3233222063793d22333530222072783d22323034222072793d6104c08301527f22313133222f3e3c2f673e3c706174682069643d227462757368222066696c6c6104e08301527f3d22233942423232342220643d226d2d31352d39203220332d342031203320336105008301527f2d332033203520312031203520352d332031203520342d342033203320322d336105208301527f2034203420322d35203420322d312d3420332d322d322d3320342d322d342d326105408301527f20312d327a222f3e3c2f646566733e3c706174682066696c6c3d2223463942326105608301527f33332220643d224d3020333539683130383076383948307a22207669736962696105808301527f6c6974793d223c212d2d6f6365616e2d2d3e222f3e3c706174682066696c6c3d6105a08301527f22234541434346392220643d226d2d3331203331382036392d323320313034206105c08301527f32372036382d33372038362034302036352d32352034342031392036302d33346105e08301527f203532203338203130322d37203436203230203134302d3235203930203438206106008301527f36322d34322034362032382039382d3334763838482d33317a222076697369626106208301527f696c6974793d223c212d2d6d6f756e7461696e732d2d3e222f3e3c70617468206106408301527f66696c6c3d223c212d2d63632d2d3e2220643d224d31303935203130393656336106608301527f34356c2d3236352034382d3235312d32342d3138332032352d3334362d34342d6106808301527f36392d3134763736307a222f3e3c706174682066696c6c3d22234246363645456106a08301527f2220643d224d34363020343036683232762d3232682d32327a6d3632312d32306106c08301527f762d3330682d3236763330682d3134762d3433682d3435762d3632682d3335766106e08301527f313034682d3330762d3632682d3239763632682d323656323731682d333076316107008301527f3135682d3139762d3432682d3331763233682d3232762d3633682d34367635396107208301527f682d3437763233682d3138762d3339682d3331763339682d3231762d3237682d6107408301527f3238763237682d3139762d3530682d3232763530682d323176323368377631346107608301527f683232762d313468313776313868313031762d3138683132763234683334762d6107808301527f36683232763130683332762d31316838763233683238762d32336836763130686107a08301527f3239762d3238683135763139683334763132683337762d3135683238762d31376107c08301527f683235763334683336762d3333683131763332683534762d3332683138762d326107e08301527f33682d31367a6d2d313335203631683136762d3132682d31367a2220766973696108008301527f62696c6974793d223c212d2d636974792d2d3e222f3e3c706174682066696c6c6108208301527f3d22233934303045332220643d224d31303935203532302d313920343137762d6108408301527f32336c31313134203130327a22207669736962696c6974793d223c212d2d72696108608301527f7665722d2d3e222f3e3c67207669736962696c6974793d223c212d2d706f6c616108808301527f722d2d3e223e3c75736520687265663d2223746275736822207472616e73666f6108a08301527f726d3d226d617472697828342e313620302030202d342e3136203838203730366108c08301527f29222f3e3c75736520687265663d222374686275736822207472616e73666f726108e08301527f6d3d226d61747269782831302e3220302030202d31302e3220313135372039306109008301527f3529222f3e3c75736520687265663d22236669723122207472616e73666f726d6109208301527f3d226d617472697828312e3220302030202d312e32203937312034363329222f6109408301527f3e3c75736520687265663d222366697232222f3e3c2f673e3c672076697369626109608301527f696c6974793d223c212d2d74656d7065726174652d2d3e223e3c7061746820666109808301527f696c6c3d22233634393632342220643d224d313120373431632d322d393320316109a08301527f34352d39332031343320307a6d39363320323532632d342d323335203336362d6109c08301527f3233362033363320307a222f3e3c75736520687265663d22236274726565222f6109e08301527f3e3c75736520687265663d2223707472656522207472616e73666f726d3d226d610a008301527f6174726978282d2e3320302030202d2e34203938302035373629222f3e3c2f67610a208301527f3e3c67207669736962696c6974793d223c212d2d6465736572742d2d3e223e3c610a408301527f75736520687265663d2223627573683122207472616e73666f726d3d22747261610a608301527f6e736c61746528373520373433297363616c6528312e383329222f3e3c757365610a808301527f20687265663d2223627573683122207472616e73666f726d3d227472616e736c610aa08301527f617465283130373820393430297363616c6528342e343829222f3e3c75736520610ac08301527f687265663d222370616c6d3122207472616e73666f726d3d227472616e736c61610ae08301527f74652831343020373535297363616c6528322e303729222f3e3c757365206872610b008301527f65663d222363616374757322207472616e73666f726d3d226d61747269782831610b208301527f2e382030203020312e38203932302034353529222f3e3c2f673e3c7061746820610b408301527f66696c6c3d22234139333345392220643d224d3334203936375630682d353376610b608301527f313039366831313134563936377a222f3e3c67207472616e73666f726d3d226d610b808301527f617472697828312e352030203020312e35203830372039323029223e3c212d2d610ba08301527f666c6f7765722d2d3e3c2f673e3c706174682066696c6c3d2223413933334539610bc08301527f2220643d224d3334203936375630682d35337631303936683131313456393637610be08301527f7a222f3e3c706174682066696c6c3d22234139333345392220643d224d313038610c008301527f32203136357631324830762d31327a222f3e3c706174682066696c6c3d222341610c208301527f39333345392220643d224d3338362031303830682d313256306831327a6d3335610c408301527f312030682d313256306831327a222f3e3c706174682066696c6c3d2223414137610c608301527f3033352220643d224d373339203130323168333536763237483733397a222f3e610c808301527f3c706174682066696c6c3d22234141373033352220643d224d38343320313034610ca08301527f30683233763739682d32337a6d2d36392030683233763739682d32337a4d3436610cc08301527f332035313268323576363336682d32357a222f3e3c706174682066696c6c3d22610ce08301527f234141373033352220643d224d3238362039383268333739763232483238367a610d008301527f6d302d33363968333739763232483238367a222f3e3c706174682066696c6c3d610d208301527f22234141373033352220643d226d33363320313230372d32352d332038372d36610d408301527f333020323520337a6d3133382d3633302032352d33203837203633302d323520610d608301527f337a222f3e3c706174682066696c6c3d22234242384435442220643d224d3832610d808301527f38203933326832363776383948373339222f3e3c67207472616e73666f726d3d610da08301527f226d6174726978282e333220302030202e3332203330322036333629223e3c21610dc08301527f2d2d6e66742d2d3e3c2f673e3c706174682066696c6c3d226e6f6e6522207374610de08301527f726f6b653d222346424431383522207374726f6b652d77696474683d22313022610e008301527f20643d224d333031203633356833343876333438483330317a222f3e3c706174610e208301527f682066696c6c3d22234141373033352220643d224d3430352039373868313430610e408301527f763337483430357a6d302d33383668313430763433483430357a222f3e3c6369610e608301527f72636c652063783d22313039222063793d223834352220723d22363222206669610e808301527f6c6c3d2223424238443544222f3e3c636972636c652063783d22373822206379610ea08301527f3d223836382220723d223131222066696c6c3d2223394242323234222f3e3c63610ec08301527f6972636c652063783d223730222063793d223833322220723d22313122206669610ee08301527f6c6c3d22676f6c64222f3e3c636972636c652063783d223934222063793d2238610f008301527f30332220723d223131222066696c6c3d2223453633333241222f3e3c63697263610f208301527f6c652063783d22323132222063793d223635362220723d223633222066696c6c610f408301527f3d2223464339222f3e3c706174682066696c6c3d22234242384435442220643d610f608301527f226d34313020383230203620352d35362035362d352d367a222f3e3c63697263610f808301527f6c652063783d22333534222063793d223838362220723d223233222066696c6c610fa08301527f3d2223464339222f3e3c706174682066696c6c3d22236632653563652220643d610fc08301527f226d323335203734362037342d3137203631203236382d37342031377a222f3e610fe08301527f3c706174682066696c6c3d22236632653563652220643d224d313134203732396110008301527f6831393476343432483131347a222f3e3c706174682066696c6c3d22236632656110208301527f3563652220643d226d313135203732392037332031362d3437203231322d37346110408301527f2d31377a6d323035203134372037332031372d3233203130342d37342d31377a6110608301527f222f3e3c706174682066696c6c3d22236632653563652220643d224d31373320611080830152701b989a341b9bbb199834169b9b3d11179f60791b6110a0830152519150819061074090826128d6565b8280fd5b6020808252825181830181905290939260005b82811061290b57505060409293506000838284010152601f8019910116010190565b8181018601518482016040015285016128e956fea264697066735822122054bb7f22bc6d1629c1f8c5b204d77b3670fd540adab92112349fd2a647cc526f64736f6c63430008190033","linkReferences":{}},"methodIdentifiers":{"getBeachSVG()":"f932c830","getLandscapeSVG()":"84f959ab","getSkyscraperSVG()":"e7e5a563"},"id":12}