{"abi":[{"type":"function","name":"getBeach","inputs":[{"name":"index","type":"uint256","internalType":"uint256"}],"outputs":[{"name":"","type":"bytes","internalType":"bytes"}],"stateMutability":"pure"},{"type":"function","name":"getBeachColors","inputs":[{"name":"index","type":"uint256","internalType":"uint256"}],"outputs":[{"name":"","type":"string","internalType":"string"},{"name":"","type":"string","internalType":"string"}],"stateMutability":"pure"},{"type":"function","name":"getBeachSkinColor","inputs":[{"name":"index","type":"uint256","internalType":"uint256"}],"outputs":[{"name":"","type":"string","internalType":"string"},{"name":"","type":"string","internalType":"string"}],"stateMutability":"pure"},{"type":"function","name":"getClimateZoneForLandscape","inputs":[{"name":"index","type":"uint256","internalType":"uint256"}],"outputs":[{"name":"","type":"string","internalType":"string"},{"name":"","type":"string","internalType":"string"},{"name":"","type":"uint256","internalType":"uint256"}],"stateMutability":"pure"},{"type":"function","name":"getLandscape","inputs":[{"name":"index","type":"uint256","internalType":"uint256"}],"outputs":[{"name":"","type":"bytes","internalType":"bytes"}],"stateMutability":"pure"},{"type":"function","name":"getSkylineType","inputs":[{"name":"index","type":"uint256","internalType":"uint256"}],"outputs":[{"name":"","type":"uint256","internalType":"uint256"}],"stateMutability":"pure"},{"type":"function","name":"getSkyscraper","inputs":[{"name":"index","type":"uint256","internalType":"uint256"}],"outputs":[{"name":"","type":"bytes","internalType":"bytes"}],"stateMutability":"pure"},{"type":"function","name":"getTradingChartAddress","inputs":[{"name":"index","type":"uint256","internalType":"uint256"}],"outputs":[{"name":"","type":"address","internalType":"address"}],"stateMutability":"pure"},{"type":"function","name":"isCityCoastal","inputs":[{"name":"index","type":"uint256","internalType":"uint256"}],"outputs":[{"name":"","type":"bool","internalType":"bool"}],"stateMutability":"pure"}],"bytecode":{"object":"0x60808060405234601557613fca908161001b8239f35b600080fdfe60806040908082526004908136101561001757600080fd5b60009160e0918335831c90816313aa362d14613cf3575080631c6e9c1514613a95578063228b974b1461370c5780637cc3bd5114613525578063b00a26b7146132e6578063c1321e1914612f14578063df33f66414611d11578063ebb57c6514610dcc5763ec7803c51461008a57600080fd5b34610dc85760209283600319360112610dc55750610dc191610db0916100ae613e81565b916100b7613f1a565b60108082526f01890a2b7fff61990068a637b73237b760811b888301529084526100df613f1a565b90600f918281526e02ea15fc002228f000a5506172697360881b8982015288860152610109613f1a565b9160139283815271bf28c300211712002d119c985b9ad99d5c9d606a1b8a8201528a870152610136613f1a565b906011918281526f5a625b80103e92201b0b58778e4d2c6d607b1b8b8201526060880152610162613f1a565b8381526e9a4f62fff1eaee002d1358591c9a5960821b8b8201526080880152610189613f1a565b9460129586815271031cfe40014087b800a0576172736368617560701b8c82015260a08901526101b7613f1a565b8581527203181a6000445f25009a526f7474657264616d60681b8c82015260c08901526101e2613f1a565b8381526fad7ce30022ee0b803253585a5b185b99607a1b8c82015290880152610209613f1a565b600e81526d016ffce7007d3b0b005a2bb4b2b760911b8b820152610100880152610231613f1a565b858152709cb5bc806ea999c02a525cdd185b989d5b60721b8b82015261012088015261025b613f1a565b8381526f0352ab7f023cb94a00954d6f736b617560801b8b820152610140880152610284613f1a565b84815272038a67ca0111cffa009253746f636b686f6c6d60681b8b8201526101608801526102b0613f1a565b85815270c205938010a0a78031d09cb0ef1cdcd95b60721b8b8201526101808801526102da613f1a565b84815272fe9883c5fd380913002c53616f205061756c6f60681b8b8201526101a0880152610306613f1a565b6016815275fdefda01fc857b8e000a4275656e6f7320416972657360501b8b8201526101c0880152610336613f1a565b601b81527ffe020d6cfbcaad26015653616e746961676f206465204368696c6500000000008b8201526101e088015261036d613f1a565b600e81527fff46d4fafb68a7c001364c696d610000000000000000000000000000000000008b8201526102008801526103a4613f1a565b8381526e465693fb95ccf1012b426f676f746160801b8b8201526102208801526103cc613f1a565b8281526fa0326dfc032bc801194361726163617360781b8b8201526102408801526103f5613f1a565b6014815273fdeb83d3fca691ce01624d6f6e7465766964656f60601b8b820152610260880152610423613f1a565b858152717f3f12eafe4837d7801020b9bab731b4b7b760711b8b82015261028088015261044e613f1a565b8381527fff0441cbfbf0614f012f4c612050617a000000000000000000000000000000008b8201526102a0880152610484613f1a565b601681527468973afd572131802ea9b0b71029b0b63b30b237b960511b8b8201526102c08801526104b3613f1a565b6016815275fe70205c01abfdd401604a6f68616e6e65736275726760501b8b8201526102e08801526104e3613f1a565b8281527fffec28880231b4bf005d4e6169726f62690000000000000000000000000000008b820152610300880152610519613f1a565b8181526d626b030033c25c00794c61676f7360881b8b820152610320880152610540613f1a565b601581527389829f024f5e250110416464697320416265626160581b8b82015261034088015261056e613f1a565b601781527fff97e3de02575eef00444461722065732053616c61616d0000000000000000008b8201526103608801526105a5613f1a565b8381527fff798c6100c9e9c3005a4c75616e6461000000000000000000000000000000008b8201526103808801526105db613f1a565b8181526d54ca21fffceb120084416363726160881b8b8201526103a0880152610602613f1a565b85815270289fbb7fe155bf002d20b134b234b530b760711b8b8201526103c088015261062c613f1a565b8181526e01ca5efc01dc94ea011b4b6169726f60881b8b8201526103e0880152610654613f1a565b8181526e02319819009b6a6a00a554756e697360881b8b82015261040088015261067c613f1a565b8381526f01184c7b00180f31004aa0b633b4b2b960811b8b8201526104208801526106a5613f1a565b6014815273020023eeff8b138c009243617361626c616e636160601b8b8201526104408801526106d3613f1a565b601781527f026df430fb97333b00d04e657720596f726b20436974790000000000000000008b82015261046088015261070a613f1a565b82815270029a121bfb44bdda00a3546f726f6e746f60781b8b820152610480880152610734613f1a565b82815270027f0f03fac6d4d600b24368696361676f60781b8b8201526104a088015261075e613f1a565b6015815274020798e8f8f38f5500b44c6f7320416e67656c657360581b8b8201526104c088015261078d613f1a565b601781527f0240b4c5f8b4483100ab53616e204672616e636973636f0000000000000000008b8201526104e08801526107c4613f1a565b8181526e018919c7fb38581d00584d69616d6960881b8b8201526105008801526107ec613f1a565b601581527401286640fa16c55900f34d657869636f204369747960581b8b82015261052088015261081b613f1a565b600e81526d0181cb6403127ef50057446f686160901b8b820152610540880152610843613f1a565b8181526e01807a68034b6b1400b4447562616960881b8b82015261056088015261086b613f1a565b8381526e59ff3a80dee4a5001d13585cdad85d60821b8b820152610580880152610893613f1a565b600e81526c5e575400b2084a0026549a585960921b8b8201526105a08801526108ba613f1a565b8181526e0146d6e6003cc41900584d656b6b6160881b8b8201526105c08801526108e2613f1a565b8481527201e49f020219401800644a65727573616c656d60681b8b8201526105e088015261090e613f1a565b848152720174fcbb033da378009641627520446861626960681b8b82015261060088015261093a613f1a565b8381526e7f14a300a93f96802b109859d9185960821b8b820152610620880152610962613f1a565b8581527101ff56c60229e896006044616d61736b757360701b8b82015261064088015261098d613f1a565b8281527001107f290187a027005f2a32b432b930b760791b8b8201526106608801526109b7613f1a565b8381526f0260ed5a01f55c66009e416e6b61726160801b8b8201526106808801526109e0613f1a565b8381526f01e16918046e64ba000c4c61686f726560801b8b8201526106a0880152610a09613f1a565b8381526f012313fa04580572000c4d756d62616960801b8b8201526106c0880152610a32613f1a565b8481527201b49d33049a1dbf000c4e65752d44656c686960681b8b8201526106e0880152610a5e613f1a565b8581527101586e6505445374000c4b616c6b7574746160701b8b820152610700880152610a89613f1a565b8281526fd1e7ab05fd8905000c42616e676b6f6b60781b8b820152610720880152610ab2613f1a565b8181526e0140de9f064e7411000c48616e6f6960881b8b820152610740880152610ada613f1a565b8181526e016b511b056395e9000c4468616b6160881b8b820152610760880152610b02613f1a565b8381526f0260e3c806f03c64000c50656b696e6760801b8b820152610780880152610b2b613f1a565b8481527201c31b700659d2f4000c43686f6e6771696e6760681b8b8201526107a0880152610b57613f1a565b85815270abfd7d83663146000629b432b73d3432b760711b8b8201526107c0880152610b81613f1a565b8581527101dc89b7073d8aa5000c5368616e6768616960701b8b8201526107e0880152610bac613f1a565b8181526e0220940f085386bf000c546f6b696f60881b8b820152610800880152610bd4613f1a565b9081526d8f4e1201e461eb800314d95bdd5b608a1b8a820152610820870152610bfb613f1a565b8281526f030cc870044239f2000c417374616e6160801b8a820152610840870152610c24613f1a565b83815271972a4100ff7d3f400314d85b585c9ad85b99606a1b8a820152610860870152610c4f613f1a565b601681527417f2dd8307cf23800625bab0b63090263ab6b83ab960511b8a820152610880870152610c7e613f1a565b848152700a50c98318151f800629b4b733b0b83ab960711b8a8201526108a0870152610ca8613f1a565b9081527fffa14305065e559f000c4a616b61727461000000000000000000000000000000898201526108c0860152610cde613f1a565b8181526edec5580736129e000c4d616e696c6160801b898201526108e0860152610d06613f1a565b9081526ffdfb33ec09034550000c5379646e657960801b88820152610900850152610d2f613f1a565b90815272fdbf028308a3f5f2000c4d656c626f75726e6560681b87820152610920840152610d5b613f1a565b81815271fde5a7d708e38b19000c43616e626572726160701b87820152610940840152610d86613f1a565b908152713f736f2cc29aab520003105d58dadb185b9960721b868201526109608301523590613f3a565b519251928284938452830190613e19565b0390f35b80fd5b8280fd5b5034610dc85760209283600319360112610dc55750610dc191610db091610df1613eb8565b91610dfa613f1a565b60118082526f4051b2ff2a7666201a4a0d0decadcd2f607b1b8883015290845290610e23613f1a565b8281526fb5d21280fb7c7c0077bab735b737bbb760791b8882015284880152610e4a613f1a565b916017928381527ffe96ba6107fb2bff00d2416c69636520537072696e67730000000000000000008982015289860152610e82613ed9565b602581527ffea20119fbef0264003b53616e20506564726f2064652041746163616d612c2089820152644368696c6560d81b8a8201526060860152610ec5613f1a565b9160129283815270ff857dffd1f343001454696d62756b747560701b8a8201526080870152610ef2613f1a565b838152710230362904e837b000b64d6f6e676f6c656960701b8a82015260a0870152610f1c613f1a565b601581527401f774a5f9a9d67f00a257686974652053616e647360581b8a82015260c0870152610f4a613f1a565b90601a82527f022965f7f925936a00ea6c6173205665676173204e65766164610000000000008a830152860152610f7f613f1a565b601981527f023b5baaf969308500804d6f6e756d656e742056616c6c65790000000000000089820152610100860152610fb6613f1a565b92600f938481526e0271fb82061e671900b94368696e6160881b8a820152610120870152610fe2613f1a565b8481526d764aca80f75a9d002929bab230b760891b8a820152610140870152611009613f1a565b82815270fea4116800e19844011b4e616d6962696160781b8a820152610160870152611033613f1a565b600e81526d0126bb707cb7458d005a26b7b0b160911b8a82015261018087015261105b613f1a565b82815270fe079ba1fbe734f401484d656e646f7a6160781b8a8201526101a0870152611085613f1a565b8481526d7514f00150d3dc002c2cb2b6b2b760891b8a8201526101c08701526110ac613f1a565b83815270910d7600dee5358034905cd9da1858985d60721b8a8201526101e08701526110d6613f1a565b8281526fc9796b822e1bf08053a537b238343ab960791b8a8201526102008701526110ff613f1a565b936010948581526e64bcb5c1170df84029d35d5cd8d85d60821b8b82015261022088015261112b613f1a565b9260139384815271db453c8110dcfd807e2537b93230b734b2b760691b8c82015261024089015261115a613f1a565b8681526e470f7d9ff8e34a401788eeac2c8d2f60831b8c820152610260890152611182613f1a565b60168152750137ecf902f9592200b552756220616c204b68616c6960501b8c8201526102808901526111b2613f1a565b601881527ffe8fa9df081e283c000053696d70736f6e2044657365727400000000000000008c8201526102a08901526111e9613f1a565b600e81527fff2cd18efb718c7a0145706572750000000000000000000000000000000000008c8201526102c0890152611220613f1a565b85815271fe9d8e0bfbce6eb901544174746163616d6160701b8c8201526102e089015261124b613f1a565b8381527583ca21fe474d36402a135bda985d994811195cd95c9d604a1b8c82015261030089015261127a613f1a565b85815271fe7f8b490143e67000004b616c616861726960701b8c8201526103208901526112a5613f1a565b600e81526d02a8ce5c066768c500b4476f626960901b8c8201526103408901526112cd613f1a565b838152756813ab406b99afc02cd5da1a5d194819195cdcd95c9d604a1b8c8201526103608901526112fc613f1a565b601881527f020f7f95f92eb79000e4436f6c6f7261646f20526976657200000000000000008c820152610380890152611333613f1a565b858152702ffda1806b779b6011a8cead4c2d2e4c2d60731b8c8201526103a089015261135d613f1a565b92601493848152721fadcb02b3082c00854d6f676164697363687560601b8d8201526103c08a015261138d613f1a565b6016815275010336ae014d513200c3456e65646920506c6174657560501b8d8201526103e08a01526113bd613f1a565b84815273012e8cd60128446f0115456d69204b6f7573736960601b8d8201526104008a01526113ea613f1a565b8681527fffbddee400e80c0000644b696e736861736100000000000000000000000000008d8201526104208a0152611420613f1a565b600e81526d0180f4f580e900e2805f25b4b2bb60911b8d8201526104408a0152611448613f1a565b82815270020f61b00247c464005d50616c6d79726160781b8d8201526104608a0152611472613f1a565b6016815274f5c0747fbff468800315985d1b985ab0ed9add5b1b60521b8d8201526104808a01526114a1613f1a565b8481527304c0b3bd00b0140500314e6f72736c6f79616e6560601b8d8201526104a08a01526114ce613f1a565b8381526e013ab186ff122c2dc057505b195c9d608a1b8d8201526104c08a01526114f6613f1a565b84815273043dfdf70189784400044e6f727468204361706560601b8d8201526104e08a0152611523613f1a565b8581527203d23601feb53c1101175265796b6c6176696b60681b8d8201526105008a015261154f613f1a565b8781526f043fa25af6a7ce04014b426172726f7760801b8d8201526105208a0152611578613f1a565b8781526f040b29a90136d5ea01214b6972756e6160801b8d8201526105408a01526115a1613f1a565b82815270fcbb75c2fbed6d8a013f5573687561696160781b8d8201526105608a01526115cb613f1a565b8681527101e41e6184414dc0800d27bcb6bcb0b5b7b760711b8d8201526105808a01526115f6613f1a565b8181527f04f3f8cefbccd02e01654361706520436f6c756d6269610000000000000000008d8201526105a08a015261162c613f1a565b8581527201f9598b057c8513003951696e67205a616e6760681b8d8201526105c08a0152611658613f1a565b601981527f0256854a0452e8fd00b450616d6972204d6f756e7461696e73000000000000008d8201526105e08a015261168f613f1a565b858152720227c832048278a4004a4368616e6774616e6760681b8d8201526106008a01526116bb613f1a565b601681527458c62c000f3aa78010e94eadccecce4c2ead4dec6d60531b8d8201526106208a01526116ea613f1a565b848152726af6c3814bdf9a403a535d08115d995c995cdd60621b8d8201526106408a0152611716613f1a565b84815273fc0c79350602883c00b2416e746172637469636160601b8d8201526106608a0152611743613f1a565b8181527f0493c43e0401732b0143727573736961206172637469730000000000000000008d8201526106808a0152611779613f1a565b82815270014e62158054238b801f233637b932b73d60791b8d8201526106a08a01526117a3613f1a565b858152720294e45300539d9c00f74d61727365696c6c6560681b8d8201526106c08a01526117cf613f1a565b8781526f018512a6005676cc806b2bb2b4b6b0b960811b8d8201526106e08a01526117f8613f1a565b601581527402376b36faacfe3d00bd4d6973736973736970706960581b8d8201526107008a0152611827613f1a565b85815272036a47e5ffbb6b2400644c6f6368204e65737360681b8d8201526107208a0152611853613f1a565b8381526e0365eace0294715100c7566f6c676160881b8d8201526107408a015261187b613f1a565b8181527f02b94b950186d8e400b45472616e73696c76616e69656e0000000000000000008d8201526107608a01526118b1613f1a565b8681527fffbcbcaa06424a2500004d616c617973696100000000000000000000000000008d8201526107808a01526118e7613f1a565b8781526ffdcd7aec08a5e72b00294d757272617960801b8d8201526107a08a0152611910613f1a565b86815271031005e5006678370074447569736275726760701b8d8201526107c08a015261193b613f1a565b8781526f02fbc4fd012f8fed00874b72616b6f7760801b8d8201526107e08a0152611964613f1a565b86815270b54ab5c048aa228014909d59185c195cdd60721b8d8201526108008a015261198e613f1a565b8581527202bf39d000dddf9f00b54c6a75626c6a616e6160681b8d8201526108208a01526119ba613f1a565b9081527f02412761f8b25068007f53616e204672616e636973636f0000000000000000008c8201526108408901526119f0613f1a565b8681526f02602b79ffc2b99e0105546f6c65646f60801b8c820152610860890152611a19613f1a565b8281526e0230d55f0852410d00bc4e696b6b6f60881b8c820152610880890152611a41613f1a565b8681526e2fc5b3e0e7be8fe00d8a8c2d2e0cad60831b8c8201526108a0890152611a69613f1a565b8681526f0199451f05f96aad015f4c696a616e6760801b8c8201526108c0890152611a92613f1a565b81815270016028bcfb16b1a80013486176616e6e6160781b8c8201526108e0890152611abc613f1a565b601881527f0118b567fb6b5e0b009f4b696e6773746f776e20546f776e00000000000000008c820152610900890152611af3613f1a565b90815270031f4920063624cc00b249726b7574736b60781b8b820152610920880152611b1d613f1a565b601581527403571a2f058a960d012a4b7261736e6f796172736b60581b8b820152610940880152611b4c613f1a565b60158152740347d1d204f075e600b14e6f766f7369626972736b60581b8b820152610960880152611b7b613f1a565b9081526e018670817c8e368d80252130b7333360891b8a820152610980870152611ba3613f1a565b9081527302d63094fcdaedf9008153742e204a6f686e277360601b898201526109a0860152611bd0613f1a565b82815270ae36c87ee7b3a64037d35bdb9d1c99585b60721b898201526109c0860152611bfa613f1a565b8381526f01e8b9cd7bd7f6cd002ca230bbb9b7b760811b898201526109e0860152611c23613f1a565b6016815274783310bf0a0ae160144dcc2c2e8e6d2d0c6d04eded60531b89820152610a00860152611c52613f1a565b8381526ffed676b6fd776a81014249676961637560801b89820152610a20860152611c7b613f1a565b908152712b1663fc628a610118426f6120566973746160681b88820152610a40850152611ca6613f1a565b9081527fff0d7113fd2190fa004742726173696c6961000000000000000000000000000087820152610a60840152611cdc613f1a565b9081527fff4982a7010db698014b4375616e7a610000000000000000000000000000000086820152610a808301523590613f61565b5034610dc85760209283600319360112610dc55750610dc191610db091611d36613ef9565b91611d3f613f1a565b6019908181527f0120f1cef6b90734009a506170616b6f6c656120426561636800000000000000888201528452611d74613f1a565b8181527fffed4db1fa9c1a10000850756e746120436f726d6f72616e74000000000000008882015287850152611da8613f1a565b601b81527f03c77458fedd512100be5265796e6973666a61726120426561636800000000008882015288850152611ddd613f1a565b906018918281527f0123f9c8f6bb2f16007250756e616c7527752042656163680000000000000000898201526060860152611e16613f1a565b92601593848152739b8c75fae2551200e5506c617961204e6567726160581b8a8201526080870152611e46613f1a565b601d81527f022ab4a101833ada00ff56696b2042656163682053616e746f72696e690000008a82015260a0870152611e7c613f1a565b8381527ffdcb34be0a664504010e4b6172656b61726520426561636800000000000000008a82015260c0870152611eb1613f1a565b90601f82527f013d35eff6b3939f005a426c61636b2053616e64204265616368204d617569008a830152860152611ee6613f1a565b8281527ed3937dfc5c05f20100416e7365204368617374616e6574000000000000000089820152610100860152611f1b613f1a565b8881527f025022da00e885e601655370696167676961206469204669636f6772616e646589820152610120860152611f51613f1a565b8181527f01b3fbf5ff08eaff014a506c6179612064652042656e696a6f0000000000000089820152610140860152611f87613f1a565b601c81527f01b3c717ff06c64b011e506c61796120646520656c204172656e616c0000000089820152610160860152611fbe613f1a565b601d81527ffebb8f55034c4bb5010e506c616765206465204574616e672053616c6500000089820152610180860152611ff5613f1a565b90601791828152754555ab6030955640102a0cae4d2e6e6c24084cac2c6d604b1b8a8201526101a0870152612028613ed9565b602181527f03a48766f72ba0e80102426c61636b2053616e6420426561636820416c61736b8a820152606160f81b8b8201526101c0870152612068613f1a565b8981527f03cd61d2ff010e6600a85376696e6166656c6c736a6f6b756c6c2042656163688a8201526101e087015261209e613f1a565b601f81527ffef50d90f716dee7010e506c61676520646520506f696e74652056656e7573008a8201526102008701526120d5613f1a565b601c81527e62113205f2be0f012850616e74616920506173697220486974616d000000008a82015261022087015261210b613ed9565b602181527f01851a05fb6eb2db005650696e6b2053616e6420426561636820426168616d618a820152607360f81b8b82015261024087015261214b613f1a565b8281527f0275df37008ec3e7007a537069616767696120526f73610000000000000000008a820152610260870152612181613f1a565b93601a948581527f021a312901673665009e456c61666f6e697373692042656163680000000000008b8201526102808801526121bb613f1a565b93601694858152751fef981040e3f796a01a4a0c2dce8c2d2409acae4c2d60531b8c8201526102a08901526121ee613f1a565b8281527318ff71df8e9e8a6010e86e4c2dcca4084cac2c6d605b1b8c8201526102c089015261221b613f1a565b8b81527f01ec2115fc22e7260096486f7273652053686f6520426179204265726d7564618c8201526102e0890152612251613ed9565b602281527e68ccdf07465c0700ef4772616e64652053616e7461204372757a2049736c618c820152611b9960f21b8d820152610300890152612291613f1a565b601c81527f010ce41afc503f33011950696e6b2042656163682042617262756461000000008c8201526103208901526122c8613f1a565b601481527fffbd43130353e28d010e5365796368656c6c656e0000000000000000000000008c8201526103408901526122ff613f1a565b8481527ffdfa1b72011860690142436c6966746f6e2042656163680000000000000000008c820152610360890152612335613f1a565b601b81527fffbeec3c025c3c56005a4469616e61204265616368204b656e796100000000008c82015261038089015261236c613f1a565b8581527fffa8a8c30257979e01564e756e677769204265616368000000000000000000008c8201526103a08901526123a2613f1a565b8381527f01a9faff020c3e2000b4536861726d20456c20536865696b68000000000000008c8201526103c08901526123d8613f1a565b8681527ffecbcbf80371ae23000442656c6c61204d6172652042656163680000000000008c8201526103e089015261240e613f1a565b601e81527efd2679fea25131007350726169612064652053616e7461204d6172696100008c820152610400890152612444613f1a565b84815275382c3bbfecb582e01ee98cacef4d2e4c24084cac2c6d604b1b8c820152610420890152612473613f1a565b858152741982f07fdff6a5001fc84d2d4d2d8de4084cac2c6d60531b8c8201526104408901526124a1613f1a565b601381527fff6c52c400c96958015f4361626f204c65646f000000000000000000000000008c8201526104608901526124d8613f1a565b6014815273fea182b8fd6d22a90091436f7061636162616e6160601b8c820152610480890152612506613f1a565b601c81527ffeca53b608e269dc000357686974652048656176656e204265616368000000008c8201526104a089015261253d613f1a565b6013815272014cc8cefbb2d4b0012247726163652042617960681b8c8201526104c089015261256a613f1a565b8681527f01a007c5fb1454a100d2536965737461204b65792042656163680000000000008c8201526104e08901526125a0613f1a565b8481527f014975f5fb23a6a0009b506c617961205061726169736f0000000000000000008c8201526105008901526125d6613f1a565b8581527fff039e02f6f4a7f3010b4d6174697261204265616368000000000000000000008c82015261052089015261260c613f1a565b8481527528cd8c3ed32ebd4008e98c2dcd2d6c2d24084cac2c6d604b1b8c82015261054089015261263b613f1a565b8281527326760adf5932d4200dea8ead8eada4084cac2c6d605b1b8c820152610560890152612668613f1a565b601d81527eb6633c07447de400f4576869746520426561636820426f72616361790000008c82015261058089015261269e613f1a565b828152741fbd0192211f71a4a001690f2c2dae64084cac2c6d605b1b8c8201526105a08901526126cc613f1a565b8681527ebfcbf4fbd327a1012750616c6d2042656163682041727562610000000000008c8201526105c0890152612701613f1a565b8381527fffc5311bfe10f5aa0130507261696120646f2053616e63686f000000000000008c8201526105e0890152612737613f1a565b8181527f011a062bfbec65700071506c617961204a75616e696c6c6f00000000000000008c82015261060089015261276d613ed9565b602581527f01914366079fce5300e457686974652042656163682c204f6b696e6177612c208c820152642530b830b760d91b8d8201526106208901526127b1613f1a565b8181527e3c31e20461605901274d6161667573686920426561636800000000000000008c8201526106408901526127e6613f1a565b858152740a0621608b8cd3000caa4cacae8d0d24084cac2c6d60531b8c820152610660890152612814613f1a565b8181527ecdea8afaab46a30096506c61796120456c205a6f6e746500000000000000008c820152610680890152612849613f1a565b828152735e2a679ffe55d2600309edac2d0c24084cac2c6d605b1b8c8201526106a0890152612876613f1a565b8581527418df38c0992017800cc8ed0c2dcc8d24084cac2c6d60531b8c8201526106c08901526128a4613f1a565b601281527075238205e30d7901424d6179612042617960701b8c8201526106e08901526128cf613f1a565b60128152710179d2fb086c4c77009649776f204a696d6160701b8c8201526107008901526128fb613f1a565b8281527fff7af7fd06dd5569010450616e746169204b75746100000000000000000000008c820152610720890152612931613f1a565b8681527f0235f152ff7fa40e00b45072616961206461204d6172696e68610000000000008c820152610740890152612967613f1a565b601e81527f024f6d480015e6e3010e506c6179612064652073657320496c6c6574657300008c82015261076089015261299e613f1a565b84815275aa1b487ffb5c36804a111d5b9948191d48141a5b185d604a1b8c8201526107808901526129cd613f1a565b6014815272a501a6803f744bc02d169b185d1b9a4814985d60621b8c8201526107a08901526129fa613f1a565b8481527f0382a2850055609100ce536f6c6172737472616e64656e0000000000000000008c8201526107c0890152612a30613f1a565b8681527f02fb9823ffa9ca14008a506f7274686375726e6f2042656163680000000000008c8201526107e0890152612a66613f1a565b8181527f026169c8003c135f00b743616c61204d61636172656c6c6100000000000000008c820152610800890152612a9c613f1a565b60148152730116da1300de1ea4005961cb3661de3232b734bd60611b8c820152610820890152612aca613f1a565b8281527342bc188040cb3dc01689cd2e6e6d24084cac2c6d605b1b8c820152610840890152612af7613f1a565b8581527457862e1f138d552021c86c2dcdcdedc4084cac2c6d60531b8c820152610860890152612b25613f1a565b8481527f01f54242f9028e9900334c61204a6f6c6c6120436f76650000000000000000008c820152610880890152612b5b613f1a565b858152745b66377f1245290020ea4d2c2d8e8de4084cac2c6d60531b8c8201526108a0890152612b89613f1a565b8381527f010374f50339fbc100a5416c2042616c656564204265616368000000000000008c8201526108c0890152612bbf613f1a565b8181527f017fc6bf035bf00a011446756a616972616820426561636800000000000000008c8201526108e0890152612bf5613f1a565b8181527f018073f7034ac3a8010e4a756d656972616820426561636800000000000000008c820152610900890152612c2b613f1a565b9081527ffdeb9d86fcbc100f009250756e74612064656c204573746500000000000000008b820152610920880152612c61613f1a565b6014815272c03fdcfb2185c6009c4361796f20537563726560601b8b820152610940880152612c8e613f1a565b601181527fffc17269fb2b3ed0012f4d616e636f72610000000000000000000000000000008b820152610960880152612cc5613f1a565b908152733d1df902f212c68083383630b1b2b437b63232b960591b8a820152610980870152612cf2613f1a565b601181526fb6612407447f4700f4426f726163617960781b8a8201526109a0870152612d1c613f1a565b601b81527eb743c3058b345e006e56696a6179204e6167617220426561636800000000008a8201526109c0870152612d52613f1a565b83815274159b0700e3cb0d2021c9cc2c6e0c2dc4084cac2c6d60531b8a8201526109e0870152612d80613f1a565b601081526ffeedc99d07487b20014042726f6f6d6560801b8a820152610a00870152612daa613f1a565b9081527fff2c03bafb73baa400be506c61796120526f6a6120506572750000000000000089820152610a20860152612de0613f1a565b9081527ffe626c89fbc6cf0700ff426168696120496e676c65736100000000000000000088820152610a40850152612e16613f1a565b8281527fffe437b3fb2fbe8f00f5506c617961204d6f6e7461c3b169746100000000000088820152610a60850152612e4c613f1a565b9081527501bdb9519f698b63a01149af2e4e8d8ca4084cac2c6d60531b87820152610a80840152612e7b613f1a565b601b81527f03135593ff78e0be0099496e636861646f6f6e6579204265616368000000000087820152610aa0840152612eb2613f1a565b9081527f03733874ff95e53700d54c75736b656e7479726520426561636800000000000086820152610ac0830152612ee8613f1a565b6013815272fdf62d9401198f0a010e46616c73652042617960681b86820152610ae08301523590613f83565b50929192346132e25760209384600319360112610dc557612f33613ef9565b92600184526001868501526002809181878701528160608701528160808701528160a08701528160c08701528501528061010085015280610120850152806101408501528061016085015280610180850152806101a0850152806101c0850152806101e08501528061020085015280610220850152816102408501528161026085015281610280850152816102a0850152816102c0850152816102e08501528161030085015281610320850152826103408501528261036085015282610380850152826103a0850152600390816103c0860152836103e08601528161040086015281610420860152836104408601528161046086015281610480860152836104a0860152836104c0860152836104e08601528361050086015283610520860152836105408601528361056086015283610580860152836105a0860152836105c0860152816105e08601528361060086015283610620860152836106408601528361066086015280610680860152816106a0860152816106c0860152836106e0860152610700850152806107208501528061074085015282610760850152610780840152816107a0840152816107c0840152816107e08401526005908161080085015281610820850152816108408501528161086085015281610880850152816108a0850152826108c0850152816108e08501528261090085015281610920850152816109408501528161096085015281610980850152826109a0850152816109c0850152816109e085015282610a008501526006610a2085015282610a4085015281610a6085015281610a8085015282610aa085015282610ac085015282610ae085015284519360c0850185811067ffffffffffffffff8211176132cf578652613277906131bf613f1a565b600790818152662366666130653760c81b8a82015287526131de613f1a565b8181526608ce58988c8c8d60ca1b8a820152898801526131fc613f1a565b81815266119a3119b21b1b60c91b8a8201528888015261321a613f1a565b818152660236666643730360cc1b8a8201526060880152613239613f1a565b8181526611b333331ab13360c91b8a8201526080880152613258613f1a565b9081526611b3333232b31b60c91b8982015260a0870152843590613f83565b5192600660ff851610156132bc5750501b611fe016015190610dc1906a283630b1b2b437b63232b960a91b6132aa613f1a565b94600b86528501525192839283613e59565b634e487b7160e01b825260329052602490fd5b634e487b7160e01b835260418552602483fd5b8380fd5b50929192346132e25760203660031901126132e25761351b60209460ff9261330c613e81565b91808352808884015280878401528060608401528060808401528060a0840152806001968760c08601528401528061010084015285610120840152806101408401528561016084015280610180840152806101a0840152856101c0840152806101e08401528561020084015280610220840152856102408401528561026084015280610280840152806102a0840152806102c0840152806102e08401528061030084015285610320840152806103408401528561036084015285610380840152856103a0840152856103c0840152806103e08401528561040084015285610420840152856104408401528561046084015280610480840152806104a0840152856104c0840152856104e08401528561050084015280610520840152856105408401528561056084015285610580840152806105a0840152806105c0840152806105e08401528561060084015280610620840152806106408401528061066084015280610680840152806106a0840152856106c0840152806106e08401528061070084015280610720840152856107408401528061076084015280610780840152806107a0840152856107c0840152856107e08401528561080084015280610820840152806108408401528061086084015280610880840152856108a0840152856108c0840152856108e08401528561090084015285610920840152610940830152846109608301523590613f3a565b5116149051908152f35b50929034610dc85760209283600319360112610dc5578435835192610140840184811067ffffffffffffffff8211176136f9578552613562613f1a565b906007918281526611b33331b0b13360c91b888201528552613582613f1a565b828152662366666363393960c81b88820152878601526135a0613f1a565b8281526611b29b30b29b9b60c91b88820152868601526135be613f1a565b8281526611b1b19c331a9960c91b8882015260608601526135dd613f1a565b828152662362623766343360c81b8882015260808601526135fc613f1a565b828152662361613730333560c81b8882015260a086015261361b613f1a565b8281526608ce4c8d588c9960ca1b8882015260c086015261363a613f1a565b90828252662337613436323560c81b88830152850152613658613f1a565b818152662366666363373360c81b87820152610100850152613678613f1a565b9081526608d99998d8cd1960ca1b868201526101208401526003810290808204600314901517156136e657600a900690600a8210156136d3575060051b015190610dc1906a283630b1b2b437b63232b960a91b6132aa613f1a565b634e487b7160e01b815260328652602490fd5b634e487b7160e01b825260118652602482fd5b634e487b7160e01b845260418852602484fd5b50919290346132e25760209081600319360112613a9157613a6091613a67613a7c96613a899361373a613eb8565b91600280928185528187860152818a8601528160608601528160808601528160a08601528160c08601528401528161010084015281610120840152816101408401528161016084015281610180840152816101a0840152816101c0840152816101e08401528161020084015281610220840152816102408401528161026084015281610280840152816102a0840152816102c0840152816102e08401528161030084015281610320840152816103408401528161036084015281610380840152816103a0840152816103c0840152816103e084015281610400840152816104208401526001918261044085015261046084015280610480840152806104a0840152806104c0840152806104e08401528061050084015280610520840152806105408401528061056084015280610580840152806105a0840152806105c0840152806105e084015280610600840152806106208401528061064084015280610660840152610680830152806106a0830152806106c0830152806106e08301528061070083015280610720830152806107408301528061076083015280610780830152806107a0830152806107c0830152806107e08301528061080083015280610820830152806108408301528061086083015280610880830152806108a0830152806108c0830152806108e08301528061090083015280610920830152806109408301528061096083015280610980830152806109a0830152806109c0830152806109e083015280610a0083015280610a2083015280610a4083015280610a60830152610a8082015260ff613a5561398f613ed9565b92613998613f1a565b60058152642837b630b960d91b8782015284526139b3613f1a565b600981526854656d70657261746560b81b87820152868501526139d4613f1a565b600681526511195cd95c9d60d21b87820152898501526139f2613ed9565b996139fb613f1a565b60078152662344464232463760c81b888201528b52613a18613f1a565b600781526611a11ca19c9b1b60c91b88820152878c0152613a37613f1a565b60078152662346394232333360c81b888201528a8c01523590613f61565b511694858092613f72565b5196613f72565b51948451968796606088526060880190613e19565b9186830390870152613e19565b918301520390f35b8480fd5b508391346132e25760203660031901126132e25760209360ff92613ccc92613abb613e81565b92600380855280898601526002908189870152816001948560608901528160808901528560a08901528560c08901528701528161010087015280610120870152806101408701528361016087015283610180870152806101a0870152816101c0870152836101e08701528361020087015283610220870152826102408701528261026087015282610280870152826102a0870152826102c0870152836102e08701528361030087015283610320870152826103408701528261036087015282610380870152826103a0870152826103c0870152816103e08701528361040087015283610420870152836104408701528061046087015281610480870152806104a0870152816104c0870152816104e08701528161050087015280610520870152816105408701528061056087015283610580870152806105a0870152826105c0870152826105e08701528161060087015283610620870152826106408701528161066087015283610680870152836106a0870152806106c0870152806106e08701528161070087015281610720870152836107408701528361076087015280610780870152816107a0870152816107c0870152806107e08701528061080087015281610820870152836108408701528261086087015281610880870152806108a0870152806108c0870152816108e08701526109008601526109208501526109408401526109608301523590613f3a565b5116906a283630b1b2b437b63232b960a91b83613ce7613f1a565b600b8152015251908152f35b8585849234613e15576020366003190112613e1557833560a0820182811067ffffffffffffffff821117613e02578452735f4ec3df9cbd43714fe2740f5e3616155c5b8419825273f4030086522a5beea4988f8ca5b36dbc97bee88c602083015273ec8761a0a73c34329ca5b1d3dc7ed07f30e836e28483015273214ed9da11d2fbe465a6fc601a91e62ebec1a0d6606083015273379589227b15f1a12195d3f2d90bbc9f31f952356080830152600381029080820460031490151715613def5760059006916005831015613ddc57506020935060018060a01b039160051b0151169051908152f35b634e487b7160e01b815260328552602490fd5b634e487b7160e01b835260118552602483fd5b634e487b7160e01b845260418652602484fd5b5080fd5b919082519283825260005b848110613e45575050826000602080949584010152601f8019910116010190565b602081830181015184830182015201613e24565b9091613e70613e7e93604084526040840190613e19565b916020818403910152613e19565b90565b60405190610980820182811067ffffffffffffffff821117613ea257604052565b634e487b7160e01b600052604160045260246000fd5b60405190610aa0820182811067ffffffffffffffff821117613ea257604052565b604051906060820182811067ffffffffffffffff821117613ea257604052565b60405190610b00820182811067ffffffffffffffff821117613ea257604052565b604051906040820182811067ffffffffffffffff821117613ea257604052565b90604c811015613f4b5760051b0190565b634e487b7160e01b600052603260045260246000fd5b906055811015613f4b5760051b0190565b906003811015613f4b5760051b0190565b906058811015613f4b5760051b019056fea2646970667358221220beb9911680c47ddd6f8cfe04cd00ca20903a7b2b06610d0f1cafa66d99f0564064736f6c63430008190033","linkReferences":{}},"methodIdentifiers":{"getBeach(uint256)":"df33f664","getBeachColors(uint256)":"c1321e19","getBeachSkinColor(uint256)":"7cc3bd51","getClimateZoneForLandscape(uint256)":"228b974b","getLandscape(uint256)":"ebb57c65","getSkylineType(uint256)":"1c6e9c15","getSkyscraper(uint256)":"ec7803c5","getTradingChartAddress(uint256)":"13aa362d","isCityCoastal(uint256)":"b00a26b7"},"id":11}