{"abi":[{"type":"function","name":"getBeachTraits","inputs":[{"name":"index","type":"uint256","internalType":"uint256"}],"outputs":[{"name":"","type":"tuple","internalType":"struct BeachTraits","components":[{"name":"attributes","type":"string","internalType":"string"},{"name":"beachColor","type":"string","internalType":"string"},{"name":"skinColor","type":"string","internalType":"string"},{"name":"shortsColor","type":"string","internalType":"string"},{"name":"shortsColorAttribute","type":"string","internalType":"string"},{"name":"beverageAttribute","type":"string","internalType":"string"},{"name":"towelColor","type":"string","internalType":"string"},{"name":"towelColorAttribute","type":"string","internalType":"string"},{"name":"shortsPattern","type":"string","internalType":"string"},{"name":"towelPattern","type":"string","internalType":"string"},{"name":"shortsSVG","type":"string","internalType":"string"},{"name":"towelSVG","type":"string","internalType":"string"},{"name":"jellyTypeId","type":"uint256","internalType":"uint256"},{"name":"jellyColor","type":"string","internalType":"string"},{"name":"beverage","type":"string","internalType":"string"}]}],"stateMutability":"pure"},{"type":"function","name":"getBeverage","inputs":[{"name":"index","type":"uint256","internalType":"uint256"},{"name":"x","type":"uint256","internalType":"uint256"},{"name":"y","type":"uint256","internalType":"uint256"}],"outputs":[{"name":"","type":"string","internalType":"string"},{"name":"","type":"string","internalType":"string"}],"stateMutability":"pure"},{"type":"function","name":"getCatTrait","inputs":[{"name":"index","type":"uint256","internalType":"uint256"}],"outputs":[{"name":"","type":"uint256","internalType":"uint256"},{"name":"","type":"string","internalType":"string"}],"stateMutability":"pure"},{"type":"function","name":"getCityTraits","inputs":[{"name":"index","type":"uint256","internalType":"uint256"}],"outputs":[{"name":"","type":"tuple","internalType":"struct CityTraits","components":[{"name":"attributes","type":"string","internalType":"string"},{"name":"priceFeed","type":"address","internalType":"address"},{"name":"skylineSVG","type":"string","internalType":"string"},{"name":"displaySVG","type":"string","internalType":"string"},{"name":"beverageAttribute","type":"string","internalType":"string"},{"name":"tableSVG","type":"string","internalType":"string"},{"name":"displayType","type":"uint256","internalType":"uint256"},{"name":"skyLinetype","type":"uint256","internalType":"uint256"},{"name":"isCoastel","type":"bool","internalType":"bool"},{"name":"tableColor","type":"string","internalType":"string"},{"name":"catTypeId","type":"uint256","internalType":"uint256"},{"name":"catColor","type":"string","internalType":"string"},{"name":"beverage","type":"string","internalType":"string"}]}],"stateMutability":"pure"},{"type":"function","name":"getFlowerType","inputs":[{"name":"index","type":"uint256","internalType":"uint256"}],"outputs":[{"name":"","type":"uint8","internalType":"enum FlowerType"}],"stateMutability":"pure"},{"type":"function","name":"getGeneric","inputs":[{"name":"index","type":"uint256","internalType":"uint256"}],"outputs":[{"name":"","type":"bytes","internalType":"bytes"},{"name":"","type":"uint256","internalType":"uint256"},{"name":"","type":"uint256","internalType":"uint256"}],"stateMutability":"pure"},{"type":"function","name":"getLandscapeTraits","inputs":[{"name":"index","type":"uint256","internalType":"uint256"}],"outputs":[{"name":"","type":"tuple","internalType":"struct LandscapeTraits","components":[{"name":"attributes","type":"string","internalType":"string"},{"name":"climateZoneIndex","type":"uint256","internalType":"uint256"},{"name":"before","type":"string","internalType":"string"},{"name":"hasCity","type":"bool","internalType":"bool"},{"name":"skinColor","type":"string","internalType":"string"},{"name":"shirtColor","type":"string","internalType":"string"},{"name":"shirtColorAttribute","type":"string","internalType":"string"},{"name":"beverageAttribute","type":"string","internalType":"string"},{"name":"shirtPattern","type":"string","internalType":"string"},{"name":"hat","type":"string","internalType":"string"},{"name":"pantsColor","type":"string","internalType":"string"},{"name":"furnitureColor","type":"string","internalType":"string"},{"name":"furnitureSVG","type":"string","internalType":"string"},{"name":"hasRiver","type":"bool","internalType":"bool"},{"name":"hasMountains","type":"bool","internalType":"bool"},{"name":"hasOcean","type":"bool","internalType":"bool"},{"name":"artistSVG","type":"string","internalType":"string"},{"name":"catTypeId","type":"uint256","internalType":"uint256"},{"name":"catColor","type":"string","internalType":"string"},{"name":"beverage","type":"string","internalType":"string"}]}],"stateMutability":"pure"},{"type":"function","name":"getNFTInside","inputs":[{"name":"index","type":"uint256","internalType":"uint256"}],"outputs":[{"name":"","type":"uint256","internalType":"uint256"}],"stateMutability":"pure"},{"type":"function","name":"getSkinColor","inputs":[{"name":"index","type":"uint256","internalType":"uint256"}],"outputs":[{"name":"","type":"string","internalType":"string"}],"stateMutability":"pure"},{"type":"function","name":"getTraitAttribute","inputs":[{"name":"traitType","type":"string","internalType":"string"},{"name":"traitValue","type":"string","internalType":"string"}],"outputs":[{"name":"","type":"string","internalType":"string"}],"stateMutability":"pure"},{"type":"function","name":"getTraitColor","inputs":[{"name":"colorIndex","type":"uint256","internalType":"uint256"}],"outputs":[{"name":"","type":"string","internalType":"string"}],"stateMutability":"pure"}],"bytecode":{"object":"0x608080604052346015576159c6908161001b8239f35b600080fdfe608080604052600436101561001357600080fd5b60003560e01c90816304e74e5f14614d08575080630ffddbf414614ce95780632f8fb9ad14613c2e5780632ff4051914613b0557806340b2ceb614613acc5780634d0d1e781461319457806367dfdff814612f1d57806373075aff14612efe578063b1f91d1414612e93578063e8378d7c146121785763f6b387731461009857600080fd5b346121735760203660031901126121735760405161028081018181106001600160401b0382111761215d5760405261025e81527c190032004d0065007a009700af00ce00e60106011f013b0158016f019060208201527f01b001cf01eb020c0223023d02530268028802aa02c602e402fb0316032c034560408201527f035f037d039703b003c303d703f304060420043704510468047d049a04af04c960608201527f04e204fa051f0537054d0565057a059005a205b405c905e306010618062c064360808201527f065d06750687069c06b206c906df06f7070f0727073f075307680779079407aa60a08201527f07c007d907f00809081f08390853086b0885089d08b308ce08e709000918092e60c08201527f094d096b0985099c09b109c109d009eb09fb0a0b0a1d0a300a400a4e0a600a7060e08201527f0a830a9e0ab10ac70ae20af00b000b110b250b370b470b5d0b730b840b930ba86101008201527f0bbf0bcf0bde0bef0bfe0c0d0c1d0c310c480c590c6a0c7f0c960ca50cc00cd16101208201527f0ce10cf10d030d120d280d3a0d4b0d5e0d6e0d7e0d8e0d9e0dae0dc10dd20de36101408201527f0df30e020e130e260e380e4a0e590e680e780e8b0ea10eb30ec40ed40ee40ef76101608201527f0f090f1b0f330f440f540f6c0f860f970fa60fb60fc90fdb0fec0ffb100e10216101808201527f103210431057106810771086109a10aa10ba10cb10de10f5111a112c114d11626101a08201527f117d119611b611d511f612041215122b123c124d125d1283129512ab12c312e26101c08201527f12f3130a131c133f1355136d137f139313c413d813ea13f81409141e143514446101e08201527f1456146914791489149a14ac14c314de15031516152c1540156e159c15ad15c06102008201527f15d015eb15fd160c1622164616731685169516a716ba16d116e116f0170017116102208201527f172217341745175a176f177e179217a417b417d917eb17fe18101820183018426102408201527f185218731889189f18af18c818e218f8191219201933194c195e197019880000610260820152604051806117c08101106001600160401b036117c08301111761215d576117c081016040526117a081527f1f0120f1cef6b90734009a506170616b6f6c6561204265616368ffed4db1fa9c60208201527f1a1f10000850756e746120436f726d6f72616e7403c77458fedd512100be526560408201527f796e056973666a6172a033090123f9c8f6bb2f160072203304616c752775804b60608201527f1f009b8c75fae2551200e5506c617961204e65677261022ab4a101833ada00ff60808201527f5601696b8027012053205f136f72696e69fdcb34be0a664504010e4b6172656b60a08201527f200380210f013d35eff6b3939f005a426c61636b202030006480191f204d617560c08201527f6900d3937dfc5c05f20100416e7365204368617374616e657402502216da00e860e08201527f85e601655370696167676961206469204669636f20880c6e646501b3fbf5ff086101008201527feaff014a80a00064406e0d6e696a6f01b3c717ff06c64b011ee0001805656c206101208201527f41726520de09febb8f55034c4bb5010e201b01676540340045206d00672094116101408201527f6c65022aad5b0184aab20079506572697373a1210903a48766f72ba0e80102e06101608201527f08bf1f416c61736b6103cd61d2ff010e6600a85376696e6166656c6c736a6f6b6101808201527f756c6c80e607fef50d90f716dee7e0027416506f696e74652056656e757300626101a08201527f113205f2be0f012850214a1a616920506173697220486974616d01851a05fb6e6101c08201527fb2db005650696ee1043a10426168616d61730275df37008ec3e7007ae10025126101e08201527f526f7361021a312901673665009e456c61666f21f2017369808c09ff7cc082076102008201527f1fbcb500d2a06d0f4d6572616800c7fb8efc74f453008743215c4149224e0c016102208201527fec2115fc22e7260096486f72219a0253686f201901617920480f726d756461006102408201527f68ccdf07465c0700fe472034217f21d942750672757a2049736c201209010ce46102608201527f1afc503f33011960be60552041017262203d09ffbd43130353e28d010e61f7046102808201527f536f75726321901727417267656e74fdfa1b72011860690142436c6966746f6e6102a08201527f803c0dffbeec3c025c3c56005a4469616ea1a014204b656e7961ffa8a8c302576102c08201527f979e01564e756e6777a0ee1101a9faff020c3e2000b4536861726d20456c20c66102e08201527f0e65696b68fecbcbf80371ae2300144221af0061228a007220dc40f60c00fd266103008201527f79fea2513100735072614275209c60d820220b696101c161ddff65ac1700f7e26103208201527e41184c61677a69726100cc1783feffb52800fe42616c6420436170a0501fff6103408201527f6c52c400c96958015f4361626f204c65646ffea182b8fd6d22a90091436f70036103608201527f6163616220cc0cfeca53b608e269dc0003576869221c044865617665a0f709016103808201527f4cc8cefbb2d4b00122216a212621850c01a007c5fb1454a100d25369652332216103a08201527f05419941b7084975f5fb23a6a0009b20a223ba005023ec0c69736fff039e02f66103c08201527ff4a7f3010b201682fb024d617420b80f2001466c61f69975ea00474c616e696b6103e08201527f228280470d33b056fac996a1006f54756c756d80140900b6633c07447de400f46104008201527f80a56029012042246611636179fde80c9108fb8d25000b4879616d73801c0c006104208201527fbfcbf4fbd327a1012750616ca045238e0c756261ffc5311bfe10f5aa0130a1696104408201527e6f41690c63686f011a062bfbec6570007120aa20c1014a7520970c6c6c6f016104608201527f914366079fce5300e4e0027c032c204f6b23760477612c204a250f116e003c316104808201527fe20461605901274d616166757368a0ce0d0050310b045c6698006552656574e06104a08201527e1508cdea8afaab46a30096806a2220015a6f239b0b02f1533cfff2ae9300206104c08201527f4f6d236aa0ca0ac6f9c604c900bc0066476822dec0580975238205e30d79013c6104e08201527f4d40ac419b1b79d2fb086c4c77009649776f204a696d61ff7af7fd06dd5569016105008201527f0450424b0f69204b7574610235f152ff7fa40e00b4a0ff82630a6e6861024f6d6105208201527f480015e6e36432210022831673657320496c6c6574657302a86d21ffed70da016105408201527f28447523ac1264752050696c61740294069a00fdd12f00b45a200d166e6920526105608201527f61740382a2850055609100ce536f6c6172737463a9146e02fb9823ffa9ca14006105808201527f8a506f7274686375726e6f80e20c026169c8003c135f00b743616c408f0063236105a08201527f1823200c022db42601bc3d4800b24f6c7520410c697a0215e0c4020659ee00b46105c08201527f4ee4015e0e02bc3170f89c6aa9010e43616e6e6fc2be09f54242f9028e9900336105e08201527f4c21cc006f204e269b10766502db31bbf892294801075269616c74a0810901036106008201527f74f50339fbc100a523b218746920616c204861666661017fc6bf035bf00a00606106208201527f46756a6122b7227662ee0c8073f7034ac3a8010e4a756d65e0011709fdeb9d866106408201527ffcbc100f009226d9231f00642605104573746500c03fdcfb2185c600964361796106608201527f22711075637265ffc17269fb2b3ed0012f4c6173259d0063257c0b73007a3bf26106808201527f05e4258d01065221b0024c6568211309c3058b345e006e56696a2507044e61676106a08201527f617280840c00acd838071e5869010e4e61632284801509feedc99d07487b20016106c08201527f4023f9006cc32c0aff2c03bafb73baa400be5061dc02526f6a23a40c657275fe6106e08201527f626c89fbc6cf0700ff25dd247910496e676c657361ffe437b3fb2fbe8f00f5806107008201527f2f004d229f230f223f0c02088cff87a2b600804d797274c05f0a03135593ff786107208201527fe0be009949234b0361646f6ec4180d03733874ff95e53700d54c75736b2565006107408201527f79c4f310fdf62d9401198f0a0154426f756c646572c3bb08d452ddfa92704e006107608201527fb8807a231d244d24c00a6e0148c223facb115a01388019114d6f73717569746f6107808201527f01386246facc8ed0006d8017175870752d4861005afbb704cf802900a44869726107a08201527f696b65746922d461bd0a20025ee2070131220b00fa2030007a2396104b73616d6107c08201527f696c697401161ebefbe8941500a0610047240445280e6f025f8cd7079c0b77006107e08201527f9048616d6825eca0490dffa763140258918a004c4d75797522ff6060090048dd6108008201527fe306d4a41a0148a379005327dc252c41431267616e02244d8100dae07200ff496108208201527f722d52616d229a00742271144d697871757161fff9e7f5fa97e97b00085261626108408201527f69239f015265a8bb09018ed31b079dff28008024ea006b293a806d0cff80d1066108608201527f06e4ca6e001841686dc02b0c03121456fffec33200d14c6f6e213b0902ea15fc6108808201527e2228f000a5214c0c697302fca30c00845c4800b446239d076b6675727420616108a08201527f6d259c0f696e02d312dc0081f491007e5a757269235e19693d8bffc7abb800b46108c08201527f4d6164726964031cfe40014087b800a05723dc007a25041d03181a6000445f256108e08201527e9a526f7474657264616d02b5f38c008bb82e00c94d2426213f0adff9ce00fa6109008201527f761600b45769240a0a72d6f201baa66700a9497322560c62756c0352ab7f023c6109208201527fb94a006321d4006b20521f8a67ca0111cffa009253746f636b686f6c6d0308166109408201527f4e0042829e00c742727578241f0265732f2009107373656cfe9883c5fd3809136109608201527e2c53616f222d1f756c6ffdefda01fc857b8e000a4275656e6f7320416972656109808201527f73fe020d6cfbcaad02260156475e29e2006f23a229ff0d696c65ff4792e9fb696109a08201527f127101364c253b1a00465693fb95ccf1015d426f676f746100a0326dfc032bc86109c08201527f01194326d90c636173fdeb83d3fca691ce0162431a1f65766964656ffe7e25d56109e08201527ffc906faf003e4173756e63696f6eff0441cbfbf0614f43e320970a7a00d12e75610a008201527ffaae42630067207f2678016c76232b0c72fe70205c01abfdd401604a6f25e31f610a208201527f6e657362757267ffec28880231b4bf00214e6169726f626900626b030033c25c610a408201527f01007927fd0f6f730089829f024f5e2501104164646920e001626526de0997e3610a608201527fde02575eef001c44242625be20630d61616dff798c6100c9e9c3015f4c22d129610a808201527f460b54ca21fffceb120084416363284609513f76ffc2ab7e002d4122710d6a61610aa08201527f6e01ca5efc01dc94ea01454b407b0a02319819009b6a6a00a55422e31d730230610ac08201527f98f600301e620095416c67696572020023eeff8b138c00924361732474274f1f610ae08201527f61026df430fb97333b00d04e657720596f726b2043697479029a121bfb44bdda610b008201527f0400a3546f7224530a6f027f0f03fac6d4d600b22185006320d70a020798e8f8610b208201527ff38f5500b44c41b5026e676521e8090240b4c5f8b4483100ab413742b2106369610b408201527f73636f018919c7fb38581d00584d6923c00b01286640fa16c55900f3436929ed610b608201527e6441db144d657869636f200181cb6403127ef5005761642d4421651f01807a610b808201527f68034b6b14001e4475626179790167fcea037b929400744d61737161740a0179610ba08201527f5d5002c8212800996123a3243a08640146d6e6025fa8fa206c0e616b6b6101e4610bc08201527f9f020219401800644a254601736821671179696d0174fcbb033da37800334162610be08201527f75205a23c00d01fc528c02a4fe5a00ac4261676820950a01ff56c60229e89600610c008201527f604422681173636871200220fe52030f404e00be546568238f0b0260ed5a01f5610c208201527f5c660155416e2cd40a61017c5c6c03fee01b007f2ce60d61636901e0a5b3046e610c408201527f178d00a64c28271f75720123c7bf0457752500914d756d62616901b38c1f0497610c608201527f7345003c4e65752d1344656c6869015798a1054386d7002b4b6f6c6b6122d109610c808201527fd1b62d05fdfa3f01154224940d6b6f6b0140c7c1064eef6e00c6482d7a1f6f69610ca08201527f016b0c8b05631f1400924468616b610260bcaa06eff41600874265696a69116e610cc08201527f6701c234ab06594b7c001f43686f6e677140120857e12906cc454800962af001610ce08201527f6e7a20030901dc28d5073d159f004e27581f6e67686169022079800853c00300610d008201527fd4546f6b796f023c63ef07936f7b00c15365006f2407090c6bc70441ee4100dc610d208201527f4144191061025ccba703fdf24b014c53616d61727122bc0b003010fe060f7c03610d408201527eac4b75217411204c756d7075720013ffb1063027c2009c532088006120110a610d608201527fffa189b9065f632601414a20be007220f109df108a0735f43e00e74d26ca1f6c610d808201527f61fdfa7d33090263a100255379646e6579fdbe518208a2b48d00364d656c622c610da08201527f1b0b6e65fde4f33608e3f639014c285a126265727261fdcceaf70a6ca0f30013610dc08201527f4175636b22ea0a64011a144bfbd4ea5f0097229b285002446f6d20811f6f2000610de08201527f917659ff2f351300d9436f6e61726b79ffe222a601cb16b801394b696713616c610e008201527f69021ebcf902b58f6700d561732d53756c61220e006e226909008962dcfb426e610e208201527f4f00b6e201c6264720ff0a0049ac4601e1b22e00064422370c756261fe184c71610e408201527f06e8204a012327cb0b7468ff14359f01af58a4001b276c20f40a03c7d71b009f610e608201527fc99500df54236c00642c840e6dff7b391806dd8b75002244656e7023ae1d7200610e808201527f69b4d304c28acb00fb436f6c6f6d626f01d2b4c706cfbaa30046577521b40a03610ea08201527fa5a5f2f711080000dd4127db2b741c676501bf608402dbfff60055616c2d4b75610ec08201527f77616974030acc86f9339f7420b401616c28a20a79ffd034f5fc6c1080002b21610ee08201527f6d0f617573200109f5eb04ad3b2000a7486126d6007227571f640025d4080557610f008201527fb93a009a5468696d7068750301e19e01d304c000f74b796a691e77024ab55201610f208201527f9dafd70078497a6d69720113f3b1ff0c65cb010c4e6f75616b208d0d747401f4610f408201527f37f9fa3afb490100446129e40b7301ce24c503668099004d4b2e32234b06028d610f608201527f97f953b3312e7c2e4b0e6e6978016ba42501f6f8f800ef4e61263c2e650d65fe610f808201527f96ba6107fb2bff00de416c692cea0153702b110b6773fea20119fbef02640028610fa08201527f21d9292d016472662e0141742600006d2bfa24b11f6c6500ff857dffd1f34300610fc08201527f1454696d62756b74750230362904e837b000b65072006f2f9d057a2058696e6a610fe08201527f2e3b006760320b6e6101f774a5f9a9d67f00a28c52205d0c6473022965f7f9256110008201527f936a00ea4c2a0e0856656761732c204e6526200861023b5baaf96930852973016110208201527f6f6e2a6f036e74205620eb0c65790271fb82061e671900b94926352958201f006110408201527f67319b0069a0680b00ec959501eeb53a005257652b2f086572204e696c2c204b6110608201527f2e9600742d5c0afea4116800e19844011b4e253d09622d4e61756b6c756674206110808201527f77400f096961024d76e0f96e8b1a27fa0e6f6162fe079ba1fbe734f401484d656110a08201527f28520b7a6100ea29e002a1a7b8005820c100612110015965209c0c024435d8036110c08201527f7b94d600d241736721e40d740192f2d7045c37e100dd4a6f6421e30e7201676d6110e08201527fd2037a01c500304d757363202008b68a790221b9fb00fcc1300154612149002c6111008201527f2118047564692d41222a483408387becffc71a5200bc2e8f006e21160d2001376111208201527fecf902f9592200b55275624bb320d80c6c69fe8fa9df081e283c0000532252056111408201527f736f6e20446520fa0c74ff2cd18efb718c7a01454973243620b20120472145026111608201527f616e2c21da2b08089d8e0bfbce6eb90154a1df0a020f2887f91d34d900a84d2b6111808201527f2c017665a0460cfe7f8b490143e67000004b616c257d09726902a8ce5c0667686111a08201527fc52d0306616769696e207521b9004727b0002ce1008f0901a04ead01ae66bf006111c08201527fb381f1809109020f7f95f92eb79000e443790072280a0f205269766572017fed6111e08201527f0c035bbcdb008dcc750d001fadcb02b3082c00854d6f676127ed23fd0d0103366112008201527fae014d513200c34775656c4c6c00272ee2006323e4052c20456e656431d42d926112208201527f056561752c2054202f2678022e8cd62dbe046f0115456d2a8d006f293a0d69ff6112408201527fbddee400e80c0000644b696e26c40773610301e9eb01d2219c0edc4b696576026112608201527f0f61b00247c464005d4f480d79726103d701d1feffd1a2000c562def006192736112808201527f0b04c0b3bd00b01405003159742285004e31ba0f6b6f796104eac61bfc48b0b76112a08201527f015d416c218009043dfdf701897844000420200e646b61707003d23601feb53c6112c08201527f1101173423006b21641e696b043fa25af6a7ce040152426172726f77040b29a96112e08201527f0136d5ea01214b69722af20dfcbb75c2fbed6d8a013f55736875312b0c03c83c6113008201527fc308829b81001a4f796d2b160b6f6e04f3f8cefbccd02e0165710f215b01756d6113208201527f22cc0a01f9598b057c851300395123dc012d5a238f002da1210a0256854a04526113408201527fe8fd00b454225a017361261c214400502304007221c200752bb6211c090227c86113608201527f32048278a4004a47840f6b6f72756d02c631600079d53c00874a2c12156672616113808201527f756a6f636801abdb0e052f7e6900e94d74204521cf312a09fc0c79350602883c6113a08201527eb22932006151bf046b652c20422035239401486933bd022c204120671072636113c08201527f746963610493c43e0401732b01434f2f3d016f762c3f2046026e796a203200616113e08201527f3454007429d70065236f005241c20b61029cc42b00a84717006c462ae30c6e7a6114008201527f650294e45300539d9c0101323e017365205d0a65030a254c00aced9900d624096114208201527f27480a02376b36faacfe3d00bd4d241840020170702fbc427d0a036a47e5ffbb6114408201527f6b2400644c20cc24310c730365eace0294715100c7566f20bd0702b94b9501866114608201527fd8e4a12d00692ac4046e6961ffbc281f04424a250000c3c4014c61279844f4006114808201527f49242d2ad40c6961fdcd7aec08a5e72b00294727eb2ae4006e8072042c2056696114a08201527f6355d120d301417520f223c60d61031005e50066783700744475696b110a02fb6114c08201527fc4fd012f8fed006d4b41800d7702d52ad70122a88a005242756432fa127374026114e08201527fbf39d000dddf9f00dd4c6a75626c6a61284108412761f8b25068007f43f1ea006115008201527f3a0a02602b79ffc2b99e01115425301f646f0230d55f0852410d00bc4e696b6b6115208201527f6f017e2d9f073df47f006c546169706508680199451f05f96aad2b4028fc223a6115408201527f0b016028bcfb16b1a80013486120ff0b6e610113aa5f049456c2009f234901676115608201527f73343e1a031f4920063624cc00b249726b7574736b03571a2f058a960d00c1206115808201527fbf03736e6f79219d0f6b0347d1d204f075e600b14e6f766f7325764014080ce16115a08201527f02f91c6d1b004a299c0f666602d63094fcdaedf9007453742e202c240c6e27736115c08201527f02b8db21fb9ece9900df25f423750e616c03d1739af7afed9a005944617724f76115e08201527f1503c19885f850570b00a24e616174732769686368276f21d130e1006f3698226116008201527fe00d726bfed676b6fd776a810142497020170f6e6761002b1663fc628a6101186116208201527f426f61219829870aff0d7113fd2190fa00474220b82f280b61ff4982a7010db66116408201527f98014b432c500e7a6102972f9c02835c85007a456c622b0e0a0207a90c046e506116608201527f10004353274a006128101e010314a900796045006741676164657a00849753076116808201527f8ddb39012e526962204945e3006d24a90069383d012d4c21ca0e6501207b1dfa6116a08201527f2275c40126506f706f262613657065746cfcd5aa960460d41e004248656172646116c08201527fb5f40900d9a9160267423300e048040c6f6c00c12afd0338701900d248252d006116e08201527f622502035375717522570bfdca5ce0ff44ce5e000c547240d9016e20264701436117008201527f7532fe0afd6938be0a39ceaa002e5229393109630c0c007c4df0fb5c3b5400ae6117208201527f546170264a51d02d59268e1703d44a15fceca7f500dd4e75756b01c3f369021b6117408201527f89f000862c6023480c756d2001a4daa2055b4743013a320b00612583223511206117608201527f4368752002b7d22503c6aac3013142616924af0c7572fe62913ef97ce95e00126117808201527f52344d03204e75692d711455ff9ed865008d436f746f20646520446f6e616e616117a082015260043560011b60043581046002146004351517156121475761ff006120b08285615692565b519160018101809111612147576120c79085615692565b5191600160043501948560043511612147578560011b958087046002149015171561214757826120f78783615692565b5160f01c1690600187018097116121475761212f9661211591615692565b5160f81c1791604051958695606087526060870190614db4565b9360f81c9160f01c1617602084015260408301520390f35b634e487b7160e01b600052601160045260246000fd5b634e487b7160e01b600052604160045260246000fd5b600080fd5b34612173576020366003190112612173576121916155db565b50600435601419810111612147576121af6121aa6150c1565b6156ce565b6121d56040516121be81614dd9565b600581526401e1e1403160dc1b60208201526156ce565b906121fb6040516121e581614dd9565b600481526318161c1960e01b60208201526156ce565b9161221f60405161220b81614dd9565b60028152610aa760f11b60208201526156ce565b6122276155db565b926040519461223586614dd9565b7f5b6672db6cb2db6d923ada8da92472492492375b8e494000001a4924924924898652650ae76372caa460208701526040519361227185614e45565b6566666130653760d01b8552650e58988c8c8d60d21b6020860152651a3119b21b1b60d11b6040808701919091526506666643730360d41b6060870152653333331ab13360d11b60808701526533333232b31b60d11b60a08701526539653333316360d01b60c087015251966122e688614e45565b6040516122f281614dd9565b600481526350696e6b60e01b6020820152885260405161231181614dd9565b600581526423b932b2b760d91b6020820152602089015260405161233481614dd9565b6005815264426c61636b60d81b6020820152604089015260405161235781614dd9565b600481526311dbdb1960e21b6020820152606089015260405161237981614dd9565b6005815264576869746560d81b6020820152608089015260405161239c81614dd9565b6005815264437265616d60d81b602082015260a08901526040516123bf81614dd9565b60038082526214995960ea1b602083015260c08a0191909152601419600435018082028190049091149015171561214757612454600761240f6124469360ff6003601419600435010204906151a0565b5160ff60043560141901600302061c16966001600160d01b03199061243590899061565b565b511660405192839160208301614f19565b03601f198101835282614e96565b60208701526040519261246684614e2a565b651a321b30b33360d11b84526538306666386160d01b602085015265333333331b1b60d11b6040808601919091526506666383038360d41b6060860152516124469061250f906124fa906124d3906124bd81614dd9565b60048152630988064160e21b60208201526156ce565b6040516124df81614dd9565b60058152644a656c6c7960d81b602082015260043590615731565b956124358765ffffffffffff60d01b92615317565b6101a08801526012840184116121475761255f61256491601261271596016101808a015260405161253f81614dd9565b600a81526929b437b93a21b7b637b960b11b602082015260043590615731565b614f37565b60608701526125f76125f06040519261257c84614e0f565b6125846150e0565b845261258e615101565b602085015261259b615124565b60408501526125a8615146565b60608501526040516125b981614e7b565b6000815260808501526040516125ce81614dd9565b600c81526b29b437b93a2830ba3a32b93760a11b602082015260043590615731565b8092615170565b51610100870152606086015190600414612e78576126ef603e610100880151612678604460405180937f3c75736520687265663d272373686f727473272066696c6c3d2775726c282300602083015261265a815180926020603f86019101614d91565b810164149390179f60d91b603f820152036024810184520182614e96565b925b6040519384917f3c75736520687265663d272373686f727473272066696c6c3d2700000000000060208401526126ba815180926020603a87019101614d91565b631390179f60e11b603a82850101526126de82518093602087858801019101614d91565b82010103601e810184520182614e96565b6101408601526127006004356154da565b604086015260043561271061566c565b615731565b60038101811161214757600361272b9101614f37565b60c084015261278b6127846040519261274384614dd9565b60405161274f81614dd9565b60068152657a69677a616760d01b6020820152845260405161277081614e7b565b60008152602085015260043561271061566c565b80926151a0565b5161012084015260c083015190600114612e5d5761287f603d61012085015161280c604360405180937f3c75736520687265663d2723746f77656c272066696c6c3d2775726c2823000060208301526127ee815180926020603e86019101614d91565b810164149390179f60d91b603e820152036023810184520182614e96565b925b6040519384917f3c75736520687265663d2723746f77656c272066696c6c3d2700000000000000602084015261284e815180926020603987019101614d91565b8201631390179f60e11b60398201526128708251809360208785019101614d91565b0103601d810184520182614e96565b61016083015260dd60043510612e3d5760405161289b81614dd9565b6003815262302e3760e81b6020820152925b6129c36040516128bc81614e60565b6040516128c881614dd9565b6006815265436f6666656560d01b602082015281526040516128e981614dd9565b600381526254656160e81b6020820152602082015260405161290a81614dd9565b600481526356696e6560e01b6020820152604082015260405161292c81614dd9565b60058152642bb0ba32b960d91b6020820152606082015260405161294f81614dd9565b60048152632132b2b960e11b6020820152608082015260405161297181614dd9565b60058152642632b6b7b760d91b602082015260a08201526129bd6129b260405161299a81614dd9565b60068152650c8c878a048360d11b60208201526156ce565b6004356127106154a5565b906154c9565b5191605a91604051926129d584614dd9565b6002845260203681860137600a602285015b60001901916f181899199a1a9b1b9c1cb0b131b232b360811b8282061a8353048015612a1657600a90916129e7565b505060405161039f612a2782614dd9565b6003825260203681840137600a602383015b60001901916f181899199a1a9b1b9c1cb0b131b232b360811b8282061a835304908115612a6857600a90612a39565b5050612b59612b9395612b4c6050612b6997612d479b604051968792633c75736560e01b60208501526720687265663d272360c01b60248501528651612ab581602c870160208b01614d91565b84017604e40e8e4c2dce6ccdee4da7a4ee8e4c2dce6d8c2e8ca5604b1b602c820152612aeb825180936020604385019101614d91565b01600b60fa1b6043820152612b0a825180936020604485019101614d91565b016705240e6c6c2d8ca560c31b6044820152612b30825180936020604c85019101614d91565b01631493979f60e11b604c820152036030810186520184614e96565b612b546154a5565b61555b565b60a08701526101c086015261565b565b51604051612b7681614dd9565b600b81526a2132b0b1b41021b7b637b960a91b602082015261555b565b612cb86020612bcd6101a0850151604051612bad81614dd9565b600f81526e2532b6363cb334b9b41021b7b637b960891b8482015261555b565b92612c08612be5606087015161010088015190615283565b604051612bf181614dd9565b600681526553686f72747360d01b8582015261555b565b612c41612c1f60c088015161012089015190615283565b604051612c2b81614dd9565b6005815264151bddd95b60da1b8682015261555b565b60a0870151916040519684612c5f899651809289808a019101614d91565b8501612c7382518093898085019101614d91565b01612c8682518093888085019101614d91565b01612c9982518093878085019101614d91565b01612cac82518093868085019101614d91565b01038084520182614e96565b8152612e39816101c0612e24612e02612dea612dd2612dba612da2612d8b612d75612d5f6040519d8e9d8e602081526060612d32612d1d612d0785516101e06020870152610200860190614db4565b6020860151858203601f19016040870152614db4565b6040850151848203601f190184860152614db4565b920151906080601f1982850301910152614db4565b8d60808d01519060a0601f1982850301910152614db4565b60a08b01518d8203601f190160c08f0152614db4565b60c08a01518c8203601f190160e08e0152614db4565b60e08901518b8203601f19016101008d0152614db4565b6101008801518a8203601f19016101208c0152614db4565b610120870151898203601f19016101408b0152614db4565b610140860151888203601f19016101608a0152614db4565b610160850151878203601f1901610180890152614db4565b6101808401516101a08701526101a0840151601f198783030184880152614db4565b910151838203601f19016101e0850152614db4565b0390f35b604051612e4981614dd9565b60018152603160f81b6020820152926128ad565b61287f603d604051612e6e81614e7b565b600081529261280e565b6126ef603e604051612e8981614e7b565b600081529261267a565b34612173576040366003190112612173576001600160401b0360043581811161217357612ec4903690600401614ed2565b9060243590811161217357612e3991612ee4612eea923690600401614ed2565b9061555b565b604051918291602083526020830190614db4565b3461217357602036600319011261217357612e39612eea6004356154da565b346121735760603660031901126121735761316460043560dd811061317157612e39604051612f4b81614dd9565b6003815262302e3760e81b6020820152915b61315061306a604051612f6f81614e60565b6129bd60405194612f7f86614dd9565b6006865260209565436f6666656560d01b878201528352604051612fa281614dd9565b600381526254656160e81b8782015286840152604051612fc181614dd9565b600481526356696e6560e01b878201526040840152604051612fe281614dd9565b60058152642bb0ba32b960d91b87820152606084015260405161300481614dd9565b60048152632132b2b960e11b87820152608084015260405161302581614dd9565b60058152642632b6b7b760d91b8782015260a084015261306160405161304a81614dd9565b60068152650c8c878a048360d11b888201526156ce565b906127106154a5565b51612b4c605061307b6024356157bd565b6130866044356157bd565b97604051988992633c75736560e01b898501526720687265663d272360c01b602485015286516130bc81602c87018c8b01614d91565b84017604e40e8e4c2dce6ccdee4da7a4ee8e4c2dce6d8c2e8ca5604b1b602c8201526130f1825180938c604385019101614d91565b01600b60fa1b604382015261310f825180938b604485019101614d91565b016705240e6c6c2d8ca560c31b6044820152613134825180938a604c85019101614d91565b01631493979f60e11b604c820152036030810188520186614e96565b604051948594604086526040860190614db4565b9184830390850152614db4565b612e3960405161318081614dd9565b60018152603160f81b602082015291612f5d565b34612173576020366003190112612173576131ad61542f565b50600435607819810111612147576131c361542f565b6131e86040516131d281614dd9565b60048152632629110360e01b60208201526156ce565b9061320f6040516131f881614dd9565b600581526402a581c1c160db1b60208201526156ce565b6132d760405161321e81614e0f565b73f4030086522a5beea4988f8ca5b36dbc97bee88c8152735f4ec3df9cbd43714fe2740f5e3616155c5b8419602082015273ec8761a0a73c34329ca5b1d3dc7ed07f30e836e2604082015273379589227b15f1a12195d3f2d90bbc9f31f95235606082015273214ed9da11d2fbe465a6fc601a91e62ebec1a0d660808201526132d1604051936132ad85614dd9565b600585526410da185c9d60da1b60208601526001600160a01b039460043590615731565b90615170565b511660208201526133af604051926132ee84614e2a565b6040516132fa81614dd9565b600681526504c6170746f760d41b6020820152845260405161331b81614dd9565b600981526810db1a5c189bd85c9960ba1b6020820152602085015260405161334281614dd9565b600c81526b10dc9e5cdd185b0810985b1b60a21b6020820152604085015260405161336c81614dd9565b6008815267486f6c6f6772616d60c01b6020820152606085015260405161339281614dd9565b6007815266446973706c617960c81b602082015260043590615731565b8060c08301528015600014613a5c57506040516133cb81614dd9565b60028152616c6160f01b60208201525b61342b603060405180936b3c75736520687265663d272360a01b602083015261340e815180926020602c86019101614d91565b8101631390179f60e11b602c820152036010810184520182614e96565b606082015260781960043501600181901b8190046002149015171561214757782149a340480539fc7ff97ad54618eaafd0811584156d3e966b6004356078190160011b1c60031660e08201526040519161348483614e2a565b60405161349081614dd9565b60048152636d696e6960e01b602082015283526040516134af81614dd9565b60048152636d69646960e01b602082015260208401526040516134d181614dd9565b60058152646c6172676560d81b602082015260408401526040516134f481614dd9565b60048152636d65676160e01b6020820152606084015260005b600481106139c957506001607819600435011b6c02068a71c1800001403a014a00161515610100830152613542600435615328565b61016084015261014083015260dd600435106139a95760405161356481614dd9565b6003815262302e3760e81b6020820152925b6135856040516128bc81614e60565b51604051946101e761359687614dd9565b6003875260203681890137602387015b6000190190600a906f181899199a1a9b1b9c1cb0b131b232b360811b8282061a83530490816135a65750506040519161040f6135e184614dd9565b6004845260203681860137602484015b6000190190600a906f181899199a1a9b1b9c1cb0b131b232b360811b8282061a83530490816135f1575050612b4c60506136d39861366094604051968792633c75736560e01b60208501526720687265663d272360c01b60248501528651612ab581602c870160208b01614d91565b608085015261018084015260206136786004356157bd565b6136b160256040518093645461626c6560d81b868301526136a181518092888686019101614d91565b8101036005810184520182614e96565b60405180968192638587a4a560e01b8352606060048401526064830190614db4565b6000602483015260046044830152038173__$30acca89589d9a9b80eb3e09f3c9eae508$__5af493841561399d57600094613969575b506003840184116121475761381f6137fa6137e06137d46137a761383c966137366003612e399b01614f37565b613797603f60405180937f3c75736520687265663d2723632d7461626c65272066696c6c3d270000000000602083015261377a815180926020603b86019101614d91565b8101631390179f60e11b603b82015203601f810184520182614e96565b60a08a015260c089015190615317565b516040516137b481614dd9565b600e81526d446973706c61792044657669636560901b602082015261555b565b9360e087015190615317565b5161010086015115613953576137f4615205565b906151c2565b60405161380681614dd9565b6007815266536b796c696e6560c81b602082015261555b565b613830610160850151612b546152d3565b90608085015192615227565b81526040519182916020835261018061393e61391c6138e26138cc6138b66138a061387588516101a060208d01526101c08c0190614db4565b60208901516001600160a01b031660408c8101919091528901518b8203601f190160608d0152614db4565b60608801518a8203601f190160808c0152614db4565b6080870151898203601f190160a08b0152614db4565b60a0860151888203601f190160c08a0152614db4565b60c085015160e088015260e085015161010088015261010085015161012090151581890152850151601f1988830301610140890152614db4565b610140840151610160870152610160840151601f198783030184880152614db4565b910151838203601f19016101a0850152614db4565b60405161395f81614e7b565b60008152906151c2565b9093506020813d602011613995575b8161398560209383614e96565b8101031261217357519284613709565b3d9150613978565b6040513d6000823e3d90fd5b6040516139b581614dd9565b60018152603160f81b602082015292613576565b8060019160e085015110156139df575b0161350d565b6139e98186615317565b5160408501613a5660308251936040519485916b3c75736520687265663d272360a01b6020840152613a25815180926020602c87019101614d91565b8201631390179f60e11b602c820152613a478251809360208785019101614d91565b01036010810185520183614e96565b526139d9565b60018103613a855750604051613a7181614dd9565b600281526118db60f21b60208201526133db565b600203613aac57604051613a9881614dd9565b600281526131b960f11b60208201526133db565b604051613ab881614dd9565b6002815261383960f11b60208201526133db565b3461217357602036600319011261217357613ae8600435615328565b90612e396040519283928352604060208401526040830190614db4565b346121735760208060031936011261217357613b4c604051613b2681614dd9565b601581527402848385848507040385058505860485848605868560591b838201526156ce565b613bb482613b5b6004356157bd565b613b92602360405180936213919560ea1b86830152613b8281518092888686019101614d91565b8101036003810184520182614e96565b60405180938192638587a4a560e01b8352606060048401526064830190614db4565b6000602483015260d16044830152038173__$30acca89589d9a9b80eb3e09f3c9eae508$__5af490811561399d57600091613c00575b50613bf79060ff92615926565b16604051908152f35b90508281813d8311613c27575b613c178183614e96565b81010312612173575160ff613bea565b503d613c0d565b3461217357602036600319011261217357613c4761501e565b5060043560dc1981011161214757613c5d61501e565b613c84604051613c6c81614dd9565b60078152650f16130c110f60c81b60208201526156ce565b90613c906121aa6150c1565b91613cb7604051613ca081614dd9565b60058152640d1407028760d91b60208201526156ce565b9260405193613cc585614dd9565b7f5544340419780222228733998920155209940000880022913330850030253343855272c8562946830236132415767597555993575975602086015260405192613d0e84614df4565b604051613d1a81614dd9565b60058152642837b630b960d91b60208201528452604051613d3a81614dd9565b6005815264121d5b5a5960da1b60208201526020850152604051613d5d81614dd9565b600681526511195cd95c9d60d21b6020820152604085015260405192613d8284614df4565b6544464232463760d01b845265211ca19c9b1b60d11b60208501526546394232333360d01b60408501526065600435810360dd01116121475760dd60043560650301600181901b8190046002149015171561214757613e5e906003790aaaaaaaaaaaaaaaa9600000000155555555555551556529526560dd6004356065030160011b1c166020880152613e166004356154da565b6080880152613e26600435615328565b610240890152610220880152604051613e3e81614dd9565b600a81526929b434b93a21b7b637b960b11b602082015260043590615731565b600781018111612147576007613e749101614f37565b60a0860152613ec66020613e896004356157bd565b613b9260296040518093684675726e697475726560b81b86830152613eb681518092888686019101614d91565b8101036009810184520182614e96565b6000602483015260046044830152038173__$30acca89589d9a9b80eb3e09f3c9eae508$__5af490811561399d57600091614cb7575b50600381018111612147576003613f139101614f37565b80610160870152613f9b605b6040518093683c672066696c6c3d2760b81b6020830152613f4a815180926020602986019101614d91565b81017f273e3c75736520687265663d2723656173656c27202f3e3c75736520687265666029820152711e9391b616ba30b136329390179f1e17b39f60711b604982015203603b810184520182614e96565b610180860152613fda6020613fb16004356157bd565b613b92602560405180936450616e747360d81b868301526136a181518092888686019101614d91565b6000602483015260036044830152038173__$30acca89589d9a9b80eb3e09f3c9eae508$__5af4801561399d57600090614c83575b6140199150614f37565b6101408601526140ad6140a66040519361403285614e0f565b61403a6150e0565b8552614044615101565b6020860152614051615124565b604086015261405e615146565b606086015260405161406f81614e7b565b60008152608086015260405161408481614dd9565b600c81526b29b434b93a2830ba3a32b93760a11b602082015260043590615731565b8093615170565b5161010086015260dd60043510614c64576040516140ca81614dd9565b6003815262302e3760e81b60208201525b6140ea6040516128bc81614e60565b5160405191906103fc6140fc84614dd9565b6004845260203681860137600a602485015b60001901916f181899199a1a9b1b9c1cb0b131b232b360811b8282061a835304801561413d57600a909161410e565b5050604051926103ff61414f85614dd9565b6004855260203681870137600a602486015b60001901916f181899199a1a9b1b9c1cb0b131b232b360811b8282061a83530490811561419057600a90614161565b50506050612b4c916141d394604051968792633c75736560e01b60208501526720687265663d272360c01b60248501528651612ab581602c870160208b01614d91565b60e087015261026086015260405190816101008101106001600160401b036101008401111761215d576143429061010083016040526142156101008401614dd9565b60066101008401908152656665646f726160d01b610120850152835260405161423d81614dd9565b60078152660626173656361760cc1b6020820152602084015260405161426281614dd9565b600a815269199c995b98da17da185d60b21b6020820152604084015260405161428a81614dd9565b60068152656265616e696560d01b602082015260608401526040516142ae81614dd9565b60068152651cdd5b9a185d60d21b602082015260808401526040516142d281614dd9565b6007815266676c617373657360c81b602082015260a08401526040516142f781614dd9565b60088152676368696e6f69736560c01b602082015260c084015260405161431d81614dd9565b600881526731bcb634b73232b960c11b602082015260e0840152600435612710615181565b6008811015614c4e5760051b0151610120850152608084015160a0850151916144e591608691600414614c39576101008701516143b9604360405180937f3c75736520687265663d27237368697274272066696c6c3d2775726c2823000060208301526127ee815180926020603e86019101614d91565b610140880151610120890151906040519687947f3c75736520687265663d272361727469272066696c6c3d270000000000000000602087015261440681518092602060388a019101614d91565b85017f27202f3e3c75736520687265663d27237368697274272066696c6c3d270000006038820152614442825180936020605585019101614d91565b0192631390179f60e11b93846055820152614467825180936020605985019101614d91565b017f3c75736520687265663d272370616e7473272066696c6c3d270000000000000060598201526144a2825180936020607285019101614d91565b016f27202f3e3c75736520687265663d272360801b60728201526144d0825180936020608285019101614d91565b01906082820152036066810184520182614e96565b6102008401526004803560dc19018015600282901b919091049091141715612147576145d561469d607e6146e0936002806145356149f09a60018060f81b0360dc196004350160061c16906151a0565b5160ff60dc1960043501831b161c60018082161460608b015281808216146101c08b01526004808216146101a08b01526008808216146101e08b01521614600014614c20576145e360405161458981614dd9565b60138152721e3ab9b290343932b31e9391b616b69390179f60691b6020820152915b60208901516001600160d01b0319916145c491906151b1565b511660405195869160208301614f19565b03601f198101865285614e96565b60405193816145fc869351809260208087019101614d91565b82016e1e3837b63cb3b7b7103334b6361e9160891b602082015261462a825180936020602f85019101614d91565b017f2220706f696e74733d22313039352c3130393620313039352c33343520383330602f8201527f2c333933203537392c333639203339362c3339342035302c333530202d31392c604f8201526e19999b1016989c9618981c9b11179f60891b606f82015203605e810184520182614e96565b60408401819052606084015115613953576040516146ba81614dd9565b60138152721e3ab9b290343932b31e9391b616b19390179f60691b6020820152906151c2565b604083018190526101a083015115614c1b5761473b60336040518361470f829551809260208086019101614d91565b8101721e3ab9b290343932b31e9391b616b91390179f60691b6020820152036013810184520182614e96565b80604084015260208301518015600014614b77575050604082015161479f603360405183614773829551809260208086019101614d91565b8101721e3ab9b290343932b31e9391b616b81390179f60691b6020820152036013810184520182614e96565b6040830152606082015115614b515761494b60206148a961487f61487461484e6040516147cb81614dd9565b60048152634369747960e01b868201525b6101a089015115614b3c576040516147f381614dd9565b6006815265102934bb32b960d11b878201525b6101c08a015115614b265760405161481d81614dd9565b600a815269204d6f756e7461696e7360b01b88820152905b6101e08b015115614b1057614848615205565b92615227565b60405161485a81614dd9565b60098152684c616e64736361706560b81b8682015261555b565b9483870151906151b1565b5160405161488c81614dd9565b600c81526b436c696d617465205a6f6e6560a01b8482015261555b565b926148e36148c160a087015161010088015190615283565b6040516148cd81614dd9565b600581526414da1a5c9d60da1b8582015261555b565b6148f4610240870151612b546152d3565b614905610120880151612b54615181565b9060e08801519260405197856149248a975180928a808b019101614d91565b8601614938825180938a8085019101614d91565b01612c7382518093898085019101614d91565b8152612e3981610260614afb614ad9614a97614a7f614a67614a4f614a37614a1f614a086040519d8e9d8e6020815260a06149db6149ba61499a855161028060208701526102a0860190614db4565b602086015160408601526040860151601f19868303016060870152614db4565b6060850151151560808501526080850151601f198583030184860152614db4565b9201519060c0601f1982850301910152614db4565b8d60c08d01519060e0601f1982850301910152614db4565b60e08b01518d8203601f19016101008f0152614db4565b6101008a01518c8203601f19016101208e0152614db4565b6101208901518b8203601f19016101408d0152614db4565b6101408801518a8203601f19016101608c0152614db4565b610160870151898203601f19016101808b0152614db4565b610180860151888203601f19016101a08a0152614db4565b6101a085015115156101c08801526101c085015115156101e08801526101e08501511515610200880152610200850151601f1988830301610220890152614db4565b610220840151610240870152610240840151601f198783030184880152614db4565b910151838203601f1901610280850152614db4565b604051614b1c81614e7b565b6000815292615227565b604051614b3281614e7b565b6000815290614835565b604051614b4881614e7b565b60008152614806565b61494b60206148a961487f61487461484e604051614b6e81614e7b565b600081526147dc565b600103614bd257506040820151614bcd603360405183614ba1829551809260208086019101614d91565b8101721e3ab9b290343932b31e9391b616ba1390179f60691b6020820152036013810184520182614e96565b61479f565b614bcd603360405183614bef829551809260208086019101614d91565b8101721e3ab9b290343932b31e9391b616b21390179f60691b6020820152036013810184520182614e96565b61473b565b6145e3604051614c2f81614e7b565b60008152916145ab565b604051614c4581614e7b565b600081526143b9565b634e487b7160e01b600052603260045260246000fd5b604051614c7081614dd9565b60018152603160f81b60208201526140db565b506020813d602011614caf575b81614c9d60209383614e96565b8101031261217357614019905161400f565b3d9150614c90565b90506020813d602011614ce1575b81614cd260209383614e96565b81010312612173575187613efc565b3d9150614cc5565b3461217357602036600319011261217357612e39612eea600435614f37565b3461217357602036600319011261217357614d3f81614d29614d6793614dd9565b60048152630a08040360e21b60208201526156ce565b604051614d4b81614dd9565b6006815265233637bbb2b960d11b602082015260043590615731565b6004811015614d7b57602090604051908152f35b634e487b7160e01b600052602160045260246000fd5b60005b838110614da45750506000910152565b8181015183820152602001614d94565b90602091614dcd81518092818552858086019101614d91565b601f01601f1916010190565b604081019081106001600160401b0382111761215d57604052565b606081019081106001600160401b0382111761215d57604052565b60a081019081106001600160401b0382111761215d57604052565b608081019081106001600160401b0382111761215d57604052565b60e081019081106001600160401b0382111761215d57604052565b60c081019081106001600160401b0382111761215d57604052565b602081019081106001600160401b0382111761215d57604052565b90601f801991011681019081106001600160401b0382111761215d57604052565b6001600160401b03811161215d57601f01601f191660200190565b81601f8201121561217357803590614ee982614eb7565b92614ef76040519485614e96565b8284526020838301011161217357816000926020809301838601378301015290565b602360f81b81526001600160d01b0319909116600182015260070190565b60405161014081018181106001600160401b0382111761215d5760409081526537393764393560d01b82526562653135323160d01b60208301526519313132989b60d11b908201526561613730333560d01b60608201526535333830323760d01b60808201526503237363238360d41b60a08201526538303236333560d01b60c08201526531329c32989b60d11b60e08201526566663733303160d01b6101008201526531353937626560d01b610120820152600a821015614c4e576124469161501b9165ffffffffffff60d01b9160051b01511660405192839160208301614f19565b90565b6040519061028082018281106001600160401b0382111761215d5760405281610260606091828152600080602083015283604083015280848301528360808301528360a08301528360c08301528360e08301528361010083015283610120830152836101408301528361016083015283610180830152806101a0830152806101c0830152806101e083015283610200830152610220820152826102408201520152565b604051906150ce82614dd9565b600382526221212160e81b6020830152565b604051906150ed82614dd9565b6005825264706f6c6b6160d81b6020830152565b6040519061510e82614dd9565b60078252661cdd1c9a5c195960ca1b6020830152565b6040519061513182614dd9565b600682526563616d656c7360d01b6020830152565b6040519061515382614dd9565b600e82526d30b832afbbb4ba342fb632b6b7b760911b6020830152565b906005811015614c4e5760051b0190565b6040519061518e82614dd9565b600382526212185d60ea1b6020830152565b906002811015614c4e5760051b0190565b906003811015614c4e5760051b0190565b60206152039193929360405194816151e38793518092868087019101614d91565b82016151f782518093868085019101614d91565b01038085520183614e96565b565b6040519061521282614dd9565b60068252651027b1b2b0b760d11b6020830152565b9061520392949360405195869260209461524981518092888089019101614d91565b840161525d82518093888085019101614d91565b0161527082518093878085019101614d91565b016151f782518093868085019101614d91565b60216152039193929360405194816152a5879351809260208087019101614d91565b8201600160fd1b60208201526152c48251809360208785019101614d91565b01036001810185520183614e96565b604051906152e082614dd9565b600982526821b0ba1021b7b637b960b91b6020830152565b6040519061530582614dd9565b600382526210d85d60ea1b6020830152565b906004811015614c4e5760051b0190565b906040519161533683614e2a565b6506ac4686870760d31b83526539363637336360d01b602084015265329a9b99199960d11b6040808501919091526566666666666560d01b6060850152516153979061538181614dd9565b60048152630483c32160e31b60208201526156ce565b6153bc6040516153a681614dd9565b60048152632624140560e01b60208201526156ce565b9060dd831061541c57506153d2916127106152f8565b60168101908181116121475761540a936153f96154189265ffffffffffff60d01b92615317565b511660405194859160208301614f19565b03601f198101855284614e96565b9190565b905061542a916127106152f8565b6153d2565b604051906101a082018281106001600160401b0382111761215d57604052816101806060918281526000602082015282604082015282808201528260808201528260a0820152600060c0820152600060e08201526000610100820152826101208201526000610140820152826101608201520152565b604051906154b282614dd9565b6008825267426576657261676560c01b6020830152565b906006811015614c4e5760051b0190565b61501b612446916124356040516154f081614e60565b65333331b0b13360d11b81526566666363393960d01b60208201526531b19c331a9960d11b60408201526537613436323560d01b606082015265199998d8cd1960d21b60808201526539363633323960d01b60a08201526001600160d01b03199260069006906154c9565b603d615203919392936040519485916f163d913a3930b4ba2fba3cb832911d1160811b6020840152615597815180926020603087019101614d91565b82016a1116113b30b63ab2911d1160a91b60308201526155c1825180936020603b85019101614d91565b0161227d60f01b603b82015203601d810185520183614e96565b604051906101e082018281106001600160401b0382111761215d57604052816101c060609182815282602082015282604082015282808201528260808201528260a08201528260c08201528260e0820152826101008201528261012082015282610140820152826101608201526000610180820152826101a08201520152565b906007811015614c4e5760051b0190565b6040519061567982614dd9565b600a8252692a37bbb2b621b7b637b960b11b6020830152565b908151811015614c4e570160200190565b6001600160401b03811161215d5760051b60200190565b8051821015614c4e5760209160051b010190565b9081516156da816156a3565b906156e86040519283614e96565b8082526156f7601f19916156a3565b0136602083013760005b835181101561572c578061571760019286615692565b5160f81c61572582856156ba565b5201615701565b509150565b613b926020916137f4615743946157bd565b6000602483015260636044830152038173__$30acca89589d9a9b80eb3e09f3c9eae508$__5af490811561399d5760009161578a575b506157869060ff92615926565b1690565b90506020813d6020116157b5575b816157a560209383614e96565b81010312612173575160ff615779565b3d9150615798565b806000917a184f03e93ff9f4daa797ed6e38ed64bf6a1f01000000000000000080821015615918575b506d04ee2d6d415b85acef810000000080831015615909575b50662386f26fc10000808310156158fa575b506305f5e100808310156158eb575b50612710808310156158dc575b5060648210156158cc575b600a809210156158c2575b600190816021600186019561585787614eb7565b966158656040519889614e96565b808852615874601f1991614eb7565b01366020890137860101905b61588c575b5050505090565b600019019083906f181899199a1a9b1b9c1cb0b131b232b360811b8282061a8353049182156158bd57919082615880565b615885565b9160010191615843565b9190606460029104910191615838565b6004919392049101913861582d565b60089193920491019138615820565b60109193920491019138615811565b602091939204910191386157ff565b6040935081049150386157e6565b9060009180511561597c579060ff80602084015116925b82841061594b575050505090565b908092939416828114612147576001019382615969818716846156ba565b511681018091116121475792919061593d565b634e487b7160e01b83526032600452602483fdfea2646970667358221220b973419125f4613cd8a938bca782af787a319cae5bf2e63b38e63a09e801891b64736f6c63430008190033","linkReferences":{"contracts/NDUtils.sol":{"NDUtils":[{"start":14080,"length":20},{"start":15329,"length":20},{"start":16115,"length":20},{"start":16391,"length":20},{"start":22384,"length":20}]}}},"methodIdentifiers":{"getBeachTraits(uint256)":"e8378d7c","getBeverage(uint256,uint256,uint256)":"67dfdff8","getCatTrait(uint256)":"40b2ceb6","getCityTraits(uint256)":"4d0d1e78","getFlowerType(uint256)":"04e74e5f","getGeneric(uint256)":"f6b38773","getLandscapeTraits(uint256)":"2f8fb9ad","getNFTInside(uint256)":"2ff40519","getSkinColor(uint256)":"73075aff","getTraitAttribute(string,string)":"b1f91d14","getTraitColor(uint256)":"0ffddbf4"},"id":9}