{"abi":[{"type":"function","name":"getBeach","inputs":[{"name":"index","type":"uint256","internalType":"uint256"}],"outputs":[{"name":"","type":"bytes","internalType":"bytes"}],"stateMutability":"pure"},{"type":"function","name":"getBeachColors","inputs":[{"name":"index","type":"uint256","internalType":"uint256"}],"outputs":[{"name":"","type":"string","internalType":"string"},{"name":"","type":"string","internalType":"string"}],"stateMutability":"pure"},{"type":"function","name":"getClimateZoneForLandscape","inputs":[{"name":"index","type":"uint256","internalType":"uint256"}],"outputs":[{"name":"","type":"string","internalType":"string"},{"name":"","type":"string","internalType":"string"},{"name":"","type":"uint256","internalType":"uint256"}],"stateMutability":"pure"},{"type":"function","name":"getHorizon","inputs":[{"name":"motifType","type":"uint8","internalType":"enum MotifType"}],"outputs":[{"name":"","type":"uint256","internalType":"uint256"}],"stateMutability":"pure"},{"type":"function","name":"getLandscape","inputs":[{"name":"index","type":"uint256","internalType":"uint256"}],"outputs":[{"name":"","type":"bytes","internalType":"bytes"}],"stateMutability":"pure"},{"type":"function","name":"getLandscapeTraits","inputs":[{"name":"index","type":"uint256","internalType":"uint256"}],"outputs":[{"name":"","type":"bool","internalType":"bool"},{"name":"","type":"bool","internalType":"bool"},{"name":"","type":"bool","internalType":"bool"},{"name":"","type":"bool","internalType":"bool"},{"name":"","type":"string","internalType":"string"}],"stateMutability":"pure"},{"type":"function","name":"getScene","inputs":[{"name":"motifType","type":"uint8","internalType":"enum MotifType"}],"outputs":[{"name":"","type":"tuple[]","internalType":"struct SceneInMotif[]","components":[{"name":"placeHolder","type":"string","internalType":"string"},{"name":"assets","type":"uint8[]","internalType":"uint8[]"},{"name":"area","type":"int256[4]","internalType":"int256[4]"},{"name":"scale","type":"uint256","internalType":"uint256"}]}],"stateMutability":"pure"},{"type":"function","name":"getSkinColor","inputs":[{"name":"index","type":"uint256","internalType":"uint256"}],"outputs":[{"name":"","type":"string","internalType":"string"},{"name":"","type":"string","internalType":"string"}],"stateMutability":"pure"},{"type":"function","name":"getSkylineType","inputs":[{"name":"index","type":"uint256","internalType":"uint256"}],"outputs":[{"name":"","type":"uint256","internalType":"uint256"}],"stateMutability":"pure"},{"type":"function","name":"getSkyscraper","inputs":[{"name":"index","type":"uint256","internalType":"uint256"}],"outputs":[{"name":"","type":"bytes","internalType":"bytes"}],"stateMutability":"pure"},{"type":"function","name":"getTradingChartAddress","inputs":[{"name":"index","type":"uint256","internalType":"uint256"}],"outputs":[{"name":"","type":"address","internalType":"address"}],"stateMutability":"pure"},{"type":"function","name":"isCityCoastal","inputs":[{"name":"index","type":"uint256","internalType":"uint256"}],"outputs":[{"name":"","type":"bool","internalType":"bool"},{"name":"","type":"string","internalType":"string"}],"stateMutability":"pure"}],"bytecode":{"object":"0x60808060405234601557615d22908161001b8239f35b600080fdfe60806040908082526004908136101561001757600080fd5b60009160e0918335831c90816313aa362d14615955575080631c6e9c1514615668578063228b974b146151e65780632f8fb9ad14614c8c57806373075aff14614a33578063b00a26b71461468f578063c1321e191461417b578063c482a49d1461414a578063cf4e224b14613e2a578063df33f6641461285d578063ebb57c65146113855763ec7803c5146100ab57600080fd5b34611381576020928360031936011261137e575061137a91611369918551916100d383615aeb565b8651906100df82615b8f565b60108083526f01890a2b7fff61990068a637b73237b760811b8884015291845287519061010b82615b8f565b600f918281526e02ea15fc002228f000a5506172697360881b8982015288860152885161013781615b8f565b601b81527f02fca30c00845c4800b44672616e6b6675727420616d204d61696e00000000008982015289860152885161016f81615b8f565b8381526e5a625b80103e92200fcb4eae4d2c6d60831b898201526060860152885161019981615b8f565b8381526e9a4f62fff1eaee002d1358591c9a5960821b8982015260808601528851906101c482615b8f565b60129182815271031cfe40014087b800a0576172737a61776160701b8a82015260a08701528951906101f582615b8f565b6013918281527203181a6000445f25009a526f7474657264616d60681b8b82015260c08801528a519061022782615b8f565b8582526f02b5f38c008bb82e00c94d696c616e6f60801b8b830152870152895161025081615b8f565b600e81526d016ffce7007d3b0b005a2bb4b2b760911b8a820152610100870152895161027b81615b8f565b828152709cb5bc806ea999c02a525cdd185b989d5b60721b8a82015261012087015289516102a881615b8f565b8481526f0352ab7f023cb94a00634d6f736b776160801b8a82015261014087015289516102d481615b8f565b81815272038a67ca0111cffa009253746f636b686f6c6d60681b8a820152610160870152895161030381615b8f565b601b81527f0308164e0042829e00c742727578656c6c65732f4272757373656c00000000008a820152610180870152895161033d81615b8f565b81815272fe9883c5fd380913002c53616f205061756c6f60681b8a8201526101a0870152895161036c81615b8f565b6016815275fdefda01fc857b8e000a4275656e6f7320416972657360501b8a8201526101c0870152895161039f81615b8f565b601b81527ffe020d6cfbcaad26015653616e746961676f206465204368696c6500000000008a8201526101e087015289516103d981615b8f565b600e81527fff4792e9fb69127101364c696d610000000000000000000000000000000000008a820152610200870152895161041381615b8f565b8481526e465693fb95ccf1015d426f676f746160801b8a82015261022087015289519161043f83615b8f565b6011928381526fa0326dfc032bc801194361726163617360781b8b8201526102408801528a5161046e81615b8f565b6014815273fdeb83d3fca691ce01624d6f6e7465766964656f60601b8b8201526102608801528a5161049f81615b8f565b818152717f3f12eafe4837d7801f20b9bab731b4b7b760711b8b8201526102808801528a516104cd81615b8f565b8581527fff0441cbfbf0614f012f4c612050617a000000000000000000000000000000008b8201526102a08801528a5161050681615b8f565b601681527468973afd5721318033a9b0b71029b0b63b30b237b960511b8b8201526102c08801528a5161053881615b8f565b6016815275fe70205c01abfdd401604a6f68616e6e65736275726760501b8b8201526102e08801528a5161056b81615b8f565b8381527fffec28880231b4bf00214e6169726f62690000000000000000000000000000008b8201526103008801528a516105a481615b8f565b8481526d626b030033c25c00794c61676f7360881b8b8201526103208801528a516105ce81615b8f565b601581527389829f024f5e250110416464697320416265626160581b8b8201526103408801528a516105ff81615b8f565b601781527fff97e3de02575eef001c4461722065732053616c61616d0000000000000000008b8201526103608801528a5161063981615b8f565b8581527fff798c6100c9e9c3015f4c75616e6461000000000000000000000000000000008b8201526103808801528a5161067281615b8f565b8481526d54ca21fffceb120084416363726160881b8b8201526103a08801528a5161069c81615b8f565b8381526f289fbb7fe155bf0016a0b134b23530b760791b8b8201526103c08801528a516106c881615b8f565b8481526e01ca5efc01dc94ea01454b6169726f60881b8b8201526103e08801528a516106f381615b8f565b8481526e02319819009b6a6a00a554756e697360881b8b8201526104008801528a5161071e81615b8f565b8581526f01184c7b00180f31004aa0b633b4b2b960811b8b8201526104208801528a5161074a81615b8f565b6014815273020023eeff8b138c009243617361626c616e636160601b8b8201526104408801528a5161077b81615b8f565b601781527f026df430fb97333b00d04e657720596f726b20436974790000000000000000008b8201526104608801528a516107b581615b8f565b83815270029a121bfb44bdda00a3546f726f6e746f60781b8b8201526104808801528a516107e281615b8f565b83815270027f0f03fac6d4d600b24368696361676f60781b8b8201526104a08801528a5161080f81615b8f565b6015815274020798e8f8f38f5500b44c6f7320416e67656c657360581b8b8201526104c08801528a5161084181615b8f565b601781527f0240b4c5f8b4483100ab53616e204672616e636973636f0000000000000000008b8201526104e08801528a5161087b81615b8f565b8481526e018919c7fb38581d00584d69616d6960881b8b8201526105008801528a516108a681615b8f565b601b81527f01286640fa16c55900f3436975646164206465204d657869636f2000000000008b8201526105208801528a516108e081615b8f565b838152700181cb6403127ef5005761642d446f686160781b8b8201526105408801528a5161090d81615b8f565b8581526f01807a68034b6b14001e44756261797960801b8b8201526105608801528a5161093981615b8f565b8581526e59ff3a80dee4a5001d13585cdc585d60821b8b8201526105808801528a5161096481615b8f565b818152705e575400b2084a0026585c8b549a5e585960721b8b8201526105a08801528a5161099181615b8f565b8481526e0146d6e6025fa8fa00584d616b6b6160881b8b8201526105c08801528a516109bc81615b8f565b601681527501e49f020219401800644a6572757368616c6179696d60501b8b8201526105e08801528a516109ef81615b8f565b818152710174fcbb033da3780033416275205a61626960701b8b8201526106008801528a51610a1d81615b8f565b8381526f7f14a300a93f96802b109859da191859607a1b8b8201526106208801528a51610a4981615b8f565b828152710ffab630114f44b00302234b6b0b9b1b4389606d1b8b8201526106408801528a51610a7781615b8f565b8581526f01107f290187a027005f2a32b43930b760811b8b8201526106608801528a51610aa381615b8f565b8581526f0260ed5a01f55c660155416e6b61726160801b8b8201526106808801528a51610acf81615b8f565b8581526f017c5c6c03fee01b007f4b617261636960801b8b8201526106a08801528a51610afb81615b8f565b8581526ef052d982370bc680532630b430bab960811b8b8201526106c08801528a51610b2681615b8f565b8581526f0123c7bf0457752500914d756d62616960801b8b8201526106e08801528a51610b5281615b8f565b8281527201b38c1f04977345003c4e65752d44656c686960681b8b8201526107008801528a51610b8181615b8f565b83815270015798a1054386d7002b4b6f6c6b61746160781b8b8201526107208801528a51610bae81615b8f565b8381526fd1b62d05fdfa3f011542616e676b6f6b60781b8b8201526107408801528a51610bda81615b8f565b8581526f0140c7c1064eef6e00c64861204e6f6960801b8b8201526107608801528a51610c0681615b8f565b8481526e016b0c8b05631f1400924468616b6160881b8b8201526107808801528a51610c3181615b8f565b838152700260bcaa06eff41600874265696a696e6760781b8b8201526107a08801528a51610c5e81615b8f565b8281527201c234ab06594b7c001f43686f6e6771696e6760681b8b8201526107c08801528a51610c8d81615b8f565b81815270abf094836622a4004b29b432b73d3432b760711b8b8201526107e08801528a51610cba81615b8f565b8181527101dc28d5073d159f004e5368616e6768616960701b8b8201526108008801528a51610ce881615b8f565b8481526e022079800853c00300d4546f6b796f60881b8b8201526108208801528a51610d1381615b8f565b8481526d8f18fbc1e4dbdec03054d95bdd5b608a1b8b8201526108408801528a51610d3d81615b8f565b8581526f030c6bc70441ee4100dc417374616e6160801b8b8201526108608801528a51610d6981615b8f565b828152719732e9c0ff7c92c05314d85b585c9c585b99606a1b8b8201526108808801528a51610d9781615b8f565b601681527418087f0307be01805625bab0b63090263ab6b83ab960511b8b8201526108a08801528a51610dc981615b8f565b8181527009ffd8831813e1004e29b4b733b0b83ab960711b8b8201526108c08801528a51610df681615b8f565b8381527fffa189b9065f632601414a616b617274610000000000000000000000000000008b8201526108e08801528a51610e2f81615b8f565b8581526edf108a0735f43e00e74d616e696c6160801b8b8201526109008801528a51610e5a81615b8f565b8581526ffdfa7d33090263a100255379646e657960801b8b8201526109208801528a51610e8681615b8f565b82815272fdbe518208a2b48d00364d656c626f75726e6560681b8b8201526109408801528a51610eb581615b8f565b81815271fde4f33608e3f639014c43616e626572726160701b8b8201526109608801528a51610ee381615b8f565b818152713f733abdc29b283cc004d05d58dadb185b9960721b8b8201526109808801528a51610f1181615b8f565b601881527f011a144bfbd4ea5f009753616e746f20446f6d696e676f2000000000000000008b8201526109a08801528a51610f4b81615b8f565b8381526f917659ff2f351300d9436f6e61726b7960781b8b8201526109c08801528a51610f7781615b8f565b8581527fffe222a601cb16b801394b6967616c69000000000000000000000000000000008b8201526109e08801528a51610fb081615b8f565b601881527f021ebcf902b58f6700d561732d53756c61696d616e69796100000000000000008b820152610a008801528a51610fea81615b8f565b601a81527e8962dcfb426e4f00b64369756461642064652050616e616d610000000000008b820152610a208801528a5161102381615b8f565b8381526f49ac4601e1b22e00064473636875626160781b8b820152610a408801528a5161104f81615b8f565b8481526e1fc3098e20dd040940246a0cae4e8d608b1b8b820152610a608801528a5161107a81615b8f565b8581527fff14359f01af58a4001b4c7573616b61000000000000000000000000000000008b820152610a808801528a516110b381615b8f565b8281527203c7d71b009fc99500df54726f6e646865696d60681b8b820152610aa08801528a51906110e382615b8f565b81527fff7b391806dd8b75002244656e706173617200000000000000000000000000008a820152610ac0870152895161111b81615b8f565b8281526f69b4d304c28acb00fb436f6c6f6d626f60781b8a820152610ae0870152895161114781615b8f565b8381526de95a638367dd5180232bbab430b760891b8a820152610b00870152895161117181615b8f565b8181527203a5a5f2f711080000dd416e63686f7261676560681b8a820152610b208701528951906111a182615b8f565b8152716fd82100b6fffd8015585b0b52dd5dd85a5d606a1b89820152610b4086015288516111ce81615b8f565b81815270030acc86f9339f7400b643616c6761727960781b89820152610b6086015288516111fb81615b8f565b8181527fffd034f5fc6c1080002b4d616e6175732000000000000000000000000000000089820152610b80860152885161123481615b8f565b6014815272427d7ac12b4ec80029d2185a59185c9858985960621b89820152610ba086015288519061126582615b8f565b81526f25d4080557b93a009a5468696d70687560781b88820152610bc0850152875161129081615b8f565b8181526e0301e19e01d304c000f74b796a697760881b88820152610be08501528751906112bc82615b8f565b81526e01255aa900ced7eb803c24bd36b4b960891b87820152610c0084015286516112e681615b8f565b601481527244fcec7fc31972c043139bdd585ad8da1bdd1d60621b87820152610c20840152865161131681615b8f565b8181526f01f437f9fa3afb49010044616c6c617360801b87820152610c4084015286519061134382615b8f565b81526ee7126281b3404c8026a5b2b936b0b760811b86820152610c608301523590615bcd565b519251928284938452830190615a9e565b0390f35b80fd5b8280fd5b5034611381576020928360031936011261137e575061137a91611369918551916113ae83615b1e565b86516113b981615b8f565b60118082526f4051b2ff2a7666201a4a0d0decadcd2f607b1b888301529084528751906113e582615b8f565b60139182815272016ba42501f6f8f800ef4e617373657273656560681b8982015288860152885161141581615b8f565b601781527ffe96ba6107fb2bff00de416c69636520537072696e67730000000000000000008982015289860152885161144d81615b3b565b602581527ffea20119fbef0264002853616e20506564726f2064652041746163616d612c2089820152644368696c6560d81b8a820152606086015288519261149484615b8f565b60129384815270ff857dffd1f343001454696d62756b747560701b8a82015260808701528951906114c482615b3b565b602182527f0230362904e837b000b650726f76696e7a2058696e6a69616e672c204368696e8a830152606160f81b91828c82015260a08801528a5161150881615b8f565b601581527401f774a5f9a9d67f00a257686974652053616e647360581b8b82015260c08801528a519061153a82615b8f565b601b82527f022965f7f925936a00ea4c61732056656761732c204e657661646100000000008b830152870152895161157181615b8f565b601981527f023b5baaf969308500804d6f6e756d656e742056616c6c6579000000000000008a82015261010087015289516115ab81615b8f565b8981527f0271fb82061e671900b9496e6e657265204d6f6e676f6c65692c204368696e618a82015261012087015289516115e481615b8f565b601f81527eec959501eeb53a005257656973736572204e696c2c204b68617274756d20008a82015261014087015289519061161e82615b3b565b602182527ffea4116800e19844011b4e616d69622d4e61756b6c7566742c204e616d6962698a8301528a820152610160860152885161165c81615b8f565b600e81526d0126bb707cb7458d005a26b7b0b160911b89820152610180860152885161168781615b8f565b81815270fe079ba1fbe734f401484d656e646f7a6160781b898201526101a08601528851906116b582615b8f565b601691828152747514f00150d3dc002c29b0b730b096102cb2b6b2b760511b8a8201526101c087015289516116e981615b8f565b8181526f910d7600dee5358034905cd9d858985d607a1b8a8201526101e0870152895161171581615b8f565b8181526fc9796b822e1bf0806ea537b238343ab960791b8a82015261020087015289519061174282615b8f565b6010918281526e59db7480de8071400c135d5cd8d85d60821b8b8201526102208801528a5161177081615b3b565b602681527f01b68a790221b9fb00fc50726f76696e7a20546162756b2c2053617564692d418b820152653930b134b2b760d11b8c8201526102408801528a516117b881615b8f565b8581527011c3df67fe38d29005e23b930b730b230960751b8b8201526102608801528a516117e581615b8f565b838152750137ecf902f9592200b552756220616c204b68616c6960501b8b8201526102808801528a5161181781615b8f565b601881527ffe8fa9df081e283c000053696d70736f6e2044657365727400000000000000008b8201526102a08801528a5161185181615b8f565b601f81527fff2cd18efb718c7a014549736c612053616e2047616c6c616e2c2050657275008b8201526102c08801528a5161188b81615b8f565b81815270fe9d8e0bfbce6eb9015441746163616d6160781b8b8201526102e08801528a516118b881615b8f565b601781527583ca21fe474d36402a135bda985d994811195cd95c9d604a1b8b8201526103008801528a516118eb81615b8f565b85815271fe7f8b490143e67000004b616c616861726960701b8b8201526103208801528a5161191981615b3b565b602381527f02a8ce5c066768c500b45a616769696e2075732c20476f62692c204d6f6e676f8b820152626c656960e81b8c8201526103408801528a5161195e81615b8f565b838152746813ab406b99afc02cd5da1a5d194811195cd95c9d60521b8b8201526103608801528a5161198f81615b8f565b601881527f020f7f95f92eb79000e4436f6c6f7261646f20526976657200000000000000008b8201526103808801528a516119c981615b8f565b858152702ffda1806b779b6011a8cead4c2d2e4c2d60731b8b8201526103a08801528a516119f681615b8f565b60148152721fadcb02b3082c00854d6f676164697363687560601b8b8201526103c08801528a51611a2681615b3b565b603181527f010336ae014d513200c34775656c7461206427204172636865692c20456e65648b820152701a48141b185d19585d4b08151cd8da1859607a1b8c8201526103e08801528a51611a7981615b8f565b6014815273012e8cd60128446f0115456d69204b6f7573736960601b8b8201526104008801528a51611aaa81615b8f565b8581527fffbddee400e80c0000644b696e736861736100000000000000000000000000008b8201526104208801528a51611ae381615b8f565b600e81526d0180f4f580e900e2806e25b4b2bb60911b8b8201526104408801528a51611b0e81615b8f565b81815270020f61b00247c464005d50616c6d79726160781b8b8201526104608801528a51611b3b81615b8f565b6015815273f5c0747fbff468800315985d1b985a9bdadd5b1b605a1b8b8201526104808801528a51611b6c81615b8f565b601781527f04c0b3bd00b01405003159747265204e6f72736b6f79610000000000000000008b8201526104a08801528a51611ba681615b8f565b600f81526e013ab186ff122c2dc057505b195c9d608a1b8b8201526104c08801528a51611bd281615b8f565b8581527043dfdf70189784400044e6f72646b6170760741b8b8201526104e08801528a51611bff81615b8f565b8481527203d23601feb53c1101175265796b6a6176696b60681b8b8201526105008801528a51611c2e81615b8f565b8281526f043fa25af6a7ce040152426172726f7760801b8b8201526105208801528a51611c5a81615b8f565b8281526f040b29a90136d5ea01214b6972756e6160801b8b8201526105408801528a51611c8681615b8f565b81815270fcbb75c2fbed6d8a013f5573687561696160781b8b8201526105608801528a51611cb381615b8f565b8581527101e41e6184414dc0800d27bcb6bcb0b5b7b760711b8b8201526105808801528a51611ce181615b8f565b601781527f04f3f8cefbccd02e01654361706520436f6c756d6269610000000000000000008b8201526105a08801528a51611d1b81615b8f565b601b81527f01f9598b057c8513003951696e672d5a616e672d506c617465617500000000008b8201526105c08801528a51611d5581615b3b565b602581527f0256854a0452e8fd00b45472616e7361696c61692c2050616d6972204d6f756e8b820152647461696e7360d81b8c8201526105e08801528a51611d9c81615b8f565b848152720227c832048278a4004a4b6172616b6f72756d60681b8b8201526106008801528a51611dcb81615b8f565b8381527458c62c000f3aa78010e94eadccecce4c2ead4dec6d60531b8b8201526106208801528a51611dfc81615b8f565b60148152726af6c3814bdf9a403a535d08115d995c995cdd60621b8b8201526106408801528a51611e2c81615b3b565b602e81527ffc0c79350602883c00b2416c676165204c616b652c2042756e6765722048696c8b8201526d6c732c20416e746172637469636160901b8c8201526106608801528a51611e7c81615b3b565b602e81527f0493c43e0401732b01434f7374726f762053657665726e796a2c20426172656e8b8201526d7473205365612c2052757373696160901b8c8201526106808801528a51611ecc81615b8f565b81815270029cc42b00a84717006c466972656e7a6560781b8b8201526106a08801528a51611ef981615b8f565b848152720294e45300539d9c01014d61727365696c6c6560681b8b8201526106c08801528a51611f2881615b8f565b8281526f018512a6005676cc806b2bb2b4b6b0b960811b8b8201526106e08801528a51611f5481615b8f565b601b81527f02376b36faacfe3d00bd4d6973736973736970706920526976657200000000008b8201526107008801528a51611f8e81615b8f565b85815271036a47e5ffbb6b2400644c6f6368204e697360701b8b8201526107208801528a51611fbc81615b8f565b600f81526e0365eace0294715100c7566f6c676160881b8b8201526107408801528a51611fe881615b8f565b8381527502b94b950186d8e400b45472616e73696c76616e696160501b8b8201526107608801528a5161201a81615b3b565b602481527fffbcbcaa06424a25000050726f76696e7a204c616d70756e672c20496e646f6e8b820152636573696160e01b8c8201526107808801528a5161206081615b3b565b602d81527ffdcd7aec08a5e72b0029476f756c6275726e2052697665722c20566963746f728b8201526c69612c204175737472616c696160981b8c8201526107a08801528a516120af81615b8f565b85815271031005e5006678370074447569736275726760701b8b8201526107c08801528a516120dd81615b8f565b8281526f02fbc4fd012f8fed006d4b72616b6f7760801b8b8201526107e08801528a5161210981615b8f565b85815270b54ab5c048aa228014909d59185c195cdd60721b8b8201526108008801528a5161213681615b8f565b8481527202bf39d000dddf9f00dd4c6a75626c6a616e6160681b8b8201526108208801528a5161216581615b8f565b601781527f02412761f8b25068007f53616e204672616e636973636f0000000000000000008b8201526108408801528a5161219f81615b8f565b8281526f02602b79ffc2b99e0111546f6c65646f60801b8b8201526108608801528a516121cb81615b8f565b600f81526e0230d55f0852410d00bc4e696b6b6f60881b8b8201526108808801528a516121f781615b8f565b8281526e2fc5b3e0e7be8fe00d8a8c2d2e0cad60831b8b8201526108a08801528a5161222281615b8f565b818152700199451f05f96aad015f4c696a69616e6760781b8b8201526108c08801528a5161224f81615b8f565b81815270016028bcfb16b1a80013486176616e6e6160781b8b8201526108e08801528a5161227c81615b8f565b8581527089d52f824a2b61004fa5b4b733b9ba37b760711b8b8201526109008801528a51906122aa82615b8f565b815270031f4920063624cc00b249726b7574736b60781b8a82015261092087015289516122d681615b8f565b601581527403571a2f058a960d00c14b7261736e6f796172736b60581b8a820152610940870152895161230881615b8f565b60158152740347d1d204f075e600b14e6f766f7369626972736b60581b8a820152610960870152895161233a81615b8f565b600f81526e018670817c8e368d80252130b7333360891b8a820152610980870152895161236681615b8f565b601481527302d63094fcdaedf9007453742e204a6f686e277360601b8a8201526109a0870152895161239781615b8f565b84815270ae36c87ee7b3a64037d35bdb9d1c99585b60721b8a8201526109c087015289516123c481615b8f565b8181526f01e8b9cd7bd7f6cd002ca230bbb9b7b760811b8a8201526109e087015289516123f081615b3b565b602581527f03c19885f850570b00a24e616174732769686368276f68204e6174696f6e616c8a82015264205061726b60d81b8b820152610a00870152895161243781615b8f565b84815271fed676b6fd776a81014249706174696e676160701b8a820152610a20870152895161246581615b8f565b838152712b1663fc628a610118426f6120566973746160681b8a820152610a40870152895161249381615b8f565b8481527fff0d7113fd2190fa004742726173696c696100000000000000000000000000008a820152610a6087015289516124cc81615b8f565b8181527fff4982a7010db698014b4375616e7a61000000000000000000000000000000008a820152610a80870152895161250581615b8f565b8181526f02972f9c02835c85007a456c6272757360801b8a820152610aa0870152895161253181615b8f565b848152710103d486023728080021a9b934b730b3b0b960711b8a820152610ac0870152895161255f81615b8f565b8181526e818a54803cb0228033a0b3b0b232bd60811b8a820152610ae0870152895161258a81615b3b565b602181527e849753078ddb39012e5269622049726162696d2c2054696d6f722d4c6573748a820152606560f81b8b820152610b0087015289516125cc81615b8f565b82815274481ec77e889d710049941bdc1bd8d85d195c195d1b60521b8a820152610b2087015289516125fd81615b8f565b828152753f356aa58118350780109219585c9908125cdb185b9960521b8a820152610b4087015289519061263082615b8f565b81526e366a458099d08cc03811185b1b1bdb60821b89820152610b60860152885161265a81615b8f565b601981527ec12afd0338701900d24861646962752c20537571757472610000000000000089820152610b80860152885161269381615b8f565b601a81527ffdca5ce0ff44ce5e000c5472697374616e2064612043756e686100000000000089820152610ba08601528851906126ce82615b8f565b8152757eb49c5f051ce75500172930b5b0b4b0902934bb32b960511b88820152610bc085015287516126ff81615b8f565b601a81527e7c4df0fb5c3b5400ae5461706f6e2064656c2044617269656e00000000000088820152610be0850152875161273881615b8f565b600e81526d03d44a15fceca7f500dd4e75756b60901b88820152610c0085015287519061276482615b8f565b8152710e1f9b4810dc4f800432bb0b23490293ab69606d1b87820152610c20840152865161279181615b8f565b601981527f01a4daa2055b4743013a50756e61205473616e6720436875200000000000000087820152610c4084015286516127cb81615b8f565b81815271015be91281e355618098a130b4b5b7b73ab960711b87820152610c608401528651906127fa82615b8f565b815271fe62913ef97ce95e001252617061204e756960701b86820152610c80830152855161282781615b8f565b601881527f02319855ff9ed865008d436f746f20646520446f6e616e61000000000000000086820152610ca08301523590615bf4565b5034611381576020928360031936011261137e575061137a916113699185519161288683615aeb565b865161289181615b8f565b6019908181527f0120f1cef6b90734009a506170616b6f6c65612042656163680000000000000088820152845287516128c981615b8f565b8181527fffed4db1fa9c1a10000850756e746120436f726d6f72616e74000000000000008882015287850152875161290081615b8f565b601b81527f03c77458fedd512100be5265796e6973666a6172612042656163680000000000888201528885015287519061293982615b8f565b6018918281527f0123f9c8f6bb2f16007250756e616c752775204265616368000000000000000089820152606086015288519261297584615b8f565b601593848152739b8c75fae2551200e5506c617961204e6567726160581b8a820152608087015289516129a781615b8f565b601d81527f022ab4a101833ada00ff56696b2042656163682053616e746f72696e690000008a82015260a087015289516129e081615b8f565b8381527ffdcb34be0a664504010e4b6172656b61726520426561636800000000000000008a82015260c0870152895190612a1982615b8f565b601f82527f013d35eff6b3939f005a426c61636b2053616e64204265616368204d617569008a8301528601528851612a5081615b8f565b8281527ed3937dfc5c05f20100416e7365204368617374616e65740000000000000000898201526101008601528851612a8881615b8f565b8881527f025022da00e885e601655370696167676961206469204669636f6772616e6465898201526101208601528851612ac181615b8f565b8181527f01b3fbf5ff08eaff014a506c6179612064652042656e696a6f00000000000000898201526101408601528851612afa81615b8f565b601c81527f01b3c717ff06c64b011e506c61796120646520656c204172656e616c00000000898201526101608601528851612b3481615b8f565b601d81527ffebb8f55034c4bb5010e506c616765206465204574616e672053616c6500000089820152610180860152885191612b6f83615b8f565b601792838152754555ab60309556400f2a0cae4d2e6e6c24084cac2c6d604b1b8a8201526101a08701528951612ba481615b3b565b602181527f03a48766f72ba0e80102426c61636b2053616e6420426561636820416c61736b8a820152606160f81b8b8201526101c08701528951612be781615b8f565b8981527f03cd61d2ff010e6600a85376696e6166656c6c736a6f6b756c6c2042656163688a8201526101e08701528951612c2081615b8f565b601f81527ffef50d90f716dee7010e506c61676520646520506f696e74652056656e7573008a8201526102008701528951612c5a81615b8f565b601c81527e62113205f2be0f012850616e74616920506173697220486974616d000000008a8201526102208701528951612c9381615b3b565b602181527f01851a05fb6eb2db005650696e6b2053616e6420426561636820426168616d618a820152607360f81b8b8201526102408701528951612cd681615b8f565b8381527f0275df37008ec3e7007a537069616767696120526f73610000000000000000008a820152610260870152895191612d1083615b8f565b601a928381527f021a312901673665009e456c61666f6e697373692042656163680000000000008b8201526102808801528a5192612d4d84615b8f565b601693848152751fef981040e3f796a01a4a0c2dce8c2d2409acae4c2d60531b8c8201526102a08901528b51612d8281615b8f565b8681527318ff71df8e9e8a6010e86e4c2dcca4084cac2c6d605b1b8c8201526102c08901528b51612db281615b8f565b8b81527f01ec2115fc22e7260096486f7273652053686f6520426179204265726d7564618c8201526102e08901528b51612deb81615b3b565b602281527e68ccdf07465c0700fe4772616e64652053616e7461204372757a2049736c618c820152611b9960f21b8d8201526103008901528b51612e2e81615b8f565b601c81527f010ce41afc503f33011950696e6b2042656163682042617262756461000000008c8201526103208901528b51612e6881615b8f565b601e81527fffbd43130353e28d010e416e736520536f75726365206427417267656e7400008c8201526103408901528b51612ea281615b8f565b8581527ffdfa1b72011860690142436c6966746f6e2042656163680000000000000000008c8201526103608901528b51612edb81615b8f565b601b81527fffbeec3c025c3c56005a4469616e61204265616368204b656e796100000000008c8201526103808901528b51612f1581615b8f565b8481527fffa8a8c30257979e01564e756e677769204265616368000000000000000000008c8201526103a08901528b51612f4e81615b8f565b8281527f01a9faff020c3e2000b4536861726d20456c20536865696b68000000000000008c8201526103c08901528b51612f8781615b8f565b8181527ffecbcbf80371ae23001442656c6c61204d6172652042656163680000000000008c8201526103e08901528b51612fc081615b8f565b601e81527efd2679fea25131007350726169612064652053616e7461204d6172696100008c8201526104008901528b51612ff981615b8f565b8181527f01c161ddff65ac1700f7506c616765206465204c61677a6972610000000000008c8201526104208901528b5161303281615b8f565b8281527ecc1783feffb52800fe42616c642043617065204265616368000000000000008c8201526104408901528b5161306a81615b8f565b601381527fff6c52c400c96958015f4361626f204c65646f000000000000000000000000008c8201526104608901528b516130a481615b8f565b6014815273fea182b8fd6d22a90091436f7061636162616e6160601b8c8201526104808901528b516130d581615b8f565b601c81527ffeca53b608e269dc000357686974652048656176656e204265616368000000008c8201526104a08901528b5161310f81615b8f565b6013815272014cc8cefbb2d4b0012247726163652042617960681b8c8201526104c08901528b5161313f81615b8f565b8181527f01a007c5fb1454a100d2536965737461204b65792042656163680000000000008c8201526104e08901528b5161317881615b8f565b8581527f014975f5fb23a6a0009b506c617961205061726169736f0000000000000000008c8201526105008901528b516131b181615b8f565b8181527fff039e02f6f4a7f3010b506c616765206465204d6174697261200000000000008c8201526105208901528b516131ea81615b8f565b8581527528cd8c3ed32ebd4008e98c2dcd2d6c2d24084cac2c6d604b1b8c8201526105408901528b5161321c81615b8f565b8681527326760adf5932d4200dea8ead8eada4084cac2c6d605b1b8c8201526105608901528b5161324c81615b8f565b601d81527eb6633c07447de400f4576869746520426561636820426f72616361790000008c8201526105808901528b5161328581615b8f565b868152741fbd0192211f71a4a001690f2c2dae64084cac2c6d605b1b8c8201526105a08901528b516132b681615b8f565b8181527ebfcbf4fbd327a1012750616c6d2042656163682041727562610000000000008c8201526105c08901528b516132ee81615b8f565b8281527fffc5311bfe10f5aa0130507261696120646f2053616e63686f000000000000008c8201526105e08901528b5161332781615b8f565b8381527f011a062bfbec65700071506c617961204a75616e696c6c6f00000000000000008c8201526106008901528b5161336081615b3b565b602581527f01914366079fce5300e457686974652042656163682c204f6b696e6177612c208c820152642530b830b760d91b8d8201526106208901528b516133a781615b8f565b8381527e3c31e20461605901274d6161667573686920426561636800000000000000008c8201526106408901528b516133df81615b8f565b848152740a0621608b8cd3000caa4cacae8d0d24084cac2c6d60531b8c8201526106608901528b5161341081615b8f565b8381527ecdea8afaab46a30096506c61796120456c205a6f6e746500000000000000008c8201526106808901528b5161344881615b8f565b868152735e2a679ffe55d2600409edac2d0c24084cac2c6d605b1b8c8201526106a08901528b5161347881615b8f565b8481527418df38c0992017800cc8ed0c2dcc8d24084cac2c6d60531b8c8201526106c08901528b516134a981615b8f565b601281527075238205e30d79013c4d6179612042617960701b8c8201526106e08901528b516134d781615b8f565b60128152710179d2fb086c4c77009649776f204a696d6160701b8c8201526107008901528b5161350681615b8f565b8681527fff7af7fd06dd5569010450616e746169204b75746100000000000000000000008c8201526107208901528b5161353f81615b8f565b8181527f0235f152ff7fa40e00b45072616961206461204d6172696e68610000000000008c8201526107408901528b5161357881615b8f565b601e81527f024f6d480015e6e3010e506c6179612064652073657320496c6c6574657300008c8201526107608901528b516135b281615b8f565b85815275aa1b487ffb5c36804a111d5b9948191d48141a5b185d604a1b8c8201526107808901528b516135e481615b8f565b6014815272a501a6803f744bc02d169b185d1b9a4814985d60621b8c8201526107a08901528b5161361481615b8f565b8581527f0382a2850055609100ce536f6c6172737472616e64656e0000000000000000008c8201526107c08901528b5161364d81615b8f565b8181527f02fb9823ffa9ca14008a506f7274686375726e6f2042656163680000000000008c8201526107e08901528b5161368681615b8f565b8381527f026169c8003c135f00b743616c61204d61636172656c6c6100000000000000008c8201526108008901528b516136bf81615b8f565b60128152710116da1300de1ea4005927b63ab232b734bd60711b8c8201526108208901528b516136ee81615b8f565b8681527342bc188040cb3dc01689cd2e6e6d24084cac2c6d605b1b8c8201526108408901528b5161371e81615b8f565b8481527457862e1f138d552021c86c2dcdcdedc4084cac2c6d60531b8c8201526108608901528b5161374f81615b8f565b8581527f01f54242f9028e9900334c61204a6f6c6c6120436f76650000000000000000008c8201526108808901528b5161378881615b8f565b848152745b66377f1245290020ea4d2c2d8e8de4084cac2c6d60531b8c8201526108a08901528b516137b981615b8f565b8381527f010374f50339fbc100a5536861746920616c20486166666100000000000000008c8201526108c08901528b516137f281615b8f565b8381527f017fc6bf035bf00a006046756a616972616820426561636800000000000000008c8201526108e08901528b5161382b81615b8f565b8381527f018073f7034ac3a8010e4a756d656972616820426561636800000000000000008c8201526109008901528b5161386481615b8f565b8381527ffdeb9d86fcbc100f009250756e74612064656c204573746500000000000000008c8201526109208901528b5161389d81615b8f565b6014815272c03fdcfb2185c600964361796f20537563726560601b8c8201526109408901528b516138cd81615b8f565b8681527fffc17269fb2b3ed0012f4c617320506f636974617300000000000000000000008c8201526109608901528b5161390681615b8f565b601181526f0f477e40bc84b1a020ca4c2d24098cad607b1b8c8201526109808901528b5161393381615b8f565b601b81527eb743c3058b345e006e56696a6179204e6167617220426561636800000000008c8201526109a08901528b5161396c81615b8f565b84815274159b0700e3cb0d2021c9cc2c6e0c2dc4084cac2c6d60531b8c8201526109c08901528b5161399d81615b8f565b8481527507f76e4ce83a43d9000a021b0b13632902132b0b1b4160551b8c8201526109e08901528b516139cf81615b8f565b8281527fff2c03bafb73baa400be506c61796120526f6a612050657275000000000000008c820152610a008901528b51613a0881615b8f565b8581527ffe626c89fbc6cf0700ff426168696120496e676c6573610000000000000000008c820152610a208901528b51613a4181615b8f565b8281527fffe437b3fb2fbe8f00f5506c617961204d6f6e74616e697461000000000000008c820152610a408901528b51613a7a81615b8f565b848152744041119ff0f456c01009af2e4e8d8ca4084cac2c6d60531b8c820152610a608901528b51613aab81615b8f565b8181527f03135593ff78e0be0099496e636861646f6e65792042656163680000000000008c820152610a808901528b51613ae481615b8f565b8181527f03733874ff95e53700d54c75736b656e747972652042656163680000000000008c820152610aa08901528b51613b1d81615b8f565b8281527ffdf62d9401198f0a0154426f756c6465727320426561636820000000000000008c820152610ac08901528b5190613b5782615b8f565b81527ed452ddfa92704e00b8506c61796120456c2050617265646f6e0000000000008b820152610ae08801528a51613b8e81615b8f565b8281527f0148c223facb115a0138506c617961204d6f73717569746f00000000000000008b820152610b008801528a51613bc781615b8f565b8381527501386246facc8ed0006d506c617961205870752d486160501b8b820152610b208801528a51613bf981615b8f565b601b81527e5afbb704cf802900a4486972696b65746979612042656163682000000000008b820152610b408801528a51613c3281615b8f565b8181527f025ee2070131220b00fa506c617a6869204b73616d696c6974000000000000008b820152610b608801528a5190613c6c82615b8f565b81527f01161ebefbe894150038506c617961204775616e6162616e6f000000000000008a820152610b80870152895190613ca582615b8f565b81527f025f8cd7079c0b77009048616d68756e6720426561636820000000000000000089820152610ba0860152885190613cde82615b8f565b81527fffa763140258918a004c4d7579756e692042656163680000000000000000000088820152610bc08501528751613d1681615b8f565b601f81527e48dde306d4a41a014850616e7461692053657269204b656e74616e67616e0088820152610be08501528751613d4f81615b8f565b601e81527f02244d8100dae07200ff49722d52616d6c612074616c204d697871757161000088820152610c008501528751613d8981615b8f565b601b81527ffff9e7f5fa97e97b00085261626964612052656420426561636820000000000088820152610c20850152875190613dc482615b8f565b81527531da6360f3bfe50010090f2c2d6eadcc24084cac2c6d604b1b87820152610c40840152865190613df682615b8f565b81527fff80d10606e4ca6e001841686d6564204265616368000000000000000000000086820152610c608301523590615bcd565b509034611381576020806003193601126141465782359280841015614142576060600194858114600014613fed575050613e62615c76565b948651613e6e81615b8f565b8581528336818301376012613e8282615cdf565b528751613e8e81615b73565b603281526101e0858201526103cd89820152603c6060820152885191613eb383615b73565b8951613ebe81615b8f565b888152603560f91b878201528352858301528882015261015e6060820152613ee587615cdf565b52613eef86615cdf565b509590929493915b81519687968288019383895287518095528089019184828760051b8c0101990197845b878610613f27578b8b038cf35b919395979990929496989a50603f198c820301865289888c5192613f52845188835288830190615a9e565b9082850151918181038483015283808451928381520193019087905b808210613fcc575050508489015186828b015b898210613fad5750505060c0606084959601519101529c019601960193918b9a99979598969391613f1a565b948294979581929497935181520193019101908e94918d949693613f81565b929591969480919460ff89511681520196019201918c9395928f9592613f6e565b6002810361409a575050613fff615c76565b94865161400b81615b8f565b858152833681830137600261401f82615cdf565b52875161402b81615b73565b6102dd81526103ad85820152610136898201526069606082015288519161405183615b73565b895161405c81615b8f565b888152606d60f81b878201528352858301528882015261012c606082015261408387615cdf565b5261408d86615cdf565b505b959092949391613ef7565b9095906002190161408f5794506140af615c76565b9486516140bb81615b8f565b85815283368183013760026140cf82615cdf565b5287516140db81615b73565b61035d81526103ba8582015260d3898201526028606082015288519161410083615b73565b895161410b81615b8f565b888152603160f81b878201528352858301528882015261012c606082015261413287615cdf565b5261413c86615cdf565b5061408f565b8480fd5b8380fd5b5083833461137e57602036600319011261137e5782359283101561137e5750614174602092615c27565b9051908152f35b50839134614146576020918260031936011261414257604861137a9361462161466a9761461a60ff6146118a986146859860a09c51916141ba83615aeb565b600183526001898401528b6002918280928601528160608601528160808601528f82908601528160c08601528401528061010084015280610120840152806101408401528061016084015280610180840152806101a0840152806101c0840152806101e08401528061020084015260039687610220850152806102408501528061026085015280610280850152806102a0850152806102c0850152806102e085015280610300850152610320840152600596876103408501528261036085015282610380850152826103a0850152806103c0850152826103e08501528061040085015280610420850152876104408501528061046085015280610480850152826104a0850152826104c0850152826104e08501528261050085015282610520850152826105408501528261056085015282610580850152826105a0850152826105c0850152806105e08501528261060085015282610620850152826106408501528261066085015281610680850152806106a0850152806106c0850152826106e08501528161070085015280610720850152806107408501528761076085015280610780850152826107a0850152826107c0850152826107e08501528761080085015287610820850152876108408501528761086085015287610880850152876108a0850152826108c0850152876108e08501528261090085015287610920850152876109408501528761096085015287610980850152876109a0850152826109c0850152806109e08501526006610a0085015282610a2085015287610a4085015287610a6085015287610a8085015282610aa085015282610ac085015281610ae085015287610b0085015282610b2085015287610b4085015282610b6085015280610b8085015280610ba085015282610bc085015287610be0850152610c008401526006610c2084015286610c40840152610c608301528a519561447e87615b57565b8b5161448981615b8f565b600790818152662366666130653760c81b8b82015288528c516144ab81615b8f565b8181526608ce58988c8c8d60ca1b8b8201528a8901528c516144cc81615b8f565b81815266119a3119b21b1b60c91b8b8201528d8901528c516144ed81615b8f565b818152660236666643730360cc1b8b82015260608901528c5161450f81615b8f565b8181526611b333331ab13360c91b8b82015260808901528c519061453282615b8f565b81526611b3333232b31b60c91b8a8201528e8801528b519d8e61455481615b57565b8d5161455f81615b8f565b8481526350696e6b60e01b8c82015281528d5161457b81615b8f565b8381526423b932b2b760d91b8c820152818c01528d518e61459b82615b8f565b84825264426c61636b60d81b8d8301528201528d516145b981615b8f565b8481526311dbdb1960e21b8c82015260608201528d516145d881615b8f565b83815264576869746560d81b8c82015260808201528d51926145f984615b8f565b835264437265616d60d81b8b84015201523590615bcd565b51168092615c16565b5197615c16565b51845197827f2c7b2274726169745f74797065223a22426561636820436f6c6f72222c2276618a9485015265363ab2911d1160d11b878501528251928391604686019101615a7b565b810161227d60f01b6046820152036028810187520185615bab565b5192839283615ac3565b50929092346113815760209384600319360112614146579060ff61497484938661137a9651916146be83615aeb565b818352818a84015281878401528160608401528160808401528160a08401528160c08401528201528661010082015260019384610120830152876101408301528461016083015287610180830152876101a0830152846101c0830152876101e08301528461020083015287610220830152876102408301528761026083015287610280830152876102a0830152876102c0830152876102e08301528761030083015284610320830152876103408301528461036083015284610380830152846103a0830152876103c0830152876103e08301528761040083015287610420830152876104408301528761046083015287610480830152876104a0830152846104c0830152876104e08301528461050083015287610520830152876105408301528761056083015287610580830152876105a0830152876105c0830152876105e08301528761060083015287610620830152876106408301528761066083015287610680830152876106a0830152876106c0830152876106e08301528761070083015287610720830152876107408301528761076083015287610780830152876107a0830152876107c0830152846107e08301528461080083015287610820830152876108408301528761086083015287610880830152876108a0830152846108c0830152846108e08301528461090083015287610920830152876109408301528761096083015284610980830152846109a0830152846109c0830152876109e083015287610a0083015284610a2083015287610a4083015284610a6083015287610a8083015287610aa083015287610ac083015284610ae083015287610b0083015284610b2083015284610b4083015287610b6083015287610b8083015287610ba083015287610bc083015287610be083015287610c0083015284610c2083015287610c4083015287610c608301523590615bcd565b51161492508215614a1457805161498a81615b8f565b600381526259657360e81b85820152905b614a016044825180947f2c7b2274726169745f74797065223a22436f617374656c222c2276616c75652289830152611d1160f11b858301526149e6815180928b604286019101615a7b565b810161227d60f01b6042820152036024810185520183615bab565b8080519586958652850152830190615a9e565b8051614a1f81615b8f565b60028152614e6f60f01b858201529061499b565b50929034611381576020928360031936011261137e57843583519261014084019084821067ffffffffffffffff831117614c7957818652614a7382615b8f565b6007918281526611b33331b0b13360c91b61016087015285528551614a9781615b8f565b828152662366666363393960c81b88820152878601528551614ab881615b8f565b8281526611b29b30b29b9b60c91b88820152868601528551614ad981615b8f565b8281526611b1b19c331a9960c91b8882015260608601528551614afb81615b8f565b828152662362623766343360c81b8882015260808601528551614b1d81615b8f565b828152662339363633323960c81b8882015260a08601528551614b3f81615b8f565b8281526608ce4c8d588c9960ca1b8882015260c0860152855190614b6282615b8f565b828252662337613436323560c81b888301528501528451614b8281615b8f565b818152662366666363373360c81b87820152610100850152845190614ba682615b8f565b81526608d99998d8cd1960ca1b86820152610120840152600381029080820460031490151715614c6657600a900690600a821015614c5357509061137a9160051b01519161468560478251867f2c7b2274726169745f74797065223a22536b696e20436f6c6f72222c2276616c8298830152643ab2911d1160d91b85830152614c388751809260458501908a01615a7b565b810161227d60f01b6045820152036027810187520185615bab565b634e487b7160e01b815260328652602490fd5b634e487b7160e01b825260118652602482fd5b634e487b7160e01b845260418852602484fd5b5092919234614146576020938460031936011261137e57835193614caf85615b1e565b60019081865260029384888801528282880152826060880152826003968760808a01528560a08a01528560c08a0152880152836101008801528361012088015285610140880152614f836008978861016082015285610180820152846101a0820152846101c0820152846101e082015284610200820152600980610220830152866102408301528661026083015286610280830152866102a0830152896102c0830152896102e08301528661030083015286610320830152866103408301528661036083015287610380830152806103a0830152806103c0830152866103e08301528661040083015288610420830152886104408301528561046083015286610480830152866104a0830152806104c0830152896104e08301528061050083015280610520830152856105408301528561056083015288610580830152896105a0830152866105c0830152866105e08301528661060083015286610620830152866106408301528661066083015289610680830152886106a0830152806106c0830152856106e08301528761070083015286610720830152876107408301528561076083015287610780830152876107a0830152886107c0830152886107e08301528861080083015288610820830152806108408301528861086083015288610880830152886108a0830152856108c0830152806108e08301528061090083015288610920830152886109408301528861096083015288610980830152806109a0830152886109c0830152886109e083015287610a0083015288610a2083015288610a4083015285610a6083015287610a8083015286610aa083015285610ac083015285610ae083015287610b0083015285610b2083015286610b4083015286610b6083015285610b8083015289610ba083015287610bc083015287610be0830152610c0082015285610c2082015286610c4082015287610c6082015288610c80820152600a610ca0820152823590615bf4565b51928084161496808680861614928086161494161493825196614fa588615b8f565b87526259657360e81b89880152825195614fbe87615b8f565b8652614e6f60f01b8987015287156151e057865b838051918b8301907f2c7b2274726169745f74797065223a2243697479222c2276616c7565223a220082526150118d8251928391603f88019101615a7b565b83019061503560418561227d60f01b9485603f820152036021810187520185615bab565b85156151d9578a935b8d845195869282840194859151809261505692615a7b565b8301908282017f2c7b2274726169745f74797065223a225269766572222c2276616c7565223a2290528051809388840192019161509292615a7b565b018385820152036022810185526042016150ac9085615bab565b8c8860001461137a9c61515d9c6151a898615142604660429a615194966151d357855b8b519b8c926150e68b85019c8d9251928391615a7b565b8301907f2c7b2274726169745f74797065223a224d6f756e7461696e73222c2276616c758b8301526332911d1160e11b9082015261512d825180938c604485019101615a7b565b018a604482015203602681018b520189615bab565b508c156151cb5750925b89519c8d9651809285890190615a7b565b8501917f2c7b2274726169745f74797065223a224f6365616e222c2276616c7565223a228184015283519384918b85019101615a7b565b019086820152036022810188520186615bab565b81519788978852870152850152606084015260a0608084015260a0830190615a9e565b90509261514c565b846150cf565b899361503e565b85614fd2565b50919290346141465760209081600319360112614142576155cc9161563e615660926156539786519161521883615b1e565b600280918185528187860152818a8601528160608601528160808601528160a08601528160c08601528401528061010084015280610120840152806101408401528061016084015280610180840152806101a0840152806101c0840152806101e08401528061020084015280610220840152806102408401528061026084015280610280840152806102a0840152806102c0840152806102e08401528061030084015280610320840152806103408401528061036084015280610380840152806103a0840152806103c0840152806103e08401528061040084015260019182610420850152826104408501528161046085015280610480850152806104a0850152806104c0850152806104e08501528061050085015280610520850152806105408501528061056085015280610580850152806105a0850152806105c0850152806105e08501528061060085015280610620850152806106408501528061066085015280610680850152826106a0850152826106c0850152826106e08501528261070085015282610720850152826107408501528261076085015282610780850152826107a0850152826107c0850152826107e08501528261080085015282610820850152826108408501528261086085015282610880850152826108a0850152826108c0850152826108e08501528261090085015282610920850152826109408501528261096085015282610980850152826109a0850152826109c0850152826109e085015280610a0085015282610a2085015282610a4085015282610a6085015282610a8085015282610aa085015282610ac085015281610ae085015282610b0085015282610b2085015280610b4085015281610b6085015281610b8085015282610ba085015282610bc085015282610be0850152610c0084015280610c2084015281610c40840152610c6083015280610c80830152610ca082015260ff6155c18751926154e784615b3b565b88516154f281615b8f565b60058152642837b630b960d91b878201528452885161551081615b8f565b600981526854656d70657261746560b81b8782015286850152885161553481615b8f565b600681526511195cd95c9d60d21b87820152898501528851996155568b615b3b565b895161556181615b8f565b60078152662344464232463760c81b888201528b52895161558181615b8f565b600781526611a11ca19c9b1b60c91b88820152878c015289516155a381615b8f565b60078152662346394232333360c81b888201528a8c01523590615bf4565b511694858092615c05565b519661563960498851809a7f2c7b2274726169745f74797065223a22436c696d617465205a6f6e65222c2276888301526630b63ab2911d1160c91b8b83015261561e815180928a604786019101615a7b565b810161227d60f01b604782015203602981018b520189615bab565b615c05565b51948451968796606088526060880190615a9e565b9186830390870152615a9e565b918301520390f35b50929192346141465760203660031901126141465760ff9161594c9160209585519261569384615aeb565b600390818552600291828a8701528289870152826001928360608901528160808901528360a08901528360c08901528701528261010087015280610120870152806101408701528361016087015281610180870152806101a0870152826101c0870152816101e08701528161020087015281610220870152816102408701528361026087015283610280870152816102a0870152836102c0870152826102e08701528161030087015281610320870152816103408701528361036087015281610380870152836103a0870152836103c0870152826103e08701528361040087015283610420870152816104408701528061046087015280610480870152806104a0870152826104c0870152826104e08701528261050087015282610520870152826105408701528061056087015283610580870152826105a0870152816105c0870152836105e08701528261060087015281610620870152836106408701528161066087015281610680870152816106a0870152816106c0870152806106e08701528261070087015282610720870152806107408701528161076087015281610780870152826107a0870152806107c0870152806107e08701528061080087015280610820870152806108408701528161086087015283610880870152806108a0870152806108c0870152806108e08701528161090087015282610920870152806109408701528361096087015281610980870152816109a0870152836109c0870152836109e087015283610a0087015282610a2087015283610a4087015281610a6087015283610a8087015283610aa087015283610ac087015281610ae0870152610b0086015282610b2086015281610b4086015281610b6086015280610b8086015281610ba086015282610bc086015280610be0860152610c0085015281610c20850152610c40840152610c608301523590615bcd565b51169051908152f35b8585849234615a77576020366003190112615a7757833560a0820182811067ffffffffffffffff821117615a64578452735f4ec3df9cbd43714fe2740f5e3616155c5b8419825273f4030086522a5beea4988f8ca5b36dbc97bee88c602083015273ec8761a0a73c34329ca5b1d3dc7ed07f30e836e28483015273214ed9da11d2fbe465a6fc601a91e62ebec1a0d6606083015273379589227b15f1a12195d3f2d90bbc9f31f952356080830152600381029080820460031490151715615a515760059006916005831015615a3e57506020935060018060a01b039160051b0151169051908152f35b634e487b7160e01b815260328552602490fd5b634e487b7160e01b835260118552602483fd5b634e487b7160e01b845260418652602484fd5b5080fd5b60005b838110615a8e5750506000910152565b8181015183820152602001615a7e565b90602091615ab781518092818552858086019101615a7b565b601f01601f1916010190565b9091615ada615ae893604084526040840190615a9e565b916020818403910152615a9e565b90565b610c80810190811067ffffffffffffffff821117615b0857604052565b634e487b7160e01b600052604160045260246000fd5b610cc0810190811067ffffffffffffffff821117615b0857604052565b6060810190811067ffffffffffffffff821117615b0857604052565b60c0810190811067ffffffffffffffff821117615b0857604052565b6080810190811067ffffffffffffffff821117615b0857604052565b6040810190811067ffffffffffffffff821117615b0857604052565b90601f8019910116810190811067ffffffffffffffff821117615b0857604052565b906064811015615bde5760051b0190565b634e487b7160e01b600052603260045260246000fd5b906066811015615bde5760051b0190565b906003811015615bde5760051b0190565b906006811015615bde5760051b0190565b6004811015615c605760018114615c595760028114615c5257600314615c4c57600090565b61016790565b506101db90565b5061013690565b634e487b7160e01b600052602160045260246000fd5b60409060405191615c8683615b8f565b6001835282916000805b602080821015615cd657845160209291615ca982615b73565b84606080845280838501528851615cbf81615b73565b608036823789850152830152828901015201615c90565b50505091925050565b805115615bde576020019056fea264697066735822122098645c2fe43cc68abbbbd3af9d39ce36d3177f33de25c2fbd90e84dae2fa486c64736f6c63430008190033","linkReferences":{}},"methodIdentifiers":{"getBeach(uint256)":"df33f664","getBeachColors(uint256)":"c1321e19","getClimateZoneForLandscape(uint256)":"228b974b","getHorizon(uint8)":"c482a49d","getLandscape(uint256)":"ebb57c65","getLandscapeTraits(uint256)":"2f8fb9ad","getScene(uint8)":"cf4e224b","getSkinColor(uint256)":"73075aff","getSkylineType(uint256)":"1c6e9c15","getSkyscraper(uint256)":"ec7803c5","getTradingChartAddress(uint256)":"13aa362d","isCityCoastal(uint256)":"b00a26b7"},"id":10}