{"abi":[{"type":"function","name":"getBeachTraits","inputs":[{"name":"index","type":"uint256","internalType":"uint256"}],"outputs":[{"name":"","type":"tuple","internalType":"struct BeachTraits","components":[{"name":"attributes","type":"string","internalType":"string"},{"name":"beachColor","type":"string","internalType":"string"},{"name":"skinColor","type":"string","internalType":"string"},{"name":"shortsColor","type":"string","internalType":"string"},{"name":"shortsColorAttribute","type":"string","internalType":"string"},{"name":"towelColor","type":"string","internalType":"string"},{"name":"towelColorAttribute","type":"string","internalType":"string"},{"name":"accessoireType","type":"uint256","internalType":"uint256"},{"name":"shortsPattern","type":"string","internalType":"string"},{"name":"towelPattern","type":"string","internalType":"string"},{"name":"shortsSVG","type":"string","internalType":"string"},{"name":"towelSVG","type":"string","internalType":"string"},{"name":"jellyTypeId","type":"uint256","internalType":"uint256"},{"name":"jellyColor","type":"string","internalType":"string"}]}],"stateMutability":"pure"},{"type":"function","name":"getCatTrait","inputs":[{"name":"index","type":"uint256","internalType":"uint256"}],"outputs":[{"name":"","type":"uint256","internalType":"uint256"},{"name":"","type":"string","internalType":"string"}],"stateMutability":"pure"},{"type":"function","name":"getCityTraits","inputs":[{"name":"index","type":"uint256","internalType":"uint256"}],"outputs":[{"name":"","type":"tuple","internalType":"struct CityTraits","components":[{"name":"attributes","type":"string","internalType":"string"},{"name":"priceFeed","type":"address","internalType":"address"},{"name":"skylineSVG","type":"string","internalType":"string"},{"name":"displaySVG","type":"string","internalType":"string"},{"name":"tableSVG","type":"string","internalType":"string"},{"name":"displayType","type":"uint256","internalType":"uint256"},{"name":"skyLinetype","type":"uint256","internalType":"uint256"},{"name":"isCoastel","type":"bool","internalType":"bool"},{"name":"accessoireType","type":"uint256","internalType":"uint256"},{"name":"tableColor","type":"string","internalType":"string"},{"name":"catTypeId","type":"uint256","internalType":"uint256"},{"name":"catColor","type":"string","internalType":"string"}]}],"stateMutability":"pure"},{"type":"function","name":"getFlowerType","inputs":[{"name":"index","type":"uint256","internalType":"uint256"}],"outputs":[{"name":"","type":"uint8","internalType":"enum FlowerType"}],"stateMutability":"pure"},{"type":"function","name":"getGeneric","inputs":[{"name":"index","type":"uint256","internalType":"uint256"}],"outputs":[{"name":"","type":"bytes","internalType":"bytes"},{"name":"","type":"uint256","internalType":"uint256"},{"name":"","type":"uint256","internalType":"uint256"}],"stateMutability":"pure"},{"type":"function","name":"getLandscapeTraits","inputs":[{"name":"index","type":"uint256","internalType":"uint256"}],"outputs":[{"name":"","type":"tuple","internalType":"struct LandscapeTraits","components":[{"name":"attributes","type":"string","internalType":"string"},{"name":"accessoireType","type":"string","internalType":"string"},{"name":"climateZoneColor","type":"string","internalType":"string"},{"name":"climateZoneIndex","type":"uint256","internalType":"uint256"},{"name":"before","type":"string","internalType":"string"},{"name":"front","type":"string","internalType":"string"},{"name":"hasCity","type":"bool","internalType":"bool"},{"name":"skinColor","type":"string","internalType":"string"},{"name":"shirtColor","type":"string","internalType":"string"},{"name":"shirtColorAttribute","type":"string","internalType":"string"},{"name":"shirtPattern","type":"string","internalType":"string"},{"name":"hat","type":"string","internalType":"string"},{"name":"pantsColor","type":"string","internalType":"string"},{"name":"furnitureColor","type":"string","internalType":"string"},{"name":"furnitureSVG","type":"string","internalType":"string"},{"name":"hasRiver","type":"bool","internalType":"bool"},{"name":"hasMountains","type":"bool","internalType":"bool"},{"name":"hasOcean","type":"bool","internalType":"bool"},{"name":"artistSVG","type":"string","internalType":"string"},{"name":"catTypeId","type":"uint256","internalType":"uint256"},{"name":"catColor","type":"string","internalType":"string"}]}],"stateMutability":"pure"},{"type":"function","name":"getNFTInside","inputs":[{"name":"index","type":"uint256","internalType":"uint256"}],"outputs":[{"name":"","type":"uint256","internalType":"uint256"}],"stateMutability":"pure"},{"type":"function","name":"getSkinColor","inputs":[{"name":"index","type":"uint256","internalType":"uint256"}],"outputs":[{"name":"","type":"string","internalType":"string"}],"stateMutability":"pure"},{"type":"function","name":"getTraitAttribute","inputs":[{"name":"traitType","type":"string","internalType":"string"},{"name":"traitValue","type":"string","internalType":"string"}],"outputs":[{"name":"","type":"string","internalType":"string"}],"stateMutability":"pure"},{"type":"function","name":"getTraitColor","inputs":[{"name":"colorIndex","type":"uint256","internalType":"uint256"}],"outputs":[{"name":"","type":"string","internalType":"string"}],"stateMutability":"pure"}],"bytecode":{"object":"0x60808060405234601557615041908161001b8239f35b600080fdfe608080604052600436101561001357600080fd5b60003560e01c90816304e74e5f146142e1575080630ffddbf4146142c25780632f8fb9ad146133b45780632ff405191461328e57806340b2ceb6146132555780634d0d1e7814612a7b57806373075aff14612a5c578063b1f91d14146129f1578063e8378d7c1461216d5763f6b387731461008d57600080fd5b346121685760203660031901126121685760405161028081018181106001600160401b038211176121525760405261025e81527c190032004d0065007a009700af00ce00e60106011f013b0158016f019060208201527f01b001cf01eb020c0223023d02530268028802aa02c602e402fb0316032c034560408201527f035f037d039703b003c303d703f304060420043704510468047d049a04af04c960608201527f04e204fa051f0537054d0565057a059005a205b405c905e306010618062c064360808201527f065d06750687069c06b206c906df06f7070f0727073f075307680779079407aa60a08201527f07c007d907f00809081f08390853086b0885089d08b308ce08e709000918092e60c08201527f094d096b0986099d09b209c209d109ec09fc0a0c0a1e0a310a410a4f0a610a7160e08201527f0a840a9f0ab20ac80ae30af10b010b120b260b380b480b5e0b740b850b940ba96101008201527f0bc00bd00bdf0bf00bff0c0e0c1e0c320c490c5a0c6b0c800c970ca60cc10cd26101208201527f0ce20cf20d040d130d290d3b0d4c0d5f0d6f0d7f0d8f0d9f0daf0dc20dd30de46101408201527f0df40e030e140e270e390e4b0e5a0e690e790e8c0ea20eb40ec50ed50ee50ef86101608201527f0f0a0f1c0f340f450f550f6d0f870f980fa70fb70fca0fdc0fed0ffc100f10226101808201527f103310441058106910781087109b10ab10bb10cc10df10f6111b112d114e11636101a08201527f117e119711b711d611f712051216122c123d124e125e1284129612ac12c412e36101c08201527f12f4130b131d13401356136e1380139413c513d913eb13f9140a141f143614456101e08201527f1457146a147a148a149b14ad14c414df15041517152d1541156f159d15ae15c16102008201527f15d115ec15fe160d1623164716741686169616a816bb16d216e216f1170117126102208201527f172317351746175b1770177f179317a517b517da17ec17ff18111821183118436102408201527f18531874188a18a018b018c918e318f9191319211934194d195f197119890000610260820152604051806117c08101106001600160401b036117c083011117612152576117c081016040526117a081527f1f0120f1cef6b90734009a506170616b6f6c6561204265616368ffed4db1fa9c60208201527f1a1f10000850756e746120436f726d6f72616e7403c77458fedd512100be526560408201527f796e056973666a6172a033090123f9c8f6bb2f160072203304616c752775804b60608201527f1f009b8c75fae2551200e5506c617961204e65677261022ab4a101833ada00ff60808201527f5601696b8027012053205f136f72696e69fdcb34be0a664504010e4b6172656b60a08201527f200380210f013d35eff6b3939f005a426c61636b202030006480191f204d617560c08201527f6900d3937dfc5c05f20100416e7365204368617374616e657402502216da00e860e08201527f85e601655370696167676961206469204669636f20880c6e646501b3fbf5ff086101008201527feaff014a80a00064406e0d6e696a6f01b3c717ff06c64b011ee0001805656c206101208201527f41726520de09febb8f55034c4bb5010e201b01676540340045206d00672094116101408201527f6c65022aad5b0184aab20079506572697373a1210903a48766f72ba0e80102e06101608201527f08bf1f416c61736b6103cd61d2ff010e6600a85376696e6166656c6c736a6f6b6101808201527f756c6c80e607fef50d90f716dee7e0027416506f696e74652056656e757300626101a08201527f113205f2be0f012850214a1a616920506173697220486974616d01851a05fb6e6101c08201527fb2db005650696ee1043a10426168616d61730275df37008ec3e7007ae10025126101e08201527f526f7361021a312901673665009e456c61666f21f2017369808c09ff7cc082076102008201527f1fbcb500d2a06d0f4d6572616800c7fb8efc74f453008743215c4149224e0c016102208201527fec2115fc22e7260096486f72219a0253686f201901617920480f726d756461006102408201527f68ccdf07465c0700fe472034217f21d942750672757a2049736c201209010ce46102608201527f1afc503f33011960be60552041017262203d09ffbd43130353e28d010e61f7046102808201527f536f75726321901727417267656e74fdfa1b72011860690142436c6966746f6e6102a08201527f803c0dffbeec3c025c3c56005a4469616ea1a014204b656e7961ffa8a8c302576102c08201527f979e01564e756e6777a0ee1101a9faff020c3e2000b4536861726d20456c20c66102e08201527f0e65696b68fecbcbf80371ae2300144221af0061228a007220dc40f60c00fd266103008201527f79fea2513100735072614275209c60d820220b696101c161ddff65ac1700f7e26103208201527e41184c61677a69726100cc1783feffb52800fe42616c6420436170a0501fff6103408201527f6c52c400c96958015f4361626f204c65646ffea182b8fd6d22a90091436f70036103608201527f6163616220cc0cfeca53b608e269dc0003576869221c044865617665a0f709016103808201527f4cc8cefbb2d4b00122216a212621850c01a007c5fb1454a100d25369652332216103a08201527f05419941b7084975f5fb23a6a0009b20a223ba005023ec0c69736fff039e02f66103c08201527ff4a7f3010b201682fb024d617420b80f2001466c61f69975ea00474c616e696b6103e08201527f228280470d33b056fac996a1006f54756c756d80140900b6633c07447de400f46104008201527f80a56029012042246611636179fde80c9108fb8d25000b4879616d73801c0c006104208201527fbfcbf4fbd327a1012750616ca045238e0c756261ffc5311bfe10f5aa0130a1696104408201527e6f41690c63686f011a062bfbec6570007120aa20c1014a7520970c6c6c6f016104608201527f914366079fce5300e4e0027c032c204f6b23760477612c204a250f116e003c316104808201527fe20461605901274d616166757368a0ce0d0050310b045c6698006552656574e06104a08201527e1508cdea8afaab46a30096806a2220015a6f239b0b02f1533cfff2ae9300206104c08201527f4f6d236aa0ca0ac6f9c604c900bc0066476822dec0580975238205e30d79013c6104e08201527f4d40ac419b1b79d2fb086c4c77009649776f204a696d61ff7af7fd06dd5569016105008201527f0450424b0f69204b7574610235f152ff7fa40e00b4a0ff82630a6e6861024f6d6105208201527f480015e6e36432210022831673657320496c6c6574657302a86d21ffed70da016105408201527f28447523ac1264752050696c61740294069a00fdd12f00b45a200d166e6920526105608201527f61740382a2850055609100ce536f6c6172737463a9146e02fb9823ffa9ca14006105808201527f8a506f7274686375726e6f80e20c026169c8003c135f00b743616c408f0063236105a08201527f1823200c022db42601bc3d4800b24f6c7520410c697a0215e0c4020659ee00b46105c08201527f4ee4015e0e02bc3170f89c6aa9010e43616e6e6fc2be09f54242f9028e9900336105e08201527f4c21cc006f204e269b10766502db31bbf892294801075269616c74a0810901036106008201527f74f50339fbc100a523b218746920616c204861666661017fc6bf035bf00a00606106208201527f46756a6122b7227662ee0c8073f7034ac3a8010e4a756d65e0011709fdeb9d866106408201527ffcbc100f009226d9231f00642605104573746500c03fdcfb2185c600964361796106608201527f22711075637265ffc17269fb2b3ed0012f4c6173259d0063257c0b73007a3bf26106808201527f05e4258d01065221b0024c6568211309c3058b345e006e56696a2507044e61676106a08201527f617280840c00acd838071e5869010e4e61632284801509feedc99d07487b20016106c08201527f4023f9006cc32c0aff2c03bafb73baa400be5061dc02526f6a23a40c657275fe6106e08201527f626c89fbc6cf0700ff25dd247910496e676c657361ffe437b3fb2fbe8f00f5806107008201527f2f004d229f230f223f0c02088cff87a2b600804d797274c05f0a03135593ff786107208201527fe0be009949234b0361646f6ec4180d03733874ff95e53700d54c75736b2565006107408201527f79c4f310fdf62d9401198f0a0154426f756c646572c3bb08d452ddfa92704e006107608201527fb8807a231d244d24c00a6e0148c223facb115a01388019114d6f73717569746f6107808201527f01386246facc8ed0006d8017175870752d4861005afbb704cf802900a44869726107a08201527f696b65746922d461bd0a20025ee2070131220b00fa2030007a2396104b73616d6107c08201527f696c697401161ebefbe8941500a0610047240445280e6f025f8cd7079c0b77006107e08201527f9048616d6825eca0490dffa763140258918a004c4d75797522ff6060090048dd6108008201527fe306d4a41a0148a379005327dc252c41431267616e02244d8100dae07200ff496108208201527f722d52616d229a00742271144d697871757161fff9e7f5fa97e97b00085261626108408201527f69239f015265c8bb09018ed31b079dff28008024eb006b293b806e0cff80d1066108608201527f06e4ca6e001841686dc02c0c03121456fffec33200d14c6f6e213c0902ea15fc6108808201527e2228f000a5214d0c697302fca30c00845c4800b446239e076b6675727420616108a08201527f6d259d0f696e02d312dc0081f491007e5a757269235f19693d8bffc7abb800b46108c08201527f4d6164726964031cfe40014087b800a05723dd007a25051d03181a6000445f256108e08201527e9a526f7474657264616d02b5f38c008bb82e00c94d242721400adff9ce00fa6109008201527f761600b45769240b0a72d6f201baa66700a9497322570c62756c0352ab7f023c6109208201527fb94a006321d5006b20521f8a67ca0111cffa009253746f636b686f6c6d0308166109408201527f4e0042829e00c74272757824200265732f2009107373656cfe9883c5fd3809136109608201527e2c53616f222e1f756c6ffdefda01fc857b8e000a4275656e6f7320416972656109808201527f73fe020d6cfbcaad02260156475f29e3006f23a32a000d696c65ff4792e9fb696109a08201527f127101364c253c1a00465693fb95ccf1015d426f676f746100a0326dfc032bc86109c08201527f01194326da0c636173fdeb83d3fca691ce0162431b1f65766964656ffe7e25d56109e08201527ffc906faf003e4173756e63696f6eff0441cbfbf0614f43e420970a7a00d12e75610a008201527ffaae42630067207f2679016c76232c0c72fe70205c01abfdd401604a6f25e41f610a208201527f6e657362757267ffec28880231b4bf00214e6169726f626900626b030033c25c610a408201527f01007927fe0f6f730089829f024f5e2501104164646920e001626526df0997e3610a608201527fde02575eef001c44242725bf20630d61616dff798c6100c9e9c3015f4c22d229610a808201527f470b54ca21fffceb120084416363284709513f76ffc2ab7e002d4122720d6a61610aa08201527f6e01ca5efc01dc94ea01454b407b0a02319819009b6a6a00a55422e41d730230610ac08201527f98f600301e620095416c67696572020023eeff8b138c0092436173247527501f610ae08201527f61026df430fb97333b00d04e657720596f726b2043697479029a121bfb44bdda610b008201527f0400a3546f7224540a6f027f0f03fac6d4d600b22185006320d70a020798e8f8610b208201527ff38f5500b44c41b5026e676521e8090240b4c5f8b4483100ab413742b2106369610b408201527f73636f018919c7fb38581d00584d6923c10b01286640fa16c55900f3436929ee610b608201527e6441db144d657869636f200181cb6403127ef5005761642d4421651f01807a610b808201527f68034b6b14001e4475626179790167fcea037b929400744d61737161740a0179610ba08201527f5d5002c8212800996123a4243b08640146d6e6025fa8fa206c0e616b6b6101e4610bc08201527f9f020219401800644a254701736821671179696d0174fcbb033da37800334162610be08201527f75205a23c10d01fc528c02a4fe5a00ac4261676820950a01ff56c60229e89600610c008201527f604422681173636871200220fe52030f404e00be546568238f0b0260ed5a01f5610c208201527f5c660155416e2cd50a61017c5c6c03fee01b007f2ce70d61636901e0a5b3046e610c408201527f178d00a64c28281f75720123c7bf0457752500914d756d62616901b38c1f0497610c608201527f7345003c4e65752d1344656c6869015798a1054386d7002b4b6f6c6b6122d109610c808201527fd1b62d05fdfa3f01154224950d6b6f6b0140c7c1064eef6e00c6482d7b1f6f69610ca08201527f016b0c8b05631f1400924468616b610260bcaa06eff41600874265696a69116e610cc08201527f6701c234ab06594b7c001f43686f6e677140120857e12906cc454800962af101610ce08201527f6e7a20030901dc28d5073d159f004e27591f6e67686169022079800853c00300610d008201527fd4546f6b796f023c63ef07936f7b00c15365006f2407090c6bc70441ee4100dc610d208201527f4144191061025ccba703fdf24b014c53616d61727122bc0b003010fe060f7c03610d408201527eac4b75217411204c756d7075720013ffb1063027c2009c532088006120110a610d608201527fffa189b9065f632601414a20be007220f109df108a0735f43e00e74d26cb1f6c610d808201527f61fdfa7d33090263a100255379646e6579fdbe518208a2b48d00364d656c622c610da08201527f1c0b6e65fde4f33608e3f639014c285b126265727261fdcceaf70a6ca0f30013610dc08201527f4175636b22ea0a64011a144bfbd4ea5f0097229b285102446f6d20811f6f2000610de08201527f917659ff2f351300d9436f6e61726b79ffe222a601cb16b801394b696713616c610e008201527f69021ebcf902b58f6700d561732d53756c61220e006e226909008962dcfb426e610e208201527f4f00b6e201c6264820ff0a0049ac4601e1b22e00064422370c756261fe184c71610e408201527f06e8204a012327cc0b7468ff14359f01af58a4001b276d20f40a03c7d71b009f610e608201527fc99500df54236c00642c850e6dff7b391806dd8b75002244656e7023ae1d7200610e808201527f69b4d304c28acb00fb436f6c6f6d626f01d2b4c706cfbaa30046577521b40a03610ea08201527fa5a5f2f711080000dd4127dc2b751c676501bf608402dbfff60055616c2d4b75610ec08201527f77616974030acc86f9339f7420b401616c28a30a79ffd034f5fc6c1080002b21610ee08201527f6d0f617573200109f5eb04ad3b2000a7486126d7007227581f640025d4080557610f008201527fb93a009a5468696d7068750301e19e01d304c000f74b796a691e77024ab55201610f208201527f9dafd70078497a6d69720113f3b1ff0c65cb010c4e6f75616b208d0d747401f4610f408201527f37f9fa3afb490100446129e50b7301ce24c503668099004d4b2e33234b06028d610f608201527f97f953b3312e7d2e4c0e6e6978016ba42501f6f8f800ef4e61263c2e660d65fe610f808201527f96ba6107fb2bff00de416c692ceb0153702b120b6773fea20119fbef02640028610fa08201527f21d9292e016472662e0141742600006d2bfb24b11f6c6500ff857dffd1f34300610fc08201527f1454696d62756b74750230362904e837b000b65072006f2f9e057a2058696e6a610fe08201527f2e3c006760320b6e6101f774a5f9a9d67f00a28c53205d0c6473022965f7f9256110008201527f936a00ea4c2a0f0856656761732c204e6526200861023b5baaf96930852974016110208201527f6f6e2a70036e74205620eb0c65790271fb82061e671900b94926352959201f006110408201527f67319c0069a0680b00ec959501eeb53a005257652b30086572204e696c2c204b6110608201527f2e9700742d5d0afea4116800e19844011b4e253d09622d4e61756b6c756674206110808201527f77400f096961024d76e0f96e8b1a27fa0e6f6162fe079ba1fbe734f401484d656110a08201527f28520b7a6100ea29e002a1a7b8005820c100612110015965209c0c024435d8036110c08201527f7b94d600d241736721e40d740192f2d7045c37e100dd4a6f6421e30e7201676d6110e08201527fd2037a01c500304d757363202008b68a790221b9fb00fcc1300154612149002c6111008201527f2118047564692d41222a483408387becffc71a5200bc2e90006e21160d2001376111208201527fecf902f9592200b55275624bb420d80c6c69fe8fa9df081e283c0000532252056111408201527f736f6e20446520fa0c74ff2cd18efb718c7a01454973243620b20120472145026111608201527f616e2c21da2b09089d8e0bfbce6eb90154a1df0a020f2887f91d34d900a84d2b6111808201527f2d017665a0460cfe7f8b490143e67000004b616c257d09726902a8ce5c0667686111a08201527fc52d0406616769696e207521b9004727b0002ce1008f0901a04ead01ae66bf006111c08201527fb381f1809109020f7f95f92eb79000e443790072280a0f205269766572017fed6111e08201527f0c035bbcdb008dcc760d001fadcb02b3082c00854d6f676127ed23fd0d0103366112008201527fae014d513200c34775656c4c6d00272ee3006323e4052c20456e656431d52d936112208201527f056561752c2054202f2678022e8cd62dbf046f0115456d2a8e006f293a0d69ff6112408201527fbddee400e80c0000644b696e26c40773610301e9eb01d2219c0edc4b696576026112608201527f0f61b00247c464005d4f490d79726103d701d1feffd1a2000c562df0006192746112808201527f0b04c0b3bd00b01405003159742285004e31bb0f6b6f796104eac61bfc48b0b76112a08201527f015d416c218009043dfdf701897844000420200e646b61707003d23601feb53c6112c08201527f1101173424006b21641e696b043fa25af6a7ce040152426172726f77040b29a96112e08201527f0136d5ea01214b69722af20dfcbb75c2fbed6d8a013f55736875312c0c03c83c6113008201527fc308829b81001a4f796d2b160b6f6e04f3f8cefbccd02e01657110215b01756d6113208201527f22cc0a01f9598b057c851300395123dc012d5a238f002da1210a0256854a04526113408201527fe8fd00b454225a017361261c214400502304007221c200752bb7211c090227c86113608201527f32048278a4004a47840f6b6f72756d02c631600079d53c00874a2c13156672616113808201527f756a6f636801abdb0e052f7e6900e94d74204521cf312b09fc0c79350602883c6113a08201527eb22932006151c0046b652c20422035239401486933be022c204120671072636113c08201527f746963610493c43e0401732b01434f2f3e016f762c402046026e796a203200616113e08201527f3455007429d70065236f005241c20b61029cc42b00a84717006c462ae30c6e7a6114008201527f650294e45300539d9c0101323f017365205d0a65030a254c00aced9900d624096114208201527f27480a02376b36faacfe3d00bd4d241840020170702fbd427d0a036a47e5ffbb6114408201527f6b2400644c20cc24310c730365eace0294715100c7566f20bd0702b94b9501866114608201527fd8e4a12d00692ac4046e6961ffbc281f04424a250000c3c4014c61279844f4006114808201527f49242d2ad40c6961fdcd7aec08a5e72b00294727eb2ae4006e8072042c2056696114a08201527f6355d220d301417520f223c60d61031005e50066783700744475696b110a02fb6114c08201527fc4fd012f8fed006d4b41800d7702d52ad70122a88a005242756432fb127374026114e08201527fbf39d000dddf9f00dd4c6a75626c6a61284108412761f8b25068007f43f1ea006115008201527f3a0a02602b79ffc2b99e01115425301f646f0230d55f0852410d00bc4e696b6b6115208201527f6f017e2d9f073df47f006c546169706508680199451f05f96aad2b4028fc223a6115408201527f0b016028bcfb16b1a80013486120ff0b6e610113aa5f049456c2009f234901676115608201527f73343f1a031f4920063624cc00b249726b7574736b03571a2f058a960d00c1206115808201527fbf03736e6f79219d0f6b0347d1d204f075e600b14e6f766f7325764014080ce16115a08201527f02f91c6d1b004a299c0f666602d63094fcdaedf9007453742e202c240c6e27736115c08201527f02b8db21fb9ece9900df25f423750e616c03d1739af7afed9a005944617724f76115e08201527f1503c19885f850570b00a24e616174732769686368276f21d130e2006f3699226116008201527fe00d726bfed676b6fd776a810142497020170f6e6761002b1663fc628a6101186116208201527f426f61219829870aff0d7113fd2190fa00474220b82f290b61ff4982a7010db66116408201527f98014b432c500e7a6102972f9c02835c85007a456c622b0e0a0207a90c046e506116608201527f10004353274a006128101e010314a900796045006741676164657a00849753076116808201527f8ddb39012e526962204945e3006d24a90069383e012d4c21ca0e6501207b1dfa6116a08201527f2275c40126506f706f262613657065746cfcd5aa960460d41e004248656172646116c08201527fb5f50900d9a9160267423300e048040c6f6c00c12afd0338701900d248252d006116e08201527f622502035375717522570bfdca5ce0ff44ce5e000c547240d9016e20264701436117008201527f7532ff0afd6938be0a39ceaa002e522939310a630c0c007c4df0fb5c3b5400ae6117208201527f546170264a51d12d59268e1703d44a15fceca7f500dd4e75756b01c3f369021b6117408201527f89f000862c6023480c756d2001a4daa2055b4743013a320c00612583223511206117608201527f4368752002b7d22503c6aac3013142616924af0c7572fe62913ef97ce95e00126117808201527f52344e03204e75692d711455ff9ed865008d436f746f20646520446f6e616e616117a082015260043560011b600435810460021460043515171561213c5761ff006120a58285614d0d565b51916001810180911161213c576120bc9085614d0d565b519160016004350194856004351161213c578560011b958087046002149015171561213c57826120ec8783614d0d565b5160f01c16906001870180971161213c576121249661210a91614d0d565b5160f81c179160405195869560608752606087019061438d565b9360f81c9160f01c1617602084015260408301520390f35b634e487b7160e01b600052601160045260246000fd5b634e487b7160e01b600052604160045260246000fd5b600080fd5b3461216857602036600319011261216857612186614c5c565b50600435601219810190811161213c576121a66121a161468a565b614d49565b6121cc6040516121b5816143b2565b600581526401e1e1403160dc1b6020820152614d49565b916121f26040516121dc816143b2565b600481526318161c1960e01b6020820152614d49565b91612216604051612202816143b2565b60028152610aa760f11b6020820152614d49565b9061221f614c5c565b936040519561222d876143b2565b7f5b6672db6cb2db6d923ada8da92472492492375b8e494000001a4924924924898752650ae76372caa46020880152604051966122698861441e565b6566666130653760d01b8852650e58988c8c8d60d21b6020890152651a3119b21b1b60d11b6040808a01919091526506666643730360d41b60608a0152653333331ab13360d11b60808a01526533333232b31b60d11b60a08a015251956122cf8761441e565b6040516122db816143b2565b600481526350696e6b60e01b602082015287526040516122fa816143b2565b600581526423b932b2b760d91b6020820152602088015260405161231d816143b2565b6005815264426c61636b60d81b60208201526040880152604051612340816143b2565b600481526311dbdb1960e21b60208201526060880152604051612362816143b2565b6005815264576869746560d81b60208201526080880152604051612385816143b2565b6005815264437265616d60d81b602082015260a08801528060038102046003148115171561213c5760078160ff60036123c96123f596838361240398020490614793565b519202061c16986123e48a65ffffffffffff60d01b92614cd6565b511660405192839160208301614504565b03601f198101835282614470565b60208701526040519061241582614403565b651a321b30b33360d11b82526538306666386160d01b602083015265333333331b1b60d11b6040808401919091526506666383038360d41b6060840152516123f5906124be906124a9906124829061246c816143b2565b60048152630988064160e21b6020820152614d49565b60405161248e816143b2565b60058152644a656c6c7960d81b602082015260043590614dac565b936123e48565ffffffffffff60d01b9261487d565b6101a088015260128201821161213c5761251661251161267c95601261259d95016101808b01526040516124f1816143b2565b600a81526929b437b93a21b7b637b960b11b602082015260043590614dac565b614522565b60608801526125976040519161252b836143e8565b6125336146ba565b835261253d6146db565b602084015261254a6146fe565b6040840152612557614720565b6060840152612564614743565b6080840152604051612575816143b2565b600c81526b29b437b93a2830ba3a32b93760a11b602082015260043590614dac565b90614763565b5180610100870152612656606260608801516040519384917f3c75736520687265663d272373686f727473272066696c6c3d2700000000000060208401526125ef815180926020603a8701910161436a565b82017f27202f3e3c75736520687265663d272373686f727473272066696c6c3d277572603a820152626c282360e81b605a820152612637825180936020605d8501910161436a565b64149390179f60d91b605d838301015201036042810184520182614470565b610140860152612667600435614a35565b6040860152600435612677614ce7565b614dac565b9060038201821161213c576128f394612896936126f96127ba936126a560036127e49701614522565b60a08901526126f3604051916126ba836143b2565b6040516126c6816143b2565b60068152657a69677a616760d01b602082015283526126e3614743565b6020840152600435612677614ce7565b90614793565b51806101208801526127af606060a08901516040519384917f3c75736520687265663d2723746f77656c272066696c6c3d2700000000000000602084015261274b81518092602060398701910161436a565b82017f27202f3e3c75736520687265663d2723746f77656c272066696c6c3d2775726c603982015261282360f01b6059820152612792825180936020605b8501910161436a565b0164149390179f60d91b605b820152036040810184520182614470565b610160870152614cd6565b516040516127c7816143b2565b600b81526a2132b0b1b41021b7b637b960a91b6020820152614bdc565b61281a6101a08401516040516127f9816143b2565b600f81526e2532b6363cb334b9b41021b7b637b960891b6020820152614bdc565b61285561283160608601516101008701519061480e565b60405161283d816143b2565b600681526553686f72747360d01b6020820152614bdc565b9061289061286d60a08701516101208801519061480e565b604051612879816143b2565b6005815264151bddd95b60da1b6020820152614bdc565b926147a4565b81526129ed816101a06129ce6129b661299e61298661296361294d61293761292161290b6040519d8e9d8e6020815260206128de83516101c0838501526101e084019061438d565b920151906040601f198285030191015261438d565b8d60408d0151906060601f198285030191015261438d565b60608b01518d8203601f190160808f015261438d565b60808a01518c8203601f190160a08e015261438d565b60a08901518b8203601f190160c08d015261438d565b60c08801518a8203601f190160e08c015261438d565b60e08701516101008a0152610100870151601f198a8303016101208b015261438d565b610120860151888203601f19016101408a015261438d565b610140850151878203601f190161016089015261438d565b610160840151868203601f190161018088015261438d565b61018083015185830152910151838203601f19016101c085015261438d565b0390f35b34612168576040366003190112612168576001600160401b0360043581811161216857612a229036906004016144ac565b90602435908111612168576129ed91612a42612a489236906004016144ac565b90614bdc565b60405191829160208352602083019061438d565b34612168576020366003190112612168576129ed612a48600435614a35565b3461216857602036600319011261216857612a94614995565b50600435601219810190811161213c57600435607619011161213c57612ab8614995565b612add604051612ac7816143b2565b60048152632629110360e01b6020820152614d49565b90612b04604051612aed816143b2565b600581526402a581c1c160db1b6020820152614d49565b612bc6604051612b13816143e8565b73f4030086522a5beea4988f8ca5b36dbc97bee88c8152735f4ec3df9cbd43714fe2740f5e3616155c5b8419602082015273ec8761a0a73c34329ca5b1d3dc7ed07f30e836e2604082015273379589227b15f1a12195d3f2d90bbc9f31f95235606082015273214ed9da11d2fbe465a6fc601a91e62ebec1a0d6608082015261259760405193612ba2856143b2565b600585526410da185c9d60da1b60208601526001600160a01b039460043590614dac565b51166020820152612c9e60405192612bdd84614403565b604051612be9816143b2565b600681526504c6170746f760d41b60208201528452604051612c0a816143b2565b600981526810db1a5c189bd85c9960ba1b60208201526020850152604051612c31816143b2565b600c81526b10dc9e5cdd185b0810985b1b60a21b60208201526040850152604051612c5b816143b2565b6008815267486f6c6f6772616d60c01b60208201526060850152604051612c81816143b2565b6007815266446973706c617960c81b602082015260043590614dac565b8060a083015280156000146131e55750604051612cba816143b2565b600281526131b960f11b60208201525b612d1a603060405180936b3c75736520687265663d272360a01b6020830152612cfd815180926020602c8601910161436a565b8101631390179f60e11b602c820152036010810184520182614470565b606082015260761960043501600181901b8190046002149015171561213c57782149a340480539fc7ff97ad54618eaafd0811584156d3e966b6004356076190160011b1c60031660c082015260405191612d7383614403565b604051612d7f816143b2565b60048152636d696e6960e01b60208201528352604051612d9e816143b2565b60048152636d69646960e01b60208201526020840152604051612dc0816143b2565b60058152646c6172676560d81b60208201526040840152604051612de3816143b2565b60048152636d65676160e01b6020820152606084015260005b600481106131525750612ea8926001607619600435011b6c02068a71c1800001403a014a0016151560e0840152612e3460043561488e565b6101608501526101408401526020612e4d600435614e38565b612e8660256040518093645461626c6560d81b86830152612e768151809288868601910161436a565b8101036005810184520182614470565b60405180968192638587a4a560e01b835260606004840152606483019061438d565b6000602483015260046044830152038173__$30acca89589d9a9b80eb3e09f3c9eae508$__5af493841561314657600094613112575b5060038401841161213c5761300a612fe5612fb5612fa9612f7c61301096612f0b60036129ed9b01614522565b612f6c603f60405180937f3c75736520687265663d2723632d7461626c65272066696c6c3d2700000000006020830152612f4f815180926020603b8601910161436a565b8101631390179f60e11b603b82015203601f810184520182614470565b60808a015260a08901519061487d565b51604051612f89816143b2565b600e81526d446973706c61792044657669636560901b6020820152614bdc565b9360c08701519061487d565b5160e0860151156130fc57604051612fcc816143b2565b60068152651027b1b2b0b760d11b602082015290614a00565b604051612ff1816143b2565b6007815266536b796c696e6560c81b6020820152614bdc565b90614a00565b8152604051918291602083526101606130dd61309a61308461306e613043865161018060208b01526101a08a019061438d565b60208701516001600160a01b031660408a810191909152870151898203601f190160608b015261438d565b6060860151888203601f190160808a015261438d565b6080850151878203601f190160a089015261438d565b60a084015160c087015260c084015160e087015260e0840151610100901515818801528401516101209081880152840151601f198783030161014088015261438d565b61014083015185830152910151838203601f190161018085015261438d565b60405161310881614455565b6000815290614a00565b9093506020813d60201161313e575b8161312e60209383614470565b8101031261216857519284612ede565b3d9150613121565b6040513d6000823e3d90fd5b8060019160c08501511015613168575b01612dfc565b613172818661487d565b51604085016131df60308251936040519485916b3c75736520687265663d272360a01b60208401526131ae815180926020602c8701910161436a565b8201631390179f60e11b602c8201526131d0825180936020878501910161436a565b01036010810185520183614470565b52613162565b6001810361320e57506040516131fa816143b2565b60028152616c6160f01b6020820152612cca565b60020361323557604051613221816143b2565b600281526118db60f21b6020820152612cca565b604051613241816143b2565b6002815261383960f11b6020820152612cca565b346121685760203660031901126121685761327160043561488e565b906129ed604051928392835260406020840152604083019061438d565b3461216857602080600319360112612168576132d26040516132af816143b2565b6013815271010a090c0b0a0a0d0b0b0d100b0b080d060d60681b83820152614d49565b61333a826132e1600435614e38565b613318602360405180936213919560ea1b868301526133088151809288868601910161436a565b8101036003810184520182614470565b60405180938192638587a4a560e01b835260606004840152606483019061438d565b6000602483015260bd6044830152038173__$30acca89589d9a9b80eb3e09f3c9eae508$__5af490811561314657600091613386575b5061337d9060ff92614fa1565b16604051908152f35b90508281813d83116133ad575b61339d8183614470565b81010312612168575160ff613370565b503d613393565b34612168576020366003190112612168576133cd6145e0565b50600435601219810190811161213c576004356076190190811161213c5760043560da19011161213c576133ff6145e0565b61342660405161340e816143b2565b60078152650f16130c110f60c81b6020820152614d49565b906134326121a161468a565b613458604051613441816143b2565b60058152640d1407028760d91b6020820152614d49565b9260405193613466856143b2565b7f5544340419780222228733998920155209940000880022913330850030253343855272c85629468302361324157675975559935759756020860152604051926134af846143cd565b6040516134bb816143b2565b60058152642837b630b960d91b602082015284526040516134db816143b2565b600981526854656d70657261746560b81b60208201526020850152604051613502816143b2565b600681526511195cd95c9d60d21b6020820152604085015260405190613527826143cd565b6544464232463760d01b825265211ca19c9b1b60d11b60208301526546394232333360d01b6040830152600435606590810360db0190811161213c57808060011b046002148115171561213c57790aaaaaaaaaaaaaaaa9600000000155555555555551556529526560019190911b1c60031660608701819052613617926123f5916135bf916001600160d01b0319916123e4916146a9565b60408701526135cf600435614a35565b60e08701526135df60043561488e565b6102808801526102608701526040516135f7816143b2565b600a81526929b434b93a21b7b637b960b11b602082015260043590614dac565b9060078201821161213c5761363160076136a39301614522565b6101008601526020613644600435614e38565b61368160296040518093684675726e697475726560b81b868301526136718151809288868601910161436a565b8101036009810184520182614470565b60405180948192638587a4a560e01b835260606004840152606483019061438d565b6000602483015260046044830152038173__$30acca89589d9a9b80eb3e09f3c9eae508$__5af49182156131465760009261428e575b5060038201821161213c576136f360036137b79301614522565b806101a087015261377b605b6040518093683c672066696c6c3d2760b81b602083015261372a81518092602060298601910161436a565b81017f273e3c75736520687265663d2723656173656c27202f3e3c75736520687265666029820152711e9391b616ba30b136329390179f1e17b39f60711b604982015203603b810184520182614470565b6101c0860152602061378e600435614e38565b613681602560405180936450616e747360d81b86830152612e768151809288868601910161436a565b6000602483015260036044830152038173__$30acca89589d9a9b80eb3e09f3c9eae508$__5af491821561314657600092614258575b506137fa61387c92614522565b61018086015261259760405191613810836143e8565b6138186146ba565b83526138226146db565b602084015261382f6146fe565b604084015261383c614720565b6060840152613849614743565b608084015260405161385a816143b2565b600c81526b29b434b93a2830ba3a32b93760a11b602082015260043590614dac565b5161014084015260405190816101008101106001600160401b0361010084011117612152576139e79061010083016040526138ba61010084016143b2565b60066101008401908152656665646f726160d01b61012085015283526040516138e2816143b2565b60078152660626173656361760cc1b60208201526020840152604051613907816143b2565b600a815269199c995b98da17da185d60b21b6020820152604084015260405161392f816143b2565b60068152656265616e696560d01b60208201526060840152604051613953816143b2565b60068152651cdd5b9a185d60d21b60208201526080840152604051613977816143b2565b6007815266676c617373657360c81b602082015260a084015260405161399c816143b2565b60088152676368696e6f69736560c01b602082015260c08401526040516139c2816143b2565b600881526731bcb634b73232b960c11b602082015260e0840152600435612677614774565b60088110156142425760051b015180610160840152613b6160a960e085015161010086015193610140870151610180880151906040519687947f3c75736520687265663d272361727469272066696c6c3d2700000000000000006020870152613a5a81518092602060388a01910161436a565b85017f27202f3e3c75736520687265663d27237368697274272066696c6c3d270000006038820152613a9682518093602060558501910161436a565b017f27202f3e3c75736520687265663d27237368697274272066696c6c3d2775726c605582015261282360f01b6075820152613adc82518093602060778501910161436a565b017f2927202f3e3c75736520687265663d272370616e7473272066696c6c3d2700006077820152613b1782518093602060958501910161436a565b016f27202f3e3c75736520687265663d272360801b6095820152613b4582518093602060a58501910161436a565b01631390179f60e11b60a5820152036089810184520182614470565b6102408301526004803560da19018015600282901b91909104909114171561213c576129ed926002908190613ba99060043560da190160061c6001600160f81b031690614793565b5160ff60da1960043501831b161c60018082161460c086015281808216146102008601526004808216146101e0860152600880821614610220860152161460001461422d57604051613bfa816143b2565b60138152721e3ab9b290343932b31e9391b616b69390179f60691b60208201525b608083015260c08201511561421857604051613c36816143b2565b60138152721e3ab9b290343932b31e9391b616b19390179f60691b60208201525b60a083018190526101e08301511561421357613cb2603360405183613c8682955180926020808601910161436a565b8101721e3ab9b290343932b31e9391b616b91390179f60691b6020820152036013810184520182614470565b8060a08401526060830151801560001461416f57505060a0820151613d16603360405183613cea82955180926020808601910161436a565b8101721e3ab9b290343932b31e9391b616b81390179f60691b6020820152036013810184520182614470565b60a083015260c08201511561414957613f296020613e37613e0d613e01613ddb604051613d42816143b2565b6005815264021b4ba3c960dd1b868201525b6101e08901511561413457604051613d6b816143b2565b6006815265102934bb32b960d11b878201525b6102008a01511561411e57604051613d95816143b2565b600a815269026b7bab73a30b4b739960b51b88820152905b6102208b01511561410857604051613dc4816143b2565b600581526427b1b2b0b760d91b89820152926147a4565b604051613de7816143b2565b60098152684c616e64736361706560b81b86820152614bdc565b946060870151906146a9565b51604051613e1a816143b2565b600c81526b436c696d617465205a6f6e6560a01b84820152614bdc565b92613e72613e506101008701516101408801519061480e565b604051613e5c816143b2565b600581526414da1a5c9d60da1b85820152614bdc565b613ea1610280870151604051613e87816143b2565b600981526821b0ba1021b7b637b960b91b86820152614bdc565b613eb7610160880151613eb2614774565b614bdc565b916040519684613ed0899651809289808a01910161436a565b8501613ee48251809389808501910161436a565b01613ef78251809388808501910161436a565b01613f0a8251809387808501910161436a565b01613f1d8251809386808501910161436a565b01038084520182614470565b8152604051918291602083526102806140e96140a761408f61407761405f61404761402f614017613fff8a8d60e060c0613fde613fc9613fa9613f93613f7d88516102a060208a01526102c089019061438d565b6020890151888203601f190160408a015261438d565b6040880151878203601f1901606089015261438d565b606087015160808701526080870151601f198783030160a088015261438d565b60a0860151858203601f19018487015261438d565b93015115159101528d60e08d015190610100601f198285030191015261438d565b6101008b01518d8203601f19016101208f015261438d565b6101208a01518c8203601f19016101408e015261438d565b6101408901518b8203601f19016101608d015261438d565b6101608801518a8203601f19016101808c015261438d565b610180870151898203601f19016101a08b015261438d565b6101a0860151888203601f19016101c08a015261438d565b6101c0850151878203601f19016101e089015261438d565b6101e0840151151561020087015261020084015115156102208701526102208401511515610240870152610240840151601f198783030161026088015261438d565b61026083015185830152910151838203601f19016102a085015261438d565b60405161411481614455565b60008152926147a4565b60405161412a81614455565b6000815290613dad565b60405161414081614455565b60008152613d7e565b613f296020613e37613e0d613e01613ddb60405161416681614455565b60008152613d54565b6001036141ca575060a08201516141c560336040518361419982955180926020808601910161436a565b8101721e3ab9b290343932b31e9391b616ba1390179f60691b6020820152036013810184520182614470565b613d16565b6141c56033604051836141e782955180926020808601910161436a565b8101721e3ab9b290343932b31e9391b616b21390179f60691b6020820152036013810184520182614470565b613cb2565b60405161422481614455565b60008152613c57565b60405161423981614455565b60008152613c1b565b634e487b7160e01b600052603260045260246000fd5b91506020823d602011614286575b8161427360209383614470565b81010312612168579051906137fa6137ed565b3d9150614266565b9091506020813d6020116142ba575b816142aa60209383614470565b81010312612168575190866136d9565b3d915061429d565b34612168576020366003190112612168576129ed612a48600435614522565b346121685760203660031901126121685761431881614302614340936143b2565b60048152630a08040360e21b6020820152614d49565b604051614324816143b2565b6006815265233637bbb2b960d11b602082015260043590614dac565b600481101561435457602090604051908152f35b634e487b7160e01b600052602160045260246000fd5b60005b83811061437d5750506000910152565b818101518382015260200161436d565b906020916143a68151809281855285808601910161436a565b601f01601f1916010190565b604081019081106001600160401b0382111761215257604052565b606081019081106001600160401b0382111761215257604052565b60a081019081106001600160401b0382111761215257604052565b608081019081106001600160401b0382111761215257604052565b60c081019081106001600160401b0382111761215257604052565b61014081019081106001600160401b0382111761215257604052565b602081019081106001600160401b0382111761215257604052565b90601f801991011681019081106001600160401b0382111761215257604052565b6001600160401b03811161215257601f01601f191660200190565b81601f82011215612168578035906144c382614491565b926144d16040519485614470565b8284526020838301011161216857816000926020809301838601378301015290565b90600a8110156142425760051b0190565b602360f81b81526001600160d01b0319909116600182015260070190565b6145dd6123f5916123e46040519161453983614439565b6537393764393560d01b83526562653135323160d01b60208401526519313132989b60d11b60408401526561613730333560d01b60608401526535333830323760d01b60808401526503237363238360d41b60a08401526538303236333560d01b60c08401526531329c32989b60d11b60e08401526566663733303160d01b6101008401526531353937626560d01b6101208401526001600160d01b0319926144f3565b90565b604051906102a082018281106001600160401b038211176121525760405281610280606091828152826020820152826040820152600080848301528360808301528360a08301528060c08301528360e08301528361010083015283610120830152836101408301528361016083015283610180830152836101a0830152836101c0830152806101e08301528061020083015280610220830152836102408301526102608201520152565b60405190614697826143b2565b600382526221212160e81b6020830152565b9060038110156142425760051b0190565b604051906146c7826143b2565b6005825264706f6c6b6160d81b6020830152565b604051906146e8826143b2565b60078252661cdd1c9a5c195960ca1b6020830152565b6040519061470b826143b2565b6006825265185b9a5b585b60d21b6020830152565b6040519061472d826143b2565b600782526630b734b6b0b61960c91b6020830152565b60405190614750826143b2565b60048252636e6f6e6560e01b6020830152565b9060058110156142425760051b0190565b60405190614781826143b2565b600382526212185d60ea1b6020830152565b9060028110156142425760051b0190565b9061480c9294936040519586926020946147c68151809288808901910161436a565b84016147da8251809388808501910161436a565b016147ed8251809387808501910161436a565b016148008251809386808501910161436a565b01038085520183614470565b565b602161480c91939293604051948161483087935180926020808701910161436a565b8201600160fd1b602082015261484f825180936020878501910161436a565b01036001810185520183614470565b6040519061486b826143b2565b600382526210d85d60ea1b6020830152565b9060048110156142425760051b0190565b906040519161489c83614403565b6506ac4686870760d31b83526539363637336360d01b602084015265329a9b99199960d11b6040808501919091526566666666666560d01b6060850152516148fd906148e7816143b2565b60048152630483c32160e31b6020820152614d49565b61492260405161490c816143b2565b60048152632624140560e01b6020820152614d49565b9060db831061498257506149389161267761485e565b601681019081811161213c576149709361495f61497e9265ffffffffffff60d01b9261487d565b511660405194859160208301614504565b03601f198101855284614470565b9190565b90506149909161267761485e565b614938565b6040519061018082018281106001600160401b038211176121525760405281610160606091828152600080602083015283604083015283808301528360808301528060a08301528060c08301528060e083015280610100830152836101208301526101408201520152565b602061480c919392936040519481614a21879351809286808701910161436a565b82016148008251809386808501910161436a565b604090614aea614b42835192614a4a84614439565b65333331b0b13360d11b84526566666363393960d01b60208086019190915265329b30b29b9b60d11b868601526531b19c331a9960d11b60608601526562623766343360d01b60808601526539363633323960d01b60a0860152650e4c8d588c9960d21b60c08601526537613436323560d01b60e08601526566666363373360d01b61010086015265199998d8cd1960d21b610120860152928391614e38565b614b216024875180936329b5b4b760e11b86830152614b118151809288868601910161436a565b8101036004810184520182614470565b855180938192638587a4a560e01b835260606004840152606483019061438d565b6000602483015260096044830152038173__$30acca89589d9a9b80eb3e09f3c9eae508$__5af4908115614bd157600091614ba2575b506145dd92614b946123f59265ffffffffffff60d01b926144f3565b511693519384928301614504565b90508181813d8311614bca575b614bb98183614470565b8101031261216857516145dd614b78565b503d614baf565b84513d6000823e3d90fd5b603d61480c919392936040519485916f163d913a3930b4ba2fba3cb832911d1160811b6020840152614c1881518092602060308701910161436a565b82016a1116113b30b63ab2911d1160a91b6030820152614c42825180936020603b8501910161436a565b0161227d60f01b603b82015203601d810185520183614470565b604051906101c082018281106001600160401b0382111761215257604052816101a060609182815282602082015282604082015282808201528260808201528260a08201528260c0820152600060e08201528261010082015282610120820152826101408201528261016082015260006101808201520152565b9060068110156142425760051b0190565b60405190614cf4826143b2565b600a8252692a37bbb2b621b7b637b960b11b6020830152565b908151811015614242570160200190565b6001600160401b0381116121525760051b60200190565b80518210156142425760209160051b010190565b908151614d5581614d1e565b90614d636040519283614470565b808252614d72601f1991614d1e565b0136602083013760005b8351811015614da75780614d9260019286614d0d565b5160f81c614da08285614d35565b5201614d7c565b509150565b61331860209161300a614dbe94614e38565b6000602483015260636044830152038173__$30acca89589d9a9b80eb3e09f3c9eae508$__5af490811561314657600091614e05575b50614e019060ff92614fa1565b1690565b90506020813d602011614e30575b81614e2060209383614470565b81010312612168575160ff614df4565b3d9150614e13565b806000917a184f03e93ff9f4daa797ed6e38ed64bf6a1f01000000000000000080821015614f93575b506d04ee2d6d415b85acef810000000080831015614f84575b50662386f26fc1000080831015614f75575b506305f5e10080831015614f66575b5061271080831015614f57575b506064821015614f47575b600a80921015614f3d575b6001908160216001860195614ed287614491565b96614ee06040519889614470565b808852614eef601f1991614491565b01366020890137860101905b614f07575b5050505090565b600019019083906f181899199a1a9b1b9c1cb0b131b232b360811b8282061a835304918215614f3857919082614efb565b614f00565b9160010191614ebe565b9190606460029104910191614eb3565b60049193920491019138614ea8565b60089193920491019138614e9b565b60109193920491019138614e8c565b60209193920491019138614e7a565b604093508104915038614e61565b90600091805115614ff7579060ff80602084015116925b828410614fc6575050505090565b90809293941682811461213c576001019382614fe481871684614d35565b5116810180911161213c57929190614fb8565b634e487b7160e01b83526032600452602483fdfea264697066735822122057017ddff2c2fa296e9e0225be073eca88ab2821b417091139b4ae80eaf3567464736f6c63430008190033","linkReferences":{"contracts/NDUtils.sol":{"NDUtils":[{"start":11989,"length":20},{"start":13159,"length":20},{"start":14032,"length":20},{"start":14308,"length":20},{"start":19311,"length":20},{"start":19947,"length":20}]}}},"methodIdentifiers":{"getBeachTraits(uint256)":"e8378d7c","getCatTrait(uint256)":"40b2ceb6","getCityTraits(uint256)":"4d0d1e78","getFlowerType(uint256)":"04e74e5f","getGeneric(uint256)":"f6b38773","getLandscapeTraits(uint256)":"2f8fb9ad","getNFTInside(uint256)":"2ff40519","getSkinColor(uint256)":"73075aff","getTraitAttribute(string,string)":"b1f91d14","getTraitColor(uint256)":"0ffddbf4"},"id":9}