{"abi":[{"type":"constructor","inputs":[{"name":"_genericMotifAddress","type":"address","internalType":"address"},{"name":"_genericMotifSVGAddress","type":"address","internalType":"address"},{"name":"_motifAdress1","type":"address","internalType":"address"},{"name":"_motifAdress2","type":"address","internalType":"address"}],"stateMutability":"nonpayable"},{"type":"function","name":"assets","inputs":[],"outputs":[{"name":"","type":"string","internalType":"string"}],"stateMutability":"view"},{"type":"function","name":"genericMotifs","inputs":[],"outputs":[{"name":"","type":"address","internalType":"contract GenericMotifs"}],"stateMutability":"view"},{"type":"function","name":"genericMotifsSVG","inputs":[],"outputs":[{"name":"","type":"address","internalType":"contract GenericMotifsSVG"}],"stateMutability":"view"},{"type":"function","name":"getAssetInScene","inputs":[],"outputs":[{"name":"","type":"tuple[]","internalType":"struct AssetInScene[]","components":[{"name":"name","type":"string","internalType":"string"},{"name":"minDuration","type":"uint256","internalType":"uint256"},{"name":"maxDuration","type":"uint256","internalType":"uint256"},{"name":"checkInterval","type":"uint256","internalType":"uint256"},{"name":"possibleOffset","type":"uint256","internalType":"uint256"},{"name":"probability","type":"uint256","internalType":"uint256"},{"name":"dayTime","type":"uint8","internalType":"enum DAYTIME"}]}],"stateMutability":"view"},{"type":"function","name":"getBeachTraits","inputs":[{"name":"tokenId","type":"uint256","internalType":"uint256"}],"outputs":[{"name":"","type":"tuple","internalType":"struct BeachTraits","components":[{"name":"attributes","type":"string","internalType":"string"},{"name":"beachColor","type":"string","internalType":"string"},{"name":"skinColor","type":"string","internalType":"string"},{"name":"shortsColor","type":"string","internalType":"string"},{"name":"shortsColorAttribute","type":"string","internalType":"string"},{"name":"towelColor","type":"string","internalType":"string"},{"name":"towelColorAttribute","type":"string","internalType":"string"},{"name":"accessoireType","type":"uint256","internalType":"uint256"},{"name":"shortsPattern","type":"string","internalType":"string"},{"name":"towelPattern","type":"string","internalType":"string"},{"name":"shortsSVG","type":"string","internalType":"string"},{"name":"towelSVG","type":"string","internalType":"string"},{"name":"jellyTypeId","type":"uint256","internalType":"uint256"},{"name":"jellyColor","type":"string","internalType":"string"}]}],"stateMutability":"view"},{"type":"function","name":"getCityTraits","inputs":[{"name":"tokenId","type":"uint256","internalType":"uint256"}],"outputs":[{"name":"","type":"tuple","internalType":"struct CityTraits","components":[{"name":"attributes","type":"string","internalType":"string"},{"name":"priceFeed","type":"address","internalType":"address"},{"name":"skylineSVG","type":"string","internalType":"string"},{"name":"displaySVG","type":"string","internalType":"string"},{"name":"tableSVG","type":"string","internalType":"string"},{"name":"displayType","type":"uint256","internalType":"uint256"},{"name":"skyLinetype","type":"uint256","internalType":"uint256"},{"name":"isCoastel","type":"bool","internalType":"bool"},{"name":"accessoireType","type":"uint256","internalType":"uint256"},{"name":"tableColor","type":"string","internalType":"string"},{"name":"catTypeId","type":"uint256","internalType":"uint256"},{"name":"catColor","type":"string","internalType":"string"}]}],"stateMutability":"view"},{"type":"function","name":"getFlower","inputs":[{"name":"flowerType","type":"uint8","internalType":"enum FlowerType"}],"outputs":[{"name":"","type":"tuple","internalType":"struct FlowerParts","components":[{"name":"back","type":"string","internalType":"string"},{"name":"front","type":"string","internalType":"string"},{"name":"blossom","type":"string","internalType":"string"},{"name":"stick","type":"string","internalType":"string"}]}],"stateMutability":"view"},{"type":"function","name":"getFlowerType","inputs":[{"name":"tokenId","type":"uint256","internalType":"uint256"}],"outputs":[{"name":"","type":"uint8","internalType":"enum FlowerType"}],"stateMutability":"view"},{"type":"function","name":"getGenericMotif","inputs":[{"name":"tokenId","type":"uint256","internalType":"uint256"}],"outputs":[{"name":"","type":"tuple","internalType":"struct Motif","components":[{"name":"name","type":"string","internalType":"string"},{"name":"lat","type":"int256","internalType":"int256"},{"name":"lng","type":"int256","internalType":"int256"},{"name":"heading","type":"int256","internalType":"int256"},{"name":"horizon","type":"int256","internalType":"int256"},{"name":"svg","type":"string","internalType":"string"},{"name":"scenes","type":"tuple[]","internalType":"struct SceneInMotif[]","components":[{"name":"placeHolder","type":"string","internalType":"string"},{"name":"assets","type":"uint8[]","internalType":"uint8[]"},{"name":"area","type":"int256[4]","internalType":"int256[4]"},{"name":"scale","type":"uint256","internalType":"uint256"}]},{"name":"replacements","type":"tuple[]","internalType":"struct Replacement[]","components":[{"name":"tag","type":"uint8","internalType":"enum ObjectType"},{"name":"dataType","type":"uint8","internalType":"enum RenderDataType"},{"name":"data","type":"int256[]","internalType":"int256[]"},{"name":"placeholder","type":"string","internalType":"string"},{"name":"ref","type":"string","internalType":"string"}]},{"name":"motifType","type":"uint8","internalType":"enum MotifType"}]}],"stateMutability":"view"},{"type":"function","name":"getGentian","inputs":[],"outputs":[{"name":"","type":"tuple","internalType":"struct FlowerParts","components":[{"name":"back","type":"string","internalType":"string"},{"name":"front","type":"string","internalType":"string"},{"name":"blossom","type":"string","internalType":"string"},{"name":"stick","type":"string","internalType":"string"}]}],"stateMutability":"pure"},{"type":"function","name":"getLandScapeTraits","inputs":[{"name":"tokenId","type":"uint256","internalType":"uint256"}],"outputs":[{"name":"","type":"tuple","internalType":"struct LandscapeTraits","components":[{"name":"attributes","type":"string","internalType":"string"},{"name":"accessoireType","type":"string","internalType":"string"},{"name":"climateZoneColor","type":"string","internalType":"string"},{"name":"climateZoneIndex","type":"uint256","internalType":"uint256"},{"name":"before","type":"string","internalType":"string"},{"name":"front","type":"string","internalType":"string"},{"name":"hasCity","type":"bool","internalType":"bool"},{"name":"skinColor","type":"string","internalType":"string"},{"name":"shirtColor","type":"string","internalType":"string"},{"name":"shirtColorAttribute","type":"string","internalType":"string"},{"name":"shirtPattern","type":"string","internalType":"string"},{"name":"hat","type":"string","internalType":"string"},{"name":"pantsColor","type":"string","internalType":"string"},{"name":"furnitureColor","type":"string","internalType":"string"},{"name":"furnitureSVG","type":"string","internalType":"string"},{"name":"hasRiver","type":"bool","internalType":"bool"},{"name":"hasMountains","type":"bool","internalType":"bool"},{"name":"hasOcean","type":"bool","internalType":"bool"},{"name":"artistSVG","type":"string","internalType":"string"},{"name":"catTypeId","type":"uint256","internalType":"uint256"},{"name":"catColor","type":"string","internalType":"string"}]}],"stateMutability":"view"},{"type":"function","name":"getMoonflower","inputs":[],"outputs":[{"name":"","type":"tuple","internalType":"struct FlowerParts","components":[{"name":"back","type":"string","internalType":"string"},{"name":"front","type":"string","internalType":"string"},{"name":"blossom","type":"string","internalType":"string"},{"name":"stick","type":"string","internalType":"string"}]}],"stateMutability":"pure"},{"type":"function","name":"getMotifByTokenId","inputs":[{"name":"tokenId","type":"uint256","internalType":"uint256"}],"outputs":[{"name":"","type":"tuple","internalType":"struct Motif","components":[{"name":"name","type":"string","internalType":"string"},{"name":"lat","type":"int256","internalType":"int256"},{"name":"lng","type":"int256","internalType":"int256"},{"name":"heading","type":"int256","internalType":"int256"},{"name":"horizon","type":"int256","internalType":"int256"},{"name":"svg","type":"string","internalType":"string"},{"name":"scenes","type":"tuple[]","internalType":"struct SceneInMotif[]","components":[{"name":"placeHolder","type":"string","internalType":"string"},{"name":"assets","type":"uint8[]","internalType":"uint8[]"},{"name":"area","type":"int256[4]","internalType":"int256[4]"},{"name":"scale","type":"uint256","internalType":"uint256"}]},{"name":"replacements","type":"tuple[]","internalType":"struct Replacement[]","components":[{"name":"tag","type":"uint8","internalType":"enum ObjectType"},{"name":"dataType","type":"uint8","internalType":"enum RenderDataType"},{"name":"data","type":"int256[]","internalType":"int256[]"},{"name":"placeholder","type":"string","internalType":"string"},{"name":"ref","type":"string","internalType":"string"}]},{"name":"motifType","type":"uint8","internalType":"enum MotifType"}]}],"stateMutability":"view"},{"type":"function","name":"getNFTInside","inputs":[{"name":"tokenId","type":"uint256","internalType":"uint256"}],"outputs":[{"name":"","type":"uint256","internalType":"uint256"}],"stateMutability":"view"},{"type":"function","name":"getRose","inputs":[],"outputs":[{"name":"","type":"tuple","internalType":"struct FlowerParts","components":[{"name":"back","type":"string","internalType":"string"},{"name":"front","type":"string","internalType":"string"},{"name":"blossom","type":"string","internalType":"string"},{"name":"stick","type":"string","internalType":"string"}]}],"stateMutability":"pure"},{"type":"function","name":"getSunflower","inputs":[],"outputs":[{"name":"","type":"tuple","internalType":"struct FlowerParts","components":[{"name":"back","type":"string","internalType":"string"},{"name":"front","type":"string","internalType":"string"},{"name":"blossom","type":"string","internalType":"string"},{"name":"stick","type":"string","internalType":"string"}]}],"stateMutability":"pure"},{"type":"function","name":"sightSeeing1","inputs":[],"outputs":[{"name":"","type":"address","internalType":"contract IMotifData"}],"stateMutability":"view"},{"type":"function","name":"sightSeeing2","inputs":[],"outputs":[{"name":"","type":"address","internalType":"contract IMotifData"}],"stateMutability":"view"}],"bytecode":{"object":"0x6080346142aa57601f6185fa38819003918201601f19168301926001600160401b03929091838511838610176142945781608092849260409788528339810103126142aa5761004d816142af565b91602061005b8184016142af565b610072606061006b8887016142af565b95016142af565b8651909361358082019081118282101761429457875261355e81527f3c646566733e3c672069643d227961636874223e3c7061746820643d224d362d838201527f356832374c362d34337a222f3e3c706174682066696c6c3d2223414137303335878201527f2220643d224d342d316832306c342d3248307a222f3e3c706174682066696c6c60608201527f3d22234642443138352220643d226d3135203020312d3220323320327a222f3e60808201527f3c2f673e3c672069643d22626972642d66223e3c706174682066696c6c3d222360a08201527f4632384430302220643d224d2d3420332e322d362e362d2e342d313620346c3260c08201527f2e3420332e367a222f3e3c7061746820643d224d2d33312e382d31302e34203160e08201527f2e342d332e326c33302e342d372e322d32372032302e387a222f3e3c706174686101008201527f2066696c6c3d22234632384430302220643d226d31312e36393720352e3332386101208201527f20372e35352d312e39362d2e3730352d322e37312d372e353520312e39367a226101408201527f2f3e3c2f673e3c672069643d22617065223e3c706174682066696c6c3d2223616101608201527f61373033352220643d224d2d352d31352e3337376833763135682d337a222f3e6101808201527f3c706174682066696c6c3d22236635633035632220643d224d2d372d332e33376101a08201527f3768332e3476332e33482d377a222f3e3c706174682066696c6c3d22236161376101c08201527f3033352220643d224d332d31352e333737683376313548337a222f3e3c7061746101e08201527f682066696c6c3d22236635633035632220643d224d312d332e33373768332e346102008201527f76332e333848317a222f3e3c706174682066696c6c3d222361613730333522206102208201527f643d226d2d392e3833332d32302e35383320392e34342d352e36343920352e316102408201527f333520382e3538312d392e343420352e3634397a222f3e3c706174682066696c6102608201527f6c3d22236161373033352220643d226d332e34372d31312e3731372d392e34366102808201527f2d352e363120352e312d382e3620392e343620352e36317a4d2d31352d32372e6102a08201527f38373768392e3676382e3736482d31357a222f3e3c706174682066696c6c3d226102c08201527f236661633135632220643d224d2d31322e352d32352e33373768342e3876342e6102e08201527f3334682d342e387a222f3e3c706174682066696c6c3d222361613730333522206103008201527f643d224d382d33342e333737683376313548387a222f3e3c706174682066696c6103208201527f6c3d22236161373033352220643d226d31362e3331352d33362e352e303532206103408201527f332d382e3130392e3134312d2e3035322d337a222f3e3c706174682066696c6c6103608201527f3d22236161373033352220643d224d31342d33362e333737683376382e3131686103808201527f2d337a222f3e3c2f673e3c672069643d226c6c616d61223e3c706174682066696103a08201527f6c6c3d22234333394237322220643d226d32312d3337203920332d372d31327a6103c08201527f4d312d323620302d326c2d31302d31367a6d313820304c31382d3220372d31386103e08201527f7a222f3e3c706174682066696c6c3d22234141373033352220643d226d2d38206104008201527f302d362d33342033302d3820313020342d322033382d31302d31372d313520376104208201527f7a222f3e3c706174682066696c6c3d22234333394237322220643d226d2d31366104408201527f2d353020382d3320392031362d31302031342d382d357a222f3e3c70617468206104608201527f66696c6c3d22234141373033352220643d226d2d31302d35352d3920352039206104808201527f337a222f3e3c2f673e3c672069643d22636f77223e3c706174682066696c6c3d6104a08201527f22236664653963632220643d224d2d32362d32316831337639682d31337a222f6104c08201527f3e3c706174682066696c6c3d22236536333332612220643d224d2d33332d31396104e08201527f683530762d3238682d35377a222f3e3c706174682066696c6c3d2223653633336105008201527f32612220643d226d32352d34352d382032362d392d32372031342d31342031396105208201527f20372d3420357a222f3e3c706174682066696c6c3d22236536333332612220646105408201527f3d226d32382d353820312d372d3620377a4d31372d3139203133203020392d326105608201527f3068387a6d2d35302d31203420323020342d31397a6d2d372d32377632396c336105808201527f2d32397a222f3e3c2f673e3c672069643d2267756c6c223e3c706174682066696105a08201527f6c6c3d22234632384430302220643d224d322d31346836563048327a222f3e3c6105c08201527f706174682066696c6c3d22234646462220643d224d31342e352d34332e3548376105e08201527f4c322e372d32352e312d323220332e356c33372e342d31372e317a222f3e3c706106008201527f6174682066696c6c3d22234632384430302220643d224d31322d34302e3568396106208201527f2e3576332e354831327a222f3e3c2f673e3c672069643d2262616c6c223e3c636106408201527f6972636c652063783d222d3633222063793d2236332220723d223633222066696106608201527f6c6c3d2223666666366363222f3e3c656c6c697073652063783d222d363322206106808201527f63793d223633222072783d223431222072793d223633222f3e3c656c6c6970736106a08201527f652063783d222d3633222063793d223633222066696c6c3d22236665663563626106c08201527f222072783d223131222072793d223633222f3e3c70617468207374726f6b653d6106e08201527f222361613664323922207374726f6b652d77696474683d22332220643d226d2d6107008201527f31303320313030203339203132346d34322d3132332d3432203132336d32312d6107208201527f3132332d3231203132336d2d31392d31323420313920313235222f3e3c7061746107408201527f682066696c6c3d22236161366432392220643d224d2d313136203939683130356107608201527f7633682d3130357a6d302d3737683130367633682d3130362e356c2d2e352d336107808201527f5a222f3e3c706174682066696c6c3d22236161366432392220643d224d2d36356107a08201527f20313031683376313039682d337a222f3e3c706174682066696c6c3d222339626107c08201527f623232342220643d224d2d373620323035683235763231682d32357a222f3e3c6107e08201527f2f673e3c672069643d22636174223e3c7061746820643d224d2d332e382d31366108008201527f2e3168392e317631322e35682d392e3035327a222f3e3c636972636c652063786108208201527f3d222e383438222063793d222d31362e312220723d22342e35222f3e3c6369726108408201527f636c652063783d22342e323438222063793d222d32322e362220723d22342e356108608201527f222f3e3c7061746820643d224d342e322d32332e324830762d342e337a6d30206108808201527f3068342e33762d342e337a222f3e3c672069643d226361742d6d61736b223e3c6108a08201527f656c6c697073652063783d22322e323438222063793d222d32332e33222066696108c08201527f6c6c3d22676f6c64222072783d22312e38222072793d22312e32222f3e3c656c6108e08201527f6c697073652063783d22322e323438222063793d222d32332e33222072783d226109008201527f2e31222072793d22312e36222f3e3c656c6c697073652063783d22362e3234386109208201527f222063793d222d32332e33222066696c6c3d22676f6c64222072783d22312e386109408201527f222072793d22312e32222f3e3c656c6c697073652063783d22362e32343822206109608201527f63793d222d32332e33222072783d222e31222072793d22312e36222f3e3c2f676109808201527f3e3c7061746820643d224d2d382e362d352e3348362e3776312e38482d382e366109a08201527f35327a6d3020332e3548362e375630482d382e367a222f3e3c7061746820643d6109c08201527f224d2d382e372030762d352e3368312e3856307a222f3e3c706174682066696c6109e08201527f6c3d22234234344345422220643d226d352d32322e322d2e382e382d2e382d2e610a008201527f387a222f3e3c2f673e3c672069643d226275736831223e3c706174682069643d610a208201527f226c31222066696c6c3d22233942423232342220643d224d2d33392030633520610a408201527f35203132203720313920354c3020306c2d32312d35632d362d322d313320302d610a608201527f31382035222f3e3c75736520687265663d22236c3122207472616e73666f726d610a808201527f3d22726f7461746528343529222f3e3c75736520687265663d22236c31222074610aa08201527f72616e73666f726d3d22726f7461746528393029222f3e3c7573652068726566610ac08201527f3d22236c3122207472616e73666f726d3d22726f746174652831333529222f3e610ae08201527f3c75736520687265663d22236c3122207472616e73666f726d3d22726f746174610b008201527f652831383029222f3e3c2f673e3c672069643d226275736832223e3c70617468610b208201527f2069643d226c32222066696c6c3d22233942423232342220643d224d31372d34610b408201527f20302d38342d31372d347a222f3e3c75736520687265663d22236c3222207472610b608201527f616e73666f726d3d22726f7461746528333629222f3e3c75736520687265663d610b808201527f22236c3222207472616e73666f726d3d22726f7461746528373229222f3e3c75610ba08201527f736520687265663d22236c3222207472616e73666f726d3d22726f7461746528610bc08201527f2d333629222f3e3c75736520687265663d22236c3222207472616e73666f726d610be08201527f3d22726f74617465282d373229222f3e3c2f673e3c672069643d22656c657022610c008201527f3e3c706174682066696c6c3d22236339383066312220643d224d2d32322d3639610c208201527f682d33326c392034312032342d3233762d31387a6d3837203230682d33762d33610c408201527f3668337a4d35312d3831762d3368313176337a222f3e3c706174682066696c6c610c608201527f3d22236666662220643d226d2d36322d34372d33302d332033302d337a222f3e610c808201527f3c706174682066696c6c3d22233934303065332220643d224d35392d3238682d610ca08201527f39396c372d36382034332d3620353020367636387a6d2d393920306831325630610cc08201527f682d31327a6d313820306831325630682d31327a6d3639203068313256304834610ce08201527f377a6d2d3136203068313256304833317a222f3e3c706174682066696c6c3d22610d008201527f233934303065332220643d224d2d382d3432682d3534762d33386c35342d3136610d208201527f7a6d2d36322d31356837763430682d377a6d2d382031376834763233682d347a610d408201527f222f3e3c706174682066696c6c3d22236339383066312220643d224d2d37382d610d608201527f343068347634682d347a222f3e3c706174682066696c6c3d2223393430306533610d808201527f2220643d224d2d36342d32337637682d3134762d377a6d32302d333476313068610da08201527f2d3236762d31307a222f3e3c706174682066696c6c3d22236666662220643d22610dc08201527f6d2d36322d34322d33302d332033302d337a222f3e3c706174682066696c6c3d610de08201527f22236339383066312220643d224d2d33342d36396833326c2d392034312d3234610e008201527f2d3233762d31387a222f3e3c2f673e3c672069643d226769726166222066696c610e208201527f6c3d2223663237393030223e3c7061746820643d224d33372d3637762d39384c610e408201527f2d362d36327a6d2d37312032336836376c342d32337a222f3e3c706174682064610e608201527f3d224d2d33342d343420372d38366c33302031397a222f3e3c7061746820643d610e808201527f224d33372d363756304c32342d36377a6d2d3237203056306c31342d36377a4d610ea08201527f2d372d343456306c2d31342d34347a6d2d3237203056306c31332d34347a6d38610ec08201527f392d313133762d346c2d31382d337631337a222f3e3c7061746820643d224d34610ee08201527f302d31363868327637682d327a6d2d34203068327637682d327a222f3e3c7061610f008201527f746820643d226d33302d31353720392d35682d397a222f3e3c70617468206669610f208201527f6c6c3d22236161373033352220643d224d33332d31353420362d393720332d38610f408201527f327a222f3e3c2f673e3c672069643d226165726f706c616e65222066696c6c3d610f608201527f2223464246384635223e3c7061746820643d224d3230203248306c322d326831610f808201527f356c332d327a222f3e3c7061746820643d224d31352037682d324c352d346832610fa08201527f7a222f3e3c7061746820643d224d323020316831373176314832307a22206f70610fc08201527f61636974793d222e33222f3e3c2f673e3c672069643d226c65616673223e3c70610fe08201527f6174682069643d22706c222066696c6c3d22233942423232342220643d224d2d6110008201527f37312d31323963302d313820392d33342032342d34336c34372d32382d3238206110208201527f3437632d392031352d32362032342d3433203234222f3e3c75736520687265666110408201527f3d2223706c22207472616e73666f726d3d22726f746174652834352030202d326110608201527f303029222f3e3c75736520687265663d2223706c22207472616e73666f726d3d6110808201527f22726f746174652839302030202d32303029222f3e3c75736520687265663d226110a08201527f23706c22207472616e73666f726d3d22726f74617465283138302030202d32306110c08201527f3029222f3e3c75736520687265663d2223706c22207472616e73666f726d3d226110e08201527f726f74617465283232352030202d32303029222f3e3c75736520687265663d226111008201527f23706c22207472616e73666f726d3d22726f74617465283237302030202d32306111208201527f3029222f3e3c2f673e3c672069643d2270616c6d31223e3c75736520687265666111408201527f3d2223666174222f3e3c75736520687265663d22236c65616673222f3e3c2f676111608201527f3e3c672069643d2270616c6d32223e3c75736520687265663d2223736d616c6c6111808201527f222f3e3c75736520687265663d22236c65616673222f3e3c2f673e3c672069646111a08201527f3d22637275697365223e3c706174682066696c6c3d22234642443138352220646111c08201527f3d224d3136392e312d35372e364839392e396c322e352d332e346836392e357a6111e08201527f6d2d34342e3320332e372d382e362d312e312d2e3820362e3120382e3620312e6112008201527f317a6d31372e3820304c3133342d35356c2d2e3820362e3120382e3620312e316112208201527f7a6d2d33342e3820304c39392e322d35356c2d2e3820362e3120382e3620312e6112408201527f317a222f3e3c706174682066696c6c3d22234245313632322220643d226d31326112608201527f352e312d35352e372d382e362d312e312d2e3220312e3820382e3620312e317a6112808201527f222f3e3c706174682066696c6c3d22234139333345392220643d226d3132342d6112a08201527f34372e382d382e362d312e312d312e362031322e3920382e3620312e317a222f6112c08201527f3e3c706174682066696c6c3d22234245313632322220643d226d3132342e352d6112e08201527f35312e382d382e362d312e312d2e3220312e3820382e3620312e317a6d31382e6113008201527f332d332e392d382e362d312e312d2e3220312e3820382e3620312e317a222f3e6113208201527f3c706174682066696c6c3d22234139333345392220643d226d3134312e382d346113408201527f372e382d382e362d312e312d312e362031322e3920382e3620312e317a222f3e6113608201527f3c706174682066696c6c3d22234245313632322220643d226d3134322e332d356113808201527f312e372d382e362d312e312d2e3220312e3820382e3620312e317a6d2d33342e6113a08201527f392d342d382e362d312e312d2e3220312e3820382e3620312e317a222f3e3c706113c08201527f6174682066696c6c3d22234139333345392220643d226d3130382e342d34372e6113e08201527f382d382e362d312e314c39382e322d33366c382e3620312e317a222f3e3c70616114008201527f74682066696c6c3d22234245313632322220643d226d3130372e392d35312e376114208201527f2d382e362d312e312d2e3220312e3820382e3620312e317a222f3e3c706174686114408201527f2066696c6c3d22234642443138352220643d224d3134392e322d33384831372e6114608201527f387631392e36683133312e377a222f3e3c706174682066696c6c3d22234139336114808201527f3345392220643d224d3137312e392d32352e3248307634683137312e397a4d306114a08201527f2d32312e32683137312e394c3136332e312e3448382e387a222f3e3c706174686114c08201527f2066696c6c3d22234642443138352220643d226d35322e322e362d35312d372e6114e08201527f384c362e312e357a6d37312e37203020342e312d312036332e312e397a222f3e6115008201527f3c706174682066696c6c3d22233033303330342220643d224d3134362e312d336115208201527f352e31682d31323576312e38683132357a6d3020342e33682d31323576312e386115408201527f683132357a222f3e3c706174682066696c6c3d22234642443138352220643d226115608201527f4d34362e392d34342e324832382e3476372e376831382e357a222f3e3c2f673e6115808201527f3c672069643d2274616e6b657222207374796c653d227472616e73666f726d2d6115a08201527f6f726967696e3a30203131342e397078223e3c706174682066696c6c3d2223466115c08201527f34453546432220643d224d31332e362d33382e30313468322e3876382e3536356115e08201527f682d322e387a6d36312e36203048373876382e353635682d322e387a222f3e3c6116008201527f672066696c6c3d2223463445354643223e3c7061746820643d224d37352e322d6116208201527f33382e30313448373876382e353635682d322e387a222f3e3c7061746820643d6116408201527f224d37382d33382e30313476382e363633682d322e38762d382e363633222f3e6116608201527f3c2f673e3c706174682066696c6c3d22234634453546432220643d224d3132316116808201527f2e382d33382e30313468322e3876382e353635682d322e387a222f3e3c6720666116a08201527f696c6c3d2223463445354643223e3c7061746820643d224d3132312e382d33386116c08201527f2e30313468322e3876382e353635682d322e387a222f3e3c7061746820643d226116e08201527f4d3132342e362d33382e30313476382e363633682d322e38762d382e363633226117008201527f2f3e3c2f673e3c706174682066696c6c3d22234634453546432220643d224d316117208201527f36322e332d33382e3530366833392e327631362e383334682d33392e327a6d2d6117408201527f342e322d362e3130346831332e3576362e313034682d31332e357a222f3e3c706117608201527f6174682066696c6c3d22233934303045332220643d224d392e352d32382e32366117808201527f38683136352e3776332e39333848392e357a222f3e3c706174682066696c6c3d6117a08201527f22234434393946342220643d224d392e352d32382e323638683136352e3776336117c08201527f2e39333848392e357a222f3e3c706174682066696c6c3d2223393430304533226117e08201527f20643d224d3231342e342d32342e33334831342e326c382e362032302e3737326118008201527f683138332e317a222f3e3c706174682066696c6c3d22234441443845302220646118208201527f3d224d392e352d33302e353332683136352e3776322e32363448392e357a222f6118408201527f3e3c706174682066696c6c3d22234646462220643d224d36362e332d312e37386118608201527f362031362e342d392e3236386c342e3820372e3238357a6d3132332e332030206118808201527f342e312d352e3331362036312e3820352e3231387a6d302d353768382e3676316118a08201527f2e373732682d382e367a6d3020372e36373968382e367631322e36682d382e366118c08201527f7a222f3e3c706174682066696c6c3d22234245313632322220643d224d3138396118e08201527f2e362d35372e30313468382e3676352e393037682d382e367a222f3e3c7061746119008201527f682066696c6c3d22234646462220643d224d3138392e362d35342e39343768386119208201527f2e3676312e373732682d382e367a222f3e3c2f673e3c672069643d22666973686119408201527f6572223e3c706174682066696c6c3d22233934303045332220643d224d31382e6119608201527f362d31382e33682d332e3376312e3568332e337a222f3e3c706174682066696c6119808201527f6c3d22234339383046312220643d224d32302e312d31392e32682d362e34762e6119a08201527f3868362e347a222f3e3c706174682066696c6c3d22233934303045332220643d6119c08201527f224d32302e312d31352e33682d362e3376322e3868362e337a222f3e3c7061746119e08201527f682066696c6c3d22234339383046312220643d224d32332d31362e394831302e611a008201527f3776312e364832337a222f3e3c706174682066696c6c3d222346424431383522611a208201527f20643d226d36352e392e3420312e332d2e312d32352e362d32382e39562d2e35611a408201527f6831562d32367a222f3e3c706174682066696c6c3d2223393430304533222064611a608201527f3d224d33342e322d312e356831352e35762d31314833342e327a6d31342e322d611a808201527f312e334833352e35762d382e356831322e397a222f3e3c706174682066696c6c611aa08201527f3d22234339383046312220643d226d31392e352d342e332031312e382d32322e611ac08201527f314c34332d342e336c312e322d2e362d31322e392d32342e324c31382e342d34611ae08201527f2e397a222f3e3c706174682066696c6c3d22234339383046312220643d224d32611b008201527f352e392d31332e3548382e3676372e386831372e337a4d33362e362d31384832611b208201527f352e3576312e336831312e317a222f3e3c706174682066696c6c3d2223433938611b408201527f3046312220643d226d33312e372d31362e392031312e332d31312d2e392d2e39611b608201527f2d31312e332031317a222f3e3c706174682066696c6c3d222339343030453322611b808201527f20643d224d31352e382d382e3176332e356833392e39562e3748362e384c302d611ba08201527f382e317a222f3e3c706174682066696c6c3d22233934303045332220643d224d611bc08201527f35352e372d362e344831352e3976312e386833392e387a222f3e3c7061746820611be08201527f66696c6c3d22234642443138352220643d224d32332e322e3820322e352d322e611c008201527f336c3220337a6d3234203020312e372d322e324c37342e352e377a6d31352e33611c208201527f2d32332e31682d312e3976312e387a4d35382e342d3139682d312e3976312e38611c408201527f7a6d2e342d352e34682d312e3976312e387a6d352e312d332e3148363276312e611c608201527f387a6d332e3320362e38682d312e3976312e387a6d312e392d352e33682d312e611c808201527f3976312e387a6d2d312e332d34682d312e3976312e387a6d2d352e322031322e611ca08201527f34682d312e3976312e387a222f3e3c2f673e3c672069643d22627573223e3c70611cc08201527f6174682066696c6c3d22233934303065332220643d224d2d35312d3930483934611ce08201527f763832482d35317a222f3e3c706174682066696c6c3d22236233346165622220611d008201527f643d224d2d39322d3930683432763832682d34327a222f3e3c70617468206669611d208201527f6c6c3d22236539346531622220643d224d2d35312d3732483830763130482d35611d408201527f317a222f3e3c706174682066696c6c3d22236639623233332220643d224d2d39611d608201527f322d3732683432763130682d34327a222f3e3c636972636c652063783d222d33611d808201527f30222063793d222d382220723d2238222066696c6c3d2223653934653162222f611da08201527f3e3c636972636c652063783d223438222063793d222d382220723d2238222066611dc08201527f696c6c3d2223653934653162222f3e3c636972636c652063783d223732222063611de08201527f793d222d382220723d2238222066696c6c3d2223653934653162222f3e3c2f67611e008201527f3e3c672069643d227368656570222066696c6c3d2223666266386635223e3c70611e208201527f61746820643d226d31372e392d392e332d3720322e322d31382e322d2e372d38611e408201527f2e322d342e3320372e372d31342e362032332e3620322e327a222f3e3c706174611e608201527f6820643d224d2d392e372d392e33683376382e3637682d337a6d31392e312030611e808201527f683376382e3637682d337a222f3e3c7061746820643d226d2d372e382d32362e611ea08201527f372d31352e3120313876382e3168332e386c31312e332d397a222f3e3c2f673e611ec08201527f3c672069643d226262697264223e3c706174682066696c6c3d22233934303065611ee08201527f332220643d224d2d3130203820362d3132563048307a222f3e3c706174682066611f008201527f696c6c3d22676f6c642220643d226d362d31322036203448367a222f3e3c2f67611f208201527f3e3c672069643d22706572736f6e223e3c7061746820643d224d2d372d343048611f408201527f385630482d377a222f3e3c706174682066696c6c3d2223616136643239222064611f608201527f3d224d2d322d35304838763130482d327a222f3e3c2f673e3c672069643d2263611f808201527f616d656c222066696c6c3d2223663237393030223e3c7061746820643d226d2d611fa08201527f332e352d33332e312d32322e312d34342e327634342e327a6d2d32322e312030611fc08201527f2033332e3120372e372033332e322d372e377a222f3e3c7061746820643d224d611fe08201527f2d32352e362d33332e3120372e352d37372e336c33332e322034342e327a222f6120008201527f3e3c706174682066696c6c3d22233962623232342220643d224d2d392e312d356120208201527f352e3220372e352d37372e336c31362e362032322e317a222f3e3c70617468206120408201527f643d224d2d31342e362d33332e312d32352e362030762d33332e317a6d3020306120608201527f4c2d332e352030762d33332e317a6d34342e3220304c31382e362030762d33336120808201527f2e317a6d3020304c34302e372030762d33332e317a6d2d35352e322d33332e326120a08201527f762d31314c2d34302d37342e3276332e317a222f3e3c706174682066696c6c3d6120c08201527f22236265313632322220643d224d2d33362e372d37352e3768322e387634322e6120e08201527f3534682d322e387a222f3e3c2f673e3c672069643d22636f796f7465223e3c706121008201527f6174682066696c6c3d22236161366432392220643d224d31302e33352d32332e6121208201527f36682d382e324c2d31322e33352e366831352e376c2d342e382d322e3720342e6121408201527f372d372e364c31302e33352e367a4d2d31322e33352e366c2d31312e322d322e6121608201527f382d342e3820322e387a6d31342e352d32342e3220332e392d31342e322e39206121808201527f312e352e392d312e3720322e352031342e347a222f3e3c706174682066696c6c6121a08201527f3d22236161366432392220643d226d332e38352d32372e382d38203520372e356121c08201527f2d312e317a222f3e3c706174682066696c6c3d22233934303065332220643d226121e08201527f4d342e36352d32382e36682e3476322e3636682d2e347a222f3e3c70617468206122008201527f66696c6c3d22236337396637322220643d226d2d322e33352d31372e3420342e6122208201527f352d362e3220322e382e3920352e342d2e3920312e3620362e322d322e372d316122408201527f2e362d332e3620342e352d322e322d342d332e3320332e322d2e352d322e387a6122608201527f222f3e3c2f673e3c672069643d22626174223e3c706174682066696c6c3d22236122808201527f3933303045322220643d224d372e35203232682d31354c3020317a222f3e3c706122a08201527f6174682066696c6c3d22233933303045322220643d226d372e352033322d372d6122c08201527f342d38203420382d32317a6d2d31312d333268377632682d377a222f3e3c67206122e08201527f69643d226261742d6d61736b222066696c6c3d2223464646223e3c636972636c6123008201527f652063783d222d322e35222063793d2232352220723d2231222f3e3c636972636123208201527f6c652063783d22322e35222063793d2232352220723d2231222f3e3c2f673e3c6123408201527f2f673e3c672069643d226a656c6c79223e3c672069643d226a656c6c792d6d616123608201527f736b223e3c7061746820643d224d342d3130682d376c2d3720326832317a222f6123808201527f3e3c7061746820643d226d31302d3420322d312d312d33682d32316c2d3120336123a08201527f203220317a22206f7061636974793d222e3137222f3e3c7061746820643d224d6123c08201527f332d32203120326c332d347a6d2d3420322d32203420332d347a6d2d322d322d6123e08201527f32203420332d347a22206f7061636974793d222e3039222f3e3c7061746820646124008201527f3d226d2d342d36203120346831762d347a6d372030763468316c312d347a6d2d6124208201527f342030763668316c322d367a22206f7061636974793d222e3133222f3e3c2f676124408201527f3e3c2f673e3c672069643d2263616d706572223e3c706174682066696c6c3d226124608201527f236161373033352220643d224d2d31382e3635352d35342e396831362e3876396124808201527f2e3934682d31362e387a222f3e3c706174682066696c6c3d22236161366432396124a08201527f2220643d224d2d32392e3735352d35396831332e387631302e3938682d31332e6124c08201527f387a222f3e3c706174682066696c6c3d22236632386430302220643d226d2d346124e08201527f352e3635352d32312d32332e342d352e3420392e352d31352e356832332e397a6125008201527f222f3e3c706174682066696c6c3d22236666656639392220643d226d2d35332e6125208201527f3035352d35322e352d362e352031302e3668392e386c2d362e392031322e352d6125408201527f31322e342033202e3320382e3120322e37203132683130302e346c33342e322d6125608201527f382e34762d33332e346c2d332e372d342e347a222f3e3c706174682066696c6c6125808201527f3d22236265313632322220643d224d2d36302e3035352d32332e34683132392e6125a08201527f3476312e3931682d3132392e347a6d2d382e3320342e37683133372e3776312e6125c08201527f3931682d3133372e377a222f3e3c636972636c652063783d222d34392e3635356125e08201527f222063793d222d362e332220723d22362e34222066696c6c3d222339343030656126008201527f33222f3e3c636972636c652063783d2231352e323435222063793d222d362e336126208201527f2220723d22362e34222066696c6c3d2223393430306533222f3e3c70617468206126408201527f69643d2263616d7065722d6d61736b222066696c6c3d222366323864303022206126608201527f643d224d2d32332e3935352d34312e396831322e367632372e3636682d31322e6126808201527f367a6d31352e3920306831362e3376382e3738682d31362e337a6d2d32382e376126a08201527f203068382e327631322e3439682d382e327a6d373020306833312e327631322e6126c08201527f3439682d33312e327a222f3e3c706174682066696c6c3d22236666662220643d6126e08201527f224d2d36382e3335352d32362e3468352e3476372e3338682d352e347a6d30206127008201527f392e3968332e3176342e32682d332e317a222f3e3c2f673e3c672069643d22746127208201527f656e74223e3c706174682066696c6c3d22236661643139392220643d224d35336127408201527f2e3036392d3631682d33342e344c2e3036392d31332e346835337a222f3e3c706127608201527f6174682066696c6c3d22236632386430302220643d226d35342e3036392d36316127808201527f2031382e352034372e36682d31382e357a6d2d3220302d31382e362034372e366127a08201527f6831382e367a222f3e3c672066696c6c3d22676f6c64223e3c706174682069646127c08201527f3d2274656e742d6d61736b2220643d226d38342e3836392d332e3320312e332d6127e08201527f31322e3220342e3320342e3420352d313820332e3120313120342e352d352e346128008201527f20352e322031322e3620332e392d322e3520342031302e317a222f3e3c2f673e6128208201527f3c706174682066696c6c3d22236536333332612220643d226d39302e3036392d6128408201527f332e3320392e332d372e322031302e3620372e327a222f3e3c706174682066696128608201527f6c6c3d22236161373033352220643d224d38312e3136392d332e336833382e366128808201527f76332e3139682d33382e367a222f3e3c706174682066696c6c3d2223393430306128a08201527f65332220643d224d35322e3036392d363168327634372e36682d327a222f3e3c6128c08201527f2f673e3c672069643d22706172726f74223e3c706174682066696c6c3d2223396128e08201527f62623232342220643d224d2d332d3135683576384c302d366c2d3320367a222f6129008201527f3e3c706174682066696c6c3d22233933303065322220643d226d322d313920326129208201527f203448327a222f3e3c706174682066696c6c3d22676f6c642220643d224d322d6129408201527f3139682d336c2d32203468357a222f3e3c706174682066696c6c3d22233933306129608201527f3065322220643d226d302d3620322d3176337a222f3e3c2f673e3c672069643d6129808201527f2270656e67223e3c706174682066696c6c3d22676f6c642220643d226d2d362d6129a08201527f33322d342034762d317a222f3e3c706174682066696c6c3d22676f6c642220646129c08201527f3d226d302d32352d362d372d34203356304834762d32317a222f3e3c706174686129e08201527f2066696c6c3d22233934303065332220643d224d2d31302d323856306c382d38612a008201527f762d31327a222f3e3c706174682066696c6c3d22236536333332612220643d22612a208201527f4d2d332d3248397632482d337a222f3e3c706174682066696c6c3d2223393430612a408201527f3065332220643d224d312d3336682d336c2d3420342036203720342034762d31612a608201527f357a222f3e3c706174682066696c6c3d22236536333332612220643d224d312d612a808201527f3333763368387a222f3e3c2f673e3c672069643d22666c6f636b22207472616e612aa08201527f73666f726d3d227363616c65282e3329223e3c672069643d226631223e3c7061612ac08201527f74682066696c6c3d22236666662220643d224d302030683232763448307a222f612ae08201527f3e3c706174682066696c6c3d22236633393630302220643d224d323220306835612b008201527f7634682d357a222f3e3c706174682066696c6c3d22236666662220643d224d38612b208201527f2d31336838563948387a222f3e3c2f673e3c672069643d22667570223e3c7573612b408201527f6520687265663d2223663122207472616e73666f726d3d227472616e736c6174612b608201527f65283830202d353029222f3e3c75736520687265663d2223663122207472616e612b808201527f73666f726d3d227472616e736c617465283430202d323529222f3e3c75736520612ba08201527f687265663d2223663122207472616e73666f726d3d227472616e736c61746528612bc08201527f313230202d373529222f3e3c75736520687265663d2223663122207472616e73612be08201527f666f726d3d227472616e736c61746528313630202d31303029222f3e3c2f673e612c008201527f3c75736520687265663d222366757022207472616e73666f726d3d227363616c612c208201527f652831202d3129222f3e3c2f673e3c672069643d227761746572222066696c6c612c408201527f3d222346434438393922206f7061636974793d222e37223e3c72656374207769612c608201527f6474683d22352522206865696768743d22312220783d223530252220793d2233612c808201527f3025222f3e3c726563742077696474683d22352522206865696768743d223122612ca08201527f20783d223730252220793d22333025222f3e3c726563742077696474683d2235612cc08201527f2522206865696768743d22312220783d223930252220793d22333025222f3e3c612ce08201527f726563742077696474683d22352522206865696768743d22312220783d223630612d008201527f252220793d22333225222f3e3c726563742077696474683d2235252220686569612d208201527f6768743d22312220783d223830252220793d22333225222f3e3c726563742077612d408201527f696474683d22352522206865696768743d22312220783d223430252220793d22612d608201527f333225222f3e3c726563742077696474683d22352522206865696768743d2231612d808201527f2220783d223330252220793d22333025222f3e3c726563742077696474683d22612da08201527f352522206865696768743d22312220783d223230252220793d22333225222f3e612dc08201527f3c726563742077696474683d22352522206865696768743d22312220783d2231612de08201527f30252220793d22333025222f3e3c726563742077696474683d22352522206865612e008201527f696768743d22312220783d2230252220793d22333225222f3e3c726563742077612e208201527f696474683d2231322522206865696768743d22322220783d223230252220793d612e408201527f22333825222f3e3c726563742077696474683d2231322522206865696768743d612e608201527f22322220783d223430252220793d22333525222f3e3c72656374207769647468612e808201527f3d2231322522206865696768743d22322220783d223630252220793d22333825612ea08201527f222f3e3c726563742077696474683d2231322522206865696768743d22322220612ec08201527f783d223830252220793d22333525222f3e3c726563742077696474683d223132612ee08201527f2522206865696768743d22322220783d2230252220793d22333525222f3e3c72612f008201527f6563742077696474683d2232352522206865696768743d22332220783d223130612f208201527f252220793d22343825222f3e3c726563742077696474683d2232352522206865612f408201527f696768743d22332220783d223430252220793d22343525222f3e3c7265637420612f608201527f77696474683d2232352522206865696768743d22332220783d22373025222079612f808201527f3d22343825222f3e3c726563742077696474683d223235252220686569676874612fa08201527f3d22332220783d222d3230252220793d22343525222f3e3c7265637420776964612fc08201527f74683d2234302522206865696768743d22342220783d223330252220793d2235612fe08201527f3525222f3e3c726563742077696474683d2234302522206865696768743d22346130008201527f2220783d223830252220793d22353325222f3e3c726563742077696474683d226130208201527f34302522206865696768743d22342220783d222d3230252220793d22353725226130408201527f2f3e3c2f673e3c7573652069643d2267756c6c2d66222066696c6c3d222366666130608201527f662220687265663d2223626972642d66222f3e3c7573652069643d22626972646130808201527f2d7265642d66222066696c6c3d227265642220687265663d2223626972642d666130a08201527f222f3e3c7573652069643d226361742d30222066696c6c3d22233562343438386130c08201527f2220687265663d2223636174222f3e3c7573652069643d226361742d312220666130e08201527f696c6c3d22233936363733632220687265663d2223636174222f3e3c757365206131008201527f69643d226361742d32222066696c6c3d22236535373233322220687265663d226131208201527f23636174222f3e3c7573652069643d226361742d33222066696c6c3d222366666131408201527f666666652220687265663d2223636174222f3e3c7573652069643d226361742d6131608201527f302d6d61736b2220687265663d22236361742d6d61736b222f3e3c75736520696131808201527f643d226361742d312d6d61736b2220687265663d22236361742d6d61736b222f6131a08201527f3e3c7573652069643d226361742d322d6d61736b2220687265663d22236361746131c08201527f2d6d61736b222f3e3c7573652069643d226361742d332d6d61736b22206872656131e08201527f663d22236361742d6d61736b222f3e3c7573652069643d226a656c6c792d30226132008201527f2066696c6c3d22233464366166662220687265663d22236a656c6c79222f3e3c6132208201527f7573652069643d226a656c6c792d31222066696c6c3d222338306666386122206132408201527f687265663d22236a656c6c79222f3e3c7573652069643d226a656c6c792d32226132608201527f2066696c6c3d22236666362220687265663d22236a656c6c79222f3e3c7573656132808201527f2069643d226a656c6c792d33222066696c6c3d222366663830383022206872656132a08201527f663d22236a656c6c79222f3e3c7573652069643d226a656c6c792d302d6d61736132c08201527f6b2220687265663d22236a656c6c792d6d61736b222f3e3c7573652069643d226132e08201527f6a656c6c792d312d6d61736b2220687265663d22236a656c6c792d6d61736b226133008201527f2f3e3c7573652069643d226a656c6c792d322d6d61736b2220687265663d22236133208201527f6a656c6c792d6d61736b222f3e3c7573652069643d226a656c6c792d332d6d616133408201527f736b2220687265663d22236a656c6c792d6d61736b222f3e3c706174682069646133608201527f3d22636163747573222066696c6c3d22233634393632342220643d224d3431206133808201527f3338763139483331563238683137563131483338763130682d375630483136766133a08201527f3530682d3656333248307632366831367633306831355636376832315633387a6133c08201527f222f3e3c706174682069643d227062656172222066696c6c3d222366666636636133e08201527f632220643d224d2d3431203068386c2d332d352032312d3648384c32342030766134008201527f2d31366c382d31306831356c342d384c382d3438682d34306c2d392031367a226134208201527f2f3e3c706174682069643d22736d616c6c222066696c6c3d22234141373033356134408201527f2220643d224d31302030762d3136364c302d3230306c2d313020333456307a226134608201527f2f3e3c706174682069643d22666174222066696c6c3d222341413730333522206134808201527f643d224d32392030762d3132304c302d3230306c2d333120383056307a222f3e6134a08201527f3c706174682069643d2263616e6761222066696c6c3d222361613730333522206134c08201527f643d226d38332031343020323420322031352d392039203920322031382031386134e08201527f20382d31332d313020352d3137203120313420372d3135203133203120332d326135008201527f20313520332d392d3968386c312d372d3132203620312d31312d362031342d356135208201526135407f2d312d32322d31352d313920342d31342031347a22207472616e73666f726d3d818301527f227472616e736c617465282d3833202d31363829222f3e3c2f646566733e00006135608301526000918254946001958681811c9116801561428a575b8282101461427657601f8111614247575b5090839286945082908480528385209385915b80831061422e57505050616abd945061ffff199101511690555560018060a01b03938480928160018060a01b03199816886003541617600355168660045416176004551684825416179055169060025416176002555161433690816142c48239f35b83850151865589979095019492810192918101916141cc565b848052866101ab601f848820930160051c830192015b82811061426b5750506141b9565b86815501879061425d565b634e487b7160e01b85526022600452602485fd5b90607f16906141a8565b634e487b7160e01b600052604160045260246000fd5b600080fd5b51906001600160a01b03821682036142aa5756fe6080604052600436101561001257600080fd5b60003560e01c8063018a5f4d14611bde57806304e74e5f14611baf57806325481179146117415780632ff40519146116bd578063485c475f14610fd65780634d0d1e7814610d0657806371a9730514610bfa5780637679850814610bde5780637a1ebd4d14610bb55780638dfd550414610b8c578063a360376614610b61578063b4d6438b14610555578063bcb915431461052c578063cba4cbbd14610510578063cfe839ec146104e7578063dda510f0146104be578063e8378d7c146101135763f773e0b0146100e257600080fd5b3461010e57600036600319011261010e5761010a6100fe613e84565b60405191829182611c42565b0390f35b600080fd5b3461010e5760208060031936011261010e5760405161013181611f7d565b606091828252828183015282604083015282808301528260808301528260a08301528260c0830152600060e08301526101009183838201526101209380858301526101409181838201526024610160838184015261018094600086850152846101a080950152600060018060a01b036003541660405194858092633a0de35f60e21b825260043560048301525afa9283156104b257600093610309575b50604051988998888a528451966101c097888b8d01526101e08c016101f291611c1d565b99860151601f198c8c03810160408e01529a61020d91611c1d565b60408701518c82038c01838e01526102259190611c1d565b90860151908a8c82030160808d015261023d91611c1d565b6080860151908a8c82030160a08d015261025691611c1d565b60a0860151908a8c82030160c08d015261026f91611c1d565b60c0860151908a8c82030160e08d015261028891611c1d565b9060e0860151818c015285015190898b820301838c01526102a891611c1d565b9084015190888a820301838b01526102bf91611c1d565b90830151908789820301838a01526102d691611c1d565b90820151908688820301868901526102ed91611c1d565b9381015182870152015192848303019084015261010a91611c1d565b9092503d806000833e61031c8183612005565b8101878282031261010e5781516001600160401b039283821161010e5701906101c08282031261010e576040519261035384611f7d565b825181811161010e5782610368918501612102565b84528983015181811161010e5782610381918501612102565b8a850152604083015181811161010e578261039d918501612102565b60408501528783015181811161010e57826103b9918501612102565b88850152608083015181811161010e57826103d5918501612102565b608085015260a083015181811161010e57826103f2918501612102565b60a085015260c083015181811161010e578261040f918501612102565b60c085015260e083015160e08501528a83015181811161010e5782610435918501612102565b8b8501528b83015181811161010e5782610450918501612102565b8c8501528583015181811161010e578261046b918501612102565b868501528483015181811161010e5782610486918501612102565b8585015288830151898501528683015190811161010e576104a79201612102565b8482015291896101ce565b6040513d6000823e3d90fd5b3461010e57600036600319011261010e576004546040516001600160a01b039091168152602090f35b3461010e57600036600319011261010e576001546040516001600160a01b039091168152602090f35b3461010e57600036600319011261010e5761010a6100fe61347b565b3461010e57600036600319011261010e576002546040516001600160a01b039091168152602090f35b3461010e57602036600319011261010e57606061028060405161057781611f61565b8281528260208201528260408201526000838201528260808201528260a0820152600060c08201528260e08201528261010082015282610120820152826101408201528261016082015282610180820152826101a0820152826101c082015260006101e08201526000610200820152600061022082015282610240820152600061026082015201526024600060018060a01b036003541660405192838092632f8fb9ad60e01b825260043560048301525afa80156104b257600090610818575b61010a90604051918291602083526102806107f96107b761079f61078761076f61075761073f61072761070f8a8d60e060c06106ee6106d96106b96106a361068d88516102a060208a01526102c0890190611c1d565b6020890151888203601f190160408a0152611c1d565b6040880151878203601f19016060890152611c1d565b606087015160808701526080870151601f198783030160a0880152611c1d565b60a0860151858203601f190184870152611c1d565b93015115159101528d60e08d015190610100601f1982850301910152611c1d565b6101008b01518d8203601f19016101208f0152611c1d565b6101208a01518c8203601f19016101408e0152611c1d565b6101408901518b8203601f19016101608d0152611c1d565b6101608801518a8203601f19016101808c0152611c1d565b610180870151898203601f19016101a08b0152611c1d565b6101a0860151888203601f19016101c08a0152611c1d565b6101c0850151878203601f19016101e0890152611c1d565b6101e0840151151561020087015261020084015115156102208701526102208401511515610240870152610240840151601f1987830301610260880152611c1d565b61026083015185830152910151838203601f19016102a0850152611c1d565b503d90816000823e61082a8282612005565b602081838101031261010e578051916001600160401b03831161010e576102a0838301828401031261010e576040519161086383611f61565b838101516001600160401b03811161010e57610886908383019086840101612102565b8352602084820101516001600160401b03811161010e576108ae908383019086840101612102565b6020840152604084820101516001600160401b03811161010e576108d9908383019086840101612102565b604084015280840160608181015190850152608001516001600160401b03811161010e5761090e908383019086840101612102565b608084015260a084820101516001600160401b03811161010e57610939908383019086840101612102565b60a084015261094c60c085830101612a82565b60c084015260e084820101516001600160401b03811161010e57610977908383019086840101612102565b60e084015261010084820101516001600160401b03811161010e576109a3908383019086840101612102565b61010084015261012084820101516001600160401b03811161010e576109d0908383019086840101612102565b61012084015261014084820101516001600160401b03811161010e576109fd908383019086840101612102565b61014084015261016084820101516001600160401b03811161010e57610a2a908383019086840101612102565b61016084015261018084820101516001600160401b03811161010e57610a57908383019086840101612102565b6101808401526101a084820101516001600160401b03811161010e57610a84908383019086840101612102565b6101a08401526101c084820101516001600160401b03811161010e57610ab1908383019086840101612102565b6101c0840152610ac66101e085830101612a82565b6101e0840152610adb61020085830101612a82565b610200840152610af061022085830101612a82565b61022084015261024084820101516001600160401b03811161010e57610b1d908383019086840101612102565b610240840152808401610260818101519085015261028001516001600160401b03811161010e5761010a94610b56938301920101612102565b610280820152610637565b3461010e57602036600319011261010e5761010a610b80600435612f50565b60405191829182611cd5565b3461010e57602036600319011261010e57600435600481101561010e576100fe61010a91612e0d565b3461010e57600036600319011261010e576003546040516001600160a01b039091168152602090f35b3461010e57600036600319011261010e5761010a6100fe612a8f565b3461010e57600036600319011261010e57604051600080549060018260011c9160018416918215610cfc575b6020948585108414610ce6578587948686529182600014610cc6575050600114610c6c575b50610c5892500383612005565b61010a604051928284938452830190611c1d565b6000808052859250907f290decd9548b62a8d60345a988386fc84ba6bc95484008f6362f93160ef3e5635b858310610cae575050610c58935082010185610c4b565b80548389018501528794508693909201918101610c97565b60ff191685820152610c5895151560051b8501019250879150610c4b9050565b634e487b7160e01b600052602260045260246000fd5b92607f1692610c26565b3461010e5760208060031936011261010e5760405190610d2582611f45565b6060918281526000828201528260408201528280820152826080820152600060a0820152600060c0820152600060e0820152610100926000848301526101208181840152610140926000848201528261016080920152602460018060a01b039260008460035416604051938480926309a1a3cf60e31b825260043560048301525afa9182156104b257600092610e8b575b5090610e73610e149886959493610e3b610e2761010a9a996040519d8d8f9e8f90815289519b610df36101809d8e858501526101a0840190611c1d565b928b015116604082015260408a015190601f199d8e82850301910152611c1d565b908701518d82038b0160808f0152611c1d565b60808601518c82038a0160a08e0152611c1d565b9160a085015160c08c015260c085015160e08c015260e08501511515818c0152840151818b0152830151868a830301888b0152611c1d565b94810151828801520151918584030190850152611c1d565b9594939291503d806000883e610ea18188612005565b860195878188031261010e5780516001600160401b039182821161010e5701986101808a89031261010e57604051610ed881611f45565b8a5183811161010e5789610eed918d01612102565b8152898b0151868116810361010e578a82015260408b015183811161010e5789610f18918d01612102565b6040820152868b015183811161010e5789610f34918d01612102565b8782015260808b015183811161010e5789610f50918d01612102565b608082015260a08b015160a082015260c08b015160c0820152610f7560e08c01612a82565b60e0820152818b015182820152838b015183811161010e5789610f99918d01612102565b84820152878b015188820152848b015192831161010e57610fc561010a99610e7394610e149d01612102565b858201529394959697509850610db6565b3461010e57600036600319011261010e576040516103c081018181106001600160401b038211176116a7576114609160009160405261038481527f1f706572736f6e0000000046500000546000000e1000001c200000006401636160208201527f6d656c00000000004650000054600000546000001c2000000064016361742d3060408201527a3840000046500000546000000e100000006402627573000000000060608201527d0e1000001c2000002a3000000708000000640163616e676100000000003860808201527f400000708000002a3000001c200000003202626174000000000000001c20000060a08201527f2a3000001c2000000e10000000320063616d70657200000003f48000093a800060c08201527f1275000007e900000000460274656e74000000000003f48000093a800012750060e08201527e07e9000000004602636f796f7465000000004650000054600000708000001c6101008201527f200000006402636f77000000000000004650000054600000708000001c2000006101208201527e6401706265617200000000001c20000038400000a8c000000e1000000064026101408201527f706172726f7400000000016800000e10000002d000000708000000640270656e6101608201527f670000000000001c20000038400000070800000e10000000640267756c6c00006101808201527b0258000004b000000e100000070800000032026c6c616d61000000006101a08201527e0e1000001c200000465000000e1000000064026170650000000000000007086101c08201527d151800002a30000007080000003202656c65700000000000000e100000156101e08201527f1800002a30000007080000003202676972616600000000000e100000151800006102008201527f2a300000070800000032026a656c6c792d30000000070800000e1000000e10006102208201527e070800000064006a656c6c792d31000000070800000e1000000e10000007086102408201527c64006a656c6c792d32000000070800000e1000000e10000007080000006102608201527f64006a656c6c792d33000000070800000e1000000e10000007080000006400636102808201527f61742d3000000000003840000046500000546000000e1000000064026361742d6102a08201527f3100000000003840000046500000546000000e1000000064026361742d3200006102c08201527c3840000046500000546000000e1000000064026361742d3300000000006102e08201527f3840000046500000546000000e100000006402706572736f6e000000000e10006103008201527e1c200000384000000708000000640167756c6c0000000000000258000004b06103208201527cf00000012c0000003202736865657000000000001c2000002a3000000e6103408201527f1000000e100000003202626269726400000000000258000004b0000000f000006103608201527f012c0000003201626269726400000000000258000004b000000e10000007080061038082015261640160e01b6103a082015260405180938192634a9fd61360e01b8352602060048401526024830190611c1d565b038173__$55e308ee0cc2c89b0b139d5735dcdc1f21$__5af49081156104b25760009161153e575b506040518091602082016020835281518091526040830190602060408260051b8601019301916000905b8282106114c157505050500390f35b919360019193955060208091603f1989820301855287519060c0806114ef845160e0855260e0850190611c1d565b93858101518685015260408101516040850152606081015160608501526080810151608085015260a081015160a085015201519161152c83611ccb565b015296019201920185949391926114b2565b3d9150816000823e6115508282612005565b602081838101031261010e5780516001600160401b03811161010e57828201601f82840101121561010e5780820151906115898261204a565b936115976040519586612005565b828552602085019181850160208560051b83880101011161010e57602081860101925b60208560051b838801010184106115d75750505050505081611488565b83516001600160401b03811161010e5760e0878401820185890103601f19011261010e576040519060e082018281106001600160401b038211176116a757604052602081858a01010151906001600160401b03821161010e5761164889602060e09484898b85019401010101612102565b8352888501016040818101516020850152606080830151918501919091526080808301519185019190915260a0808301519185019190915260c0820151908401520151600381101561010e5760c08201528152602093840193016115ba565b634e487b7160e01b600052604160045260246000fd5b3461010e5760208060031936011261010e57600354604051632ff4051960e01b81526004803590820152908290829060249082906001600160a01b03165afa9081156104b257600091611714575b50604051908152f35b90508181813d831161173a575b61172b8183612005565b8101031261010e57518261170b565b503d611721565b3461010e57602036600319011261010e5760043561175d6128b4565b50610140811015611b72576117706128b4565b506013811015611b6157600b811015611ae057600154604051633fb75bfb60e21b81526004810192909252600090829060249082906001600160a01b03165afa9081156104b2576117e9916000918291611abe575b505b604051809381926327a8dd9560e21b8352602060048401526024830190611c1d565b038173__$55e308ee0cc2c89b0b139d5735dcdc1f21$__5af480156104b257600090611829575b61010a9150600061010082015260405191829182611cd5565b503d806000833e61183a8183612005565b602082828101031261010e5781516001600160401b03811161010e5782019161012083838301031261010e576040519161187383611f29565b83516001600160401b03811161010e5761189290828401908601612102565b83526020840151602084015260408401516040840152606084015160608401526080840151608084015260a08401516001600160401b03811161010e576118de90828401908601612102565b60a084015260c08401516001600160401b03811161010e5761190590828401908601612909565b60c084015260e08401516001600160401b03811161010e57818301601f82870101121561010e57808501519161193a8361204a565b936119486040519586612005565b838552602085019180820160208660051b868b0101011161010e57602084890101925b60208660051b868b01010184106119a35750505050505060e082015261010080920151600481101561010e5761010a92820152611810565b83516001600160401b03811161010e5760a08a8701820185850103601f19011261010e57604051918260a08101106001600160401b0360a0850111176116a75760a08301604052602082888d01010151600381101561010e578352604082888d01010151600381101561010e576020840152606082888d010101516001600160401b03811161010e578b6020611a4292858b898b019401010101612061565b6040840152608082888d010101516001600160401b03811161010e578b6020611a7492858b898b019401010101612102565b606084015260a082888d01010151906001600160401b03821161010e57602093611aac8d8680969581968d8b8d019401010101612102565b6080820152815201940193905061196b565b611ada91503d8084833e611ad28183612005565b810190612144565b836117c5565b6002546001600160a01b031690600a198101908111611b4b57600090602460405180948193633fb75bfb60e21b835260048301525afa9081156104b2576117e9916000918291611b31575b506117c7565b611b4591503d8084833e611ad28183612005565b83611b2b565b634e487b7160e01b600052601160045260246000fd5b611b6d61010a91612f50565b610b80565b60405162461bcd60e51b8152602060048201526015602482015274546f6b656e204944206f7574206f662072616e676560581b6044820152606490fd5b3461010e57602036600319011261010e576020611bcd600435612750565b60405190611bda81611cab565b8152f35b3461010e57600036600319011261010e5761010a6100fe6121c7565b60005b838110611c0d5750506000910152565b8181015183820152602001611bfd565b90602091611c3681518092818552858086019101611bfa565b601f01601f1916010190565b90611ca89160208152611c6182516080602084015260a0830190611c1d565b9060806060611c98611c85602087015195601f199687878303016040880152611c1d565b6040870151868683030184870152611c1d565b9401519282850301910152611c1d565b90565b60041115611cb557565b634e487b7160e01b600052602160045260246000fd5b60031115611cb557565b60208152611d32611cf483516101206020850152610140840190611c1d565b602084015160408401526040840151606084015260608401516080840152608084015160a084015260a0840151601f198483030160c0850152611c1d565b9160c081015192601f198382030160e0840152835180825260208201916020808360051b8301019601926000915b838310611e7657505050505060e081015192601f1983820301610100840152835180825260208201916020808360051b8301019601926000915b838310611dbe57505050505061010061012091015191611db983611cab565b015290565b9091929396601f1982820301835287519060a081018251611dde81611ccb565b82526020830151611dee81611ccb565b602083015260408301519060a060408401528151809152602060c084019201906000905b808210611e5e57505050611e4f836020936080611e3e8695606060019901518482036060860152611c1d565b920151906080818403910152611c1d565b99019301930191939290611d9a565b90919260208060019286518152019401920190611e12565b9091929396601f19828203018352875190611e9a825160e0835260e0830190611c1d565b916020810151928281036020840152602080855192838152019401906000905b808210611f0e5750505060408181015160009184015b60048310611ef8575050506060015160c0909101529660209081019493600101920190611d60565b6020806001928451815201920192019190611ed0565b90919460208060019260ff8951168152019601920190611eba565b61012081019081106001600160401b038211176116a757604052565b61018081019081106001600160401b038211176116a757604052565b6102a081019081106001600160401b038211176116a757604052565b6101c081019081106001600160401b038211176116a757604052565b608081019081106001600160401b038211176116a757604052565b604081019081106001600160401b038211176116a757604052565b606081019081106001600160401b038211176116a757604052565b60a081019081106001600160401b038211176116a757604052565b90601f801991011681019081106001600160401b038211176116a757604052565b6040519061203382611f99565b606080838181528160208201528160408201520152565b6001600160401b0381116116a75760051b60200190565b9080601f8301121561010e5781519060209161207c8161204a565b9361208a6040519586612005565b81855260208086019260051b82010192831161010e57602001905b8282106120b3575050505090565b815181529083019083016120a5565b9060208282031261010e5781516001600160401b03811161010e57611ca89201612061565b6001600160401b0381116116a757601f01601f191660200190565b81601f8201121561010e578051612118816120e7565b926121266040519485612005565b8184526020828401011161010e57611ca89160208085019101611bfa565b9060208282031261010e5781516001600160401b03811161010e57611ca89201612102565b90815180825260208080930193019160005b828110612189575050505090565b83518552938101939281019260010161217b565b6000915b600283106121ae57505050565b6001908251820b815260208091019201920191906121a1565b6121cf612026565b506121d8612026565b604080516328d1938160e11b815260048101829052601660448201527e1e003c005a0078009600b400d200f0010e012c014a0000000000000000000060648201526002602482015260009190828160848173__$55e308ee0cc2c89b0b139d5735dcdc1f21$__5af4908115612744578391612722575b50815161225a81611f45565b61014c81526020907f3c67207374796c653d227472616e73666f726d3a726f74617465592824617a69828201527f73293b7472616e73666f726d2d626f783a66696c6c2d626f783b7472616e7366848201527f6f726d2d6f726967696e3a63656e746572223e3c706f6c79676f6e2066696c6c60608201527f3d22233942423232342220706f696e74733d222d372e352c2d353220382c2d3560808201527f3220332c2d33202d322e362c2d33222f3e3c2f673e3c706174682069643d226760a08201527f2d6c656166222066696c6c3d22233942423232342220643d224d31352c2d362e60c08201527f3363352e392d352e382c362e322d31352e322c362e322d31352e32732d392e3460e0820152610100907f2c302e312d31352e332c352e39632d352e392c352e382d362e322c31352e322d828201527f362e322c31352e3253392e362c2d302e352c31352e362c2d362e337a222f3e3c6101208201527f75736520687265663d2223672d6c65616622207472616e73666f726d3d2273636101408201526b30b63294169896189491179f60a11b6101608201526060870152835161240781611fcf565b602981527f3c636972636c652066696c6c3d2223394242323234222063793d222d353222208382015268391e911b971c11179f60b91b85820152865283519081016001600160401b0381118282101761270e5792859261265c928695865260d881527f3c636972636c65207374726f6b652d77696474683d22332e3522207374726f6b828201527f653d2223423935394544222066696c6c3d2223393330304532222063793d222d868201527f35322220723d2231322e35222f3e3c636972636c652066696c6c3d222346464660608201527f464646222063783d222d34222063793d222d35352220723d22322e32222f3e3c60808201527f636972636c652066696c6c3d2223464646464646222063783d2234222063793d60a08201527f222d35352220723d22322e32222f3e3c636972636c652066696c6c3d2223464660c08201527f46464646222063793d222d34382220723d22322e32222f3e000000000000000060e0820152818901526126b76126ac86519261258784611fb4565b8684526033198185015287519461259d86611fea565b607e86527f24313c706174682069643d22672d706574616c222066696c6c3d222345414343828701527f46392220643d224d312c2d3639632d312e382d362e322d372e392d392e392d37898701527f2e392d392e39732d332e342c362e342d312e382c31322e3563312e372c362e3260608701527f2c372e392c392e382c372e392c392e3853322e352c2d36322e367a222f3e0000608087015261269d8951998a988998630ca50dab60e11b8a5260c060048b015260c48a0190611c1d565b603c8982036619cb5c195d185b60ca1b600319978c60248a8501910152600785528401520160448a0152016040906002815261243160f01b60208201520190565b91868303016064870152612169565b91608484019061219d565b038173__$30acca89589d9a9b80eb3e09f3c9eae508$__5af49283156127035780936126e6575b505082015290565b6126fb9293503d8091833e611ad28183612005565b9038806126de565b8251903d90823e3d90fd5b634e487b7160e01b86526041600452602486fd5b61273e91503d8085833e6127368183612005565b8101906120c2565b3861224e565b505051903d90823e3d90fd5b9060405161026081018181106001600160401b038211176116a75760405260009283825283602083015260026040830152600260608301528360808301528360a08301528360c08301528360e08301528361010083015283610120830152836101408301528361016083015283610180830152836101a0830152836101c0830152836101e0830152836102008301528361022083015283610240830152601381108060001461282657156128125760ff92935060051b015116611ca881611cab565b634e487b7160e01b84526032600452602484fd5b5091929050602060018060a01b0360035416926024604051809581936304e74e5f60e01b835260048301525afa9182156128a757819261286557505090565b9091506020813d60201161289f575b8161288160209383612005565b8101031261289b5751906004821015612898575090565b80fd5b5080fd5b3d9150612874565b50604051903d90823e3d90fd5b604051906128c182611f29565b60006101008360608152826020820152826040820152826060820152826080820152606060a0820152606060c0820152606060e08201520152565b91908203918211611b4b57565b9080601f8301121561010e578151906020916129248161204a565b9360409061293482519687612005565b828652848601918560059460051b8301019480861161010e57868301935b86851061296457505050505050505090565b84516001600160401b039081811161010e57850160e09081601f19828703011261010e5785519261299484611f99565b8b82015181811161010e57868d6129ad92850101612102565b84528682015190811161010e57810185603f8201121561010e57808c80920151886129d78261204a565b936129e482519586612005565b8285528401918d1b8301019188831161010e578901905b828210612a69575050508b84015260609185607f8301121561010e57865190612a2382611f99565b819083019287841161010e5791848e969492979593015b828110612a595750859650888401525190820152815201940193612952565b80518852968601968e9601612a3a565b815160ff8116810361010e578152908e01908e016129fb565b5190811515820361010e57565b612a97612026565b50612aa0612026565b60408051612aad81611f99565b604b81527f3c7265637420783d222d352220793d222d313238222077696474683d2231302260208201527f206865696768743d223132222072783d2235222072793d2235222066696c6c3d828201526a11119cb1b118191b11179f60a91b606082015282528051612b1d81611f99565b605481527f3c706174682066696c6c3d22236637643630642220643d224d352d3132316c3160208201527f322032342d31372d32302d31372032302031332d32332d32342d31302032362082820152731a901996991a901990191b10191a169b3d11179f60611b606082015260208301528051612b9981611f99565b605481527f3c706174682066696c6c3d22236666662220643d224d32302d39356c312d313960208201527f2031302d31372d31382d382d31332d31362d31332031362d313820372039203182820152731c101910189c901918169a101918101a3d11179f60611b6060820152828201528051907f34332032342031342d352033382039203134682d35316c342d32337a222f3e3c90612c3783611f7d565b61019583527f3c706174682066696c6c3d22236363632220643d224d2d32322d32336c31392d60208401528201527f706174682069643d226d2d6c6561662220643d224d2d31332d33326c2d342d3860608201527f682d376c2d3520313773312035203120372d3220362d32203620342d3320352d60808201527f3420372d3120372d316c31352d392d322d372d392d327a222066696c6c3d222360a08201527f396362303236222f3e3c75736520687265663d22236d2d6c656166222074726160c08201527f6e73666f726d3d226d6174726978282e383520302030202e3835203135202d3560e08201527f302922202f3e3c75736520687265663d22236d2d6c65616622207472616e73666101008201527f6f726d3d22726f74617465282d3735202d3133202d363629207363616c6528316101208201527f2e31352922202f3e3c7061746820643d224d302d313231732d322033352033206101408201527f343563352031322032362032342d382034302d32322031302d313520343020326101608201527f32203232222066696c6c3d226e6f6e6522207374726f6b653d22233963623032610180820152741b111039ba3937b5b296bbb4b23a341e911a11179f60591b6101a0820152606082015290565b90612e16612026565b91600080604051612e2681611fb4565b600981526833b2ba233637bbb2b960b91b60208201528180604051612e7681612e68602082019663104c13eb60e21b8852602060248401526044830190611c1d565b03601f198101835282612005565b516a636f6e736f6c652e6c6f6793845afa50612e9184611cab565b604051602081019063f5b1bba960e01b825285602482015260248152612eb681611fcf565b51915afa50612ec481611cab565b80612ed457509050611ca8613e84565b612edd81611cab565b60028103612ef057509050611ca86121c7565b612ef981611cab565b60018103612f0c57509050611ca861347b565b80612f18600392611cab565b14612f1f57565b9050611ca8612a8f565b908151811015612f3a570160200190565b634e487b7160e01b600052603260045260246000fd5b612f586128b4565b50604090815191612f6883611f99565b60609182845260008084602096828882015282868201520152612f896128b4565b946077831015613462576001945b6003546012198501946001600160a01b03929183169190861161344e579084929187519384809363f6b3877360e01b82526004998a83015260249687915afa80156132c35787908793889089926133fe575b506130238973__$55e308ee0cc2c89b0b139d5735dcdc1f21$__968d51809381928d635a60e63160e01b998a85528401528c830190611c1d565b0381895af49081156133f457908c949392918b916133da575b5061304782846128fc565b61305c613053826120e7565b96519687612005565b80865261306b601f19916120e7565b01368b870137815b8381106133a4575050505089888c888c8981541694519485938492637f6e992f60e11b84526130a182611cab565b8301525afa90811561339a57889493926130d58b938e8e94869261337e575b5051978894859485528401528a830190611c1d565b0381875af4928315613358578893613362575b5087878a61310c8d5194859384936327f9164d60e01b85528401528a830190611c1d565b0381875af49081156133585790829189916132cd575b5080518d5287810151888e01528a8101518b8e01520151908b015260a08a01528554875163cf4e224b60e01b81529190869083908690829087166131658e611cab565b8d8c8301525afa9182156132c3579186916131a29383926132a7575b5089518080958194630ce3b96b60e01b83528d8d8401526044830190611c1d565b858983015203915af490811561329d57918493918993879161324d575b5060c08b0152865416958751968793849263c482a49d60e01b84526131e382611cab565b8301525afa93841561324257508193613211575b505050608083015261320881611cab565b61010082015290565b9091809350813d831161323b575b6132298183612005565b810103126128985750513880806131f7565b503d61321f565b51913d9150823e3d90fd5b9294505091503d8086833e6132628183612005565b8101908781830312613299578051906001600160401b038211613295578594928a949261328f9201612909565b386131bf565b8680fd5b8580fd5b87513d87823e3d90fd5b6132bc9192503d8085833e611ad28183612005565b9038613181565b88513d88823e3d90fd5b9150503d8089833e6132df8183612005565b810187828203126133545781516001600160401b039283821161334c570190608082820312613350578b519261331484611f99565b825190811161334c579161332e8594939285938301612102565b8352898101518a8401528c8101518d84015201518282015238613122565b8a80fd5b8980fd5b8880fd5b8a513d8a823e3d90fd5b6133779193503d808a833e611ad28183612005565b91386130e8565b6133939192503d8088833e611ad28183612005565b90386130c0565b8b513d8b823e3d90fd5b6001908c6133d36001600160f81b03196133be8487612f29565b51166133ca87856128fc565b921a9189612f29565b5301613073565b6133ee91503d808d833e611ad28183612005565b3861303c565b8c513d8c823e3d90fd5b94505050503d8087843e6134128184612005565b820181838203126132955782516001600160401b03811161344a57889161343a918501612102565b8987850151940151909338612fe9565b8780fd5b634e487b7160e01b85526011600452602485fd5b60db8310156134745760025b94612f97565b600361346e565b613483612026565b5061348c612026565b604080516328d1938160e11b81526004810182905260086044820152660240048006c00960c51b606482015260026024820152600091828260848173__$55e308ee0cc2c89b0b139d5735dcdc1f21$__5af4918215613e7a578392613e5e575b5080516134f881611f45565b61015b81526020927f3c706174682066696c6c3d22233963623032362220643d224d382c2d3134302e848301527f346131302e382c31302e382c302c302c302d342e382d2e362c31322e342c3132838301526060937f2e342c302c302c302c2e312d342e392c31312e372c31312e372c302c302c302d858401527f332e352c332e332c31312e382c31312e382c302c302c302d332e372d332c313160808401527f2e322c31312e322c302c302c302c2e342c342e382c31302e332c31302e332c3060a08401527f2c302c302d342e372c312c31312e352c31312e352c302c302c302c342c322e3760c08401527f2c31312c31312c302c302c302d322e322c342e332c31322e312c31322e312c3060e0840152610100927f2c302c302c342e362d312e352c31302e372c31302e372c302c302c302c322c34848201526101207f2e342c31312e332c31312e332c302c302c302c312e382d342e352c31302e312c81830152610140907f31302e312c302c302c302c342e362c312e312c31302e382c31302e382c302c3082840152610160927f2c302d322e342d342e314131322c31322c302c302c305a22202f3e0000000000848201528a5286516136ba81611f99565b605281527f3c636972636c652066696c6c3d2223663764363064222063793d222d31333822858201527f20723d2237222f3e3c636972636c652066696c6c3d222366636566396522206388820152713c9e911698999c1110391e911a171b91179f60711b89820152848b01528651956101e097888801956001600160401b039689811088821117613e4a5782526101a889528089017f3c673e3c706174682069643d22722d6c656166222066696c6c3d22236536333390528189017f32612220643d224d302d313231632e31332031202e35203220312e312033203190528a89017f2e39203220352e35203320382e31203120312e382d3120322e342d3320322e349052608089017f2d3520312e37203120332e34203020352e312d2e3720322e362d312e3920332e905260a089017f312d352e3620312e322d382e332d2e35362d2e362d312e332d312e322d322e31905260c089017f2d312e374c312e392d3133396c2d3320312e367a22202f3e24703c7061746820905260e089017f66696c6c3d22236561636366392220643d224d31302e36202d3134312e33613690528289017f203620302030302d352e322d3420352e3820352e3820302030302d352e352d3390528389017f2e3720352e3920352e3920302030302d352e3420332e3720352e3920352e392090528489017f302030302d352e32203420362e3120362e312030203030312e3820362e33203590528589017f2e3720352e372030203030322e3320362e3220352e3720352e37203020303036905261018096878a017f2e352e3320352e3920352e392030203030362e362d2e3320352e3720352e372090526101a098898b017f30203030322e322d362e3120352e3920352e392030203030312e392d362e347a90528d8d6101c09c8d671110179f1e17b39f60c11b90820152865161396881611fb4565b838152608919878201528751630ca50dab60e11b815260c0600482015294859384936139989060c4860190611c1d565b908482039060031982016024870152600683528a8301653916b632b0b360d11b9052603c820160448701528b830160029052820161024760f41b9052607c0160648501526080016139e891612169565b90608483016139f69161219d565b038173__$30acca89589d9a9b80eb3e09f3c9eae508$__5af4908115613e3e578f8f9182879394613e21575b5050015282519c6103608e019182118e831017613e0d575082526103278c527f3c706174682066696c6c3d22233963623032362220643d224d3336202d313030908c01527f2e3663342e372d2e3620382d342e3720382d342e37732d342e332d332e322d38908b01527f2e392d322e362d3820342e372d3820342e3720342e3220332e3220382e392032898b01527f2e367a4d32372e31202d3932633420322e3520392e3220312e3420392e32203160808b01527f2e34732d312e332d352e312d352e332d372e362d392e312d312e352d392e312d60a08b01527f312e3520312e3220352e3120352e3220372e377a4d3139202d383863322e392060c08b01527f332e3720382e3220342e3420382e3220342e34732e352d352e322d322e342d3860e08b01527f2e392d382e322d342e352d382e322d342e352d2e3520352e3320322e3420397a908a01527f4d31312e31202d38352e3663312e3720342e3320362e3520362e3620362e3520908901527f362e3673322d342e392e332d392e332d362e352d362e362d362e352d362e362d908801527f3220342e382d2e3320392e337a22202f3e3c706174682066696c6c3d22233963908701527f623032362220643d224d31382e38202d3130372e37632e322d342e3720342d38908601527f2e3320342d382e3373332e3520332e3920332e3320382e362d3420382e342d34908501527f20382e342d332e352d332e392d332e332d382e377a4d31302e37202d31303463908401527f2d312e342d342e3520312d392e3220312d392e3273342e3720322e3520362037908301527f2d3120392e332d3120392e332d342e362d322e362d362d372e317a4d332e33206102008301527f2d3938632d322e372d332e392d312e382d392e322d312e382d392e3273352e326102208301527f20312e3120372e39203520312e3720392e3220312e3720392e322d352e322d316102408301527f2e312d372e382d357a22202f3e3c706174682066696c6c3d226e6f6e652220736102608301527f74726f6b653d222339636230323622207374726f6b652d6c696e656361703d226102808301527f726f756e6422207374726f6b652d77696474683d22332220643d224d2d302e326102a08301527f202d313338632d2e322e332d332e3420372d332e372032322e327331342e32206102c08301527f35382d312e3120313135222f3e203c706174682066696c6c3d226e6f6e6522206102e08301527f7374726f6b653d222339636230323622207374726f6b652d77696474683d22326103008301527f2220643d224d302e37202d38342e367331332e362d31342e392032372e382d31610320830152661c171a9110179f60c91b61034083015282015290565b634e487b7160e01b81526041600452602490fd5b613e369294503d8091833e611ad28183612005565b918f80613a22565b8e8551903d90823e3d90fd5b634e487b7160e01b8d52604160045260248dfd5b613e739192503d8085833e6127368183612005565b90386134ec565b81513d85823e3d90fd5b613e8c612026565b50613e95612026565b60408051613ea281611fb4565b6000808252602091604a198382015260608501908451613ec181611f99565b604481527f3c672066696c6c3d2223396262323234223e3c7265637420783d222d34222079858201527f3d222d3734222077696474683d223822206865696768743d223734222f3e246c86820152631e17b39f60e11b60608201528252848601908551613f2d81611fea565b607c81527f3c672066696c6c3d22676f6c64223e3c7061746820643d224d32312d38354332868201527f382d39312032382d3130322032382d3130324332382d3130322031382d313032878201527f2031312d393543352d383920352d373820352d373843352d37382031352d373960608201527f2032312d38355a222069643d22732d6c656166222f3e24313c2f673e000000006080820152825285516328d1938160e11b815260406004820152601660448201527e1e003c005a0078009600b400d200f0010e012c014a00000000000000000000606482015260026024820152848160848173__$55e308ee0cc2c89b0b139d5735dcdc1f21$__5af490811561329d5785916142e6575b5086519261404684611fcf565b6002845286840190883683378451156142d25760021982528451600191908210156142be576126ac9060478b880152886140b78c73__$30acca89589d9a9b80eb3e09f3c9eae508$__98614107855192519687948594630ca50dab60e11b865260c0600487015260c4860190611c1d565b600319858203818101602488015260068352653996b632b0b360d11b6020840152603c0160448701526002604083015261243160f01b60608301529b90608001908c868303016064870152612169565b0381895af491821561339a5789926142a2575b50889593614150978c9496938c93528951968361417387519b8c9a630e267c1560e21b8c5260a060048d015260a48c0190611c1d565b8a8103880160248c015260068152653996b632b0b360d11b602082015260400190565b92868a85030160448b01525192838152019291895b81811061428257505050506064860187905285810392830160848701526002815261091b60f21b910152019082905af492831561427757809361425a575b50505281516141d481611fcf565b602881527f3c636972636c652066696c6c3d2223396262323234222063793d222d373522208282015267391e91191b11179f60c11b83820152835281519161421b83611fcf565b602883527f3c636972636c652066696c6c3d2223616137303335222063793d222d373522208284015267391e91189c11179f60c11b9083015282015290565b61426f9293503d8091833e611ad28183612005565b9038806141c6565b8551903d90823e3d90fd5b8351830b85528d9a508b99508f97508e9594850194909301928201614188565b6142b79192503d808b833e611ad28183612005565b903861411a565b634e487b7160e01b88526032600452602488fd5b634e487b7160e01b87526032600452602487fd5b6142fa91503d8087833e6127368183612005565b3861403956fea2646970667358221220e40e5b779fd04943ba91ca5b0aa354bf1fcab8e7ba084229c1620f62dd8ff39b64736f6c63430008190033","linkReferences":{"contracts/NDDecoder.sol":{"NDDecoder":[{"start":22312,"length":20},{"start":23217,"length":20},{"start":25839,"length":20},{"start":29364,"length":20},{"start":30605,"length":20},{"start":33498,"length":20}]},"contracts/NDUtils.sol":{"NDUtils":[{"start":27007,"length":20},{"start":31934,"length":20},{"start":33600,"length":20}]}}},"methodIdentifiers":{"assets()":"71a97305","genericMotifs()":"7a1ebd4d","genericMotifsSVG()":"dda510f0","getAssetInScene()":"485c475f","getBeachTraits(uint256)":"e8378d7c","getCityTraits(uint256)":"4d0d1e78","getFlower(uint8)":"8dfd5504","getFlowerType(uint256)":"04e74e5f","getGenericMotif(uint256)":"a3603766","getGentian()":"018a5f4d","getLandScapeTraits(uint256)":"b4d6438b","getMoonflower()":"76798508","getMotifByTokenId(uint256)":"25481179","getNFTInside(uint256)":"2ff40519","getRose()":"cba4cbbd","getSunflower()":"f773e0b0","sightSeeing1()":"cfe839ec","sightSeeing2()":"bcb91543"},"id":4}