{"abi":[{"type":"constructor","inputs":[{"name":"_genericMotifAddress","type":"address","internalType":"address"},{"name":"_genericMotifSVGAddress","type":"address","internalType":"address"},{"name":"_motifAdress1","type":"address","internalType":"address"},{"name":"_motifAdress2","type":"address","internalType":"address"}],"stateMutability":"nonpayable"},{"type":"function","name":"assets","inputs":[],"outputs":[{"name":"","type":"string","internalType":"string"}],"stateMutability":"view"},{"type":"function","name":"genericMotifs","inputs":[],"outputs":[{"name":"","type":"address","internalType":"contract GenericMotifs"}],"stateMutability":"view"},{"type":"function","name":"genericMotifsSVG","inputs":[],"outputs":[{"name":"","type":"address","internalType":"contract GenericMotifsSVG"}],"stateMutability":"view"},{"type":"function","name":"getAssetInScene","inputs":[],"outputs":[{"name":"","type":"tuple[]","internalType":"struct AssetInScene[]","components":[{"name":"name","type":"string","internalType":"string"},{"name":"minDuration","type":"uint256","internalType":"uint256"},{"name":"maxDuration","type":"uint256","internalType":"uint256"},{"name":"checkInterval","type":"uint256","internalType":"uint256"},{"name":"possibleOffset","type":"uint256","internalType":"uint256"},{"name":"probability","type":"uint256","internalType":"uint256"},{"name":"dayTime","type":"uint8","internalType":"enum DAYTIME"}]}],"stateMutability":"view"},{"type":"function","name":"getBeachTraits","inputs":[{"name":"tokenId","type":"uint256","internalType":"uint256"}],"outputs":[{"name":"","type":"tuple","internalType":"struct BeachTraits","components":[{"name":"attributes","type":"string","internalType":"string"},{"name":"beachColor","type":"string","internalType":"string"},{"name":"skinColor","type":"string","internalType":"string"},{"name":"shortsColor","type":"string","internalType":"string"},{"name":"shortsColorAttribute","type":"string","internalType":"string"},{"name":"beverageAttribute","type":"string","internalType":"string"},{"name":"towelColor","type":"string","internalType":"string"},{"name":"towelColorAttribute","type":"string","internalType":"string"},{"name":"shortsPattern","type":"string","internalType":"string"},{"name":"towelPattern","type":"string","internalType":"string"},{"name":"shortsSVG","type":"string","internalType":"string"},{"name":"towelSVG","type":"string","internalType":"string"},{"name":"jellyTypeId","type":"uint256","internalType":"uint256"},{"name":"jellyColor","type":"string","internalType":"string"},{"name":"beverage","type":"string","internalType":"string"}]}],"stateMutability":"view"},{"type":"function","name":"getCityTraits","inputs":[{"name":"tokenId","type":"uint256","internalType":"uint256"}],"outputs":[{"name":"","type":"tuple","internalType":"struct CityTraits","components":[{"name":"attributes","type":"string","internalType":"string"},{"name":"priceFeed","type":"address","internalType":"address"},{"name":"skylineSVG","type":"string","internalType":"string"},{"name":"displaySVG","type":"string","internalType":"string"},{"name":"beverageAttribute","type":"string","internalType":"string"},{"name":"tableSVG","type":"string","internalType":"string"},{"name":"displayType","type":"uint256","internalType":"uint256"},{"name":"skyLinetype","type":"uint256","internalType":"uint256"},{"name":"isCoastel","type":"bool","internalType":"bool"},{"name":"tableColor","type":"string","internalType":"string"},{"name":"catTypeId","type":"uint256","internalType":"uint256"},{"name":"catColor","type":"string","internalType":"string"},{"name":"beverage","type":"string","internalType":"string"}]}],"stateMutability":"view"},{"type":"function","name":"getFlower","inputs":[{"name":"flowerType","type":"uint8","internalType":"enum FlowerType"}],"outputs":[{"name":"","type":"tuple","internalType":"struct FlowerParts","components":[{"name":"back","type":"string","internalType":"string"},{"name":"front","type":"string","internalType":"string"},{"name":"blossom","type":"string","internalType":"string"},{"name":"stick","type":"string","internalType":"string"}]}],"stateMutability":"view"},{"type":"function","name":"getFlowerType","inputs":[{"name":"tokenId","type":"uint256","internalType":"uint256"}],"outputs":[{"name":"","type":"uint8","internalType":"enum FlowerType"}],"stateMutability":"view"},{"type":"function","name":"getGenericMotif","inputs":[{"name":"tokenId","type":"uint256","internalType":"uint256"}],"outputs":[{"name":"","type":"tuple","internalType":"struct Motif","components":[{"name":"name","type":"string","internalType":"string"},{"name":"lat","type":"int256","internalType":"int256"},{"name":"lng","type":"int256","internalType":"int256"},{"name":"heading","type":"int256","internalType":"int256"},{"name":"horizon","type":"int256","internalType":"int256"},{"name":"svg","type":"string","internalType":"string"},{"name":"scenes","type":"tuple[]","internalType":"struct SceneInMotif[]","components":[{"name":"placeHolder","type":"string","internalType":"string"},{"name":"sceneDetails","type":"tuple[]","internalType":"struct Scene[]","components":[{"name":"area","type":"int256[4]","internalType":"int256[4]"},{"name":"assets","type":"uint256[]","internalType":"uint256[]"},{"name":"scale","type":"uint256","internalType":"uint256"}]}]},{"name":"replacements","type":"tuple[]","internalType":"struct Replacement[]","components":[{"name":"tag","type":"uint8","internalType":"enum ObjectType"},{"name":"dataType","type":"uint8","internalType":"enum RenderDataType"},{"name":"data","type":"int256[]","internalType":"int256[]"},{"name":"placeholder","type":"string","internalType":"string"},{"name":"ref","type":"string","internalType":"string"}]},{"name":"motifType","type":"uint8","internalType":"enum MotifType"}]}],"stateMutability":"view"},{"type":"function","name":"getLandScapeTraits","inputs":[{"name":"tokenId","type":"uint256","internalType":"uint256"}],"outputs":[{"name":"","type":"tuple","internalType":"struct LandscapeTraits","components":[{"name":"attributes","type":"string","internalType":"string"},{"name":"climateZoneIndex","type":"uint256","internalType":"uint256"},{"name":"before","type":"string","internalType":"string"},{"name":"hasCity","type":"bool","internalType":"bool"},{"name":"skinColor","type":"string","internalType":"string"},{"name":"shirtColor","type":"string","internalType":"string"},{"name":"shirtColorAttribute","type":"string","internalType":"string"},{"name":"beverageAttribute","type":"string","internalType":"string"},{"name":"shirtPattern","type":"string","internalType":"string"},{"name":"hat","type":"string","internalType":"string"},{"name":"pantsColor","type":"string","internalType":"string"},{"name":"furnitureColor","type":"string","internalType":"string"},{"name":"furnitureSVG","type":"string","internalType":"string"},{"name":"hasRiver","type":"bool","internalType":"bool"},{"name":"hasMountains","type":"bool","internalType":"bool"},{"name":"hasOcean","type":"bool","internalType":"bool"},{"name":"artistSVG","type":"string","internalType":"string"},{"name":"catTypeId","type":"uint256","internalType":"uint256"},{"name":"catColor","type":"string","internalType":"string"},{"name":"beverage","type":"string","internalType":"string"}]}],"stateMutability":"view"},{"type":"function","name":"getMotifByTokenId","inputs":[{"name":"tokenId","type":"uint256","internalType":"uint256"}],"outputs":[{"name":"","type":"tuple","internalType":"struct Motif","components":[{"name":"name","type":"string","internalType":"string"},{"name":"lat","type":"int256","internalType":"int256"},{"name":"lng","type":"int256","internalType":"int256"},{"name":"heading","type":"int256","internalType":"int256"},{"name":"horizon","type":"int256","internalType":"int256"},{"name":"svg","type":"string","internalType":"string"},{"name":"scenes","type":"tuple[]","internalType":"struct SceneInMotif[]","components":[{"name":"placeHolder","type":"string","internalType":"string"},{"name":"sceneDetails","type":"tuple[]","internalType":"struct Scene[]","components":[{"name":"area","type":"int256[4]","internalType":"int256[4]"},{"name":"assets","type":"uint256[]","internalType":"uint256[]"},{"name":"scale","type":"uint256","internalType":"uint256"}]}]},{"name":"replacements","type":"tuple[]","internalType":"struct Replacement[]","components":[{"name":"tag","type":"uint8","internalType":"enum ObjectType"},{"name":"dataType","type":"uint8","internalType":"enum RenderDataType"},{"name":"data","type":"int256[]","internalType":"int256[]"},{"name":"placeholder","type":"string","internalType":"string"},{"name":"ref","type":"string","internalType":"string"}]},{"name":"motifType","type":"uint8","internalType":"enum MotifType"}]}],"stateMutability":"view"},{"type":"function","name":"getNFTInside","inputs":[{"name":"tokenId","type":"uint256","internalType":"uint256"}],"outputs":[{"name":"","type":"uint256","internalType":"uint256"}],"stateMutability":"view"},{"type":"function","name":"sightSeeing1","inputs":[],"outputs":[{"name":"","type":"address","internalType":"contract IMotifData"}],"stateMutability":"view"},{"type":"function","name":"sightSeeing2","inputs":[],"outputs":[{"name":"","type":"address","internalType":"contract IMotifData"}],"stateMutability":"view"}],"bytecode":{"object":"0x60803461653057601f61ab9738819003918201601f19168301926001600160401b039290918385118386101761651a5781608092849260409788528339810103126165305761004d81616535565b9160209061005c828401616535565b610073606061006c888701616535565b9501616535565b928651926151e08401908482109082111761651a5787526151c0908184527f3c646566733e3c672069643d224c656d6f6e223e3c706174682066696c6c3d22818501527f233365373563662220643d226d392d3134382031322d3737203920312d313220888501527f37377a222f3e3c706174682066696c6c3d22236363632220643d224d2d34312e60608501527f312d3136386838332e337631322e3434682d38332e337a6d302031353568383360808501527f2e33562d2e3536682d38332e337a222f3e3c706174682066696c6c3d2223663360a08501527f393230302220643d224d2d34372d3136312e346839342e32562d362e3735482d60c08501527f34377a222f3e3c636972636c652063783d2231222063793d222d38332220723d60e08501527f223338222066696c6c3d22676f6c64222f3e3c706174682066696c6c3d2223396101008501527f62623232342220643d224d32302e392d3132362e32632d362e3120362e312d316101208501527f372e3720342e342d31372e3720342e34732d312e372d31312e3620342e342d316101408501527f372e372031372e372d342e342031372e372d342e3420312e372031312e362d346101608501527f2e342031372e37222f3e3c2f673e3c672069643d2242656572222066696c6c3d6101808501527f2223463546354635223e3c7061746820643d226d2d34312d32363420323020316101a08501527f38382d31322037356838314c33372d37366c32302d3138387a222f3e3c7061746101c08501527f682066696c6c3d22234637413930302220643d224d2d32342d3231322d392d376101e08501527f376c2d392036336835336c2d392d36332031352d3133357a222f3e3c706174686102008501527f2066696c6c3d22234646454238302220643d224d34352d323532682d37346c356102208501527f2034316836357a222f3e3c636972636c652063783d222d3236222063793d222d6102408501527f3235352220723d223233222f3e3c636972636c652063783d222d36222063793d6102608501527f222d3237382220723d223233222f3e3c636972636c652063783d2231352220636102808501527f793d222d3236312220723d223233222f3e3c636972636c652063783d223432226102a08501527f2063793d222d3235372220723d223233222f3e3c2f673e3c672069643d2254656102c08501527f61223e3c706174682066696c6c3d22236666662220643d224d33302d39682d366102e08501527f366c31322d3337762d32356c2d31322d33376836364c31392d37317632357a226103008501527f206f7061636974793d222e38222f3e3c656c6c697073652063783d222d3437226103208501527f2063793d222d3136222066696c6c3d2223643664366436222072783d223131226103408501527f2072793d22313722207472616e73666f726d3d22726f74617465282d3836202d6103608501527f3437202d313629222f3e3c706174682066696c6c3d22236436643664362220646103808501527f3d226d2d33352d313820383620362d3120342d38362d367a222f3e3c706174686103a08501527f2066696c6c3d22236666662220643d224d34302030682d37396c2d33362d31306103c08501527f4837367a22206f7061636974793d222e38222f3e3c706174682066696c6c3d226103e08501527f236161373033352220643d224d2d31372d37327632376c2d392032396834376c6104008501527f2d392d3239762d32377a222f3e3c706174682066696c6c3d22236262386435646104208501527f2220643d226d31322d373220332d3132682d33366c342031327a222f3e3c70616104408501527f74682066696c6c3d22236262386435642220643d224d322d37366834763530486104608501527f327a222f3e3c2f673e3c672069643d22436f66666565223e3c706174682066696104808501527f6c6c3d22236664653061642220643d224d36362d3235762d33384832397631306104a08501527f6832377632385a222f3e3c726563742077696474683d223933222068656967686104c08501527f743d2237382220783d222d34392220793d222d3834222066696c6c3d222366646104e08501527f65306164222f3e3c726563742077696474683d22363622206865696768743d226105008501527f382e352220783d222d33362220793d222d3735222066696c6c3d2223616137306105208501527f3335222f3e3c656c6c697073652063793d222d3137222066696c6c3d222366646105408501527f65306164222072783d223930222072793d223137222f3e3c2f673e3c672069646105608501527f3d2256696e65223e3c706174682066696c6c3d22236363632220643d224d2d336105808501527f332d313339683636763130682d36367a222f3e3c656c6c697073652063793d226105a08501527f2d3130222066696c6c3d222366666622206f7061636974793d222e38222072786105c08501527f3d223338222072793d223130222f3e3c706174682066696c6c3d2223666666226105e08501527f20643d224d2d352d3131762d3131314835763131317a22206f7061636974793d6106008501527f222e38222f3e3c706174682066696c6c3d22236666662220643d224d33362d326106208501527f3030682d373261353220353220302031203020383820333720353220353220306106408501527f203020302d31362d333722206f7061636974793d222e38222f3e3c70617468206106608501527f66696c6c3d22236265313632322220643d224d34342d3136326134332e3820346106808501527f332e382030203120312d38372e3520307a222f3e3c2f673e3c672069643d22576106a08501527f61746572223e3c706f6c79676f6e2066696c6c3d22236666662220706f696e746106c08501527f733d223530202d38202d3131202d38202d3732202d38202d3430202d313634206106e08501527f2d3536202d323238202d3131202d323238203334202d323238203138202d31366107008501527f34203530202d3822206f7061636974793d222e38222f3e3c706f6c79676f6e206107208501527f66696c6c3d22233830643566662220706f696e74733d223133202d313832202d6107408501527f3335202d313832202d3331202d313634202d3631202d3137203339202d3137206107608501527f38202d313634203133202d31383222206f7061636974793d222e38222f3e3c706107808501527f6f6c79676f6e2066696c6c3d22236666662220706f696e74733d223737202d316107a08501527f30322039202d31303220313720302036392030203737202d31303222206f70616107c08501527f636974793d222e38222f3e3c706f6c79676f6e2066696c6c3d222338306435666107e08501527f662220706f696e74733d223139202d3639203234202d38203632202d382036386108008501527f202d3639203139202d3639222f3e3c2f673e3c672069643d226e61727768616c6108208501527f223e3c706f6c79676f6e2066696c6c3d22234646462220706f696e74733d22326108408501527f302e332c2d31322e322033392e322c2d32312e312032312e312c2d31302e37226108608501527f2f3e3c636972636c652063783d2231352e37222063793d222d382e392220723d6108808501527f22362e32222066696c6c3d2223454143434639222f3e3c706f6c79676f6e20666108a08501527f696c6c3d22234541434346392220706f696e74733d222d372e382c2d302e38206108c08501527f31342e382c2d302e382031392e312c2d332e372031322e332c2d31342e31222f6108e08501527f3e3c706174682066696c6c3d22236561636366392220643d226d2d31332d312d6109008501527f362d3568326c342d362d313320332d352d332032203920342d3120342033222f6109208501527f3e3c636972636c652063783d2231352e37222063793d222d382e392220723d226109408501527f312e31222066696c6c3d2223393430304533222f3e3c726563742077696474686109608501527f3d2234372e3922206865696768743d22312e342220783d222d32362e322220796109808501527f3d222d312e34222066696c6c3d2223464646222f3e3c2f673e3c672069643d226109a08501527f6f726361223e3c706174682066696c6c3d22233934303045332220643d226d376109c08501527f2d31382031332d32203220334c392d31682d33307a222f3e3c706174682066696109e08501527f6c6c3d22233934303045332220643d226d2d33362d3135203232203134682d31610a008501527f337a222f3e3c706174682066696c6c3d22234644453041442220643d226d3139610a208501527f2d313320342d312d3320382d3820362d342d317a4d382d313220342d396c3120610a408501527f3220342d327a222f3e3c636972636c652063783d2239222063793d222d313022610a608501527f20723d2232222066696c6c3d2223464445304144222f3e3c706174682066696c610a808501527f6c3d22234642443138352220643d224d2d33362d326836327632682d36327a22610aa08501527f2f3e3c2f673e3c672069643d227961636874223e3c7061746820643d224d362d610ac08501527f356832374c362d34337a222f3e3c706174682066696c6c3d2223414137303335610ae08501527f2220643d224d342d316832306c342d3248307a222f3e3c706174682066696c6c610b008501527f3d22234642443138352220643d226d3135203020312d3220323320327a222f3e610b208501527f3c2f673e3c672069643d22626972642d66223e3c706174682066696c6c3d2223610b408501527f4632384430302220643d226d333620332e3220322e362d332e364c343820346c610b608501527f2d322e3420332e367a222f3e3c7061746820643d224d36332e382d31302e3420610b808501527f33302e362d332e322e322d31302e346c32372032302e387a222f3e3c70617468610ba08501527f2066696c6c3d22234632384430302220643d226d32302e33303320352e333238610bc08501527f2d372e35352d312e39362e3730352d322e373120372e353520312e39367a222f610be08501527f3e3c2f673e3c672069643d22645f6d6f757365223e3c706174682066696c6c3d610c008501527f22236639623233332220643d226d322d352032203220312d312d322d32762d31610c208501527f6c3420312d332d342d312031682d357637682d326c2d332d342d332034203120610c408501527f3120322d33203320336838762d314832762d324831762d317a222f3e3c636972610c608501527f636c652063783d22342e37222063793d222d382220723d222e33222066696c6c610c808501527f3d2223666666222f3e3c2f673e3c672069643d22736e616b65223e3c70617468610ca08501527f2066696c6c3d22233962623232342220643d224d2d31312d377631683776336c610cc08501527f32203120362d34203820342d382d322d3620342d362d3120312d33682d36762d610ce08501527f337a6d2d322030762d356c3220357a222f3e3c706174682066696c6c3d222339610d008501527f62623232342220643d224d382030762d346c3420327a222f3e3c636972636c65610d208501527f2063783d2239222063793d222d322220723d222e36222066696c6c3d22236666610d408501527f66222f3e3c2f673e3c672069643d22617065223e3c706174682066696c6c3d22610d608501527f236161373033352220643d224d2d352d31352e3337376833763135682d337a22610d808501527f2f3e3c706174682066696c6c3d22236635633035632220643d224d2d372d332e610da08501527f33373768332e3476332e33482d377a222f3e3c706174682066696c6c3d222361610dc08501527f61373033352220643d224d332d31352e333737683376313548337a222f3e3c70610de08501527f6174682066696c6c3d22236635633035632220643d224d312d332e3337376833610e008501527f2e3476332e333848317a222f3e3c706174682066696c6c3d2223616137303335610e208501527f2220643d226d2d392e3833332d32302e35383320392e34342d352e3634392035610e408501527f2e31333520382e3538312d392e343420352e3634397a222f3e3c706174682066610e608501527f696c6c3d22236161373033352220643d226d332e34372d31312e3731372d392e610e808501527f34362d352e363120352e312d382e3620392e343620352e36317a4d2d31352d32610ea08501527f372e38373768392e3676382e3736482d31357a222f3e3c706174682066696c6c610ec08501527f3d22236661633135632220643d224d2d31322e352d32352e33373768342e3876610ee08501527f342e3334682d342e387a222f3e3c706174682066696c6c3d2223616137303335610f008501527f2220643d224d382d33342e333737683376313548387a222f3e3c706174682066610f208501527f696c6c3d22236161373033352220643d226d31362e3331352d33362e352e3035610f408501527f3220332d382e3130392e3134312d2e3035322d337a222f3e3c70617468206669610f608501527f6c6c3d22236161373033352220643d224d31342d33362e333737683376382e31610f808501527f31682d337a222f3e3c2f673e3c672069643d226c6c616d61223e3c7061746820610fa08501527f66696c6c3d22234333394237322220643d226d32312d3337203920332d372d31610fc08501527f327a4d312d323620302d326c2d31302d31367a6d313820304c31382d3220372d610fe08501527f31387a222f3e3c706174682066696c6c3d22234141373033352220643d226d2d6110008501527f3820302d362d33342033302d3820313020342d322033382d31302d31372d31356110208501527f20377a222f3e3c706174682066696c6c3d22234333394237322220643d226d2d6110408501527f31362d353020382d3320392031362d31302031342d382d357a222f3e3c7061746110608501527f682066696c6c3d22234141373033352220643d226d2d31302d35352d392035206110808501527f3920337a222f3e3c2f673e3c672069643d22636f77223e3c706174682066696c6110a08501527f6c3d22236664653963632220643d224d2d32362d32316831337639682d31337a6110c08501527f222f3e3c706174682066696c6c3d22236536333332612220643d224d2d33332d6110e08501527f3139683530762d3238682d35377a222f3e3c706174682066696c6c3d222365366111008501527f333332612220643d226d32352d34352d382032362d392d32372031342d3134206111208501527f313920372d3420357a222f3e3c706174682066696c6c3d2223653633333261226111408501527f20643d226d32382d353820312d372d3620377a4d31372d3139203133203020396111608501527f2d323068387a6d2d35302d31203420323020342d31397a6d2d372d32377632396111808501527f6c332d32397a222f3e3c2f673e3c672069643d22666f78222066696c6c3d22236111a08501527f653633333261223e3c7061746820643d224d2d32342d313848397631302e35686111c08501527f2d33337a6d302031302e35682d31302e354c2d32342d31387a4d32342030682d6111e08501527f364c392d31382032342d367a4d392030762d372e3548337a6d2d32342030762d6112008501527f372e35682d367a222f3e3c7061746820643d224d2d32382e352d31332e352d326112208501527f342d31386c2d342e352d342e357a222f3e3c2f673e3c672069643d2267756c6c6112408501527f223e3c706174682066696c6c3d22234632384430302220643d224d322d3134686112608501527f36563048327a222f3e3c706174682066696c6c3d22234646462220643d224d316112808501527f342e352d34332e3548374c322e372d32352e312d323220332e356c33372e342d6112a08501527f31372e317a222f3e3c706174682066696c6c3d22234632384430302220643d226112c08501527f4d31322d34302e3568392e3576332e354831327a222f3e3c2f673e3c672069646112e08501527f3d2262616c6c223e3c636972636c652063783d222d3633222063793d223633226113008501527f20723d223633222066696c6c3d2223363562643538222f3e3c656c6c697073656113208501527f2063783d222d3633222063793d223633222072783d223431222072793d2236336113408501527f222f3e3c656c6c697073652063783d222d3633222063793d223633222066696c6113608501527f6c3d2223363562643538222072783d223131222072793d223633222f3e3c70616113808501527f7468207374726f6b653d222361613664323922207374726f6b652d77696474686113a08501527f3d22332220643d226d2d31303320313030203339203132346d34322d3132332d6113c08501527f3432203132336d32312d3132332d3231203132336d2d31392d313234203139206113e08501527f313235222f3e3c706174682066696c6c3d22236161366432392220643d224d2d6114008501527f313136203939683130357633682d3130357a6d302d3737683130367633682d316114208501527f30362e356c2d2e352d335a222f3e3c706174682066696c6c3d222361613664326114408501527f392220643d224d2d363520313031683376313039682d337a222f3e3c706174686114608501527f2066696c6c3d22233962623232342220643d224d2d37362032303568323576326114808501527f31682d32357a222f3e3c2f673e3c672069643d22636174223e3c7061746820646114a08501527f3d224d2d332e382d31362e3168392e317631322e35682d392e3035327a222f3e6114c08501527f3c636972636c652063783d222e383438222063793d222d31362e312220723d226114e08501527f342e35222f3e3c636972636c652063783d22342e323438222063793d222d32326115008501527f2e362220723d22342e35222f3e3c7061746820643d224d342e322d32332e32486115208501527f30762d342e337a6d30203068342e33762d342e337a222f3e3c672069643d22636115408501527f61742d6d61736b223e3c656c6c697073652063783d22322e323438222063793d6115608501527f222d32332e33222066696c6c3d22676f6c64222072783d22312e38222072793d6115808501527f22312e32222f3e3c656c6c697073652063783d22322e323438222063793d222d6115a08501527f32332e33222072783d222e31222072793d22312e36222f3e3c656c6c697073656115c08501527f2063783d22362e323438222063793d222d32332e33222066696c6c3d22676f6c6115e08501527f64222072783d22312e38222072793d22312e32222f3e3c656c6c6970736520636116008501527f783d22362e323438222063793d222d32332e33222072783d222e31222072793d6116208501527f22312e36222f3e3c2f673e3c7061746820643d224d2d382e362d352e3348362e6116408501527f3776312e38482d382e3635327a6d3020332e3548362e375630482d382e367a226116608501527f2f3e3c7061746820643d224d2d382e372030762d352e3368312e3856307a222f6116808501527f3e3c706174682066696c6c3d22234234344345422220643d226d352d32322e326116a08501527f2d2e382e382d2e382d2e387a222f3e3c2f673e3c672069643d226275736831226116c08501527f3e3c706174682069643d226c31222066696c6c3d22233942423232342220643d6116e08501527f224d2d3339203063352035203132203720313920354c3020306c2d32312d35636117008501527f2d362d322d313320302d31382035222f3e3c75736520687265663d22236c31226117208501527f207472616e73666f726d3d22726f7461746528343529222f3e3c7573652068726117408501527f65663d22236c3122207472616e73666f726d3d22726f7461746528393029222f6117608501527f3e3c75736520687265663d22236c3122207472616e73666f726d3d22726f74616117808501527f74652831333529222f3e3c75736520687265663d22236c3122207472616e73666117a08501527f6f726d3d22726f746174652831383029222f3e3c2f673e3c672069643d2262756117c08501527f736832223e3c706174682069643d226c32222066696c6c3d22233942423232346117e08501527f2220643d224d31372d3420302d38342d31372d347a222f3e3c757365206872656118008501527f663d22236c3222207472616e73666f726d3d22726f7461746528333629222f3e6118208501527f3c75736520687265663d22236c3222207472616e73666f726d3d22726f7461746118408501527f6528373229222f3e3c75736520687265663d22236c3222207472616e73666f726118608501527f6d3d22726f74617465282d333629222f3e3c75736520687265663d22236c32226118808501527f207472616e73666f726d3d22726f74617465282d373229222f3e3c2f673e3c676118a08501527f2069643d22656c6570223e3c706174682066696c6c3d222363393830663122206118c08501527f643d224d2d32322d3639682d33326c392034312032342d3233762d31387a6d386118e08501527f37203230682d33762d333668337a4d35312d3831762d3368313176337a222f3e6119008501527f3c706174682066696c6c3d22236666662220643d226d2d36322d34372d33302d6119208501527f332033302d337a222f3e3c706174682066696c6c3d22233934303065332220646119408501527f3d224d35392d3238682d39396c372d36382034332d3620353020367636387a6d6119608501527f2d393920306831325630682d31327a6d313820306831325630682d31327a6d366119808501527f39203068313256304834377a6d2d3136203068313256304833317a222f3e3c706119a08501527f6174682066696c6c3d22233934303065332220643d224d2d382d3432682d35346119c08501527f762d33386c35342d31367a6d2d36322d31356837763430682d377a6d2d3820316119e08501527f376834763233682d347a222f3e3c706174682066696c6c3d2223633938306631611a008501527f2220643d224d2d37382d343068347634682d347a222f3e3c706174682066696c611a208501527f6c3d22233934303065332220643d224d2d36342d32337637682d3134762d377a611a408501527f6d32302d3334763130682d3236762d31307a222f3e3c706174682066696c6c3d611a608501527f22236666662220643d226d2d36322d34322d33302d332033302d337a222f3e3c611a808501527f706174682066696c6c3d22236339383066312220643d224d2d33342d36396833611aa08501527f326c2d392034312d32342d3233762d31387a222f3e3c2f673e3c672069643d22611ac08501527f64656572222066696c6c3d2223653633333261223e3c7061746820643d226d2d611ae08501527f31382d31372e382033362e352d362e35762d31312e33482d31387a222f3e3c70611b008501527f61746820643d224d2d362e322d33312e32482d3138762d31392e3268382e337a611b208501527f222f3e3c7061746820643d224d2d31382d34302e35762d31322e366831352e33611b408501527f7a222f3e3c7061746820643d226d2d31362e332d34382e382d372e322d31302e611b608501527f3420342e332d31302e322d312e3920392e372031302e382d312e312d392e3420611b808501527f332e3120352e3220362e337a6d322e362d312e3320342e342d392e314c2d352d611ba08501527f36392e346c2d3220392e372031302e392d312e312d31312e3120332e362d332e611bc08501527f3720362e337a4d2d31382031762d32372e3368392e377a222f3e3c7061746820611be08501527f643d224d2d392e372031762d32372e3368392e367a6d32382e322030762d3237611c008501527f2e3348382e397a222f3e3c7061746820643d224d31302e332031762d32372e33611c208501527f482e367a222f3e3c2f673e3c672069643d226372616e652d66222066696c6c3d611c408501527f2223393430306533223e3c7061746820643d226d31312e372d342e3120332e38611c608501527f2d322e362d372e362e327a6d392e392e31762d2e3668382e37356c2d2e303034611c808501527f2e367a222f3e3c7061746820643d224d31372e362d2e3520392e392d332e3376611ca08501527f2d312e326c31352d312e317a4d32302d376c372e332d322e354831362e327a22611cc08501527f2f3e3c7061746820643d226d332e3531362d332e30382e3032352d312e332038611ce08501527f2e3635392e3136362d2e30323520312e337a222f3e3c7061746820643d226d34611d008501527f2e362d332e332d352e372e3820362e372d332e317a6d372e372d312e3420332e611d208501527f3920312e394c32302d376c2d332e382d322e357a222f3e3c2f673e3c67206964611d408501527f3d226372616e65223e3c706174682066696c6c3d22233934303065332220643d611d608501527f224d342d31366831563048347a6d2d3220306831563048327a222f3e3c706174611d808501527f682066696c6c3d22236666662220643d226d31312d31382d382d35482d397633611da08501527f6c31362038222f3e3c706174682066696c6c3d22233934303065332220643d22611dc08501527f6d372d313220342037762d31337a4d2d392d33366832763136682d327a222f3e611de08501527f3c706174682066696c6c3d22236666662220643d226d2d362d33352d31302033611e008501527f2031312d387a222f3e3c2f673e3c672069643d226769726166222066696c6c3d611e208501527f2223663237393030223e3c7061746820643d224d33372d3637762d39384c2d36611e408501527f2d36327a6d2d37312032336836376c342d32337a222f3e3c7061746820643d22611e608501527f4d2d33342d343420372d38366c33302031397a222f3e3c7061746820643d224d611e808501527f33372d363756304c32342d36377a6d2d3237203056306c31342d36377a4d2d37611ea08501527f2d343456306c2d31342d34347a6d2d3237203056306c31332d34347a6d38392d611ec08501527f313133762d346c2d31382d337631337a222f3e3c7061746820643d224d34302d611ee08501527f31363868327637682d327a6d2d34203068327637682d327a222f3e3c70617468611f008501527f20643d226d33302d31353720392d35682d397a222f3e3c706174682066696c6c611f208501527f3d22236161373033352220643d224d33332d31353420362d393720332d38327a611f408501527f222f3e3c2f673e3c672069643d226165726f706c616e65222066696c6c3d2223611f608501527f464246384635223e3c7061746820643d224d3230203248306c322d326831356c611f808501527f332d327a222f3e3c7061746820643d224d31352037682d324c352d3468327a22611fa08501527f2f3e3c7061746820643d224d323020316831373176314832307a22206f706163611fc08501527f6974793d222e33222f3e3c2f673e3c672069643d226c65616673223e3c706174611fe08501527f682069643d22706c222066696c6c3d22233942423232342220643d224d2d37316120008501527f2d31323963302d313820392d33342032342d34336c34372d32382d32382034376120208501527f632d392031352d32362032342d3433203234222f3e3c75736520687265663d226120408501527f23706c22207472616e73666f726d3d22726f746174652834352030202d3230306120608501527f29222f3e3c75736520687265663d2223706c22207472616e73666f726d3d22726120808501527f6f746174652839302030202d32303029222f3e3c75736520687265663d2223706120a08501527f6c22207472616e73666f726d3d22726f74617465283138302030202d323030296120c08501527f222f3e3c75736520687265663d2223706c22207472616e73666f726d3d22726f6120e08501527f74617465283232352030202d32303029222f3e3c75736520687265663d2223706121008501527f6c22207472616e73666f726d3d22726f74617465283237302030202d323030296121208501527f222f3e3c2f673e3c672069643d2270616c6d31223e3c75736520687265663d226121408501527f23666174222f3e3c75736520687265663d22236c65616673222f3e3c2f673e3c6121608501527f672069643d2270616c6d32223e3c75736520687265663d2223736d616c6c222f6121808501527f3e3c75736520687265663d22236c65616673222f3e3c2f673e3c672069643d226121a08501527f637275697365223e3c706174682066696c6c3d22234642443138352220643d226121c08501527f4d3136392e312d35372e364839392e396c322e352d332e346836392e357a6d2d6121e08501527f34342e3320332e372d382e362d312e312d2e3820362e3120382e3620312e317a6122008501527f6d31372e3820304c3133342d35356c2d2e3820362e3120382e3620312e317a6d6122208501527f2d33342e3820304c39392e322d35356c2d2e3820362e3120382e3620312e317a6122408501527f222f3e3c706174682066696c6c3d22234245313632322220643d226d3132352e6122608501527f312d35352e372d382e362d312e312d2e3220312e3820382e3620312e317a222f6122808501527f3e3c706174682066696c6c3d22234139333345392220643d226d3132342d34376122a08501527f2e382d382e362d312e312d312e362031322e3920382e3620312e317a222f3e3c6122c08501527f706174682066696c6c3d22234245313632322220643d226d3132342e352d35316122e08501527f2e382d382e362d312e312d2e3220312e3820382e3620312e317a6d31382e332d6123008501527f332e392d382e362d312e312d2e3220312e3820382e3620312e317a222f3e3c706123208501527f6174682066696c6c3d22234139333345392220643d226d3134312e382d34372e6123408501527f382d382e362d312e312d312e362031322e3920382e3620312e317a222f3e3c706123608501527f6174682066696c6c3d22234245313632322220643d226d3134322e332d35312e6123808501527f372d382e362d312e312d2e3220312e3820382e3620312e317a6d2d33342e392d6123a08501527f342d382e362d312e312d2e3220312e3820382e3620312e317a222f3e3c7061746123c08501527f682066696c6c3d22234139333345392220643d226d3130382e342d34372e382d6123e08501527f382e362d312e314c39382e322d33366c382e3620312e317a222f3e3c706174686124008501527f2066696c6c3d22234245313632322220643d226d3130372e392d35312e372d386124208501527f2e362d312e312d2e3220312e3820382e3620312e317a222f3e3c7061746820666124408501527f696c6c3d22234642443138352220643d224d3134392e322d33384831372e38766124608501527f31392e36683133312e377a222f3e3c706174682066696c6c3d222341393333456124808501527f392220643d224d3137312e392d32352e3248307634683137312e397a4d302d326124a08501527f312e32683137312e394c3136332e312e3448382e387a222f3e3c7061746820666124c08501527f696c6c3d22234642443138352220643d226d35322e322e362d35312d372e384c6124e08501527f362e312e357a6d37312e37203020342e312d312036332e312e397a222f3e3c706125008501527f6174682066696c6c3d22233033303330342220643d224d3134362e312d33352e6125208501527f31682d31323576312e38683132357a6d3020342e33682d31323576312e3868316125408501527f32357a222f3e3c706174682066696c6c3d22234642443138352220643d224d346125608501527f362e392d34342e324832382e3476372e376831382e357a222f3e3c2f673e3c676125808501527f2069643d2274616e6b657222207374796c653d227472616e73666f726d2d6f726125a08501527f6967696e3a30203131342e397078223e3c706174682066696c6c3d22234634456125c08501527f3546432220643d224d31332e362d33382e30313468322e3876382e353635682d6125e08501527f322e387a6d36312e36203048373876382e353635682d322e387a222f3e3c67206126008501527f66696c6c3d2223463445354643223e3c7061746820643d224d37352e322d33386126208501527f2e30313448373876382e353635682d322e387a222f3e3c7061746820643d224d6126408501527f37382d33382e30313476382e363633682d322e38762d382e363633222f3e3c2f6126608501527f673e3c706174682066696c6c3d22234634453546432220643d224d3132312e386126808501527f2d33382e30313468322e3876382e353635682d322e387a222f3e3c672066696c6126a08501527f6c3d2223463445354643223e3c7061746820643d224d3132312e382d33382e306126c08501527f313468322e3876382e353635682d322e387a222f3e3c7061746820643d224d316126e08501527f32342e362d33382e30313476382e363633682d322e38762d382e363633222f3e6127008501527f3c2f673e3c706174682066696c6c3d22234634453546432220643d224d3136326127208501527f2e332d33382e3530366833392e327631362e383334682d33392e327a6d2d342e6127408501527f322d362e3130346831332e3576362e313034682d31332e357a222f3e3c7061746127608501527f682066696c6c3d22233934303045332220643d224d392e352d32382e323638686127808501527f3136352e3776332e39333848392e357a222f3e3c706174682066696c6c3d22236127a08501527f4434393946342220643d224d392e352d32382e323638683136352e3776332e396127c08501527f333848392e357a222f3e3c706174682066696c6c3d22233934303045332220646127e08501527f3d224d3231342e342d32342e33334831342e326c382e362032302e37373268316128008501527f38332e317a222f3e3c706174682066696c6c3d22234441443845302220643d226128208501527f4d392e352d33302e353332683136352e3776322e32363448392e357a222f3e3c6128408501527f706174682066696c6c3d22234646462220643d224d36362e332d312e373836206128608501527f31362e342d392e3236386c342e3820372e3238357a6d3132332e33203020342e6128808501527f312d352e3331362036312e3820352e3231387a6d302d353768382e3676312e376128a08501527f3732682d382e367a6d3020372e36373968382e367631322e36682d382e367a226128c08501527f2f3e3c706174682066696c6c3d22234245313632322220643d224d3138392e366128e08501527f2d35372e30313468382e3676352e393037682d382e367a222f3e3c70617468206129008501527f66696c6c3d22234646462220643d224d3138392e362d35342e39343768382e366129208501527f76312e373732682d382e367a222f3e3c2f673e3c672069643d226669736865726129408501527f223e3c706174682066696c6c3d22233934303045332220643d224d31382e362d6129608501527f31382e33682d332e3376312e3568332e337a222f3e3c706174682066696c6c3d6129808501527f22234339383046312220643d224d32302e312d31392e32682d362e34762e38686129a08501527f362e347a222f3e3c706174682066696c6c3d22233934303045332220643d224d6129c08501527f32302e312d31352e33682d362e3376322e3868362e337a222f3e3c70617468206129e08501527f66696c6c3d22234339383046312220643d224d32332d31362e394831302e3776612a008501527f312e364832337a222f3e3c706174682066696c6c3d2223464244313835222064612a208501527f3d226d36352e392e3420312e332d2e312d32352e362d32382e39562d2e356831612a408501527f562d32367a222f3e3c706174682066696c6c3d22233934303045332220643d22612a608501527f4d33342e322d312e356831352e35762d31314833342e327a6d31342e322d312e612a808501527f334833352e35762d382e356831322e397a222f3e3c706174682066696c6c3d22612aa08501527f234339383046312220643d226d31392e352d342e332031312e382d32322e314c612ac08501527f34332d342e336c312e322d2e362d31322e392d32342e324c31382e342d342e39612ae08501527f7a222f3e3c706174682066696c6c3d22234339383046312220643d224d32352e612b008501527f392d31332e3548382e3676372e386831372e337a4d33362e362d31384832352e612b208501527f3576312e336831312e317a222f3e3c706174682066696c6c3d22234339383046612b408501527f312220643d226d33312e372d31362e392031312e332d31312d2e392d2e392d31612b608501527f312e332031317a222f3e3c706174682066696c6c3d2223393430304533222064612b808501527f3d224d31352e382d382e3176332e356833392e39562e3748362e384c302d382e612ba08501527f317a222f3e3c706174682066696c6c3d22233934303045332220643d224d3535612bc08501527f2e372d362e344831352e3976312e386833392e387a222f3e3c70617468206669612be08501527f6c6c3d22234642443138352220643d224d32332e322e3820322e352d322e336c612c008501527f3220337a6d3234203020312e372d322e324c37342e352e377a6d31352e332d32612c208501527f332e31682d312e3976312e387a4d35382e342d3139682d312e3976312e387a6d612c408501527f2e342d352e34682d312e3976312e387a6d352e312d332e3148363276312e387a612c608501527f6d332e3320362e38682d312e3976312e387a6d312e392d352e33682d312e3976612c808501527f312e387a6d2d312e332d34682d312e3976312e387a6d2d352e322031322e3468612ca08501527f2d312e3976312e387a222f3e3c2f673e3c672069643d22627573223e3c706174612cc08501527f682066696c6c3d22233934303065332220643d224d2d35312d39304839347638612ce08501527f32482d35317a222f3e3c706174682066696c6c3d22236233346165622220643d612d008501527f224d2d39322d3930683432763832682d34327a222f3e3c706174682066696c6c612d208501527f3d22236539346531622220643d224d2d35312d3732483830763130482d35317a612d408501527f222f3e3c706174682066696c6c3d22236639623233332220643d224d2d39322d612d608501527f3732683432763130682d34327a222f3e3c636972636c652063783d222d333022612d808501527f2063793d222d382220723d2238222066696c6c3d2223653934653162222f3e3c612da08501527f636972636c652063783d223438222063793d222d382220723d2238222066696c612dc08501527f6c3d2223653934653162222f3e3c636972636c652063783d223732222063793d612de08501527f222d382220723d2238222066696c6c3d2223653934653162222f3e3c2f673e3c612e008501527f672069643d227368656570222066696c6c3d2223666266386635223e3c706174612e208501527f6820643d226d31372e392d392e332d3720322e322d31382e322d2e372d382e32612e408501527f2d342e3320372e372d31342e362032332e3620322e327a222f3e3c7061746820612e608501527f643d224d2d392e372d392e33683376382e3637682d337a6d31392e3120306833612e808501527f76382e3637682d337a222f3e3c7061746820643d226d2d372e382d32362e372d612ea08501527f31352e3120313876382e3168332e386c31312e332d397a222f3e3c2f673e3c67612ec08501527f2069643d2262697264223e3c7061746820643d224d2d3130203820362d313256612ee08501527f3048307a222f3e3c706174682066696c6c3d22676f6c642220643d226d362d31612f008501527f322036203448367a222f3e3c2f673e3c672069643d22706572736f6e223e3c70612f208501527f617468207374726f6b652d77696474683d22302220643d224d2d372d34304838612f408501527f5630482d377a222f3e3c6c696e652078313d2233222078323d2233222079313d612f608501527f222d3530222079323d222d343022207374726f6b652d77696474683d22313022612f808501527f2f3e3c2f673e3c672069643d2263616d656c222066696c6c3d22236632373930612fa08501527f30223e3c7061746820643d226d2d332e352d33332e312d32322e312d34342e32612fc08501527f7634342e327a6d2d32322e3120302033332e3120372e372033332e322d372e37612fe08501527f7a222f3e3c7061746820643d224d2d32352e362d33332e3120372e352d37372e6130008501527f336c33332e322034342e327a222f3e3c706174682066696c6c3d2223396262326130208501527f32342220643d224d2d392e312d35352e3220372e352d37372e336c31362e36206130408501527f32322e317a222f3e3c7061746820643d224d2d31342e362d33332e312d32352e6130608501527f362030762d33332e317a6d3020304c2d332e352030762d33332e317a6d34342e6130808501527f3220304c31382e362030762d33332e317a6d3020304c34302e372030762d33336130a08501527f2e317a6d2d35352e322d33332e32762d31314c2d34302d37342e3276332e317a6130c08501527f222f3e3c706174682066696c6c3d22236265313632322220643d224d2d33362e6130e08501527f372d37352e3768322e387634322e3534682d322e387a222f3e3c2f673e3c67206131008501527f69643d22636f796f7465223e3c706174682066696c6c3d2223616136643239226131208501527f20643d224d31302e33352d32332e36682d382e324c2d31322e33352e366831356131408501527f2e376c2d342e382d322e3720342e372d372e364c31302e33352e367a4d2d31326131608501527f2e33352e366c2d31312e322d322e382d342e3820322e387a6d31342e352d32346131808501527f2e3220332e392d31342e322e3920312e352e392d312e3720322e352031342e346131a08501527f7a222f3e3c706174682066696c6c3d22236161366432392220643d226d332e386131c08501527f352d32372e382d38203520372e352d312e317a222f3e3c706174682066696c6c6131e08501527f3d22233934303065332220643d224d342e36352d32382e36682e3476322e36366132008501527f682d2e347a222f3e3c706174682066696c6c3d22236337396637322220643d226132208501527f6d2d322e33352d31372e3420342e352d362e3220322e382e3920352e342d2e396132408501527f20312e3620362e322d322e372d312e362d332e3620342e352d322e322d342d336132608501527f2e3320332e322d2e352d322e387a222f3e3c2f673e3c672069643d22626174226132808501527f3e3c706174682066696c6c3d22233933303045322220643d224d352e332031356132a08501527f2e34482d352e324c30202e377a222f3e3c706174682066696c6c3d22233933306132c08501527f3045322220643d224d352e332032322e342e342031392e366c2d352e3620322e6132e08501527f384c2e3420372e377a4d2d322e34203068342e3976312e34682d342e397a222f6133008501527f3e3c672069643d226261742d6d61736b222066696c6c3d2223464646223e3c636133208501527f6972636c652063783d222d312e38222063793d2231372e352220723d2231222f6133408501527f3e3c636972636c652063783d22312e38222063793d2231372e352220723d22316133608501527f222f3e3c2f673e3c2f673e3c672069643d226a656c6c79223e3c672069643d226133808501527f6a656c6c792d6d61736b223e3c7061746820643d224d342d3130682d376c2d376133a08501527f20326832317a222f3e3c7061746820643d226d31302d3420322d312d312d33686133c08501527f2d32316c2d312033203220317a22206f7061636974793d222e3137222f3e3c706133e08501527f61746820643d224d332d32203120326c332d347a6d2d3420322d32203420332d6134008501527f347a6d2d322d322d32203420332d347a22206f7061636974793d222e3039222f6134208501527f3e3c7061746820643d226d2d342d36203120346831762d347a6d3720307634686134408501527f316c312d347a6d2d342030763668316c322d367a22206f7061636974793d222e6134608501527f3133222f3e3c2f673e3c2f673e3c672069643d2263616d706572223e3c7061746134808501527f682066696c6c3d22236161373033352220643d224d2d31382e3635352d35342e6134a08501527f396831362e3876392e3934682d31362e387a222f3e3c706174682066696c6c3d6134c08501527f22236161366432392220643d224d2d32392e3735352d35396831332e387631306134e08501527f2e3938682d31332e387a222f3e3c706174682066696c6c3d22236632386430306135008501527f2220643d226d2d34352e3635352d32312d32332e342d352e3420392e352d31356135208501527f2e356832332e397a222f3e3c706174682066696c6c3d222366666566393922206135408501527f643d226d2d35332e3035352d35322e352d362e352031302e3668392e386c2d366135608501527f2e392031322e352d31322e342033202e3320382e3120322e37203132683130306135808501527f2e346c33342e322d382e34762d33332e346c2d332e372d342e347a222f3e3c706135a08501527f6174682066696c6c3d22236265313632322220643d224d2d36302e3035352d326135c08501527f332e34683132392e3476312e3931682d3132392e347a6d2d382e3320342e37686135e08501527f3133372e3776312e3931682d3133372e377a222f3e3c636972636c652063783d6136008501527f222d34392e363535222063793d222d362e332220723d22362e34222066696c6c6136208501527f3d2223393430306533222f3e3c636972636c652063783d2231352e32343522206136408501527f63793d222d362e332220723d22362e34222066696c6c3d2223393430306533226136608501527f2f3e3c706174682069643d2263616d7065722d6d61736b222066696c6c3d22236136808501527f6632386430302220643d224d2d32332e3935352d34312e396831322e367632376136a08501527f2e3636682d31322e367a6d31352e3920306831362e3376382e3738682d31362e6136c08501527f337a6d2d32382e37203068382e327631322e3439682d382e327a6d37302030686136e08501527f33312e327631322e3439682d33312e327a222f3e3c706174682066696c6c3d226137008501527f236666662220643d224d2d36382e3335352d32362e3468352e3476372e3338686137208501527f2d352e347a6d3020392e3968332e3176342e32682d332e317a222f3e3c2f673e6137408501527f3c672069643d2274656e74223e3c706174682066696c6c3d22236661643139396137608501527f2220643d224d35332e3036392d3631682d33342e344c2e3036392d31332e34686137808501527f35337a222f3e3c706174682066696c6c3d22236632386430302220643d226d356137a08501527f342e3036392d36312031382e352034372e36682d31382e357a6d2d3220302d316137c08501527f382e362034372e366831382e367a222f3e3c672066696c6c3d22676f6c64223e6137e08501527f3c706174682069643d2274656e742d6d61736b2220643d226d38342e3836392d6138008501527f332e3320312e332d31322e3220342e3320342e3420352d313820332e312031316138208501527f20342e352d352e3420352e322031322e3620332e392d322e3520342031302e316138408501527f7a222f3e3c2f673e3c706174682066696c6c3d22236536333332612220643d226138608501527f6d39302e3036392d332e3320392e332d372e322031302e3620372e327a222f3e6138808501527f3c706174682066696c6c3d22236161373033352220643d224d38312e3136392d6138a08501527f332e336833382e3676332e3139682d33382e367a222f3e3c706174682066696c6138c08501527f6c3d22233934303065332220643d224d35322e3036392d363168327634372e366138e08501527f682d327a222f3e3c2f673e3c672069643d2270656e67223e3c706174682066696139008501527f6c6c3d22676f6c642220643d226d2d362d33322d342034762d317a222f3e3c706139208501527f6174682066696c6c3d22676f6c642220643d226d302d32352d362d372d3420336139408501527f56304834762d32317a222f3e3c706174682066696c6c3d2223393430306533226139608501527f20643d224d2d31302d323856306c382d38762d31327a222f3e3c7061746820666139808501527f696c6c3d22236536333332612220643d224d2d332d3248397632482d337a222f6139a08501527f3e3c706174682066696c6c3d22233934303065332220643d224d312d3336682d6139c08501527f336c2d3420342036203720342034762d31357a222f3e3c706174682066696c6c6139e08501527f3d22236536333332612220643d224d312d3333763368387a222f3e3c2f673e3c613a008501527f672069643d227761746572222066696c6c3d222346434438393922206f706163613a208501527f6974793d222e37223e3c726563742077696474683d2235252220686569676874613a408501527f3d22312220783d223530252220793d22333025222f3e3c726563742077696474613a608501527f683d22352522206865696768743d22312220783d223730252220793d22333025613a808501527f222f3e3c726563742077696474683d22352522206865696768743d2231222078613aa08501527f3d223930252220793d22333025222f3e3c726563742077696474683d22352522613ac08501527f206865696768743d22312220783d223630252220793d22333225222f3e3c7265613ae08501527f63742077696474683d22352522206865696768743d22312220783d2238302522613b008501527f20793d22333225222f3e3c726563742077696474683d22352522206865696768613b208501527f743d22312220783d223430252220793d22333225222f3e3c7265637420776964613b408501527f74683d22352522206865696768743d22312220783d223330252220793d223330613b608501527f25222f3e3c726563742077696474683d22352522206865696768743d22312220613b808501527f783d223230252220793d22333225222f3e3c726563742077696474683d223525613ba08501527f22206865696768743d22312220783d223130252220793d22333025222f3e3c72613bc08501527f6563742077696474683d22352522206865696768743d22312220783d22302522613be08501527f20793d22333225222f3e3c726563742077696474683d22313225222068656967613c008501527f68743d22322220783d223230252220793d22333825222f3e3c72656374207769613c208501527f6474683d2231322522206865696768743d22322220783d223430252220793d22613c408501527f333525222f3e3c726563742077696474683d2231322522206865696768743d22613c608501527f322220783d223630252220793d22333825222f3e3c726563742077696474683d613c808501527f2231322522206865696768743d22322220783d223830252220793d2233352522613ca08501527f2f3e3c726563742077696474683d2231322522206865696768743d2232222078613cc08501527f3d2230252220793d22333525222f3e3c726563742077696474683d2232352522613ce08501527f206865696768743d22332220783d223130252220793d22343825222f3e3c7265613d008501527f63742077696474683d2232352522206865696768743d22332220783d22343025613d208501527f2220793d22343525222f3e3c726563742077696474683d223235252220686569613d408501527f6768743d22332220783d223730252220793d22343825222f3e3c726563742077613d608501527f696474683d2232352522206865696768743d22332220783d222d323025222079613d808501527f3d22343525222f3e3c726563742077696474683d223430252220686569676874613da08501527f3d22342220783d223330252220793d22353525222f3e3c726563742077696474613dc08501527f683d2234302522206865696768743d22342220783d223830252220793d223533613de08501527f25222f3e3c726563742077696474683d2234302522206865696768743d223422613e008501527f20783d222d3230252220793d22353725222f3e3c2f673e3c672069643d22645f613e208501527f626f6174223e3c706174682066696c6c3d22234245313632322220643d224d2d613e408501527f312d3268344c312d347a222f3e3c706174682066696c6c3d22676f6c64222064613e608501527f3d224d312d356831763148317a222f3e3c706174682066696c6c3d2223453934613e808501527f4531422220643d224d2d342d3968317631682d317a222f3e3c70617468206669613ea08501527f6c6c3d22234245313632322220643d224d362d3268344c382d347a222f3e3c70613ec08501527f6174682066696c6c3d22234539344531422220643d224d372d35683176314837613ee08501527f7a222f3e3c706174682066696c6c3d22234244384636312220643d226d2d392d613f008501527f32203620326831372d336c362d32682d3520322d31387a222f3e3c7061746820613f208501527f66696c6c3d22234539344531422220643d224d2d342d3868316c312033682d32613f408501527f7a6d30203620312d3320312033762d33682d327a222f3e3c706174682066696c613f608501527f6c3d22234141373033352220643d226d2d38203020362d37682e336c2d362037613f808501527f7a222f3e3c706174682066696c6c3d22234646462220643d226d313220302031613fa08501527f2d314c3020307a4d2d372030762d316c2d3420317a222f3e3c2f673e3c672069613fc08501527f643d2261636163696132223e3c706f6c79676f6e2066696c6c3d222341413730613fe08501527f33352220706f696e74733d222d352031202d3138202d3830202d3934202d31306140008501527f36202d3931202d313038202d3138202d3834202d3538202d313431202d3534206140208501527f2d313432202d3136202d3838203132202d313237203233202d313235202d35206140408501527f2d3835203335202d3936203337202d3933202d33202d38312031332030222f3e6140608501527f3c672066696c6c3d2223363439363234223e3c7061746820643d224d3135382d6140808501527f313636613132342033382030203120302d3234382030203132342033382030206140a08501527f312030203234382030222f3e3c7061746820643d224d3132302d3131356136356140c08501527f2032302d38203120302d31323020302036352032302d382031203020313230206140e08501527f30222f3e3c7061746820643d224d36332d3133346131303920333220302031206141008501527f302d323139203020313039203332203020312030203231392030222f3e3c2f676141208501527f3e3c2f673e3c672069643d2261636163696131223e3c706174682066696c6c3d6141408501527f22234141373033352220643d226d2d3520302d382d35322d34382d313720322d6141608501527f312034362031362d32352d333720332d312032342033354c372d38326c3620316141808501527f2d31372032362032352d37203120322d323520374c3720307a222f3e3c7061746141a08501527f682066696c6c3d22233634393632342220643d224d2d32352d313238632d33326141c08501527f20322d35372031322d35372032312d323520342d34352031312d3435203230206141e08501527f3020313020323520313820353620313820323020302033382d332034382d38206142008501527f33362031352033342031302033352031302d3220312d3420322d3420332031206142208501527f33203137203520333620332031392d332033342d372033342d31312d312d332d6142408501527f31342d342d33322d3320312d352d322d392d392d313220333320332036302d316142608501527f2036302d313020312d382d33322d31392d36362d32322d31322d372d33332d316142808501527f302d35362d39222f3e3c2f673e3c672069643d2261636163696133223e3c706f6142a08501527f6c79676f6e2066696c6c3d22234141373033352220706f696e74733d223620306142c08501527f203134202d3531203631202d3637203630202d3639203134202d3533203339206142e08501527f2d3839203336202d3930203132202d3536202d35202d3830202d3132202d37396143008501527f2035202d3534202d3230202d3631202d3231202d35392034202d3532202d36206143208501527f30222f3e3c706174682066696c6c3d22233634393632342220643d224d2d31316143408501527f302d31303563302d31392034312d33352039312d3335733934203138203930206143608501527f3430633131203620313920313020313920313720302031312d31382031392d346143808501527f312031392d313120302d32302d322d32372d352d3720342d313720372d3237206143a08501527f382d323120322d33382d332d33392d31302d33382d372d36362d31392d36362d6143c08501527f3334222f3e3c2f673e3c7573652069643d2267756c6c2d66222066696c6c3d226143e08501527f236666662220687265663d2223626972642d66222f3e3c7573652069643d22636144008501527f61742d30222066696c6c3d22233562343438382220687265663d2223636174226144208501527f2f3e3c7573652069643d226361742d31222066696c6c3d2223393636373363226144408501527f20687265663d2223636174222f3e3c7573652069643d226361742d32222066696144608501527f6c6c3d22236535373233322220687265663d2223636174222f3e3c75736520696144808501527f643d226361742d33222066696c6c3d22236666666666652220687265663d22236144a08501527f636174222f3e3c7573652069643d226361742d302d6d61736b2220687265663d6144c08501527f22236361742d6d61736b222f3e3c7573652069643d226361742d312d6d61736b6144e08501527f2220687265663d22236361742d6d61736b222f3e3c7573652069643d226361746145008501527f2d322d6d61736b2220687265663d22236361742d6d61736b222f3e3c757365206145208501527f69643d226361742d332d6d61736b2220687265663d22236361742d6d61736b226145408501527f2f3e3c7573652069643d226a656c6c792d30222066696c6c3d222334643661666145608501527f662220687265663d22236a656c6c79222f3e3c7573652069643d226a656c6c796145808501527f2d31222066696c6c3d22233830666638612220687265663d22236a656c6c79226145a08501527f2f3e3c7573652069643d226a656c6c792d32222066696c6c3d222366663622206145c08501527f687265663d22236a656c6c79222f3e3c7573652069643d226a656c6c792d33226145e08501527f2066696c6c3d22236666383038302220687265663d22236a656c6c79222f3e3c6146008501527f7573652069643d226a656c6c792d302d6d61736b2220687265663d22236a656c6146208501527f6c792d6d61736b222f3e3c7573652069643d226a656c6c792d312d6d61736b226146408501527f20687265663d22236a656c6c792d6d61736b222f3e3c7573652069643d226a656146608501527f6c6c792d322d6d61736b2220687265663d22236a656c6c792d6d61736b222f3e6146808501527f3c7573652069643d226a656c6c792d332d6d61736b2220687265663d22236a656146a08501527f6c6c792d6d61736b222f3e3c706174682069643d22666c6f636b222066696c6c6146c08501527f3d22234646462220643d224d32352e352d31483333762d372e357a6d31392d316146e08501527f352e35483532562d32347a4d34322e3520366838762d372e357a4d32312031396147008501527f6838762d372e357a4d372e352d396838762d387a4d3020313368372e3556357a6147208501527f6d352031362e3568385632327a4d32352d32326838762d372e357a222f3e3c706147408501527f6174682069643d22636163747573222066696c6c3d22233634393632342220646147608501527f3d224d3431203338763139483331563238683137563131483338763130682d376147808501527f5630483136763530682d365633324830763236683136763330683135563637686147a08501527f32315633387a222f3e3c706174682069643d227062656172222066696c6c3d226147c08501527f236666663663632220643d224d2d3431203068386c2d332d352032312d3648386147e08501527f4c32342030762d31366c382d31306831356c342d384c382d3438682d34306c2d6148008501527f392031367a222f3e3c706174682069643d22736d616c6c222066696c6c3d22236148208501527f4141373033352220643d224d31302030762d3136364c302d3230306c2d3130206148408501527f333456307a222f3e3c706174682069643d22666174222066696c6c3d222341416148608501527f373033352220643d224d32392030762d3132304c302d3230306c2d33312038306148808501527f56307a222f3e3c706174682069643d2263616e6761222066696c6c3d222361616148a08501527f373033352220643d226d38332031343020323420322031352d392039203920326148c08501527f20313820313820382d31332d313020352d3137203120313420372d31352031336148e08501527f203120332d3220313520332d392d3968386c312d372d3132203620312d31312d6149008501527f362031342d352d312d32322d31352d313920342d31342031347a22207472616e6149208501527f73666f726d3d227472616e736c617465282d3833202d31363829222f3e3c70616149408501527f74682069643d22636c6f756435222066696c6c3d22236666662220643d224d326149608501527f36312030682d353231762d3135683439762d3339683439762d3337683230762d6149808501527f3233483331763338683239762d3236683234762d3236683831763339683331766149a08501527f37346836357a22206f7061636974793d222e38222f3e3c706174682069643d226149c08501527f636c6f756436222066696c6c3d22236666662220643d224d2d3131392d3637766149e08501527f2d3336683732763638483537762d343268313035763134683336763236683234614a008501527f762d31316835357631316834317632366839315630682d383139762d31356839614a208501527f31762d313035683136307635337a22206f7061636974793d222e38222f3e3c70614a408501527f6174682069643d22636c6f756437222066696c6c3d22236666662220643d224d614a608501527f3234322030682d343835762d3135683931762d3736683838762d333748343876614a808501527f3830683239762d3236683130357633396832347632306833367a22206f706163614aa08501527f6974793d222e38222f3e3c706f6c79676f6e2069643d22636c6f756431222066614ac08501527f696c6c3d22236666662220706f696e74733d22313134202d3531203738202d35614ae08501527f31203738202d3833202d3532202d3833202d3532202d3531202d313336202d35614b008501527f31202d313336202d3237202d313832202d3237202d3138322030202d35322030614b208501527f203738203020313831203020313831202d323720313134202d32372031313420614b408501527f2d353122206f7061636974793d222e3822207472616e73666f726d3d22736361614b608501527f6c65282e3429222f3e3c706f6c79676f6e2069643d22636c6f75643322206669614b808501527f6c6c3d22236666662220706f696e74733d223638202d3139203230202d313920614ba08501527f3230202d3332202d3238202d3332202d3238202d3139202d3638202d3139202d614bc08501527f363820302036382030203638202d313922206f7061636974793d222e38222f3e614be08501527f3c706f6c79676f6e2069643d22636c6f756432222066696c6c3d222366666622614c008501527f20706f696e74733d223732202d3138203732202d3636203130202d3636203130614c208501527f202d313034202d3637202d313034202d3637202d3138202d313138202d313820614c408501527f2d3131382030202d372030203732203020313138203020313138202d31382037614c608501527f32202d313822206f7061636974793d222e3822207472616e73666f726d3d2273614c808501527f63616c65282e3629222f3e3c706f6c79676f6e2069643d22636c6f7564342220614ca08501527f66696c6c3d22236666662220706f696e74733d22313138202d36372031313820614cc08501527f2d313033203436202d313033203436202d313230202d313232202d313230202d614ce08501527f313232202d3737202d313632202d3737202d313632202d3633202d313938202d614d008501527f3633202d313938202d3336202d323233202d3336202d323233202d3438202d32614d208501527f3738202d3438202d323738202d3336202d333139202d3336202d333139202d32614d408501527f38202d343130202d3238202d343130203020343039203020343039202d323820614d608501527f333139202d323820333139202d333920313936202d333920313936202d363720614d808501527f313138202d363722206f7061636974793d222e38222f3e3c706f6c79676f6e20614da08501527f69643d22742d62757368222066696c6c3d22233942423232342220706f696e74614dc08501527f733d222d31352c30202d31342c2d32202d31382c2d34202d31342c2d37202d31614de08501527f372c2d3130202d31332c2d3131202d31322c2d3136202d362c2d3133202d352c614e008501527f2d3138202d312c2d313420322c2d313720352c2d313420382c2d31382031302c614e208501527f2d31332031342c2d31352031332c2d31312031362c2d382031342c2d36203138614e408501527f2c2d342031342c2d322031352c30222f3e3c7061747465726e2069643d22706f614e608501527f6c6b61222077696474683d22363022206865696768743d2236302220783d222d614e808501527f313022206f7061636974793d222e373522207061747465726e556e6974733d22614ea08501527f7573657253706163654f6e557365223e3c636972636c652063783d2231302220614ec08501527f63793d2231302220723d223130222066696c6c3d2223464646463830222f3e3c614ee08501527f636972636c652063783d223430222063793d2234302220723d22313022206669614f008501527f6c6c3d2223464646463830222f3e3c2f7061747465726e3e3c7061747465726e614f208501527f2069643d2263616d656c73222077696474683d2231303022206865696768743d614f408501527f2231303022207061747465726e556e6974733d227573657253706163654f6e55614f608501527f7365223e3c75736520687265663d222363616d656c22207472616e73666f726d614f808501527f3d226d6174726978282e3420302030202e3420313320343229222f3e3c757365614fa08501527f20687265663d222363616d656c22207472616e73666f726d3d226d6174726978614fc08501527f282e3420302030202e3420353820393029222f3e3c2f7061747465726e3e3c70614fe08501527f61747465726e2069643d226170655f776974685f6c656d6f6e222077696474686150008501527f3d22343522206865696768743d22353022207061747465726e556e6974733d226150208501527f7573657253706163654f6e557365223e3e3c75736520687265663d22236170656150408501527f22207472616e73666f726d3d227472616e736c61746528333020343229222f3e6150608501527f3c75736520687265663d22234c656d6f6e22207472616e73666f726d3d226d616150808501527f74726978282e3120302030202e3120313520343229222f3e3c2f7061747465726150a08501527f6e3e3c7061747465726e2069643d2273747269706564222077696474683d22356150c08501527f3022206865696768743d2233302220783d223522207061747465726e556e69746150e08501527f733d227573657253706163654f6e557365223e3c726563742077696474683d226151008501527f3422206865696768743d223330222066696c6c3d222346464646383022206f706151208501527f61636974793d222e3735222f3e3c726563742077696474683d223136222068656151408501527f696768743d2233302220783d2235222066696c6c3d222363386236336622206f6151608501527f7061636974793d222e3735222f3e3c726563742077696474683d2234222068656151808501527f696768743d2233302220783d223230222066696c6c3d222346464646383022206151a08501527f6f7061636974793d222e3735222f3e3c2f7061747465726e3e3c2f646566733e828501526000918254946001958681811c91168015616510575b848210146164fc57601f81116164cd575b5082848052838520918786935b8585106164b7575050505050505061a381905560018060a01b03938480928160018060a01b03199816886003541617600355168660045416176004551684825416179055169060025416176002555161464d908161654a8239f35b828401518155938601939286019289910161645c565b8480528661028e601f868820930160051c830192015b8281106164f157505061644f565b8681550187906164e3565b634e487b7160e01b85526022600452602485fd5b90607f169061643e565b634e487b7160e01b600052604160045260246000fd5b600080fd5b51906001600160a01b03821682036165305756fe610140604052600436101561001357600080fd5b60003560e01c806304e74e5f14611dbe57806325481179146119975780632ff4051914611913578063485c475f146110fa5780634d0d1e7814610de657806371a9730514610cda5780637a1ebd4d14610cb15780638dfd550414610c22578063a360376614610bf7578063b4d6438b14610639578063bcb9154314610610578063cfe839ec146105e7578063dda510f0146105be5763e8378d7c146100b757600080fd5b346105ad5760203660031901126105ad5760606101c06040516100d9816121ac565b82815282602082015282604082015282808201528260808201528260a08201528260c08201528260e0820152826101008201528261012082015282610140820152826101608201526000610180820152826101a082015201526024600060018060a01b036003541660405192838092633a0de35f60e21b825260043560048301525afa80156105b2576000906102f1575b806102ed6101fb926101c06102d86102b661029e61028661026e61025661023f6102296102136040519d8e9d8e6020815260606101e66101d16101bb85516101e06020870152610200860190611e30565b6020860151858203601f19016040870152611e30565b6040850151848203601f190184860152611e30565b920151906080601f1982850301910152611e30565b8d60808d01519060a0601f1982850301910152611e30565b60a08b01518d8203601f190160c08f0152611e30565b60c08a01518c8203601f190160e08e0152611e30565b60e08901518b8203601f19016101008d0152611e30565b6101008801518a8203601f19016101208c0152611e30565b610120870151898203601f19016101408b0152611e30565b610140860151888203601f19016101608a0152611e30565b610160850151878203601f1901610180890152611e30565b6101808401516101a08701526101a0840151601f198783030184880152611e30565b910151838203601f19016101e0850152611e30565b0390f35b503d90816000823e6103038282612250565b60208183810103126105ad578051916001600160401b0383116105ad576101e083830182840103126105ad576040519161033c836121ac565b838101516001600160401b0381116105ad5761035f90838301908684010161245c565b8352602084820101516001600160401b0381116105ad5761038790838301908684010161245c565b6020840152604084820101516001600160401b0381116105ad576103b290838301908684010161245c565b6040840152606084820101516001600160401b0381116105ad576103dd90838301908684010161245c565b6060840152608084820101516001600160401b0381116105ad5761040890838301908684010161245c565b608084015260a084820101516001600160401b0381116105ad5761043390838301908684010161245c565b60a084015260c084820101516001600160401b0381116105ad5761045e90838301908684010161245c565b60c084015260e084820101516001600160401b0381116105ad5761048990838301908684010161245c565b60e084015261010084820101516001600160401b0381116105ad576104b590838301908684010161245c565b61010084015261012084820101516001600160401b0381116105ad576104e290838301908684010161245c565b61012084015261014084820101516001600160401b0381116105ad5761050f90838301908684010161245c565b61014084015261016084820101516001600160401b0381116105ad5761053c90838301908684010161245c565b61016084015280840161018081810151908501526101a001516001600160401b0381116105ad5761057490838301908684010161245c565b6101a08401526101c084820101516001600160401b0381116105ad576101fb946105a293830192010161245c565b6101c082015261016a565b600080fd5b6040513d6000823e3d90fd5b346105ad5760003660031901126105ad576004546040516001600160a01b039091168152602090f35b346105ad5760003660031901126105ad576001546040516001600160a01b039091168152602090f35b346105ad5760003660031901126105ad576002546040516001600160a01b039091168152602090f35b346105ad5760203660031901126105ad57606061026060405161065b81612190565b828152600060208201528260408201526000838201528260808201528260a08201528260c08201528260e0820152826101008201528261012082015282610140820152826101608201528261018082015260006101a082015260006101c082015260006101e08201528261020082015260006102208201528261024082015201526024600060018060a01b036003541660405192838092632f8fb9ad60e01b825260043560048301525afa80156105b2576000906108db575b806102ed6107bb926102606108c66108a461086261084a61083261081a6108026107ea6107d36040519d8e9d8e6020815260a06107a6610785610765855161028060208701526102a0860190611e30565b602086015160408601526040860151601f19868303016060870152611e30565b6060850151151560808501526080850151601f198583030184860152611e30565b9201519060c0601f1982850301910152611e30565b8d60c08d01519060e0601f1982850301910152611e30565b60e08b01518d8203601f19016101008f0152611e30565b6101008a01518c8203601f19016101208e0152611e30565b6101208901518b8203601f19016101408d0152611e30565b6101408801518a8203601f19016101608c0152611e30565b610160870151898203601f19016101808b0152611e30565b610180860151888203601f19016101a08a0152611e30565b6101a085015115156101c08801526101c085015115156101e08801526101e08501511515610200880152610200850151601f1988830301610220890152611e30565b610220840151610240870152610240840151601f198783030184880152611e30565b910151838203601f1901610280850152611e30565b503d90816000823e6108ed8282612250565b60208183810103126105ad578051916001600160401b0383116105ad5761028083830182840103126105ad576040519161092683612190565b838101516001600160401b0381116105ad5761094990838301908684010161245c565b835280840160208181015190850152604001516001600160401b0381116105ad5761097b90838301908684010161245c565b604084015261098e60608583010161283b565b6060840152608084820101516001600160401b0381116105ad576109b990838301908684010161245c565b608084015260a084820101516001600160401b0381116105ad576109e490838301908684010161245c565b60a084015260c084820101516001600160401b0381116105ad57610a0f90838301908684010161245c565b60c084015260e084820101516001600160401b0381116105ad57610a3a90838301908684010161245c565b60e084015261010084820101516001600160401b0381116105ad57610a6690838301908684010161245c565b61010084015261012084820101516001600160401b0381116105ad57610a9390838301908684010161245c565b61012084015261014084820101516001600160401b0381116105ad57610ac090838301908684010161245c565b61014084015261016084820101516001600160401b0381116105ad57610aed90838301908684010161245c565b61016084015261018084820101516001600160401b0381116105ad57610b1a90838301908684010161245c565b610180840152610b2f6101a08583010161283b565b6101a0840152610b446101c08583010161283b565b6101c0840152610b596101e08583010161283b565b6101e084015261020084820101516001600160401b0381116105ad57610b8690838301908684010161245c565b610200840152808401610220818101519085015261024001516001600160401b0381116105ad57610bbe90838301908684010161245c565b61024084015261026084820101516001600160401b0381116105ad576107bb94610bec93830192010161245c565b610260820152610714565b346105ad5760203660031901126105ad576102ed610c1660043561407d565b60405191829182611e5f565b346105ad5760203660031901126105ad5760043560048110156105ad57610c4b6102ed9161286c565b60405191829160208352610c6b81516080602086015260a0850190611e30565b6060610c9f610c8c602085015193601f1994858983030160408a0152611e30565b6040850151848883030184890152611e30565b92015190848303016080850152611e30565b346105ad5760003660031901126105ad576003546040516001600160a01b039091168152602090f35b346105ad5760003660031901126105ad57604051600080549060018260011c9160018416918215610ddc575b6020948585108414610dc6578587948686529182600014610da6575050600114610d4c575b50610d3892500383612250565b6102ed604051928284938452830190611e30565b6000808052859250907f290decd9548b62a8d60345a988386fc84ba6bc95484008f6362f93160ef3e5635b858310610d8e575050610d38935082010185610d2b565b80548389018501528794508693909201918101610d77565b60ff191685820152610d3895151560051b8501019250879150610d2b9050565b634e487b7160e01b600052602260045260246000fd5b92607f1692610d06565b346105ad576020806003193601126105ad5760405190610e0582612174565b60609081835260008184015281604084015281808401528160808401528160a0840152600060c0840152600060e084015260246101006000818601526101209484868201526101406000818301526101608681840152866101808094015260018060a01b039360008560035416604051978880926309a1a3cf60e31b825260043560048301525afa9586156105b257600096610f95575b50604051988998888a528751966101a097888b8d01526101c08c01610ec091611e30565b998901511660408b01526040880151601f19998a8c820301838d0152610ee591611e30565b9088015190898b82030160808c0152610efd91611e30565b608088015190898b82030160a08c0152610f1691611e30565b60a088015190898b82030160c08c0152610f2f91611e30565b9160c088015160e08b015260e0880151818b01528701511515818a0152860151908789820301848a0152610f6291611e30565b918501518188015284015190858782030183880152610f8091611e30565b9201519284830301908401526102ed91611e30565b9095503d806000833e610fa88183612250565b810187828203126105ad5781516001600160401b03928382116105ad5701906101a0828203126105ad5760405192610fdf84612174565b82518181116105ad5782610ff491850161245c565b84528983015188811681036105ad578a85015260408301518181116105ad578261101f91850161245c565b60408501528a8301518181116105ad578261103b91850161245c565b8b85015260808301518181116105ad578261105791850161245c565b608085015260a08301518181116105ad578261107491850161245c565b60a085015260c083015160c085015260e083015160e085015261109889840161283b565b898501528b8301518181116105ad57826110b391850161245c565b8c8501528583015186850152848301518181116105ad57826110d691850161245c565b85850152868301519081116105ad576110ef920161245c565b848201529489610e9c565b346105ad5760003660031901126105ad576040516104c081018181106001600160401b038211176118fd576116b69160009160405261048981527f28706572736f6e0000000046500000546000000e1000001c200000006401636160208201527f6d656c00000000004650000054600000546000001c2000000064016361742d3060408201527a3840000046500000546000000e100000006402627573000000000060608201527d0e1000001c2000002a300000003c000000640163616e676100000000003860808201527f400000708000002a3000001c200000003202626174000000000000001c20000060a08201527f2a3000001c2000000e10000000320063616d70657200000003f480000697800060c08201527f0d2f0000069780000000460274656e74000000000003f48000069780000d2f0060e08201527e0697800000004602636f796f7465000000004650000054600000708000001c6101008201527f200000006402636f77000000000000004650000054600000708000001c2000006101208201527e6401706265617200000000001c20000038400000a8c000000e1000000064026101408201527f626174000000000000001c2000002a300000384000000e10000000640070656e6101608201527f670000000000001c20000038400000070800000e10000000640267756c6c00006101808201527b0258000004b000000e100000070800000032026c6c616d61000000006101a08201527e0e1000001c200000465000000e1000000064026170650000000000000007086101c08201527d151800002a3000000e100000004602656c65700000000000000e100000156101e08201527f1800002a30000007080000003202676972616600000000000e100000151800006102008201527f2a300000070800000032026a656c6c792d30000000070800001c20000004b0006102208201527e0e1000000064006a656c6c792d31000000070800001c20000004b000000e106102408201527c64006a656c6c792d32000000070800001c20000004b000000e100000006102608201527f64006a656c6c792d33000000070800001c20000004b000000e100000006400636102808201527f61742d3000000000003840000046500000546000000e1000000064026361742d6102a08201527f3100000000003840000046500000546000000e1000000064026361742d3200006102c08201527c3840000046500000546000000e1000000064026361742d3300000000006102e08201527f3840000046500000546000000e100000006402706572736f6e000000000e10006103008201527e1c200000384000000e10000000640167756c6c0000000000000258000004b06103208201527cf00000012c0000003202736865657000000000001c2000002a3000000e6103408201527f1000000e100000003202626972640000000000000258000004b0000000f000006103608201527f012c00000032016269726400000000000004b00000070800000e1000000e10006103808201527d64016372616e6500000000000258000004b000000e1000000e10000000646103a08201527f026465657200000000000007080000096000001c20000015180000006402666f6103c08201527f780000000000000007080000096000001c20000015180000006402736e616b656103e08201527a1c20000038400000708000002a300000006402645f6d6f757365006104008201527c3c000000780000012c000000780000006402645f626f6174000000000e6104208201527f1000001c2000002a3000000e1000000064016f726361000000000000038400006104408201527f070800000e100000070800000032016e61727768616c000000038400000708006104608201527e0e100000070800000032026f72636100000000000003840000070800000e10610480820152660384000000190160b91b6104a082015260405180938192634a9fd61360e01b8352602060048401526024830190611e30565b038173__$55e308ee0cc2c89b0b139d5735dcdc1f21$__5af49081156105b257600091611794575b506040518091602082016020835281518091526040830190602060408260051b8601019301916000905b82821061171757505050500390f35b919360019193955060208091603f1989820301855287519060c080611745845160e0855260e0850190611e30565b93858101518685015260408101516040850152606081015160608501526080810151608085015260a081015160a085015201519161178283611e55565b01529601920192018594939192611708565b3d9150816000823e6117a68282612250565b60208183810103126105ad5780516001600160401b0381116105ad57828201601f8284010112156105ad5780820151906117df826124c3565b936117ed6040519586612250565b828552602085019181850160208560051b8388010101116105ad57602081860101925b60208560051b8388010101841061182d57505050505050816116de565b83516001600160401b0381116105ad5760e0878401820185890103601f1901126105ad576040519060e082018281106001600160401b038211176118fd57604052602081858a01010151906001600160401b0382116105ad5761189e89602060e09484898b8501940101010161245c565b8352888501016040818101516020850152606080830151918501919091526080808301519185019190915260a0808301519185019190915260c082015190840152015160038110156105ad5760c0820152815260209384019301611810565b634e487b7160e01b600052604160045260246000fd5b346105ad576020806003193601126105ad57600354604051632ff4051960e01b81526004803590820152908290829060249082906001600160a01b03165afa9081156105b25760009161196a575b50604051908152f35b90508181813d8311611990575b6119818183612250565b810103126105ad575182611961565b503d611977565b346105ad5760203660031901126105ad576004356119b36123ec565b506119bc6123ec565b506015811015611dad57600b811015611d2c57600154604051633fb75bfb60e21b81526004810192909252600090829060249082906001600160a01b03165afa9081156105b257611a35916000918291611d0a575b505b604051809381926327a8dd9560e21b8352602060048401526024830190611e30565b038173__$55e308ee0cc2c89b0b139d5735dcdc1f21$__5af480156105b257600090611a75575b6102ed9150600061010082015260405191829182611e5f565b503d806000833e611a868183612250565b60208282810103126105ad5781516001600160401b0381116105ad578201916101208383830103126105ad5760405191611abf83612158565b83516001600160401b0381116105ad57611ade9082840190860161245c565b83526020840151602084015260408401516040840152606084015160608401526080840151608084015260a08401516001600160401b0381116105ad57611b2a9082840190860161245c565b60a084015260c08401516001600160401b0381116105ad57611b51908284019086016124da565b60c084015260e08401516001600160401b0381116105ad57818301601f8287010112156105ad578085015191611b86836124c3565b93611b946040519586612250565b838552602085019180820160208660051b868b010101116105ad57602084890101925b60208660051b868b0101018410611bef5750505050505060e08201526101008092015160048110156105ad576102ed92820152611a5c565b83516001600160401b0381116105ad5760a08a8701820185850103601f1901126105ad57604051918260a08101106001600160401b0360a0850111176118fd5760a08301604052602082888d0101015160038110156105ad578352604082888d0101015160038110156105ad576020840152606082888d010101516001600160401b0381116105ad578b6020611c8e92858b898b0194010101016127da565b6040840152608082888d010101516001600160401b0381116105ad578b6020611cc092858b898b01940101010161245c565b606084015260a082888d01010151906001600160401b0382116105ad57602093611cf88d8680969581968d8b8d01940101010161245c565b60808201528152019401939050611bb7565b611d2691503d8084833e611d1e8183612250565b81019061249e565b83611a11565b6002546001600160a01b031690600a198101908111611d9757600090602460405180948193633fb75bfb60e21b835260048301525afa9081156105b257611a35916000918291611d7d575b50611a13565b611d9191503d8084833e611d1e8183612250565b83611d77565b634e487b7160e01b600052601160045260246000fd5b611db96102ed9161407d565b610c16565b346105ad5760203660031901126105ad576020611ddc600435612271565b60405190611de981611ded565b8152f35b60041115611df757565b634e487b7160e01b600052602160045260246000fd5b60005b838110611e205750506000910152565b8181015183820152602001611e10565b90602091611e4981518092818552858086019101611e0d565b601f01601f1916010190565b60031115611df757565b608052602060805152611ed0611e878251610120602060805101526101406080510190611e30565b6020830151604060805101526040830151606060805101526060830151608080510152608083015160a0608051015260a0830151601f1960805183030160c06080510152611e30565b9060c081015191601f1960805182030160e06080510152825180825260208201916020808360051b830101950160e0526000905b82821061201e575050505060e081015191601f196080518203016101006080510152825180825260208201916020808360051b8301019501926000915b838310611f665750505050506101000151611f5b81611ded565b610120608051015290565b9091929395601f1982820301835286519060a081018251611f8681611e55565b82526020830151611f9681611e55565b602083015260408301519060a060408401528151809152602060c084019201906000905b80821061200657505050611ff7836020936080611fe68695606060019901518482036060860152611e30565b920151906080818403910152611e30565b98019301930191939290611f41565b90919260208060019286518152019401920190611fba565b90919294601f1982820301865260e0515160206120448251604085526040850190611e30565b9101519160208183039101528151808252602082016020808360051b85010194019260005b83811061208f5750505050506020600191968160e0510160e05201920190929192611f04565b9091929394601f198382030184528551610100526101005151816000905b600482106121425750505060206101005101516101205260c0608082015260c0810160c05261012051518060c083015260e0820160c0526020610120510160a05260005b81811061211f575050610100516040015160a0919091015260c0519460209081019493019190600101612069565b60019060a0515160c05152602060c0510160c052602060a0510160a052016120f1565b60208060019285518152019301910190916120ad565b61012081019081106001600160401b038211176118fd57604052565b6101a081019081106001600160401b038211176118fd57604052565b61028081019081106001600160401b038211176118fd57604052565b6101e081019081106001600160401b038211176118fd57604052565b604081019081106001600160401b038211176118fd57604052565b608081019081106001600160401b038211176118fd57604052565b61018081019081106001600160401b038211176118fd57604052565b606081019081106001600160401b038211176118fd57604052565b60a081019081106001600160401b038211176118fd57604052565b90601f801991011681019081106001600160401b038211176118fd57604052565b906040516102a081018181106001600160401b038211176118fd5760405260028152600260208201526000928360408301526001606083015260016080830152600160a08301528360c08301528360e0830152836101008301528361012083015260036101408301528361016083015283610180830152836101a0830152836101c083015260016101e0830152600161020083015283610220830152836102408301528361026083015283610280830152601581108060001461235e571561234a5760ff92935060051b01511661234781611ded565b90565b634e487b7160e01b84526032600452602484fd5b5091929050602060018060a01b0360035416926024604051809581936304e74e5f60e01b835260048301525afa9182156123df57819261239d57505090565b9091506020813d6020116123d7575b816123b960209383612250565b810103126123d357519060048210156123d0575090565b80fd5b5080fd5b3d91506123ac565b50604051903d90823e3d90fd5b604051906123f982612158565b60006101008360608152826020820152826040820152826060820152826080820152606060a0820152606060c0820152606060e08201520152565b91908203918211611d9757565b6001600160401b0381116118fd57601f01601f191660200190565b81601f820112156105ad57805161247281612441565b926124806040519485612250565b818452602082840101116105ad576123479160208085019101611e0d565b906020828203126105ad5781516001600160401b0381116105ad57612347920161245c565b6001600160401b0381116118fd5760051b60200190565b9080601f830112156105ad5781516124f1816124c3565b926124ff6040519485612250565b81845260208401908360208460051b830101116105ad5760208101915b60208460051b830101831061253357505050505090565b82516001600160401b0381116105ad578201610120526040601f1961012051870301126105ad57604051612566816121c8565b60206101205101516001600160401b0381116105ad5786602061258e9261012051010161245c565b815260406101205101516001600160401b0381116105ad5786603f8261012051010112156105ad5760208161012051010151906125ca826124c3565b916125d86040519384612250565b808352602083018960408360051b8561012051010101116105ad576040836101209d9c9b9a9998979d510101905b60408360051b8561012051010101821061263d5750505050602092939495969798828493928480940152815201930192905061251c565b81516001600160401b0381116105ad5760c09081603f198d8389610120510101900301126105ad57604051918260608101106001600160401b036060850111176127c557606083016040528c605f83896101205101010112156105ad576126a6606084016121e3565b606083018d82848a61012051010101116105ad576040838961012051010101905b82848a6101205101010182106127b5575050606083018352818761012051010101516001600160401b0381116105ad578c605f82848a610120510101010112156105ad5760408183896101205101010101518d612723826124c3565b926127316040519485612250565b828452602084019160608b83888760051b92610120510101010101116105ad57606081868c6101205101010101915b60608b83888760051b9261012051010101010183106127a5575050505060208084019190915261012051870190910160e0015160408301529082529182019101612606565b8251815260209283019201612760565b81518152602091820191016126c7565b60246000634e487b7160e01b81526041600452fd5b9080601f830112156105ad578151906020916127f5816124c3565b936128036040519586612250565b81855260208086019260051b8201019283116105ad57602001905b82821061282c575050505090565b8151815290830190830161281e565b519081151582036105ad57565b60405190612855826121e3565b606080838181528160208201528160408201520152565b90612875612848565b9161287f81611ded565b80612d2a5750905061288f612848565b50612898612848565b604080516128a5816121c8565b6000808252602091604a1983820152606085019084516128c4816121e3565b604481527f3c672066696c6c3d2223396262323234223e3c7265637420783d222d34222079858201527f3d222d3734222077696474683d223822206865696768743d223734222f3e246c86820152631e17b39f60e11b6060820152825284860190855161293081612235565b607c81527f3c672066696c6c3d22676f6c64223e3c7061746820643d224d32312d38354332868201527f382d39312032382d3130322032382d3130324332382d3130322031382d313032878201527f2031312d393543352d383920352d373820352d373843352d37382031352d373960608201527f2032312d38355a222069643d22732d6c656166222f3e24313c2f673e000000006080820152825285516328d1938160e11b815260406004820152601660448201527e1e003c005a0078009600b400d200f0010e012c014a00000000000000000000606482015260026024820152848160848173__$55e308ee0cc2c89b0b139d5735dcdc1f21$__5af4908115612d20578591612cfe575b50865192612a498461221a565b600284528684019088368337845115612cea576002198252845160019190821015612cd657612b0a9060478b88015288612aba8c73__$30acca89589d9a9b80eb3e09f3c9eae508$__98612b15855192519687948594630ca50dab60e11b865260c0600487015260c4860190611e30565b600319858203818101602488015260068352653996b632b0b360d11b6020840152603c0160448701526002604083015261243160f01b60608301529b90608001908c8683030160648701526145b9565b9160848401906145ed565b0381895af4918215612ccc578992612cb0575b50889593612b5e978c9496938c935289519683612b8187519b8c9a630e267c1560e21b8c5260a060048d015260a48c0190611e30565b8a8103880160248c015260068152653996b632b0b360d11b602082015260400190565b92868a85030160448b01525192838152019291895b818110612c9057505050506064860187905285810392830160848701526002815261091b60f21b910152019082905af4928315612c85578093612c68575b5050528151612be28161221a565b602881527f3c636972636c652066696c6c3d2223396262323234222063793d222d373522208282015267391e91191b11179f60c11b838201528352815191612c298361221a565b602883527f3c636972636c652066696c6c3d2223616137303335222063793d222d373522208284015267391e91189c11179f60c11b9083015282015290565b612c7d9293503d8091833e611d1e8183612250565b903880612bd4565b8551903d90823e3d90fd5b8351830b85528d9a508b99508f97508e9594850194909301928201612b96565b612cc59192503d808b833e611d1e8183612250565b9038612b28565b8b513d8b823e3d90fd5b634e487b7160e01b88526032600452602488fd5b634e487b7160e01b87526032600452602487fd5b612d1a91503d8087833e612d128183612250565b810190614594565b38612a3c565b87513d87823e3d90fd5b612d3381611ded565b600281036132b457509050612d46612848565b50612d4f612848565b604080516328d1938160e11b815260048101829052601660448201527e1e003c005a0078009600b400d200f0010e012c014a0000000000000000000060648201526002602482015260009190828160848173__$55e308ee0cc2c89b0b139d5735dcdc1f21$__5af49081156132a857839161328e575b508151612dd1816121fe565b61014c81526020907f3c67207374796c653d227472616e73666f726d3a726f74617465592824617a69828201527f73293b7472616e73666f726d2d626f783a66696c6c2d626f783b7472616e7366848201527f6f726d2d6f726967696e3a63656e746572223e3c706f6c79676f6e2066696c6c60608201527f3d22233942423232342220706f696e74733d222d372e352c2d353220382c2d3560808201527f3220332c2d33202d322e362c2d33222f3e3c2f673e3c706174682069643d226760a08201527f2d6c656166222066696c6c3d22233942423232342220643d224d31352c2d362e60c08201527f3363352e392d352e382c362e322d31352e322c362e322d31352e32732d392e3460e0820152610100907f2c302e312d31352e332c352e39632d352e392c352e382d362e322c31352e322d828201527f362e322c31352e3253392e362c2d302e352c31352e362c2d362e337a222f3e3c6101208201527f75736520687265663d2223672d6c65616622207472616e73666f726d3d2273636101408201526b30b63294169896189491179f60a11b61016082015260608701528351612f7e8161221a565b602981527f3c636972636c652066696c6c3d2223394242323234222063793d222d353222208382015268391e911b971c11179f60b91b85820152865283519081016001600160401b0381118282101761327a579285926131d3928695865260d881527f3c636972636c65207374726f6b652d77696474683d22332e3522207374726f6b828201527f653d2223423935394544222066696c6c3d2223393330304532222063793d222d868201527f35322220723d2231322e35222f3e3c636972636c652066696c6c3d222346464660608201527f464646222063783d222d34222063793d222d35352220723d22322e32222f3e3c60808201527f636972636c652066696c6c3d2223464646464646222063783d2234222063793d60a08201527f222d35352220723d22322e32222f3e3c636972636c652066696c6c3d2223464660c08201527f46464646222063793d222d34382220723d22322e32222f3e000000000000000060e082015281890152613223612b0a8651926130fe846121c8565b8684526033198185015287519461311486612235565b607e86527f24313c706174682069643d22672d706574616c222066696c6c3d222345414343828701527f46392220643d224d312c2d3639632d312e382d362e322d372e392d392e392d37898701527f2e392d392e39732d332e342c362e342d312e382c31322e3563312e372c362e3260608701527f2c372e392c392e382c372e392c392e3853322e352c2d36322e367a222f3e000060808701526132148951998a988998630ca50dab60e11b8a5260c060048b015260c48a0190611e30565b603c8982036619cb5c195d185b60ca1b600319978c60248a8501910152600785528401520160448a0152016040906002815261243160f01b60208201520190565b918683030160648701526145b9565b038173__$30acca89589d9a9b80eb3e09f3c9eae508$__5af492831561326f578093613252575b505082015290565b6132679293503d8091833e611d1e8183612250565b90388061324a565b8251903d90823e3d90fd5b634e487b7160e01b86526041600452602486fd5b6132a291503d8085833e612d128183612250565b38612dc5565b505051903d90823e3d90fd5b6132bd81611ded565b60018103613cb2575090506132d0612848565b506132d9612848565b604080516328d1938160e11b81526004810182905260086044820152660240048006c00960c51b606482015260026024820152600091828260848173__$55e308ee0cc2c89b0b139d5735dcdc1f21$__5af4918215613ca8578392613c8c575b50805191613346836121fe565b61015b835260208084017f3c706174682066696c6c3d22233963623032362220643d224d382c2d3134302e90528284017f346131302e382c31302e382c302c302c302d342e382d2e362c31322e342c313290526060938481017f2e342c302c302c302c2e312d342e392c31312e372c31312e372c302c302c302d9052608081017f332e352c332e332c31312e382c31312e382c302c302c302d332e372d332c3131905260a081017f2e322c31312e322c302c302c302c2e342c342e382c31302e332c31302e332c30905260c081017f2c302c302d342e372c312c31312e352c31312e352c302c302c302c342c322e37905260e081017f2c31312c31312c302c302c302d322e322c342e332c31322e312c31322e312c3090526101008082017f2c302c302c342e362d312e352c31302e372c31302e372c302c302c302c322c3490526101208083017f2e342c31312e332c31312e332c302c302c302c312e382d342e352c31302e312c9052610140918284017f31302e312c302c302c302c342e362c312e312c31302e382c31302e382c302c309052610160938481017f2c302d322e342d342e314131322c31322c302c302c305a22202f3e000000000090528a528651613511816121e3565b605281527f3c636972636c652066696c6c3d2223663764363064222063793d222d31333822868201527f20723d2237222f3e3c636972636c652066696c6c3d222366636566396522206388820152713c9e911698999c1110391e911a171b91179f60711b898201528a860152865196613589886121ac565b6101a888528588017f3c673e3c706174682069643d22722d6c656166222066696c6c3d22236536333390528088017f32612220643d224d302d313231632e31332031202e35203220312e312033203190528888017f2e39203220352e35203320382e31203120312e382d3120322e342d3320322e349052608088017f2d3520312e37203120332e34203020352e312d2e3720322e362d312e3920332e905260a088017f312d352e3620312e322d382e332d2e35362d2e362d312e332d312e322d322e31905260c088017f2d312e374c312e392d3133396c2d3320312e367a22202f3e24703c7061746820905260e088017f66696c6c3d22236561636366392220643d224d31302e36202d3134312e33613690528188017f203620302030302d352e322d3420352e3820352e3820302030302d352e352d3390528288017f2e3720352e3920352e3920302030302d352e3420332e3720352e3920352e392090528388017f302030302d352e32203420362e3120362e312030203030312e3820362e33203590528488017f2e3720352e372030203030322e3320362e3220352e3720352e372030203030369052610180958689017f2e352e3320352e3920352e392030203030362e362d2e3320352e3720352e372090526101a097888a017f30203030322e322d362e3120352e3920352e392030203030312e392d362e347a90528b8b6101c09b671110179f1e17b39f60c11b8d82015285516137a9816121c8565b838152608919868201528651630ca50dab60e11b815260c0600482015294859384936137d99060c4860190611e30565b90848203906003198201602487015260068352898301653916b632b0b360d11b9052603c820160448701528a830160029052820161024760f41b9052607c016064850152608001613829916145b9565b9060848301613837916145ed565b038173__$30acca89589d9a9b80eb3e09f3c9eae508$__5af4908115613c82578c91613c68575b50828d015281519a6103608c01908c82106001600160401b03831117613c54575082526103278b527f3c706174682066696c6c3d22233963623032362220643d224d3336202d313030908b01527f2e3663342e372d2e3620382d342e3720382d342e37732d342e332d332e322d38908a01527f2e392d322e362d3820342e372d3820342e3720342e3220332e3220382e392032888a01527f2e367a4d32372e31202d3932633420322e3520392e3220312e3420392e32203160808a01527f2e34732d312e332d352e312d352e332d372e362d392e312d312e352d392e312d60a08a01527f312e3520312e3220352e3120352e3220372e377a4d3139202d383863322e392060c08a01527f332e3720382e3220342e3420382e3220342e34732e352d352e322d322e342d3860e08a01527f2e392d382e322d342e352d382e322d342e352d2e3520352e3320322e3420397a908901527f4d31312e31202d38352e3663312e3720342e3320362e3520362e3620362e3520908801527f362e3673322d342e392e332d392e332d362e352d362e362d362e352d362e362d908701527f3220342e382d2e3320392e337a22202f3e3c706174682066696c6c3d22233963908601527f623032362220643d224d31382e38202d3130372e37632e322d342e3720342d38908501527f2e3320342d382e3373332e3520332e3920332e3320382e362d3420382e342d34908401527f20382e342d332e352d332e392d332e332d382e377a4d31302e37202d31303463908301527f2d312e342d342e3520312d392e3220312d392e3273342e3720322e35203620376101e08301527f2d3120392e332d3120392e332d342e362d322e362d362d372e317a4d332e33206102008301527f2d3938632d322e372d332e392d312e382d392e322d312e382d392e3273352e326102208301527f20312e3120372e39203520312e3720392e3220312e3720392e322d352e322d316102408301527f2e312d372e382d357a22202f3e3c706174682066696c6c3d226e6f6e652220736102608301527f74726f6b653d222339636230323622207374726f6b652d6c696e656361703d226102808301527f726f756e6422207374726f6b652d77696474683d22332220643d224d2d302e326102a08301527f202d313338632d2e322e332d332e3420372d332e372032322e327331342e32206102c08301527f35382d312e3120313135222f3e203c706174682066696c6c3d226e6f6e6522206102e08301527f7374726f6b653d222339636230323622207374726f6b652d77696474683d22326103008301527f2220643d224d302e37202d38342e367331332e362d31342e392032372e382d31610320830152661c171a9110179f60c91b61034083015282015290565b634e487b7160e01b81526041600452602490fd5b613c7c91503d808e833e611d1e8183612250565b3861385e565b83513d8e823e3d90fd5b613ca19192503d8085833e612d128183612250565b9038613339565b81513d85823e3d90fd5b80613cbe600392611ded565b14613cc557565b9050613ccf612848565b50613cd8612848565b60408051613ce5816121e3565b604b81527f3c7265637420783d222d352220793d222d313238222077696474683d2231302260208201527f206865696768743d223132222072783d2235222072793d2235222066696c6c3d828201526a11119cb1b118191b11179f60a91b606082015282528051613d55816121e3565b605481527f3c706174682066696c6c3d22236637643630642220643d224d352d3132316c3160208201527f322032342d31372d32302d31372032302031332d32332d32342d31302032362082820152731a901996991a901990191b10191a169b3d11179f60611b606082015260208301528051613dd1816121e3565b605481527f3c706174682066696c6c3d22236666662220643d224d32302d39356c312d313960208201527f2031302d31372d31382d382d31332d31362d31332031362d313820372039203182820152731c101910189c901918169a101918101a3d11179f60611b6060820152828201528051906101c08201906001600160401b038211838310176118fd577f34332032342031342d352033382039203134682d35316c342d32337a222f3e3c91815261019583527f3c706174682066696c6c3d22236363632220643d224d2d32322d32336c31392d60208401528201527f706174682069643d226d2d6c6561662220643d224d2d31332d33326c2d342d3860608201527f682d376c2d3520313773312035203120372d3220362d32203620342d3320352d60808201527f3420372d3120372d316c31352d392d322d372d392d327a222066696c6c3d222360a08201527f396362303236222f3e3c75736520687265663d22236d2d6c656166222074726160c08201527f6e73666f726d3d226d6174726978282e383520302030202e3835203135202d3560e08201527f302922202f3e3c75736520687265663d22236d2d6c65616622207472616e73666101008201527f6f726d3d22726f74617465282d3735202d3133202d363629207363616c6528316101208201527f2e31352922202f3e3c7061746820643d224d302d313231732d322033352033206101408201527f343563352031322032362032342d382034302d32322031302d313520343020326101608201527f32203232222066696c6c3d226e6f6e6522207374726f6b653d22233963623032610180820152741b111039ba3937b5b296bbb4b23a341e911a11179f60591b6101a0820152606082015290565b908151811015614067570160200190565b634e487b7160e01b600052603260045260246000fd5b6140856123ec565b50604090815191614095836121e3565b606091828452600080846020968288820152828682015201526140b66123ec565b94607983101561457b576001945b6003546014198501946001600160a01b039291831691908611614567579084929187519384809363f6b3877360e01b82526004998a83015260249687915afa80156143e6578790879388908992614517575b506141508973__$55e308ee0cc2c89b0b139d5735dcdc1f21$__968d51809381928d635a60e63160e01b998a85528401528c830190611e30565b0381895af490811561450d57908c949392918b916144f3575b506141748284612434565b61418961418082612441565b96519687612250565b808652614198601f1991612441565b01368b870137815b8381106144bd575050505089888c888c8981541694519485938492637f6e992f60e11b84526141ce82611ded565b8301525afa908115612ccc57889493926142028b938e8e9486926144a1575b5051978894859485528401528a830190611e30565b0381875af492831561447b578893614485575b5087878a6142398d5194859384936327f9164d60e01b85528401528a830190611e30565b0381875af490811561447b5790829189916143f0575b5080518d5287810151888e01528a8101518b8e01520151908b015260a08a01528554875163cf4e224b60e01b81529190869083908690829087166142928e611ded565b8d8c8301525afa9182156143e6579186916142cf9383926143ca575b5089518080958194630ce3b96b60e01b83528d8d8401526044830190611e30565b858983015203915af4908115612d2057918493918993879161437a575b5060c08b0152865416958751968793849263c482a49d60e01b845261431082611ded565b8301525afa93841561436f5750819361433e575b505050608083015261433581611ded565b61010082015290565b9091809350813d8311614368575b6143568183612250565b810103126123d0575051388080614324565b503d61434c565b51913d9150823e3d90fd5b9294505091503d8086833e61438f8183612250565b81019087818303126143c6578051906001600160401b0382116143c2578594928a94926143bc92016124da565b386142ec565b8680fd5b8580fd5b6143df9192503d8085833e611d1e8183612250565b90386142ae565b88513d88823e3d90fd5b9150503d8089833e6144028183612250565b810187828203126144775781516001600160401b039283821161446f570190608082820312614473578b5192614437846121e3565b825190811161446f5791614451859493928593830161245c565b8352898101518a8401528c8101518d8401520151828201523861424f565b8a80fd5b8980fd5b8880fd5b8a513d8a823e3d90fd5b61449a9193503d808a833e611d1e8183612250565b9138614215565b6144b69192503d8088833e611d1e8183612250565b90386141ed565b6001908c6144ec6001600160f81b03196144d78487614056565b51166144e38785612434565b921a9189614056565b53016141a0565b61450791503d808d833e611d1e8183612250565b38614169565b8c513d8c823e3d90fd5b94505050503d8087843e61452b8184612250565b820181838203126143c25782516001600160401b03811161456357889161455391850161245c565b8987850151940151909338614116565b8780fd5b634e487b7160e01b85526011600452602485fd5b60dd83101561458d5760025b946140c4565b6003614587565b906020828203126105ad5781516001600160401b0381116105ad5761234792016127da565b90815180825260208080930193019160005b8281106145d9575050505090565b8351855293810193928101926001016145cb565b6000915b600283106145fe57505050565b6001908251820b815260208091019201920191906145f156fea2646970667358221220aed8cadeafbd745318f188d514db8f6ce53a7172c0b803adedfa8bf988f51c3264736f6c63430008190033","linkReferences":{"contracts/NDDecoder.sol":{"NDDecoder":[{"start":31748,"length":20},{"start":32643,"length":20},{"start":36707,"length":20},{"start":37612,"length":20},{"start":39008,"length":20},{"start":42599,"length":20}]},"contracts/NDUtils.sol":{"NDUtils":[{"start":36809,"length":20},{"start":38769,"length":20},{"start":40325,"length":20}]}}},"methodIdentifiers":{"assets()":"71a97305","genericMotifs()":"7a1ebd4d","genericMotifsSVG()":"dda510f0","getAssetInScene()":"485c475f","getBeachTraits(uint256)":"e8378d7c","getCityTraits(uint256)":"4d0d1e78","getFlower(uint8)":"8dfd5504","getFlowerType(uint256)":"04e74e5f","getGenericMotif(uint256)":"a3603766","getLandScapeTraits(uint256)":"b4d6438b","getMotifByTokenId(uint256)":"25481179","getNFTInside(uint256)":"2ff40519","sightSeeing1()":"cfe839ec","sightSeeing2()":"bcb91543"},"id":4}