{"abi":[{"type":"constructor","inputs":[{"name":"_genericMotifAddress","type":"address","internalType":"address"},{"name":"_genericMotifSVGAddress","type":"address","internalType":"address"},{"name":"_motifAdress1","type":"address","internalType":"address"},{"name":"_motifAdress2","type":"address","internalType":"address"},{"name":"_motifAdress3","type":"address","internalType":"address"}],"stateMutability":"nonpayable"},{"type":"function","name":"assets","inputs":[],"outputs":[{"name":"","type":"string","internalType":"string"}],"stateMutability":"view"},{"type":"function","name":"genericMotifs","inputs":[],"outputs":[{"name":"","type":"address","internalType":"contract GenericMotifs"}],"stateMutability":"view"},{"type":"function","name":"genericMotifsSVG","inputs":[],"outputs":[{"name":"","type":"address","internalType":"contract GenericMotifsSVG"}],"stateMutability":"view"},{"type":"function","name":"getAssetInScene","inputs":[],"outputs":[{"name":"","type":"tuple[]","internalType":"struct AssetInScene[]","components":[{"name":"name","type":"string","internalType":"string"},{"name":"minDuration","type":"uint256","internalType":"uint256"},{"name":"maxDuration","type":"uint256","internalType":"uint256"},{"name":"checkInterval","type":"uint256","internalType":"uint256"},{"name":"possibleOffset","type":"uint256","internalType":"uint256"},{"name":"probability","type":"uint256","internalType":"uint256"},{"name":"dayTime","type":"uint8","internalType":"enum DAYTIME"}]}],"stateMutability":"pure"},{"type":"function","name":"getBeachColor","inputs":[{"name":"tokenId","type":"uint256","internalType":"uint256"}],"outputs":[{"name":"","type":"string","internalType":"string"},{"name":"","type":"string","internalType":"string"}],"stateMutability":"view"},{"type":"function","name":"getClimateZoneForLandscape","inputs":[{"name":"tokenId","type":"uint256","internalType":"uint256"}],"outputs":[{"name":"","type":"string","internalType":"string"},{"name":"","type":"string","internalType":"string"},{"name":"","type":"uint256","internalType":"uint256"}],"stateMutability":"view"},{"type":"function","name":"getGenericMotif","inputs":[{"name":"tokenId","type":"uint256","internalType":"uint256"}],"outputs":[{"name":"","type":"tuple","internalType":"struct Motif","components":[{"name":"name","type":"string","internalType":"string"},{"name":"lat","type":"int256","internalType":"int256"},{"name":"lng","type":"int256","internalType":"int256"},{"name":"heading","type":"int256","internalType":"int256"},{"name":"horizon","type":"int256","internalType":"int256"},{"name":"svg","type":"string","internalType":"string"},{"name":"scenes","type":"tuple[]","internalType":"struct SceneInMotif[]","components":[{"name":"placeHolder","type":"string","internalType":"string"},{"name":"assets","type":"uint8[]","internalType":"uint8[]"},{"name":"area","type":"int256[4]","internalType":"int256[4]"},{"name":"scale","type":"uint256","internalType":"uint256"}]},{"name":"replacements","type":"tuple[]","internalType":"struct Replacement[]","components":[{"name":"tag","type":"uint8","internalType":"enum ObjectType"},{"name":"dataType","type":"uint8","internalType":"enum RenderDataType"},{"name":"data","type":"int256[]","internalType":"int256[]"},{"name":"placeholder","type":"string","internalType":"string"},{"name":"ref","type":"string","internalType":"string"}]},{"name":"motifType","type":"uint8","internalType":"enum MotifType"}]}],"stateMutability":"view"},{"type":"function","name":"getGentian","inputs":[],"outputs":[{"name":"","type":"string","internalType":"string"},{"name":"","type":"string","internalType":"string"},{"name":"","type":"string","internalType":"string"},{"name":"","type":"string","internalType":"string"}],"stateMutability":"pure"},{"type":"function","name":"getMotifByTokenId","inputs":[{"name":"tokenId","type":"uint256","internalType":"uint256"}],"outputs":[{"name":"","type":"tuple","internalType":"struct Motif","components":[{"name":"name","type":"string","internalType":"string"},{"name":"lat","type":"int256","internalType":"int256"},{"name":"lng","type":"int256","internalType":"int256"},{"name":"heading","type":"int256","internalType":"int256"},{"name":"horizon","type":"int256","internalType":"int256"},{"name":"svg","type":"string","internalType":"string"},{"name":"scenes","type":"tuple[]","internalType":"struct SceneInMotif[]","components":[{"name":"placeHolder","type":"string","internalType":"string"},{"name":"assets","type":"uint8[]","internalType":"uint8[]"},{"name":"area","type":"int256[4]","internalType":"int256[4]"},{"name":"scale","type":"uint256","internalType":"uint256"}]},{"name":"replacements","type":"tuple[]","internalType":"struct Replacement[]","components":[{"name":"tag","type":"uint8","internalType":"enum ObjectType"},{"name":"dataType","type":"uint8","internalType":"enum RenderDataType"},{"name":"data","type":"int256[]","internalType":"int256[]"},{"name":"placeholder","type":"string","internalType":"string"},{"name":"ref","type":"string","internalType":"string"}]},{"name":"motifType","type":"uint8","internalType":"enum MotifType"}]}],"stateMutability":"view"},{"type":"function","name":"getRose","inputs":[],"outputs":[{"name":"","type":"string","internalType":"string"},{"name":"","type":"string","internalType":"string"},{"name":"","type":"string","internalType":"string"},{"name":"","type":"string","internalType":"string"}],"stateMutability":"pure"},{"type":"function","name":"getSkinColor","inputs":[{"name":"tokenId","type":"uint256","internalType":"uint256"}],"outputs":[{"name":"","type":"string","internalType":"string"},{"name":"","type":"string","internalType":"string"}],"stateMutability":"view"},{"type":"function","name":"getSkylineType","inputs":[{"name":"tokenId","type":"uint256","internalType":"uint256"}],"outputs":[{"name":"","type":"uint256","internalType":"uint256"}],"stateMutability":"view"},{"type":"function","name":"getSunflower","inputs":[],"outputs":[{"name":"","type":"string","internalType":"string"},{"name":"","type":"string","internalType":"string"},{"name":"","type":"string","internalType":"string"},{"name":"","type":"string","internalType":"string"}],"stateMutability":"pure"},{"type":"function","name":"getTradingChartAddress","inputs":[{"name":"tokenId","type":"uint256","internalType":"uint256"}],"outputs":[{"name":"","type":"address","internalType":"address"}],"stateMutability":"view"},{"type":"function","name":"isCityCoastel","inputs":[{"name":"tokenId","type":"uint256","internalType":"uint256"}],"outputs":[{"name":"","type":"bool","internalType":"bool"}],"stateMutability":"view"},{"type":"function","name":"seightSeeing3","inputs":[],"outputs":[{"name":"","type":"address","internalType":"contract IMotifData"}],"stateMutability":"view"},{"type":"function","name":"sightSeeing1","inputs":[],"outputs":[{"name":"","type":"address","internalType":"contract IMotifData"}],"stateMutability":"view"},{"type":"function","name":"sightSeeing2","inputs":[],"outputs":[{"name":"","type":"address","internalType":"contract IMotifData"}],"stateMutability":"view"}],"bytecode":{"object":"0x6080346129fa57601f615c2438819003918201601f19168301926001600160401b03929091838511838610176129e4578160a092849260409788528339810103126129fa5761004d816129ff565b9160209161005c8382016129ff565b906100688682016129ff565b93610081608061007a606085016129ff565b93016129ff565b875190946121408201908111828210176129e457885261211a81527f3c646566733e3c672069643d227961636874223e3c706174682066696c6c3d22828201527f234536333332412220643d224d362d356832374c362d34337a222f3e3c706174888201527f682066696c6c3d22234141373033352220643d224d342d316832306c342d324860608201527f307a222f3e3c706174682066696c6c3d22234646462220643d226d313520302060808201527f312d3220323320327a222f3e3c2f673e3c672069643d22636f77223e3c70617460a08201527f682066696c6c3d22236664653963632220643d224d2d32362d3231683133763960c08201527f682d31337a222f3e3c706174682066696c6c3d22236536333332612220643d2260e08201527f4d2d33332d3139683530762d3238682d35377a222f3e3c706174682066696c6c6101008201527f3d22236536333332612220643d226d32352d34352d382032362d392d323720316101208201527f342d313420313920372d3420357a222f3e3c706174682066696c6c3d222365366101408201527f333332612220643d226d32382d353820312d372d3620377a4d31372d313920316101608201527f33203020392d323068387a6d2d35302d31203420323020342d31397a6d2d372d6101808201527f32377632396c332d32397a222f3e3c2f673e3c672069643d2262616c6c223e3c6101a08201527f636972636c652063783d22313333222063793d2239342220723d2236332220666101c08201527f696c6c3d2223666666366363222f3e3c656c6c697073652063783d22313333226101e08201527f2063793d223934222066696c6c3d2223393430306533222072783d22343122206102008201527f72793d223633222f3e3c656c6c697073652063783d22313333222063793d22396102208201527f34222066696c6c3d2223666566356362222072783d223131222072793d2236336102408201527f222f3e3c70617468207374726f6b653d222361613664323922207374726f6b656102608201527f2d77696474683d22332220643d226d393320313331203339203132366d34322d6102808201527f3132352d3432203132336d32312d3132332d3231203132336d2d31392d3132346102a08201527f20313920313235222f3e3c706174682066696c6c3d22236161366432392220646102c08201527f3d224d3830203132392e38683130352e3576332e32483830762d335a4d3830206102e08201527f35336831303676334837392e35762d332e325a222f3e3c706174682066696c6c6103008201527f3d22236161366432392220643d224d31333120313332683376313039682d337a6103208201527f222f3e3c706174682066696c6c3d22233962623232342220643d224d313230206103408201527f323336683235763231682d32357a222f3e3c2f673e3c672069643d22636174226103608201527f3e3c706174682066696c6c3d22233934303045332220643d224d2d332e382d316103808201527f362e3168392e317631322e35682d392e3035327a222f3e3c636972636c6520636103a08201527f783d222e383438222063793d222d31362e312220723d22342e35222066696c6c6103c08201527f3d2223393430304533222f3e3c636972636c652063783d22342e3234382220636103e08201527f793d222d32322e362220723d22342e35222066696c6c3d2223393430304533226104008201527f2f3e3c706174682066696c6c3d22233934303045332220643d224d342e322d326104208201527f332e324830762d342e337a6d30203068342e33762d342e337a222f3e3c6720696104408201527f643d226361742d6d61736b223e3c656c6c697073652063783d22322e323438226104608201527f2063793d222d32332e33222066696c6c3d22676f6c64222072783d22312e38226104808201527f2072793d22312e32222f3e3c656c6c697073652063783d22322e3234382220636104a08201527f793d222d32332e33222066696c6c3d2223393430304533222072783d222e31226104c08201527f2072793d22312e36222f3e3c656c6c697073652063783d22362e3234382220636104e08201527f793d222d32332e33222066696c6c3d22676f6c64222072783d22312e382220726105008201527f793d22312e32222f3e3c656c6c697073652063783d22362e323438222063793d6105208201527f222d32332e33222066696c6c3d2223393430304533222072783d222e312220726105408201527f793d22312e36222f3e3c2f673e3c706174682066696c6c3d22233934303045336105608201527f2220643d224d2d382e362d352e3348362e3776312e38482d382e3635327a6d306105808201527f20332e3548362e375630482d382e367a222f3e3c706174682066696c6c3d22236105a08201527f3934303045332220643d224d2d382e372030762d352e3368312e3856307a222f6105c08201527f3e3c706174682066696c6c3d22234234344345422220643d226d352d32322e326105e08201527f2d2e382e382d2e382d2e387a222f3e3c2f673e3c672069643d226275736831226106008201527f3e3c706174682069643d226c31222066696c6c3d22233942423232342220643d6106208201527f224d2d3339203063352035203132203720313920354c3020306c2d32312d35636106408201527f2d362d322d313320302d31382035222f3e3c75736520687265663d22236c31226106608201527f207472616e73666f726d3d22726f7461746528343529222f3e3c7573652068726106808201527f65663d22236c3122207472616e73666f726d3d22726f7461746528393029222f6106a08201527f3e3c75736520687265663d22236c3122207472616e73666f726d3d22726f74616106c08201527f74652831333529222f3e3c75736520687265663d22236c3122207472616e73666106e08201527f6f726d3d22726f746174652831383029222f3e3c2f673e3c672069643d2262756107008201527f736832223e3c706174682069643d226c32222066696c6c3d22233942423232346107208201527f2220643d224d31372d3420302d38342d31372d347a222f3e3c757365206872656107408201527f663d22236c3222207472616e73666f726d3d22726f7461746528333629222f3e6107608201527f3c75736520687265663d22236c3222207472616e73666f726d3d22726f7461746107808201527f6528373229222f3e3c75736520687265663d22236c3222207472616e73666f726107a08201527f6d3d22726f74617465282d333629222f3e3c75736520687265663d22236c32226107c08201527f207472616e73666f726d3d22726f74617465282d373229222f3e3c2f673e3c676107e08201527f2069643d2262616c6c223e3c636972636c652063783d222d3633222063793d226108008201527f36332220723d223633222066696c6c3d2223666666366363222f3e3c656c6c696108208201527f7073652063783d222d3633222063793d223633222066696c6c3d2223393430306108408201527f6533222072783d223431222072793d223633222f3e3c656c6c697073652063786108608201527f3d222d3633222063793d223633222066696c6c3d2223666566356362222072786108808201527f3d223131222072793d223633222f3e3c70617468207374726f6b653d222361616108a08201527f3664323922207374726f6b652d77696474683d22332220643d226d2d313033206108c08201527f313030203339203132346d34322d3132332d3432203132336d32312d3132332d6108e08201527f3231203132336d2d31392d31323420313920313235222f3e3c706174682066696109008201527f6c6c3d22236161366432392220643d224d2d313136203939683130357633682d6109208201527f3130357a6d302d3737683130367633682d3130362e356c2d2e352d335a222f3e6109408201527f3c706174682066696c6c3d22236161366432392220643d224d2d3635203130316109608201527f683376313039682d337a222f3e3c706174682066696c6c3d22233962623232346109808201527f2220643d224d2d373620323035683235763231682d32357a222f3e3c2f673e3c6109a08201527f672069643d226165726f706c616e65222066696c6c3d2223464246384635223e6109c08201527f3c7061746820643d224d3230203248306c322d326831356c332d327a222f3e3c6109e08201527f7061746820643d224d31352037682d324c352d3468327a222f3e3c7061746820610a008201527f643d224d323020316831373176314832307a22206f7061636974793d222e3322610a208201527f2f3e3c2f673e3c672069643d226c65616673223e3c706174682069643d22706c610a408201527f222066696c6c3d22233942423232342220643d224d2d37312d31323963302d31610a608201527f3820392d33342032342d34336c34372d32382d3238203437632d392031352d32610a808201527f362032342d3433203234222f3e3c75736520687265663d2223706c2220747261610aa08201527f6e73666f726d3d22726f746174652834352030202d32303029222f3e3c757365610ac08201527f20687265663d2223706c22207472616e73666f726d3d22726f74617465283930610ae08201527f2030202d32303029222f3e3c75736520687265663d2223706c22207472616e7380610b008301527f666f726d3d22726f74617465283138302030202d32303029222f3e3c75736520610b208301527f687265663d2223706c22207472616e73666f726d3d22726f7461746528323235610b40830152610b608201527f666f726d3d22726f74617465283237302030202d32303029222f3e3c2f673e3c610b808201527f672069643d2270616c6d31223e3c75736520687265663d2223666174222f3e3c610ba08201527f75736520687265663d22236c65616673222f3e3c2f673e3c672069643d227061610bc08201527f6c6d32223e3c75736520687265663d2223736d616c6c222f3e3c757365206872610be08201527f65663d22236c65616673222f3e3c2f673e3c672069643d2274616e6b65722220610c008201527f7374796c653d227472616e73666f726d2d6f726967696e3a30203131342e3970610c208201527f78223e3c706174682066696c6c3d22234634453546432220643d224d31332e36610c408201527f2d33382e30313468322e3876382e353635682d322e387a6d36312e3620304837610c608201527f3876382e353635682d322e387a222f3e3c672066696c6c3d2223463445354643610c808201527f223e3c7061746820643d224d37352e322d33382e30313448373876382e353635610ca08201527f682d322e387a222f3e3c7061746820643d224d37382d33382e30313476382e36610cc08201527f3633682d322e38762d382e363633222f3e3c2f673e3c706174682066696c6c3d610ce08201527f22234634453546432220643d224d3132312e382d33382e30313468322e387638610d008201527f2e353635682d322e387a222f3e3c672066696c6c3d2223463445354643223e3c610d208201527f7061746820643d224d3132312e382d33382e30313468322e3876382e35363568610d408201527f2d322e387a222f3e3c7061746820643d224d3132342e362d33382e3031347638610d608201527f2e363633682d322e38762d382e363633222f3e3c2f673e3c706174682066696c610d808201527f6c3d22234634453546432220643d224d3136322e332d33382e3530366833392e610da08201527f327631362e383334682d33392e327a6d2d342e322d362e3130346831332e3576610dc08201527f362e313034682d31332e357a222f3e3c706174682066696c6c3d222339343030610de08201527f45332220643d224d392e352d32382e323638683136352e3776332e3933384839610e008201527f2e357a222f3e3c706174682066696c6c3d22234434393946342220643d224d39610e208201527f2e352d32382e323638683136352e3776332e39333848392e357a222f3e3c7061610e408201527f74682066696c6c3d22233934303045332220643d224d3231342e342d32342e33610e608201527f334831342e326c382e362032302e373732683138332e317a222f3e3c70617468610e808201527f2066696c6c3d22234441443845302220643d224d392e352d33302e3533326831610ea08201527f36352e3776322e32363448392e357a222f3e3c706174682066696c6c3d222346610ec08201527f46462220643d224d36362e332d312e3738362031362e342d392e3236386c342e610ee08201527f3820372e3238357a6d3132332e33203020342e312d352e3331362036312e3820610f008201527f352e3231387a6d302d353768382e3676312e373732682d382e367a6d3020372e610f208201527f36373968382e367631322e36682d382e367a222f3e3c706174682066696c6c3d610f408201527f22234245313632322220643d224d3138392e362d35372e30313468382e367635610f608201527f2e393037682d382e367a222f3e3c706174682066696c6c3d2223464646222064610f808201527f3d224d3138392e362d35342e39343768382e3676312e373732682d382e367a22610fa08201527f2f3e3c2f673e3c672069643d22666973686572223e3c706174682066696c6c3d610fc08201527f22234339383046312220643d224d3138332e352d36342e336831302e3876342e610fe08201527f39682d31302e387a6d2d352e312d322e3768323176322e37682d32317a222f3e6110008201527f3c706174682066696c6c3d22234536333332412220643d224d3137382e362d356110208201527f342e346832302e3876392e33682d32302e387a222f3e3c706174682066696c6c6110408201527f3d22234245313632322220643d224d3136382e392d35392e366834302e3276356110608201527f2e32682d34302e327a222f3e3c706174682066696c6c3d2223464244313835226110808201527f20643d224d32352e322d32683831762d39312e377a222f3e3c706174682066696110a08201527f6c6c3d22234536333332412220643d224d3133322e312d392e324838312e33766110c08201527f2d33362e316835302e387a6d2d34362e362d342e316834322e34762d32372e396110e08201527f4838352e357a222f3e3c706174682066696c6c3d22234339383046312220643d6111008201527f226d3138302e352d31382e332d33382e372d37322e352d33382e362037322e356111208201527f2d332e372d312e392034322e332d37392e352034322e342037392e357a222f3e6111408201527f3c706174682066696c6c3d22233934303045332220643d224d3135392e362d326111608201527f322e386834372e386c392e312d31332e35682d35362e397a222f3e3c706174686111808201527f2066696c6c3d22234646462220643d224d3135392e362d34322e3876362e35686111a08201527f35362e396c342e342d362e357a222f3e3c706174682066696c6c3d22233934306111c08201527f3045332220643d224d3135362e362d34382e366836382e3576352e37682d36386111e08201527f2e357a222f3e3c706174682066696c6c3d22234339383046312220643d224d316112008201527f32342e332d36332e326833362e3476342e31682d33362e347a6d31312e322d356112208201527f312e336831322e3676342e31682d31322e367a222f3e3c706174682066696c6c6112408201527f3d22234339383046312220643d226d3134302e332d35392e372d33372d3336206112608201527f332d322e392033372033367a6d2d2e362d35322e3868342e327631372e32682d6112808201527f342e327a222f3e3c706174682066696c6c3d22234536333332412220643d224d6112a08201527f3139322e352d33302e387631312e354835392e394c37312e332d32683135302e6112c08201527f386c32322e332d32382e387a222f3e3c706174682066696c6c3d2223424531366112e08201527f32322220643d224d35392e392d31392e33683133322e36562d32354835362e316113008201527f7a222f3e3c706174682066696c6c3d22234646462220643d224d38362e372d316113208201527f372e3768382e3876332e38682d382e387a6d35382e32203068382e3876332e386113408201527f682d382e387a4d3232312d323768382e3876332e38483232317a4d3136382e346113608201527f20306c36372e392d31302d362e3620392e387a4d38392e3620302038342d372e6113808201527f3120302d2e317a4d33392e332d37372e3468362e3276362e317a4d35332d36366113a08201527f2e3668362e3176362e317a6d2d312e352d31372e3768362e3276367a4d33342e6113c08201527f372d39342e3568362e3176367a4d32342d37322e3268362e3276362e317a6d2d6113e08201527f362e322d31372e3348323476362e317a6d342e332d31332e3268362e3276367a6114008201527f4d33372e382d363268362e3176367a222f3e3c2f673e3c672069643d226275736114208201527f223e3c7061746820643d224d34312e352d3930483138367638312e384834312e6114408201527f357a4d302d39306834312e357638312e3848307a222f3e3c706174682066696c6114608201527f6c3d22236539346531622220643d224d34312e352d3732683133302e3976392e6114808201527f36374834312e357a222f3e3c706174682066696c6c3d222366396232333322206114a08201527f643d224d34312e352d36322e334830762d392e36376834312e357a222f3e3c636114c08201527f6972636c652063783d2236312e39222063793d222d382e322220723d22382e326114e08201527f222066696c6c3d2223653934653162222f3e3c636972636c652063783d2231336115008201527f392e39222063793d222d382e322220723d22382e32222066696c6c3d222365396115208201527f34653162222f3e3c636972636c652063783d22313634222063793d222d382e326115408201527f2220723d22382e32222066696c6c3d2223653934653162222f3e3c2f673e3c676115608201527f2069643d2263616d656c223e3c706174682066696c6c3d2223663238643030226115808201527f20643d224d33362e352d33332e312031342e342d37372e337634342e327a222f6115a08201527f3e3c706174682066696c6c3d22236632386430302220643d226d31342e342d336115c08201527f332e312033332e3120372e372033332e322d372e377a6d3020302033332e312d6115e08201527f34342e322033332e322034342e327a222f3e3c706174682066696c6c3d2223396116008201527f62623232342220643d226d33302e392d35352e322031362e362d32322e3120316116208201527f362e362032322e317a222f3e3c706174682066696c6c3d2223663238643030226116408201527f20643d224d32352e342d33332e312031342e342030762d33332e317a6d3020306116608201527f4c33362e352030762d33332e317a6d34342e3220304c35382e362030762d33336116808201527f2e317a6d3020304c38302e372030762d33332e317a4d31342e342d36362e33766116a08201527f2d31314c302d37342e3276332e317a222f3e3c706174682066696c6c3d2223626116c08201527f65313632322220643d224d332e332d37352e3768322e387634322e353448332e6116e08201527f337a222f3e3c2f673e3c672069643d22636f796f7465223e3c706174682066696117008201527f6c6c3d22236161366432392220643d224d33382e372d32332e36682d382e324c6117208201527f3136202e366831352e376c2d362e382d322e3720362e372d372e364c33382e376117408201527f2e367a4d3136202e3620342e382d322e322030202e367a6d31342e352d32342e6117608201527f3220332e392d31342e322e3920312e3520312d312e3720322e342031342e347a6117808201527f222f3e3c706174682066696c6c3d22236161366432392220643d226d33322e326117a08201527f2d32372e382d38203520372e352d312e317a222f3e3c706174682066696c6c3d6117c08201527f22233934303065332220643d224d33332d32382e36682e3476322e36364833336117e08201527f7a222f3e3c706174682066696c6c3d22236337396637322220643d226d32362d6118008201527f31372e3420342e352d362e3220322e382e3920352e342d2e3920312e3620362e6118208201527f322d322e372d312e362d332e3620342e352d322e322d342d332e3320332e322d6118408201527f2e352d322e387a222f3e3c2f673e3c672069643d22626174223e3c70617468206118608201527f66696c6c3d22233933303045322220643d224d372e35203232682d31354c30206118808201527f317a222f3e3c706174682066696c6c3d22233933303045322220643d226d372e6118a08201527f352033322d372d342d38203420382d32317a6d2d31312d333268377632682d376118c08201527f7a222f3e3c672069643d226261742d6d61736b222066696c6c3d2223464646226118e08201527f3e3c636972636c652063783d222d322e35222063793d2232352220723d2231226119008201527f2f3e3c636972636c652063783d22322e35222063793d2232352220723d2231226119208201527f2f3e3c2f673e3c2f673e3c672069643d2263616d706572223e3c7061746820666119408201527f696c6c3d22236161373033352220643d224d35302e3236332d35342e396831366119608201527f2e3876392e3934682d31362e387a222f3e3c706174682066696c6c3d222361616119808201527f366432392220643d224d33392e3136332d35396831332e387631302e3938682d6119a08201527f31332e387a222f3e3c706174682066696c6c3d22236632386430302220643d226119c08201527f6d32332e3236332d32312d32332e342d352e3420392e352d31352e356832332e6119e08201527f397a222f3e3c706174682066696c6c3d22236666656639392220643d226d3135611a008201527f2e3836332d35322e352d362e352031302e3668392e386c2d362e392031322e35611a208201527f2d31322e342033202e3320382e3120322e37203132683130302e346c33342e32611a408201527f2d382e34762d33332e346c2d332e372d342e347a222f3e3c706174682066696c611a608201527f6c3d22236265313632322220643d224d382e3136332d32332e34683132392e34611a808201527f76312e393148382e3136337a6d2d382e3320342e37683133372e3776312e3931611aa08201527f482d2e3133377a222f3e3c636972636c652063783d2232302e31363322206379611ac08201527f3d222d362e332220723d22362e34222066696c6c3d2223393430306533222f3e611ae08201527f3c636972636c652063783d2238352e303633222063793d222d362e332220723d611b008201527f22362e34222066696c6c3d2223393430306533222f3e3c672066696c6c3d2223611b208201527f663238643030223e3c706174682069643d2263616d7065722d6d61736b222064611b408201527f3d224d34362e3036332d34312e396831322e367632372e3636682d31322e367a611b608201527f6d31352e3920306831362e3376382e3738682d31362e337a6d2d32382e372030611b808201527f68382e327631322e3439682d382e327a6d36392e3920306833312e327631322e611ba08201527f3439682d33312e327a222f3e3c2f673e3c706174682066696c6c3d2223666666611bc08201527f2220643d224d2d2e3133372d32362e3468352e3476372e3338682d352e347a6d611be08201527f3020392e3968332e3176342e32682d332e317a222f3e3c2f673e3c672069643d611c008201527f2274656e74223e3c706174682066696c6c3d22236661643139392220643d224d611c208201527f35332e3036392d3631682d33342e344c2e3036392d31332e346835337a222f3e611c408201527f3c706174682066696c6c3d22236632386430302220643d226d35342e3036392d611c608201527f36312031382e352034372e36682d31382e357a6d2d3220302d31382e36203437611c808201527f2e366831382e367a222f3e3c672066696c6c3d22676f6c64223e3c7061746820611ca08201527f69643d2274656e742d6d61736b2220643d226d38342e3836392d332e3320312e611cc08201527f332d31322e3220342e3320342e3420352d313820332e3120313120342e352d35611ce08201527f2e3420352e322031322e3620332e392d322e3520342031302e317a222f3e3c2f611d008201527f673e3c706174682066696c6c3d22236536333332612220643d226d39302e3036611d208201527f392d332e3320392e332d372e322031302e3620372e327a222f3e3c7061746820611d408201527f66696c6c3d22236161373033352220643d224d38312e3136392d332e33683338611d608201527f2e3676332e3139682d33382e367a222f3e3c706174682066696c6c3d22233934611d808201527f303065332220643d224d35322e3036392d363168327634372e36682d327a222f611da08201527f3e3c2f673e3c706174682069643d22636163747573222066696c6c3d22233634611dc08201527f393632342220643d224d34312033387631394833315632386831375631314833611de08201527f38763130682d375630483136763530682d365633324830763236683136763330611e008201527f6831355636376832315633387a222f3e3c706174682069643d22706265617222611e208201527f2066696c6c3d22236666663663632220643d224d2d3431203068386c2d332d35611e408201527f2032312d3648384c32342030762d31366c382d31306831356c342d384c382d34611e608201527f38682d34306c2d392031367a222f3e3c706174682069643d22736d616c6c2220611e808201527f66696c6c3d22234141373033352220643d224d31302030762d3136364c302d32611ea08201527f30306c2d313020333456307a222f3e3c706174682069643d2266617422206669611ec08201527f6c6c3d22234141373033352220643d224d32392030762d3132304c302d323030611ee08201527f6c2d333120383056307a222f3e3c706174682069643d22706572736f6e222064611f008201527f3d224d302d3639683230563048307a222f3e3c706174682069643d2263616e67611f208201527f61222066696c6c3d22236161373033352220643d226d38332031343020323420611f408201527f322031352d3920392039203220313820313820382d31332d313020352d313720611f608201527f3120313420372d3135203133203120332d3220313520332d392d3968386c312d611f808201527f372d3132203620312d31312d362031342d352d312d32322d31352d313920342d611fa08201527f31342031347a22207472616e73666f726d3d227472616e736c617465282d3833611fc08201527f202d31363829222f3e3c7061747465726e2069643d2277617465722220776964611fe08201527f74683d2234353022206865696768743d2234363022206f766572666c6f773d226120008201527f76697369626c6522207061747465726e556e6974733d227573657253706163656120208201527f4f6e557365222076696577426f783d22313330202d3436322e352034353020346120408201527f3630223e3c706174682066696c6c3d226e6f6e652220643d224d3133302d34366120608201527f322e356834353076343630483133307a222f3e3c706174682066696c6c3d22236120808201527f4643443839392220643d224d3435302d313230683236307635483435307a4d326120a08201527f32352d35683236307635483232357a4d302d31323068323630763548307a6d346120c08201527f35302d323330683236307635483435307a4d3232352d323335683236307635486120e08201526121007f3232357a4d302d33353068323630763548307a6d3232352d3131356832363076818301527f35483232357a222f3e3c2f7061747465726e3e3c2f646566733e0000000000006121208301526000918254936001948581811c911680156129da575b828210146129c657601f8111612997575b5090839285945082908480528385209385915b80831061297e57505050614235945065ffffffffffff199101511690555560018060a01b0380958180958160018060a01b03199a168a60045416176004551688600554161760055516868254161790551683600254161760025516906003541617600355516132109081612a148239f35b838501518655889790950194928101929181019161290d565b84805285610109601f848820930160051c830192015b8281106129bb5750506128fa565b8681550186906129ad565b634e487b7160e01b85526022600452602485fd5b90607f16906128e9565b634e487b7160e01b600052604160045260246000fd5b600080fd5b51906001600160a01b03821682036129fa5756fe60a080604052600436101561001357600080fd5b60003560e01c908163018a5f4d146121d75750806313aa362d1461213b5780631c6e9c15146120ad578063228b974b14611fb057806324b2387e14611f46578063254811791461185c578063485c475f1461144757806371a973051461133b57806373075aff146112aa5780637a1ebd4d14611281578063a360376614611256578063a5c0594b1461122d578063bc90ad501461117e578063bcb9154314611155578063cba4cbbd146105db578063cfe839ec146105b2578063dda510f0146105895763f773e0b0146100e557600080fd5b34610584576003196000368201126105845760405161010381612b00565b600081526020604a19818301526040519261011d84612b37565b604d84527f3c672066696c6c3d2223396262323234223e3c7265637420783d222d34222079828501527f3d222d3734222077696474683d223822206865696768743d223734222f3e3c2160408501526c1696b632b0b316969f1e17b39f60991b60608501526040519061018f82612b6d565b608382527f3c672066696c6c3d22676f6c64223e3c7061746820643d224d32312d38354332838301527f382d39312032382d3130322032382d3130324332382d3130322031382d31303260408301527f2031312d393543352d383920352d373820352d373843352d37382031352d373960608301527f2032312d38355a222069643d2273756e50222f3e3c212d2d73756e502d2d3e3c60808301526217b39f60e91b60a0830152604051916328d1938160e11b83526000838061028660048201906040825260166040830152740f001e002d003c004b005a006900780087009600a560511b60608301526002602060808401930152565b038173__$55e308ee0cc2c89b0b139d5735dcdc1f21$__5af49283156105065760009361055f575b50604051906102bc82612b52565b6002825284820191604036843780511561054957600219835280516001929083101561054957610332600091610353996047604086015261036e61036373__$2d8ca8bf86eea40aef689c316826963c89$__9a6040519d8e968796636c671b3d60e11b885260a0600489015260a48801906127f8565b8681038d0160248801526004815263073756e560e41b602082015260400190565b908b868303016044870152612ccb565b916064840190612cff565b0381885af49687156105065760009761052c575b50916103b19793928692836103d26040519b8c98630e267c1560e21b8a5260a060048b015260a48a01906127f8565b888103880160248a01526004815263073756e560e41b602082015260400190565b9286888503016044890152519283815201929160005b818110610512575050505060009492633632b0b360e11b8593604093886064870152858103938401608487015260048152015201915af4928315610506576000936104dd575b506104d99060405161043f81612b52565b602f81527f3c636972636c652066696c6c3d2223396262323234222063783d223022206379828201526e1e91169b9a9110391e91191b11179f60891b60408201527f3c636972636c652066696c6c3d2223616137303335222063783d223022206379604051926104ae84612b52565b602f84528301526e1e91169b9a9110391e91189c11179f60891b60408301526040519485948561281d565b0390f35b6104d99193506104ff903d806000833e6104f78183612b88565b810190612ca6565b929061042e565b6040513d6000823e3d90fd5b8351830b85528b97508995948501949093019282016103e8565b6105429197503d806000833e6104f78183612b88565b9538610382565b634e487b7160e01b600052603260045260246000fd5b61057d9193503d806000833e6105758183612b88565b810190612c21565b91386102ae565b600080fd5b34610584576000366003190112610584576005546040516001600160a01b039091168152602090f35b34610584576000366003190112610584576001546040516001600160a01b039091168152602090f35b346105845760003660031901126105845760405161018081018181106001600160401b0382111761113f5760405261015b81527f3c706174682066696c6c3d22233963623032362220643d224d382c2d3134302e60208201527f346131302e382c31302e382c302c302c302d342e382d2e362c31322e342c313260408201527f2e342c302c302c302c2e312d342e392c31312e372c31312e372c302c302c302d60608201527f332e352c332e332c31312e382c31312e382c302c302c302d332e372d332c313160808201527f2e322c31312e322c302c302c302c2e342c342e382c31302e332c31302e332c3060a08201527f2c302c302d342e372c312c31312e352c31312e352c302c302c302c342c322e3760c08201527f2c31312c31312c302c302c302d322e322c342e332c31322e312c31322e312c3060e08201527f2c302c302c342e362d312e352c31302e372c31302e372c302c302c302c322c346101008201527f2e342c31312e332c31312e332c302c302c302c312e382d342e352c31302e312c6101208201527f31302e312c302c302c302c342e362c312e312c31302e382c31302e382c302c306101408201527f2c302d322e342d342e314131322c31322c302c302c305a22202f3e0000000000610160820152604051906107c182612b37565b605282527f3c636972636c652066696c6c3d2223663764363064222063793d222d3133382260208301527f20723d2237222f3e3c636972636c652066696c6c3d22236663656639652220636040830152713c9e911698999c1110391e911a171b91179f60711b60608301526040519061042082018281106001600160401b0382111761113f576040526103fb82527f3c706174682066696c6c3d22236536333332612220643d224d31382e36202d3160208301527f333361352e3920352e392030203030332e382d372e342036203620302030302d60408301527f332e362d332e3720362e3420362e3420302030302e372d352e3120362036203060608301527f2030302d372e342d332e3720362e3120362e3120302030302d322e3420312e3560808301527f20362e3120362e3120302030302e372d322e3820352e3920352e39203020303060a08301527f2d352e392d352e3820352e3620352e3620302030302d342e3620322e3341352e60c08301527f3920352e392030203030202d31302e36202d3135346136203620302030302e3760e08301527f20322e3720362e3120362e3120302030302d322e342d312e3520352e3820352e6101008301527f3820302030302d362e3620382e3920352e3820352e3820302030302d332e36206101208301527f332e3720352e3920352e392030203030332e3820372e3420372e3520372e35206101408301527f30203030322e382e3220362e3520362e3520302030302d322e3220312e3820356101608301527f2e3820352e382030203030312e3420382e3220362036203020303035202e39206101808301527f352e3820352e382030203030322e3520342e3520352e3720352e3720302030306101a08301527f382e312d312e3420362e3120362e312030203030312e312d322e3520352e34206101c08301527f352e342030203030312e3120322e3620352e3720352e372030203030382e31206101e08301527f312e3220352e3420352e342030203030322e342d342e3520352e3920352e39206102008301527f30203030352e312d2e3920352e3820352e382030203030312e322d382e3220366102208301527f2e3420362e3420302030302d322e312d312e3820352e3720352e3720302030306102408301527f322e382d2e327a6d2d31362e392d322e3461342e3920342e3920302030302d316102608301527f2e3820322036203620302030302d312e382d322e3120352e3520352e352030206102808301527f30302d322e352d3120352e3520352e352030203030312e352d322e3420362e326102a08301527f20362e3220302030302e322d322e37203620362030203030322e372e3720352e6102c08301527f3920352e392030203030322e362d2e3720362e3720362e3720302030302e32206102e08301527f322e3820352e3920352e392030203030312e3420322e3320352e3120352e31206103008301527f302030302d322e3520312e317a22202f3e3c706174682066696c6c3d222365616103208301527f636366392220643d224d31302e36202d3134312e336136203620302030302d356103408301527f2e322d3420352e3820352e3820302030302d352e352d332e3720352e3920352e6103608301527f3920302030302d352e3420332e3720352e3920352e3920302030302d352e32206103808301527f3420362e3120362e312030203030312e3820362e3320352e3720352e372030206103a08301527f3030322e3320362e3220352e3720352e372030203030362e352e3320352e39206103c08301527f352e392030203030362e362d2e3320352e3720352e372030203030322e322d366103e08301527f2e3120352e3920352e392030203030312e392d362e347a22202f3e000000000061040083015260405192836103608101106001600160401b036103608601111761113f576104d991610360850160405261032a85527f3c706174682066696c6c3d22233963623032362220643d224d3336202d31303060208601527f2e3663342e372d2e3620382d342e3720382d342e37732d342e332d332e322d3860408601527f2e392d322e362d3820342e372d3820342e3720342e3220332e3220382e39203260608601527f2e367a4d32372e31202d3932633420322e3520392e3220312e3420392e32203160808601527f2e34732d312e332d352e312d352e332d372e362d392e312d312e352d392e312d60a08601527f312e3520312e3220352e3120352e3220372e377a4d313920202d383863322e3960c08601527f20332e3720382e3220342e3420382e3220342e34732e352d352e322d322e342d60e08601527f382e392d382e322d342e352d382e322d342e352d2e3520352e3320322e3420396101008601527f7a4d31312e31202d38352e3663312e3720342e3320362e3520362e3620362e356101208601527f20362e3673322d342e392e332d392e332d362e352d362e362d362e352d362e366101408601527f2d3220342e382d2e3320392e337a22202f3e3c706174682066696c6c3d2223396101608601527f63623032362220643d224d31382e38202d3130372e37632e322d342e3720342d6101808601527f382e3320342d382e3373332e3520332e3920332e3320382e362d3420382e342d6101a08601527f3420382e342d332e352d332e392d332e332d382e377a4d31302e37202d3130346101c08601527f632d312e342d342e3520312d392e3220312d392e3273342e3720322e352036206101e08601527f372d3120392e332d3120392e332d342e362d322e362d362d372e317a4d332e336102008601527f202d3938632d322e372d332e392d312e382d392e322d312e382d392e3273352e6102208601527f3220312e3120372e39203520312e3720392e3220312e3720392e322d352e322d6102408601527f312e312d372e382d357a22202f3e3c706174682066696c6c3d226e6f6e6522206102608601527f7374726f6b653d222339636230323622207374726f6b652d6c696e656361703d6102808601527f22726f756e642220207374726f6b652d77696474683d22332220643d224d2d306102a08601527f2e32202d313338632d2e322e332d332e3420372d332e372032322e327331342e6102c08601527f322035382d312e3120313135222f3e203c706174682066696c6c3d226e6f6e656102e08601527f22207374726f6b653d22233963623032362220207374726f6b652d77696474686103008601527f3d22322220643d224d302e37202d38342e367331332e362d31342e392032372e610320860152691c16989c171a9110179f60b11b6103408601526040519485948561281d565b634e487b7160e01b600052604160045260246000fd5b34610584576000366003190112610584576002546040516001600160a01b039091168152602090f35b346105845760208060031936011261058457600480546001600160a01b03169035607619810190811161121757829060246040518094819363b00a26b760e01b835260048301525afa908115610506576000916111e1575b506040519015158152f35b90508181813d8311611210575b6111f88183612b88565b810103126105845751801515810361058457826111d6565b503d6111ee565b634e487b7160e01b600052601160045260246000fd5b34610584576000366003190112610584576003546040516001600160a01b039091168152602090f35b34610584576020366003190112610584576104d9611275600435612dea565b604051918291826128ad565b34610584576000366003190112610584576004546040516001600160a01b039091168152602090f35b3461058457602036600319011261058457600480546001600160a01b03169035601219810190811161121757600090602460405180948193637cc3bd5160e01b835260048301525afa90811561050657600090600092611315575b506104d960405192839283612868565b905061133491503d806000833e61132c8183612b88565b810190612d29565b9082611305565b3461058457600036600319011261058457604051600080549060018260011c916001841691821561143d575b60209485851084146114275785879486865291826000146114075750506001146113ad575b5061139992500383612b88565b6104d96040519282849384528301906127f8565b6000808052859250907f290decd9548b62a8d60345a988386fc84ba6bc95484008f6362f93160ef3e5635b8583106113ef57505061139993508201018561138c565b805483890185015287945086939092019181016113d8565b60ff19168582015261139995151560051b850101925087915061138c9050565b634e487b7160e01b600052602260045260246000fd5b92607f1692611367565b346105845760003660031901126105845760405161016081018181106001600160401b0382111761113f57611615916000916040527e6401706265617200000000001c20000038400000a8c000000e1000000064026101408083527f0b706572736f6e0000000046500000546000000e1000001c200000006401636160208401527f6d656c00000000004650000054600000546000001c200000006401636174000060408401527a4650000054600000546000001c200000006400627573000000000060608401527d3840000070800000465000001c20000000640163616e676100000000003860808401527f400000708000002a3000001c200000003202626174000000000000001c20000060a08401527f384000002a3000000e100000001e0063616d706572000000004650000054600060c08401527e708000001c20000000640274656e740000000000004650000054600000708060e08401527d1c200000006402636f796f7465000000004650000054600000708000001c6101008401527f200000006402636f77000000000000004650000054600000708000001c20000061012084015282015260405180938192634a9fd61360e01b83526020600484015260248301906127f8565b038173__$55e308ee0cc2c89b0b139d5735dcdc1f21$__5af4908115610506576000916116f3575b506040518091602082016020835281518091526040830190602060408260051b8601019301916000905b82821061167657505050500390f35b919360019193955060208091603f1989820301855287519060c0806116a4845160e0855260e08501906127f8565b93858101518685015260408101516040850152606081015160608501526080810151608085015260a081015160a08501520151916116e18361288d565b01529601920192018594939192611667565b3d9150816000823e6117058282612b88565b60208183810103126105845780516001600160401b03811161058457828201601f82840101121561058457808201519061173e82612ba9565b9361174c6040519586612b88565b828552602085019181850160208560051b83880101011161058457602081860101925b60208560051b8388010101841061178c575050505050508161163d565b83516001600160401b0381116105845760e0878401820185890103601f190112610584576040519060e082018281106001600160401b0382111761113f57604052602081858a01010151906001600160401b038211610584576117fd89602060e09484898b85019401010101612c8c565b8352888501016040818101516020850152606080830151918501919091526080808301519185019190915260a0808301519185019190915260c082015190840152015160038110156105845760c082015281526020938401930161176f565b3461058457602036600319011261058457600435611878612d6c565b50610140811015611f095761188b612d6c565b506013811015611ef8576007811015611e3457600154604051633fb75bfb60e21b81526004810192909252600090829060249082906001600160a01b03165afa90811561050657611904916000918291611e12575b505b604051809381926327a8dd9560e21b83526020600484015260248301906127f8565b038173__$55e308ee0cc2c89b0b139d5735dcdc1f21$__5af4801561050657600090611944575b6104d991506000610100820152604051918291826128ad565b503d806000833e6119558183612b88565b60208282810103126105845781516001600160401b0381116105845782016080526101206080518284010312610584576040519161199283612b1b565b608051516001600160401b038111610584576119b5908383019060805101612c8c565b8352602060805101516020840152604060805101516040840152606060805101516060840152608080510151608084015260a060805101516001600160401b03811161058457611a0c908383019060805101612c8c565b60a084015260c060805101516001600160401b03811161058457828201601f82608051010112156105845780608051015190611a4782612ba9565b91611a556040519384612b88565b8083526020830185850160208360051b8560805101010111610584576020836080510101905b60208360051b856080510101018210611c6d575050505060c084015260e06080510151916001600160401b03831161058457808201601f84608051010112156105845782608051015190611ace82612ba9565b93611adc6040519586612b88565b828552602085019082850160208560051b8360805101010111610584576020816080510101915b60208560051b836080510101018310611b405750505050505060e0820152610100908160805101516004811015610584576104d99282015261192b565b8251906001600160401b0382116105845760a0601f1983856080510101878a0103011261058457604051918260a08101106001600160401b0360a08501111761113f5760a08301604052602081856080510101015160038110156105845783526040818560805101010151600381101561058457602084015260608185608051010101516001600160401b03811161058457611bea906020888b0191848860805101010101612bc0565b6040840152608081858251010101516001600160401b03811161058457611c1f906020888b0191848860805101010101612c8c565b606084015260a0818560805101010151916001600160401b03831161058457602093611c5b8594938580958b8e01928a60805101010101612c8c565b60808201528152019301929050611b03565b81516001600160401b0381116105845760e0601f19828760805101018a8a010301126105845760405190611ca082612b37565b60208187608051010101516001600160401b03811161058457611cd19060208b8b0191848a60805101010101612c8c565b825260408187608051010101516001600160401b03811161058457898901603f82848a608051010101011215610584576020818389608051010101015190611d1882612ba9565b91611d266040519384612b88565b808352602083018c8c0160408b85888660051b9260805101010101011161058457604083868c60805101010101905b60408b85888660051b9260805101010101018210611df857505050506020830152888801607f8288608051010101121561058457604051611d9581612b37565b808a8a0160e0848a608051010101116105845760608389608051010101905b60e0848a6080510101018210611de8575050604083015260805186010160e001516060820152815260209182019101611a7b565b8151815260209182019101611db4565b815160ff8116810361058457815260209182019101611d55565b611e2e91503d8084833e611e268183612b88565b810190612db4565b836118e0565b600e811015611ea8576002546001600160a01b031690600619810190811161121757600090602460405180948193633fb75bfb60e21b835260048301525afa90811561050657611904916000918291611e8e575b506118e2565b611ea291503d8084833e611e268183612b88565b83611e88565b6003546001600160a01b031690600d19810190811161121757600090602460405180948193633fb75bfb60e21b835260048301525afa90811561050657611904916000918291611e8e57506118e2565b611f046104d991612dea565b611275565b60405162461bcd60e51b8152602060048201526015602482015274546f6b656e204944206f7574206f662072616e676560581b6044820152606490fd5b3461058457602036600319011261058457600480546001600160a01b0316903560121981019081116112175760009060246040518094819363c1321e1960e01b835260048301525afa9081156105065760009060009261131557506104d960405192839283612868565b3461058457602036600319011261058457600480546001600160a01b0316903560da1981019081116112175760009060246040518094819363228b974b60e01b835260048301525afa801561050657600090600092600091612041575b50612037612029936040519485946060865260608601906127f8565b9084820360208601526127f8565b9060408301520390f35b925050503d806000833e6120558183612b88565b8101906060818303126105845780516001600160401b03908181116105845783612080918401612c8c565b9060208301519081116105845760406120a161202995612037938601612c8c565b9301519192935061200d565b346105845760208060031936011261058457600480546001600160a01b031690356076198101908111611217578290602460405180948193631c6e9c1560e01b835260048301525afa9081156105065760009161210e575b50604051908152f35b90508181813d8311612134575b6121258183612b88565b81010312610584575182612105565b503d61211b565b346105845760208060031936011261058457600480546001600160a01b03908116913560761981019081116112175783906024604051809581936313aa362d60e01b835260048301525afa9182156105065760009261219f575b5060405191168152f35b9091508281813d83116121d0575b6121b78183612b88565b8101031261058457518181168103610584579083612195565b503d6121ad565b346105845760031990600036830112610584576328d1938160e11b815260406004820152601660448201527e1e003c005a0078009600b400d200f0010e012c014a0000000000000000000060648201526002602482015260008160848173__$55e308ee0cc2c89b0b139d5735dcdc1f21$__5af4908115610506576000916127ba575b50604051916101c08301908382106001600160401b0383111761113f5760006127416126f5869365195c195d185b60d21b956040526127616103636101a0988988527f2c362e322c31352e32532d392e362c2d302e352c2d31352c2d362e337a222f3e60209a7f3c67207374796c653d227472616e73666f726d3a726f7461746559283c212d2d8c8b01527f617a69537469636b2d2d3e293b207472616e73666f726d2d626f783a66696c6c60408b01527f2d626f783b20207472616e73666f726d2d6f726967696e3a63656e746572223e60608b01527f3c706f6c79676f6e2066696c6c3d22233942423232342220706f696e74733d2260808b01527f2d372e352c2d353220382c2d353220332c2d33202d322e362c2d33222f3e3c2f60a08b01527f673e3c706174682066696c6c3d22233942423232342220643d224d31352e362c60c08b01527f2d362e3363352e392d352e382c362e322d31352e322c362e322d31352e32732d60e08b01527f2e342c302e312c31352e332c352e3963352e392c352e382c362e322c31352e326101806101009b7f392e342c302e312d31352e332c352e39632d352e392c352e382d362e322c31358d8201527f2e322d362e322c31352e3253392e362c2d302e352c31352e362c2d362e337a226101208201527f2f3e3c706174682066696c6c3d22233942423232342220643d224d2d31352c2d6101408201527f362e33632d352e392d352e382d362e322d31352e322d362e322d31352e32733961016082015201528c0152604080519a61249e8c612b52565b60338c527f3c636972636c652066696c6c3d2223394242323234222063783d22302e322220818d01527231bc9e91169a991110391e911b971c1110179f60691b828d0152815199601f60f91b906124f48c612b1b565b60e18c527f3c636972636c6520207374726f6b652d77696474683d22332e3522207374726f838d01527f6b653d2223423935394544222066696c6c3d2223393330304532222063793d22848d01527f2d35322220723d2231322e3522202f3e3c636972636c652066696c6c3d22234660608d01527f4646464646222063783d222d34222063793d222d35352220723d22322e32222f60808d01527f3e3c636972636c652066696c6c3d2223464646464646222063783d223422206360a08d01527f793d222d35352220723d22322e32222f3e3c636972636c652066696c6c3d222360c08d01527f464646464646222063783d2230222063793d222d34382220723d22322e32222f60e08d01528b0152603c82519661261188612b00565b8a88526033198389015261271f6034855161262b81612b6d565b608981528581017f3c706174682069643d2265706574616c222066696c6c3d22234541434346392281527f20643d224d302e382c2d36382e38632d312e382d362e322d372e392d392e392d888301527f372e392d392e39732d332e342c362e342d312e382c31322e3563312e372c362e60608301527f322c372e392c392e382c372e392c392e3853322e352c2d36322e362c302e382c608083015268169b1c171c3d11179f60b91b60a083015287519c8d92621e339f60e91b8985015251809260238501906127d5565b8101701e109696b2b832ba30b616969f1e17b39f60791b602382015203601481018c52018a612b88565b8351636c671b3d60e11b815260a060048201529c8d9a8b9a60a48c01906127f8565b938a850392830160248c0152600685528401520160448801520190612ccb565b038173__$2d8ca8bf86eea40aef689c316826963c89$__5af49182156105065760009261279b575b506104d991926040519485948561281d565b6104d992506127b4903d806000833e6104f78183612b88565b91612789565b6127cf91503d806000833e6105758183612b88565b8261225a565b60005b8381106127e85750506000910152565b81810151838201526020016127d8565b90602091612811815180928185528580860191016127d5565b601f01601f1916010190565b92612849612865959361283b612857946080885260808801906127f8565b9086820360208801526127f8565b9084820360408601526127f8565b9160608184039101526127f8565b90565b909161287f612865936040845260408401906127f8565b9160208184039101526127f8565b6003111561289757565b634e487b7160e01b600052602160045260246000fd5b6020815261290a6128cc835161012060208501526101408401906127f8565b602084015160408401526040840151606084015260608401516080840152608084015160a084015260a0840151601f198483030160c08501526127f8565b9160c081015192601f198382030160e0840152835180825260208201916020808360051b8301019601926000915b838310612a4d57505050505060e081015192601f1983820301610100840152835180825260208201916020808360051b8301019601926000915b838310612995575050505050610100015190600482101561289757610120015290565b9091929396601f1982820301835287519060a0810182516129b58161288d565b825260208301516129c58161288d565b602083015260408301519060a060408401528151809152602060c084019201906000905b808210612a3557505050612a26836020936080612a1586956060600199015184820360608601526127f8565b9201519060808184039101526127f8565b99019301930191939290612972565b909192602080600192865181520194019201906129e9565b9091929396601f19828203018352875190612a71825160e0835260e08301906127f8565b916020810151928281036020840152602080855192838152019401906000905b808210612ae55750505060408181015160009184015b60048310612acf575050506060015160c0909101529660209081019493600101920190612938565b6020806001928451815201920192019190612aa7565b90919460208060019260ff8951168152019601920190612a91565b604081019081106001600160401b0382111761113f57604052565b61012081019081106001600160401b0382111761113f57604052565b608081019081106001600160401b0382111761113f57604052565b606081019081106001600160401b0382111761113f57604052565b60c081019081106001600160401b0382111761113f57604052565b90601f801991011681019081106001600160401b0382111761113f57604052565b6001600160401b03811161113f5760051b60200190565b9080601f8301121561058457815190602091612bdb81612ba9565b93612be96040519586612b88565b81855260208086019260051b82010192831161058457602001905b828210612c12575050505090565b81518152908301908301612c04565b906020828203126105845781516001600160401b038111610584576128659201612bc0565b909291926001600160401b03811161113f5760405191612c70601f8301601f191660200184612b88565b829482845282820111610584576020612c8a9301906127d5565b565b9080601f8301121561058457815161286592602001612c46565b906020828203126105845781516001600160401b038111610584576128659201612c8c565b90815180825260208080930193019160005b828110612ceb575050505090565b835185529381019392810192600101612cdd565b6000915b60028310612d1057505050565b6001908251820b81526020809101920192019190612d03565b919091604081840312610584578051926001600160401b03938481116105845781612d55918401612c8c565b936020830151908111610584576128659201612c8c565b60405190612d7982612b1b565b60006101008360608152826020820152826040820152826060820152826080820152606060a0820152606060c0820152606060e08201520152565b602081830312610584578051906001600160401b03821161058457019080601f8301121561058457815161286592602001612c46565b612df2612d6c565b50604090815190612e0282612b37565b60609081835260009182816020958287820152828882015201528094612e26612d6c565b9584908390607786101561303e5750506004546001966001600160a01b039590925090851690601219810190811161302a57869060248551809481936337ccfd9960e21b835260048301525afa9081156130065760049187918291613010575b509560055416845192838092630f932c8360e41b82525afa90811561300657612ed793929187918291612fec575b50955b8351809581926327f9164d60e01b835285600484015260248301906127f8565b038173__$55e308ee0cc2c89b0b139d5735dcdc1f21$__5af4928315612fe25790849392918793612f52575b50825189528083015190890152808201519088015201519085015260a084015261013660808401526004821015612f3e575061010082015290565b634e487b7160e01b81526021600452602490fd5b91925092503d8087833e612f668183612b88565b81018382820312612fde5781516001600160401b0392838211612fd6570190608082820312612fda57835192612f9b84612b37565b8251908111612fd65791612fb787969594939287938301612c8c565b8352848101518584015283810151848401520151848201529138612f03565b8880fd5b8780fd5b8680fd5b82513d88823e3d90fd5b61300091503d8084833e6104f78183612b88565b38612eb4565b83513d88823e3d90fd5b61302491503d8084833e611e268183612b88565b38612e86565b634e487b7160e01b87526011600452602487fd5b60db8610156131025750506004546002966001600160a01b039590925090851690607619810190811161302a578690602485518094819363ec7803c560e01b835260048301525afa90811561300657600491879182916130e8575b50956005541684519283809263e7e5a56360e01b82525afa90811561300657612ed7939291879182916130ce575b5095612eb7565b6130e291503d8084833e6104f78183612b88565b386130c7565b6130fc91503d8084833e611e268183612b88565b38613099565b909461013f819893981061311e575b509085612ed79392612eb7565b600454600398506001600160a01b0396508616915060da19810190811161302a578690602485518094819363ebb57c6560e01b835260048301525afa90811561300657600491879182916131c0575b5095600554168451928380926384f959ab60e01b82525afa90811561300657612ed7939291879182916131a6575b509591929350613111565b6131ba91503d8084833e6104f78183612b88565b3861319b565b6131d491503d8084833e611e268183612b88565b3861316d56fea264697066735822122071aff258f961184aeaf0df1bd9a3d56bc65e97f35b89a6cd559dce6d1959323f64736f6c63430008190033","linkReferences":{"contracts/NDDecoder.sol":{"NDDecoder":[{"start":11422,"length":20},{"start":16429,"length":20},{"start":17180,"length":20},{"start":19530,"length":20},{"start":22767,"length":20}]},"contracts/NDRenderer.sol":{"NDRenderer":[{"start":11535,"length":20},{"start":20857,"length":20}]}}},"methodIdentifiers":{"assets()":"71a97305","genericMotifs()":"7a1ebd4d","genericMotifsSVG()":"dda510f0","getAssetInScene()":"485c475f","getBeachColor(uint256)":"24b2387e","getClimateZoneForLandscape(uint256)":"228b974b","getGenericMotif(uint256)":"a3603766","getGentian()":"018a5f4d","getMotifByTokenId(uint256)":"25481179","getRose()":"cba4cbbd","getSkinColor(uint256)":"73075aff","getSkylineType(uint256)":"1c6e9c15","getSunflower()":"f773e0b0","getTradingChartAddress(uint256)":"13aa362d","isCityCoastel(uint256)":"bc90ad50","seightSeeing3()":"a5c0594b","sightSeeing1()":"cfe839ec","sightSeeing2()":"bcb91543"},"id":5}