{"abi":[{"type":"constructor","inputs":[{"name":"_genericMotifAddress","type":"address","internalType":"address"},{"name":"_genericMotifSVGAddress","type":"address","internalType":"address"},{"name":"_motifAdress1","type":"address","internalType":"address"},{"name":"_motifAdress2","type":"address","internalType":"address"},{"name":"_motifAdress3","type":"address","internalType":"address"}],"stateMutability":"nonpayable"},{"type":"function","name":"assets","inputs":[],"outputs":[{"name":"","type":"string","internalType":"string"}],"stateMutability":"view"},{"type":"function","name":"genericMotifs","inputs":[],"outputs":[{"name":"","type":"address","internalType":"contract GenericMotifs"}],"stateMutability":"view"},{"type":"function","name":"genericMotifsSVG","inputs":[],"outputs":[{"name":"","type":"address","internalType":"contract GenericMotifsSVG"}],"stateMutability":"view"},{"type":"function","name":"getAssetInScene","inputs":[],"outputs":[{"name":"","type":"tuple[]","internalType":"struct AssetInScene[]","components":[{"name":"name","type":"string","internalType":"string"},{"name":"minDuration","type":"uint256","internalType":"uint256"},{"name":"maxDuration","type":"uint256","internalType":"uint256"},{"name":"checkInterval","type":"uint256","internalType":"uint256"},{"name":"possibleOffset","type":"uint256","internalType":"uint256"},{"name":"probability","type":"uint256","internalType":"uint256"},{"name":"dayTime","type":"uint8","internalType":"enum DAYTIME"}]}],"stateMutability":"pure"},{"type":"function","name":"getBeachColor","inputs":[{"name":"tokenId","type":"uint256","internalType":"uint256"}],"outputs":[{"name":"","type":"string","internalType":"string"},{"name":"","type":"string","internalType":"string"}],"stateMutability":"view"},{"type":"function","name":"getClimateZoneForLandscape","inputs":[{"name":"tokenId","type":"uint256","internalType":"uint256"}],"outputs":[{"name":"","type":"string","internalType":"string"},{"name":"","type":"string","internalType":"string"},{"name":"","type":"uint256","internalType":"uint256"}],"stateMutability":"view"},{"type":"function","name":"getGenericMotif","inputs":[{"name":"tokenId","type":"uint256","internalType":"uint256"}],"outputs":[{"name":"","type":"tuple","internalType":"struct Motif","components":[{"name":"name","type":"string","internalType":"string"},{"name":"lat","type":"int256","internalType":"int256"},{"name":"lng","type":"int256","internalType":"int256"},{"name":"heading","type":"int256","internalType":"int256"},{"name":"horizon","type":"int256","internalType":"int256"},{"name":"svg","type":"string","internalType":"string"},{"name":"scenes","type":"tuple[]","internalType":"struct SceneInMotif[]","components":[{"name":"placeHolder","type":"string","internalType":"string"},{"name":"assets","type":"uint8[]","internalType":"uint8[]"},{"name":"area","type":"int256[4]","internalType":"int256[4]"},{"name":"scale","type":"uint256","internalType":"uint256"}]},{"name":"replacements","type":"tuple[]","internalType":"struct Replacement[]","components":[{"name":"tag","type":"uint8","internalType":"enum ObjectType"},{"name":"dataType","type":"uint8","internalType":"enum RenderDataType"},{"name":"data","type":"int256[]","internalType":"int256[]"},{"name":"placeholder","type":"string","internalType":"string"},{"name":"ref","type":"string","internalType":"string"}]},{"name":"motifType","type":"uint8","internalType":"enum MotifType"}]}],"stateMutability":"view"},{"type":"function","name":"getGentian","inputs":[],"outputs":[{"name":"","type":"string","internalType":"string"},{"name":"","type":"string","internalType":"string"},{"name":"","type":"string","internalType":"string"},{"name":"","type":"string","internalType":"string"}],"stateMutability":"pure"},{"type":"function","name":"getLandScapeTraits","inputs":[{"name":"tokenId","type":"uint256","internalType":"uint256"}],"outputs":[{"name":"","type":"bool","internalType":"bool"},{"name":"","type":"bool","internalType":"bool"},{"name":"","type":"bool","internalType":"bool"},{"name":"","type":"bool","internalType":"bool"},{"name":"","type":"string","internalType":"string"}],"stateMutability":"view"},{"type":"function","name":"getMotifByTokenId","inputs":[{"name":"tokenId","type":"uint256","internalType":"uint256"}],"outputs":[{"name":"","type":"tuple","internalType":"struct Motif","components":[{"name":"name","type":"string","internalType":"string"},{"name":"lat","type":"int256","internalType":"int256"},{"name":"lng","type":"int256","internalType":"int256"},{"name":"heading","type":"int256","internalType":"int256"},{"name":"horizon","type":"int256","internalType":"int256"},{"name":"svg","type":"string","internalType":"string"},{"name":"scenes","type":"tuple[]","internalType":"struct SceneInMotif[]","components":[{"name":"placeHolder","type":"string","internalType":"string"},{"name":"assets","type":"uint8[]","internalType":"uint8[]"},{"name":"area","type":"int256[4]","internalType":"int256[4]"},{"name":"scale","type":"uint256","internalType":"uint256"}]},{"name":"replacements","type":"tuple[]","internalType":"struct Replacement[]","components":[{"name":"tag","type":"uint8","internalType":"enum ObjectType"},{"name":"dataType","type":"uint8","internalType":"enum RenderDataType"},{"name":"data","type":"int256[]","internalType":"int256[]"},{"name":"placeholder","type":"string","internalType":"string"},{"name":"ref","type":"string","internalType":"string"}]},{"name":"motifType","type":"uint8","internalType":"enum MotifType"}]}],"stateMutability":"view"},{"type":"function","name":"getRose","inputs":[],"outputs":[{"name":"","type":"string","internalType":"string"},{"name":"","type":"string","internalType":"string"},{"name":"","type":"string","internalType":"string"},{"name":"","type":"string","internalType":"string"}],"stateMutability":"pure"},{"type":"function","name":"getSkinColor","inputs":[{"name":"tokenId","type":"uint256","internalType":"uint256"}],"outputs":[{"name":"","type":"string","internalType":"string"},{"name":"","type":"string","internalType":"string"}],"stateMutability":"view"},{"type":"function","name":"getSkylineType","inputs":[{"name":"tokenId","type":"uint256","internalType":"uint256"}],"outputs":[{"name":"","type":"uint256","internalType":"uint256"}],"stateMutability":"view"},{"type":"function","name":"getSunflower","inputs":[],"outputs":[{"name":"","type":"string","internalType":"string"},{"name":"","type":"string","internalType":"string"},{"name":"","type":"string","internalType":"string"},{"name":"","type":"string","internalType":"string"}],"stateMutability":"pure"},{"type":"function","name":"getTradingChartAddress","inputs":[{"name":"tokenId","type":"uint256","internalType":"uint256"}],"outputs":[{"name":"","type":"address","internalType":"address"}],"stateMutability":"view"},{"type":"function","name":"isCityCoastel","inputs":[{"name":"tokenId","type":"uint256","internalType":"uint256"}],"outputs":[{"name":"","type":"bool","internalType":"bool"},{"name":"","type":"string","internalType":"string"}],"stateMutability":"view"},{"type":"function","name":"seightSeeing3","inputs":[],"outputs":[{"name":"","type":"address","internalType":"contract IMotifData"}],"stateMutability":"view"},{"type":"function","name":"sightSeeing1","inputs":[],"outputs":[{"name":"","type":"address","internalType":"contract IMotifData"}],"stateMutability":"view"},{"type":"function","name":"sightSeeing2","inputs":[],"outputs":[{"name":"","type":"address","internalType":"contract IMotifData"}],"stateMutability":"view"}],"bytecode":{"object":"0x608034613d5257601f61721c38819003918201601f19168301926001600160401b0392909183851183861017613d3c578160a09284926040978852833981010312613d525761004d81613d57565b9160209161005c838201613d57565b90610068868201613d57565b93610081608061007a60608501613d57565b9301613d57565b87519094613120820190811182821017613d3c5788526130fb81527f3c646566733e3c672069643d227961636874223e3c7061746820643d224d362d828201527f356832374c362d34337a222f3e3c706174682066696c6c3d2223414137303335888201527f2220643d224d342d316832306c342d3248307a222f3e3c706174682066696c6c60608201527f3d22234642443138352220643d226d3135203020312d3220323320327a222f3e60808201527f3c2f673e3c672069643d22617065223e3c706174682066696c6c3d222361613760a08201527f3033352220643d224d2d352d31352e3337376833763135682d337a222f3e3c7060c08201527f6174682066696c6c3d22236635633035632220643d224d2d372d332e3337376860e08201527f332e3476332e33482d377a222f3e3c706174682066696c6c3d222361613730336101008201527f352220643d224d332d31352e333737683376313548337a222f3e3c70617468206101208201527f66696c6c3d22236635633035632220643d224d312d332e33373768332e3476336101408201527f2e333848317a222f3e3c706174682066696c6c3d22236161373033352220643d6101608201527f226d2d392e3833332d32302e35383320392e34342d352e36343920352e3133356101808201527f20382e3538312d392e343420352e3634397a222f3e3c706174682066696c6c3d6101a08201527f22236161373033352220643d226d332e34372d31312e3731372d392e34362d356101c08201527f2e363120352e312d382e3620392e343620352e36317a4d2d31352d32372e38376101e08201527f3768392e3676382e3736482d31357a222f3e3c706174682066696c6c3d2223666102008201527f61633135632220643d224d2d31322e352d32352e33373768342e3876342e33346102208201527f682d342e387a222f3e3c706174682066696c6c3d22236161373033352220643d6102408201527f224d382d33342e333737683376313548387a222f3e3c706174682066696c6c3d6102608201527f22236161373033352220643d226d31362e3331352d33362e352e30353220332d6102808201527f382e3130392e3134312d2e3035322d337a222f3e3c706174682066696c6c3d226102a08201527f236161373033352220643d224d31342d33362e333737683376382e3131682d336102c08201527f7a222f3e3c2f673e3c672069643d226c6c616d61223e3c706174682066696c6c6102e08201527f3d22234333394237322220643d226d32312d3337203920332d372d31327a4d316103008201527f2d323620302d326c2d31302d31367a6d313820304c31382d3220372d31387a226103208201527f2f3e3c706174682066696c6c3d22234141373033352220643d226d2d3820302d6103408201527f362d33342033302d3820313020342d322033382d31302d31372d313520377a226103608201527f2f3e3c706174682066696c6c3d22234333394237322220643d226d2d31362d356103808201527f3020382d3320392031362d31302031342d382d357a222f3e3c706174682066696103a08201527f6c6c3d22234141373033352220643d226d2d31302d35352d392035203920337a6103c08201527f222f3e3c2f673e3c672069643d22636f77223e3c706174682066696c6c3d22236103e08201527f6664653963632220643d224d2d32362d32316831337639682d31337a222f3e3c6104008201527f706174682066696c6c3d22236536333332612220643d224d2d33332d313968356104208201527f30762d3238682d35377a222f3e3c706174682066696c6c3d22236536333332616104408201527f2220643d226d32352d34352d382032362d392d32372031342d313420313920376104608201527f2d3420357a222f3e3c706174682066696c6c3d22236536333332612220643d226104808201527f6d32382d353820312d372d3620377a4d31372d3139203133203020392d3230686104a08201527f387a6d2d35302d31203420323020342d31397a6d2d372d32377632396c332d326104c08201527f397a222f3e3c2f673e3c672069643d2267756c6c223e3c706174682066696c6c6104e08201527f3d22234632384430302220643d224d322d31346836563048327a222f3e3c70616105008201527f74682066696c6c3d22234646462220643d224d31342e352d34332e3548374c326105208201527f2e372d32352e312d323220332e356c33372e342d31372e317a222f3e3c7061746105408201527f682066696c6c3d22234632384430302220643d224d31322d34302e3568392e356105608201527f76332e354831327a222f3e3c2f673e3c672069643d2262616c6c223e3c6369726105808201527f636c652063783d222d3633222063793d2236332220723d223633222066696c6c6105a08201527f3d2223666666366363222f3e3c656c6c697073652063783d222d3633222063796105c08201527f3d223633222072783d223431222072793d223633222f3e3c656c6c69707365206105e08201527f63783d222d3633222063793d223633222066696c6c3d222366656635636222206106008201527f72783d223131222072793d223633222f3e3c70617468207374726f6b653d22236106208201527f61613664323922207374726f6b652d77696474683d22332220643d226d2d31306106408201527f3320313030203339203132346d34322d3132332d3432203132336d32312d31326106608201527f332d3231203132336d2d31392d31323420313920313235222f3e3c70617468206106808201527f66696c6c3d22236161366432392220643d224d2d3131362039396831303576336106a08201527f682d3130357a6d302d3737683130367633682d3130362e356c2d2e352d335a226106c08201527f2f3e3c706174682066696c6c3d22236161366432392220643d224d2d363520316106e08201527f3031683376313039682d337a222f3e3c706174682066696c6c3d2223396262326107008201527f32342220643d224d2d373620323035683235763231682d32357a222f3e3c2f676107208201527f3e3c672069643d22636174223e3c706174682066696c6c3d22233934303045336107408201527f2220643d224d2d332e382d31362e3168392e317631322e35682d392e3035327a6107608201527f222f3e3c636972636c652063783d222e383438222063793d222d31362e3122206107808201527f723d22342e35222066696c6c3d2223393430304533222f3e3c636972636c65206107a08201527f63783d22342e323438222063793d222d32322e362220723d22342e35222066696107c08201527f6c6c3d2223393430304533222f3e3c706174682066696c6c3d222339343030456107e08201527f332220643d224d342e322d32332e324830762d342e337a6d30203068342e33766108008201527f2d342e337a222f3e3c672069643d226361742d6d61736b223e3c656c6c6970736108208201527f652063783d22322e323438222063793d222d32332e33222066696c6c3d22676f6108408201527f6c64222072783d22312e38222072793d22312e32222f3e3c656c6c69707365206108608201527f63783d22322e323438222063793d222d32332e33222066696c6c3d22233934306108808201527f304533222072783d222e31222072793d22312e36222f3e3c656c6c69707365206108a08201527f63783d22362e323438222063793d222d32332e33222066696c6c3d22676f6c646108c08201527f222072783d22312e38222072793d22312e32222f3e3c656c6c697073652063786108e08201527f3d22362e323438222063793d222d32332e33222066696c6c3d222339343030456109008201527f33222072783d222e31222072793d22312e36222f3e3c2f673e3c7061746820666109208201527f696c6c3d22233934303045332220643d224d2d382e362d352e3348362e3776316109408201527f2e38482d382e3635327a6d3020332e3548362e375630482d382e367a222f3e3c6109608201527f706174682066696c6c3d22233934303045332220643d224d2d382e372030762d6109808201527f352e3368312e3856307a222f3e3c706174682066696c6c3d22234234344345426109a08201527f2220643d226d352d32322e322d2e382e382d2e382d2e387a222f3e3c2f673e3c6109c08201527f672069643d226275736831223e3c706174682069643d226c31222066696c6c3d6109e08201527f22233942423232342220643d224d2d3339203063352035203132203720313920610a008201527f354c3020306c2d32312d35632d362d322d313320302d31382035222f3e3c7573610a208201527f6520687265663d22236c3122207472616e73666f726d3d22726f746174652834610a408201527f3529222f3e3c75736520687265663d22236c3122207472616e73666f726d3d22610a608201527f726f7461746528393029222f3e3c75736520687265663d22236c312220747261610a808201527f6e73666f726d3d22726f746174652831333529222f3e3c75736520687265663d610aa08201527f22236c3122207472616e73666f726d3d22726f746174652831383029222f3e3c610ac08201527f2f673e3c672069643d226275736832223e3c706174682069643d226c32222066610ae08201527f696c6c3d22233942423232342220643d224d31372d3420302d38342d31372d34610b008201527f7a222f3e3c75736520687265663d22236c3222207472616e73666f726d3d2272610b208201527f6f7461746528333629222f3e3c75736520687265663d22236c3222207472616e610b408201527f73666f726d3d22726f7461746528373229222f3e3c75736520687265663d2223610b608201527f6c3222207472616e73666f726d3d22726f74617465282d333629222f3e3c7573610b808201527f6520687265663d22236c3222207472616e73666f726d3d22726f74617465282d610ba08201527f373229222f3e3c2f673e3c672069643d22656c6570223e3c706174682066696c610bc08201527f6c3d22236339383066312220643d224d2d32322d3639682d33326c3920343120610be08201527f32342d3233762d31387a6d3837203230682d33762d333668337a4d35312d3831610c008201527f762d3368313176337a222f3e3c706174682066696c6c3d22236666662220643d610c208201527f226d2d36322d34372d33302d332033302d337a222f3e3c706174682066696c6c610c408201527f3d22233934303065332220643d224d35392d3238682d39396c372d3638203433610c608201527f2d3620353020367636387a6d2d393920306831325630682d31327a6d31382030610c808201527f6831325630682d31327a6d3639203068313256304834377a6d2d313620306831610ca08201527f3256304833317a222f3e3c706174682066696c6c3d2223393430306533222064610cc08201527f3d224d2d382d3432682d3534762d33386c35342d31367a6d2d36322d31356837610ce08201527f763430682d377a6d2d382031376834763233682d347a222f3e3c706174682066610d008201527f696c6c3d22236339383066312220643d224d2d37382d343068347634682d347a610d208201527f222f3e3c706174682066696c6c3d22233934303065332220643d224d2d36342d610d408201527f32337637682d3134762d377a6d32302d3334763130682d3236762d31307a222f610d608201527f3e3c706174682066696c6c3d22236666662220643d226d2d36322d34322d3330610d808201527f2d332033302d337a222f3e3c706174682066696c6c3d22236339383066312220610da08201527f643d224d2d33342d36396833326c2d392034312d32342d3233762d31387a222f610dc08201527f3e3c2f673e3c672069643d226769726166223e3c706174682066696c6c3d2223610de08201527f6632386430302220643d224d33372d3637762d39384c2d362d36327a6d2d3731610e008201527f2032336836376c342d32337a222f3e3c706174682066696c6c3d222366323864610e208201527f30302220643d224d2d33342d343420372d38366c33302031397a222f3e3c7061610e408201527f74682066696c6c3d22236632386430302220643d224d33372d363756304c3234610e608201527f2d36377a6d2d3237203056306c31342d36377a4d2d372d343456306c2d31342d610e808201527f34347a6d2d3237203056306c31332d34347a6d38392d313133762d346c2d3138610ea08201527f2d337631337a222f3e3c706174682066696c6c3d22236632386430302220643d610ec08201527f224d34302d31363868327637682d327a6d2d34203068327637682d327a222f3e610ee08201527f3c706174682066696c6c3d22236632386430302220643d226d33302d31353720610f008201527f392d35682d397a222f3e3c706174682066696c6c3d2223616137303335222064610f208201527f3d224d33332d31353420362d393720332d38327a222f3e3c2f673e3c67206964610f408201527f3d226165726f706c616e65222066696c6c3d2223464246384635223e3c706174610f608201527f6820643d224d3230203248306c322d326831356c332d327a222f3e3c70617468610f808201527f20643d224d31352037682d324c352d3468327a222f3e3c7061746820643d224d610fa08201527f323020316831373176314832307a22206f7061636974793d222e33222f3e3c2f610fc08201527f673e3c672069643d226c65616673223e3c706174682069643d22706c22206669610fe08201527f6c6c3d22233942423232342220643d224d2d37312d31323963302d313820392d6110008201527f33342032342d34336c34372d32382d3238203437632d392031352d32362032346110208201527f2d3433203234222f3e3c75736520687265663d2223706c22207472616e73666f6110408201527f726d3d22726f746174652834352030202d32303029222f3e3c757365206872656110608201527f663d2223706c22207472616e73666f726d3d22726f746174652839302030202d6110808201527f32303029222f3e3c75736520687265663d2223706c22207472616e73666f726d806110a08301527f3d22726f74617465283138302030202d32303029222f3e3c75736520687265666110c08301527f3d2223706c22207472616e73666f726d3d22726f74617465283232352030202d6110e08301526111008201527f3d22726f74617465283237302030202d32303029222f3e3c2f673e3c672069646111208201527f3d2270616c6d31223e3c75736520687265663d2223666174222f3e3c757365206111408201527f687265663d22236c65616673222f3e3c2f673e3c672069643d2270616c6d32226111608201527f3e3c75736520687265663d2223736d616c6c222f3e3c75736520687265663d226111808201527f236c65616673222f3e3c2f673e3c672069643d22637275697365223e3c7061746111a08201527f682066696c6c3d22234642443138352220643d224d3136392e312d35372e36486111c08201527f39392e396c322e352d332e346836392e357a6d2d34342e3320332e372d382e366111e08201527f2d312e312d2e3820362e3120382e3620312e317a6d31372e3820304c3133342d6112008201527f35356c2d2e3820362e3120382e3620312e317a6d2d33342e3820304c39392e326112208201527f2d35356c2d2e3820362e3120382e3620312e317a222f3e3c706174682066696c6112408201527f6c3d22234245313632322220643d226d3132352e312d35352e372d382e362d316112608201527f2e312d2e3220312e3820382e3620312e317a222f3e3c706174682066696c6c3d6112808201527f22234139333345392220643d226d3132342d34372e382d382e362d312e312d316112a08201527f2e362031322e3920382e3620312e317a222f3e3c706174682066696c6c3d22236112c08201527f4245313632322220643d226d3132342e352d35312e382d382e362d312e312d2e6112e08201527f3220312e3820382e3620312e317a6d31382e332d332e392d382e362d312e312d6113008201527f2e3220312e3820382e3620312e317a222f3e3c706174682066696c6c3d2223416113208201527f39333345392220643d226d3134312e382d34372e382d382e362d312e312d312e6113408201527f362031322e3920382e3620312e317a222f3e3c706174682066696c6c3d2223426113608201527f45313632322220643d226d3134322e332d35312e372d382e362d312e312d2e326113808201527f20312e3820382e3620312e317a6d2d33342e392d342d382e362d312e312d2e326113a08201527f20312e3820382e3620312e317a222f3e3c706174682066696c6c3d22234139336113c08201527f3345392220643d226d3130382e342d34372e382d382e362d312e314c39382e326113e08201527f2d33366c382e3620312e317a222f3e3c706174682066696c6c3d2223424531366114008201527f32322220643d226d3130372e392d35312e372d382e362d312e312d2e3220312e6114208201527f3820382e3620312e317a222f3e3c706174682066696c6c3d22234642443138356114408201527f2220643d224d3134392e322d33384831372e387631392e36683133312e377a226114608201527f2f3e3c706174682066696c6c3d22234139333345392220643d224d3137312e396114808201527f2d32352e3248307634683137312e397a4d302d32312e32683137312e394c31366114a08201527f332e312e3448382e387a222f3e3c706174682066696c6c3d22234642443138356114c08201527f2220643d226d35322e322e362d35312d372e384c362e312e357a6d37312e37206114e08201527f3020342e312d312036332e312e397a222f3e3c706174682066696c6c3d2223306115008201527f33303330342220643d224d3134362e312d33352e31682d31323576312e3868316115208201527f32357a6d3020342e33682d31323576312e38683132357a222f3e3c70617468206115408201527f66696c6c3d22234642443138352220643d224d34362e392d34342e324832382e6115608201527f3476372e376831382e357a222f3e3c2f673e3c672069643d2274616e6b6572226115808201527f207374796c653d227472616e73666f726d2d6f726967696e3a30203131342e396115a08201527f7078223e3c706174682066696c6c3d22234634453546432220643d224d31332e6115c08201527f362d33382e30313468322e3876382e353635682d322e387a6d36312e362030486115e08201527f373876382e353635682d322e387a222f3e3c672066696c6c3d222346344535466116008201527f43223e3c7061746820643d224d37352e322d33382e30313448373876382e35366116208201527f35682d322e387a222f3e3c7061746820643d224d37382d33382e30313476382e6116408201527f363633682d322e38762d382e363633222f3e3c2f673e3c706174682066696c6c6116608201527f3d22234634453546432220643d224d3132312e382d33382e30313468322e38766116808201527f382e353635682d322e387a222f3e3c672066696c6c3d2223463445354643223e6116a08201527f3c7061746820643d224d3132312e382d33382e30313468322e3876382e3536356116c08201527f682d322e387a222f3e3c7061746820643d224d3132342e362d33382e303134766116e08201527f382e363633682d322e38762d382e363633222f3e3c2f673e3c706174682066696117008201527f6c6c3d22234634453546432220643d224d3136322e332d33382e3530366833396117208201527f2e327631362e383334682d33392e327a6d2d342e322d362e3130346831332e356117408201527f76362e313034682d31332e357a222f3e3c706174682066696c6c3d22233934306117608201527f3045332220643d224d392e352d32382e323638683136352e3776332e393338486117808201527f392e357a222f3e3c706174682066696c6c3d22234434393946342220643d224d6117a08201527f392e352d32382e323638683136352e3776332e39333848392e357a222f3e3c706117c08201527f6174682066696c6c3d22233934303045332220643d224d3231342e342d32342e6117e08201527f33334831342e326c382e362032302e373732683138332e317a222f3e3c7061746118008201527f682066696c6c3d22234441443845302220643d224d392e352d33302e353332686118208201527f3136352e3776322e32363448392e357a222f3e3c706174682066696c6c3d22236118408201527f4646462220643d224d36362e332d312e3738362031362e342d392e3236386c346118608201527f2e3820372e3238357a6d3132332e33203020342e312d352e3331362036312e386118808201527f20352e3231387a6d302d353768382e3676312e373732682d382e367a6d3020376118a08201527f2e36373968382e367631322e36682d382e367a222f3e3c706174682066696c6c6118c08201527f3d22234245313632322220643d224d3138392e362d35372e30313468382e36766118e08201527f352e393037682d382e367a222f3e3c706174682066696c6c3d222346464622206119008201527f643d224d3138392e362d35342e39343768382e3676312e373732682d382e367a6119208201527f222f3e3c2f673e3c672069643d22666973686572223e3c706174682066696c6c6119408201527f3d22233934303045332220643d224d31382e362d31382e33682d332e3376312e6119608201527f3568332e337a222f3e3c706174682066696c6c3d22234339383046312220643d6119808201527f224d32302e312d31392e32682d362e34762e3868362e347a222f3e3c706174686119a08201527f2066696c6c3d22233934303045332220643d224d32302e312d31352e33682d366119c08201527f2e3376322e3868362e337a222f3e3c706174682066696c6c3d222343393830466119e08201527f312220643d224d32332d31362e394831302e3776312e364832337a222f3e3c70611a008201527f6174682066696c6c3d22234642443138352220643d226d36352e392e3420312e611a208201527f332d2e312d32352e362d32382e39562d2e356831562d32367a222f3e3c706174611a408201527f682066696c6c3d22233934303045332220643d224d33342e322d312e35683135611a608201527f2e35762d31314833342e327a6d31342e322d312e334833352e35762d382e3568611a808201527f31322e397a222f3e3c706174682066696c6c3d22234339383046312220643d22611aa08201527f6d31392e352d342e332031312e382d32322e314c34332d342e336c312e322d2e611ac08201527f362d31322e392d32342e324c31382e342d342e397a222f3e3c70617468206669611ae08201527f6c6c3d22234339383046312220643d224d32352e392d31332e3548382e367637611b008201527f2e386831372e337a4d33362e362d31384832352e3576312e336831312e317a22611b208201527f2f3e3c706174682066696c6c3d22234339383046312220643d226d33312e372d611b408201527f31362e392031312e332d31312d2e392d2e392d31312e332031317a222f3e3c70611b608201527f6174682066696c6c3d22233934303045332220643d224d31352e382d382e3176611b808201527f332e356833392e39562e3748362e384c302d382e317a222f3e3c706174682066611ba08201527f696c6c3d22233934303045332220643d224d35352e372d362e344831352e3976611bc08201527f312e386833392e387a222f3e3c706174682066696c6c3d222346424431383522611be08201527f20643d224d32332e322e3820322e352d322e336c3220337a6d3234203020312e611c008201527f372d322e324c37342e352e377a6d31352e332d32332e31682d312e3976312e38611c208201527f7a4d35382e342d3139682d312e3976312e387a6d2e342d352e34682d312e3976611c408201527f312e387a6d352e312d332e3148363276312e387a6d332e3320362e38682d312e611c608201527f3976312e387a6d312e392d352e33682d312e3976312e387a6d2d312e332d3468611c808201527f2d312e3976312e387a6d2d352e322031322e34682d312e3976312e387a222f3e611ca08201527f3c2f673e3c672069643d22627573223e3c7061746820643d224d34312e352d39611cc08201527f30483138367638312e384834312e357a4d302d39306834312e357638312e3848611ce08201527f307a222f3e3c706174682066696c6c3d22236539346531622220643d224d3431611d008201527f2e352d3732683133302e3976392e36374834312e357a222f3e3c706174682066611d208201527f696c6c3d22236639623233332220643d224d34312e352d36322e334830762d39611d408201527f2e36376834312e357a222f3e3c636972636c652063783d2236312e3922206379611d608201527f3d222d382e322220723d22382e32222066696c6c3d2223653934653162222f3e611d808201527f3c636972636c652063783d223133392e39222063793d222d382e322220723d22611da08201527f382e32222066696c6c3d2223653934653162222f3e3c636972636c652063783d611dc08201527f22313634222063793d222d382e322220723d22382e32222066696c6c3d222365611de08201527f3934653162222f3e3c2f673e3c672069643d2263616d656c223e3c7061746820611e008201527f66696c6c3d22236632386430302220643d224d33362e352d33332e312031342e611e208201527f342d37372e337634342e327a222f3e3c706174682066696c6c3d222366323864611e408201527f30302220643d226d31342e342d33332e312033332e3120372e372033332e322d611e608201527f372e377a6d3020302033332e312d34342e322033332e322034342e327a222f3e611e808201527f3c706174682066696c6c3d22233962623232342220643d226d33302e392d3535611ea08201527f2e322031362e362d32322e312031362e362032322e317a222f3e3c7061746820611ec08201527f66696c6c3d22236632386430302220643d224d32352e342d33332e312031342e611ee08201527f342030762d33332e317a6d3020304c33362e352030762d33332e317a6d34342e611f008201527f3220304c35382e362030762d33332e317a6d3020304c38302e372030762d3333611f208201527f2e317a4d31342e342d36362e33762d31314c302d37342e3276332e317a222f3e611f408201527f3c706174682066696c6c3d22236265313632322220643d224d332e332d37352e611f608201527f3768322e387634322e353448332e337a222f3e3c2f673e3c672069643d22636f611f808201527f796f7465223e3c706174682066696c6c3d22236161366432392220643d224d31611fa08201527f302e33352d32332e36682d382e324c2d31322e33352e366831352e376c2d342e611fc08201527f382d322e3720342e372d372e364c31302e33352e367a4d2d31322e33352e366c611fe08201527f2d31312e322d322e382d342e3820322e387a6d31342e352d32342e3220332e396120008201527f2d31342e322e3920312e352e392d312e3720322e352031342e347a222f3e3c706120208201527f6174682066696c6c3d22236161366432392220643d226d332e38352d32372e386120408201527f2d38203520372e352d312e317a222f3e3c706174682066696c6c3d22233934306120608201527f3065332220643d224d342e36352d32382e36682e3476322e3636682d2e347a226120808201527f2f3e3c706174682066696c6c3d22236337396637322220643d226d2d322e33356120a08201527f2d31372e3420342e352d362e3220322e382e3920352e342d2e3920312e3620366120c08201527f2e322d322e372d312e362d332e3620342e352d322e322d342d332e3320332e326120e08201527f2d2e352d322e387a222f3e3c2f673e3c672069643d22626174223e3c706174686121008201527f2066696c6c3d22233933303045322220643d224d372e35203232682d31354c306121208201527f20317a222f3e3c706174682066696c6c3d22233933303045322220643d226d376121408201527f2e352033322d372d342d38203420382d32317a6d2d31312d333268377632682d6121608201527f377a222f3e3c672069643d226261742d6d61736b222066696c6c3d22234646466121808201527f223e3c636972636c652063783d222d322e35222063793d2232352220723d22316121a08201527f222f3e3c636972636c652063783d22322e35222063793d2232352220723d22316121c08201527f222f3e3c2f673e3c2f673e3c672069643d226a656c6c79223e3c672069643d226121e08201527f6a656c6c792d6d61736b222066696c6c3d2223383066663861223e3c706174686122008201527f20643d224d342d3130682d376c2d3720326832317a222f3e3c7061746820643d6122208201527f226d31302d3420322d312d312d33682d32316c2d312033203220317a22206f706122408201527f61636974793d222e3137222f3e3c7061746820643d224d332d32203120326c336122608201527f2d347a6d2d3420322d32203420332d347a6d2d322d322d32203420332d347a226122808201527f206f7061636974793d222e3039222f3e3c7061746820643d226d2d342d3620316122a08201527f20346831762d347a6d372030763468316c312d347a6d2d342030763668316c326122c08201527f2d367a22206f7061636974793d222e3133222f3e3c2f673e3c2f673e3c6720696122e08201527f643d2263616d706572223e3c706174682066696c6c3d222361613730333522206123008201527f643d224d2d31382e3635352d35342e396831362e3876392e3934682d31362e386123208201527f7a222f3e3c706174682066696c6c3d22236161366432392220643d224d2d32396123408201527f2e3735352d35396831332e387631302e3938682d31332e387a222f3e3c7061746123608201527f682066696c6c3d22236632386430302220643d226d2d34352e3635352d32312d6123808201527f32332e342d352e3420392e352d31352e356832332e397a222f3e3c70617468206123a08201527f66696c6c3d22236666656639392220643d226d2d35332e3035352d35322e352d6123c08201527f362e352031302e3668392e386c2d362e392031322e352d31322e342033202e336123e08201527f20382e3120322e37203132683130302e346c33342e322d382e34762d33332e346124008201527f6c2d332e372d342e347a222f3e3c706174682066696c6c3d22236265313632326124208201527f2220643d224d2d36302e3035352d32332e34683132392e3476312e3931682d316124408201527f32392e347a6d2d382e3320342e37683133372e3776312e3931682d3133372e376124608201527f7a222f3e3c636972636c652063783d222d34392e363535222063793d222d362e6124808201527f332220723d22362e34222066696c6c3d2223393430306533222f3e3c636972636124a08201527f6c652063783d2231352e323435222063793d222d362e332220723d22362e34226124c08201527f2066696c6c3d2223393430306533222f3e3c706174682069643d2263616d70656124e08201527f722d6d61736b222066696c6c3d22236632386430302220643d224d2d32332e396125008201527f35352d34312e396831322e367632372e3636682d31322e367a6d31352e3920306125208201527f6831362e3376382e3738682d31362e337a6d2d32382e37203068382e327631326125408201527f2e3439682d382e327a6d373020306833312e327631322e3439682d33312e327a6125608201527f222f3e3c706174682066696c6c3d22236666662220643d224d2d36382e3335356125808201527f2d32362e3468352e3476372e3338682d352e347a6d3020392e3968332e3176346125a08201527f2e32682d332e317a222f3e3c2f673e3c672069643d2274656e74223e3c7061746125c08201527f682066696c6c3d22236661643139392220643d224d35332e3036392d3631682d6125e08201527f33342e344c2e3036392d31332e346835337a222f3e3c706174682066696c6c3d6126008201527f22236632386430302220643d226d35342e3036392d36312031382e352034372e6126208201527f36682d31382e357a6d2d3220302d31382e362034372e366831382e367a222f3e6126408201527f3c672066696c6c3d22676f6c64223e3c706174682069643d2274656e742d6d616126608201527f736b2220643d226d38342e3836392d332e3320312e332d31322e3220342e33206126808201527f342e3420352d313820332e3120313120342e352d352e3420352e322031322e366126a08201527f20332e392d322e3520342031302e317a222f3e3c2f673e3c706174682066696c6126c08201527f6c3d22236536333332612220643d226d39302e3036392d332e3320392e332d376126e08201527f2e322031302e3620372e327a222f3e3c706174682066696c6c3d2223616137306127008201527f33352220643d224d38312e3136392d332e336833382e3676332e3139682d33386127208201527f2e367a222f3e3c706174682066696c6c3d22233934303065332220643d224d356127408201527f322e3036392d363168327634372e36682d327a222f3e3c2f673e3c672069643d6127608201527f22706172726f74223e3c706174682066696c6c3d22233962623232342220643d6127808201527f224d2d332d3135683576384c302d366c2d3320367a222f3e3c706174682066696127a08201527f6c6c3d22233933303065322220643d226d322d31392032203448327a222f3e3c6127c08201527f706174682066696c6c3d22676f6c642220643d224d322d3139682d336c2d32206127e08201527f3468357a222f3e3c706174682066696c6c3d22233933303065322220643d226d6128008201527f302d3620322d3176337a222f3e3c2f673e3c672069643d2270656e67223e3c706128208201527f6174682066696c6c3d22676f6c642220643d226d2d362d33322d342034762d316128408201527f7a222f3e3c706174682066696c6c3d22676f6c642220643d226d302d32352d366128608201527f2d372d34203356304834762d32317a222f3e3c706174682066696c6c3d2223396128808201527f34303065332220643d224d2d31302d323856306c382d38762d31327a222f3e3c6128a08201527f706174682066696c6c3d22236536333332612220643d224d2d332d32483976326128c08201527f482d337a222f3e3c706174682066696c6c3d22233934303065332220643d224d6128e08201527f312d3336682d336c2d3420342036203720342034762d31357a222f3e3c7061746129008201527f682066696c6c3d22236536333332612220643d224d312d3333763368387a222f6129208201527f3e3c2f673e3c672069643d22666c6f636b22207472616e73666f726d3d2273636129408201527f616c65282e3329223e3c672069643d226631223e3c706174682066696c6c3d226129608201527f236666662220643d224d302030683232763448307a222f3e3c706174682066696129808201527f6c6c3d22236633393630302220643d224d3232203068357634682d357a222f3e6129a08201527f3c706174682066696c6c3d22236666662220643d224d382d31336838563948386129c08201527f7a222f3e3c2f673e3c672069643d22667570223e3c75736520687265663d22236129e08201527f663122207472616e73666f726d3d227472616e736c617465283830202d353029612a008201527f222f3e3c75736520687265663d2223663122207472616e73666f726d3d227472612a208201527f616e736c617465283430202d323529222f3e3c75736520687265663d22236631612a408201527f22207472616e73666f726d3d227472616e736c61746528313230202d37352922612a608201527f2f3e3c75736520687265663d2223663122207472616e73666f726d3d22747261612a808201527f6e736c61746528313630202d31303029222f3e3c2f673e3c7573652068726566612aa08201527f3d222366757022207472616e73666f726d3d227363616c652831202d3129222f612ac08201527f3e3c2f673e3c672069643d227761746572222066696c6c3d2223464344383939612ae08201527f223e3c726563742077696474683d22352522206865696768743d22312220783d612b008201527f223530252220793d22333025222f3e3c726563742077696474683d2235252220612b208201527f6865696768743d22312220783d223730252220793d22333025222f3e3c726563612b408201527f742077696474683d22352522206865696768743d22312220783d223930252220612b608201527f793d22333025222f3e3c726563742077696474683d2235252220686569676874612b808201527f3d22312220783d223630252220793d22333225222f3e3c726563742077696474612ba08201527f683d22352522206865696768743d22312220783d223830252220793d22333225612bc08201527f222f3e3c726563742077696474683d22352522206865696768743d2231222078612be08201527f3d223430252220793d22333225222f3e3c726563742077696474683d22352522612c008201527f206865696768743d22312220783d223330252220793d22333025222f3e3c7265612c208201527f63742077696474683d22352522206865696768743d22312220783d2232302522612c408201527f20793d22333225222f3e3c726563742077696474683d22352522206865696768612c608201527f743d22312220783d223130252220793d22333025222f3e3c7265637420776964612c808201527f74683d22352522206865696768743d22312220783d2230252220793d22333225612ca08201527f222f3e3c726563742077696474683d2231322522206865696768743d22322220612cc08201527f783d223230252220793d22333825222f3e3c726563742077696474683d223132612ce08201527f2522206865696768743d22322220783d223430252220793d22333525222f3e3c612d008201527f726563742077696474683d2231322522206865696768743d22322220783d2236612d208201527f30252220793d22333825222f3e3c726563742077696474683d22313225222068612d408201527f65696768743d22322220783d223830252220793d22333525222f3e3c72656374612d608201527f2077696474683d2231322522206865696768743d22322220783d223025222079612d808201527f3d22333525222f3e3c726563742077696474683d223235252220686569676874612da08201527f3d22332220783d223130252220793d22343825222f3e3c726563742077696474612dc08201527f683d2232352522206865696768743d22332220783d223430252220793d223435612de08201527f25222f3e3c726563742077696474683d2232352522206865696768743d223322612e008201527f20783d223730252220793d22343825222f3e3c726563742077696474683d2232612e208201527f352522206865696768743d22332220783d222d3230252220793d22343525222f612e408201527f3e3c726563742077696474683d2234302522206865696768743d22342220783d612e608201527f223330252220793d22353525222f3e3c726563742077696474683d2234302522612e808201527f206865696768743d22342220783d223830252220793d22353325222f3e3c7265612ea08201527f63742077696474683d2234302522206865696768743d22342220783d222d3230612ec08201527f252220793d22353725222f3e3c2f673e3c706174682069643d22636163747573612ee08201527f222066696c6c3d22233634393632342220643d224d3431203338763139483331612f008201527f563238683137563131483338763130682d375630483136763530682d36563332612f208201527f48307632366831367633306831355636376832315633387a222f3e3c70617468612f408201527f2069643d227062656172222066696c6c3d22236666663663632220643d224d2d612f608201527f3431203068386c2d332d352032312d3648384c32342030762d31366c382d3130612f808201527f6831356c342d384c382d3438682d34306c2d392031367a222f3e3c7061746820612fa08201527f69643d22736d616c6c222066696c6c3d22234141373033352220643d224d3130612fc08201527f2030762d3136364c302d3230306c2d313020333456307a222f3e3c7061746820612fe08201527f69643d22666174222066696c6c3d22234141373033352220643d224d323920306130008201527f762d3132304c302d3230306c2d333120383056307a222f3e3c706174682069646130208201527f3d22706572736f6e2220643d224d302d3639683230563048307a222f3e3c70616130408201527f74682069643d2263616e6761222066696c6c3d22236161373033352220643d226130608201527f6d38332031343020323420322031352d3920392039203220313820313820382d6130808201527f31332d313020352d3137203120313420372d3135203133203120332d322031356130a08201527f20332d392d3968386c312d372d3132203620312d31312d362031342d352d312d6130c08201526130e07f32322d31352d313920342d31342031347a22207472616e73666f726d3d227472818301527f616e736c617465282d3833202d31363829222f3e3c2f646566733e00000000006131008301526000918254936001948581811c91168015613d32575b82821014613d1e57601f8111613cef575b5090839285945082908480528385209385915b808310613cd6575050506161f7945064ffffffffff199101511690555560018060a01b0380958180958160018060a01b03199a168a60045416176004551688600554161760055516868254161790551683600254161760025516906003541617600355516134b09081613d6c8239f35b8385015186558897909501949281019291810191613c66565b84805285610188601f848820930160051c830192015b828110613d13575050613c53565b868155018690613d05565b634e487b7160e01b85526022600452602485fd5b90607f1690613c42565b634e487b7160e01b600052604160045260246000fd5b600080fd5b51906001600160a01b0382168203613d525756fe608080604052600436101561001357600080fd5b60003560e01c908163018a5f4d1461220e5750806313aa362d146121725780631c6e9c15146120e4578063228b974b14611fe757806324b2387e14611f7d5780632548117914611acc578063485c475f1461159957806371a973051461148d57806373075aff146113fc5780637a1ebd4d146113d3578063a3603766146113a8578063a5c0594b1461137f578063b4d6438b14611267578063bc90ad5014611189578063bcb9154314611160578063cba4cbbd146105e6578063cfe839ec146105bd578063dda510f0146105945763f773e0b0146100f057600080fd5b3461058f5760031960003682011261058f5760405161010e81612b42565b600081526020604a19818301526040519261012884612b79565b604d84527f3c672066696c6c3d2223396262323234223e3c7265637420783d222d34222079828501527f3d222d3734222077696474683d223822206865696768743d223734222f3e3c2160408501526c1696b632b0b316969f1e17b39f60991b60608501526040519061019a82612baf565b608382527f3c672066696c6c3d22676f6c64223e3c7061746820643d224d32312d38354332838301527f382d39312032382d3130322032382d3130324332382d3130322031382d31303260408301527f2031312d393543352d383920352d373820352d373843352d37382031352d373960608301527f2032312d38355a222069643d2273756e50222f3e3c212d2d73756e502d2d3e3c60808301526217b39f60e91b60a0830152604051916328d1938160e11b83526000838061029160048201906040825260166040830152740f001e002d003c004b005a006900780087009600a560511b60608301526002602060808401930152565b038173__$55e308ee0cc2c89b0b139d5735dcdc1f21$__5af49283156105115760009361056a575b50604051906102c782612b94565b600282528482019160403684378051156105545760021983528051600192908310156105545761033d60009161035e996047604086015261037961036e73__$30acca89589d9a9b80eb3e09f3c9eae508$__9a6040519d8e968796636c671b3d60e11b885260a0600489015260a488019061282f565b8681038d0160248801526004815263073756e560e41b602082015260400190565b908b868303016044870152612d0d565b916064840190612d41565b0381885af496871561051157600097610537575b50916103bc9793928692836103dd6040519b8c98630e267c1560e21b8a5260a060048b015260a48a019061282f565b888103880160248a01526004815263073756e560e41b602082015260400190565b9286888503016044890152519283815201929160005b81811061051d575050505060009492633632b0b360e11b8593604093886064870152858103938401608487015260048152015201915af4928315610511576000936104e8575b506104e49060405161044a81612b94565b602f81527f3c636972636c652066696c6c3d2223396262323234222063783d223022206379828201526e1e91169b9a9110391e91191b11179f60891b60408201527f3c636972636c652066696c6c3d2223616137303335222063783d223022206379604051926104b984612b94565b602f84528301526e1e91169b9a9110391e91189c11179f60891b604083015260405194859485612854565b0390f35b6104e491935061050a903d806000833e6105028183612bca565b810190612ce8565b9290610439565b6040513d6000823e3d90fd5b8351830b85528b97508995948501949093019282016103f3565b61054d9197503d806000833e6105028183612bca565b953861038d565b634e487b7160e01b600052603260045260246000fd5b6105889193503d806000833e6105808183612bca565b810190612c63565b91386102b9565b600080fd5b3461058f57600036600319011261058f576005546040516001600160a01b039091168152602090f35b3461058f57600036600319011261058f576001546040516001600160a01b039091168152602090f35b3461058f57600036600319011261058f5760405161018081018181106001600160401b0382111761114a5760405261015b81527f3c706174682066696c6c3d22233963623032362220643d224d382c2d3134302e60208201527f346131302e382c31302e382c302c302c302d342e382d2e362c31322e342c313260408201527f2e342c302c302c302c2e312d342e392c31312e372c31312e372c302c302c302d60608201527f332e352c332e332c31312e382c31312e382c302c302c302d332e372d332c313160808201527f2e322c31312e322c302c302c302c2e342c342e382c31302e332c31302e332c3060a08201527f2c302c302d342e372c312c31312e352c31312e352c302c302c302c342c322e3760c08201527f2c31312c31312c302c302c302d322e322c342e332c31322e312c31322e312c3060e08201527f2c302c302c342e362d312e352c31302e372c31302e372c302c302c302c322c346101008201527f2e342c31312e332c31312e332c302c302c302c312e382d342e352c31302e312c6101208201527f31302e312c302c302c302c342e362c312e312c31302e382c31302e382c302c306101408201527f2c302d322e342d342e314131322c31322c302c302c305a22202f3e0000000000610160820152604051906107cc82612b79565b605282527f3c636972636c652066696c6c3d2223663764363064222063793d222d3133382260208301527f20723d2237222f3e3c636972636c652066696c6c3d22236663656639652220636040830152713c9e911698999c1110391e911a171b91179f60711b60608301526040519061042082018281106001600160401b0382111761114a576040526103fb82527f3c706174682066696c6c3d22236536333332612220643d224d31382e36202d3160208301527f333361352e3920352e392030203030332e382d372e342036203620302030302d60408301527f332e362d332e3720362e3420362e3420302030302e372d352e3120362036203060608301527f2030302d372e342d332e3720362e3120362e3120302030302d322e3420312e3560808301527f20362e3120362e3120302030302e372d322e3820352e3920352e39203020303060a08301527f2d352e392d352e3820352e3620352e3620302030302d342e3620322e3341352e60c08301527f3920352e392030203030202d31302e36202d3135346136203620302030302e3760e08301527f20322e3720362e3120362e3120302030302d322e342d312e3520352e3820352e6101008301527f3820302030302d362e3620382e3920352e3820352e3820302030302d332e36206101208301527f332e3720352e3920352e392030203030332e3820372e3420372e3520372e35206101408301527f30203030322e382e3220362e3520362e3520302030302d322e3220312e3820356101608301527f2e3820352e382030203030312e3420382e3220362036203020303035202e39206101808301527f352e3820352e382030203030322e3520342e3520352e3720352e3720302030306101a08301527f382e312d312e3420362e3120362e312030203030312e312d322e3520352e34206101c08301527f352e342030203030312e3120322e3620352e3720352e372030203030382e31206101e08301527f312e3220352e3420352e342030203030322e342d342e3520352e3920352e39206102008301527f30203030352e312d2e3920352e3820352e382030203030312e322d382e3220366102208301527f2e3420362e3420302030302d322e312d312e3820352e3720352e3720302030306102408301527f322e382d2e327a6d2d31362e392d322e3461342e3920342e3920302030302d316102608301527f2e3820322036203620302030302d312e382d322e3120352e3520352e352030206102808301527f30302d322e352d3120352e3520352e352030203030312e352d322e3420362e326102a08301527f20362e3220302030302e322d322e37203620362030203030322e372e3720352e6102c08301527f3920352e392030203030322e362d2e3720362e3720362e3720302030302e32206102e08301527f322e3820352e3920352e392030203030312e3420322e3320352e3120352e31206103008301527f302030302d322e3520312e317a22202f3e3c706174682066696c6c3d222365616103208301527f636366392220643d224d31302e36202d3134312e336136203620302030302d356103408301527f2e322d3420352e3820352e3820302030302d352e352d332e3720352e3920352e6103608301527f3920302030302d352e3420332e3720352e3920352e3920302030302d352e32206103808301527f3420362e3120362e312030203030312e3820362e3320352e3720352e372030206103a08301527f3030322e3320362e3220352e3720352e372030203030362e352e3320352e39206103c08301527f352e392030203030362e362d2e3320352e3720352e372030203030322e322d366103e08301527f2e3120352e3920352e392030203030312e392d362e347a22202f3e000000000061040083015260405192836103608101106001600160401b036103608601111761114a576104e491610360850160405261032a85527f3c706174682066696c6c3d22233963623032362220643d224d3336202d31303060208601527f2e3663342e372d2e3620382d342e3720382d342e37732d342e332d332e322d3860408601527f2e392d322e362d3820342e372d3820342e3720342e3220332e3220382e39203260608601527f2e367a4d32372e31202d3932633420322e3520392e3220312e3420392e32203160808601527f2e34732d312e332d352e312d352e332d372e362d392e312d312e352d392e312d60a08601527f312e3520312e3220352e3120352e3220372e377a4d313920202d383863322e3960c08601527f20332e3720382e3220342e3420382e3220342e34732e352d352e322d322e342d60e08601527f382e392d382e322d342e352d382e322d342e352d2e3520352e3320322e3420396101008601527f7a4d31312e31202d38352e3663312e3720342e3320362e3520362e3620362e356101208601527f20362e3673322d342e392e332d392e332d362e352d362e362d362e352d362e366101408601527f2d3220342e382d2e3320392e337a22202f3e3c706174682066696c6c3d2223396101608601527f63623032362220643d224d31382e38202d3130372e37632e322d342e3720342d6101808601527f382e3320342d382e3373332e3520332e3920332e3320382e362d3420382e342d6101a08601527f3420382e342d332e352d332e392d332e332d382e377a4d31302e37202d3130346101c08601527f632d312e342d342e3520312d392e3220312d392e3273342e3720322e352036206101e08601527f372d3120392e332d3120392e332d342e362d322e362d362d372e317a4d332e336102008601527f202d3938632d322e372d332e392d312e382d392e322d312e382d392e3273352e6102208601527f3220312e3120372e39203520312e3720392e3220312e3720392e322d352e322d6102408601527f312e312d372e382d357a22202f3e3c706174682066696c6c3d226e6f6e6522206102608601527f7374726f6b653d222339636230323622207374726f6b652d6c696e656361703d6102808601527f22726f756e642220207374726f6b652d77696474683d22332220643d224d2d306102a08601527f2e32202d313338632d2e322e332d332e3420372d332e372032322e327331342e6102c08601527f322035382d312e3120313135222f3e203c706174682066696c6c3d226e6f6e656102e08601527f22207374726f6b653d22233963623032362220207374726f6b652d77696474686103008601527f3d22322220643d224d302e37202d38342e367331332e362d31342e392032372e610320860152691c16989c171a9110179f60b11b61034086015260405194859485612854565b634e487b7160e01b600052604160045260246000fd5b3461058f57600036600319011261058f576002546040516001600160a01b039091168152602090f35b3461058f57602036600319011261058f57600480546001600160a01b0316903560761981019081116112515760009060246040518094819363b00a26b760e01b835260048301525afa90811561051157600090600092611203575b506104e46040519283921515835260406020840152604083019061282f565b9150503d806000833e6112168183612bca565b81019060408183031261058f5761122c8161346d565b9160208201516001600160401b03811161058f5761124a9201612cce565b90826111e4565b634e487b7160e01b600052601160045260246000fd5b3461058f57602036600319011261058f57600480546001600160a01b0316903560da19810190811161125157600090602460405180948193632f8fb9ad60e01b835260048301525afa801561051157600080916000806000926112fb575b906104e492916040519586951515865215156020860152151560408501521515606084015260a0608084015260a083019061282f565b50505050503d806000833e6113108183612bca565b81019060a08183031261058f576113268161346d565b916113336020830161346d565b916113406040820161346d565b9361134d6060830161346d565b916080810151936001600160401b03851161058f576104e4946113709201612cce565b909394919091859493506112c5565b3461058f57600036600319011261058f576003546040516001600160a01b039091168152602090f35b3461058f57602036600319011261058f576104e46113c7600435612fa5565b604051918291826128f1565b3461058f57600036600319011261058f576004546040516001600160a01b039091168152602090f35b3461058f57602036600319011261058f57600480546001600160a01b031690356012198101908111611251576000906024604051809481936373075aff60e01b835260048301525afa90811561051157600090600092611467575b506104e46040519283928361289f565b905061148691503d806000833e61147e8183612bca565b810190612d6b565b9082611457565b3461058f57600036600319011261058f57604051600080549060018260011c916001841691821561158f575b60209485851084146115795785879486865291826000146115595750506001146114ff575b506114eb92500383612bca565b6104e460405192828493845283019061282f565b6000808052859250907f290decd9548b62a8d60345a988386fc84ba6bc95484008f6362f93160ef3e5635b8583106115415750506114eb9350820101856114de565b8054838901850152879450869390920191810161152a565b60ff1916858201526114eb95151560051b85010192508791506114de9050565b634e487b7160e01b600052602260045260246000fd5b92607f16926114b9565b3461058f57600036600319011261058f5760405161026081018181106001600160401b0382111761114a576118859160009160405261022881527f13706572736f6e0000000046500000546000000e1000001c200000006401636160208201527f6d656c00000000004650000054600000546000001c200000006401636174000060408201527a3840000046500000546000000e100000006402627573000000000060608201527d3840000070800000465000001c20000000640163616e676100000000003860808201527f400000708000002a3000001c200000003202626174000000000000001c20000060a08201527f2a3000001c2000000e10000000320063616d70657200000003f48000093a800060c08201527f1275000007e900000000460274656e74000000000003f48000093a800012750060e08201527e07e9000000004602636f796f7465000000004650000054600000708000001c6101008201527f200000006402636f77000000000000004650000054600000708000001c2000006101208201527e6401706265617200000000001c20000038400000a8c000000e1000000064026101408201527f706172726f7400000000016800000e10000002d000000708000000640270656e6101608201527f670000000000001c20000038400000070800000e10000000640267756c6c00006101808201527b0258000004b000001c200000070800000032026c6c616d61000000006101a08201527e0e1000001c200000465000000e1000000064026170650000000000000007086101c08201527d151800002a30000007080000003202656c65700000000000000e100000156101e08201527f1800002a30000007080000003202676972616600000000000e100000151800006102008201527f2a300000070800000032026a656c6c790000000000070800000e1000000e10006102208201526501c20000001960ca1b61024082015260405180938192634a9fd61360e01b835260206004840152602483019061282f565b038173__$55e308ee0cc2c89b0b139d5735dcdc1f21$__5af490811561051157600091611963575b506040518091602082016020835281518091526040830190602060408260051b8601019301916000905b8282106118e657505050500390f35b919360019193955060208091603f1989820301855287519060c080611914845160e0855260e085019061282f565b93858101518685015260408101516040850152606081015160608501526080810151608085015260a081015160a0850152015191611951836128c4565b015296019201920185949391926118d7565b3d9150816000823e6119758282612bca565b602081838101031261058f5780516001600160401b03811161058f57828201601f82840101121561058f5780820151906119ae82612beb565b936119bc6040519586612bca565b828552602085019181850160208560051b83880101011161058f57602081860101925b60208560051b838801010184106119fc57505050505050816118ad565b83516001600160401b03811161058f5760e0878401820185890103601f19011261058f576040519060e082018281106001600160401b0382111761114a57604052602081858a01010151906001600160401b03821161058f57611a6d89602060e09484898b85019401010101612cce565b8352888501016040818101516020850152606080830151918501919091526080808301519185019190915260a0808301519185019190915260c0820151908401520151600381101561058f5760c08201528152602093840193016119df565b3461058f57602036600319011261058f57600435611ae8612dae565b50610140811015611f4057611afb612dae565b506013811015611f2f576007811015611e6b57600154604051633fb75bfb60e21b81526004810192909252600090829060249082906001600160a01b03165afa90811561051157611b74916000918291611e49575b505b604051809381926327a8dd9560e21b835260206004840152602483019061282f565b038173__$55e308ee0cc2c89b0b139d5735dcdc1f21$__5af4801561051157600090611bb4575b6104e491506000610100820152604051918291826128f1565b503d806000833e611bc58183612bca565b602082828101031261058f5781516001600160401b03811161058f5782019161012083838301031261058f5760405191611bfe83612b5d565b83516001600160401b03811161058f57611c1d90828401908601612cce565b83526020840151602084015260408401516040840152606084015160608401526080840151608084015260a08401516001600160401b03811161058f57611c6990828401908601612cce565b60a084015260c08401516001600160401b03811161058f57611c9090828401908601612e2c565b60c084015260e08401516001600160401b03811161058f57818301601f82870101121561058f578085015191611cc583612beb565b93611cd36040519586612bca565b838552602085019180820160208660051b868b0101011161058f57602084890101925b60208660051b868b0101018410611d2e5750505050505060e082015261010080920151600481101561058f576104e492820152611b9b565b83516001600160401b03811161058f5760a08a8701820185850103601f19011261058f57604051918260a08101106001600160401b0360a08501111761114a5760a08301604052602082888d01010151600381101561058f578352604082888d01010151600381101561058f576020840152606082888d010101516001600160401b03811161058f578b6020611dcd92858b898b019401010101612c02565b6040840152608082888d010101516001600160401b03811161058f578b6020611dff92858b898b019401010101612cce565b606084015260a082888d01010151906001600160401b03821161058f57602093611e378d8680969581968d8b8d019401010101612cce565b60808201528152019401939050611cf6565b611e6591503d8084833e611e5d8183612bca565b810190612df6565b83611b50565b600e811015611edf576002546001600160a01b031690600619810190811161125157600090602460405180948193633fb75bfb60e21b835260048301525afa90811561051157611b74916000918291611ec5575b50611b52565b611ed991503d8084833e611e5d8183612bca565b83611ebf565b6003546001600160a01b031690600d19810190811161125157600090602460405180948193633fb75bfb60e21b835260048301525afa90811561051157611b74916000918291611ec55750611b52565b611f3b6104e491612fa5565b6113c7565b60405162461bcd60e51b8152602060048201526015602482015274546f6b656e204944206f7574206f662072616e676560581b6044820152606490fd5b3461058f57602036600319011261058f57600480546001600160a01b0316903560121981019081116112515760009060246040518094819363c1321e1960e01b835260048301525afa9081156105115760009060009261146757506104e46040519283928361289f565b3461058f57602036600319011261058f57600480546001600160a01b0316903560da1981019081116112515760009060246040518094819363228b974b60e01b835260048301525afa801561051157600090600092600091612078575b5061206e6120609360405194859460608652606086019061282f565b90848203602086015261282f565b9060408301520390f35b925050503d806000833e61208c8183612bca565b81019060608183031261058f5780516001600160401b039081811161058f57836120b7918401612cce565b90602083015190811161058f5760406120d86120609561206e938601612cce565b93015191929350612044565b3461058f5760208060031936011261058f57600480546001600160a01b031690356076198101908111611251578290602460405180948193631c6e9c1560e01b835260048301525afa90811561051157600091612145575b50604051908152f35b90508181813d831161216b575b61215c8183612bca565b8101031261058f57518261213c565b503d612152565b3461058f5760208060031936011261058f57600480546001600160a01b03908116913560761981019081116112515783906024604051809581936313aa362d60e01b835260048301525afa918215610511576000926121d6575b5060405191168152f35b9091508281813d8311612207575b6121ee8183612bca565b8101031261058f5751818116810361058f5790836121cc565b503d6121e4565b3461058f576003199060003683011261058f576328d1938160e11b815260406004820152601660448201527e1e003c005a0078009600b400d200f0010e012c014a0000000000000000000060648201526002602482015260008160848173__$55e308ee0cc2c89b0b139d5735dcdc1f21$__5af4908115610511576000916127f1575b50604051916101c08301908382106001600160401b0383111761114a57600061277861272c869365195c195d185b60d21b9560405261279861036e6101a0988988527f2c362e322c31352e32532d392e362c2d302e352c2d31352c2d362e337a222f3e60209a7f3c67207374796c653d227472616e73666f726d3a726f7461746559283c212d2d8c8b01527f617a69537469636b2d2d3e293b207472616e73666f726d2d626f783a66696c6c60408b01527f2d626f783b20207472616e73666f726d2d6f726967696e3a63656e746572223e60608b01527f3c706f6c79676f6e2066696c6c3d22233942423232342220706f696e74733d2260808b01527f2d372e352c2d353220382c2d353220332c2d33202d322e362c2d33222f3e3c2f60a08b01527f673e3c706174682066696c6c3d22233942423232342220643d224d31352e362c60c08b01527f2d362e3363352e392d352e382c362e322d31352e322c362e322d31352e32732d60e08b01527f2e342c302e312c31352e332c352e3963352e392c352e382c362e322c31352e326101806101009b7f392e342c302e312d31352e332c352e39632d352e392c352e382d362e322c31358d8201527f2e322d362e322c31352e3253392e362c2d302e352c31352e362c2d362e337a226101208201527f2f3e3c706174682066696c6c3d22233942423232342220643d224d2d31352c2d6101408201527f362e33632d352e392d352e382d362e322d31352e322d362e322d31352e32733961016082015201528c0152604080519a6124d58c612b94565b60338c527f3c636972636c652066696c6c3d2223394242323234222063783d22302e322220818d01527231bc9e91169a991110391e911b971c1110179f60691b828d0152815199601f60f91b9061252b8c612b5d565b60e18c527f3c636972636c6520207374726f6b652d77696474683d22332e3522207374726f838d01527f6b653d2223423935394544222066696c6c3d2223393330304532222063793d22848d01527f2d35322220723d2231322e3522202f3e3c636972636c652066696c6c3d22234660608d01527f4646464646222063783d222d34222063793d222d35352220723d22322e32222f60808d01527f3e3c636972636c652066696c6c3d2223464646464646222063783d223422206360a08d01527f793d222d35352220723d22322e32222f3e3c636972636c652066696c6c3d222360c08d01527f464646464646222063783d2230222063793d222d34382220723d22322e32222f60e08d01528b0152603c82519661264888612b42565b8a8852603319838901526127566034855161266281612baf565b608981528581017f3c706174682069643d2265706574616c222066696c6c3d22234541434346392281527f20643d224d302e382c2d36382e38632d312e382d362e322d372e392d392e392d888301527f372e392d392e39732d332e342c362e342d312e382c31322e3563312e372c362e60608301527f322c372e392c392e382c372e392c392e3853322e352c2d36322e362c302e382c608083015268169b1c171c3d11179f60b91b60a083015287519c8d92621e339f60e91b89850152518092602385019061280c565b8101701e109696b2b832ba30b616969f1e17b39f60791b602382015203601481018c52018a612bca565b8351636c671b3d60e11b815260a060048201529c8d9a8b9a60a48c019061282f565b938a850392830160248c0152600685528401520160448801520190612d0d565b038173__$30acca89589d9a9b80eb3e09f3c9eae508$__5af4918215610511576000926127d2575b506104e4919260405194859485612854565b6104e492506127eb903d806000833e6105028183612bca565b916127c0565b61280691503d806000833e6105808183612bca565b82612291565b60005b83811061281f5750506000910152565b818101518382015260200161280f565b906020916128488151809281855285808601910161280c565b601f01601f1916010190565b9261288061289c959361287261288e9460808852608088019061282f565b90868203602088015261282f565b90848203604086015261282f565b91606081840391015261282f565b90565b90916128b661289c9360408452604084019061282f565b91602081840391015261282f565b600311156128ce57565b634e487b7160e01b600052602160045260246000fd5b9060048210156128ce5752565b6020815261294e6129108351610120602085015261014084019061282f565b602084015160408401526040840151606084015260608401516080840152608084015160a084015260a0840151601f198483030160c085015261282f565b9160c081015192601f198382030160e0840152835180825260208201916020808360051b8301019601926000915b838310612a8f57505050505060e081015192601f1983820301610100840152835180825260208201916020808360051b8301019601926000915b8383106129d75750505050509061012061010061289c9301519101906128e4565b9091929396601f1982820301835287519060a0810182516129f7816128c4565b82526020830151612a07816128c4565b602083015260408301519060a060408401528151809152602060c084019201906000905b808210612a7757505050612a68836020936080612a57869560606001990151848203606086015261282f565b92015190608081840391015261282f565b990193019301919392906129b6565b90919260208060019286518152019401920190612a2b565b9091929396601f19828203018352875190612ab3825160e0835260e083019061282f565b916020810151928281036020840152602080855192838152019401906000905b808210612b275750505060408181015160009184015b60048310612b11575050506060015160c090910152966020908101949360010192019061297c565b6020806001928451815201920192019190612ae9565b90919460208060019260ff8951168152019601920190612ad3565b604081019081106001600160401b0382111761114a57604052565b61012081019081106001600160401b0382111761114a57604052565b608081019081106001600160401b0382111761114a57604052565b606081019081106001600160401b0382111761114a57604052565b60c081019081106001600160401b0382111761114a57604052565b90601f801991011681019081106001600160401b0382111761114a57604052565b6001600160401b03811161114a5760051b60200190565b9080601f8301121561058f57815190602091612c1d81612beb565b93612c2b6040519586612bca565b81855260208086019260051b82010192831161058f57602001905b828210612c54575050505090565b81518152908301908301612c46565b9060208282031261058f5781516001600160401b03811161058f5761289c9201612c02565b909291926001600160401b03811161114a5760405191612cb2601f8301601f191660200184612bca565b82948284528282011161058f576020612ccc93019061280c565b565b9080601f8301121561058f57815161289c92602001612c88565b9060208282031261058f5781516001600160401b03811161058f5761289c9201612cce565b90815180825260208080930193019160005b828110612d2d575050505090565b835185529381019392810192600101612d1f565b6000915b60028310612d5257505050565b6001908251820b81526020809101920192019190612d45565b91909160408184031261058f578051926001600160401b039384811161058f5781612d97918401612cce565b93602083015190811161058f5761289c9201612cce565b60405190612dbb82612b5d565b60006101008360608152826020820152826040820152826060820152826080820152606060a0820152606060c0820152606060e08201520152565b60208183031261058f578051906001600160401b03821161058f57019080601f8301121561058f57815161289c92602001612c88565b9080601f8301121561058f57815190602091612e4781612beb565b93604090612e5782519687612bca565b828652848601918560059460051b8301019480861161058f57868301935b868510612e8757505050505050505090565b84516001600160401b039081811161058f57850160e09081601f19828703011261058f57855192612eb784612b79565b8b82015181811161058f57868d612ed092850101612cce565b84528682015190811161058f57810185603f8201121561058f57808c8092015188612efa82612beb565b93612f0782519586612bca565b8285528401918d1b8301019188831161058f578901905b828210612f8c575050508b84015260609185607f8301121561058f57865190612f4682612b79565b819083019287841161058f5791848e969492979593015b828110612f7c5750859650888401525190820152815201940193612e75565b80518852968601968e9601612f5d565b815160ff8116810361058f578152908e01908e01612f1e565b612fad612dae565b50604090815191612fbd83612b79565b60609182845260009182846020968288820152828482015201528394612fe1612dae565b9584908660778610156132e95750506004546001966001600160a01b03959092509085169060121981019081116132d557869060248651809481936337ccfd9960e21b835260048301525afa90811561320657600491879182916132bb575b509560055416855192838092630f932c8360e41b82525afa9081156132065786916132a1575b50905b83516327f9164d60e01b815286818061308d600499888b840152602483019061282f565b038173__$55e308ee0cc2c89b0b139d5735dcdc1f21$__5af4908115613297579082918891613210575b5080518a5284810151858b015285810151868b015201519088015260a08701528254825163cf4e224b60e01b81526001600160a01b03909116906130fd818601886128e4565b8581602481855afa9081156132065786916131b5575b5060c0880152825163c482a49d60e01b8152919081908390602490829061313c8983018c6128e4565b5afa9283156131ac5750849261317a575b505060808501528083101561316757505061010082015290565b634e487b7160e01b825260219052602490fd5b90809250813d83116131a5575b6131918183612bca565b810103126131a15751388061314d565b8280fd5b503d613187565b513d86823e3d90fd5b90503d8087833e6131c68183612bca565b8101908381830312613202578051906001600160401b0382116131fe5784939192602495936131f59201612e2c565b91509192613113565b8780fd5b8680fd5b84513d88823e3d90fd5b9150503d8088833e6132228183612bca565b810184828203126131fe5781516001600160401b039283821161328f5701906080828203126132935786519261325784612b79565b825190811161328f57916132718594939285938301612cce565b835286810151878401528781015188840152015182820152386130b7565b8980fd5b8880fd5b85513d89823e3d90fd5b6132b591503d8088833e6105028183612bca565b38613066565b6132cf91503d8084833e611e5d8183612bca565b38613040565b634e487b7160e01b87526011600452602487fd5b60db8610156133a55750506004546002966001600160a01b03959092509085169060761981019081116132d5578690602486518094819363ec7803c560e01b835260048301525afa908115613206576004918791829161338b575b50956005541685519283809263e7e5a56360e01b82525afa908115613206578691613371575b5090613069565b61338591503d8088833e6105028183612bca565b3861336a565b61339f91503d8084833e611e5d8183612bca565b38613344565b9196909461013f81106133b9575b50613069565b600454600398506001600160a01b0396509192509085169060da1981019081116132d5578690602486518094819363ebb57c6560e01b835260048301525afa9081156132065760049187918291613453575b5095600554168551928380926384f959ab60e01b82525afa908115613206578691613439575b5090386133b3565b61344d91503d8088833e6105028183612bca565b38613431565b61346791503d8084833e611e5d8183612bca565b3861340b565b5190811515820361058f5756fea26469706673582212207ab3663c2089a474c5536a1d4852b9b61d3a3a3245522f5e0f6ed346f8b4025464736f6c63430008190033","linkReferences":{"contracts/NDDecoder.sol":{"NDDecoder":[{"start":16385,"length":20},{"start":22005,"length":20},{"start":22756,"length":20},{"start":24537,"length":20},{"start":28157,"length":20}]},"contracts/NDUtils.sol":{"NDUtils":[{"start":16498,"length":20},{"start":25864,"length":20}]}}},"methodIdentifiers":{"assets()":"71a97305","genericMotifs()":"7a1ebd4d","genericMotifsSVG()":"dda510f0","getAssetInScene()":"485c475f","getBeachColor(uint256)":"24b2387e","getClimateZoneForLandscape(uint256)":"228b974b","getGenericMotif(uint256)":"a3603766","getGentian()":"018a5f4d","getLandScapeTraits(uint256)":"b4d6438b","getMotifByTokenId(uint256)":"25481179","getRose()":"cba4cbbd","getSkinColor(uint256)":"73075aff","getSkylineType(uint256)":"1c6e9c15","getSunflower()":"f773e0b0","getTradingChartAddress(uint256)":"13aa362d","isCityCoastel(uint256)":"bc90ad50","seightSeeing3()":"a5c0594b","sightSeeing1()":"cfe839ec","sightSeeing2()":"bcb91543"},"id":4}