{"abi":[{"type":"function","name":"abs","inputs":[{"name":"x","type":"int256","internalType":"int256"}],"outputs":[{"name":"","type":"int256","internalType":"int256"}],"stateMutability":"pure"},{"type":"function","name":"createStandardAttributes","inputs":[{"name":"motif","type":"tuple","internalType":"struct Motif","components":[{"name":"name","type":"string","internalType":"string"},{"name":"lat","type":"int256","internalType":"int256"},{"name":"lng","type":"int256","internalType":"int256"},{"name":"heading","type":"int256","internalType":"int256"},{"name":"horizon","type":"int256","internalType":"int256"},{"name":"svg","type":"string","internalType":"string"},{"name":"scenes","type":"tuple[]","internalType":"struct SceneInMotif[]","components":[{"name":"placeHolder","type":"string","internalType":"string"},{"name":"assets","type":"uint8[]","internalType":"uint8[]"},{"name":"area","type":"int256[4]","internalType":"int256[4]"},{"name":"scale","type":"uint256","internalType":"uint256"}]},{"name":"replacements","type":"tuple[]","internalType":"struct Replacement[]","components":[{"name":"tag","type":"ObjectType","internalType":"enum ObjectType"},{"name":"dataType","type":"RenderDataType","internalType":"enum RenderDataType"},{"name":"data","type":"int256[]","internalType":"int256[]"},{"name":"placeholder","type":"string","internalType":"string"},{"name":"ref","type":"string","internalType":"string"}]},{"name":"motifType","type":"MotifType","internalType":"enum MotifType"}]},{"name":"flowerType","type":"FlowerType","internalType":"enum FlowerType"}],"outputs":[{"name":"","type":"string","internalType":"string"}],"stateMutability":"pure"},{"type":"function","name":"formatChartNumber","inputs":[{"name":"number","type":"uint256","internalType":"uint256"}],"outputs":[{"name":"","type":"string","internalType":"string"}],"stateMutability":"pure"},{"type":"function","name":"randomNum","inputs":[{"name":"nonce","type":"uint256","internalType":"uint256"},{"name":"min","type":"uint256","internalType":"uint256"},{"name":"max","type":"uint256","internalType":"uint256"}],"outputs":[{"name":"","type":"uint256","internalType":"uint256"}],"stateMutability":"pure"},{"type":"function","name":"randomNum","inputs":[{"name":"nonce","type":"string","internalType":"string"},{"name":"min","type":"uint256","internalType":"uint256"},{"name":"max","type":"uint256","internalType":"uint256"}],"outputs":[{"name":"","type":"uint256","internalType":"uint256"}],"stateMutability":"pure"},{"type":"function","name":"renderDecimal","inputs":[{"name":"value","type":"int256","internalType":"int256"}],"outputs":[{"name":"","type":"string","internalType":"string"}],"stateMutability":"pure"},{"type":"function","name":"renderDecimal","inputs":[{"name":"value","type":"int256","internalType":"int256"},{"name":"decimals","type":"uint256","internalType":"uint256"}],"outputs":[{"name":"","type":"string","internalType":"string"}],"stateMutability":"pure"},{"type":"function","name":"renderFinalNFT","inputs":[{"name":"assetsSVG","type":"string","internalType":"string"},{"name":"motifType","type":"MotifType","internalType":"enum MotifType"},{"name":"motifSVG","type":"string","internalType":"string"},{"name":"svgData","type":"tuple","internalType":"struct SVGData","components":[{"name":"sunSVG","type":"string","internalType":"string"},{"name":"skyColor","type":"string","internalType":"string"},{"name":"moonSVG","type":"string","internalType":"string"},{"name":"nightSVG","type":"string","internalType":"string"},{"name":"waterColor","type":"string","internalType":"string"},{"name":"cloudsSVG","type":"string","internalType":"string"},{"name":"skySceneSVG","type":"string","internalType":"string"},{"name":"flowerSVG","type":"string","internalType":"string"}]},{"name":"maskedAssetsSVG","type":"string","internalType":"string"}],"outputs":[{"name":"","type":"string","internalType":"string"}],"stateMutability":"view"},{"type":"function","name":"renderReplacements","inputs":[{"name":"svg","type":"string","internalType":"string"},{"name":"replacements","type":"tuple[]","internalType":"struct Replacement[]","components":[{"name":"tag","type":"ObjectType","internalType":"enum ObjectType"},{"name":"dataType","type":"RenderDataType","internalType":"enum RenderDataType"},{"name":"data","type":"int256[]","internalType":"int256[]"},{"name":"placeholder","type":"string","internalType":"string"},{"name":"ref","type":"string","internalType":"string"}]}],"outputs":[{"name":"","type":"string","internalType":"string"}],"stateMutability":"pure"},{"type":"function","name":"setRandomColor","inputs":[{"name":"svg","type":"string","internalType":"string"},{"name":"salt","type":"string","internalType":"string"}],"outputs":[{"name":"","type":"string","internalType":"string"}],"stateMutability":"pure"},{"type":"function","name":"setUseRotations","inputs":[{"name":"svg","type":"string","internalType":"string"},{"name":"ref","type":"string","internalType":"string"},{"name":"rotations","type":"int256[]","internalType":"int256[]"},{"name":"rotationAnchor","type":"int16[2]","internalType":"int16[2]"}],"outputs":[{"name":"","type":"string","internalType":"string"}],"stateMutability":"pure"},{"type":"function","name":"setUseTags","inputs":[{"name":"svgTemplate","type":"string","internalType":"string"},{"name":"ref","type":"string","internalType":"string"},{"name":"positions","type":"int16[]","internalType":"int16[]"},{"name":"hasScale","type":"bool","internalType":"bool"},{"name":"placeholder","type":"string","internalType":"string"}],"outputs":[{"name":"","type":"string","internalType":"string"}],"stateMutability":"pure"}],"bytecode":{"object":"0x60808060405234601957612a35908161001f823930815050f35b600080fdfe6080604052600436101561001257600080fd5b60003560e01c80631b5ac4b514611ddf5780632829464014611db85780633899f05414611ae657806358f9913614611acc5780638587a4a514611a87578063acdaeb04146111a8578063b8d22c581461118e578063c1deee6814611171578063c2209fb914610db4578063c528fb3314610a55578063d8ce367a146108625763e4c1354e146100a057600080fd5b60031960403682011261067f576001600160401b036004351161067f5761012080916004353603011261067f576040519081018181106001600160401b0382111761083057604052600435600401356001600160401b03811161067f5761010e906004369181350101611e6a565b8152600435602481013560208301526044810135604083015260648101356060830190815260848201356080840152919060a401356001600160401b03811161067f57610162906004369181350101611e6a565b60a082015260c460043501356001600160401b03811161067f57366023826004350101121561067f5760048181350101359061019d82611eb1565b916101ab6040519384611e2e565b80835260208301903660248260051b856004350101011161067f576024836004350101915b60248260051b856004350101018310610684575050505060c082015260e460043501356001600160401b03811161067f57610212906004369181350101611f85565b60e08201526101046004350135600481101561067f576101008201908152602435600381101561067f576102458161259e565b60028103610624575060405161025a81611e13565b6004815263526f736560e01b6020820152905b6040519360208501927f2261747472696275746573223a205b7b2274726169745f74797065223a22466c84526e37bbb2b91116113b30b63ab2911d1160891b604087015280519081604f880191602001916102c792611ed6565b8501938561227d60f01b9586604f820152036031810187526051016102ec9087611e2e565b60208101516102fa90612492565b956040519687916020830196879151809261031492611ed6565b8201602081017f2c7b2274726169745f74797065223a224c61746974756465222c2276616c7565905262111d1160e91b60408201528151918260438301916020019161035f92611ed6565b018660438201520360258101875260450161037a9087611e2e565b6040015161038790612492565b94604051958691602083019586915180926103a192611ed6565b8201602081017f2c7b2274726169745f74797065223a224c6f6e676974756465222c2276616c7590526332911d1160e11b6040820152815191826044830191602001916103ed92611ed6565b01856044820152036026810186526046016104089086611e2e565b5161041290612711565b936040519485916020830194859151809261042c92611ed6565b8201602081017f2c7b2274726169745f74797065223a2248656164696e67222c2276616c7565229052611d1160f11b60408201528151918260428301916020019161047692611ed6565b01846042820152036024810185526044016104919085611e2e565b8051600481101561060e5761055857506047610554936104e993610548936040516104bb81611e13565b600c81526b536967687420536565696e6760a01b6020820152905b6040519687945180926020870190611ed6565b83017f2c7b2274726169745f74797065223a224d6f7469662054797065222c2276616c6020820152643ab2911d1160d91b6040820152610533825180936020604585019101611ed6565b01906045820152036027810184520182611e2e565b60405191829182611ef9565b0390f35b8051600481101561060e5760010361059e57506047610554936104e9936105489360405161058581611e13565b6005815264084cac2c6d60db1b60208201525b906104d6565b51600481101561060e57610554936104e993610548936047936002036105e7576040516105ca81611e13565b600b81526a29b5bc9029b1b930b832b960a91b6020820152610598565b6040516105f381611e13565b60098152684c616e64736361706560b81b6020820152610598565b634e487b7160e01b600052602160045260246000fd5b61062d8161259e565b61065a5760405161063d81611e13565b600981526829bab7333637bbb2b960b91b60208201525b9061026d565b60405161066681611e13565b600781526623b2b73a34b0b760c91b6020820152610654565b600080fd5b82356001600160401b03811161067f5760e0600435860182013603602319011261067f57604051908160808101106001600160401b0360808401111761083057608082016040526001600160401b0360248288600435010101351161067f576106fb36602460043589018401818101350101611e6a565b825260448187600435010101356001600160401b03811161067f5736604382848a60043501010101121561067f57602481838960043501010101359061074082611eb1565b9161074e6040519384611e2e565b808352602083013660448b85888660051b9260043501010101011161067f57604483868c60043501010101905b60448b85888660051b9260043501010101018210610846575050505060208301523660838288600435010101121561067f576040518060808101106001600160401b036080830111176108305760808101604052803660e4848a6004350101011161067f5760648389600435010101905b60e4848a6004350101018210610820575050604083015260043586010160e4013560608201528152602092830192016101d0565b81358152602091820191016107ec565b634e487b7160e01b600052604160045260246000fd5b60ff82351682350361067f57813581526020918201910161077b565b60a036600319011261067f576001600160401b0360043581811161067f5761088e903690600401611e6a565b60243582811161067f576108a6903690600401611e6a565b9160443590811161067f576108bf903690600401611f25565b90366083121561067f576040516108d581611e13565b60a48136821161067f576064905b828210610a3d5750505090916040516108fb81611df8565b600081529160009160209182810191838801955b8151861015610a265786610a1e6046600193888d6109366109308d8a612104565b51612711565b8951906109526109488a93840b612711565b928d51900b612711565b92604051988661096b8b9851809289808c019101611ed6565b87016b3c75736520687265663d222360a01b87820152610993602c9351809385840190611ed6565b01907304440e8e4c2dce6ccdee4da7a44e4dee8c2e8ca560631b908201526109c48251809387604085019101611ed6565b0190600160fd1b918260408201526109e760419583519384918885019101611ed6565b0192830152604291610a028c83519384918685019101611ed6565b0190631491179f60e11b90820152036026810184520182611e2e565b95019461090f565b6105486105549189610a378c61214b565b906127a1565b60208091610a4a84611ec8565b8152019101906108e3565b604036600319011261067f576001600160401b0360043581811161067f57610a81903690600401611e6a565b9060243581811161067f57610a9a903690600401611e6a565b90601160405192602093610aca858281610abd8183019687815193849201611ed6565b8101038084520182611e2e565b5190200660405191610220830190838210908211176108305780604052610af081611e13565b600481526311b3333360e11b6102408401528252604051610b1081611e13565b600790818152660236462643865360cc1b8582015284840152604051610b3581611e13565b818152662336383431393360c81b858201526040840152604051610b5881611e13565b818152662365336363653560c81b858201526060840152604051610b7b81611e13565b818152662366666636636360c81b858201526080840152604051610b9e81611e13565b8181526608cd8d0e4d8c8d60ca1b8582015260a0840152604051610bc181611e13565b818152662339626232323160c81b8582015260c0840152604051610be481611e13565b818152662363336431376360c81b8582015260e0840152604051610c0781611e13565b818152660236666643730360cc1b85820152610100840152604051610c2b81611e13565b8181526611b333329b9b1b60c91b85820152610120840152604051610c4f81611e13565b818152662366636438393960c81b85820152610140840152604051610c7381611e13565b8181526608d98c8e4c4c0d60ca1b85820152610160840152604051610c9781611e13565b818152662365363334326160c81b85820152610180840152604051610cbb81611e13565b818152662365393466316360c81b858201526101a0840152604051610cdf81611e13565b818152662362653138323360c81b858201526101c0840152604051610d0381611e13565b8181526608d8584dcc0ccd60ca1b858201526101e084015260405190610d2882611e13565b81526611b29c9a3298b160c91b848201526102008301526011811015610d805760051b015160405161055493610548936d1e109696b93221b7b637b916969f60911b90610d7484611e13565b600e84528301526127a1565b60405162461bcd60e51b815260048101849052600c60248201526b0deeae840decc40d2dcc8caf60a31b6044820152606490fd5b604036600319011261067f576001600160401b0360043581811161067f57610de0903690600401611e6a565b60249160243590811161067f57610dfc83913690600401611f85565b6000915b815183101561116357610e138383612104565b51936060948051610e238161259e565b610e2c8161259e565b15610e88575b94610e7f916060600194959697015190610e7a6040519283602091600960fa1b83830152610e6b60219382519283918686019101611ed6565b81010387810185520183611e2e565b6127a1565b93019190610e00565b906020820151610e978161259e565b610ea08161259e565b611135576002955b6000905b604084015180518310156111295782610ec491612104565b51604085015160018401841161111457610ee2906001850190612104565b51906020860151610ef28161259e565b610efb8161259e565b6110da57610f0761212e565b8660026020820151610f188161259e565b610f218161259e565b03611097576040015160038601861161108257937604440e8e4c2dce6ccdee4da7a44e8e4c2dce6d8c2e8ca5604b1b9388611071946054946705240e6c6c2d8ca560c31b610f98610f926080610f88610f828f9e61107c9f60030190612104565b516123be565b965b015194612711565b95612711565b946040519987610fb28c995180926020808d019101611ed6565b8801946b3c75736520687265663d222360a01b6020870152602c95610fe08251809360208a85019101611ed6565b0194850152604393610ffb8251809360208885019101611ed6565b019461016160f51b809487015260459561101e8251809360208a85019101611ed6565b0194850152604d936110398251809360208885019101611ed6565b0192830152604f916110548251809360208685019101611ed6565b019064149110179f60d91b90820152036034810184520182611e2e565b9160ff8916906120e1565b90610eac565b88634e487b7160e01b60005260116004526000fd5b937604440e8e4c2dce6ccdee4da7a44e8e4c2dce6d8c2e8ca5604b1b9361107c9561107194846705240e6c6c2d8ca560c31b610f98610f92608060549996610f8a565b60408601516002850185116110ff57610f826110fa916002870190612104565b610f07565b87634e487b7160e01b60005260116004526000fd5b86634e487b7160e01b60005260116004526000fd5b50965090919050610e32565b600160208301516111458161259e565b61114e8161259e565b0361115c5760035b95610ea8565b6004611156565b604051806105548682611ef9565b604036600319011261067f576105546105486024356004356124e1565b602036600319011261067f576105546105486004356123be565b60031960a03682011261067f576004356001600160401b03811161067f576111d4903690600401611e6a565b6004602435101561067f576044356001600160401b03811161067f576111fe903690600401611e6a565b916001600160401b036064351161067f57610100906064353603011261067f5760405161010081018181106001600160401b0382111761083057604052606435600401356001600160401b03811161067f5761126290600436916064350101611e6a565b8152602460643501356001600160401b03811161067f5761128b90600436916064350101611e6a565b6020820152604460643501356001600160401b03811161067f576112b790600436916064350101611e6a565b60408201526064803501356001600160401b03811161067f576112e290600436916064350101611e6a565b60608201526001600160401b03608460643501351161067f5761131036606435608481013501600401611e6a565b608082015260a460643501356001600160401b03811161067f5761133c90600436916064350101611e6a565b60a082015260c460643501356001600160401b03811161067f5761136890600436916064350101611e6a565b60c08201526001600160401b0360e460643501351161067f576113963660643560e481013501600401611e6a565b60e08201526001600160401b036084351161067f576113ba36608435600401611e6a565b92602435611a67576040516113ce81611e13565b60018152605360f81b6020820152935b61172f602d60808501516115eb61019860405180937f3c73766720786d6c6e733d22687474703a2f2f7777772e77332e6f72672f323060208301527f30302f73766722207072657365727665417370656374526174696f3d22784d6960408301527f6e594d696e206d656574222076696577426f783d22302030203130383020313060608301527f3830223e3c66696c7465722069643d226d616b65426c61636b223e3c6665436f60808301527f6c6f724d617472697820747970653d226d6174726978222076616c7565733d2260a08301527f302030203020302030203020302030203020302030203020302030203020302060c08301527f3020302031203022202f3e3c2f66696c7465723e3c66696c7465722069643d2260e08301527f73696c632220783d22302220793d2230222077696474683d22323030252220686101008301527f65696768743d2232303025223e3c6665466c6f6f6420666c6f6f642d636f6c6f61012083015262391e9160e91b6101408301527f2220726573756c743d22666c6f6f6422202f3e3c6665436f6d706f7369746520610143916115908151809260208688019101611ed6565b8301918201527f696e3d22666c6f6f642220696e323d22536f75726365416c70686122206f7065610163820152743930ba37b91e9134b711179f1e17b334b63a32b91f60591b61018382015203610178810184520182611e2e565b60208601519661165a604a604051809a6b1e3932b1ba103334b6361e9160a11b6020830152611624815180926020602c86019101611ed6565b81017f222077696474683d223130383022206865696768743d2231303830222f3e0000602c82015203602a81018b520189611e2e565b86519060a088015160c08901519060e08a0151936040519b866116878e985180926020808c019101611ed6565b870161169c8251809360208085019101611ed6565b016116b08251809360208085019101611ed6565b016116c48251809360208085019101611ed6565b016116d88251809360208085019101611ed6565b016116ec8251809360208085019101611ed6565b01651e3232b3399f60d11b6020820152611710825180936020602685019101611ed6565b01661e17b232b3399f60c91b602682015203600d810187520185611e2e565b60406060840151930151926040519261185f609c856020810197713c6d61736b2069643d226d6f6f6e4d61736b60701b89528a519560208c019661177781603286018a611ed6565b7f223e3c726563742066696c6c3d2223666666222077696474683d2231303830226032918501918201526f103432b4b3b43a1e9118981c1811179f60811b6052820152701e3ab9b290343932b31e9111b6b7ba34b360791b60628201528c51906117e582607383018b611ed6565b017f222066696c7465723d2275726c28236d616b65426c61636b29222f3e3c2f6d6160738201526239b59f60e91b609382015261182c825180936020609685019101611ed6565b01611841825180936020609685019101611ed6565b01651e17b9bb339f60d11b609682015203607c810187520185611e2e565b604051606081018181106001600160401b03821117610830576040908152603282527f3c75736520687265663d22236c69676874686f757365222066696c7465723d226020830152713ab9361411b6b0b5b2a13630b1b59491179f60711b90820152602435611a51575b604051928360208101957f3c2f673e3c6d61736b2069643d226e696768744d61736b00000000000000000087528a518060378401906119089186611ed6565b82019361111f60f11b94856037820152603981017f3c726563742066696c6c3d2223666666222077696474683d223130383022206890526d32b4b3b43a1e9118981c1811179f60911b60598201528151918260678301916020019161196c92611ed6565b018151918260678301916020019161198392611ed6565b0160678101661e17b6b0b9b59f60c91b905203604e81018552606e016119a99085611e2e565b60405198888a9951908160208c0191602001916119c592611ed6565b8901906b1e339034b21e9136b7ba34b360a11b6020830152519182602c83016119ed92611ed6565b0190602c82015281519182602e83019160200191611a0a92611ed6565b0190519182602e8301611a1c92611ed6565b0190519182602e8301611a2e92611ed6565b0103600e81018252602e01611a439082611e2e565b604051610554819282611ef9565b50604051611a5e81611df8565b600081526118c9565b604051611a7381611e13565b60018152604760f81b6020820152936113de565b606036600319011261067f576004356001600160401b03811161067f57611ac4611ab76020923690600401611e6a565b604435906024359061231d565b604051908152f35b602036600319011261067f57610554610548600435612195565b60a036600319011261067f576001600160401b0360043581811161067f57611b12903690600401611e6a565b906024803582811161067f57611b2c903690600401611e6a565b6044359280841161067f573660238501121561067f57836004013593611b5185611eb1565b94611b5f6040519687611e2e565b8086526024602087019160051b8301019136831161067f57602401905b828210611da05750505060643515156064350361067f5760843590811161067f57611bab903690600401611e6a565b92604051611bb881611df8565b600081529260643515611d98576003955b6000945b8351861015611d8757611bec611be38786612104565b5160010b612711565b60018701808811611d2b57611be3611c049187612104565b8660643515611d405750600288018811611d2b576052611d2593887604440e8e4c2dce6ccdee4da7a44e8e4c2dce6d8c2e8ca5604b1b946705240e6c6c2d8ca560c31b611d1a9561016160f51b611c638f8e6002611be3920190612104565b935b6040519987611c7e8c995180926020808d019101611ed6565b8801966b3c75736520687265663d222360a01b6020890152602c97611cac8251809360208c85019101611ed6565b0196870152604395611cc78251809360208a85019101611ed6565b0194850152604593611ce28251809360208885019101611ed6565b0192830152604d91611cfd8251809360208685019101611ed6565b019064149110179f60d91b90820152036032810184520182611e2e565b9560ff8916906120e1565b94611bcd565b84634e487b7160e01b60005260116004526000fd5b611d25936052917604440e8e4c2dce6ccdee4da7a44e8e4c2dce6d8c2e8ca5604b1b946705240e6c6c2d8ca560c31b611d1a9561016160f51b611d8161212e565b93611c65565b6105489061055492610a378961214b565b600295611bc9565b60208091611dad84611ec8565b815201910190611b7c565b606036600319011261067f576020611ac4604435602435611dda6004356125a8565b61231d565b602036600319011261067f576020611ac46004356120b1565b602081019081106001600160401b0382111761083057604052565b604081019081106001600160401b0382111761083057604052565b90601f801991011681019081106001600160401b0382111761083057604052565b6001600160401b03811161083057601f01601f191660200190565b81601f8201121561067f57803590611e8182611e4f565b92611e8f6040519485611e2e565b8284526020838301011161067f57816000926020809301838601378301015290565b6001600160401b0381116108305760051b60200190565b35908160010b820361067f57565b60005b838110611ee95750506000910152565b8181015183820152602001611ed9565b60409160208252611f198151809281602086015260208686019101611ed6565b601f01601f1916010190565b9080601f8301121561067f576020908235611f3f81611eb1565b93611f4d6040519586611e2e565b81855260208086019260051b82010192831161067f57602001905b828210611f76575050505090565b81358152908301908301611f68565b81601f8201121561067f57803591602091611f9f84611eb1565b93604092611fb06040519687611e2e565b818652848087019260051b8401019381851161067f57858401925b858410611fdc575050505050505090565b6001600160401b03843581811161067f5786019160a080601f19858803011261067f578451908082018281108582111761209c5786526003858c01358181101561067f578352868601359081101561067f578b8301526060908186013585811161067f57888d61204e92890101611f25565b878401526080918287013586811161067f57898e61206e928a0101611e6a565b9084015285013593841161067f5761208d878c80979681970101611e6a565b90820152815201930192611fcb565b60246000634e487b7160e01b81526041600452fd5b60008082126120be575090565b600160ff1b82146120cd570390565b634e487b7160e01b81526011600452602490fd5b919082018092116120ee57565b634e487b7160e01b600052601160045260246000fd5b80518210156121185760209160051b010190565b634e487b7160e01b600052603260045260246000fd5b6040519061213b82611e13565b60018252603160f81b6020830152565b9061219360276040518094633c212d2d60e01b6020830152612177815180926020602486019101611ed6565b81016216969f60e91b6024820152036007810185520183611e2e565b565b620f4240808210156121ae57506121ab906125a8565b90565b633b9aca0080831015612236575060226121e36121de6103e8846121d66121ab9688046125a8565b9606046125a8565b612917565b9260405193816121fd869351809260208087019101611ed6565b8201601760f91b602082015261221d825180936020602185019101611ed6565b01604d60f81b6021820152036002810184520182611e2e565b64e8d4a51000808410156122b0575061225d6121de6121ab93836121d660229588046125a8565b926040519381612277869351809260208087019101611ed6565b8201601760f91b6020820152612297825180936020602185019101611ed6565b01602160f91b6021820152036002810184520182611e2e565b6121ab92506121de602292826121d66122ca9488046125a8565b9260405193816122e4869351809260208087019101611ed6565b8201601760f91b6020820152612304825180936020602185019101611ed6565b01601560fa1b6021820152036002810184520182611e2e565b8282116123815760405161234160208281610abd8183019687815193849201611ed6565b519020918181039081116120ee57600181018091116120ee57801561236b576121ab9206906120e1565b634e487b7160e01b600052601260045260246000fd5b60405162461bcd60e51b81526020600482015260076024820152660dad2dc7cdac2f60cb1b6044820152606490fd5b604d81116120ee57600a0a90565b60008112906123d2606480830592076120b1565b918061248a575b6124445760216123fc6123f76123f16121ab94612711565b94612711565b61295a565b926040519381612416869351809260208087019101611ed6565b8201601760f91b60208201526124358251809360208785019101611ed6565b01036001810184520182611e2e565b506123f761245191612711565b6121ab602360405180936216981760e91b602083015261247a8151809260208686019101611ed6565b8101036003810184520182611e2e565b5080156123d9565b60008112906124a8620f424080830592076120b1565b91806124d9575b6124cc5760216123fc6124c76123f16121ab94612711565b61298d565b506124c761245191612711565b5080156124af565b90600091828112926124f2836123b0565b801561258a57600160ff1b831460001982141661257657820591612515846123b0565b91821561256257509061252891076120b1565b928061255a575b61254d576123fc6121ab92612548610f92602194612711565b6129c0565b5061254861245192612711565b50801561252f565b634e487b7160e01b81526012600452602490fd5b634e487b7160e01b82526011600452602482fd5b634e487b7160e01b82526012600452602482fd5b6003111561060e57565b806000917a184f03e93ff9f4daa797ed6e38ed64bf6a1f01000000000000000080821015612703575b506d04ee2d6d415b85acef8100000000808310156126f4575b50662386f26fc10000808310156126e5575b506305f5e100808310156126d6575b50612710808310156126c7575b5060648210156126b7575b600a809210156126ad575b600190816021600186019561264287611e4f565b966126506040519889611e2e565b80885261265f601f1991611e4f565b01366020890137860101905b612677575b5050505090565b600019019083906f181899199a1a9b1b9c1cb0b131b232b360811b8282061a8353049182156126a85791908261266b565b612670565b916001019161262e565b9190606460029104910191612623565b60049193920491019138612618565b6008919392049101913861260b565b601091939204910191386125fc565b602091939204910191386125ea565b6040935081049150386125d1565b6121ab602061274a60008412938460001461278b5760405161273281611e13565b60018152602d60f81b84820152945b612783576125a8565b9260405193816127638693518092868087019101611ed6565b820161277782518093868085019101611ed6565b01038084520182611e2e565b6000036125a8565b60405161279781611df8565b6000815294612741565b9092919281908251928151865193602097888080950195019087856040510193019385850198811115612818575b5050508394508095939160405195869103910301945b8382106128095750506000848401968701525050603f909301601f19166040528252565b815181529082019082016127e5565b90919293959450602181870301968a60009360008285101561290e575b601f859998979916830360031b9851965b88518881188b1c1561288257815260018091019801988b8a101561286c575b9897612846565b505050959750505050509183925b3880806127cf565b918497949598919a92819d94979a9c9d6128c7575b50505050505b818184010151818801520190838210156128b95790829061289d565b50509201920192839261287a565b90809293949596508a8d20036128df57879594612897565b8a9192989597949c9b9996939a5260018091019801988b8a10612865575050509597505050505091839261287a565b50838620612835565b6003815110156121ab576121de6040519182602091600360fc1b8383015261294a60219382519283918686019101611ed6565b8101036001810184520182611e2e565b6002815110156121ab576123f76040519182602091600360fc1b8383015261294a60219382519283918686019101611ed6565b6006815110156121ab576124c76040519182602091600360fc1b8383015261294a60219382519283918686019101611ed6565b9190915b82815110156129fb576129f66040519182602091600360fc1b8383015261294a60219382519283918686019101611ed6565b6129c4565b915056fea26469706673582212201ce7598b9bb6e4c83de7ced0735d3823d6318c736136fba95e89918fc7574ead64736f6c63430008190033","linkReferences":{}},"methodIdentifiers":{"abs(int256)":"1b5ac4b5","createStandardAttributes(Motif,FlowerType)":"e4c1354e","formatChartNumber(uint256)":"58f99136","randomNum(string,uint256,uint256)":"8587a4a5","randomNum(uint256,uint256,uint256)":"28294640","renderDecimal(int256)":"b8d22c58","renderDecimal(int256,uint256)":"c1deee68","renderFinalNFT(string,MotifType,string,SVGData,string)":"acdaeb04","renderReplacements(string,Replacement[])":"c2209fb9","setRandomColor(string,string)":"c528fb33","setUseRotations(string,string,int256[],int16[2])":"d8ce367a","setUseTags(string,string,int16[],bool,string)":"3899f054"},"id":6}