{"abi":[{"type":"function","name":"abs","inputs":[{"name":"x","type":"int256","internalType":"int256"}],"outputs":[{"name":"","type":"int256","internalType":"int256"}],"stateMutability":"pure"},{"type":"function","name":"adjustTimeStampsForAssetVisibility","inputs":[{"name":"minStartTime","type":"uint256","internalType":"uint256"},{"name":"maxStartTime","type":"uint256","internalType":"uint256"},{"name":"sunriseTime","type":"uint256","internalType":"uint256"},{"name":"sunsetTime","type":"uint256","internalType":"uint256"},{"name":"timeOfDayVisibility","type":"DAYTIME","internalType":"enum DAYTIME"},{"name":"tolerance","type":"uint256","internalType":"uint256"},{"name":"maxDuration","type":"uint256","internalType":"uint256"}],"outputs":[{"name":"","type":"uint256","internalType":"uint256"},{"name":"","type":"uint256","internalType":"uint256"},{"name":"","type":"bool","internalType":"bool"}],"stateMutability":"pure"},{"type":"function","name":"applyNight","inputs":[{"name":"altitude","type":"int256","internalType":"int256"},{"name":"tokenId","type":"uint256","internalType":"uint256"}],"outputs":[{"name":"","type":"string","internalType":"string"}],"stateMutability":"pure"},{"type":"function","name":"computeStarttime","inputs":[{"name":"timestamp","type":"uint256","internalType":"uint256"},{"name":"asset","type":"tuple","internalType":"struct AssetInScene","components":[{"name":"name","type":"string","internalType":"string"},{"name":"minDuration","type":"uint256","internalType":"uint256"},{"name":"maxDuration","type":"uint256","internalType":"uint256"},{"name":"checkInterval","type":"uint256","internalType":"uint256"},{"name":"possibleOffset","type":"uint256","internalType":"uint256"},{"name":"probability","type":"uint256","internalType":"uint256"},{"name":"dayTime","type":"DAYTIME","internalType":"enum DAYTIME"}]},{"name":"salt","type":"string","internalType":"string"},{"name":"sunrise","type":"uint256","internalType":"uint256"},{"name":"sunset","type":"uint256","internalType":"uint256"},{"name":"isMoving","type":"bool","internalType":"bool"}],"outputs":[{"name":"","type":"uint256[]","internalType":"uint256[]"}],"stateMutability":"pure"},{"type":"function","name":"createElementAndSetColor","inputs":[{"name":"sceneElement","type":"tuple","internalType":"struct SceneElement","components":[{"name":"y","type":"uint256","internalType":"uint256"},{"name":"x","type":"int256","internalType":"int256"},{"name":"xScale","type":"int256","internalType":"int256"},{"name":"svg","type":"string","internalType":"string"},{"name":"posSalt","type":"string","internalType":"string"},{"name":"decimalScaleX","type":"string","internalType":"string"},{"name":"decimalScaleY","type":"string","internalType":"string"}]},{"name":"salt","type":"string","internalType":"string"},{"name":"assetName","type":"string","internalType":"string"}],"outputs":[{"name":"","type":"string","internalType":"string"}],"stateMutability":"pure"},{"type":"function","name":"createStandardAttributes","inputs":[{"name":"motif","type":"tuple","internalType":"struct Motif","components":[{"name":"name","type":"string","internalType":"string"},{"name":"lat","type":"int256","internalType":"int256"},{"name":"lng","type":"int256","internalType":"int256"},{"name":"heading","type":"int256","internalType":"int256"},{"name":"horizon","type":"int256","internalType":"int256"},{"name":"svg","type":"string","internalType":"string"},{"name":"scenes","type":"tuple[]","internalType":"struct SceneInMotif[]","components":[{"name":"placeHolder","type":"string","internalType":"string"},{"name":"sceneDetails","type":"tuple[]","internalType":"struct Scene[]","components":[{"name":"area","type":"int256[4]","internalType":"int256[4]"},{"name":"assets","type":"uint256[]","internalType":"uint256[]"},{"name":"scale","type":"uint256","internalType":"uint256"}]}]},{"name":"replacements","type":"tuple[]","internalType":"struct Replacement[]","components":[{"name":"tag","type":"ObjectType","internalType":"enum ObjectType"},{"name":"dataType","type":"RenderDataType","internalType":"enum RenderDataType"},{"name":"data","type":"int256[]","internalType":"int256[]"},{"name":"placeholder","type":"string","internalType":"string"},{"name":"ref","type":"string","internalType":"string"}]},{"name":"motifType","type":"MotifType","internalType":"enum MotifType"}]},{"name":"flowerType","type":"FlowerType","internalType":"enum FlowerType"},{"name":"altitude","type":"int256","internalType":"int256"}],"outputs":[{"name":"","type":"string","internalType":"string"},{"name":"","type":"string","internalType":"string"}],"stateMutability":"pure"},{"type":"function","name":"formatChartNumber","inputs":[{"name":"number","type":"uint256","internalType":"uint256"}],"outputs":[{"name":"","type":"string","internalType":"string"}],"stateMutability":"pure"},{"type":"function","name":"generateClouds","inputs":[{"name":"skyHeight","type":"int256","internalType":"int256"},{"name":"nonce","type":"uint256","internalType":"uint256"}],"outputs":[{"name":"","type":"string","internalType":"string"}],"stateMutability":"pure"},{"type":"function","name":"randomNum","inputs":[{"name":"nonce","type":"uint256","internalType":"uint256"},{"name":"min","type":"uint256","internalType":"uint256"},{"name":"max","type":"uint256","internalType":"uint256"}],"outputs":[{"name":"","type":"uint256","internalType":"uint256"}],"stateMutability":"pure"},{"type":"function","name":"randomNum","inputs":[{"name":"nonce","type":"string","internalType":"string"},{"name":"min","type":"uint256","internalType":"uint256"},{"name":"max","type":"uint256","internalType":"uint256"}],"outputs":[{"name":"","type":"uint256","internalType":"uint256"}],"stateMutability":"pure"},{"type":"function","name":"renderDecimal","inputs":[{"name":"value","type":"int256","internalType":"int256"}],"outputs":[{"name":"","type":"string","internalType":"string"}],"stateMutability":"pure"},{"type":"function","name":"renderDecimal","inputs":[{"name":"value","type":"int256","internalType":"int256"},{"name":"decimals","type":"uint256","internalType":"uint256"}],"outputs":[{"name":"","type":"string","internalType":"string"}],"stateMutability":"pure"},{"type":"function","name":"renderFinalNFT","inputs":[{"name":"assetsSVG","type":"string","internalType":"string"},{"name":"tokenId","type":"uint256","internalType":"uint256"},{"name":"motifSVG","type":"string","internalType":"string"},{"name":"svgData","type":"tuple","internalType":"struct SVGData","components":[{"name":"sunSVG","type":"string","internalType":"string"},{"name":"skyColor","type":"string","internalType":"string"},{"name":"moonSVG","type":"string","internalType":"string"},{"name":"nightSVG","type":"string","internalType":"string"},{"name":"waterColor","type":"string","internalType":"string"},{"name":"cloudsSVG","type":"string","internalType":"string"},{"name":"skySceneSVG","type":"string","internalType":"string"},{"name":"flowerSVG","type":"string","internalType":"string"}]},{"name":"maskedAssetsSVG","type":"string","internalType":"string"}],"outputs":[{"name":"","type":"string","internalType":"string"}],"stateMutability":"view"},{"type":"function","name":"renderReplacements","inputs":[{"name":"svg","type":"string","internalType":"string"},{"name":"replacements","type":"tuple[]","internalType":"struct Replacement[]","components":[{"name":"tag","type":"ObjectType","internalType":"enum ObjectType"},{"name":"dataType","type":"RenderDataType","internalType":"enum RenderDataType"},{"name":"data","type":"int256[]","internalType":"int256[]"},{"name":"placeholder","type":"string","internalType":"string"},{"name":"ref","type":"string","internalType":"string"}]}],"outputs":[{"name":"","type":"string","internalType":"string"}],"stateMutability":"pure"},{"type":"function","name":"setUseRotations","inputs":[{"name":"svg","type":"string","internalType":"string"},{"name":"ref","type":"string","internalType":"string"},{"name":"placeHolder","type":"string","internalType":"string"},{"name":"rotations","type":"int256[]","internalType":"int256[]"},{"name":"rotationAnchor","type":"int16[2]","internalType":"int16[2]"}],"outputs":[{"name":"","type":"string","internalType":"string"}],"stateMutability":"pure"},{"type":"function","name":"setUseTags","inputs":[{"name":"svgTemplate","type":"string","internalType":"string"},{"name":"ref","type":"string","internalType":"string"},{"name":"positions","type":"int16[]","internalType":"int16[]"},{"name":"hasScale","type":"bool","internalType":"bool"},{"name":"placeholder","type":"string","internalType":"string"}],"outputs":[{"name":"","type":"string","internalType":"string"}],"stateMutability":"pure"}],"bytecode":{"object":"0x60808060405234601957613c9d908161001f823930815050f35b600080fdfe608080604052600436101561001357600080fd5b60003560e01c908163174d710c1461260957508063194a1b56146123f05780631b5ac4b5146123d757806328294640146123b05780633899f054146120cf5780634b54268f1461207657806358f991361461205c578063682ca5b21461157d5780638587a4a5146115385780639163cba5146113f1578063ad49774514610f02578063b8d22c5814610ee8578063c1deee6814610ed3578063c2209fb914610b0e578063cd1406d614610ae55763fe288cdb146100cf57600080fd5b6003196060368201126107a5576001600160401b03600435116107a5576101208091600435360301126107a5576040519081018181106001600160401b03821117610acf57604052600435600401356001600160401b0381116107a55761013d9060043691813501016127ad565b81526004356024810135602083015260448101356040830152606481013560608301526084810135608083015260a401356001600160401b0381116107a55761018d9060043691813501016127ad565b60a082015260c460043501356001600160401b0381116107a55736602382600435010112156107a5576004818135010135906101c8826127f4565b916101d66040519384612771565b808352602083013660248360051b85600435010101116107a5576024836004350101905b60248360051b8560043501010182106107aa57858560c082015260e460043501356001600160401b0381116107a55761023a9060043691813501016128d7565b60e0820152610104600435013560048110156107a55761010082015260243560048110156107a55761057a60476105f89383610278610516956135ec565b6001810361070f575060405161028d8161273b565b6004815263526f736560e01b60208201525b610316605160405180937f2261747472696275746573223a205b7b2274726169745f74797065223a22466c60208301526e37bbb2b91116113b30b63ab2911d1160891b60408301526102fb815180926020604f86019101612879565b810161227d60f01b604f820152036031810184520182612771565b6103a460456103286020850151613280565b926040519381610342869351809260208087019101612879565b82017f2c7b2274726169745f74797065223a224c61746974756465222c2276616c7565602082015262111d1160e91b604082015261038a825180936020604385019101612879565b0161227d60f01b6043820152036025810184520182612771565b6103b16040830151613280565b916104346046604051809560206103d18184019788815193849201612879565b82017f2c7b2274726169745f74797065223a224c6f6e676974756465222c2276616c7560208201526332911d1160e11b604082015261041a825180936020604485019101612879565b0161227d60f01b6044820152036026810186520184612771565b6104c16044610446606084015161375f565b946040519586916104606020840197889251928391612879565b82017f2c7b2274726169745f74797065223a2248656164696e67222c2276616c7565226020820152611d1160f11b60408201526104a7825180936020604285019101612879565b0161227d60f01b6042820152036024810186520184612771565b6101008101516104d0816135ec565b6104d9816135ec565b61066257506040516104ea8161273b565b600a81526920ba3a3930b1ba34b7b760b11b6020820152905b6040519586935180926020860190612879565b82017f2c7b2274726169745f74797065223a224d6f7469662054797065222c2276616c6020820152643ab2911d1160d91b6040820152610560825180936020604585019101612879565b0161227d60f01b6045820152036027810184520182612771565b6202bf1f19604435121561060a576106066040516105978161273b565b60058152641b9a59da1d60da1b60208201525b6105e4602460405180936301030ba160e51b60208301526105d48151809260208686019101612879565b8101036004810184520182612771565b60405193849360408552604085019061289c565b90838203602085015261289c565b0390f35b60006044351315610639576106066040516106248161273b565b600381526264617960e81b60208201526105aa565b6106066040516106488161273b565b60088152671d1dda5b1a59da1d60c21b60208201526105aa565b6001610100820151610673816135ec565b61067c816135ec565b036106a7575060405161068e8161273b565b6005815264084cac2c6d60db1b60208201525b90610503565b61010060029101516106b8816135ec565b6106c1816135ec565b036106e8576040516106d28161273b565b60048152634369747960e01b60208201526106a1565b6040516106f48161273b565b60098152684c616e64736361706560b81b60208201526106a1565b610718816135ec565b80610745575060405161072a8161273b565b600981526829bab7333637bbb2b960b91b602082015261029f565b806107516002926135ec565b0361077d576040516107628161273b565b600981526824b1b2b33637bbb2b960b91b602082015261029f565b6040516107898161273b565b600a81526926b7b7b7333637bbb2b960b11b602082015261029f565b600080fd5b6001600160401b038235116107a55760406004358501833501360360231901126107a5576040518060408101106001600160401b03604083011117610acf57604081016040526001600160401b03602484358760043501010135116107a55761082236602485356004358901018181013501016127ad565b81526044833586600435010101356001600160401b0381116107a557366043828635896004350101010112156107a55760248185358860043501010101359061086a826127f4565b916108786040519384612771565b808352602083013660448360051b858a358d6004350101010101116107a5579998979695949392919060448287358a600435010101015b60448260051b8489358c600435010101010181106108ea575050506024939495969798509181602093848094015281520192019190506101fa565b80356001600160401b0381116107a55760c06004358b0189350185018201360360431901126107a557604051908160608101106001600160401b03606084011117610acf57366004358c018a35018601820160630112156107a5576060820160e08301106001600160401b0360e084011117610acf5760e0820160405260608201366004358d018b35018701830160c401116107a5578b8a918388604482828735876004350101010101935b60c4838388358460043501010101018510610aba575050505060608401845250506004358b018935018501810160c401356001600160401b0381116107a557366004358d018b350187018301820160630112156107a5578060448d9284898e358660043501010101010135908b610a0c836127f4565b93610a1a6040519586612771565b8385526064602086019284888d36958960051b94359060043501010101010101116107a5578e9060648e84888d8483838387358b600435010101010101965b8960051b943590600435010101010101018210610aa057505050506020808401919091526004358c018a3501860190910160e401356040830152908d529b8c019b016108af565b908f918e84888d6020806064968835815201960196610a59565b60208060c49587358152019501949350610996565b634e487b7160e01b600052604160045260246000fd5b610606610afa610af4366128c1565b9061338c565b60405191829160208352602083019061289c565b60403660031901126107a5576001600160401b036004358181116107a557610b3a9036906004016127ad565b6024916024359081116107a557610b56839136906004016128d7565b6000915b8151831015610ebd57610b6d8383612ae5565b51936060948051610b7d81612a10565b610b8681612a10565b15610be2575b94610bd9916060600194959697015190610bd46040519283602091600960fa1b83830152610bc560219382519283918686019101612879565b81010387810185520183612771565b6137bc565b93019190610b5a565b906020820151610bf181612a10565b610bfa81612a10565b610e8f576002955b6000905b60408401518051831015610e835782610c1e91612ae5565b516040850151600184018411610e6e57610c3c906001850190612ae5565b51906020860151610c4c81612a10565b610c5581612a10565b610e3457610c61612ef7565b8660026020820151610c7281612a10565b610c7b81612a10565b03610df15760400151600386018611610ddc57937604440e8e4c2dce6ccdee4da7a44e8e4c2dce6d8c2e8ca5604b1b9388610dcb946054946705240e6c6c2d8ca560c31b610cf2610cec6080610ce2610cdc8f9e610dd69f60030190612ae5565b516131ac565b965b01519461375f565b9561375f565b946040519987610d0c8c995180926020808d019101612879565b8801946b3c75736520687265663d222360a01b6020870152602c95610d3a8251809360208a85019101612879565b0194850152604393610d558251809360208885019101612879565b019461016160f51b8094870152604595610d788251809360208a85019101612879565b0194850152604d93610d938251809360208885019101612879565b0192830152604f91610dae8251809360208685019101612879565b019064149110179f60d91b90820152036034810184520182612771565b9160ff891690612a82565b90610c06565b88634e487b7160e01b60005260116004526000fd5b937604440e8e4c2dce6ccdee4da7a44e8e4c2dce6d8c2e8ca5604b1b93610dd695610dcb94846705240e6c6c2d8ca560c31b610cf2610cec608060549996610ce4565b6040860151600285018511610e5957610cdc610e54916002870190612ae5565b610c61565b87634e487b7160e01b60005260116004526000fd5b86634e487b7160e01b60005260116004526000fd5b50965090919050610b8c565b60016020830151610e9f81612a10565b610ea881612a10565b03610eb65760035b95610c02565b6004610eb0565b604051602080825281906106069082018761289c565b610606610afa610ee2366128c1565b906132cf565b60203660031901126107a557610606610afa6004356131ac565b6003196060368201126107a5576004356001600160401b03918282116107a55760e09082360301126107a55760405190610f3b82612720565b8060040135825260209182810193602483013585526044830135604083015260648301358181116107a557610f7690600436918601016127ad565b606083015260848301358181116107a557610f9790600436918601016127ad565b608083015260a48301358181116107a557610fb890600436918601016127ad565b9260a0830193845260c4810135908282116107a5576004610fdc92369201016127ad565b9160c081019283526024358281116107a557610ffc9036906004016127ad565b916044359081116107a5576110159036906004016127ad565b9161103d6040516110258161273b565b60068152653832b939b7b760d11b8882015284613a1a565b9061106460405161104d8161273b565b60058152641e5858da1d60da1b8982015285613a1a565b9182156113c2575b61109160405161107b8161273b565b6004815263189a5c9960e21b8a82015286613a1a565b908115611393575b604051936110a68561273b565b60018552600160fd1b94858b8201529260001461124e575050506003906040516110ec8982816110df8183019687815193849201612879565b8101038084520182612771565b5190200660170193846017116112385761122495611128611121611119611114605099613a46565b613154565b9a5b5161375f565b94516135f6565b9051915193604051998a966b3c75736520687265663d222360a01b8b89015261115a815180928d602c8c019101612879565b8701601160f91b602c820152611179825180938d602d85019101612879565b01740e8e4c2dce6ccdee4da7a44e8e4c2dce6d8c2e8ca5605b1b602d8201526111ab825180938c604285019101612879565b01600b60fa1b60428201526111c9825180938b604385019101612879565b016705240e6c6c2d8ca560c31b60438201526111ee825180938a604b85019101612879565b0190604b8201526112088251809388604c85019101612879565b01631491179f60e11b604c820152036030810185520183612771565b61060660405192828493845283019061289c565b634e487b7160e01b600052601160045260246000fd5b979395979694966000146112885750509161122495939161112861112161128261111461127d60509a986130b3565b613a46565b9a61111b565b989190986112a8575b50916112249593916111286111216050979561111b565b959391949290975060066112bb876130b3565b966040516112d88a82816110df8183019687815193849201612879565b5190200660110194856011116112385761112861112161136a611384603360509a8d61130f6113096112249f613a46565b92613a46565b9060405195869366103334b6361e9160c91b838601526113388151809285602789019101612879565b601160f91b602791860191820152681039ba3937b5b29e9160b91b602882015283519390928491603185019101612879565b0161011160f51b6031820152036013810184520182612771565b9a939597505050919395611291565b90506113bc6040516113a48161273b565b60068152653134b93216b360d11b8a82015286613a1a565b90611099565b91506113eb6040516113d38161273b565b60068152653130b63637b760d11b8982015285613a1a565b9161106c565b60e03660031901126107a55760643560843560443560243560043560038410156107a55760609460c4359083839560019661142b89612a10565b6001891495868061152f575b1561150057505080975b606461144f60a43587612a8f565b049561145a82612a10565b156114ab57505050611475929161147091612a03565b612a82565b8082116114a3575b5080831161149a575b604051928352602083015215156040820152f35b60009150611486565b90508461147d565b90919492506114b981612a10565b156114c8575b50505050611486565b6114d59261147091612a03565b8091116114f8575b508083116114ef575b848080806114bf565b600091506114e6565b9050846114dd565b61150b8a929a612a10565b8482159182611525575b5050156114415797508297611441565b119050848c611515565b50828110611437565b60603660031901126107a5576004356001600160401b0381116107a55761157561156860209236906004016127ad565b60443590602435906130da565b604051908152f35b60031960a0368201126107a5576004356001600160401b0381116107a5576115a99036906004016127ad565b6044356001600160401b0381116107a5576115c89036906004016127ad565b91606435916001600160401b0383116107a557610100809284360301126107a5576040519182018281106001600160401b03821117610acf5760405282600401356001600160401b0381116107a55761162790600436918601016127ad565b825260248301356001600160401b0381116107a55761164c90600436918601016127ad565b602083015260448301356001600160401b0381116107a55761167490600436918601016127ad565b604083015260648301356001600160401b0381116107a55761169c90600436918601016127ad565b606083015260848301356001600160401b0381116107a5576116c490600436918601016127ad565b926080830193845260a48101356001600160401b0381116107a5576116ef90600436918401016127ad565b60a084015260c48101356001600160401b0381116107a55761171790600436918401016127ad565b60c084015260e4810135906001600160401b0382116107a557600461173f92369201016127ad565b60e08301526084356001600160401b0381116107a5576117639036906004016127ad565b90611c7360206117746024356135f6565b9551611ba761032660405180937f3c73766720786d6c6e733d22687474703a2f2f7777772e77332e6f72672f3230868301527f30302f73766722207072657365727665417370656374526174696f3d22784d6960408301527f6e594d696e206d656574222076696577426f783d22302030203130383020313060608301527f3830223e3c66696c7465722069643d22737461722d66696c746572000000000060808301527f2220726573756c743d22666c6f6f6422202f3e3c6665436f6d706f73697465208b805161184c81609b87018b8501612879565b840175111f1e3332aa3ab9313ab632b731b29039b2b2b21e9160511b609b820152611880825180938b60b185019101612879565b01917f2220626173654672657175656e63793d222e30382220726573756c743d22747560b18401527f7262756c656e6365222f3e3c6665436f6c6f724d617472697820747970653d2260d18401527f6d6174726978222076616c7565733d2230203020302039202d3420302030203060f18401527f2039202d342030203020302039202d34203020302030203120302220726573756101118401527f6c743d22626f6f73746564222f3e3c6665436f6d706f6e656e745472616e73666101318401527f65723e3c666546756e634120747970653d227461626c6522207461626c6556616101518401527f6c7565733d22302030203020312030222f3e3c2f6665436f6d706f6e656e74546101718401527f72616e736665723e3c2f66696c7465723e3c66696c7465722069643d226d616b6101918401527f655768697465223e3c6665436f6c6f724d617472697820747970653d226d61746101b18401527f726978222076616c7565733d22312031203120312030203120312031203120306101d18401527f203120312031203120302031203120312031203022202f3e3c2f66696c7465726101f18401527f3e3c66696c7465722069643d226d616b65426c61636b223e3c6665436f6c6f726102118401527f4d617472697820747970653d226d6174726978222076616c7565733d223020306102318401527f20302030203020302030203020302030203020302030203020302030203020306102518401527f2031203022202f3e3c2f66696c7465723e3c66696c7465722069643d2273696c610271840152600d60fb1b6102918401527f2220783d22302220793d2230222077696474683d2232303025222068656967688d61029294611b0b825180938d8985019101612879565b01938401527f743d2232303025223e3c6665466c6f6f6420666c6f6f642d636f6c6f723d22006102b28401526102d192611b4d825180938b8785019101612879565b01918201527f696e3d22666c6f6f642220696e323d22536f75726365416c70686122206f70656102f1820152743930ba37b91e9134b711179f1e17b334b63a32b91f60591b61031182015203610306810184520182612771565b8186015193611c13604a60405180976b1e3932b1ba103334b6361e9160a11b87830152611bdd8151809289602c86019101612879565b81017f222077696474683d223130383022206865696768743d2231303830222f3e0000602c82015203602a810188520186612771565b86516040519583611c2d8895518092888089019101612879565b8401611c4182518093888085019101612879565b01611c5482518093878085019101612879565b01611c6782518093868085019101612879565b01038084520182612771565b6060830151611da3609c604086015192604051938491713c6d61736b2069643d226d6f6f6e4d61736b60701b60208401528951611cb8818c6020603288019101612879565b7f223e3c726563742066696c6c3d2223666666222077696474683d2231303830226032918501918201526f103432b4b3b43a1e9118981c1811179f60811b6052820152701e3ab9b290343932b31e9111b6b7ba34b360791b60628201528a5190611d29826073830160208f01612879565b017f222066696c7465723d2275726c28236d616b65426c61636b29222f3e3c2f6d6160738201526239b59f60e91b6093820152611d70825180936020609685019101612879565b01611d85825180936020609685019101612879565b01651e17b9bb339f60d11b609682015203607c810184520182612771565b6040519360608501938585106001600160401b03861117610acf5761060697610afa96603b96604052603281527f3c75736520687265663d22236c69676874686f757365222066696c7465723d226020820152713ab9361411b6b0b5b2a13630b1b59491179f60711b604082015260036024351460001461204157609d611f36915b6040519485917f3c2f673e3c6d61736b2069643d226e696768744d61736b00000000000000000060208401528c611e66815180926020603788019101612879565b830161111f60f11b60378201527f3c726563742066696c6c3d2223666666222077696474683d223130383022206860398201526d32b4b3b43a1e9118981c1811179f60911b6059820152611ec4825180936020606785019101612879565b01611ed9825180936020606785019101612879565b017f3c75736520687265663d2223732d6c69676874222066696c7465723d2275726c60678201526e1411b6b0b5b2a13630b1b59491179f60891b6087820152661e17b6b0b9b59f60c91b609682015203607d810185520183612771565b60a08301519260e060c0820151910151936040519987611f608c995180926020808d019101612879565b88016b1e339034b21e9136b7ba34b360a11b6020820152611f8b825180936020602c85019101612879565b0161111f60f11b602c820152611fab825180936020602e85019101612879565b01611fc0825180936020602e85019101612879565b01611fd5825180936020602e85019101612879565b01611fea825180936020602e85019101612879565b01651e3232b3399f60d11b602e82015261200e825180936020603485019101612879565b01661e17b232b3399f60c91b60348201526120328251809360208785019101612879565b0103601b810184520182612771565b50611f36609d60405161205381612756565b60008152611e25565b60203660031901126107a557610606610afa600435612f14565b61207f366128c1565b50506040516020808252816060519182602083015260005b8381106120b95750508160006040809484010152601f80199101168101030190f35b6080810151858201604001528492508101612097565b60a03660031901126107a5576001600160401b036004358181116107a5576120fb9036906004016127ad565b6024916024358181116107a5576121169036906004016127ad565b604435918083116107a557366023840112156107a55782600401359261213b846127f4565b936121496040519586612771565b8085526024602086019160051b830101913683116107a557602401905b828210612398575050506064351515606435036107a5576084359081116107a5576121959036906004016127ad565b926040516121a281612756565b60008152946064351561238c57600393959194955b60009660208501935b825189101561237e576121d38984612ae5565b516121e1600191820b61375f565b818b01808c11610e6e576121f86122009187612ae5565b51830b61375f565b9188886064351561233157505060028c018c11610e6e5761232b9389896705240e6c6c2d8ca560c31b8f9661016160f51b612320977604440e8e4c2dce6ccdee4da7a44e8e4c2dce6d8c2e8ca5604b1b6122706052998f6122689060026122899f0190612ae5565b51900b61375f565b955b60206040519c8d8b83829d51948593019101612879565b89016b3c75736520687265663d222360a01b60208201526122b2602c995180938b840190612879565b01968701526043956122cd8251809360208a85019101612879565b01948501526045936122e88251809360208885019101612879565b0192830152604d916123038251809360208685019101612879565b019064149110179f60d91b90820152036032810184520182612771565b9860ff881690612a82565b976121c0565b605292509061232b95916705240e6c6c2d8ca560c31b6122899661016160f51b612320977604440e8e4c2dce6ccdee4da7a44e8e4c2dce6d8c2e8ca5604b1b612378612ef7565b95612272565b610afa9061060692896137bc565b600293959194956121b7565b602080916123a58461286b565b815201910190612166565b60603660031901126107a55760206115756044356024356123d26004356135f6565b6130da565b60203660031901126107a5576020611575600435612ec7565b60c03660031901126107a5576001600160401b036004358181116107a55761241c9036906004016127ad565b6024358281116107a5576124349036906004016127ad565b906044358381116107a55761244d9036906004016127ad565b926064359081116107a55761246690369060040161280b565b923660a312156107a5576040519261247d8461273b565b60c4843682116107a557608495939495905b8282106125e9575050506040516124a581612756565b600081529260009260209687820192888501965b82518710156125c857876125c060466001938d6124d961111b8d8a612ae5565b89516124f46124ea8992830b61375f565b918d51900b61375f565b918d604051988661250e8b9851809289808c019101612879565b87016b3c75736520687265663d222360a01b87820152612536602c9351809385840190612879565b01907304440e8e4c2dce6ccdee4da7a44e4dee8c2e8ca560631b908201526125678251809387604085019101612879565b0190600160fd1b9081604084015260419261258a82518093888785019101612879565b01918201526125a460429383519384918685019101612879565b0190631491179f60e11b90820152036026810184520182612771565b9601956124b9565b6125d4908a928a6137bc565b9061060660405192828493845283019061289c565b602080916125fa849998979961286b565b8152019101909593949561248f565b6003199060c0368301126107a557602435916001600160401b03908184116107a55760e09084360301126107a55761264082612720565b82600401358181116107a55761265c90600436918601016127ad565b825260c460209360248101358585015260448101356040850152606481013560608501526084810135608085015260a481013560a0850152013560038110156107a55760c08301526044359081116107a5576126bc9036906004016127ad565b60a4359081151582036107a5576126dd926084359160643591600435612b0f565b906040519181839283018184528251809152816040850193019160005b82811061270957505050500390f35b8351855286955093810193928101926001016126fa565b60e081019081106001600160401b03821117610acf57604052565b604081019081106001600160401b03821117610acf57604052565b602081019081106001600160401b03821117610acf57604052565b90601f801991011681019081106001600160401b03821117610acf57604052565b6001600160401b038111610acf57601f01601f191660200190565b81601f820112156107a5578035906127c482612792565b926127d26040519485612771565b828452602083830101116107a557816000926020809301838601378301015290565b6001600160401b038111610acf5760051b60200190565b9080601f830112156107a5576020908235612825816127f4565b936128336040519586612771565b81855260208086019260051b8201019283116107a557602001905b82821061285c575050505090565b8135815290830190830161284e565b35908160010b82036107a557565b60005b83811061288c5750506000910152565b818101518382015260200161287c565b906020916128b581518092818552858086019101612879565b601f01601f1916010190565b60409060031901126107a5576004359060243590565b81601f820112156107a5578035916020916128f1846127f4565b936040926129026040519687612771565b818652848087019260051b840101938185116107a557858401925b85841061292e575050505050505090565b6001600160401b0384358181116107a55786019160a080601f1985880301126107a557845190808201828110858211176129ee5786526003858c0135818110156107a557835286860135908110156107a5578b830152606090818601358581116107a557888d6129a09289010161280b565b87840152608091828701358681116107a557898e6129c0928a01016127ad565b908401528501359384116107a5576129df878c809796819701016127ad565b9082015281520193019261291d565b60246000634e487b7160e01b81526041600452fd5b9190820391821161123857565b60031115612a1a57565b634e487b7160e01b600052602160045260246000fd5b90612a3a826127f4565b612a476040519182612771565b8281528092612a58601f19916127f4565b0190602036910137565b8115612a6c570690565b634e487b7160e01b600052601260045260246000fd5b9190820180921161123857565b8181029291811591840414171561123857565b6020612ae3919392936040519481612ac38793518092868087019101612879565b8201612ad782518093868085019101612879565b01038085520183612771565b565b8051821015612af95760209160051b010190565b634e487b7160e01b600052603260045260246000fd5b959492600094612b31612b2660408501518a612a03565b608085015190612a03565b90889060c085019360028551612b4681612a10565b612b4f81612a10565b03612d72575b5050612b71919250612b6b606085015182612a62565b90612a03565b96612b93612b8c612b86606086015185612a62565b84612a03565b8099612a03565b6060840151908115612d5e57049460018601809611612d4a57612bb586612a30565b98875b878110612c01575050505050505050612bd081612a30565b9060005b818110612be2575090925050565b80612bef60019287612ae5565b51612bfa8286612ae5565b5201612bd4565b612c18612c12606088015183612a8f565b83612a82565b612c2a612c24826135f6565b89612aa2565b9060405190606560208301845193612c4d602082818901976110df81878b612879565b5190200660a08a015111612c67575b505050600101612bb8565b6110df60808a015192612c8a602060405180938282019586918a51928391612879565b5190209160018101811161123857612caf926001612ca9920190612a62565b90612a82565b9085612ccf612cc960208b0193845160408d0151916130da565b84612a82565b818411159283612d1c575b50505080612d12575b612cef575b8080612c5c565b612cfc8a8d9b939b612ae5565b5260001981146112385760018091019890612ce8565b5085811015612ce3565b612d3992935060009088600014612d435760039150510490612a82565b1015853880612cda565b5090612a82565b634e487b7160e01b87526011600452602487fd5b634e487b7160e01b88526012600452602488fd5b909150670de0b6b3a7640000935193612d8a85612a10565b6040860151908b938596600197612da082612a10565b60018214978880612ebc575b15612e8b575050828504965b600185151715612e7757612dcb82612a10565b15612e2b5750612ddc935004612a03565b808211612e23575b50808211612e1b575b909115612dfd5781903880612b55565b505050505090915060405190612e1282612756565b80825236813790565b869250612ded565b905038612de4565b9050612e3681612a10565b15612e44575b505050612ded565b612e4e9204612a03565b808a11612e6f575b50808211612e67575b388080612e3c565b869250612e5f565b905038612e56565b634e487b7160e01b8d52601160045260248dfd5b612e9783999299612a10565b82159081612eb0575b5015612db8578383049750612db8565b90508484041038612ea0565b508487048110612dac565b6000808212612ed4575090565b600160ff1b8214612ee3570390565b634e487b7160e01b81526011600452602490fd5b60405190612f048261273b565b60018252603160f81b6020830152565b620186a081106130aa5760649004620f424080821015612f3b5750612f38906135f6565b90565b633b9aca0080831015612fc357506022612f70612f6b6103e884612f63612f389688046135f6565b9606046135f6565b613932565b926040519381612f8a869351809260208087019101612879565b8201601760f91b6020820152612faa825180936020602185019101612879565b01604d60f81b6021820152036002810184520182612771565b64e8d4a510008084101561303d5750612fea612f6b612f389383612f6360229588046135f6565b926040519381613004869351809260208087019101612879565b8201601760f91b6020820152613024825180936020602185019101612879565b01602160f91b6021820152036002810184520182612771565b612f389250612f6b60229282612f636130579488046135f6565b926040519381613071869351809260208087019101612879565b8201601760f91b6020820152613091825180936020602185019101612879565b01601560fa1b6021820152036002810184520182612771565b612f38906131ac565b6011906040516130d3602082816110df8183019687815193849201612879565b5190200690565b828211613125578161310c91604051613103602082816110df8183019687815193849201612879565b51902093612a03565b916001830180931161123857612f3892612ca991612a62565b60405162461bcd60e51b81526020600482015260076024820152660dad2dc7cdac2f60cb1b6044820152606490fd5b90612ae36029604051809466103334b6361e9160c91b6020830152613183815180926020602786019101612879565b810161011160f51b6027820152036009810185520183612771565b604d811161123857600a0a90565b60008112906131c060648083059207612ec7565b9180613278575b6132325760216131ea6131e56131df612f389461375f565b9461375f565b613975565b926040519381613204869351809260208087019101612879565b8201601760f91b60208201526132238251809360208785019101612879565b01036001810184520182612771565b506131e561323f9161375f565b612f38602360405180936216981760e91b60208301526132688151809260208686019101612879565b8101036003810184520182612771565b5080156131c7565b6000811290613296620f42408083059207612ec7565b91806132c7575b6132ba5760216131ea6132b56131df612f389461375f565b6139a8565b506132b561323f9161375f565b50801561329d565b90600091828112926132e08361319e565b801561337857600160ff1b8314600019821416613364578205916133038461319e565b9182156133505750906133169107612ec7565b9280613348575b61333b576131ea612f3892613336610cec60219461375f565b6139db565b5061333661323f9261375f565b50801561331d565b634e487b7160e01b81526012600452602490fd5b634e487b7160e01b82526011600452602482fd5b634e487b7160e01b82526012600452602482fd5b906000908183136135d8576133a0906135f6565b916202bf1f19811215613570575050612f3860f76135549260646133ce6133c86064926131ac565b916131ac565b916040519586937f3c72656374206d61736b3d2275726c28236e696768744d61736b0000000000006020860152825193602084019461341181603a890188612879565b86017f2922207374796c653d226d69782d626c656e642d6d6f64653a6d756c7469706c603a8201527f79222077696474683d223130383022206865696768743d223130383022206669605a8201527536361e911198231999991b911037b830b1b4ba3c9e9160511b607a820152613492825180936020609085019101612879565b017f223e3c2f726563743e3c72656374206f7061636974793d22000000000000000060908201526134cd82518093602060a885019101612879565b017f222066696c7465723d2275726c2823737461722d66696c74657200000000000060a88201528251906135058260c2830187612879565b01917f29222077696474683d223130302522206865696768743d223130302522206d6160c284015270736b3d2275726c28236d6f6f6e4d61736b60781b60e284015251809360f3840190612879565b01631491179f60e11b60f38201520360d7810184520182612771565b61076c61357c82612ec7565b05916201d4bf1991828112156135bf5761359590612ec7565b918201918213600116612ee3575061355492612f38926133ce6133c861025860f795055b926131ac565b5060f7915092612f38926133ce6133c8613554966135b9565b5060405191506135e782612756565b815290565b60041115612a1a57565b806000917a184f03e93ff9f4daa797ed6e38ed64bf6a1f01000000000000000080821015613751575b506d04ee2d6d415b85acef810000000080831015613742575b50662386f26fc1000080831015613733575b506305f5e10080831015613724575b5061271080831015613715575b506064821015613705575b600a809210156136fb575b600190816021600186019561369087612792565b9661369e6040519889612771565b8088526136ad601f1991612792565b01366020890137860101905b6136c5575b5050505090565b600019019083906f181899199a1a9b1b9c1cb0b131b232b360811b8282061a8353049182156136f6579190826136b9565b6136be565b916001019161367c565b9190606460029104910191613671565b60049193920491019138613666565b60089193920491019138613659565b6010919392049101913861364a565b60209193920491019138613638565b60409350810491503861361f565b612f38906137986000821291826000146137a65760405161377f8161273b565b60018152602d60f81b6020820152925b61379e576135f6565b90612aa2565b6000036135f6565b6040516137b281612756565b600081529261378f565b9092919281908251928151865193602097888080950195019087856040510193019385850198811115613833575b5050508394508095939160405195869103910301945b8382106138245750506000848401968701525050603f909301601f19166040528252565b81518152908201908201613800565b90919293959450602181870301968a600093600082851015613929575b601f859998979916830360031b9851965b88518881188b1c1561389d57815260018091019801988b8a1015613887575b9897613861565b505050959750505050509183925b3880806137ea565b918497949598919a92819d94979a9c9d6138e2575b50505050505b818184010151818801520190838210156138d4579082906138b8565b505092019201928392613895565b90809293949596508a8d20036138fa578795946138b2565b8a9192989597949c9b9996939a5260018091019801988b8a106138805750505095975050505050918392613895565b50838620613850565b600381511015612f3857612f6b6040519182602091600360fc1b8383015261396560219382519283918686019101612879565b8101036001810184520182612771565b600281511015612f38576131e56040519182602091600360fc1b8383015261396560219382519283918686019101612879565b600681511015612f38576132b56040519182602091600360fc1b8383015261396560219382519283918686019101612879565b9190915b8281511015613a1657613a116040519182602091600360fc1b8383015261396560219382519283918686019101612879565b6139df565b9150565b9081518151908181149384613a30575050505090565b60209293945082012092012014388080806136be565b60405161034081018181106001600160401b03821117610acf5760409081526533333333333360d11b82526506462643865360d41b60208301526536383431393360d01b908201526565336363653560d01b60608201526566666636636360d01b6080820152650d8d0e4d8c8d60d21b60a08201526539626232323160d01b60c08201526563336431376360d01b60e08201526506666643730360d41b610100820152653333329b9b1b60d11b6101208201526566636438393960d01b61014082015265198c8e4c4c0d60d21b6101608201526565363334326160d01b6101808201526565393466316360d01b6101a08201526562653138323360d01b6101c08201526518584dcc0ccd60d21b6101e082015265329c9a3298b160d11b61020082015265333331b0b13360d11b6102208201526566666363393960d01b6102408201526531b19c331a9960d11b6102608201526537613436323560d01b61028082015265199998d8cd1960d21b6102a08201526539363633323960d01b6102c08201526506633376330360d41b6102e08201526566663564366160d01b6103008201526506362306665360d41b610320820152601a821015613c335765ffffffffffff60d01b9160051b01511660405190602360f81b6020830152602182015260078152612f388161273b565b60405162461bcd60e51b815260206004820152600c60248201526b0deeae840decc40d2dcc8caf60a31b6044820152606490fdfea264697066735822122039a866a23f598ad4514fb64cc52401f9841b2c4c33f89b7ec77a2d285d9e718a64736f6c63430008190033","linkReferences":{}},"methodIdentifiers":{"abs(int256)":"1b5ac4b5","adjustTimeStampsForAssetVisibility(uint256,uint256,uint256,uint256,DAYTIME,uint256,uint256)":"9163cba5","applyNight(int256,uint256)":"cd1406d6","computeStarttime(uint256,AssetInScene,string,uint256,uint256,bool)":"174d710c","createElementAndSetColor(SceneElement,string,string)":"ad497745","createStandardAttributes(Motif,FlowerType,int256)":"fe288cdb","formatChartNumber(uint256)":"58f99136","generateClouds(int256,uint256)":"4b54268f","randomNum(string,uint256,uint256)":"8587a4a5","randomNum(uint256,uint256,uint256)":"28294640","renderDecimal(int256)":"b8d22c58","renderDecimal(int256,uint256)":"c1deee68","renderFinalNFT(string,uint256,string,SVGData,string)":"682ca5b2","renderReplacements(string,Replacement[])":"c2209fb9","setUseRotations(string,string,string,int256[],int16[2])":"194a1b56","setUseTags(string,string,int16[],bool,string)":"3899f054"},"id":6}