{"abi":[{"type":"function","name":"abs","inputs":[{"name":"x","type":"int256","internalType":"int256"}],"outputs":[{"name":"","type":"int256","internalType":"int256"}],"stateMutability":"pure"},{"type":"function","name":"adjustTimeStampsForAssetVisibility","inputs":[{"name":"minStartTime","type":"uint256","internalType":"uint256"},{"name":"maxStartTime","type":"uint256","internalType":"uint256"},{"name":"sunriseTime","type":"uint256","internalType":"uint256"},{"name":"sunsetTime","type":"uint256","internalType":"uint256"},{"name":"timeOfDayVisibility","type":"DAYTIME","internalType":"enum DAYTIME"},{"name":"tolerance","type":"uint256","internalType":"uint256"},{"name":"maxDuration","type":"uint256","internalType":"uint256"}],"outputs":[{"name":"","type":"uint256","internalType":"uint256"},{"name":"","type":"uint256","internalType":"uint256"},{"name":"","type":"bool","internalType":"bool"}],"stateMutability":"pure"},{"type":"function","name":"computeStarttime","inputs":[{"name":"timestamp","type":"uint256","internalType":"uint256"},{"name":"asset","type":"tuple","internalType":"struct AssetInScene","components":[{"name":"name","type":"string","internalType":"string"},{"name":"minDuration","type":"uint256","internalType":"uint256"},{"name":"maxDuration","type":"uint256","internalType":"uint256"},{"name":"checkInterval","type":"uint256","internalType":"uint256"},{"name":"possibleOffset","type":"uint256","internalType":"uint256"},{"name":"probability","type":"uint256","internalType":"uint256"},{"name":"dayTime","type":"DAYTIME","internalType":"enum DAYTIME"}]},{"name":"salt","type":"string","internalType":"string"},{"name":"sunrise","type":"uint256","internalType":"uint256"},{"name":"sunset","type":"uint256","internalType":"uint256"},{"name":"isMoving","type":"bool","internalType":"bool"}],"outputs":[{"name":"","type":"uint256[]","internalType":"uint256[]"}],"stateMutability":"pure"},{"type":"function","name":"createStandardAttributes","inputs":[{"name":"motif","type":"tuple","internalType":"struct Motif","components":[{"name":"name","type":"string","internalType":"string"},{"name":"lat","type":"int256","internalType":"int256"},{"name":"lng","type":"int256","internalType":"int256"},{"name":"heading","type":"int256","internalType":"int256"},{"name":"horizon","type":"int256","internalType":"int256"},{"name":"svg","type":"string","internalType":"string"},{"name":"scenes","type":"tuple[]","internalType":"struct SceneInMotif[]","components":[{"name":"placeHolder","type":"string","internalType":"string"},{"name":"assets","type":"uint8[]","internalType":"uint8[]"},{"name":"area","type":"int256[4]","internalType":"int256[4]"},{"name":"scale","type":"uint256","internalType":"uint256"}]},{"name":"replacements","type":"tuple[]","internalType":"struct Replacement[]","components":[{"name":"tag","type":"ObjectType","internalType":"enum ObjectType"},{"name":"dataType","type":"RenderDataType","internalType":"enum RenderDataType"},{"name":"data","type":"int256[]","internalType":"int256[]"},{"name":"placeholder","type":"string","internalType":"string"},{"name":"ref","type":"string","internalType":"string"}]},{"name":"motifType","type":"MotifType","internalType":"enum MotifType"}]},{"name":"flowerType","type":"FlowerType","internalType":"enum FlowerType"}],"outputs":[{"name":"","type":"string","internalType":"string"}],"stateMutability":"pure"},{"type":"function","name":"formatChartNumber","inputs":[{"name":"number","type":"uint256","internalType":"uint256"}],"outputs":[{"name":"","type":"string","internalType":"string"}],"stateMutability":"pure"},{"type":"function","name":"randomNum","inputs":[{"name":"nonce","type":"uint256","internalType":"uint256"},{"name":"min","type":"uint256","internalType":"uint256"},{"name":"max","type":"uint256","internalType":"uint256"}],"outputs":[{"name":"","type":"uint256","internalType":"uint256"}],"stateMutability":"pure"},{"type":"function","name":"randomNum","inputs":[{"name":"nonce","type":"string","internalType":"string"},{"name":"min","type":"uint256","internalType":"uint256"},{"name":"max","type":"uint256","internalType":"uint256"}],"outputs":[{"name":"","type":"uint256","internalType":"uint256"}],"stateMutability":"pure"},{"type":"function","name":"renderDecimal","inputs":[{"name":"value","type":"int256","internalType":"int256"}],"outputs":[{"name":"","type":"string","internalType":"string"}],"stateMutability":"pure"},{"type":"function","name":"renderDecimal","inputs":[{"name":"value","type":"int256","internalType":"int256"},{"name":"decimals","type":"uint256","internalType":"uint256"}],"outputs":[{"name":"","type":"string","internalType":"string"}],"stateMutability":"pure"},{"type":"function","name":"renderFinalNFT","inputs":[{"name":"assetsSVG","type":"string","internalType":"string"},{"name":"tokenId","type":"uint256","internalType":"uint256"},{"name":"motifSVG","type":"string","internalType":"string"},{"name":"svgData","type":"tuple","internalType":"struct SVGData","components":[{"name":"sunSVG","type":"string","internalType":"string"},{"name":"skyColor","type":"string","internalType":"string"},{"name":"moonSVG","type":"string","internalType":"string"},{"name":"nightSVG","type":"string","internalType":"string"},{"name":"waterColor","type":"string","internalType":"string"},{"name":"cloudsSVG","type":"string","internalType":"string"},{"name":"skySceneSVG","type":"string","internalType":"string"}]},{"name":"maskedAssetsSVG","type":"string","internalType":"string"}],"outputs":[{"name":"","type":"string","internalType":"string"}],"stateMutability":"view"},{"type":"function","name":"renderReplacements","inputs":[{"name":"svg","type":"string","internalType":"string"},{"name":"replacements","type":"tuple[]","internalType":"struct Replacement[]","components":[{"name":"tag","type":"ObjectType","internalType":"enum ObjectType"},{"name":"dataType","type":"RenderDataType","internalType":"enum RenderDataType"},{"name":"data","type":"int256[]","internalType":"int256[]"},{"name":"placeholder","type":"string","internalType":"string"},{"name":"ref","type":"string","internalType":"string"}]}],"outputs":[{"name":"","type":"string","internalType":"string"}],"stateMutability":"pure"},{"type":"function","name":"setRandomColor","inputs":[{"name":"svg","type":"string","internalType":"string"},{"name":"salt","type":"string","internalType":"string"}],"outputs":[{"name":"","type":"string","internalType":"string"}],"stateMutability":"pure"},{"type":"function","name":"setUseRotations","inputs":[{"name":"svg","type":"string","internalType":"string"},{"name":"ref","type":"string","internalType":"string"},{"name":"placeHolder","type":"string","internalType":"string"},{"name":"rotations","type":"int256[]","internalType":"int256[]"},{"name":"rotationAnchor","type":"int16[2]","internalType":"int16[2]"}],"outputs":[{"name":"","type":"string","internalType":"string"}],"stateMutability":"pure"},{"type":"function","name":"setUseTags","inputs":[{"name":"svgTemplate","type":"string","internalType":"string"},{"name":"ref","type":"string","internalType":"string"},{"name":"positions","type":"int16[]","internalType":"int16[]"},{"name":"hasScale","type":"bool","internalType":"bool"},{"name":"placeholder","type":"string","internalType":"string"}],"outputs":[{"name":"","type":"string","internalType":"string"}],"stateMutability":"pure"}],"bytecode":{"object":"0x60808060405234601957612f00908161001f823930815050f35b600080fdfe608080604052600436101561001357600080fd5b60003560e01c908163174d710c14611d9a57508063194a1b5614611b8e5780631b5ac4b514611b755780632829464014611b4e5780633899f0541461188057806358f9913614611866578063682ca5b2146110385780638587a4a514610ff35780639163cba514610eac578063b8d22c5814610e92578063c1deee6814610e75578063c2209fb914610ab8578063c528fb331461087e5763e4c1354e146100b957600080fd5b60031960403682011261069b576001600160401b036004351161069b5761012080916004353603011261069b576040519081018181106001600160401b0382111761084c57604052600435600401356001600160401b03811161069b57610127906004369181350101611f3e565b81526004356024810135602083015260448101356040830152606481013560608301526084810135608083015260a401356001600160401b03811161069b57610177906004369181350101611f3e565b60a082015260c460043501356001600160401b03811161069b57366023826004350101121561069b576004818135010135906101b282611f85565b916101c06040519384611f02565b80835260208301903660248260051b856004350101011161069b576024836004350101915b60248260051b8560043501010183106106a057858560c082015260e460043501356001600160401b03811161069b57610225906004369181350101612059565b60e08201526101046004350135600481101561069b57610100820190815260243591600483101561069b5760476104f392610552928561026761055e97612a9c565b60018103610607575060405161027c81611ecc565b6004815263526f736560e01b60208201525b604051926104a2604461042c606060208801957f2261747472696275746573223a205b7b2274726169745f74797065223a22466c87526e37bbb2b91116113b30b63ab2911d1160891b60408a01526102f0815180926020604f8d01910161200a565b88019661031460518a61227d60f01b9a8b604f82015203603181018c52018a611f02565b61039d60456103266020840151612990565b9a6040519b8c91610340602084019c8d925192839161200a565b82017f2c7b2274726169745f74797065223a224c61746974756465222c2276616c7565602082015262111d1160e91b604082015261038882518093602060438501910161200a565b018b604382015203602581018c52018a611f02565b61042560466103af6040840151612990565b9a6040519b8c916103c9602084019c8d925192839161200a565b82017f2c7b2274726169745f74797065223a224c6f6e676974756465222c2276616c7560208201526332911d1160e11b60408201526104118251809360208c8501910161200a565b018b8882015203602681018c52018a611f02565b0151612c0f565b95604051968791610446602084019788925192839161200a565b82017f2c7b2274726169745f74797065223a2248656164696e67222c2276616c7565226020820152611d1160f11b604082015261048d82518093602060428501910161200a565b01866042820152036024810187520185611f02565b80516104ad81612a9c565b6104b681612a9c565b61056257506040516104c781611ecc565b600a81526920ba3a3930b1ba34b7b760b11b6020820152905b604051968794518092602087019061200a565b83017f2c7b2274726169745f74797065223a224d6f7469662054797065222c2276616c6020820152643ab2911d1160d91b604082015261053d82518093602060458501910161200a565b01906045820152036027810184520182611f02565b6040519182918261202d565b0390f35b6001815161056f81612a9c565b61057881612a9c565b036105a3575060405161058a81611ecc565b6005815264084cac2c6d60db1b60208201525b906104e0565b600290516105b081612a9c565b6105b981612a9c565b036105e0576040516105ca81611ecc565b60048152634369747960e01b602082015261059d565b6040516105ec81611ecc565b60098152684c616e64736361706560b81b602082015261059d565b61061081612a9c565b8061063d575060405161062281611ecc565b600981526829bab7333637bbb2b960b91b602082015261028e565b80610649600292612a9c565b036106735760405161065a81611ecc565b600781526623b2b73a34b0b760c91b602082015261028e565b60405161067f81611ecc565b600a81526926b7b7b7333637bbb2b960b11b602082015261028e565b600080fd5b82356001600160401b03811161069b5760e0600435860182013603602319011261069b57604051908160808101106001600160401b0360808401111761084c57608082016040526001600160401b0360248288600435010101351161069b5761071736602460043589018401818101350101611f3e565b825260448187600435010101356001600160401b03811161069b5736604382848a60043501010101121561069b57602481838960043501010101359061075c82611f85565b9161076a6040519384611f02565b808352602083013660448b85888660051b9260043501010101011161069b57604483868c60043501010101905b60448b85888660051b9260043501010101018210610862575050505060208301523660838288600435010101121561069b576040518060808101106001600160401b0360808301111761084c5760808101604052803660e4848a6004350101011161069b5760648389600435010101905b60e4848a600435010101821061083c575050604083015260043586010160e4013560608201528152602092830192016101e5565b8135815260209182019101610808565b634e487b7160e01b600052604160045260246000fd5b60ff82351682350361069b578135815260209182019101610797565b604036600319011261069b576001600160401b0360043581811161069b576108aa903690600401611f3e565b9060243581811161069b576108c3903690600401611f3e565b906011604051926020936108f38582816108e6818301968781519384920161200a565b8101038084520182611f02565b5190200690604051906102208201908282109082111761084c5760409081526533333333333360d11b82526506462643865360d41b848301526536383431393360d01b908201526565336363653560d01b60608201526566666636636360d01b6080820152650d8d0e4d8c8d60d21b60a08201526539626232323160d01b60c08201526563336431376360d01b60e08201526506666643730360d41b610100820152653333329b9b1b60d11b6101208201526566636438393960d01b61014082015265198c8e4c4c0d60d21b6101608201526565363334326160d01b6101808201526565393466316360d01b6101a08201526562653138323360d01b6101c08201526518584dcc0ccd60d21b6101e082015265329c9a3298b160d11b6102008201526011821015610a84579161055e93916105529365ffffffffffff60d01b9160051b0151169160405192602360f81b83850152602184015260078352610a5983611ecc565b6d1e109696b93221b7b637b916969f60911b60405192610a7884611ecc565b600e8452830152612c6c565b60405162461bcd60e51b815260048101849052600c60248201526b0deeae840decc40d2dcc8caf60a31b6044820152606490fd5b604036600319011261069b576001600160401b0360043581811161069b57610ae4903690600401611f3e565b60249160243590811161069b57610b0083913690600401612059565b6000915b8151831015610e6757610b17838361227d565b51936060948051610b27816121a8565b610b30816121a8565b15610b8c575b94610b83916060600194959697015190610b7e6040519283602091600960fa1b83830152610b6f6021938251928391868601910161200a565b81010387810185520183611f02565b612c6c565b93019190610b04565b906020820151610b9b816121a8565b610ba4816121a8565b610e39576002955b6000905b60408401518051831015610e2d5782610bc89161227d565b516040850151600184018411610e1857610be690600185019061227d565b51906020860151610bf6816121a8565b610bff816121a8565b610dde57610c0b61268f565b8660026020820151610c1c816121a8565b610c25816121a8565b03610d9b5760400151600386018611610d8657937604440e8e4c2dce6ccdee4da7a44e8e4c2dce6d8c2e8ca5604b1b9388610d75946054946705240e6c6c2d8ca560c31b610c9c610c966080610c8c610c868f9e610d809f6003019061227d565b516128bc565b965b015194612c0f565b95612c0f565b946040519987610cb68c995180926020808d01910161200a565b8801946b3c75736520687265663d222360a01b6020870152602c95610ce48251809360208a8501910161200a565b0194850152604393610cff825180936020888501910161200a565b019461016160f51b8094870152604595610d228251809360208a8501910161200a565b0194850152604d93610d3d825180936020888501910161200a565b0192830152604f91610d58825180936020868501910161200a565b019064149110179f60d91b90820152036034810184520182611f02565b9160ff89169061221a565b90610bb0565b88634e487b7160e01b60005260116004526000fd5b937604440e8e4c2dce6ccdee4da7a44e8e4c2dce6d8c2e8ca5604b1b93610d8095610d7594846705240e6c6c2d8ca560c31b610c9c610c96608060549996610c8e565b6040860151600285018511610e0357610c86610dfe91600287019061227d565b610c0b565b87634e487b7160e01b60005260116004526000fd5b86634e487b7160e01b60005260116004526000fd5b50965090919050610b36565b60016020830151610e49816121a8565b610e52816121a8565b03610e605760035b95610bac565b6004610e5a565b6040518061055e868261202d565b604036600319011261069b5761055e6105526024356004356129df565b602036600319011261069b5761055e6105526004356128bc565b60e036600319011261069b57606435608435604435602435600435600384101561069b5760609460c43590838395600196610ee6896121a8565b60018914958680610fea575b15610fbb57505080975b6064610f0a60a43587612227565b0495610f15826121a8565b15610f6657505050610f309291610f2b91612185565b61221a565b808211610f5e575b50808311610f55575b604051928352602083015215156040820152f35b60009150610f41565b905084610f38565b9091949250610f74816121a8565b15610f83575b50505050610f41565b610f9092610f2b91612185565b809111610fb3575b50808311610faa575b84808080610f7a565b60009150610fa1565b905084610f98565b610fc68a929a6121a8565b8482159182610fe0575b505015610efc5797508297610efc565b119050848c610fd0565b50828110610ef2565b606036600319011261069b576004356001600160401b03811161069b576110306110236020923690600401611f3e565b6044359060243590612834565b604051908152f35b60031960a03682011261069b576004356001600160401b03811161069b57611064903690600401611f3e565b6044356001600160401b03811161069b57611083903690600401611f3e565b91606435906001600160401b03821161069b5760e090823603011261069b576040516110ae81611eb1565b81600401356001600160401b03811161069b576110d19060043691850101611f3e565b815260248201356001600160401b03811161069b576110f69060043691850101611f3e565b602082015260448201356001600160401b03811161069b5761111e9060043691850101611f3e565b604082015260648201356001600160401b03811161069b576111469060043691850101611f3e565b606082015260848201356001600160401b03811161069b5761116e9060043691850101611f3e565b916080820192835260a48101356001600160401b03811161069b576111999060043691840101611f3e565b60a083015260c4810135906001600160401b03821161069b5760046111c19236920101611f3e565b60c08201526084356001600160401b03811161069b5760207f2220726573756c743d22666c6f6f6422202f3e3c6665436f6d706f736974652061141161019861121161150e953690600401611f3e565b9661121d602435612aa6565b9051906040519485927f3c73766720786d6c6e733d22687474703a2f2f7777772e77332e6f72672f3230888501527f30302f73766722207072657365727665417370656374526174696f3d22784d6960408501527f6e594d696e206d656574222076696577426f783d22302030203130383020313060608501527f3830223e3c66696c7465722069643d226d616b65426c61636b223e3c6665436f60808501527f6c6f724d617472697820747970653d226d6174726978222076616c7565733d2260a08501527f302030203020302030203020302030203020302030203020302030203020302060c08501527f3020302031203022202f3e3c2f66696c7465723e3c66696c7465722069643d2260e0850152630e6d2d8d60e31b6101008501527f2220783d22302220793d2230222077696474683d22323030252220686569676861010493611374815180928c888a01910161200a565b8501938401527f743d2232303025223e3c6665466c6f6f6420666c6f6f642d636f6c6f723d2200610124840152610143926113b7825180938b878501910161200a565b01918201527f696e3d22666c6f6f642220696e323d22536f75726365416c70686122206f7065610163820152743930ba37b91e9134b711179f1e17b334b63a32b91f60591b61018382015203610178810184520182611f02565b818401519561147d604a60405180996b1e3932b1ba103334b6361e9160a11b878301526114478151809289602c8601910161200a565b81017f222077696474683d223130383022206865696768743d2231303830222f3e0000602c82015203602a81018a520188611f02565b845160a086015160c08701519160405199856114a28c975180928a808b01910161200a565b86016114b6825180938a808501910161200a565b016114c98251809389808501910161200a565b016114dc8251809388808501910161200a565b016114ef8251809387808501910161200a565b016115028251809386808501910161200a565b01038086520184611f02565b611519602435612aa6565b92611654609c61152a602435612aa6565b604060608601519501516040519586926020840199713c6d61736b2069643d226d6f6f6e4d61736b60701b8b5261156b81518092602060328901910161200a565b84017f223e3c726563742066696c6c3d2223666666222077696474683d22313038302260328201526f103432b4b3b43a1e9118981c1811179f60811b6052820152701e3ab9b290343932b31e9111b6b7ba34b360791b60628201526115da82518093602060738501910161200a565b017f222066696c7465723d2275726c28236d616b65426c61636b29222f3e3c2f6d6160738201526239b59f60e91b609382015261162182518093602060968501910161200a565b0161163682518093602060968501910161200a565b01651e17b9bb339f60d11b609682015203607c810185520183611f02565b6040519360608501928584106001600160401b0385111761084c576118416117e0966105529661183361055e9a602e98604052603284527f3c75736520687265663d22236c69676874686f757365222066696c7465723d226020850152713ab9361411b6b0b5b2a13630b1b59491179f60711b60408501526116d7602435612aa6565b93602435600103611850575b6117be606e604051809660208201987f3c2f673e3c6d61736b2069643d226e696768744d61736b0000000000000000008a5261172981518092602060378701910161200a565b82019461111f60f11b958660378201527f3c726563742066696c6c3d2223666666222077696474683d223130383022206860398201526d32b4b3b43a1e9118981c1811179f60911b605982015261178a82518093602060678501910161200a565b0161179f82518093602060678501910161200a565b01661e17b6b0b9b59f60c91b606782015203604e810187520185611f02565b6117c9602435612aa6565b60206040519d8e8c83829e5194859301910161200a565b8a016b1e339034b21e9136b7ba34b360a11b602082015261180b825180936020602c8501910161200a565b0190602c8201526118258251809360208d8501910161200a565b01915180938984019061200a565b01915180938684019061200a565b0103600e810184520182611f02565b5060405161185d81611ee7565b600081526116e3565b602036600319011261069b5761055e6105526004356126ac565b60a036600319011261069b576001600160401b0360043581811161069b576118ac903690600401611f3e565b6024803583811161069b576118c5903690600401611f3e565b6044359380851161069b573660238601121561069b578460040135946118ea86611f85565b956118f86040519788611f02565b8087526024602088019160051b8301019136831161069b57602401905b828210611b365750505060643515156064350361069b5760843590811161069b57611944903690600401611f3e565b9360405161195181611ee7565b600081529260643515611b2e576003955b6000945b8351861015611b205761198561197c878661227d565b5160010b612c0f565b60018701808811611ac45761197c61199d918761227d565b8660643515611ad95750600288018811611ac4576052611abe93887604440e8e4c2dce6ccdee4da7a44e8e4c2dce6d8c2e8ca5604b1b946705240e6c6c2d8ca560c31b611ab39561016160f51b6119fc8f8e600261197c92019061227d565b935b6040519987611a178c995180926020808d01910161200a565b8801966b3c75736520687265663d222360a01b6020890152602c97611a458251809360208c8501910161200a565b0196870152604395611a608251809360208a8501910161200a565b0194850152604593611a7b825180936020888501910161200a565b0192830152604d91611a96825180936020868501910161200a565b019064149110179f60d91b90820152036032810184520182611f02565b9560ff89169061221a565b94611966565b84634e487b7160e01b60005260116004526000fd5b611abe936052917604440e8e4c2dce6ccdee4da7a44e8e4c2dce6d8c2e8ca5604b1b946705240e6c6c2d8ca560c31b611ab39561016160f51b611b1a61268f565b936119fe565b6105529061055e9288612c6c565b600295611962565b60208091611b4384611ffc565b815201910190611915565b606036600319011261069b576020611030604435602435611b70600435612aa6565b612834565b602036600319011261069b57602061103060043561265f565b60c036600319011261069b576001600160401b0360043581811161069b57611bba903690600401611f3e565b9060243581811161069b57611bd3903690600401611f3e565b9060443581811161069b57611bec903690600401611f3e565b9060643590811161069b57611c05903690600401611f9c565b3660a3121561069b5760405192611c1b84611ecc565b60c48436821161069b57608496959496905b828210611d7a57505050604051611c4381611ee7565b600081529460009360209384820192858501985b8251881015611d6c5789611d6460466001938a611c7d611c778e8a61227d565b51612c0f565b8951611c98611c8e8992830b612c0f565b918d51900b612c0f565b918d6040519886611cb28b9851809289808c01910161200a565b87016b3c75736520687265663d222360a01b87820152611cda602c935180938584019061200a565b01907304440e8e4c2dce6ccdee4da7a44e4dee8c2e8ca560631b90820152611d0b825180938760408501910161200a565b0190600160fd1b90816040840152604192611d2e8251809388878501910161200a565b0191820152611d486042938351938491868501910161200a565b0190631491179f60e11b90820152036026810184520182611f02565b970196611c57565b6105529061055e928a612c6c565b60208091611d8b849a98999a611ffc565b81520191019096959496611c2d565b6003199060c03683011261069b57602435916001600160401b039081841161069b5760e090843603011261069b57611dd182611eb1565b826004013581811161069b57611ded9060043691860101611f3e565b825260c460209360248101358585015260448101356040850152606481013560608501526084810135608085015260a481013560a08501520135600381101561069b5760c083015260443590811161069b57611e4d903690600401611f3e565b60a43590811515820361069b57611e6e9260843591606435916004356122a7565b906040519181839283018184528251809152816040850193019160005b828110611e9a57505050500390f35b835185528695509381019392810192600101611e8b565b60e081019081106001600160401b0382111761084c57604052565b604081019081106001600160401b0382111761084c57604052565b602081019081106001600160401b0382111761084c57604052565b90601f801991011681019081106001600160401b0382111761084c57604052565b6001600160401b03811161084c57601f01601f191660200190565b81601f8201121561069b57803590611f5582611f23565b92611f636040519485611f02565b8284526020838301011161069b57816000926020809301838601378301015290565b6001600160401b03811161084c5760051b60200190565b9080601f8301121561069b576020908235611fb681611f85565b93611fc46040519586611f02565b81855260208086019260051b82010192831161069b57602001905b828210611fed575050505090565b81358152908301908301611fdf565b35908160010b820361069b57565b60005b83811061201d5750506000910152565b818101518382015260200161200d565b6040916020825261204d815180928160208601526020868601910161200a565b601f01601f1916010190565b81601f8201121561069b5780359160209161207384611f85565b936040926120846040519687611f02565b818652848087019260051b8401019381851161069b57858401925b8584106120b0575050505050505090565b6001600160401b03843581811161069b5786019160a080601f19858803011261069b57845190808201828110858211176121705786526003858c01358181101561069b578352868601359081101561069b578b8301526060908186013585811161069b57888d61212292890101611f9c565b878401526080918287013586811161069b57898e612142928a0101611f3e565b9084015285013593841161069b57612161878c80979681970101611f3e565b9082015281520193019261209f565b60246000634e487b7160e01b81526041600452fd5b9190820391821161219257565b634e487b7160e01b600052601160045260246000fd5b600311156121b257565b634e487b7160e01b600052602160045260246000fd5b906121d282611f85565b6121df6040519182611f02565b82815280926121f0601f1991611f85565b0190602036910137565b8115612204570690565b634e487b7160e01b600052601260045260246000fd5b9190820180921161219257565b8181029291811591840414171561219257565b602061227b91939293604051948161225b879351809286808701910161200a565b820161226f8251809386808501910161200a565b01038085520183611f02565b565b80518210156122915760209160051b010190565b634e487b7160e01b600052603260045260246000fd5b9594926000946122c96122be60408501518a612185565b608085015190612185565b90889060c0850193600285516122de816121a8565b6122e7816121a8565b0361250a575b50506123099192506123036060850151826121fa565b90612185565b9661232b61232461231e6060860151856121fa565b84612185565b8099612185565b60608401519081156124f6570494600186018096116124e25761234d866121c8565b98875b878110612399575050505050505050612368816121c8565b9060005b81811061237a575090925050565b806123876001928761227d565b51612392828661227d565b520161236c565b6123b06123aa606088015183612227565b8361221a565b6123c26123bc82612aa6565b8961223a565b90604051906065602083018451936123e5602082818901976108e681878b61200a565b5190200660a08a0151116123ff575b505050600101612350565b6108e660808a015192612422602060405180938282019586918a5192839161200a565b51902091600181018111612192576124479260016124419201906121fa565b9061221a565b908561246761246160208b0193845160408d015191612834565b8461221a565b8184111592836124b4575b505050806124aa575b612487575b80806123f4565b6124948a8d9b939b61227d565b5260001981146121925760018091019890612480565b508581101561247b565b6124d1929350600090886000146124db576003915051049061221a565b1015853880612472565b509061221a565b634e487b7160e01b87526011600452602487fd5b634e487b7160e01b88526012600452602488fd5b909150670de0b6b3a7640000935193612522856121a8565b6040860151908b938596600197612538826121a8565b60018214978880612654575b15612623575050828504965b60018515171561260f57612563826121a8565b156125c35750612574935004612185565b8082116125bb575b508082116125b3575b90911561259557819038806122ed565b5050505050909150604051906125aa82611ee7565b80825236813790565b869250612585565b90503861257c565b90506125ce816121a8565b156125dc575b505050612585565b6125e69204612185565b808a11612607575b508082116125ff575b3880806125d4565b8692506125f7565b9050386125ee565b634e487b7160e01b8d52601160045260248dfd5b61262f839992996121a8565b82159081612648575b5015612550578383049750612550565b90508484041038612638565b508487048110612544565b600080821261266c575090565b600160ff1b821461267b570390565b634e487b7160e01b81526011600452602490fd5b6040519061269c82611ecc565b60018252603160f81b6020830152565b620f4240808210156126c557506126c290612aa6565b90565b633b9aca008083101561274d575060226126fa6126f56103e8846126ed6126c2968804612aa6565b960604612aa6565b612de2565b92604051938161271486935180926020808701910161200a565b8201601760f91b602082015261273482518093602060218501910161200a565b01604d60f81b6021820152036002810184520182611f02565b64e8d4a51000808410156127c757506127746126f56126c293836126ed6022958804612aa6565b92604051938161278e86935180926020808701910161200a565b8201601760f91b60208201526127ae82518093602060218501910161200a565b01602160f91b6021820152036002810184520182611f02565b6126c292506126f5602292826126ed6127e1948804612aa6565b9260405193816127fb86935180926020808701910161200a565b8201601760f91b602082015261281b82518093602060218501910161200a565b01601560fa1b6021820152036002810184520182611f02565b82821161287f57816128669160405161285d602082816108e6818301968781519384920161200a565b51902093612185565b9160018301809311612192576126c292612441916121fa565b60405162461bcd60e51b81526020600482015260076024820152660dad2dc7cdac2f60cb1b6044820152606490fd5b604d811161219257600a0a90565b60008112906128d06064808305920761265f565b9180612988575b6129425760216128fa6128f56128ef6126c294612c0f565b94612c0f565b612e25565b92604051938161291486935180926020808701910161200a565b8201601760f91b6020820152612933825180936020878501910161200a565b01036001810184520182611f02565b506128f561294f91612c0f565b6126c2602360405180936216981760e91b6020830152612978815180926020868601910161200a565b8101036003810184520182611f02565b5080156128d7565b60008112906129a6620f4240808305920761265f565b91806129d7575b6129ca5760216128fa6129c56128ef6126c294612c0f565b612e58565b506129c561294f91612c0f565b5080156129ad565b90600091828112926129f0836128ae565b8015612a8857600160ff1b8314600019821416612a7457820591612a13846128ae565b918215612a60575090612a26910761265f565b9280612a58575b612a4b576128fa6126c292612a46610c96602194612c0f565b612e8b565b50612a4661294f92612c0f565b508015612a2d565b634e487b7160e01b81526012600452602490fd5b634e487b7160e01b82526011600452602482fd5b634e487b7160e01b82526012600452602482fd5b600411156121b257565b806000917a184f03e93ff9f4daa797ed6e38ed64bf6a1f01000000000000000080821015612c01575b506d04ee2d6d415b85acef810000000080831015612bf2575b50662386f26fc1000080831015612be3575b506305f5e10080831015612bd4575b5061271080831015612bc5575b506064821015612bb5575b600a80921015612bab575b6001908160216001860195612b4087611f23565b96612b4e6040519889611f02565b808852612b5d601f1991611f23565b01366020890137860101905b612b75575b5050505090565b600019019083906f181899199a1a9b1b9c1cb0b131b232b360811b8282061a835304918215612ba657919082612b69565b612b6e565b9160010191612b2c565b9190606460029104910191612b21565b60049193920491019138612b16565b60089193920491019138612b09565b60109193920491019138612afa565b60209193920491019138612ae8565b604093508104915038612acf565b6126c290612c48600082129182600014612c5657604051612c2f81611ecc565b60018152602d60f81b6020820152925b612c4e57612aa6565b9061223a565b600003612aa6565b604051612c6281611ee7565b6000815292612c3f565b9092919281908251928151865193602097888080950195019087856040510193019385850198811115612ce3575b5050508394508095939160405195869103910301945b838210612cd45750506000848401968701525050603f909301601f19166040528252565b81518152908201908201612cb0565b90919293959450602181870301968a600093600082851015612dd9575b601f859998979916830360031b9851965b88518881188b1c15612d4d57815260018091019801988b8a1015612d37575b9897612d11565b505050959750505050509183925b388080612c9a565b918497949598919a92819d94979a9c9d612d92575b50505050505b81818401015181880152019083821015612d8457908290612d68565b505092019201928392612d45565b90809293949596508a8d2003612daa57879594612d62565b8a9192989597949c9b9996939a5260018091019801988b8a10612d305750505095975050505050918392612d45565b50838620612d00565b6003815110156126c2576126f56040519182602091600360fc1b83830152612e156021938251928391868601910161200a565b8101036001810184520182611f02565b6002815110156126c2576128f56040519182602091600360fc1b83830152612e156021938251928391868601910161200a565b6006815110156126c2576129c56040519182602091600360fc1b83830152612e156021938251928391868601910161200a565b9190915b8281511015612ec657612ec16040519182602091600360fc1b83830152612e156021938251928391868601910161200a565b612e8f565b915056fea26469706673582212208851dc0656dcf1f0b9999172c47e91aa8a4e808c57764cb25a5aaec5dcc2fd7664736f6c63430008190033","linkReferences":{}},"methodIdentifiers":{"abs(int256)":"1b5ac4b5","adjustTimeStampsForAssetVisibility(uint256,uint256,uint256,uint256,DAYTIME,uint256,uint256)":"9163cba5","computeStarttime(uint256,AssetInScene,string,uint256,uint256,bool)":"174d710c","createStandardAttributes(Motif,FlowerType)":"e4c1354e","formatChartNumber(uint256)":"58f99136","randomNum(string,uint256,uint256)":"8587a4a5","randomNum(uint256,uint256,uint256)":"28294640","renderDecimal(int256)":"b8d22c58","renderDecimal(int256,uint256)":"c1deee68","renderFinalNFT(string,uint256,string,SVGData,string)":"682ca5b2","renderReplacements(string,Replacement[])":"c2209fb9","setRandomColor(string,string)":"c528fb33","setUseRotations(string,string,string,int256[],int16[2])":"194a1b56","setUseTags(string,string,int16[],bool,string)":"3899f054"},"id":6}