{"abi":[{"type":"constructor","inputs":[{"name":"name_","type":"string","internalType":"string"},{"name":"symbol_","type":"string","internalType":"string"}],"stateMutability":"nonpayable"},{"type":"function","name":"approve","inputs":[{"name":"to","type":"address","internalType":"address"},{"name":"tokenId","type":"uint256","internalType":"uint256"}],"outputs":[],"stateMutability":"nonpayable"},{"type":"function","name":"balanceOf","inputs":[{"name":"owner","type":"address","internalType":"address"}],"outputs":[{"name":"","type":"uint256","internalType":"uint256"}],"stateMutability":"view"},{"type":"function","name":"getApproved","inputs":[{"name":"tokenId","type":"uint256","internalType":"uint256"}],"outputs":[{"name":"","type":"address","internalType":"address"}],"stateMutability":"view"},{"type":"function","name":"isApprovedForAll","inputs":[{"name":"owner","type":"address","internalType":"address"},{"name":"operator","type":"address","internalType":"address"}],"outputs":[{"name":"","type":"bool","internalType":"bool"}],"stateMutability":"view"},{"type":"function","name":"maxSupply","inputs":[],"outputs":[{"name":"","type":"uint256","internalType":"uint256"}],"stateMutability":"view"},{"type":"function","name":"mint","inputs":[],"outputs":[],"stateMutability":"nonpayable"},{"type":"function","name":"name","inputs":[],"outputs":[{"name":"","type":"string","internalType":"string"}],"stateMutability":"view"},{"type":"function","name":"ownerOf","inputs":[{"name":"tokenId","type":"uint256","internalType":"uint256"}],"outputs":[{"name":"","type":"address","internalType":"address"}],"stateMutability":"view"},{"type":"function","name":"reservedSupply","inputs":[],"outputs":[{"name":"","type":"uint256","internalType":"uint256"}],"stateMutability":"view"},{"type":"function","name":"royaltyInfo","inputs":[{"name":"tokenId","type":"uint256","internalType":"uint256"},{"name":"salePrice","type":"uint256","internalType":"uint256"}],"outputs":[{"name":"","type":"address","internalType":"address"},{"name":"","type":"uint256","internalType":"uint256"}],"stateMutability":"view"},{"type":"function","name":"safeTransferFrom","inputs":[{"name":"from","type":"address","internalType":"address"},{"name":"to","type":"address","internalType":"address"},{"name":"tokenId","type":"uint256","internalType":"uint256"}],"outputs":[],"stateMutability":"nonpayable"},{"type":"function","name":"safeTransferFrom","inputs":[{"name":"from","type":"address","internalType":"address"},{"name":"to","type":"address","internalType":"address"},{"name":"tokenId","type":"uint256","internalType":"uint256"},{"name":"data","type":"bytes","internalType":"bytes"}],"outputs":[],"stateMutability":"nonpayable"},{"type":"function","name":"setApprovalForAll","inputs":[{"name":"operator","type":"address","internalType":"address"},{"name":"approved","type":"bool","internalType":"bool"}],"outputs":[],"stateMutability":"nonpayable"},{"type":"function","name":"supportsInterface","inputs":[{"name":"interfaceId","type":"bytes4","internalType":"bytes4"}],"outputs":[{"name":"","type":"bool","internalType":"bool"}],"stateMutability":"view"},{"type":"function","name":"symbol","inputs":[],"outputs":[{"name":"","type":"string","internalType":"string"}],"stateMutability":"view"},{"type":"function","name":"tokenURI","inputs":[{"name":"tokenId","type":"uint256","internalType":"uint256"}],"outputs":[{"name":"","type":"string","internalType":"string"}],"stateMutability":"view"},{"type":"function","name":"totalSupply","inputs":[],"outputs":[{"name":"","type":"uint256","internalType":"uint256"}],"stateMutability":"view"},{"type":"function","name":"transferFrom","inputs":[{"name":"from","type":"address","internalType":"address"},{"name":"to","type":"address","internalType":"address"},{"name":"tokenId","type":"uint256","internalType":"uint256"}],"outputs":[],"stateMutability":"nonpayable"},{"type":"event","name":"Approval","inputs":[{"name":"owner","type":"address","indexed":true,"internalType":"address"},{"name":"approved","type":"address","indexed":true,"internalType":"address"},{"name":"tokenId","type":"uint256","indexed":true,"internalType":"uint256"}],"anonymous":false},{"type":"event","name":"ApprovalForAll","inputs":[{"name":"owner","type":"address","indexed":true,"internalType":"address"},{"name":"operator","type":"address","indexed":true,"internalType":"address"},{"name":"approved","type":"bool","indexed":false,"internalType":"bool"}],"anonymous":false},{"type":"event","name":"Transfer","inputs":[{"name":"from","type":"address","indexed":true,"internalType":"address"},{"name":"to","type":"address","indexed":true,"internalType":"address"},{"name":"tokenId","type":"uint256","indexed":true,"internalType":"uint256"}],"anonymous":false},{"type":"error","name":"ERC2981InvalidDefaultRoyalty","inputs":[{"name":"numerator","type":"uint256","internalType":"uint256"},{"name":"denominator","type":"uint256","internalType":"uint256"}]},{"type":"error","name":"ERC2981InvalidDefaultRoyaltyReceiver","inputs":[{"name":"receiver","type":"address","internalType":"address"}]},{"type":"error","name":"ERC721IncorrectOwner","inputs":[{"name":"sender","type":"address","internalType":"address"},{"name":"tokenId","type":"uint256","internalType":"uint256"},{"name":"owner","type":"address","internalType":"address"}]},{"type":"error","name":"ERC721InsufficientApproval","inputs":[{"name":"operator","type":"address","internalType":"address"},{"name":"tokenId","type":"uint256","internalType":"uint256"}]},{"type":"error","name":"ERC721InvalidApprover","inputs":[{"name":"approver","type":"address","internalType":"address"}]},{"type":"error","name":"ERC721InvalidOperator","inputs":[{"name":"operator","type":"address","internalType":"address"}]},{"type":"error","name":"ERC721InvalidOwner","inputs":[{"name":"owner","type":"address","internalType":"address"}]},{"type":"error","name":"ERC721InvalidReceiver","inputs":[{"name":"receiver","type":"address","internalType":"address"}]},{"type":"error","name":"ERC721InvalidSender","inputs":[{"name":"sender","type":"address","internalType":"address"}]},{"type":"error","name":"ERC721NonexistentToken","inputs":[{"name":"tokenId","type":"uint256","internalType":"uint256"}]},{"type":"error","name":"ReentrancyGuardReentrantCall","inputs":[]}],"bytecode":{"object":"0x60406080815234610d5c57611e8f8038038061001a81610d61565b9283398101908281830312610d5c5780516001600160401b0390818111610d5c5783610047918401610d86565b9160209384820151838111610d5c576100609201610d86565b928251828111610d46576000948554916001958684811c94168015610d3c575b85851014610c74578190601f94858111610d10575b508590858311600114610cb1578992610ca6575b5050600019600383901b1c191690861b1786555b805190848211610c925785548681811c91168015610c88575b85821014610c7457908184849311610c3e575b508490848311600114610bdf578892610bd4575b5050600019600383901b1c191690851b1784555b836006558551926127e084019084821090821117610bc057865260bb83526101038284015260628684015260b260608401526101266080840152608060a084015261011560c0840152602460e08401526101009060d882850152610120608c8186015260b0610140860152607961016086015260c761018086015260a56101a08601526101286101c086015260da6101e086015260ed61020086015260a961022086015261010161024086015260c861026086015261011661028086015260176102a086015260876102c086015260236102e086015261011e610300860152604e610320860152601461034086015260c9610360860152610109610380860152606f6103a086015260ec6103c086015260476103e0860152603e61040086015261011261042086015260906104408601526013610460860152607061048086015260e86104a08601526101146104c0860152607d6104e0860152608a61050086015261011861052086015260ac610540860152606561056086015261010e61058086015260746105a086015260446105c086015260086105e08601526049610600860152605c6106208601526038610640860152608361066086015261013e61068086015260866106a086015260546106c086015260316106e0860152601a61070086015260076107208601526101376107408601526022610760860152600d610780860152602c6107a086015261011c6107c086015260be6107e0860152610800850152606661082085015260d2610840850152605f610860850152604661088085015261013a6108a085015261012e6108c085015260b96108e085015260c461090085015261010f610920850152605a610940850152609e610960850152610105610980850152609a6109a085015261013d6109c085015260516109e0850152606a610a008501526026610a20850152610106610a40850152601c610a60850152600a610a808501526097610aa08501526034610ac08501526011610ae08501526035610b0085015260e6610b208501526052610b408501526042610b608501526037610b8085015260eb610ba0850152605b610bc08501526043610be0850152608e610c0085015260f9610c20850152610113610c408501526089610c6085015260ea610c8085015260d1610ca085015261012d610cc08501526019610ce085015260df610d0085015260d0610d208501526032610d4085015260e0610d6085015260a0610d8085015260f0610da0850152606e610dc0850152600b610de085015260d3610e0085015261011a610e2085015260ba610e4085015260af610e6085015261012f610e80850152603c610ea0850152607c610ec085015261013b610ee0850152604c610f008501526009610f208501526033610f408501526027610f608501526068610f808501526056610fa08501526059610fc085015260bf610fe0850152608461100085015260ab61102085015260e461104085015260bc61106085015261010c61108085015261012a6110a0850152826110c08501526110e0840152605361110084015260e561112084015260e161114084015261011761116084015260f361118084015260fc6111a0840152603b6111c084015260ae6111e0840152605d611200840152605e61122084015260166112408401526095611260840152609c6112808401526101396112a0840152607f6112c084015260736112e084015260e261130084015260fe611320840152606161134084015260cb61136084015260c261138084015260036113a084015260a86113c084015260d46113e08401526050611400840152600e61142084015261012461144084015260816114608401528461148084015260f76114a084015260b66114c084015260d96114e0840152608561150084015260996115208401526092611540840152606d611560840152610110611580840152606c6115a08401526101046115c08401526101196115e084015261013461160084015260a3611620840152610132611640840152610131611660840152608b61168084015260b86116a084015260966116c084015260986116e0840152601d6117008401526075611720840152601261174084015260a261176084015260776117808401526101236117a084015260a66117c084015260786117e0840152606b61180084015260186118208401528361184084015260ce61186084015261010b61188084015261011d6118a0840152608f6118c08401526101026118e084015260fb611900840152600f61192084015260bd611940840152600261196084015260936119808401526101386119a08401526101366119c0840152602d6119e0840152609f611a008401526021611a20840152602f611a4084015260c0611a60840152610135611a8084015261012c611aa084015260ee611ac084015260d7611ae084015260c1611b0084015285611b20840152610108611b408401526028611b6084015260fd611b8084015260cd611ba08401526055611bc0840152610125611be084015260f5611c0084015260e7611c208401526036611c40840152608d611c60840152604d611c80840152609d611ca08401526071611cc0840152603f611ce0840152604f611d0084015260aa611d20840152610111611d40840152611d6083015260db611d80830152610130611da083015260a1611dc0830152601e611de083015260c3611e008301526039611e208301526060611e408301526064611e608301526005611e8083015260de611ea0830152610122611ec08301526082611ee083015260e9611f0083015260a4611f2083015261011f611f40830152610127611f608301526072611f80830152610107611fa08301526025611fc08301526067611fe08301526088612000830152604161202083015261010d61204083015260c56120608301526045612080830152603d6120a0830152602e6120c083015260a76120e08301526057612100830152604861212083015260cf61214083015261010a6121608301526101336121808301526101216121a0830152601b6121c083015260ad6121e0830152609b61220083015260f861222083015260b16122408301526006612260830152607a61228083015260046122a083015260946122c083015260b46122e08301526010612300830152607b612320830152604b61234083015260fa61236083015260c661238083015260636123a083015260dd6123c083015261011b6123e083015260ff612400830152602b612420830152601561244083015260d5612460830152602961248083015260916124a0830152602a6124c083015260b76124e08301526069612500830152607e612520830152603061254083015260dc61256083015260ca61258083015260cc6125a083015260ef6125c083015260f66125e083015260b561260083015260b3612620830152603a61264083015261012b61266083015260f461268083015260d66126a083015261013c6126c083015260586126e083015260e36127008301526076612720830152604a612740830152610129612760830152600c61278083015260f26127a083015260f16127c08301526007549161013f9283600755808410610ba5575b50906007855280852090855b848110610b9057878760326008556101c2600955600a55516110869081610e098239f35b835161ffff1683820155928101928501610b6c565b60078652828620610bba918101908501610df1565b38610b60565b634e487b7160e01b86526041600452602486fd5b0151905038806100fd565b8789528589208894509190601f1984168a5b88828210610c285750508411610c0f575b505050811b018455610111565b015160001960f88460031b161c19169055388080610c02565b8385015186558b97909501949384019301610bf1565b610c6590888a52868a208680860160051c820192898710610c6b575b0160051c0190610df1565b386100e9565b92508192610c5a565b634e487b7160e01b88526022600452602488fd5b90607f16906100d6565b634e487b7160e01b87526041600452602487fd5b0151905038806100a9565b898052868a208994509190601f1984168b5b89828210610cfa5750508411610ce1575b505050811b0186556100bd565b015160001960f88460031b161c19169055388080610cd4565b8385015186558c97909501949384019301610cc3565b610d36908a8052878b208780860160051c8201928a8710610c6b570160051c0190610df1565b38610095565b93607f1693610080565b634e487b7160e01b600052604160045260246000fd5b600080fd5b6040519190601f01601f191682016001600160401b03811183821017610d4657604052565b919080601f84011215610d5c5782516001600160401b038111610d4657602090610db8601f8201601f19168301610d61565b92818452828287010111610d5c5760005b818110610dde57508260009394955001015290565b8581018301518482018401528201610dc9565b818110610dfc575050565b60008155600101610df156fe608060408181526004918236101561001657600080fd5b600092833560e01c91826301ffc9a714610b475750816306fdde0314610a7a578163081812fc14610a3e578163095ea7b3146109615781631249c58b146105b057816318160ddd1461059157816323b872dd146105795781632a55205a146104d757816342842e0e146104a857816344d19d2b146104895781636352211e1461045857816370a082311461040357816395d89b41146102e6578163a22cb46514610244578163b88d4fde146101ab578163c87b56dd1461015957508063d5abeb011461013b5763e985e9c5146100eb57600080fd5b3461013757806003193601126101375760ff81602093610109610c0c565b610111610c27565b6001600160a01b0391821683526005875283832091168252855220549151911615158152f35b5080fd5b50346101375781600319360112610137576020906009549051908152f35b838334610137576020366003190112610137576101796101a79335610ed1565b5081815161018681610c72565b5280519161019383610c72565b825251918291602083526020830190610bcc565b0390f35b91905034610240576080366003190112610240576101c7610c0c565b6101cf610c27565b60443591856064359567ffffffffffffffff87116101375736602388011215610137578601359561020b61020288610cc6565b96519687610ca4565b8686523660248883010111610137578661023d976024602093018389013786010152610238838383610d2f565b610f0c565b80f35b8280fd5b9190503461024057806003193601126102405761025f610c0c565b90602435918215158093036102e2576001600160a01b03169283156102cd5750338452600560205280842083855260205280842060ff1981541660ff8416179055519081527f17307eab39ab6107e8899845ad3d59bd9653f200f220920489ca2b5937696c3160203392a380f35b836024925191630b61174360e31b8352820152fd5b8480fd5b82843461040057806003193601126104005781519181600192600154938460011c91600186169586156103f6575b60209687851081146103e3578899509688969785829a5291826000146103bc575050600114610360575b5050506101a79291610351910385610ca4565b51928284938452830190610bcc565b9190869350600183527fb10e2d527612073b26eecdfd717e6a320cf44b4afac2b0732d9fcbe2b7fa0cf65b8284106103a457505050820101816103516101a761033e565b8054848a01860152889550879490930192810161038b565b60ff19168782015293151560051b8601909301935084925061035191506101a7905061033e565b634e487b7160e01b835260228a52602483fd5b92607f1692610314565b80fd5b828434610400576020366003190112610400576001600160a01b03610426610c0c565b169283156104435750806020938392526003845220549051908152f35b91516322718ad960e21b815291820152602490fd5b828434610400576020366003190112610400575061047860209235610ed1565b90516001600160a01b039091168152f35b5050346101375781600319360112610137576020906008549051908152f35b5050346101375761023d906104bc36610c3d565b919251926104c984610c72565b858452610238838383610d2f565b83833461013757806003193601126101375760243591815182810181811067ffffffffffffffff821117610566578352600b549160018060a01b0392838116835260a01c9485602084015285810295818704149015171561055357815184519084166001600160a01b0316815261271086046020820152604090f35b634e487b7160e01b815260118652602490fd5b634e487b7160e01b835260418652602483fd5b83346104005761023d61058b36610c3d565b91610d2f565b505034610137578160031936011261013757602090600a549051908152f35b905034610240578260031936011261024057600260065414610953576002600655600a54600954111561091c578151916020928381019044825242838201523360601b6060820152605481526080810181811067ffffffffffffffff8211176109095783525190206007549081156108f6578190069061062f82610ce2565b919054600392831b1c92600019918281019081116108e35761065361065f91610ce2565b905490851b1c91610ce2565b838293925491861b92831b921b191617905560075480156108d057810161068581610ce2565b83825491861b1b19169055600755600a54600181018091116108bd57600a558351916106b083610c72565b87835233156108a65783885260028752848820546001600160a01b03168015159285929084610875575b5033808b52908952868a2080546001019055828a5260028952868a2080546001600160a01b03191682179055907fddf252ad1be2c89b69c2b068fc378daa952ba7f163c4a11628f55a4df523b3ef8a80a461085e57333b61073f575b85600160065580f35b8461077b9184959697945180938192630a85bd0160e11b96878452338b8501528860248501526044840152608060648401526084830190610bcc565b038186335af183918161081a575b506107e35750503d156107db573d6107a081610cc6565b906107ad84519283610ca4565b81528091853d92013e5b805193846107d5578251633250574960e11b81523381860152602490fd5b84925001fd5b5060606107b7565b9194506001600160e01b0319909116036108035750503880808080610736565b602492505190633250574960e11b82523390820152fd5b9091508681813d8311610857575b6108328183610ca4565b8101031261085357516001600160e01b031981168103610853579038610789565b8380fd5b503d610828565b82516339e3563760e11b8152808501879052602490fd5b600084815260046020526040902080546001600160a01b0319169055828b52818a52878b20908154019055386106da565b8451633250574960e11b8152808701899052602490fd5b634e487b7160e01b885260118652602488fd5b634e487b7160e01b885260318652602488fd5b634e487b7160e01b895260118752602489fd5b634e487b7160e01b865260128452602486fd5b634e487b7160e01b875260418552602487fd5b6020606492519162461bcd60e51b8352820152601260248201527113585e081cdd5c1c1b1e481c995858da195960721b6044820152fd5b9051633ee5aeb560e01b8152fd5b9190503461024057806003193601126102405761097c610c0c565b9160243561098981610ed1565b33151580610a2b575b80610a02575b6109ec576001600160a01b039485169482918691167f8c5be1e5ebec7d5bd14f71427d1e84f3dd0314c0f7b2291e5b200ac8c7c3b9258880a48452602052822080546001600160a01b031916909117905580f35b835163a9fbf51f60e01b81523381850152602490fd5b506001600160a01b03811686526005602090815284872033885290528386205460ff1615610998565b506001600160a01b038116331415610992565b90503461024057602036600319011261024057918260209335610a6081610ed1565b50825283528190205490516001600160a01b039091168152f35b8284346104005780600319360112610400578151918182549260018460011c9160018616958615610b3d575b60209687851081146103e3578899509688969785829a5291826000146103bc575050600114610ae2575050506101a79291610351910385610ca4565b91908693508280527f290decd9548b62a8d60345a988386fc84ba6bc95484008f6362f93160ef3e5635b828410610b2557505050820101816103516101a761033e565b8054848a018601528895508794909301928101610b0c565b92607f1692610aa6565b849134610240576020366003190112610240573563ffffffff60e01b8116809103610240576020925063152a902d60e11b8114908115610b89575b5015158152f35b6380ac58cd60e01b811491508115610bbb575b8115610baa575b5083610b82565b6301ffc9a760e01b14905083610ba3565b635b5e139f60e01b81149150610b9c565b919082519283825260005b848110610bf8575050826000602080949584010152601f8019910116010190565b602081830181015184830182015201610bd7565b600435906001600160a01b0382168203610c2257565b600080fd5b602435906001600160a01b0382168203610c2257565b6060906003190112610c22576001600160a01b03906004358281168103610c2257916024359081168103610c22579060443590565b6020810190811067ffffffffffffffff821117610c8e57604052565b634e487b7160e01b600052604160045260246000fd5b90601f8019910116810190811067ffffffffffffffff821117610c8e57604052565b67ffffffffffffffff8111610c8e57601f01601f191660200190565b600754811015610d195760076000527fa66cc928b5edb82af9bd49922954155ab7b0942694bea4ce44661d9a8736c6880190600090565b634e487b7160e01b600052603260045260246000fd5b6001600160a01b039182169290918315610eb857600092828452826020956002875260409684888820541696879133151580610e1f575b509060027fddf252ad1be2c89b69c2b068fc378daa952ba7f163c4a11628f55a4df523b3ef9284610dec575b858352600381528b8320805460010190558683525289812080546001600160a01b0319168517905580a41692838303610dcb5750505050565b6064945051926364283d7b60e01b8452600484015260248301526044820152fd5b600087815260046020526040902080546001600160a01b0319169055848352600381528b83208054600019019055610d92565b91939450915080610e77575b15610e3b57859291879138610d66565b878688610e58576024915190637e27328960e01b82526004820152fd5b905163177e802f60e01b81523360048201526024810191909152604490fd5b503387148015610e9c575b80610e2b5750858252600481523385898420541614610e2b565b5086825260058152878220338352815260ff8883205416610e82565b604051633250574960e11b815260006004820152602490fd5b6000818152600260205260409020546001600160a01b0316908115610ef4575090565b60249060405190637e27328960e01b82526004820152fd5b813b610f19575b50505050565b604051630a85bd0160e11b8082523360048301526001600160a01b03928316602483015260448201949094526080606482015260209592909116939092908390610f67906084830190610bcc565b039285816000958187895af1849181611010575b50610fdb575050503d600014610fd3573d610f9581610cc6565b90610fa36040519283610ca4565b81528091843d92013e5b80519283610fce57604051633250574960e11b815260048101849052602490fd5b019050fd5b506060610fad565b919450915063ffffffff60e01b1603610ff8575038808080610f13565b60249060405190633250574960e11b82526004820152fd5b9091508681813d8311611049575b6110288183610ca4565b810103126102e257516001600160e01b0319811681036102e2579038610f7b565b503d61101e56fea2646970667358221220e472e225c15dcf44476717c590ba683a6d68f0177ac3f0f575382a6ff304683b64736f6c63430008190033","linkReferences":{}},"methodIdentifiers":{"approve(address,uint256)":"095ea7b3","balanceOf(address)":"70a08231","getApproved(uint256)":"081812fc","isApprovedForAll(address,address)":"e985e9c5","maxSupply()":"d5abeb01","mint()":"1249c58b","name()":"06fdde03","ownerOf(uint256)":"6352211e","reservedSupply()":"44d19d2b","royaltyInfo(uint256,uint256)":"2a55205a","safeTransferFrom(address,address,uint256)":"42842e0e","safeTransferFrom(address,address,uint256,bytes)":"b88d4fde","setApprovalForAll(address,bool)":"a22cb465","supportsInterface(bytes4)":"01ffc9a7","symbol()":"95d89b41","tokenURI(uint256)":"c87b56dd","totalSupply()":"18160ddd","transferFrom(address,address,uint256)":"23b872dd"},"id":1}