{"abi":[{"type":"constructor","inputs":[{"name":"name_","type":"string","internalType":"string"},{"name":"symbol_","type":"string","internalType":"string"}],"stateMutability":"nonpayable"},{"type":"function","name":"approve","inputs":[{"name":"to","type":"address","internalType":"address"},{"name":"tokenId","type":"uint256","internalType":"uint256"}],"outputs":[],"stateMutability":"nonpayable"},{"type":"function","name":"balanceOf","inputs":[{"name":"owner","type":"address","internalType":"address"}],"outputs":[{"name":"","type":"uint256","internalType":"uint256"}],"stateMutability":"view"},{"type":"function","name":"getApproved","inputs":[{"name":"tokenId","type":"uint256","internalType":"uint256"}],"outputs":[{"name":"","type":"address","internalType":"address"}],"stateMutability":"view"},{"type":"function","name":"isApprovedForAll","inputs":[{"name":"owner","type":"address","internalType":"address"},{"name":"operator","type":"address","internalType":"address"}],"outputs":[{"name":"","type":"bool","internalType":"bool"}],"stateMutability":"view"},{"type":"function","name":"maxSupply","inputs":[],"outputs":[{"name":"","type":"uint256","internalType":"uint256"}],"stateMutability":"view"},{"type":"function","name":"merkleRoot","inputs":[],"outputs":[{"name":"","type":"bytes32","internalType":"bytes32"}],"stateMutability":"view"},{"type":"function","name":"mint","inputs":[],"outputs":[],"stateMutability":"nonpayable"},{"type":"function","name":"mintWithCode","inputs":[{"name":"_merkleProof","type":"bytes32[]","internalType":"bytes32[]"},{"name":"_code","type":"string","internalType":"string"}],"outputs":[],"stateMutability":"nonpayable"},{"type":"function","name":"name","inputs":[],"outputs":[{"name":"","type":"string","internalType":"string"}],"stateMutability":"view"},{"type":"function","name":"ownerOf","inputs":[{"name":"tokenId","type":"uint256","internalType":"uint256"}],"outputs":[{"name":"","type":"address","internalType":"address"}],"stateMutability":"view"},{"type":"function","name":"reservedSupply","inputs":[],"outputs":[{"name":"","type":"uint256","internalType":"uint256"}],"stateMutability":"view"},{"type":"function","name":"royaltyInfo","inputs":[{"name":"tokenId","type":"uint256","internalType":"uint256"},{"name":"salePrice","type":"uint256","internalType":"uint256"}],"outputs":[{"name":"","type":"address","internalType":"address"},{"name":"","type":"uint256","internalType":"uint256"}],"stateMutability":"view"},{"type":"function","name":"safeTransferFrom","inputs":[{"name":"from","type":"address","internalType":"address"},{"name":"to","type":"address","internalType":"address"},{"name":"tokenId","type":"uint256","internalType":"uint256"}],"outputs":[],"stateMutability":"nonpayable"},{"type":"function","name":"safeTransferFrom","inputs":[{"name":"from","type":"address","internalType":"address"},{"name":"to","type":"address","internalType":"address"},{"name":"tokenId","type":"uint256","internalType":"uint256"},{"name":"data","type":"bytes","internalType":"bytes"}],"outputs":[],"stateMutability":"nonpayable"},{"type":"function","name":"setApprovalForAll","inputs":[{"name":"operator","type":"address","internalType":"address"},{"name":"approved","type":"bool","internalType":"bool"}],"outputs":[],"stateMutability":"nonpayable"},{"type":"function","name":"supportsInterface","inputs":[{"name":"interfaceId","type":"bytes4","internalType":"bytes4"}],"outputs":[{"name":"","type":"bool","internalType":"bool"}],"stateMutability":"view"},{"type":"function","name":"symbol","inputs":[],"outputs":[{"name":"","type":"string","internalType":"string"}],"stateMutability":"view"},{"type":"function","name":"tokenURI","inputs":[{"name":"tokenId","type":"uint256","internalType":"uint256"}],"outputs":[{"name":"","type":"string","internalType":"string"}],"stateMutability":"view"},{"type":"function","name":"totalSupply","inputs":[],"outputs":[{"name":"","type":"uint256","internalType":"uint256"}],"stateMutability":"view"},{"type":"function","name":"transferFrom","inputs":[{"name":"from","type":"address","internalType":"address"},{"name":"to","type":"address","internalType":"address"},{"name":"tokenId","type":"uint256","internalType":"uint256"}],"outputs":[],"stateMutability":"nonpayable"},{"type":"function","name":"usedCodes","inputs":[{"name":"","type":"bytes32","internalType":"bytes32"}],"outputs":[{"name":"","type":"bool","internalType":"bool"}],"stateMutability":"view"},{"type":"event","name":"Approval","inputs":[{"name":"owner","type":"address","indexed":true,"internalType":"address"},{"name":"approved","type":"address","indexed":true,"internalType":"address"},{"name":"tokenId","type":"uint256","indexed":true,"internalType":"uint256"}],"anonymous":false},{"type":"event","name":"ApprovalForAll","inputs":[{"name":"owner","type":"address","indexed":true,"internalType":"address"},{"name":"operator","type":"address","indexed":true,"internalType":"address"},{"name":"approved","type":"bool","indexed":false,"internalType":"bool"}],"anonymous":false},{"type":"event","name":"Transfer","inputs":[{"name":"from","type":"address","indexed":true,"internalType":"address"},{"name":"to","type":"address","indexed":true,"internalType":"address"},{"name":"tokenId","type":"uint256","indexed":true,"internalType":"uint256"}],"anonymous":false},{"type":"error","name":"ERC2981InvalidDefaultRoyalty","inputs":[{"name":"numerator","type":"uint256","internalType":"uint256"},{"name":"denominator","type":"uint256","internalType":"uint256"}]},{"type":"error","name":"ERC2981InvalidDefaultRoyaltyReceiver","inputs":[{"name":"receiver","type":"address","internalType":"address"}]},{"type":"error","name":"ERC2981InvalidTokenRoyalty","inputs":[{"name":"tokenId","type":"uint256","internalType":"uint256"},{"name":"numerator","type":"uint256","internalType":"uint256"},{"name":"denominator","type":"uint256","internalType":"uint256"}]},{"type":"error","name":"ERC2981InvalidTokenRoyaltyReceiver","inputs":[{"name":"tokenId","type":"uint256","internalType":"uint256"},{"name":"receiver","type":"address","internalType":"address"}]},{"type":"error","name":"ERC721IncorrectOwner","inputs":[{"name":"sender","type":"address","internalType":"address"},{"name":"tokenId","type":"uint256","internalType":"uint256"},{"name":"owner","type":"address","internalType":"address"}]},{"type":"error","name":"ERC721InsufficientApproval","inputs":[{"name":"operator","type":"address","internalType":"address"},{"name":"tokenId","type":"uint256","internalType":"uint256"}]},{"type":"error","name":"ERC721InvalidApprover","inputs":[{"name":"approver","type":"address","internalType":"address"}]},{"type":"error","name":"ERC721InvalidOperator","inputs":[{"name":"operator","type":"address","internalType":"address"}]},{"type":"error","name":"ERC721InvalidOwner","inputs":[{"name":"owner","type":"address","internalType":"address"}]},{"type":"error","name":"ERC721InvalidReceiver","inputs":[{"name":"receiver","type":"address","internalType":"address"}]},{"type":"error","name":"ERC721InvalidSender","inputs":[{"name":"sender","type":"address","internalType":"address"}]},{"type":"error","name":"ERC721NonexistentToken","inputs":[{"name":"tokenId","type":"uint256","internalType":"uint256"}]},{"type":"error","name":"ReentrancyGuardReentrantCall","inputs":[]}],"bytecode":{"object":"0x604060808152346113bc576127ae8038038061001a816113c1565b92833981019082818303126113bc5780516001600160401b03908181116113bc57836100479184016113e6565b91602093848201518381116113bc5761006092016113e6565b9282519180831161123b576002948554936001958686811c961680156113b2575b858710146112f6578190601f96878111611384575b50859087831160011461132157600092611316575b5050600019600383901b1c191690861b1786555b805182811161123b576003918254908782811c9216801561130c575b868310146112f65781878493116112be575b50859087831160011461125c57600092611251575b505060001982841b1c191690861b1781555b846008557fd93cc992f7664fad08565ac8e528121f35916c72b1ab662873a344f5e4bfcdc3600955865191613e808301908382109082111761123b578752610154825260a7838301526101a7878301526101f2606083015260a8608083015260a960a083015261015060c08301526101d060e08301526101009360398584015261012060b781850152610140906101b9828601526101609361014d85870152610180936101a8858801526101a09061015d828901526101c09560fb878a01526101e092602a848b0152609e6102008b0152606c6102208b015260f16102408b01526101eb6102608b01526101d76102808b01526101c76102a08b015261018e6102c08b0152607e6102e08b01526101e46103008b01526101976103208b01526101af6103408b015260d26103608b01526101b86103808b015260916103a08b01526101316103c08b015260296103e08b015260ee6104008b015260ac6104208b01526101906104408b015260376104608b015260af6104808b01526101bf6104a08b015260426104c08b015261019b6104e08b01526101db6105008b01526101836105208b015260ae6105408b015260526105608b01526101996105808b0152604b6105a08b015261018f6105c08b01526101236105e08b01526101e26106008b015260eb6106208b015260cb6106408b015260b06106608b015260266106808b01526101e96106a08b015260f56106c08b01528a6106e08b015260986107008b015260a26107208b015261016b6107408b01526101166107608b01526101b36107808b015260f76107a08b0152609c6107c08b015260856107e08b015260b46108008b015260096108208b01526101556108408b015260716108608b015260606108808b015260d36108a08b015260186108c08b015260de6108e08b01526109008a01526101ba6109208a0152600c6109408a0152605d6109608a015260966109808a015260db6109a08a015260ab6109c08a015261012c6109e08a01526101a5610a008a0152605a610a208a015261017d610a408a0152605c610a608a01526101c8610a808a0152610147610aa08a015261010f610ac08a0152610188610ae08a01526062610b008a0152610177610b208a015260fa610b408a0152610130610b608a01526101d9610b808a01526086610ba08a015260e6610bc08a0152610108610be08a0152607b610c008a01526036610c208a01526097610c408a01526101cd610c608a0152610162610c808a015261010b610ca08a015260f9610cc08a01526093610ce08a01526073610d008a0152607d610d208a015261019e610d408a015261016c610d608a0152610111610d808a0152610da089015260aa610dc089015260ed610de08901526101ef610e008901526056610e2089015261013c610e4089015261011a610e60890152610102610e808901526033610ea08901526101c29b8c610ec08a0152610189610ee08a01526010610f008a015261011d610f208a01526101ac610f408a015260ea610f608a015260b5610f808a0152610103610fa08a015261015b610fc08a0152610125610fe08a015260556110008a0152603b6110208a01526101b56110408a015260506110608a01526101706110808a015261014b6110a08a015260886110c08a0152603c6110e08a015261010c6111008a01526101286111208a01526101ab6111408a0152600e6111608a0152608f6111808a015260b86111a08a015260e96111c08a015260486111e08a015261010e6112008a015260576112208a015260e36112408a015260636112608a015260be6112808a0152608e6112a08a01526101756112c08a01526101066112e08a01526101666113008a01526101596113208a01526101736113408a015261136089015260146113808901526101876113a089015260c56113c089015261014a6113e0890152602d611400890152603d611420890152610167611440890152604f6114608901526064611480890152606b6114a089015260f46114c089015260a66114e08901526101ca611500890152610163611520890152610133611540890152609d6115608901526115808801526101bd6115a088015260386115c08801526101846115e088015260696116008801526101a461162088015260f8611640880152610151611660880152605461168088015260156116a08801526116c087015260ec6116e087015260dc61170087015261013b611720870152603e611740870152607a611760870152609b61178087015260d56117a087015261013d6117c087015260ad6117e087015261012f61180087015261019561182087015260cc611840870152607661186087015261017a61188087015260e76118a08701526118c086015260956118e086015261013f61190086015260d66119208601526101ad61194086015261011261196086015261014f61198086015260076119a0860152604e6119c086015260d96119e08601526024611a008601526068611a208601526101d2611a40860152610171611a6086015261014e611a808601526101b7611aa0860152608d611ac086015260b2611ae08601526021611b008601526045611b208601526023611b40860152610174611b6086015261017e611b80860152610113611ba086015260fe611bc0860152610192611be086015260fd611c00860152602c611c20860152610165611c408601526101f0611c608601526101b0611c8086015260d1611ca08601526101cb611cc0860152610181611ce0860152610186611d00860152601d611d20860152610136611d408601526017611d6086015260a3611d8086015261012a611da08601526058611dc086015261018a611de0860152610110611e0086015261013a611e208601526067611e408601526053611e60860152610149611e8086015260c0611ea086015260cf611ec0860152610178611ee086015260f0611f0086015260bc611f2086015260b9611f40860152602f611f608601526083611f80860152610115611fa08601526101e5611fc086015260e2611fe0860152610143612000860152604961202086015260d4612040860152608961206086015260bb61208086015261011e6120a08601526101416120c0860152601c6120e08601526004612100860152606161212086015260a46121408601526101046121608601526101c46121808601526101946121a08601526101576121c086015260666121e086015260816122008601526101bc612220860152610158612240860152603161226086015261016f6122808601526101ae6122a0860152606d6122c08601526101b16122e08601526051612300860152609461232086015261014c61234086015261013761236086015260ce61238086015260bd6123a08601526101326123c086015260c86123e08601526019612400860152604d61242086015260826124408601526101da61246086015260726124808601526101766124a08601526101c66124c086015261015e6124e08601526101dd6125008601526101466125208601526101bb61254086015261016861256086015261017261258086015261015a6125a086015261019a6125c08601526101e66125e08601526101196126008601526101f36126208601526059612640860152603f612660860152603561268086015260b16126a086015260466126c08601526101426126e086015261019661270086015260e061272086015261017c612740860152601e61276086015261011f61278086015261017b6127a086015260116127c086015260da6127e08601526087612800860152605e6128208601526101146128408601526101a661286086015261288085015260dd6128a085015261016a6128c085015260926128e0850152607f61290085015260416129208501526101d36129408501526090612960850152603461298085015261018b6129a08501526101a16129c08501526101526129e085015260f2612a00850152604a612a208501526101e8612a4085015260c4612a608501526008612a80850152603a612aa0850152610134612ac08501526101ce612ae0850152612b008401526043612b208401526077612b40840152605b612b608401526101ea612b808401526101b2612ba0840152610101612bc084015261013e612be0840152604c612c0084015261011b612c2084015261010a612c4084015260ba612c608401526101df612c80840152609f612ca0840152610198612cc084015260cd612ce08401526030612d0084015261017f612d208401526101c5612d40840152610124612d608401526028612d808401526080612da08401526044612dc0840152610164612de0840152610126612e00840152610153612e2084015260b3612e40840152602b612e608401526101cf612e808401526027612ea0840152601b612ec08401526101d6612ee08401526101e3612f00840152610118612f2084015261018c612f408401526101d5612f6084015261010d612f808401526075612fa0840152610156612fc0840152610129612fe0840152605f61300084015260166130208401526101e761304084015261018d61306084015261013561308084015260df6130a08401526101936130c08401526101dc6130e08401526131008301526101f1613120830152600a61314083015260c16131608301526101d161318083015260a06131a08301526101456131c083015260e46131e0830152606a613200830152606e61322083015260a561324083015260c76132608301526101396132808301526101176132a08301526101a36132c0830152607c6132e0830152602e613300830152609a6133208301526101b661334083015260c96133608301528461338083015260056133a083015260c36133c08301526101cc6133e083015261011c61340083015260e861342083015260d0613440830152608c61346083015261016161348083015261019f6134a083015260ca6134c083015260706134e0830152600f6135008301526084613520830152610121613540830152601a613560830152606f61358083015261019d6135a08301526101d86135c083015261012d6135e083015260136136008301526136208201526101a96136408201526101c36136608201526101056136808201526101696136a08201526101ee6136c082015260746136e082015260d86137008201526101c961372082015260f66137408201526101c1613760820152608b613780820152600d6137a0820152608a6137c08201526101b46137e08201526025613800820152600b61382082015260a161384082015260476138608201526101386138808201526101446138a08201526101de6138c082015260796138e08201526101276139008201526101ec61392082015260226139408201526101e1613960820152600661398082015260ef6139a08201526101486139c082015260c26139e082015261016e613a008201526032613a2082015285613a408201526101be613a6082015261019c613a80820152610109613aa08201526099613ac08201526012613ae08201526101d4613b00820152610179613b20820152610191613b4082015260c6613b6082015260f3613b808201526078613ba08201526101ed613bc082015261015f613be082015260ff613c0082015260e5613c208201526101f49283613c4083015260b6613c6083015260bf613c8083015261015c613ca0830152610185613cc0830152610107613ce083015260fc613d008301526101a2613d2083015261016d613d4083015261012e613d60830152610182613d808301526065613da083015260e1613dc083015261012b613de0830152610122613e0083015260d7613e20830152613e408201526101aa613e60820152600a5483600a5580841061121d575b5090600a600052806000209060005b8481106112085787876032600c55600e555161134590816114698239f35b835161ffff16838201559281019285016111ea565b61123590600a60005284846000209182019101611451565b386111db565b634e487b7160e01b600052604160045260246000fd5b015190503880610102565b90889350601f1983169185600052876000209260005b898282106112a85750508411611290575b505050811b018155610114565b015160001983861b60f8161c19169055388080611283565b8385015186558c97909501949384019301611272565b6112e79085600052876000208980860160051c8201928a87106112ed575b0160051c0190611451565b386100ed565b925081926112dc565b634e487b7160e01b600052602260045260246000fd5b91607f16916100db565b0151905038806100ab565b90889350601f198316918a600052876000209260005b8982821061136e5750508411611355575b505050811b0186556100bf565b015160001960f88460031b161c19169055388080611348565b8385015186558c97909501949384019301611337565b6113ac908a600052876000208980860160051c8201928a87106112ed570160051c0190611451565b38610096565b95607f1695610081565b600080fd5b6040519190601f01601f191682016001600160401b0381118382101761123b57604052565b919080601f840112156113bc5782516001600160401b03811161123b57602090611418601f8201601f191683016113c1565b928184528282870101116113bc5760005b81811061143e57508260009394955001015290565b8581018301518482018401528201611429565b81811061145c575050565b6000815560010161145156fe608060408181526004918236101561001657600080fd5b600092833560e01c91826301ffc9a714610b3a5750816306fdde0314610a6b578163081812fc14610a2e578163095ea7b31461094b5781631249c58b146108c357816318160ddd146108a457816323b872dd1461088c5781632a55205a146107c05781632eb4a7ab146107a157816342842e0e1461077257816344d19d2b146107535781636352211e1461072257816370a08231146106cd578163904077a0146106a057816395d89b4114610584578163a22cb465146104e2578163b88d4fde1461044d578163bcd875fe146101cc578163c87b56dd1461017a57508063d5abeb011461015c5763e985e9c51461010c57600080fd5b3461015857806003193601126101585760ff8160209361012a610bff565b610132610c1a565b6001600160a01b0391821683526007875283832091168252855220549151911615158152f35b5080fd5b5034610158578160031936011261015857602090600e549051908152f35b8383346101585760203660031901126101585761019a6101c89335610f46565b508181516101a781610c97565b528051916101b483610c97565b825251918291602083526020830190610bbf565b0390f35b9190503461044957806003193601126104495767ffffffffffffffff9282358481116101585736602382011215610158578084013593858511610449576024906005918660051b978189860101903682116104455782359080821161044157366023830112156104415781850135908111610441573684828401011161044157610254610f81565b610263600d54600e5411610cf1565b600c54156103ff5788516020969594939287820192610298918991849181908901873781018c83820152038084520182610cb3565b51902095868852600b865260ff89892054166103c957600954996102c0878b519d018d610cb3565b8b52820185808c015b8383106103b957505050508486955b8a518710156103135786851b8b018601519081811015610304578852855260018888205b9601956102d8565b908852855260018888206102fc565b87945088918a879203610388578552600b90528320805460ff19166001179055600c54600019810192908311610377575050600c5561036f610362600d5461035a81610d32565b600d55610d57565b90549060031b1c33610fa4565b600160085580f35b634e487b7160e01b84526011905282fd5b825162461bcd60e51b8152808601839052600c818601526b496e76616c696420636f646560a01b6044820152606490fd5b82358152918101918791016102c9565b885162461bcd60e51b81528085018790526011818501527010dbd91948185b1c9958591e481d5cd959607a1b6044820152606490fd5b885162461bcd60e51b81526020818701526017818601527f4e6f20726573657276656420737570706c79206c6566740000000000000000006044820152606490fd5b8780fd5b8680fd5b8280fd5b9190503461044957608036600319011261044957610469610bff565b610471610c1a565b60443591856064359567ffffffffffffffff8711610158573660238801121561015857860135956104ad6104a488610cd5565b96519687610cb3565b868652366024888301011161015857866104df9760246020930183890137860101526104da838383610da4565b6111cb565b80f35b919050346104495780600319360112610449576104fd610bff565b9060243591821515809303610580576001600160a01b031692831561056b5750338452600760205280842083855260205280842060ff1981541660ff8416179055519081527f17307eab39ab6107e8899845ad3d59bd9653f200f220920489ca2b5937696c3160203392a380f35b836024925191630b61174360e31b8352820152fd5b8480fd5b82843461069d578060031936011261069d57815191816003549260018460011c9160018616958615610693575b6020968785108114610680578899509688969785829a5291826000146106595750506001146105fd575b5050506101c892916105ee910385610cb3565b51928284938452830190610bbf565b9190869350600383527fc2575a0e9e593c00f959f8c92f12db2869c3395a3b0502d05e2516446f71f85b5b82841061064157505050820101816105ee6101c86105db565b8054848a018601528895508794909301928101610628565b60ff19168782015293151560051b860190930193508492506105ee91506101c890506105db565b634e487b7160e01b835260228a52602483fd5b92607f16926105b1565b80fd5b905034610449576020366003190112610449578160209360ff92358152600b855220541690519015158152f35b82843461069d57602036600319011261069d576001600160a01b036106f0610bff565b1692831561070d5750806020938392526005845220549051908152f35b91516322718ad960e21b815291820152602490fd5b82843461069d57602036600319011261069d575061074260209235610f46565b90516001600160a01b039091168152f35b505034610158578160031936011261015857602090600c549051908152f35b505034610158576104df9061078636610c30565b9192519261079384610c97565b8584526104da838383610da4565b5050346101585781600319360112610158576020906009549051908152f35b83833461015857806003193601126101585760243591833581526001602052818120908251916107ef83610c65565b546001600160a01b0380821680855260a09290921c60208501529291901561086a575b6bffffffffffffffffffffffff6020830151169485810295818704149015171561085757815184519084166001600160a01b0316815261271086046020820152604090f35b634e487b7160e01b815260118652602490fd5b9050825161087781610c65565b8154838116825260a01c602082015290610812565b833461069d576104df61089e36610c30565b91610da4565b505034610158578160031936011261015857602090600d549051908152f35b9050346104495782600319360112610449576108dd610f81565b600d54916108ee600e548410610cf1565b600c548310610908578361036f6103628561035a81610d32565b906020606492519162461bcd60e51b8352820152601d60248201527f526573657276656420737570706c79206e6f74206578686175737465640000006044820152fd5b91905034610449578060031936011261044957610966610bff565b916024359061097482610f46565b9033151580610a1b575b806109f2575b6109db57506001600160a01b039384169382918591167f8c5be1e5ebec7d5bd14f71427d1e84f3dd0314c0f7b2291e5b200ac8c7c3b9258780a483526006602052822080546001600160a01b031916909117905580f35b60249084519063a9fbf51f60e01b82523390820152fd5b506001600160a01b03821686526007602090815284872033885290528386205460ff1615610984565b506001600160a01b03821633141561097e565b905034610449576020366003190112610449579160209235610a4f81610f46565b508152600683528190205490516001600160a01b039091168152f35b82843461069d578060031936011261069d57815191816002549260018460011c9160018616958615610b30575b6020968785108114610680578899509688969785829a529182600014610659575050600114610ad4575050506101c892916105ee910385610cb3565b9190869350600283527f405787fa12a823e0f2b7631cc41b3ba8828b3321ca811111fa75cd3aa3bb5ace5b828410610b1857505050820101816105ee6101c86105db565b8054848a018601528895508794909301928101610aff565b92607f1692610a98565b849134610449576020366003190112610449573563ffffffff60e01b811680910361044957602092506380ac58cd60e01b8114908115610bae575b8115610b83575b5015158152f35b63152a902d60e11b811491508115610b9d575b5083610b7c565b6301ffc9a760e01b14905083610b96565b635b5e139f60e01b81149150610b75565b919082519283825260005b848110610beb575050826000602080949584010152601f8019910116010190565b602081830181015184830182015201610bca565b600435906001600160a01b0382168203610c1557565b600080fd5b602435906001600160a01b0382168203610c1557565b6060906003190112610c15576001600160a01b03906004358281168103610c1557916024359081168103610c15579060443590565b6040810190811067ffffffffffffffff821117610c8157604052565b634e487b7160e01b600052604160045260246000fd5b6020810190811067ffffffffffffffff821117610c8157604052565b90601f8019910116810190811067ffffffffffffffff821117610c8157604052565b67ffffffffffffffff8111610c8157601f01601f191660200190565b15610cf857565b60405162461bcd60e51b815260206004820152601260248201527113585e081cdd5c1c1b1e481c995858da195960721b6044820152606490fd5b6000198114610d415760010190565b634e487b7160e01b600052601160045260246000fd5b600a54811015610d8e57600a6000527fc65a7bb8d6351c1cf70c95a316cc6a92839c986682d98bc35f958f4883f9d2a80190600090565b634e487b7160e01b600052603260045260246000fd5b6001600160a01b039182169290918315610f2d57600092828452826020956004875260409684888820541696879133151580610e94575b509060047fddf252ad1be2c89b69c2b068fc378daa952ba7f163c4a11628f55a4df523b3ef9284610e61575b858352600581528b8320805460010190558683525289812080546001600160a01b0319168517905580a41692838303610e405750505050565b6064945051926364283d7b60e01b8452600484015260248301526044820152fd5b600087815260066020526040902080546001600160a01b0319169055848352600581528b83208054600019019055610e07565b91939450915080610eec575b15610eb057859291879138610ddb565b878688610ecd576024915190637e27328960e01b82526004820152fd5b905163177e802f60e01b81523360048201526024810191909152604490fd5b503387148015610f11575b80610ea05750858252600681523385898420541614610ea0565b5086825260078152878220338352815260ff8883205416610ef7565b604051633250574960e11b815260006004820152602490fd5b6000818152600460205260409020546001600160a01b0316908115610f69575090565b60249060405190637e27328960e01b82526004820152fd5b600260085414610f92576002600855565b604051633ee5aeb560e01b8152600490fd5b6040805190610fb282610c97565b60008083526001600160a01b03948486169384156111b357818352600495602097878952858520541683878215159283611180575b81885260058c52888820805460010190558288528a8c5288882080546001600160a01b031916831790557fddf252ad1be2c89b69c2b068fc378daa952ba7f163c4a11628f55a4df523b3ef8880a4611169573b611048575b50505050505050565b8661108691859697989994955180938192630a85bd0160e11b96878452338d8501528960248501526044840152608060648401526084830190610bbf565b0381878a5af1849181611129575b506110f2575050503d6000146110ea573d6110ae81610cd5565b906110bb84519283610cb3565b81528091863d92013e5b805194856110e457505051633250574960e11b81529182015260249150fd5b85925001fd5b5060606110c5565b919650915063ffffffff60e01b1603611114575050503880808080808061103f565b51633250574960e11b81529182015260249150fd5b9091508881813d8311611162575b6111418183610cb3565b8101031261058057516001600160e01b031981168103610580579038611094565b503d611137565b84516339e3563760e11b8152808801859052602490fd5b600083815260066020526040902080546001600160a01b031916905580885260058c528888208054600019019055610fe7565b8351633250574960e11b815260048101849052602490fd5b813b6111d8575b50505050565b604051630a85bd0160e11b8082523360048301526001600160a01b03928316602483015260448201949094526080606482015260209592909116939092908390611226906084830190610bbf565b039285816000958187895af18491816112cf575b5061129a575050503d600014611292573d61125481610cd5565b906112626040519283610cb3565b81528091843d92013e5b8051928361128d57604051633250574960e11b815260048101849052602490fd5b019050fd5b50606061126c565b919450915063ffffffff60e01b16036112b75750388080806111d2565b60249060405190633250574960e11b82526004820152fd5b9091508681813d8311611308575b6112e78183610cb3565b8101031261058057516001600160e01b03198116810361058057903861123a565b503d6112dd56fea264697066735822122078101f059218cb39f3793e365193422b968a3b6a0f1bfc2cde57b5adffcb5cb164736f6c63430008190033","linkReferences":{}},"methodIdentifiers":{"approve(address,uint256)":"095ea7b3","balanceOf(address)":"70a08231","getApproved(uint256)":"081812fc","isApprovedForAll(address,address)":"e985e9c5","maxSupply()":"d5abeb01","merkleRoot()":"2eb4a7ab","mint()":"1249c58b","mintWithCode(bytes32[],string)":"bcd875fe","name()":"06fdde03","ownerOf(uint256)":"6352211e","reservedSupply()":"44d19d2b","royaltyInfo(uint256,uint256)":"2a55205a","safeTransferFrom(address,address,uint256)":"42842e0e","safeTransferFrom(address,address,uint256,bytes)":"b88d4fde","setApprovalForAll(address,bool)":"a22cb465","supportsInterface(bytes4)":"01ffc9a7","symbol()":"95d89b41","tokenURI(uint256)":"c87b56dd","totalSupply()":"18160ddd","transferFrom(address,address,uint256)":"23b872dd","usedCodes(bytes32)":"904077a0"},"id":1}