{"abi":[{"type":"constructor","inputs":[{"name":"name_","type":"string","internalType":"string"},{"name":"symbol_","type":"string","internalType":"string"}],"stateMutability":"nonpayable"},{"type":"function","name":"approve","inputs":[{"name":"to","type":"address","internalType":"address"},{"name":"tokenId","type":"uint256","internalType":"uint256"}],"outputs":[],"stateMutability":"nonpayable"},{"type":"function","name":"balanceOf","inputs":[{"name":"owner","type":"address","internalType":"address"}],"outputs":[{"name":"","type":"uint256","internalType":"uint256"}],"stateMutability":"view"},{"type":"function","name":"getApproved","inputs":[{"name":"tokenId","type":"uint256","internalType":"uint256"}],"outputs":[{"name":"","type":"address","internalType":"address"}],"stateMutability":"view"},{"type":"function","name":"isApprovedForAll","inputs":[{"name":"owner","type":"address","internalType":"address"},{"name":"operator","type":"address","internalType":"address"}],"outputs":[{"name":"","type":"bool","internalType":"bool"}],"stateMutability":"view"},{"type":"function","name":"maxSupply","inputs":[],"outputs":[{"name":"","type":"uint256","internalType":"uint256"}],"stateMutability":"view"},{"type":"function","name":"mint","inputs":[],"outputs":[],"stateMutability":"nonpayable"},{"type":"function","name":"name","inputs":[],"outputs":[{"name":"","type":"string","internalType":"string"}],"stateMutability":"view"},{"type":"function","name":"ownerOf","inputs":[{"name":"tokenId","type":"uint256","internalType":"uint256"}],"outputs":[{"name":"","type":"address","internalType":"address"}],"stateMutability":"view"},{"type":"function","name":"reservedMint","inputs":[{"name":"signature","type":"bytes","internalType":"bytes"}],"outputs":[],"stateMutability":"nonpayable"},{"type":"function","name":"reservedSupply","inputs":[],"outputs":[{"name":"","type":"uint256","internalType":"uint256"}],"stateMutability":"view"},{"type":"function","name":"royaltyInfo","inputs":[{"name":"tokenId","type":"uint256","internalType":"uint256"},{"name":"salePrice","type":"uint256","internalType":"uint256"}],"outputs":[{"name":"","type":"address","internalType":"address"},{"name":"","type":"uint256","internalType":"uint256"}],"stateMutability":"view"},{"type":"function","name":"safeTransferFrom","inputs":[{"name":"from","type":"address","internalType":"address"},{"name":"to","type":"address","internalType":"address"},{"name":"tokenId","type":"uint256","internalType":"uint256"}],"outputs":[],"stateMutability":"nonpayable"},{"type":"function","name":"safeTransferFrom","inputs":[{"name":"from","type":"address","internalType":"address"},{"name":"to","type":"address","internalType":"address"},{"name":"tokenId","type":"uint256","internalType":"uint256"},{"name":"data","type":"bytes","internalType":"bytes"}],"outputs":[],"stateMutability":"nonpayable"},{"type":"function","name":"setApprovalForAll","inputs":[{"name":"operator","type":"address","internalType":"address"},{"name":"approved","type":"bool","internalType":"bool"}],"outputs":[],"stateMutability":"nonpayable"},{"type":"function","name":"supportsInterface","inputs":[{"name":"interfaceId","type":"bytes4","internalType":"bytes4"}],"outputs":[{"name":"","type":"bool","internalType":"bool"}],"stateMutability":"view"},{"type":"function","name":"symbol","inputs":[],"outputs":[{"name":"","type":"string","internalType":"string"}],"stateMutability":"view"},{"type":"function","name":"tokenURI","inputs":[{"name":"tokenId","type":"uint256","internalType":"uint256"}],"outputs":[{"name":"","type":"string","internalType":"string"}],"stateMutability":"view"},{"type":"function","name":"totalSupply","inputs":[],"outputs":[{"name":"","type":"uint256","internalType":"uint256"}],"stateMutability":"view"},{"type":"function","name":"transferFrom","inputs":[{"name":"from","type":"address","internalType":"address"},{"name":"to","type":"address","internalType":"address"},{"name":"tokenId","type":"uint256","internalType":"uint256"}],"outputs":[],"stateMutability":"nonpayable"},{"type":"event","name":"Approval","inputs":[{"name":"owner","type":"address","indexed":true,"internalType":"address"},{"name":"approved","type":"address","indexed":true,"internalType":"address"},{"name":"tokenId","type":"uint256","indexed":true,"internalType":"uint256"}],"anonymous":false},{"type":"event","name":"ApprovalForAll","inputs":[{"name":"owner","type":"address","indexed":true,"internalType":"address"},{"name":"operator","type":"address","indexed":true,"internalType":"address"},{"name":"approved","type":"bool","indexed":false,"internalType":"bool"}],"anonymous":false},{"type":"event","name":"Transfer","inputs":[{"name":"from","type":"address","indexed":true,"internalType":"address"},{"name":"to","type":"address","indexed":true,"internalType":"address"},{"name":"tokenId","type":"uint256","indexed":true,"internalType":"uint256"}],"anonymous":false},{"type":"error","name":"ECDSAInvalidSignature","inputs":[]},{"type":"error","name":"ECDSAInvalidSignatureLength","inputs":[{"name":"length","type":"uint256","internalType":"uint256"}]},{"type":"error","name":"ECDSAInvalidSignatureS","inputs":[{"name":"s","type":"bytes32","internalType":"bytes32"}]},{"type":"error","name":"ERC2981InvalidDefaultRoyalty","inputs":[{"name":"numerator","type":"uint256","internalType":"uint256"},{"name":"denominator","type":"uint256","internalType":"uint256"}]},{"type":"error","name":"ERC2981InvalidDefaultRoyaltyReceiver","inputs":[{"name":"receiver","type":"address","internalType":"address"}]},{"type":"error","name":"ERC721IncorrectOwner","inputs":[{"name":"sender","type":"address","internalType":"address"},{"name":"tokenId","type":"uint256","internalType":"uint256"},{"name":"owner","type":"address","internalType":"address"}]},{"type":"error","name":"ERC721InsufficientApproval","inputs":[{"name":"operator","type":"address","internalType":"address"},{"name":"tokenId","type":"uint256","internalType":"uint256"}]},{"type":"error","name":"ERC721InvalidApprover","inputs":[{"name":"approver","type":"address","internalType":"address"}]},{"type":"error","name":"ERC721InvalidOperator","inputs":[{"name":"operator","type":"address","internalType":"address"}]},{"type":"error","name":"ERC721InvalidOwner","inputs":[{"name":"owner","type":"address","internalType":"address"}]},{"type":"error","name":"ERC721InvalidReceiver","inputs":[{"name":"receiver","type":"address","internalType":"address"}]},{"type":"error","name":"ERC721InvalidSender","inputs":[{"name":"sender","type":"address","internalType":"address"}]},{"type":"error","name":"ERC721NonexistentToken","inputs":[{"name":"tokenId","type":"uint256","internalType":"uint256"}]},{"type":"error","name":"ReentrancyGuardReentrantCall","inputs":[]}],"bytecode":{"object":"0x604060808152346113d8576128578038038061001a816113dd565b928339810182828203126113d85781516001600160401b0392908381116113d85782610047918301611402565b90602092838201518581116113d8576100609201611402565b928151928184116113c2576000948554946001948587811c971680156113b8575b848810146112f0578190601f9788811161138c575b50849088831160011461132d578992611322575b5050600019600383901b1c191690851b1786555b80519083821161130e5784548581811c91168015611304575b848210146112f0579081878493116112ba575b50839087831160011461125b578892611250575b5050600019600383901b1c191690841b1783555b6006839055600780546001600160a01b0319167309505292d5eae5504cec5c8ba86e09e83c810aa9179055855191613e8083019081118382101761123c578652610154825260a7818301526101a7868301526101f2606083015260a8608083015260a960a083015261015060c08301526101d060e08301526101009160398382015261012060b781830152610140906101b9828401526101609161014d83850152610180916101a8838601526101a061015d818701526101c09360fb858801526101e091602a83890152609e610200890152606c61022089015260f16102408901526101eb6102608901526101d76102808901526101c76102a089015261018e6102c0890152607e6102e08901526101e46103008901526101976103208901526101af61034089015260d26103608901526101b861038089015260916103a08901526101316103c089015260296103e089015260ee61040089015260ac610420890152610190610440890152603761046089015260af6104808901526101bf6104a089015260426104c089015261019b6104e08901526101db61050089015261018361052089015260ae6105408901526052610560890152610199610580890152604b6105a089015261018f6105c08901526101236105e08901526101e261060089015260eb61062089015260cb61064089015260b061066089015260266106808901526101e96106a089015260f56106c0890152886106e0890152609861070089015260a261072089015261016b6107408901526101166107608901526101b361078089015260f76107a0890152609c6107c089015260856107e089015260b461080089015260096108208901526101556108408901526071610860890152606061088089015260d36108a089015260186108c089015260de6108e08901526109008801526101ba610920880152600c610940880152605d610960880152609661098088015260db6109a088015260ab6109c088015261012c6109e08801526101a5610a00880152605a610a2088015261017d610a40880152605c610a608801526101c8610a80880152610147610aa088015261010f610ac0880152610188610ae08801526062610b00880152610177610b2088015260fa610b40880152610130610b608801526101d9610b808801526086610ba088015260e6610bc0880152610108610be0880152607b610c008801526036610c208801526097610c408801526101cd610c60880152610162610c8088015261010b610ca088015260f9610cc08801526093610ce08801526073610d00880152607d610d2088015261019e610d4088015261016c610d60880152610111610d80880152610da087015260aa610dc087015260ed610de08701526101ef610e008701526056610e2087015261013c610e4087015261011a610e60870152610102610e808701526033610ea08701526101c2998a610ec0880152610189610ee08801526010610f0088015261011d610f208801526101ac610f4088015260ea610f6088015260b5610f80880152610103610fa088015261015b610fc0880152610125610fe08801526055611000880152603b6110208801526101b5611040880152605061106088015261017061108088015261014b6110a088015260886110c0880152603c6110e088015261010c6111008801526101286111208801526101ab611140880152600e611160880152608f61118088015260b86111a088015260e96111c088015260486111e088015261010e611200880152605761122088015260e3611240880152606361126088015260be611280880152608e6112a08801526101756112c08801526101066112e0880152610166611300880152610159611320880152610173611340880152600261136088015260146113808801526101876113a088015260c56113c088015261014a6113e0880152602d611400880152603d611420880152610167611440880152604f6114608801526064611480880152606b6114a088015260f46114c088015260a66114e08801526101ca611500880152610163611520880152610133611540880152609d6115608801526115808701526101bd6115a087015260386115c08701526101846115e087015260696116008701526101a461162087015260f8611640870152610151611660870152605461168087015260156116a08701526116c086015260ec6116e086015260dc61170086015261013b611720860152603e611740860152607a611760860152609b61178086015260d56117a086015261013d6117c086015260ad6117e086015261012f61180086015261019561182086015260cc611840860152607661186086015261017a61188086015260e76118a086015260036118c086015260956118e086015261013f61190086015260d66119208601526101ad61194086015261011261196086015261014f61198086015260076119a0860152604e6119c086015260d96119e08601526024611a008601526068611a208601526101d2611a40860152610171611a6086015261014e611a808601526101b7611aa0860152608d611ac086015260b2611ae08601526021611b008601526045611b208601526023611b40860152610174611b6086015261017e611b80860152610113611ba086015260fe611bc0860152610192611be086015260fd611c00860152602c611c20860152610165611c408601526101f0611c608601526101b0611c8086015260d1611ca08601526101cb611cc0860152610181611ce0860152610186611d00860152601d611d20860152610136611d408601526017611d6086015260a3611d8086015261012a611da08601526058611dc086015261018a611de0860152610110611e0086015261013a611e208601526067611e408601526053611e60860152610149611e8086015260c0611ea086015260cf611ec0860152610178611ee086015260f0611f0086015260bc611f2086015260b9611f40860152602f611f608601526083611f80860152610115611fa08601526101e5611fc086015260e2611fe0860152610143612000860152604961202086015260d4612040860152608961206086015260bb61208086015261011e6120a08601526101416120c0860152601c6120e08601526004612100860152606161212086015260a46121408601526101046121608601526101c46121808601526101946121a08601526101576121c086015260666121e086015260816122008601526101bc612220860152610158612240860152603161226086015261016f6122808601526101ae6122a0860152606d6122c08601526101b16122e08601526051612300860152609461232086015261014c61234086015261013761236086015260ce61238086015260bd6123a08601526101326123c086015260c86123e08601526019612400860152604d61242086015260826124408601526101da61246086015260726124808601526101766124a08601526101c66124c086015261015e6124e08601526101dd6125008601526101466125208601526101bb61254086015261016861256086015261017261258086015261015a6125a086015261019a6125c08601526101e66125e08601526101196126008601526101f36126208601526059612640860152603f612660860152603561268086015260b16126a086015260466126c08601526101426126e086015261019661270086015260e061272086015261017c612740860152601e61276086015261011f61278086015261017b6127a086015260116127c086015260da6127e08601526087612800860152605e6128208601526101146128408601526101a661286086015261288085015260dd6128a085015261016a6128c085015260926128e0850152607f61290085015260416129208501526101d36129408501526090612960850152603461298085015261018b6129a08501526101a16129c08501526101526129e085015260f2612a00850152604a612a208501526101e8612a4085015260c4612a608501526008612a80850152603a612aa0850152610134612ac08501526101ce612ae0850152612b008401526043612b208401526077612b40840152605b612b608401526101ea612b808401526101b2612ba0840152610101612bc084015261013e612be0840152604c612c0084015261011b612c2084015261010a612c4084015260ba612c608401526101df612c80840152609f612ca0840152610198612cc084015260cd612ce08401526030612d0084015261017f612d208401526101c5612d40840152610124612d608401526028612d808401526080612da08401526044612dc0840152610164612de0840152610126612e00840152610153612e2084015260b3612e40840152602b612e608401526101cf612e808401526027612ea0840152601b612ec08401526101d6612ee08401526101e3612f00840152610118612f2084015261018c612f408401526101d5612f6084015261010d612f808401526075612fa0840152610156612fc0840152610129612fe0840152605f61300084015260166130208401526101e761304084015261018d61306084015261013561308084015260df6130a08401526101936130c08401526101dc6130e08401526131008301526101f1613120830152600a61314083015260c16131608301526101d161318083015260a06131a08301526101456131c083015260e46131e0830152606a613200830152606e61322083015260a561324083015260c76132608301526101396132808301526101176132a08301526101a36132c0830152607c6132e0830152602e613300830152609a6133208301526101b661334083015260c96133608301528461338083015260056133a083015260c36133c08301526101cc6133e083015261011c61340083015260e861342083015260d0613440830152608c61346083015261016161348083015261019f6134a083015260ca6134c083015260706134e0830152600f6135008301526084613520830152610121613540830152601a613560830152606f61358083015261019d6135a08301526101d86135c083015261012d6135e083015260136136008301526136208201526101a96136408201526101c36136608201526101056136808201526101696136a08201526101ee6136c082015260746136e082015260d86137008201526101c961372082015260f66137408201526101c1613760820152608b613780820152600d6137a0820152608a6137c08201526101b46137e08201526025613800820152600b61382082015260a161384082015260476138608201526101386138808201526101446138a08201526101de6138c082015260796138e08201526101276139008201526101ec61392082015260226139408201526101e1613960820152600661398082015260ef6139a08201526101486139c082015260c26139e082015261016e613a008201526032613a2082015286613a408201526101be613a6082015261019c613a80820152610109613aa08201526099613ac08201526012613ae08201526101d4613b00820152610179613b20820152610191613b4082015260c6613b6082015260f3613b808201526078613ba08201526101ed613bc082015261015f613be082015260ff613c0082015260e5613c208201526101f49283613c4083015260b6613c6083015260bf613c8083015261015c613ca0830152610185613cc0830152610107613ce083015260fc613d008301526101a2613d2083015261016d613d4083015261012e613d60830152610182613d808301526065613da083015260e1613dc083015261012b613de0830152610122613e0083015260d7613e20830152613e408201526101aa613e6082015260085483600855808410611221575b50906008865280862090865b84811061120c578888886032600955600a55600b55516113d290816114858239f35b835161ffff16838201559281019285016111ea565b6008875282872061123691810190850161146d565b386111de565b634e487b7160e01b86526041600452602486fd5b0151905038806100fe565b8689528489208794509190601f1984168a5b878282106112a4575050841161128b575b505050811b018355610112565b015160001960f88460031b161c1916905538808061127e565b8385015186558a9790950194938401930161126d565b6112e190878a52858a208980860160051c8201928887106112e7575b0160051c019061146d565b386100ea565b925081926112d6565b634e487b7160e01b88526022600452602488fd5b90607f16906100d7565b634e487b7160e01b87526041600452602487fd5b0151905038806100aa565b898052858a208894509190601f1984168b5b88828210611376575050841161135d575b505050811b0186556100be565b015160001960f88460031b161c19169055388080611350565b8385015186558b9790950194938401930161133f565b6113b2908a8052868b208a80860160051c8201928987106112e7570160051c019061146d565b38610096565b96607f1696610081565b634e487b7160e01b600052604160045260246000fd5b600080fd5b6040519190601f01601f191682016001600160401b038111838210176113c257604052565b919080601f840112156113d85782516001600160401b0381116113c257602090611434601f8201601f191683016113dd565b928184528282870101116113d85760005b81811061145a57508260009394955001015290565b8581018301518482018401528201611445565b818110611478575050565b6000815560010161146d56fe6080604081815260048036101561001557600080fd5b600092833560e01c90816301ffc9a714610a6c5750806306fdde031461099f578063081812fc14610964578063095ea7b3146108885780631249c58b1461072d57806318160ddd1461070e57806323b872dd146106f65780632a55205a1461065357806342842e0e1461062457806344d19d2b146106055780636352211e146105d457806370a082311461057f57806395d89b4114610462578063a22cb465146103c5578063b88d4fde14610364578063c87b56dd14610311578063d5abeb01146102f2578063e985e9c5146102a05763ec24f692146100f457600080fd5b3461029c57602036600319011261029c5767ffffffffffffffff8135818111610298576101249036908401610c08565b9061012d610eba565b835160208101913360601b83526014825285820190828210908211176102855785525190206007546001600160a01b03908116929091610179916101709161124b565b90929192611287565b160361024357600b5491610190600a548410610c4f565b6009549081156102015750600019908082019081116101ee5760095582146101db57506101c68160016101d39301600b55610c90565b90549060031b1c33610edd565b600160065580f35b634e487b7160e01b835260119052602482fd5b634e487b7160e01b855260118352602485fd5b5162461bcd60e51b8152602081840152601760248201527f4e6f20726573657276656420737570706c79206c6566740000000000000000006044820152606490fd5b6020606492519162461bcd60e51b8352820152601b60248201527f5349474e41545552455f56414c49444154494f4e5f4641494c454400000000006044820152fd5b634e487b7160e01b875260418552602487fd5b8480fd5b8280fd5b5050346102ee57806003193601126102ee5760ff816020936102c0610b32565b6102c8610b4d565b6001600160a01b0391821683526005875283832091168252855220549151911615158152f35b5080fd5b5050346102ee57816003193601126102ee57602090600a549051908152f35b509190346102ee5760203660031901126102ee576103326103609335610e7f565b5081815161033f81610b98565b5280519161034c83610b98565b825251918291602083526020830190610af2565b0390f35b8382346102ee5760803660031901126102ee5761037f610b32565b610387610b4d565b6044359060643567ffffffffffffffff81116103c1576103be946103ad91369101610c08565b926103b9838383610cdd565b611107565b80f35b8580fd5b50903461029c578060031936011261029c576103df610b32565b9060243591821515809303610298576001600160a01b031692831561044d5750338452600560205280842083855260205280842060ff1981541660ff8416179055519081527f17307eab39ab6107e8899845ad3d59bd9653f200f220920489ca2b5937696c3160203392a380f35b836024925191630b61174360e31b8352820152fd5b50913461057c578060031936011261057c5781519181600192600154938460011c9160018616958615610572575b602096878510811461055f578899509688969785829a5291826000146105385750506001146104dc575b50505061036092916104cd910385610bca565b51928284938452830190610af2565b9190869350600183527fb10e2d527612073b26eecdfd717e6a320cf44b4afac2b0732d9fcbe2b7fa0cf65b82841061052057505050820101816104cd6103606104ba565b8054848a018601528895508794909301928101610507565b60ff19168782015293151560051b860190930193508492506104cd915061036090506104ba565b634e487b7160e01b835260228a52602483fd5b92607f1692610490565b80fd5b50913461057c57602036600319011261057c576001600160a01b036105a2610b32565b169283156105bf5750806020938392526003845220549051908152f35b91516322718ad960e21b815291820152602490fd5b50913461057c57602036600319011261057c57506105f460209235610e7f565b90516001600160a01b039091168152f35b5050346102ee57816003193601126102ee576020906009549051908152f35b5050346102ee576103be9061063836610b63565b9192519261064584610b98565b8584526103b9838383610cdd565b509190346102ee57806003193601126102ee5760243591815182810181811067ffffffffffffffff8211176106e3578352600c549160018060a01b0392838116835260a01c948560208401528581029581870414901517156106d057815184519084166001600160a01b0316815261271086046020820152604090f35b634e487b7160e01b815260118652602490fd5b634e487b7160e01b835260418652602483fd5b833461057c576103be61070836610b63565b91610cdd565b5050346102ee57816003193601126102ee57602090600b549051908152f35b509190346102ee57816003193601126102ee57610748610eba565b600b5490610759600a548310610c4f565b80519060208201924484524282840152606083015260608252608082019082821067ffffffffffffffff831117610875575251902060085490811561086257819006906107a582610c90565b919054926000199182810190811161084f576107c36107d091610c90565b90549060031b1c91610c90565b83829392549160031b92831b921b1916179055600854801561083c578101906107f882610c90565b909182549160031b1b19169055600855600b5460018101809111610829576101d3939450600b5560031b1c33610edd565b634e487b7160e01b845260118552602484fd5b634e487b7160e01b855260318652602485fd5b634e487b7160e01b865260118752602486fd5b634e487b7160e01b835260128452602483fd5b634e487b7160e01b855260418652602485fd5b50903461029c578060031936011261029c576108a2610b32565b916024356108af81610e7f565b33151580610951575b80610928575b610912576001600160a01b039485169482918691167f8c5be1e5ebec7d5bd14f71427d1e84f3dd0314c0f7b2291e5b200ac8c7c3b9258880a48452602052822080546001600160a01b031916909117905580f35b835163a9fbf51f60e01b81523381850152602490fd5b506001600160a01b03811686526005602090815284872033885290528386205460ff16156108be565b506001600160a01b0381163314156108b8565b503461029c57602036600319011261029c5791826020933561098581610e7f565b50825283528190205490516001600160a01b039091168152f35b50913461057c578060031936011261057c578151918182549260018460011c9160018616958615610a62575b602096878510811461055f578899509688969785829a529182600014610538575050600114610a075750505061036092916104cd910385610bca565b91908693508280527f290decd9548b62a8d60345a988386fc84ba6bc95484008f6362f93160ef3e5635b828410610a4a57505050820101816104cd6103606104ba565b8054848a018601528895508794909301928101610a31565b92607f16926109cb565b9250503461029c57602036600319011261029c573563ffffffff60e01b811680910361029c576020925063152a902d60e11b8114908115610aaf575b5015158152f35b6380ac58cd60e01b811491508115610ae1575b8115610ad0575b5038610aa8565b6301ffc9a760e01b14905038610ac9565b635b5e139f60e01b81149150610ac2565b919082519283825260005b848110610b1e575050826000602080949584010152601f8019910116010190565b602081830181015184830182015201610afd565b600435906001600160a01b0382168203610b4857565b600080fd5b602435906001600160a01b0382168203610b4857565b6060906003190112610b48576001600160a01b03906004358281168103610b4857916024359081168103610b48579060443590565b6020810190811067ffffffffffffffff821117610bb457604052565b634e487b7160e01b600052604160045260246000fd5b90601f8019910116810190811067ffffffffffffffff821117610bb457604052565b67ffffffffffffffff8111610bb457601f01601f191660200190565b81601f82011215610b4857803590610c1f82610bec565b92610c2d6040519485610bca565b82845260208383010111610b4857816000926020809301838601378301015290565b15610c5657565b60405162461bcd60e51b815260206004820152601260248201527113585e081cdd5c1c1b1e481c995858da195960721b6044820152606490fd5b600854811015610cc75760086000527ff3f7a9fe364faab93b216da50a3214154f22a0a2b415b23a84c8169e8b636ee30190600090565b634e487b7160e01b600052603260045260246000fd5b6001600160a01b039182169290918315610e6657600092828452826020956002875260409684888820541696879133151580610dcd575b509060027fddf252ad1be2c89b69c2b068fc378daa952ba7f163c4a11628f55a4df523b3ef9284610d9a575b858352600381528b8320805460010190558683525289812080546001600160a01b0319168517905580a41692838303610d795750505050565b6064945051926364283d7b60e01b8452600484015260248301526044820152fd5b600087815260046020526040902080546001600160a01b0319169055848352600381528b83208054600019019055610d40565b91939450915080610e25575b15610de957859291879138610d14565b878688610e06576024915190637e27328960e01b82526004820152fd5b905163177e802f60e01b81523360048201526024810191909152604490fd5b503387148015610e4a575b80610dd95750858252600481523385898420541614610dd9565b5086825260058152878220338352815260ff8883205416610e30565b604051633250574960e11b815260006004820152602490fd5b6000818152600260205260409020546001600160a01b0316908115610ea2575090565b60249060405190637e27328960e01b82526004820152fd5b600260065414610ecb576002600655565b604051633ee5aeb560e01b8152600490fd5b6040805192610eeb84610b98565b60008085526001600160a01b03948486169491929185156110ef57828452602096600288528585205416838782151592836110bc575b81885260038b528888208054600101905582885260028b5288882080546001600160a01b031916831790557fddf252ad1be2c89b69c2b068fc378daa952ba7f163c4a11628f55a4df523b3ef8880a46110a4573b610f82575b505050505050565b85610fc0918596979894955180938192630a85bd0160e11b968784523360048501528960248501526044840152608060648401526084830190610af2565b0381878a5af1849181611064575b5061102d575050503d600014611025573d610fe881610bec565b90610ff584519283610bca565b81528091853d92013e5b8051938461101f578251633250574960e11b815260048101859052602490fd5b84925001fd5b506060610fff565b919550915063ffffffff60e01b160361104d575050388080808080610f7a565b602492505190633250574960e11b82526004820152fd5b9091508781813d831161109d575b61107c8183610bca565b8101031261029857516001600160e01b031981168103610298579038610fce565b503d611072565b84516339e3563760e11b815260048101859052602490fd5b600083815260046020526040902080546001600160a01b031916905580885260038b528888208054600019019055610f21565b8451633250574960e11b815260048101859052602490fd5b813b611114575b50505050565b604051630a85bd0160e11b8082523360048301526001600160a01b03928316602483015260448201949094526080606482015260209592909116939092908390611162906084830190610af2565b039285816000958187895af184918161120b575b506111d6575050503d6000146111ce573d61119081610bec565b9061119e6040519283610bca565b81528091843d92013e5b805192836111c957604051633250574960e11b815260048101849052602490fd5b019050fd5b5060606111a8565b919450915063ffffffff60e01b16036111f357503880808061110e565b60249060405190633250574960e11b82526004820152fd5b9091508681813d8311611244575b6112238183610bca565b8101031261029857516001600160e01b031981168103610298579038611176565b503d611219565b815191906041830361127c5761127592506020820151906060604084015193015160001a9061130c565b9192909190565b505060009160029190565b60048110156112f65780611299575050565b600181036112b35760405163f645eedf60e01b8152600490fd5b600281036112d45760405163fce698f760e01b815260048101839052602490fd5b6003146112de5750565b602490604051906335e2f38360e21b82526004820152fd5b634e487b7160e01b600052602160045260246000fd5b91907f7fffffffffffffffffffffffffffffff5d576e7357a4501ddfe92f46681b20a0841161139057926020929160ff608095604051948552168484015260408301526060820152600092839182805260015afa156113845780516001600160a01b0381161561137b57918190565b50809160019190565b604051903d90823e3d90fd5b5050506000916003919056fea264697066735822122073d0ee7d4b83de21c786e712c49ef43741d322acde5e4cbd7d32254f99b0be7764736f6c63430008190033","linkReferences":{}},"methodIdentifiers":{"approve(address,uint256)":"095ea7b3","balanceOf(address)":"70a08231","getApproved(uint256)":"081812fc","isApprovedForAll(address,address)":"e985e9c5","maxSupply()":"d5abeb01","mint()":"1249c58b","name()":"06fdde03","ownerOf(uint256)":"6352211e","reservedMint(bytes)":"ec24f692","reservedSupply()":"44d19d2b","royaltyInfo(uint256,uint256)":"2a55205a","safeTransferFrom(address,address,uint256)":"42842e0e","safeTransferFrom(address,address,uint256,bytes)":"b88d4fde","setApprovalForAll(address,bool)":"a22cb465","supportsInterface(bytes4)":"01ffc9a7","symbol()":"95d89b41","tokenURI(uint256)":"c87b56dd","totalSupply()":"18160ddd","transferFrom(address,address,uint256)":"23b872dd"},"id":1}