{"abi":[{"type":"constructor","inputs":[{"name":"name_","type":"string","internalType":"string"},{"name":"symbol_","type":"string","internalType":"string"}],"stateMutability":"nonpayable"},{"type":"function","name":"approve","inputs":[{"name":"to","type":"address","internalType":"address"},{"name":"tokenId","type":"uint256","internalType":"uint256"}],"outputs":[],"stateMutability":"nonpayable"},{"type":"function","name":"balanceOf","inputs":[{"name":"owner","type":"address","internalType":"address"}],"outputs":[{"name":"","type":"uint256","internalType":"uint256"}],"stateMutability":"view"},{"type":"function","name":"getApproved","inputs":[{"name":"tokenId","type":"uint256","internalType":"uint256"}],"outputs":[{"name":"","type":"address","internalType":"address"}],"stateMutability":"view"},{"type":"function","name":"isApprovedForAll","inputs":[{"name":"owner","type":"address","internalType":"address"},{"name":"operator","type":"address","internalType":"address"}],"outputs":[{"name":"","type":"bool","internalType":"bool"}],"stateMutability":"view"},{"type":"function","name":"maxSupply","inputs":[],"outputs":[{"name":"","type":"uint256","internalType":"uint256"}],"stateMutability":"view"},{"type":"function","name":"mint","inputs":[],"outputs":[],"stateMutability":"payable"},{"type":"function","name":"mintPrice","inputs":[],"outputs":[{"name":"","type":"uint256","internalType":"uint256"}],"stateMutability":"view"},{"type":"function","name":"name","inputs":[],"outputs":[{"name":"","type":"string","internalType":"string"}],"stateMutability":"view"},{"type":"function","name":"owner","inputs":[],"outputs":[{"name":"","type":"address","internalType":"address"}],"stateMutability":"view"},{"type":"function","name":"ownerOf","inputs":[{"name":"tokenId","type":"uint256","internalType":"uint256"}],"outputs":[{"name":"","type":"address","internalType":"address"}],"stateMutability":"view"},{"type":"function","name":"premintSupply","inputs":[],"outputs":[{"name":"","type":"uint256","internalType":"uint256"}],"stateMutability":"view"},{"type":"function","name":"renounceOwnership","inputs":[],"outputs":[],"stateMutability":"nonpayable"},{"type":"function","name":"royaltyInfo","inputs":[{"name":"tokenId","type":"uint256","internalType":"uint256"},{"name":"salePrice","type":"uint256","internalType":"uint256"}],"outputs":[{"name":"","type":"address","internalType":"address"},{"name":"","type":"uint256","internalType":"uint256"}],"stateMutability":"view"},{"type":"function","name":"safeTransferFrom","inputs":[{"name":"from","type":"address","internalType":"address"},{"name":"to","type":"address","internalType":"address"},{"name":"tokenId","type":"uint256","internalType":"uint256"}],"outputs":[],"stateMutability":"nonpayable"},{"type":"function","name":"safeTransferFrom","inputs":[{"name":"from","type":"address","internalType":"address"},{"name":"to","type":"address","internalType":"address"},{"name":"tokenId","type":"uint256","internalType":"uint256"},{"name":"data","type":"bytes","internalType":"bytes"}],"outputs":[],"stateMutability":"nonpayable"},{"type":"function","name":"setApprovalForAll","inputs":[{"name":"operator","type":"address","internalType":"address"},{"name":"approved","type":"bool","internalType":"bool"}],"outputs":[],"stateMutability":"nonpayable"},{"type":"function","name":"supportsInterface","inputs":[{"name":"interfaceId","type":"bytes4","internalType":"bytes4"}],"outputs":[{"name":"","type":"bool","internalType":"bool"}],"stateMutability":"view"},{"type":"function","name":"symbol","inputs":[],"outputs":[{"name":"","type":"string","internalType":"string"}],"stateMutability":"view"},{"type":"function","name":"tokenURI","inputs":[{"name":"tokenId","type":"uint256","internalType":"uint256"}],"outputs":[{"name":"","type":"string","internalType":"string"}],"stateMutability":"view"},{"type":"function","name":"totalSupply","inputs":[],"outputs":[{"name":"","type":"uint256","internalType":"uint256"}],"stateMutability":"view"},{"type":"function","name":"transferFrom","inputs":[{"name":"from","type":"address","internalType":"address"},{"name":"to","type":"address","internalType":"address"},{"name":"tokenId","type":"uint256","internalType":"uint256"}],"outputs":[],"stateMutability":"nonpayable"},{"type":"function","name":"transferOwnership","inputs":[{"name":"newOwner","type":"address","internalType":"address"}],"outputs":[],"stateMutability":"nonpayable"},{"type":"function","name":"withdraw","inputs":[],"outputs":[],"stateMutability":"nonpayable"},{"type":"event","name":"Approval","inputs":[{"name":"owner","type":"address","indexed":true,"internalType":"address"},{"name":"approved","type":"address","indexed":true,"internalType":"address"},{"name":"tokenId","type":"uint256","indexed":true,"internalType":"uint256"}],"anonymous":false},{"type":"event","name":"ApprovalForAll","inputs":[{"name":"owner","type":"address","indexed":true,"internalType":"address"},{"name":"operator","type":"address","indexed":true,"internalType":"address"},{"name":"approved","type":"bool","indexed":false,"internalType":"bool"}],"anonymous":false},{"type":"event","name":"OwnershipTransferred","inputs":[{"name":"previousOwner","type":"address","indexed":true,"internalType":"address"},{"name":"newOwner","type":"address","indexed":true,"internalType":"address"}],"anonymous":false},{"type":"event","name":"Transfer","inputs":[{"name":"from","type":"address","indexed":true,"internalType":"address"},{"name":"to","type":"address","indexed":true,"internalType":"address"},{"name":"tokenId","type":"uint256","indexed":true,"internalType":"uint256"}],"anonymous":false},{"type":"error","name":"ERC2981InvalidDefaultRoyalty","inputs":[{"name":"numerator","type":"uint256","internalType":"uint256"},{"name":"denominator","type":"uint256","internalType":"uint256"}]},{"type":"error","name":"ERC2981InvalidDefaultRoyaltyReceiver","inputs":[{"name":"receiver","type":"address","internalType":"address"}]},{"type":"error","name":"ERC721IncorrectOwner","inputs":[{"name":"sender","type":"address","internalType":"address"},{"name":"tokenId","type":"uint256","internalType":"uint256"},{"name":"owner","type":"address","internalType":"address"}]},{"type":"error","name":"ERC721InsufficientApproval","inputs":[{"name":"operator","type":"address","internalType":"address"},{"name":"tokenId","type":"uint256","internalType":"uint256"}]},{"type":"error","name":"ERC721InvalidApprover","inputs":[{"name":"approver","type":"address","internalType":"address"}]},{"type":"error","name":"ERC721InvalidOperator","inputs":[{"name":"operator","type":"address","internalType":"address"}]},{"type":"error","name":"ERC721InvalidOwner","inputs":[{"name":"owner","type":"address","internalType":"address"}]},{"type":"error","name":"ERC721InvalidReceiver","inputs":[{"name":"receiver","type":"address","internalType":"address"}]},{"type":"error","name":"ERC721InvalidSender","inputs":[{"name":"sender","type":"address","internalType":"address"}]},{"type":"error","name":"ERC721NonexistentToken","inputs":[{"name":"tokenId","type":"uint256","internalType":"uint256"}]},{"type":"error","name":"OwnableInvalidOwner","inputs":[{"name":"owner","type":"address","internalType":"address"}]},{"type":"error","name":"OwnableUnauthorizedAccount","inputs":[{"name":"account","type":"address","internalType":"address"}]},{"type":"error","name":"ReentrancyGuardReentrantCall","inputs":[]}],"bytecode":{"object":"0x60808060405234610ef7576126c9803803809161001c828561126f565b8339810190604081830312610ef75780516001600160401b038111610ef757826100479183016112d0565b60208201519092906001600160401b038111610ef75761006792016112d0565b81516001600160401b038111610f6657600054600181811c91168015611265575b602082101461118e57601f8111611229575b50602092601f82116001146111b957928192936000926111ae575b50508160011b916000199060031b1c1916176000555b80516001600160401b038111610f6657600154600181811c911680156111a4575b602082101461118e57601f8111611134575b50602091601f82116001146110cf579181926000926110c4575b50508160011b916000199060031b1c1916176001555b33156110ab5760068054336001600160a01b03198216811790925560405191906001600160a01b03167f8be0079c531659141344cd1fd0a4f28419497f9722a3daafe3b4186f6b6457e0600080a360016007556127e081016001600160401b03811182821017610f665760405260bb815261010360208201526062604082015260b260608201526101266080820152608060a082015261011560c0820152602460e082015260d8610100820152608c61012082015260b0610140820152607961016082015260c761018082015260a56101a08201526101286101c082015260da6101e082015260ed61020082015260a961022082015261010161024082015260c861026082015261011661028082015260176102a082015260876102c082015260236102e082015261011e610300820152604e610320820152601461034082015260c9610360820152610109610380820152606f6103a082015260ec6103c082015260476103e0820152603e61040082015261011261042082015260906104408201526013610460820152607061048082015260e86104a08201526101146104c0820152607d6104e0820152608a61050082015261011861052082015260ac610540820152606561056082015261010e61058082015260746105a082015260446105c082015260086105e08201526049610600820152605c6106208201526038610640820152608361066082015261013e61068082015260866106a082015260546106c082015260316106e0820152601a61070082015260076107208201526101376107408201526022610760820152600d610780820152602c6107a082015261011c6107c082015260be6107e0820152610120610800820152606661082082015260d2610840820152605f610860820152604661088082015261013a6108a082015261012e6108c082015260b96108e082015260c461090082015261010f610920820152605a610940820152609e610960820152610105610980820152609a6109a082015261013d6109c082015260516109e0820152606a610a008201526026610a20820152610106610a40820152601c610a60820152600a610a808201526097610aa08201526034610ac08201526011610ae08201526035610b0082015260e6610b208201526052610b408201526042610b608201526037610b8082015260eb610ba0820152605b610bc08201526043610be0820152608e610c0082015260f9610c20820152610113610c408201526089610c6082015260ea610c8082015260d1610ca082015261012d610cc08201526019610ce082015260df610d0082015260d0610d208201526032610d4082015260e0610d6082015260a0610d8082015260f0610da0820152606e610dc0820152600b610de082015260d3610e0082015261011a610e2082015260ba610e4082015260af610e6082015261012f610e80820152603c610ea0820152607c610ec082015261013b610ee0820152604c610f008201526009610f208201526033610f408201526027610f608201526068610f808201526056610fa08201526059610fc082015260bf610fe0820152608461100082015260ab61102082015260e461104082015260bc61106082015261010c61108082015261012a6110a082015260206110c0820152601f6110e0820152605361110082015260e561112082015260e161114082015261011761116082015260f361118082015260fc6111a0820152603b6111c082015260ae6111e0820152605d611200820152605e61122082015260166112408201526095611260820152609c6112808201526101396112a0820152607f6112c082015260736112e082015260e261130082015260fe611320820152606161134082015260cb61136082015260c261138082015260036113a082015260a86113c082015260d46113e08201526050611400820152600e6114208201526101246114408201526081611460820152600061148082015260f76114a082015260b66114c082015260d96114e0820152608561150082015260996115208201526092611540820152606d611560820152610110611580820152606c6115a08201526101046115c08201526101196115e082015261013461160082015260a3611620820152610132611640820152610131611660820152608b61168082015260b86116a082015260966116c082015260986116e0820152601d6117008201526075611720820152601261174082015260a261176082015260776117808201526101236117a082015260a66117c082015260786117e0820152606b6118008201526018611820820152600161184082015260ce61186082015261010b61188082015261011d6118a0820152608f6118c08201526101026118e082015260fb611900820152600f61192082015260bd611940820152600261196082015260936119808201526101386119a08201526101366119c0820152602d6119e0820152609f611a008201526021611a20820152602f611a4082015260c0611a60820152610135611a8082015261012c611aa082015260ee611ac082015260d7611ae082015260c1611b008201526040611b20820152610108611b408201526028611b6082015260fd611b8082015260cd611ba08201526055611bc0820152610125611be082015260f5611c0082015260e7611c208201526036611c40820152608d611c60820152604d611c80820152609d611ca08201526071611cc0820152603f611ce0820152604f611d0082015260aa611d20820152610111611d40820152610100611d6082015260db611d80820152610130611da082015260a1611dc0820152601e611de082015260c3611e008201526039611e208201526060611e408201526064611e608201526005611e8082015260de611ea0820152610122611ec08201526082611ee082015260e9611f0082015260a4611f2082015261011f611f40820152610127611f608201526072611f80820152610107611fa08201526025611fc08201526067611fe08201526088612000820152604161202082015261010d61204082015260c56120608201526045612080820152603d6120a0820152602e6120c082015260a76120e08201526057612100820152604861212082015260cf61214082015261010a6121608201526101336121808201526101216121a0820152601b6121c082015260ad6121e0820152609b61220082015260f861222082015260b16122408201526006612260820152607a61228082015260046122a082015260946122c082015260b46122e08201526010612300820152607b612320820152604b61234082015260fa61236082015260c661238082015260636123a082015260dd6123c082015261011b6123e082015260ff612400820152602b612420820152601561244082015260d5612460820152602961248082015260916124a0820152602a6124c082015260b76124e08201526069612500820152607e612520820152603061254082015260dc61256082015260ca61258082015260cc6125a082015260ef6125c082015260f66125e082015260b561260082015260b3612620820152603a61264082015261012b61266082015260f461268082015260d66126a082015261013c6126c082015260586126e082015260e36127008201526076612720820152604a612740820152610129612760820152600c61278082015260f26127a082015260f16127c08201526008548061013f8060085510611032575b506008600052602060002060005b60138110610fef575060009160005b600f8110610fbe57836013840155600060095560005b60268110610c225760405161131790816113728239f35b6040514460208201524260408201523360601b60608201526054815280608081011060018060401b03608083011117610f66576080810160405260208151910120600854908115610fa85761ffff610c7b83830661132c565b90549060031b1c169180600019810111610f7c57610cb5610cce9161ffff610ca6600019830161132c565b90549060031b1c16930661132c565b819391549060031b9161ffff809116831b921b19161790565b90556008548015610f925760001901610ce68161132c565b61ffff82549160031b1b19169055600855600954600181018111610f7c57600101600955604051906001600160401b036020830190811190831117610f665760208201604052600082523315610f4d576000818152600260205260409020546001600160a01b031680610f1a575b33600052600360205260406000206001815401905581600052600260205260406000203360018060a01b0319825416179055604051908233827fddf252ad1be2c89b69c2b068fc378daa952ba7f163c4a11628f55a4df523b3ef600080a4610f045750333b610dc8575b5050600101610c0b565b60209060a460405180948193630a85bd0160e11b835233600484015260006024840152604483015260806064830152610e0f815180928160848601528786860191016112ad565b601f01601f191681010301816000335af160009181610eba575b50610e83573d15610e7c573d610e3e81611292565b90610e4c604051928361126f565b81523d6000602083013e5b80519081610e7757604051633250574960e11b8152336004820152602490fd5b602001fd5b6060610e57565b6001600160e01b03191663757a42ff60e11b01610ea257600182610dbe565b604051633250574960e11b8152336004820152602490fd5b9091506020813d602011610efc575b81610ed66020938361126f565b81010312610ef757516001600160e01b031981168103610ef7579083610e29565b600080fd5b3d9150610ec9565b6339e3563760e11b815260006004820152602490fd5b600460209081526040600081812080546001600160a01b0319169055838152600390925290208054600019019055610d54565b604051633250574960e11b815260006004820152602490fd5b634e487b7160e01b600052604160045260246000fd5b634e487b7160e01b600052601160045260246000fd5b634e487b7160e01b600052603160045260246000fd5b634e487b7160e01b600052601260045260246000fd5b90926020610fe660019261ffff8751169085851b60031b9161ffff809116831b921b19161790565b94019101610bf5565b6000805b60108110611008575082820155600101610be6565b845160209095019461ffff908116600483901b90811b91901b199092169190911790600101610ff3565b60086000527ff3f7a9fe364faab93b216da50a3214154f22a0a2b415b23a84c8169e8b636ef680546001600160f01b031690556110a590600f0160041c6000805160206126a9833981519152017ff3f7a9fe364faab93b216da50a3214154f22a0a2b415b23a84c8169e8b636ef7611315565b38610bd8565b604051631e4fbdf760e01b815260006004820152602490fd5b015190503880610118565b601f19821692600160005260206000209160005b85811061111c57508360019510611103575b505050811b0160015561012e565b015160001960f88460031b161c191690553880806110f5565b919260206001819286850151815501940192016110e3565b600160005261117e907fb10e2d527612073b26eecdfd717e6a320cf44b4afac2b0732d9fcbe2b7fa0cf6601f840160051c81019160208510611184575b601f0160051c0190611315565b386100fe565b9091508190611171565b634e487b7160e01b600052602260045260246000fd5b90607f16906100ec565b0151905038806100b5565b6000808052601f198316946000805160206126898339815191529290915b86811061121157508360019596106111f8575b505050811b016000556100cb565b015160001960f88460031b161c191690553880806111ea565b919260206001819286850151815501940192016111d7565b6000805261125f90600080516020612689833981519152601f840160051c8101916020851061118457601f0160051c0190611315565b3861009a565b90607f1690610088565b601f909101601f19168101906001600160401b03821190821017610f6657604052565b6001600160401b038111610f6657601f01601f191660200190565b60005b8381106112c05750506000910152565b81810151838201526020016112b0565b81601f82011215610ef75780516112e681611292565b926112f4604051948561126f565b81845260208284010111610ef75761131291602080850191016112ad565b90565b818110611320575050565b60008155600101611315565b9060085482101561135b576008600052600482901c6000805160206126a9833981519152019160011b601e1690565b634e487b7160e01b600052603260045260246000fdfe6080604081815260048036101561001557600080fd5b600092833560e01c90816301ffc9a714610d7f5750806306fdde0314610cb2578063081812fc14610c77578063095ea7b314610b9b5780631249c58b146107b557806318160ddd1461079657806323b872dd1461077e5780632a55205a146106db5780633ccfd60b1461064057806342842e0e146106115780636352211e146105e05780636817c76c146105bd57806370a0823114610568578063715018a61461050b57806374b1ceaf146104ef5780638da5cb5b146104c657806395d89b41146103a9578063a22cb46514610308578063b88d4fde14610274578063c87b56dd14610221578063d5abeb0114610204578063e985e9c5146101b25763f2fde38b1461012057600080fd5b346101ae5760203660031901126101ae57610139610e45565b90610142611171565b6001600160a01b03918216928315610198575050600654826bffffffffffffffffffffffff60a01b821617600655167f8be0079c531659141344cd1fd0a4f28419497f9722a3daafe3b4186f6b6457e08380a380f35b51631e4fbdf760e01b8152908101849052602490fd5b8280fd5b50503461020057806003193601126102005760ff816020936101d2610e45565b6101da610e60565b6001600160a01b0391821683526005875283832091168252855220549151911615158152f35b5080fd5b5050346102005781600319360112610200576020905161013f8152f35b509190346102005760203660031901126102005761024261027093356110bd565b5081815161024f81610eab565b5280519161025c83610eab565b825251918291602083526020830190610e05565b0390f35b5090346101ae5760803660031901126101ae5761028f610e45565b610297610e60565b60443591856064359567ffffffffffffffff8711610200573660238801121561020057860135956102d36102ca88610eff565b96519687610edd565b86865236602488830101116102005786610305976024602093018389013786010152610300838383610f1b565b61119d565b80f35b5090346101ae57806003193601126101ae57610322610e45565b90602435918215158093036103a5576001600160a01b03169283156103905750338452600560205280842083855260205280842060ff1981541660ff8416179055519081527f17307eab39ab6107e8899845ad3d59bd9653f200f220920489ca2b5937696c3160203392a380f35b836024925191630b61174360e31b8352820152fd5b8480fd5b5091346104c357806003193601126104c35781519181600192600154938460011c91600186169586156104b9575b60209687851081146104a6578899509688969785829a52918260001461047f575050600114610423575b5050506102709291610414910385610edd565b51928284938452830190610e05565b9190869350600183527fb10e2d527612073b26eecdfd717e6a320cf44b4afac2b0732d9fcbe2b7fa0cf65b8284106104675750505082010181610414610270610401565b8054848a01860152889550879490930192810161044e565b60ff19168782015293151560051b8601909301935084925061041491506102709050610401565b634e487b7160e01b835260228a52602483fd5b92607f16926103d7565b80fd5b50503461020057816003193601126102005760065490516001600160a01b039091168152602090f35b5050346102005781600319360112610200576020905160268152f35b83346104c357806003193601126104c357610524611171565b600680546001600160a01b0319811690915581906001600160a01b03167f8be0079c531659141344cd1fd0a4f28419497f9722a3daafe3b4186f6b6457e08280a380f35b5091346104c35760203660031901126104c3576001600160a01b0361058b610e45565b169283156105a85750806020938392526003845220549051908152f35b91516322718ad960e21b815291820152602490fd5b50503461020057816003193601126102005760209051671bc16d674ec800008152f35b5091346104c35760203660031901126104c35750610600602092356110bd565b90516001600160a01b039091168152f35b505034610200576103059061062536610e76565b9192519261063284610eab565b858452610300838383610f1b565b50346101ae57826003193601126101ae57610659611171565b6106616110f8565b47908115610698575060065483918291829182916001600160a01b031682f11561068e5750600160075580f35b51903d90823e3d90fd5b606490602084519162461bcd60e51b8352820152601e60248201527f4e6f20457468657220617661696c61626c6520746f20776974686472617700006044820152fd5b5091903461020057806003193601126102005760243591815182810181811067ffffffffffffffff82111761076b578352600a549160018060a01b0392838116835260a01c9485602084015285810295818704149015171561075857815184519084166001600160a01b0316815261271086046020820152604090f35b634e487b7160e01b815260118652602490fd5b634e487b7160e01b835260418652602483fd5b83346104c35761030561079036610e76565b91610f1b565b5050346102005781600319360112610200576020906009549051908152f35b50826003193601126101ae576107c96110f8565b671bc16d674ec800003410610b645761013f6009541015610b2d578151916020928381019044825242838201523360601b6060820152605481526080810181811067ffffffffffffffff821117610b1a578352519020600854908115610b0757819006906108368261111b565b919061ffff809154600394851b1c169360001992838101908111610af4578261086161086e9261111b565b905490871b1c169161111b565b838293925491871b92831b921b19161790556008548015610ae1578201906108958261111b565b9091825491861b1b1916905560085560095460018101809111610ace576009558351916108c183610eab565b8783523315610ab75783885260028752848820546001600160a01b03168015159285929084610a86575b5033808b52908952868a2080546001019055828a5260028952868a2080546001600160a01b03191682179055907fddf252ad1be2c89b69c2b068fc378daa952ba7f163c4a11628f55a4df523b3ef8a80a4610a6f57333b610950575b85600160075580f35b8461098c9184959697945180938192630a85bd0160e11b96878452338b8501528860248501526044840152608060648401526084830190610e05565b038186335af1839181610a2b575b506109f45750503d156109ec573d6109b181610eff565b906109be84519283610edd565b81528091853d92013e5b805193846109e6578251633250574960e11b81523381860152602490fd5b84925001fd5b5060606109c8565b9194506001600160e01b031990911603610a145750503880808080610947565b602492505190633250574960e11b82523390820152fd5b9091508681813d8311610a68575b610a438183610edd565b81010312610a6457516001600160e01b031981168103610a6457903861099a565b8380fd5b503d610a39565b82516339e3563760e11b8152808501879052602490fd5b600084815260046020526040902080546001600160a01b0319169055828b52818a52878b20908154019055386108eb565b8451633250574960e11b8152808701899052602490fd5b634e487b7160e01b885260118652602488fd5b634e487b7160e01b895260318752602489fd5b634e487b7160e01b8a526011885260248afd5b634e487b7160e01b865260128452602486fd5b634e487b7160e01b875260418552602487fd5b6020606492519162461bcd60e51b8352820152601260248201527113585e081cdd5c1c1b1e481c995858da195960721b6044820152fd5b6020606492519162461bcd60e51b83528201526012602482015271496e73756666696369656e742066756e647360701b6044820152fd5b5090346101ae57806003193601126101ae57610bb5610e45565b91602435610bc2816110bd565b33151580610c64575b80610c3b575b610c25576001600160a01b039485169482918691167f8c5be1e5ebec7d5bd14f71427d1e84f3dd0314c0f7b2291e5b200ac8c7c3b9258880a48452602052822080546001600160a01b031916909117905580f35b835163a9fbf51f60e01b81523381850152602490fd5b506001600160a01b03811686526005602090815284872033885290528386205460ff1615610bd1565b506001600160a01b038116331415610bcb565b50346101ae5760203660031901126101ae57918260209335610c98816110bd565b50825283528190205490516001600160a01b039091168152f35b5091346104c357806003193601126104c3578151918182549260018460011c9160018616958615610d75575b60209687851081146104a6578899509688969785829a52918260001461047f575050600114610d1a575050506102709291610414910385610edd565b91908693508280527f290decd9548b62a8d60345a988386fc84ba6bc95484008f6362f93160ef3e5635b828410610d5d5750505082010181610414610270610401565b8054848a018601528895508794909301928101610d44565b92607f1692610cde565b925050346101ae5760203660031901126101ae573563ffffffff60e01b81168091036101ae576020925063152a902d60e11b8114908115610dc2575b5015158152f35b6380ac58cd60e01b811491508115610df4575b8115610de3575b5038610dbb565b6301ffc9a760e01b14905038610ddc565b635b5e139f60e01b81149150610dd5565b919082519283825260005b848110610e31575050826000602080949584010152601f8019910116010190565b602081830181015184830182015201610e10565b600435906001600160a01b0382168203610e5b57565b600080fd5b602435906001600160a01b0382168203610e5b57565b6060906003190112610e5b576001600160a01b03906004358281168103610e5b57916024359081168103610e5b579060443590565b6020810190811067ffffffffffffffff821117610ec757604052565b634e487b7160e01b600052604160045260246000fd5b90601f8019910116810190811067ffffffffffffffff821117610ec757604052565b67ffffffffffffffff8111610ec757601f01601f191660200190565b6001600160a01b0391821692909183156110a45760009282845282602095600287526040968488882054169687913315158061100b575b509060027fddf252ad1be2c89b69c2b068fc378daa952ba7f163c4a11628f55a4df523b3ef9284610fd8575b858352600381528b8320805460010190558683525289812080546001600160a01b0319168517905580a41692838303610fb75750505050565b6064945051926364283d7b60e01b8452600484015260248301526044820152fd5b600087815260046020526040902080546001600160a01b0319169055848352600381528b83208054600019019055610f7e565b91939450915080611063575b1561102757859291879138610f52565b878688611044576024915190637e27328960e01b82526004820152fd5b905163177e802f60e01b81523360048201526024810191909152604490fd5b503387148015611088575b806110175750858252600481523385898420541614611017565b5086825260058152878220338352815260ff888320541661106e565b604051633250574960e11b815260006004820152602490fd5b6000818152600260205260409020546001600160a01b03169081156110e0575090565b60249060405190637e27328960e01b82526004820152fd5b600260075414611109576002600755565b604051633ee5aeb560e01b8152600490fd5b9060085482101561115b576008600052601e8260041c7ff3f7a9fe364faab93b216da50a3214154f22a0a2b415b23a84c8169e8b636ee3019260011b1690565b634e487b7160e01b600052603260045260246000fd5b6006546001600160a01b0316330361118557565b60405163118cdaa760e01b8152336004820152602490fd5b813b6111aa575b50505050565b604051630a85bd0160e11b8082523360048301526001600160a01b039283166024830152604482019490945260806064820152602095929091169390929083906111f8906084830190610e05565b039285816000958187895af18491816112a1575b5061126c575050503d600014611264573d61122681610eff565b906112346040519283610edd565b81528091843d92013e5b8051928361125f57604051633250574960e11b815260048101849052602490fd5b019050fd5b50606061123e565b919450915063ffffffff60e01b16036112895750388080806111a4565b60249060405190633250574960e11b82526004820152fd5b9091508681813d83116112da575b6112b98183610edd565b810103126103a557516001600160e01b0319811681036103a557903861120c565b503d6112af56fea2646970667358221220548aeaeb508b875b7320385f02365147224641192feed8c2616357a60540df5364736f6c63430008190033290decd9548b62a8d60345a988386fc84ba6bc95484008f6362f93160ef3e563f3f7a9fe364faab93b216da50a3214154f22a0a2b415b23a84c8169e8b636ee3","linkReferences":{}},"methodIdentifiers":{"approve(address,uint256)":"095ea7b3","balanceOf(address)":"70a08231","getApproved(uint256)":"081812fc","isApprovedForAll(address,address)":"e985e9c5","maxSupply()":"d5abeb01","mint()":"1249c58b","mintPrice()":"6817c76c","name()":"06fdde03","owner()":"8da5cb5b","ownerOf(uint256)":"6352211e","premintSupply()":"74b1ceaf","renounceOwnership()":"715018a6","royaltyInfo(uint256,uint256)":"2a55205a","safeTransferFrom(address,address,uint256)":"42842e0e","safeTransferFrom(address,address,uint256,bytes)":"b88d4fde","setApprovalForAll(address,bool)":"a22cb465","supportsInterface(bytes4)":"01ffc9a7","symbol()":"95d89b41","tokenURI(uint256)":"c87b56dd","totalSupply()":"18160ddd","transferFrom(address,address,uint256)":"23b872dd","transferOwnership(address)":"f2fde38b","withdraw()":"3ccfd60b"},"id":1}