{"abi":[{"type":"constructor","inputs":[{"name":"name_","type":"string","internalType":"string"},{"name":"symbol_","type":"string","internalType":"string"}],"stateMutability":"nonpayable"},{"type":"function","name":"approve","inputs":[{"name":"to","type":"address","internalType":"address"},{"name":"tokenId","type":"uint256","internalType":"uint256"}],"outputs":[],"stateMutability":"nonpayable"},{"type":"function","name":"balanceOf","inputs":[{"name":"owner","type":"address","internalType":"address"}],"outputs":[{"name":"","type":"uint256","internalType":"uint256"}],"stateMutability":"view"},{"type":"function","name":"getApproved","inputs":[{"name":"tokenId","type":"uint256","internalType":"uint256"}],"outputs":[{"name":"","type":"address","internalType":"address"}],"stateMutability":"view"},{"type":"function","name":"isApprovedForAll","inputs":[{"name":"owner","type":"address","internalType":"address"},{"name":"operator","type":"address","internalType":"address"}],"outputs":[{"name":"","type":"bool","internalType":"bool"}],"stateMutability":"view"},{"type":"function","name":"maxSupply","inputs":[],"outputs":[{"name":"","type":"uint256","internalType":"uint256"}],"stateMutability":"view"},{"type":"function","name":"mint","inputs":[],"outputs":[],"stateMutability":"nonpayable"},{"type":"function","name":"name","inputs":[],"outputs":[{"name":"","type":"string","internalType":"string"}],"stateMutability":"view"},{"type":"function","name":"ownerOf","inputs":[{"name":"tokenId","type":"uint256","internalType":"uint256"}],"outputs":[{"name":"","type":"address","internalType":"address"}],"stateMutability":"view"},{"type":"function","name":"premintSupply","inputs":[],"outputs":[{"name":"","type":"uint256","internalType":"uint256"}],"stateMutability":"view"},{"type":"function","name":"royaltyInfo","inputs":[{"name":"tokenId","type":"uint256","internalType":"uint256"},{"name":"salePrice","type":"uint256","internalType":"uint256"}],"outputs":[{"name":"","type":"address","internalType":"address"},{"name":"","type":"uint256","internalType":"uint256"}],"stateMutability":"view"},{"type":"function","name":"safeTransferFrom","inputs":[{"name":"from","type":"address","internalType":"address"},{"name":"to","type":"address","internalType":"address"},{"name":"tokenId","type":"uint256","internalType":"uint256"}],"outputs":[],"stateMutability":"nonpayable"},{"type":"function","name":"safeTransferFrom","inputs":[{"name":"from","type":"address","internalType":"address"},{"name":"to","type":"address","internalType":"address"},{"name":"tokenId","type":"uint256","internalType":"uint256"},{"name":"data","type":"bytes","internalType":"bytes"}],"outputs":[],"stateMutability":"nonpayable"},{"type":"function","name":"setApprovalForAll","inputs":[{"name":"operator","type":"address","internalType":"address"},{"name":"approved","type":"bool","internalType":"bool"}],"outputs":[],"stateMutability":"nonpayable"},{"type":"function","name":"supportsInterface","inputs":[{"name":"interfaceId","type":"bytes4","internalType":"bytes4"}],"outputs":[{"name":"","type":"bool","internalType":"bool"}],"stateMutability":"view"},{"type":"function","name":"symbol","inputs":[],"outputs":[{"name":"","type":"string","internalType":"string"}],"stateMutability":"view"},{"type":"function","name":"tokenURI","inputs":[{"name":"tokenId","type":"uint256","internalType":"uint256"}],"outputs":[{"name":"","type":"string","internalType":"string"}],"stateMutability":"view"},{"type":"function","name":"totalSupply","inputs":[],"outputs":[{"name":"","type":"uint256","internalType":"uint256"}],"stateMutability":"view"},{"type":"function","name":"transferFrom","inputs":[{"name":"from","type":"address","internalType":"address"},{"name":"to","type":"address","internalType":"address"},{"name":"tokenId","type":"uint256","internalType":"uint256"}],"outputs":[],"stateMutability":"nonpayable"},{"type":"event","name":"Approval","inputs":[{"name":"owner","type":"address","indexed":true,"internalType":"address"},{"name":"approved","type":"address","indexed":true,"internalType":"address"},{"name":"tokenId","type":"uint256","indexed":true,"internalType":"uint256"}],"anonymous":false},{"type":"event","name":"ApprovalForAll","inputs":[{"name":"owner","type":"address","indexed":true,"internalType":"address"},{"name":"operator","type":"address","indexed":true,"internalType":"address"},{"name":"approved","type":"bool","indexed":false,"internalType":"bool"}],"anonymous":false},{"type":"event","name":"Transfer","inputs":[{"name":"from","type":"address","indexed":true,"internalType":"address"},{"name":"to","type":"address","indexed":true,"internalType":"address"},{"name":"tokenId","type":"uint256","indexed":true,"internalType":"uint256"}],"anonymous":false},{"type":"error","name":"ERC2981InvalidDefaultRoyalty","inputs":[{"name":"numerator","type":"uint256","internalType":"uint256"},{"name":"denominator","type":"uint256","internalType":"uint256"}]},{"type":"error","name":"ERC2981InvalidDefaultRoyaltyReceiver","inputs":[{"name":"receiver","type":"address","internalType":"address"}]},{"type":"error","name":"ERC721IncorrectOwner","inputs":[{"name":"sender","type":"address","internalType":"address"},{"name":"tokenId","type":"uint256","internalType":"uint256"},{"name":"owner","type":"address","internalType":"address"}]},{"type":"error","name":"ERC721InsufficientApproval","inputs":[{"name":"operator","type":"address","internalType":"address"},{"name":"tokenId","type":"uint256","internalType":"uint256"}]},{"type":"error","name":"ERC721InvalidApprover","inputs":[{"name":"approver","type":"address","internalType":"address"}]},{"type":"error","name":"ERC721InvalidOperator","inputs":[{"name":"operator","type":"address","internalType":"address"}]},{"type":"error","name":"ERC721InvalidOwner","inputs":[{"name":"owner","type":"address","internalType":"address"}]},{"type":"error","name":"ERC721InvalidReceiver","inputs":[{"name":"receiver","type":"address","internalType":"address"}]},{"type":"error","name":"ERC721InvalidSender","inputs":[{"name":"sender","type":"address","internalType":"address"}]},{"type":"error","name":"ERC721NonexistentToken","inputs":[{"name":"tokenId","type":"uint256","internalType":"uint256"}]},{"type":"error","name":"ReentrancyGuardReentrantCall","inputs":[]}],"bytecode":{"object":"0x60406080815234610def57611b8a8038038061001a81610df4565b92833981018282820312610def5781516001600160401b0390818111610def5782610046918501610e19565b9260209283820151838111610def5761005f9201610e19565b92805192828411610dd9576000948554946001938487811c97168015610dcf575b84881014610d07578190601f97888111610da3575b508490888311600114610d44578992610d39575b5050600019600383901b1c191690841b1786555b805190848211610d255783548481811c91168015610d1b575b84821014610d0757908187849311610cd1575b508390878311600114610c72578892610c67575b5050600019600383901b1c191690831b1782555b816006558551926127e084019084821090821117610c5357865260bb83526101038184015260628684015260b260608401526101266080840152608060a084015261011560c0840152602460e08401526101009060d88285015261012094608c8686015260b0610140860152607961016086015260c761018086015260a56101a08601526101286101c086015260da6101e086015260ed61020086015260a961022086015261010161024086015260c861026086015261011661028086015260176102a086015260876102c086015260236102e086015261011e610300860152604e610320860152601461034086015260c9610360860152610109610380860152606f6103a086015260ec6103c086015260476103e0860152603e61040086015261011261042086015260906104408601526013956013610460870152607061048087015260e86104a08701526101146104c0870152607d6104e0870152608a61050087015261011861052087015260ac610540870152606561056087015261010e61058087015260746105a087015260446105c087015260086105e08701526049610600870152605c6106208701526038610640870152608361066087015261013e61068087015260866106a087015260546106c087015260316106e0870152601a61070087015260076107208701526101376107408701526022610760870152600d610780870152602c6107a087015261011c6107c087015260be6107e0870152610800860152606661082086015260d2610840860152605f610860860152604661088086015261013a6108a086015261012e6108c086015260b96108e086015260c461090086015261010f610920860152605a610940860152609e610960860152610105610980860152609a6109a086015261013d6109c086015260516109e0860152606a610a008601526026610a20860152610106610a40860152601c610a60860152600a610a808601526097610aa08601526034610ac08601526011610ae08601526035610b0086015260e6610b208601526052610b408601526042610b608601526037610b8086015260eb610ba0860152605b610bc08601526043610be0860152608e610c0086015260f9610c20860152610113610c408601526089610c6086015260ea610c8086015260d1610ca086015261012d610cc08601526019610ce086015260df610d0086015260d0610d208601526032610d4086015260e0610d6086015260a0610d8086015260f0610da0860152606e610dc0860152600b610de086015260d3610e0086015261011a610e2086015260ba610e4086015260af610e6086015261012f610e80860152603c610ea0860152607c610ec086015261013b610ee0860152604c610f008601526009610f208601526033610f408601526027610f608601526068610f808601526056610fa08601526059610fc086015260bf610fe0860152608461100086015260ab61102086015260e461104086015260bc61106086015261010c61108086015261012a6110a0860152816110c08601526110e0850152605361110085015260e561112085015260e161114085015261011761116085015260f361118085015260fc6111a0850152603b6111c085015260ae6111e0850152605d611200850152605e61122085015260166112408501526095611260850152609c6112808501526101396112a0850152607f6112c085015260736112e085015260e261130085015260fe611320850152606161134085015260cb61136085015260c261138085015260036113a085015260a86113c085015260d46113e08501526050611400850152600e61142085015261012461144085015260816114608501528561148085015260f76114a085015260b66114c085015260d96114e0850152608561150085015260996115208501526092611540850152606d611560850152610110611580850152606c6115a08501526101046115c08501526101196115e085015261013461160085015260a3611620850152610132611640850152610131611660850152608b61168085015260b86116a085015260966116c085015260986116e0850152601d6117008501526075611720850152601261174085015260a261176085015260776117808501526101236117a085015260a66117c085015260786117e0850152606b61180085015260186118208501528261184085015260ce61186085015261010b61188085015261011d6118a0850152608f6118c08501526101026118e085015260fb611900850152600f91600f61192086015260bd611940860152600261196086015260936119808601526101386119a08601526101366119c0860152602d6119e0860152609f611a008601526021611a20860152602f611a4086015260c0611a60860152610135611a8086015261012c611aa086015260ee611ac086015260d7611ae086015260c1611b0086015287611b20860152610108611b408601526028611b6086015260fd611b8086015260cd611ba08601526055611bc0860152610125611be086015260f5611c0086015260e7611c208601526036611c40860152608d611c60860152604d611c80860152609d611ca08601526071611cc0860152603f611ce0860152604f611d0086015260aa611d20860152610111611d40860152611d6085015260db611d80850152610130611da085015260a1611dc0850152601e611de085015260c3611e008501526039611e208501526060611e408501526064611e608501526005611e8085015260de611ea0850152610122611ec08501526082611ee085015260e9611f0085015260a4611f2085015261011f611f40850152610127611f608501526072611f80850152610107611fa08501526025611fc08501526067611fe08501526088612000850152604161202085015261010d61204085015260c56120608501526045612080850152603d6120a0850152602e6120c085015260a76120e08501526057612100850152604861212085015260cf61214085015261010a6121608501526101336121808501526101216121a0850152601b6121c085015260ad6121e0850152609b61220085015260f861222085015260b16122408501526006612260850152607a61228085015260046122a085015260946122c085015260b46122e08501526010936010612300820152607b612320820152604b61234082015260fa61236082015260c661238082015260636123a082015260dd6123c082015261011b6123e082015260ff612400820152602b612420820152601561244082015260d5612460820152602961248082015260916124a0820152602a6124c082015260b76124e08201526069612500820152607e612520820152603061254082015260dc61256082015260ca61258082015260cc6125a082015260ef6125c082015260f66125e082015260b561260082015260b3612620820152603a61264082015261012b61266082015260f461268082015260d66126a082015261013c6126c082015260586126e082015260e36127008201526076612720820152604a612740820152610129612760820152600c61278082015260f26127a082015260f16127c08201526007548061013f8060075510610c20575b509492919094926007875285872094875b828110610bd9575050508594865b828110610ba557888888601389015560085551610cee9081610e9c8239f35b90919282610bcd869861ffff849851169085851b60031b9161ffff809116831b921b19161790565b97019493929101610b86565b889793949597895b838110610bf957508782015592969493928401610b78565b89519099918891879161ffff8d851b60031b81811b199092169216901b1792019901610be1565b600788528288206013810180546001600160f01b03169055610c4d91600f0160041c810190601401610e84565b38610b67565b634e487b7160e01b86526041600452602486fd5b0151905038806100fd565b8589528489208694509190601f1984168a5b87828210610cbb5750508411610ca2575b505050811b018255610111565b015160001960f88460031b161c19169055388080610c95565b8385015186558997909501949384019301610c84565b610cf890868a52858a208980860160051c820192888710610cfe575b0160051c0190610e84565b386100e9565b92508192610ced565b634e487b7160e01b88526022600452602488fd5b90607f16906100d6565b634e487b7160e01b87526041600452602487fd5b0151905038806100a9565b898052858a208794509190601f1984168b5b88828210610d8d5750508411610d74575b505050811b0186556100bd565b015160001960f88460031b161c19169055388080610d67565b8385015186558a97909501949384019301610d56565b610dc9908a8052868b208a80860160051c820192898710610cfe570160051c0190610e84565b38610095565b96607f1696610080565b634e487b7160e01b600052604160045260246000fd5b600080fd5b6040519190601f01601f191682016001600160401b03811183821017610dd957604052565b919080601f84011215610def5782516001600160401b038111610dd957602090610e4b601f8201601f19168301610df4565b92818452828287010111610def5760005b818110610e7157508260009394955001015290565b8581018301518482018401528201610e5c565b818110610e8f575050565b60008155600101610e8456fe608060408181526004918236101561001657600080fd5b600092833560e01c91826301ffc9a7146107f75750816306fdde031461072a578163081812fc146106ee578163095ea7b3146106115781631249c58b1461059a57816318160ddd1461057b57816323b872dd146105635781632a55205a146104c157816342842e0e146104985781636352211e1461046757816370a082311461041257816374b1ceaf146103f657816395d89b41146102d9578163a22cb46514610237578163b88d4fde146101a9578163c87b56dd1461015757508063d5abeb011461013b5763e985e9c5146100eb57600080fd5b3461013757806003193601126101375760ff816020936101096108bc565b6101116108d7565b6001600160a01b0391821683526005875283832091168252855220549151911615158152f35b5080fd5b50346101375781600319360112610137576020905161013f8152f35b838334610137576020366003190112610137576101776101a59335610c7d565b5081815161018481610922565b5280519161019183610922565b82525191829160208352602083019061087c565b0390f35b91905034610233576080366003190112610233576101c56108bc565b6101cd6108d7565b846064359467ffffffffffffffff8611610137573660238701121561013757850135946102056101fc87610976565b95519586610954565b8585523660248783010111610137578561023096602460209301838801378501015260443591610b2e565b80f35b8280fd5b919050346102335780600319360112610233576102526108bc565b90602435918215158093036102d5576001600160a01b03169283156102c05750338452600560205280842083855260205280842060ff1981541660ff8416179055519081527f17307eab39ab6107e8899845ad3d59bd9653f200f220920489ca2b5937696c3160203392a380f35b836024925191630b61174360e31b8352820152fd5b8480fd5b8284346103f357806003193601126103f35781519181600192600154938460011c91600186169586156103e9575b60209687851081146103d6578899509688969785829a5291826000146103af575050600114610353575b5050506101a59291610344910385610954565b5192828493845283019061087c565b9190869350600183527fb10e2d527612073b26eecdfd717e6a320cf44b4afac2b0732d9fcbe2b7fa0cf65b82841061039757505050820101816103446101a5610331565b8054848a01860152889550879490930192810161037e565b60ff19168782015293151560051b8601909301935084925061034491506101a59050610331565b634e487b7160e01b835260228a52602483fd5b92607f1692610307565b80fd5b5050346101375781600319360112610137576020905160268152f35b8284346103f35760203660031901126103f3576001600160a01b036104356108bc565b169283156104525750806020938392526003845220549051908152f35b91516322718ad960e21b815291820152602490fd5b8284346103f35760203660031901126103f3575061048760209235610c7d565b90516001600160a01b039091168152f35b50503461013757610230906104ac366108ed565b919251926104b984610922565b858452610b2e565b83833461013757806003193601126101375760243591815182810181811067ffffffffffffffff8211176105505783526009549160018060a01b0392838116835260a01c9485602084015285810295818704149015171561053d57815184519084166001600160a01b0316815261271086046020820152604090f35b634e487b7160e01b815260118652602490fd5b634e487b7160e01b835260418652602483fd5b83346103f357610230610575366108ed565b91610992565b5050346101375781600319360112610137576020906008549051908152f35b919050346102335782600319360112610233576002600654146106045761013f60085410156105cc5782600160065580f35b906020606492519162461bcd60e51b8352820152601260248201527113585e081cdd5c1c1b1e481c995858da195960721b6044820152fd5b51633ee5aeb560e01b8152fd5b9190503461023357806003193601126102335761062c6108bc565b9160243561063981610c7d565b331515806106db575b806106b2575b61069c576001600160a01b039485169482918691167f8c5be1e5ebec7d5bd14f71427d1e84f3dd0314c0f7b2291e5b200ac8c7c3b9258880a48452602052822080546001600160a01b031916909117905580f35b835163a9fbf51f60e01b81523381850152602490fd5b506001600160a01b03811686526005602090815284872033885290528386205460ff1615610648565b506001600160a01b038116331415610642565b9050346102335760203660031901126102335791826020933561071081610c7d565b50825283528190205490516001600160a01b039091168152f35b8284346103f357806003193601126103f3578151918182549260018460011c91600186169586156107ed575b60209687851081146103d6578899509688969785829a5291826000146103af575050600114610792575050506101a59291610344910385610954565b91908693508280527f290decd9548b62a8d60345a988386fc84ba6bc95484008f6362f93160ef3e5635b8284106107d557505050820101816103446101a5610331565b8054848a0186015288955087949093019281016107bc565b92607f1692610756565b849134610233576020366003190112610233573563ffffffff60e01b8116809103610233576020925063152a902d60e11b8114908115610839575b5015158152f35b6380ac58cd60e01b81149150811561086b575b811561085a575b5083610832565b6301ffc9a760e01b14905083610853565b635b5e139f60e01b8114915061084c565b919082519283825260005b8481106108a8575050826000602080949584010152601f8019910116010190565b602081830181015184830182015201610887565b600435906001600160a01b03821682036108d257565b600080fd5b602435906001600160a01b03821682036108d257565b60609060031901126108d2576001600160a01b039060043582811681036108d2579160243590811681036108d2579060443590565b6020810190811067ffffffffffffffff82111761093e57604052565b634e487b7160e01b600052604160045260246000fd5b90601f8019910116810190811067ffffffffffffffff82111761093e57604052565b67ffffffffffffffff811161093e57601f01601f191660200190565b916001600160a01b03918216918215610b1557600093828552826020946002865260409584878920541696879133151580610a7c575b509060027fddf252ad1be2c89b69c2b068fc378daa952ba7f163c4a11628f55a4df523b3ef9284610a4d575b858c5260038152828c2080546001019055868c5252808a2080546001600160a01b03191685179055519880a416808303610a2e5750505050565b6364283d7b60e01b845260048401526024830152604482015260649150fd5b868c5260048152828c2080546001600160a01b0319169055848c5260038152828c2080546000190190556109f4565b91939450915080610ad4575b15610a98578592918791386109c8565b508486610ab5576024915190637e27328960e01b82526004820152fd5b905163177e802f60e01b81523360048201526024810191909152604490fd5b503387148015610af9575b80610a885750858852600481523385838a20541614610a88565b5086885260058152818820338952815260ff8289205416610adf565b604051633250574960e11b815260006004820152602490fd5b610b39838383610992565b813b610b46575b50505050565b604051630a85bd0160e11b8082523360048301526001600160a01b03928316602483015260448201949094526080606482015260209592909116939092908390610b9490608483019061087c565b039285816000958187895af1849181610c3d575b50610c08575050503d600014610c00573d610bc281610976565b90610bd06040519283610954565b81528091843d92013e5b80519283610bfb57604051633250574960e11b815260048101849052602490fd5b019050fd5b506060610bda565b919450915063ffffffff60e01b1603610c25575038808080610b40565b60249060405190633250574960e11b82526004820152fd5b9091508681813d8311610c76575b610c558183610954565b810103126102d557516001600160e01b0319811681036102d5579038610ba8565b503d610c4b565b6000818152600260205260409020546001600160a01b0316908115610ca0575090565b60249060405190637e27328960e01b82526004820152fdfea2646970667358221220d7949a3394c4e4ac78765536fb00972db63b7d7a861fa51a6f3b86b1beee9b7364736f6c63430008190033","linkReferences":{}},"methodIdentifiers":{"approve(address,uint256)":"095ea7b3","balanceOf(address)":"70a08231","getApproved(uint256)":"081812fc","isApprovedForAll(address,address)":"e985e9c5","maxSupply()":"d5abeb01","mint()":"1249c58b","name()":"06fdde03","ownerOf(uint256)":"6352211e","premintSupply()":"74b1ceaf","royaltyInfo(uint256,uint256)":"2a55205a","safeTransferFrom(address,address,uint256)":"42842e0e","safeTransferFrom(address,address,uint256,bytes)":"b88d4fde","setApprovalForAll(address,bool)":"a22cb465","supportsInterface(bytes4)":"01ffc9a7","symbol()":"95d89b41","tokenURI(uint256)":"c87b56dd","totalSupply()":"18160ddd","transferFrom(address,address,uint256)":"23b872dd"},"id":1}