{"abi":[{"type":"function","name":"getDiffAngle","inputs":[{"name":"azimuth","type":"int256","internalType":"int256"},{"name":"heading","type":"int256","internalType":"int256"}],"outputs":[{"name":"","type":"int256","internalType":"int256"}],"stateMutability":"pure"},{"type":"function","name":"renderAirplanes","inputs":[{"name":"svg","type":"string","internalType":"string"},{"name":"timestamp","type":"uint256","internalType":"uint256"},{"name":"tokenId","type":"uint256","internalType":"uint256"},{"name":"horizonInPx","type":"uint256","internalType":"uint256"},{"name":"motifType","type":"MotifType","internalType":"enum MotifType"}],"outputs":[{"name":"","type":"string","internalType":"string"},{"name":"","type":"string","internalType":"string"}],"stateMutability":"pure"},{"type":"function","name":"renderFlower","inputs":[{"name":"svg","type":"string","internalType":"string"},{"name":"sunMoon","type":"tuple","internalType":"struct SunMoon","components":[{"name":"sunrise","type":"uint256","internalType":"uint256"},{"name":"sunset","type":"uint256","internalType":"uint256"},{"name":"altitude","type":"int256","internalType":"int256"},{"name":"azimuth","type":"int256","internalType":"int256"},{"name":"moonAzimuth","type":"int256","internalType":"int256"},{"name":"moonAltitude","type":"int256","internalType":"int256"},{"name":"parallacticAngle","type":"int256","internalType":"int256"},{"name":"fraction","type":"int256","internalType":"int256"},{"name":"angle","type":"int256","internalType":"int256"}]},{"name":"heading","type":"int256","internalType":"int256"},{"name":"flowerType","type":"FlowerType","internalType":"enum FlowerType"},{"name":"flowerParts","type":"tuple","internalType":"struct FlowerParts","components":[{"name":"back","type":"string","internalType":"string"},{"name":"front","type":"string","internalType":"string"},{"name":"blossom","type":"string","internalType":"string"},{"name":"stick","type":"string","internalType":"string"}]},{"name":"hasPot","type":"bool","internalType":"bool"},{"name":"tokenId","type":"uint256","internalType":"uint256"}],"outputs":[{"name":"","type":"string","internalType":"string"}],"stateMutability":"pure"},{"type":"function","name":"renderLighthouse","inputs":[{"name":"svg","type":"string","internalType":"string"},{"name":"altitude","type":"int256","internalType":"int256"},{"name":"timestamp","type":"uint256","internalType":"uint256"},{"name":"tokenId","type":"uint256","internalType":"uint256"}],"outputs":[{"name":"","type":"string","internalType":"string"}],"stateMutability":"pure"},{"type":"function","name":"renderMainScene","inputs":[{"name":"svg","type":"string","internalType":"string"},{"name":"timestamp","type":"uint256","internalType":"uint256"},{"name":"tokenID","type":"uint256","internalType":"uint256"},{"name":"scenes","type":"tuple[]","internalType":"struct SceneInMotif[]","components":[{"name":"placeHolder","type":"string","internalType":"string"},{"name":"sceneDetails","type":"tuple[]","internalType":"struct Scene[]","components":[{"name":"area","type":"int256[4]","internalType":"int256[4]"},{"name":"assets","type":"uint256[]","internalType":"uint256[]"},{"name":"scale","type":"uint256","internalType":"uint256"}]}]},{"name":"assetsInScene","type":"tuple[]","internalType":"struct AssetInScene[]","components":[{"name":"name","type":"string","internalType":"string"},{"name":"minDuration","type":"uint256","internalType":"uint256"},{"name":"maxDuration","type":"uint256","internalType":"uint256"},{"name":"checkInterval","type":"uint256","internalType":"uint256"},{"name":"possibleOffset","type":"uint256","internalType":"uint256"},{"name":"probability","type":"uint256","internalType":"uint256"},{"name":"dayTime","type":"DAYTIME","internalType":"enum DAYTIME"}]},{"name":"sunrise","type":"uint256","internalType":"uint256"},{"name":"sunset","type":"uint256","internalType":"uint256"}],"outputs":[{"name":"","type":"string","internalType":"string"},{"name":"","type":"string","internalType":"string"}],"stateMutability":"pure"},{"type":"function","name":"renderMoon","inputs":[{"name":"tokenId","type":"uint256","internalType":"uint256"},{"name":"heading","type":"int256","internalType":"int256"},{"name":"skyHeight","type":"int256","internalType":"int256"},{"name":"azimuth","type":"int256","internalType":"int256"},{"name":"altitude","type":"int256","internalType":"int256"},{"name":"pa","type":"int256","internalType":"int256"},{"name":"fraction","type":"int256","internalType":"int256"},{"name":"angle","type":"int256","internalType":"int256"}],"outputs":[{"name":"","type":"string","internalType":"string"}],"stateMutability":"pure"},{"type":"function","name":"renderMovingAsset","inputs":[{"name":"timestamp","type":"uint256","internalType":"uint256"},{"name":"salt","type":"string","internalType":"string"},{"name":"assetName","type":"string","internalType":"string"},{"name":"minY","type":"uint256","internalType":"uint256"},{"name":"maxY","type":"uint256","internalType":"uint256"},{"name":"horizontUp","type":"bool","internalType":"bool"},{"name":"minScale","type":"uint256","internalType":"uint256"},{"name":"maxScale","type":"uint256","internalType":"uint256"},{"name":"duration","type":"uint256","internalType":"uint256"},{"name":"checkInterval","type":"uint256","internalType":"uint256"},{"name":"appearanceProbability","type":"uint256","internalType":"uint256"},{"name":"possibleOffset","type":"uint256","internalType":"uint256"}],"outputs":[{"name":"","type":"string","internalType":"string"}],"stateMutability":"pure"},{"type":"function","name":"renderSceneAssets","inputs":[{"name":"sceneInMotif","type":"tuple","internalType":"struct SceneInMotif","components":[{"name":"placeHolder","type":"string","internalType":"string"},{"name":"sceneDetails","type":"tuple[]","internalType":"struct Scene[]","components":[{"name":"area","type":"int256[4]","internalType":"int256[4]"},{"name":"assets","type":"uint256[]","internalType":"uint256[]"},{"name":"scale","type":"uint256","internalType":"uint256"}]}]},{"name":"assets","type":"tuple[]","internalType":"struct AssetInScene[]","components":[{"name":"name","type":"string","internalType":"string"},{"name":"minDuration","type":"uint256","internalType":"uint256"},{"name":"maxDuration","type":"uint256","internalType":"uint256"},{"name":"checkInterval","type":"uint256","internalType":"uint256"},{"name":"possibleOffset","type":"uint256","internalType":"uint256"},{"name":"probability","type":"uint256","internalType":"uint256"},{"name":"dayTime","type":"DAYTIME","internalType":"enum DAYTIME"}]},{"name":"sceneUtils","type":"tuple","internalType":"struct NDRenderer.SceneUtils","components":[{"name":"sunrise","type":"uint256","internalType":"uint256"},{"name":"sunset","type":"uint256","internalType":"uint256"},{"name":"timestamp","type":"uint256","internalType":"uint256"},{"name":"tokenId","type":"uint256","internalType":"uint256"}]}],"outputs":[{"name":"","type":"tuple","internalType":"struct NDRenderer.RenderedScene","components":[{"name":"sceneSvg","type":"string","internalType":"string"},{"name":"nightMaskSvg","type":"string","internalType":"string"}]}],"stateMutability":"pure"},{"type":"function","name":"renderSun","inputs":[{"name":"skyHeight","type":"uint256","internalType":"uint256"},{"name":"azimuth","type":"int256","internalType":"int256"},{"name":"altitude","type":"int256","internalType":"int256"},{"name":"heading","type":"uint256","internalType":"uint256"}],"outputs":[{"name":"","type":"string","internalType":"string"}],"stateMutability":"pure"},{"type":"function","name":"renderSunclock","inputs":[{"name":"svg","type":"string","internalType":"string"},{"name":"azimuth","type":"int256","internalType":"int256"},{"name":"altitude","type":"int256","internalType":"int256"},{"name":"heading","type":"int256","internalType":"int256"}],"outputs":[{"name":"","type":"string","internalType":"string"}],"stateMutability":"view"},{"type":"function","name":"renderWaterScene","inputs":[{"name":"svg","type":"string","internalType":"string"},{"name":"timestamp","type":"uint256","internalType":"uint256"},{"name":"tokenId","type":"uint256","internalType":"uint256"},{"name":"motif","type":"tuple","internalType":"struct Motif","components":[{"name":"name","type":"string","internalType":"string"},{"name":"lat","type":"int256","internalType":"int256"},{"name":"lng","type":"int256","internalType":"int256"},{"name":"heading","type":"int256","internalType":"int256"},{"name":"horizon","type":"int256","internalType":"int256"},{"name":"svg","type":"string","internalType":"string"},{"name":"scenes","type":"tuple[]","internalType":"struct SceneInMotif[]","components":[{"name":"placeHolder","type":"string","internalType":"string"},{"name":"sceneDetails","type":"tuple[]","internalType":"struct Scene[]","components":[{"name":"area","type":"int256[4]","internalType":"int256[4]"},{"name":"assets","type":"uint256[]","internalType":"uint256[]"},{"name":"scale","type":"uint256","internalType":"uint256"}]}]},{"name":"replacements","type":"tuple[]","internalType":"struct Replacement[]","components":[{"name":"tag","type":"ObjectType","internalType":"enum ObjectType"},{"name":"dataType","type":"RenderDataType","internalType":"enum RenderDataType"},{"name":"data","type":"int256[]","internalType":"int256[]"},{"name":"placeholder","type":"string","internalType":"string"},{"name":"ref","type":"string","internalType":"string"}]},{"name":"motifType","type":"MotifType","internalType":"enum MotifType"}]}],"outputs":[{"name":"","type":"string","internalType":"string"}],"stateMutability":"pure"},{"type":"function","name":"sortElements","inputs":[{"name":"elements","type":"tuple[]","internalType":"struct SceneElement[]","components":[{"name":"y","type":"uint256","internalType":"uint256"},{"name":"x","type":"int256","internalType":"int256"},{"name":"xScale","type":"int256","internalType":"int256"},{"name":"svg","type":"string","internalType":"string"},{"name":"posSalt","type":"string","internalType":"string"},{"name":"decimalScaleX","type":"string","internalType":"string"},{"name":"decimalScaleY","type":"string","internalType":"string"}]}],"outputs":[{"name":"","type":"tuple[]","internalType":"struct SceneElement[]","components":[{"name":"y","type":"uint256","internalType":"uint256"},{"name":"x","type":"int256","internalType":"int256"},{"name":"xScale","type":"int256","internalType":"int256"},{"name":"svg","type":"string","internalType":"string"},{"name":"posSalt","type":"string","internalType":"string"},{"name":"decimalScaleX","type":"string","internalType":"string"},{"name":"decimalScaleY","type":"string","internalType":"string"}]}],"stateMutability":"pure"}],"bytecode":{"object":"0x60808060405234601957615d6a908161001f823930815050f35b600080fdfe6080604052600436101561001257600080fd5b60003560e01c806331ae97d0146100d75780635f7a1862146100d257806375fd56ba146100cd57806386689cfb146100c857806388134137146100c3578063955cb78f146100be57806398d37b63146100b95780639a085c48146100b4578063b057948e146100af578063b6ad9795146100aa578063d49f8002146100a55763fdb68cd3146100a057600080fd5b610f91565b610f61565b610e11565b610cc6565b610c32565b6109f4565b610689565b610665565b610623565b6104ff565b610401565b6102d9565b634e487b7160e01b600052604160045260246000fd5b604081019081106001600160401b0382111761010d57604052565b6100dc565b606081019081106001600160401b0382111761010d57604052565b608081019081106001600160401b0382111761010d57604052565b60a081019081106001600160401b0382111761010d57604052565b602081019081106001600160401b0382111761010d57604052565b61044081019081106001600160401b0382111761010d57604052565b90601f801991011681019081106001600160401b0382111761010d57604052565b604051906101c88261012d565b565b6040519061012082018281106001600160401b0382111761010d57604052565b604051906101c882610148565b6040519060e082018281106001600160401b0382111761010d57604052565b6001600160401b03811161010d57601f01601f191660200190565b81601f820112156102785780359061024882610216565b92610256604051948561019a565b8284526020838301011161027857816000926020809301838601378301015290565b600080fd5b60005b8381106102905750506000910152565b8181015183820152602001610280565b906020916102b98151809281855285808601910161027d565b601f01601f1916010190565b9060206102d69281815201906102a0565b90565b6080366003190112610278576004356001600160401b0381116102785761031b61030a61032f923690600401610231565b60643590604435906024359061140c565b6040519182916020835260208301906102a0565b0390f35b6004111561027857565b61016435906101c882610333565b35906101c882610333565b9190916080818403126102785761036b6101bb565b926001600160401b0382358181116102785782610389918501610231565b8552602083013581811161027857826103a3918501610231565b6020860152604083013581811161027857826103c0918501610231565b60408601526060830135908111610278576103db9201610231565b6060830152565b6101a43590811515820361027857565b60a43590811515820361027857565b6101e0366003190112610278576001600160401b036004358181116102785761042e903690600401610231565b50610120366023190112610278576104446101ca565b90602435825260443560208301526064356040830152608435606083015260a435608083015260c43560a083015260e43560c08301526101043560e08301526101243561010083015261049561033d565b91610184359182116102785761032f926104b66104ce933690600401610356565b6104be6103e2565b916101c435936101443590611aac565b604051918291826102c5565b90916104f16102d6936040845260408401906102a0565b9160208184039101526102a0565b60a0366003190112610278576004356001600160401b0381116102785761052a903690600401610231565b6105e26044356105d36064356105cd602435600160843561054a81610333565b6105538161160d565b14801561061b575b8015610611575b8015610607575b80156105fd575b156105f257610586610580611f57565b95615601565b946105a261059385611f79565b61059b611fb2565b8885613c56565b956105c76105c16105b287611f79565b6105ba611fd7565b848761406f565b95611ff8565b926143ef565b92612021565b926105dc612062565b90615422565b9061032f604051928392836104da565b610586610580611f35565b50600e8514610570565b5060038514610569565b5060018514610562565b50841561055b565b6080366003190112610278576004356001600160401b0381116102785761031b61065461032f923690600401610231565b606435906044359060243590612201565b60403660031901126102785760206106816024356004356123c1565b604051908152f35b60803660031901126102785761032f61031b6064356044356024356004356125b1565b6001600160401b03811161010d5760051b60200190565b9080601f830112156102785760209082356106dd816106ac565b936106eb604051958661019a565b81855260208086019260051b82010192831161027857602001905b828210610714575050505090565b81358152908301908301610706565b919091604090818185031261027857815161073d816100f2565b80948235906001600160401b0391828111610278578161075e918601610231565b8352602093848101359083821161027857019181601f8401121561027857823590610788826106ac565b966107958151988961019a565b828852868089019360051b8601019484861161027857878101935b8685106107c257505050505050500152565b84358481116102785782019060c09081601f19848a0301126102785784516107e981610112565b88603f850112156102785785516107ff8161012d565b8060a08601918b8311610278578e808801915b84831061084e575050508252359287841161027857846108398b8f809897819801016106c3565b858401520135868201528152019401936107b0565b819083358152019101908f90610812565b81601f8201121561027857803591602091610879846106ac565b93610887604051958661019a565b808552838086019160051b8301019280841161027857848301915b8483106108b25750505050505090565b82356001600160401b0381116102785786916108d384848094890101610723565b8152019201916108a2565b3590600382101561027857565b81601f8201121561027857803591602091610905846106ac565b93604092610916604051968761019a565b818652848087019260051b8401019381851161027857858401925b858410610942575050505050505090565b6001600160401b0384358181116102785786019160a080601f1985880301126102785761096d6101ea565b906109798b86016108de565b82526109868686016108de565b8b8301526060908186013585811161027857888d6109a6928901016106c3565b878401526080918287013586811161027857898e6109c6928a0101610231565b90840152850135938411610278576109e5878c80979681970101610231565b90820152815201930192610931565b600319608036820112610278576001600160401b03906004803583811161027857610a229036908301610231565b606435928484116102785761012090843603011261027857610a426101ca565b918381013585811161027857610a5d90823691870101610231565b83526024840135602084015260448401356040840152606484013560608401526084840135608084015260a484013585811161027857610aa290823691870101610231565b60a084015260c484013585811161027857610ac29082369187010161085f565b60c084015260e4840135948511610278576101046104ce94610aef61032f97610afa9436918401016108eb565b60e08601520161034b565b61010083015260443590602435906127f6565b81601f8201121561027857803591602091610b27846106ac565b93604092610b38604051968761019a565b818652848087019260051b8401019381851161027857858401925b858410610b64575050505050505090565b6001600160401b039084358281116102785786019060e09182601f19828803011261027857610b916101f7565b908a81013594851161027857610bee8b9594610bb289888098860101610231565b845287830135868501526060928381013589860152608093848201359086015260a093848201359086015260c0938482013590860152016108de565b90820152815201930192610b53565b906102d691602081526020610c1d835160408385015260608401906102a0565b920151906040601f19828503019101526102a0565b60c0366003190112610278576001600160401b0360043581811161027857610c5e903690600401610723565b9060243590811161027857610c77903690600401610b0d565b60803660431901126102785761032f91610cba9160405191610c988361012d565b60443583526064356020840152608435604084015260a4356060840152612d51565b60405191829182610bfd565b60e0366003190112610278576001600160401b0360043581811161027857610cf2903690600401610231565b60643582811161027857610d0a90369060040161085f565b9060843592831161027857610d266105e2933690600401610b0d565b60c4359260a43592604435906024359061331e565b6102d69181518152602082015160208201526040820151604082015260c0610d9c610d8a610d78606086015160e0606087015260e08601906102a0565b608086015185820360808701526102a0565b60a085015184820360a08601526102a0565b9201519060c08184039101526102a0565b6020808201906020835283518092526040830192602060408460051b8301019501936000915b848310610de35750505050505090565b9091929394958480610e01600193603f198682030187528a51610d3b565b9801930193019194939290610dd3565b602080600319360112610278576001600160401b039060043582811161027857366023820112156102785760246004820135610e4c816106ac565b94604090610e5d604051978861019a565b82875283602088019360051b8601019436861161027857848101935b868510610e985761032f610e8c8a6133e2565b60405191829182610dad565b843583811161027857820160e0602319823603011261027857610eb96101f7565b9187820135835260448201358a840152606482013586840152608482013585811161027857610eed90893691850101610231565b606084015260a482013585811161027857610f0d90893691850101610231565b608084015260c482013585811161027857610f2d90893691850101610231565b60a084015260e48201359285841161027857610f518b94938a869536920101610231565b60c0820152815201940193610e79565b6101003660031901126102785761032f61031b60e43560c43560a4356084356064356044356024356004356136af565b610180366003190112610278576001600160401b0360243581811161027857610fbe903690600401610231565b906044359081116102785761032f91610fde6104ce923690600401610231565b610fe66103f2565b91610164359261014435926101243592610104359260e4359260c435926084359160643591600435615037565b6040519061102082610163565b60008252565b60405190611033826100f2565b6003825262048e6d60eb1b6020830152565b634e487b7160e01b600052601160045260246000fd5b90663e01ad54cfec809182810292818405149015171561107757565b611045565b90601e820291808305601e149015171561107757565b9061032a9182810292818405149015171561107757565b9060448202918083056044149015171561107757565b90605f820291808305605f149015171561107757565b9062a4cb809182810292818405149015171561107757565b90603a820291808305603a149015171561107757565b908160011b91600283050361107757565b906208d9a09182810292818405149015171561107757565b9060648202918083056064149015171561107757565b90610438918083029283050361107757565b818102929160008212600160ff1b82141661107757818405149015171561107757565b634e487b7160e01b600052601260045260246000fd5b801561119c576302faf0800590565b611177565b801561119c57640165a0bc000590565b811561119c57600160ff1b8114600019831416611077570590565b90816020910312610278575190565b6040513d6000823e3d90fd5b90816117700191821260011661107757565b9081678ac7230489e800000191821260011661107757565b906803afb087b876900000916000838201938412911290801582169115161761107757565b906236ee80916000838201938412911290801582169115161761107757565b9081620927c00191821260011661107757565b90620927c0916000838201938412911290801582169115161761107757565b906116a8916000838201938412911290801582169115161761107757565b9190916000838201938412911290801582169115161761107757565b602081830312610278578051906001600160401b038211610278570181601f820112156102785780516112f381610216565b92611301604051948561019a565b81845260208284010111610278576102d6916020808501910161027d565b906113326020928281519485920161027d565b0190565b60876101c8919392936040519485917f3c7265637420783d223831372220793d2236363422206f7061636974793d223060208401527f2e36222066696c6c3d2223363439363234222077696474683d22332e3622206860408401526632b4b3b43a1e9160c91b60608401526113b581518092602060678701910161027d565b82017304440e8e4c2dce6ccdee4da7a44e4dee8c2e8ca560631b60678201526113e8825180936020607b8501910161027d565b016b101c189c901b1b1a1491179f60a11b607b82015203606781018552018361019a565b91929060008094126115da5790611422916123c1565b9161143761142f8461105b565b612710900590565b611488602061146961145d73__$30acca89589d9a9b80eb3e09f3c9eae508$__94615598565b655af3107a4000900590565b60405180938192631b5ac4b560e01b8352600483019190602083019252565b0381855af49081156115705783916115ab575b508061159c57506114bc6114b76114b2600161118d565b6111e7565b61107c565b620f424090818113156115945750905b60405163171a458b60e31b808252606490930560048201528381602481855af4918215611570576115219685928394611575575b50606492939460405198899485938493845205600483019190602083019252565b03915af4908115611570576102d69483611542949361154b575b5050611336565b906105dc611026565b6115689293503d8091833e611560818361019a565b8101906112c1565b90388061153b565b6111db565b606493945061158d903d8087833e611560818361019a565b9392611500565b9050906114cc565b6114b76114b26114bc9261118d565b6115cd915060203d6020116115d3575b6115c5818361019a565b8101906111cc565b3861149b565b503d6115bb565b50506102d691506115e9611026565b6115f1611013565b91615422565b634e487b7160e01b600052602160045260246000fd5b6004111561161757565b6115f7565b6040519061162982610148565b606282527f3c67207374796c653d227472616e73666f726d3a20726f74617465592824617a60208301527f692920726f74617465582824616c74293b207472616e73666f726d2d626f783a60408301527f66696c6c2d626f783b7472616e73666f726d2d6f726967696e3a63656e746572606083015261111f60f11b6080830152565b906101c89294936024926117186040519788946020936116d48151809287808b01910161027d565b86016116e88251809387808501910161027d565b016116fb8251809386808501910161027d565b0191631e17b39f60e11b818401528351938491878501910161027d565b0103600481018552018361019a565b90602491631e17b39f60e11b6101c89496956040519788946020946117548151809288808b01910161027d565b86016117688251809388808501910161027d565b0161177b8251809387808501910161027d565b0161178e8251809386808501910161027d565b019182015203600481018552018361019a565b906101c86023604051846117bf82965180926020808601910161027d565b81016264656760e81b602082015203600381018552018361019a565b604051906117e8826100f2565b600582526424617a697360d81b6020830152565b60405190611809826100f2565b60018252600360fc1b6020830152565b60405190611826826100f2565b600482526324617a6960e01b6020830152565b60405190611846826100f2565b600482526309185b1d60e21b6020830152565b906101c8609d60405180947f3c7265637420793d222d313522202066696c6c3d22236437653061372220783d60208301527f222d323522202077696474683d22353022206865696768743d22353022202f3e60408301527f3c7265637420793d222d35222066696c6c3d222361613730333522207769647460608301527f683d22333022206865696768743d2231302220783d222d313522202f3e000000608083015261190f815180926020868601910161027d565b810103607d81018552018361019a565b906101c8604360405180947f3c67207472616e73666f726d3d227472616e736c617465283020333229223e006020830152611964815180926020603f8601910161027d565b8101631e17b39f60e11b603f82015203602381018552018361019a565b906101c8608560405180947f3c67207472616e73666f726d3d227472616e736c617465283020333229223e3c60208301527f706f6c79676f6e2066696c6c3d22236437653061372220706f696e74733d222d60408301527f37202d37332037202d37332031392033202d31392033202d37202d373322202f6060830152601f60f91b6080830152611a1c81518092602060818601910161027d565b8101631e17b39f60e11b608182015203606581018552018361019a565b60306101c891939293604051948591693c672069643d22666c5f60b01b6020840152611a6f815180926020602a8701910161027d565b820161111f60f11b602a820152611a90825180936020602c8501910161027d565b01631e17b39f60e11b602c82015203601081018552018361019a565b9492919091611aba8261160d565b60038214928315611f1d576064611b0e662386f26fc1000060808a0151995b611ae28761160d565b8715611f145760a001515b059261213493848113600014611f065750655af3107a4000849a5b056123c1565b05916000611b1a61161c565b92818a13611cbe575050611b45611b6f92826060611b67940151916020604083015192015192611727565b611b4e8561160d565b60028514611cad575b611b5f611819565b6115f16117fc565b611b5f611839565b955b60405163171a458b60e31b80825260048201939093529073__$30acca89589d9a9b80eb3e09f3c9eae508$__600083602481845af4801561157057611bea99611bc7611bd0926000968791611c99575b506117a1565b906105dc611819565b93604051809a819482938352600483019190602083019252565b03915af490811561157057611c0d611c16926102d698600091611c7e57506117a1565b906105dc611839565b93611c2c575b5050611c2790615601565b611a39565b9081611c3c611c2794959361160d565b60018103611c58575050611c4f90611981565b915b9038611c1c565b611c619061160d565b15611c7557611c6f9061191f565b91611c51565b611c6f90611859565b611c9391503d806000833e611560818361019a565b38611bc1565b611c9391503d8089833e611560818361019a565b611cb990611b5f6117db565b611b57565b91989293909873__$30acca89589d9a9b80eb3e09f3c9eae508$__94604051631b5ac4b560e01b815260208180611cfd87600483019190602083019252565b03818a5af49b8c15611570579b611ee5575b506123289a8b13611ec957816060611d34930151916020604083015192015192611727565b985b82821380611ec0575b15611daf575050915b611d518461160d565b60028414611d60575b50611b71565b60405163171a458b60e31b815260048101849052919790600090839060249082905af491821561157057611da892611d9f91600091611c7e57506117a1565b906105dc6117db565b9538611d5a565b908092501380611eb5575b15611dc9575061251c91611d48565b612133199081811280611ea9575b15611de3575091611d48565b905061232719811280611e9d575b15611e01575061251b1991611d48565b610a5a9081811380611e92575b15611e1a575091611d48565b610a5919915081811280611e86575b15611e365750915b611d48565b9050610a8c811380611e7b575b15611e525750610abe91611d48565b91610a8b19831280611e6f575b15611e3157610abd199250611d48565b50610abd198313611e5f565b50610abe8112611e43565b50610a8b198113611e29565b50610a8c8112611e0e565b5061251b198113611df1565b50612327198113611dd7565b5061251c8112611dba565b50808212611d3f565b816040611edf93015160608251920151926116ac565b98611d36565b611eff919b5060203d6020116115d3576115c5818361019a565b9938611d0f565b655af3107a4000909a611b08565b60400151611aed565b6064611b0e662386f26fc1000060608a015199611ad9565b60405190611f42826100f2565b60068252653134b93216b360d11b6020830152565b60405190611f64826100f2565b600682526533bab63616b360d11b6020830152565b601d1981019190821161107757565b60001981019190821161107757565b606403906064821161107757565b9190820391821161107757565b60405190611fbf826100f2565b60098252686165726f706c616e6560b81b6020830152565b60405190611fe4826100f2565b6005825264666c6f636b60d81b6020830152565b9060c8820180921161107757565b906001820180921161107757565b9190820180921161107757565b60206101c8919392936040519481612042879351809286808701910161027d565b82016120568251809386808501910161027d565b0103808552018361019a565b6040519061206f826100f2565b600382526224626960e81b6020830152565b9060648202918083046064149015171561107757565b908160011b918083046002149015171561107757565b90666f9c9e6576434c9182810292818404149015171561107757565b90670de0b6b3a76400009182810292818404149015171561107757565b90600091156001171561107757565b8181029291811591840414171561107757565b811561119c570490565b6121ca600392959460536101c8956040519889957f3c706f6c79676f6e206f7061636974793d22302e33222066696c6c3d2223666660208801526a3311103837b4b73a399e9160a91b6040880152612174815180926020604b8b01910161027d565b8601600b60fa1b604b820152612194825180936020604c8501910161027d565b01640b0c0b0c0b60da1b604c8201526121b782518093602060518501910161027d565b01612c2d60f01b6051820152019061131f565b6211179f60e91b815203601c1981018552018361019a565b604051906121ef826100f2565b6003825262246c6960e81b6020830152565b91909260030361234957600080931361234957612235612230612229602861223a9406612081565b6028900490565b612097565b6120ad565b9161227761227261226d6122686715cc96efd11924eb61226161225c89615c3b565b611092565b9701615c3b565b6110a9565b6111f9565b611211565b60405163171a458b60e31b808252662386f26fc100009586900560048301529473__$30acca89589d9a9b80eb3e09f3c9eae508$__8483602481845af4938415611570576122e4978694859661232d575b5060405198899485938493845205600483019190602083019252565b03915af4908115611570576102d694836123079493612310575b50508181612112565b906105dc6121e2565b6123259293503d8091833e611560818361019a565b9038806122fe565b6123429196503d8087833e611560818361019a565b94386122c8565b50905090565b906236ee7f19820191821360011661107757565b906208d99f19820191821360011661107757565b9061270f19820191821360011661107757565b90600082606403921260648312811690606484139015161761107757565b8181039291600013801582851316918412161761107757565b6123e4916236ee8080910791076000811261247b575b6000821261246b576123a8565b604051631b5ac4b560e01b81526004810182905260208160248173__$30acca89589d9a9b80eb3e09f3c9eae508$__5af4801561157057621b77409160009161244c575b50136124315790565b6000811315612443576102d69061234f565b6102d690611236565b612465915060203d6020116115d3576115c5818361019a565b38612428565b9061247590611236565b906123a8565b61248490611236565b6123d7565b600160ff1b81146110775760000390565b9060606101c89395946125a3926040519788956f3c673e203c636972636c652063783d2760801b60208801526124da81518092602060308b01910161027d565b86019165272063793d2760d01b9283603082015261250282518093602060368501910161027d565b017f2720723d273538272066696c6c3d272366666627202f3e203c636972636c652060368201526363783d2760e01b605682015261254a825180936020605a8501910161027d565b0190605a820152612564825180936020868501910161027d565b0101602a907f2720723d273935272066696c6c3d272366666627206f7061636974793d27302e815269191b1390179f1e17b39f60b11b60208201520190565b03601f19810184528361019a565b926125c36125be856111a1565b6110bf565b6125cc81612489565b84139081612716575b506125e7575b505050506102d6611013565b6125f0916123c1565b620ac409811280612709575b61260657806125db565b8261247561263660649561263061262761262261263f97611268565b6110d5565b62124f80900590565b95611154565b620927c0900590565b60405163171a458b60e31b808252939092056004830152600092909173__$30acca89589d9a9b80eb3e09f3c9eae508$__908481602481855af4918215611570576126ae94869283946126ea575b50606492939460405196879485938493845205600483019190602083019252565b03915af491821561157057836102d694936126cd575b5050818161249a565b6126e29293503d8091833e611560818361019a565b9038806126c4565b6064939450612702903d8087833e611560818361019a565b939261268d565b50620ac4081981136125fc565b6127209150611255565b831315386125d5565b60405190612736826100f2565b600682526563727569736560d01b6020830152565b60405190612758826100f2565b60068252653334b9b432b960d11b6020830152565b6040519061277a826100f2565b60058252641e5858da1d60da1b6020830152565b6101c8919392936040519485916020936127b08151809287808801910161027d565b83016127c48251809387808501910161027d565b016120568251809386808501910161027d565b604051906127e4826100f2565b600382526224777360e81b6020830152565b92610100909291920190815161280b8161160d565b6128148161160d565b15806128fa575b806128ef575b806128e4575b6128de57916128ab9161283d6102d69594615601565b906003815161284b8161160d565b6128548161160d565b149081156128c0575b50156128b4576128a560ff60465b1680612881818061287a612729565b87896146da565b94612896828061288f61274b565b8885614a5b565b9461289f61276d565b91614d49565b9161278e565b906105dc6127d7565b6128a560ff606461286b565b60029150516128ce8161160d565b6128d78161160d565b143861285d565b50505090565b506014811415612827565b50600d811415612821565b50600e81141561281b565b60405190612912826100f2565b60606020838281520152565b6040519061292b8261012d565b60006060838281528260208201528260408201520152565b6040519060e082018281106001600160401b0382111761010d57604052606060c08360008152600060208201526000604082015282808201528260808201528260a08201520152565b90612996826106ac565b6129a3604051918261019a565b82815280926129b4601f19916106ac565b019060005b8281106129c557505050565b6020906129d0612943565b828285010152016129b9565b60001981146110775760010190565b80518210156129ff5760209160051b010190565b634e487b7160e01b600052603260045260246000fd5b9194936101c893604051968793602095612a378151809289808a01910161027d565b8501612a4b8251809389808501910161027d565b01612a5e8251809388808501910161027d565b016127c48251809387808501910161027d565b6020908181840312610278578051906001600160401b03821161027857019180601f84011215610278578251612aa6816106ac565b93612ab4604051958661019a565b818552838086019260051b820101928311610278578301905b828210612adb575050505090565b81518152908301908301612acd565b6003111561161757565b9060c0612b0a835160e0845260e08401906102a0565b926020810151602084015260408101516040840152606081015160608401526080810151608084015260a081015160a084015201519060038210156116175760c0015290565b9160a093612b74612b8292600097999894865260c0602087015260c0860190612af4565b9084820360408601526102a0565b95606083015260808201520152565b929190612ba86040916060865260608601906102a0565b93600060208201520152565b91906040612ba86001926060865260608601906102a0565b91612bf590612be76102d69593606086526060860190610d3b565b9084820360208601526102a0565b9160408184039101526102a0565b906101c8602560405184612c2182965180926020808601910161027d565b8101642d6d61736b60d81b602082015203600581018552018361019a565b9391959492909560405196858896519081602089019160200191612c629261027d565b86016b3c75736520687265663d222360a01b602082015281519182602c83019160200191612c8f9261027d565b01602c81017f222066696c7465723d2275726c28236d616b65426c61636b2922207472616e7390527003337b9369e913a3930b739b630ba32941607d1b604c82015281519182605d83019160200191612ce79261027d565b01605d8101612cf990600b60fa1b9052565b605e01612d059161131f565b6705240e6c6c2d8ca560c31b8152600801612d1f9161131f565b600160fd1b8152600101612d329161131f565b631491179f60e11b815203601b19810183526004016101c8908361019a565b9190612d5b612905565b50612d6461291e565b93612d6f825161298c565b612d77612905565b93600060408801525b6040870151602087015180518210156132c75790612da191979594976129eb565b5192600088525b8751602085015180518210156132a857612dcc91612dc5916129eb565b51826129eb565b5194612e08612dde6060850151615601565b87518351612ded895151615cd7565b91612e02612dfc8b5160200190565b51615cd7565b93612a15565b976000876040860151612e3787516020890151906040519e8f9586956305d35c4360e21b875260048701612b50565b038173__$30acca89589d9a9b80eb3e09f3c9eae508$__5af498891561157057600099613283575b50600060208b01525b8960208101518a51111561326a57612f0a612ec6612eda8a612ecc8b8f612eb5612eab612ea5612ec6936020612e9c612943565b9c0151906129eb565b51615601565b9451925151615cd7565b91604051968795602087019061131f565b9061131f565b03601f19810183528261019a565b8060808401526020895191606082840151930151906040519485928392638587a4a560e01b845260048401612b91565b038173__$30acca89589d9a9b80eb3e09f3c9eae508$__5af490811561157057612f3c92600092613249575b50612014565b8152612f6e8751602081519160406080860151910151906040519485928392638587a4a560e01b845260048401612b91565b038173__$30acca89589d9a9b80eb3e09f3c9eae508$__5af490811561157057612fa092600092613228575b506112a5565b6020820152612fc96020608083015160405180938192638587a4a560e01b835260048301612bb4565b038173__$30acca89589d9a9b80eb3e09f3c9eae508$__5af490811561157057600091613209575b506131fe5761300d60015b806040840152604089015190611154565b60405163171a458b60e31b808252600482019290925260008160248173__$30acca89589d9a9b80eb3e09f3c9eae508$__5af4918215611570576130779260009283916131e4575b5060a085015260408a8101519051918252600482015291829081906024820190565b038173__$30acca89589d9a9b80eb3e09f3c9eae508$__5af4908115611570576000916131c9575b5060c08201526080810151885160405163ad49774560e01b815291600091839182916130cf918760048501612bcc565b038173__$30acca89589d9a9b80eb3e09f3c9eae508$__5af4908115611570576000916131ae575b50606082015261311760608c015182613110828a6129eb565b52876129eb565b5061312560608c0151612006565b60608c0152600160c089015161313a81612aea565b61314381612aea565b0361316a5750613151611013565b505b61316060208b01516129dc565b60208b0152612e68565b6131a760208a019182519061317f8b51612c03565b61318c6020830151615cd7565b6131968351615601565b9160c060a085015194015194612c3f565b9052613153565b6131c391503d806000833e611560818361019a565b386130f7565b6131de91503d806000833e611560818361019a565b3861309f565b6131f891503d8085833e611560818361019a565b38613055565b61300d600019612ffc565b613222915060203d6020116115d3576115c5818361019a565b38612ff1565b61324291925060203d6020116115d3576115c5818361019a565b9038612f9a565b61326391925060203d6020116115d3576115c5818361019a565b9038612f36565b50919550965061327a88516129dc565b88529593612da8565b6132a19199503d806000833e613299818361019a565b810190612a71565b9738612e5f565b5050939250946132bb60408801516129dc565b60408801529194612d80565b505050909293506132d891506133e2565b90600084525b83518251811015613317576133049060606132fb865192866129eb565b51015190612021565b835261331084516129dc565b84526132de565b5092505090565b92969594909660409260405161333381610163565b6000815298604051936133458561012d565b84526020976020850152604084015260608301526000975b81518910156133d6576133ce600191886133c561337a8d876129eb565b5198613387888c8c612d51565b99516133bd8a5191600960fa1b86840152826021916133ae815180928a868601910161027d565b8101038981018452018261019a565b8a5191615422565b97015190612021565b98019761335d565b97505050509150509190565b805160009060005b8181106133f75750505090565b90929193845b61340f61340a8487611fa5565b611f88565b81101561349d5780613423600192866129eb565b515161343761343183612006565b876129eb565b515110613445575b016133fd565b61349761345282876129eb565b5161346561345f84612006565b886129eb565b5161347084896129eb565b5261347b83886129eb565b5061348583612006565b9061349082896129eb565b52866129eb565b5061343f565b50939192906001016133ea565b604051906134b7826100f2565b60018252603160f81b6020830152565b9b989399959d9c9a969194909d9792976040519e8f9d8e6020810161350490753c67206d61736b3d2275726c28236d6f6f6e4d61736b60501b9052565b6036016135109161131f565b7f29223e3c70617468207472616e73666f726d3d22726f746174652800000000008152601b0161353f9161131f565b600160fd1b8152916001809c819b82809a8180980161355d9161131f565b600160fd1b81520161356e9161131f565b7f2922207374726f6b653d2277686974652220736861706552656e646572696e6781527f3d2267656f6d6574726963507265636973696f6e222066696c6c3d22776869746020820152670329110321e9126960c51b60408201526048016135d49161131f565b600160fd1b8152016135e59161131f565b6201030960ed1b81526003016135fa9161131f565b600160fd1b81520161360b9161131f565b660101810181018960cd1b81526007016136249161131f565b64010181030960dd1b815260050161363b9161131f565b600160fd1b81520161364c9161131f565b6201018160ed1b81526003016136619161131f565b600160fd1b8152016136729161131f565b600160fd1b8152016136839161131f565b701018103d111f1e17b830ba341f1e17b39f60791b815203600e19810183526011016101c8908361019a565b959394969192906136c76136c2856111a1565b6110ed565b6136d081612489565b87139081613ba3575b506136ef575b50505050505050506102d6611013565b6136f8916123c1565b620a2376811280613b96575b61370e57806136df565b606461373c8461247561263661374697613736613731612627612622899a611268565b612363565b9a611154565b95059405956123a8565b9161376361142f61375e61375985611103565b612377565b611114565b60405163171a458b60e31b81526116a86004820152949060008660248173__$30acca89589d9a9b80eb3e09f3c9eae508$__5af4918215611570576137da96600093613b70575b5060646137b8600092615601565b60405163171a458b60e31b815291909705600482015296879081906024820190565b038173__$30acca89589d9a9b80eb3e09f3c9eae508$__5af495861561157057600096613b4f575b50613833949596600061381485611287565b6040518098819263171a458b60e31b8352600483019190602083019252565b038173__$30acca89589d9a9b80eb3e09f3c9eae508$__5af495861561157057600096613b32575b5060405163171a458b60e31b8152600481018290529360008560248173__$30acca89589d9a9b80eb3e09f3c9eae508$__5af494851561157057600095613b0d575b5060405163171a458b60e31b815260048101919091529060008280602481015b038173__$30acca89589d9a9b80eb3e09f3c9eae508$__5af49081156115705761390c92600092613aee575b506000906040518094819263171a458b60e31b8352600483019190602083019252565b038173__$30acca89589d9a9b80eb3e09f3c9eae508$__5af491821561157057600092613ad1575b5060405163171a458b60e31b8152612d5060048201529460008660248173__$30acca89589d9a9b80eb3e09f3c9eae508$__5af4938415611570576139a296600095613aaf575b5060405163171a458b60e31b81526064909105600482015295600090879081906024820190565b038173__$30acca89589d9a9b80eb3e09f3c9eae508$__5af495861561157057600096613a92575b50611388871215613a81576113886139e06134aa565b975b1315613a73576139f06134aa565b975b60405163171a458b60e31b8152612d4f1960048201529a60008c60248173__$30acca89589d9a9b80eb3e09f3c9eae508$__5af49a8b15611570576102d69c60009c613a47575b5091879593918695936134c7565b8896949290879694929d50613a66903d806000833e611560818361019a565b9c91939550919395613a39565b613a7b6117fc565b976139f2565b611388613a8c6117fc565b976139e2565b613aa89196503d806000833e611560818361019a565b94386139ca565b6000919550613ac96064913d8085833e611560818361019a565b95915061397b565b613ae79192503d806000833e611560818361019a565b9038613934565b6000919250613b06903d8084833e611560818361019a565b91906138e9565b6138bd92919550613b296000913d8084833e611560818361019a565b9591925061389d565b613b489196503d806000833e611560818361019a565b943861385b565b613833959650613b69903d806000833e611560818361019a565b9594613802565b60009193506137b8613b8d6064923d8086833e611560818361019a565b949250506137aa565b50620a2375198113613704565b613bad9150611255565b861315386136d9565b9392613be690613bd860019460a094885260c0602089015260c0880190612af4565b9086820360408801526102a0565b9360006060820152600060808201520152565b929190613c106040916060865260608601906102a0565b93601e60208201520152565b91906040612ba86005926060865260608601906102a0565b613c4c604092959493956060835260608301906102a0565b9460208201520152565b9092613cd394936000604051613c7c81612ecc613c76602083018761131f565b8961131f565b613c846101f7565b868152607860208201526078604082015260b46060820152603c6080820152603260a0820152613cb760c0820160029052565b6040516305d35c4360e21b815298899283928860048501613bb6565b038173__$30acca89589d9a9b80eb3e09f3c9eae508$__5af495861561157057600096614052575b5060609560005b815181101561404a57613d1581836129eb565b51613d32613d2b613d268389611fa5565b61112c565b6078900590565b90601d198212158061403f575b613d4e575b5050600101613d02565b613d73613d60612ecc929b949b615601565b604051928391612ec6602084018a61131f565b604051638587a4a560e01b81529060208280613d938a8560048401612b91565b038173__$30acca89589d9a9b80eb3e09f3c9eae508$__5af49182156115705760009261401e575b50604051638587a4a560e01b81529260208480613ddb8560048301612bb4565b038173__$30acca89589d9a9b80eb3e09f3c9eae508$__5af4801561157057613e83613ea2926000928b978491613fff575b50158314613fec57613e6c613e67613e59613e5486195b870b94871986148814613fd257613e3d613e4491611142565b6064900590565b9a5b613e4f8b6120c9565b612108565b6120e6565b670de0b6b3a7640000900490565b611f97565b95613e75612943565b976020890152875285611154565b6040518093819263171a458b60e31b8352600483019190602083019252565b038173__$30acca89589d9a9b80eb3e09f3c9eae508$__5af492831561157057613ef5936000928391613fb8575b5060a08601526040518094819263171a458b60e31b8352600483019190602083019252565b038173__$30acca89589d9a9b80eb3e09f3c9eae508$__5af49283156115705789936000938491613f9e575b5060c0820152613f45604051948593849363ad49774560e01b855260048501612bcc565b038173__$30acca89589d9a9b80eb3e09f3c9eae508$__5af4801561157057600192613f7992600092613f81575b50612021565b979038613d44565b613f979192503d806000833e611560818361019a565b9038613f73565b613fb291503d8086833e611560818361019a565b38613f21565b613fcc91503d8085833e611560818361019a565b38613ed0565b613e3d613fe1613fe69261238a565b611142565b9a613e46565b613e6c613e67613e59613e546001613e24565b614018915060203d6020116115d3576115c5818361019a565b38613e0d565b61403891925060203d6020116115d3576115c5818361019a565b9038613dbb565b506082821315613d3f565b505050505050565b6140689196503d806000833e613299818361019a565b9438613cfb565b90926140cb9493600060405161408f81612ecc613c76602083018761131f565b6140976101f7565b86815261016880602083015260408201526101e0606082015260b46080820152603260a0820152613cb760c0820160029052565b038173__$30acca89589d9a9b80eb3e09f3c9eae508$__5af4958615611570576000966143d2575b5060609560005b815181101561404a5761410d81836129eb565b5161412661411e613d268389611fa5565b610168900590565b90601d19821215806143c7575b614142575b50506001016140fa565b614154613d60612ecc929b949b615601565b60405190638587a4a560e01b808352602083806141758b8660048401613bf9565b038173__$30acca89589d9a9b80eb3e09f3c9eae508$__5af4928315611570576000936143a6575b50604051908152602081806141b58560048301612bb4565b038173__$30acca89589d9a9b80eb3e09f3c9eae508$__5af490811561157057600091614387575b5061437d576142416000195b60000b93600019850361436857613e3d61420291611142565b935b61422a613e67613e59613e546142198d611f79565b613e4f6142258a611f79565b6120c9565b93614233612943565b956020870152855283611154565b60405163171a458b60e31b8082526004820192909252909260008260248173__$30acca89589d9a9b80eb3e09f3c9eae508$__5af4938415611570576142a994600093849161434e575b5060a087015260405194859283928352600483019190602083019252565b038173__$30acca89589d9a9b80eb3e09f3c9eae508$__5af49283156115705789936000938491614334575b5060c08201526142f9604051948593849363ad49774560e01b855260048501612bcc565b038173__$30acca89589d9a9b80eb3e09f3c9eae508$__5af480156115705760019261432c92600092613f815750612021565b979038614138565b61434891503d8086833e611560818361019a565b386142d5565b61436291503d8086833e611560818361019a565b3861428b565b613e3d613fe16143779261238a565b93614204565b61424160016141e9565b6143a0915060203d6020116115d3576115c5818361019a565b386141dd565b6143c091935060203d6020116115d3576115c5818361019a565b913861419d565b506082821315614133565b6143e89196503d806000833e613299818361019a565b94386140f3565b909261444a9493600060405161440f81612ecc613c76602083018761131f565b6144176101f7565b868152600a6020820152600a60408201526003606082015260056080820152603260a0820152613cb760c0820160029052565b038173__$30acca89589d9a9b80eb3e09f3c9eae508$__5af4958615611570576000966146bd575b5060609560005b815181101561404a5761448c81836129eb565b516144a461449d613d268389611fa5565b600a900590565b90601d19821215806146b2575b6144c0575b5050600101614479565b6144d2613d60612ecc929b949b615601565b604051638587a4a560e01b815290602082806144f28a8560048401612b91565b038173__$30acca89589d9a9b80eb3e09f3c9eae508$__5af491821561157057600092614691575b50604051638587a4a560e01b8152926020848061453a8560048301612bb4565b038173__$30acca89589d9a9b80eb3e09f3c9eae508$__5af4801561157057613e8361459a926000928b978491613fff5750158314613fec57613e6c613e67613e59613e548619870b94871986148814613fd257613e3d613e4491611142565b038173__$30acca89589d9a9b80eb3e09f3c9eae508$__5af4928315611570576145ec936000928391613fb8575060a08601526040518094819263171a458b60e31b8352600483019190602083019252565b038173__$30acca89589d9a9b80eb3e09f3c9eae508$__5af49283156115705789936000938491614677575b5060c082015261463c604051948593849363ad49774560e01b855260048501612bcc565b038173__$30acca89589d9a9b80eb3e09f3c9eae508$__5af480156115705760019261466f92600092613f815750612021565b9790386144b6565b61468b91503d8086833e611560818361019a565b38614618565b6146ab91925060203d6020116115d3576115c5818361019a565b903861451a565b5060828213156144b1565b6146d39196503d806000833e613299818361019a565b9438614472565b9192614758959491600060405161470181612ecc6146fb602083018761131f565b8a61131f565b6147096101f7565b8781526101688060208301528060408301526104b060608301526080820152603260a082015261473c60c0820160029052565b6040516305d35c4360e21b8152998a9283928960048501613bb6565b038173__$30acca89589d9a9b80eb3e09f3c9eae508$__5af496871561157057600097614a3e575b5060609660005b8151811015614a355761479a81836129eb565b516147ab61411e613d26838a611fa5565b90601d1982121580614a2a575b6147c7575b5050600101614787565b6147d9613d60612ecc929c949c615601565b60405190638587a4a560e01b808352602083806147f98560048301613c1c565b038173__$30acca89589d9a9b80eb3e09f3c9eae508$__5af492831561157057600093614a09575b50604051908152602081806148398560048301612bb4565b038173__$30acca89589d9a9b80eb3e09f3c9eae508$__5af49384156115705789946148bb926000916149ea575b506149d65761422a6148b5613e5961489c8c6000195b60000b9560001987036149c757613e3d61489691611142565b99611fa5565b6148af6148a8896120c9565b6005900490565b906120f5565b8a612014565b60405163171a458b60e31b8082526004820192909252909260008260248173__$30acca89589d9a9b80eb3e09f3c9eae508$__5af49384156115705761492294600093849161434e575060a087015260405194859283928352600483019190602083019252565b038173__$30acca89589d9a9b80eb3e09f3c9eae508$__5af4928315611570578a9360009384916149ad575b5060c0820152614972604051948593849363ad49774560e01b855260048501612bcc565b038173__$30acca89589d9a9b80eb3e09f3c9eae508$__5af48015611570576001926149a592600092613f815750612021565b9890386147bd565b6149c191503d8086833e611560818361019a565b3861494e565b613e3d613fe16148969261238a565b61422a6148b5613e5961489c8c600161487d565b614a03915060203d6020116115d3576115c5818361019a565b38614867565b614a2391935060203d6020116115d3576115c5818361019a565b9138614821565b5060828213156147b8565b50505050505050565b614a549197503d806000833e613299818361019a565b9538614780565b9192614ab79594916000604051614a7c81612ecc6146fb602083018761131f565b614a846101f7565b8781526102588060208301528060408301526104b060608301526080820152603260a082015261473c60c0820160029052565b038173__$30acca89589d9a9b80eb3e09f3c9eae508$__5af496871561157057600097614d2c575b5060609660005b8151811015614a3557614af981836129eb565b51614b12614b0a613d26838a611fa5565b610258900590565b90601d1982121580614d21575b614b2e575b5050600101614ae6565b614b40613d60612ecc929c949c615601565b60405190638587a4a560e01b80835260208380614b608560048301613c1c565b038173__$30acca89589d9a9b80eb3e09f3c9eae508$__5af492831561157057600093614d00575b5060405190815260208180614ba08560048301612bb4565b038173__$30acca89589d9a9b80eb3e09f3c9eae508$__5af4938415611570578994614bf4926000916149ea57506149d6576000199061422a906148b590613e599061489c908d90613e3d61489691611142565b60405163171a458b60e31b8082526004820192909252909260008260248173__$30acca89589d9a9b80eb3e09f3c9eae508$__5af493841561157057614c5b94600093849161434e575060a087015260405194859283928352600483019190602083019252565b038173__$30acca89589d9a9b80eb3e09f3c9eae508$__5af4928315611570578a936000938491614ce6575b5060c0820152614cab604051948593849363ad49774560e01b855260048501612bcc565b038173__$30acca89589d9a9b80eb3e09f3c9eae508$__5af4801561157057600192614cde92600092613f815750612021565b989038614b24565b614cfa91503d8086833e611560818361019a565b38614c87565b614d1a91935060203d6020116115d3576115c5818361019a565b9138614b88565b506082821315614b1f565b614d429197503d806000833e613299818361019a565b9538614adf565b9192614da69594916000604051614d6a81612ecc6146fb602083018761131f565b614d726101f7565b87815260b4602082015260b46040820152610168606082015260b46080820152603260a082015261473c60c0820160029052565b038173__$30acca89589d9a9b80eb3e09f3c9eae508$__5af49687156115705760009761501a575b5060609660005b8151811015614a3557614de881836129eb565b51614e00614df9613d26838a611fa5565b60b4900590565b90601d198212158061500f575b614e1c575b5050600101614dd5565b614e2e613d60612ecc929c949c615601565b60405190638587a4a560e01b80835260208380614e4e8560048301613c1c565b038173__$30acca89589d9a9b80eb3e09f3c9eae508$__5af492831561157057600093614fee575b5060405190815260208180614e8e8560048301612bb4565b038173__$30acca89589d9a9b80eb3e09f3c9eae508$__5af4938415611570578994614ee2926000916149ea57506149d6576000199061422a906148b590613e599061489c908d90613e3d61489691611142565b60405163171a458b60e31b8082526004820192909252909260008260248173__$30acca89589d9a9b80eb3e09f3c9eae508$__5af493841561157057614f4994600093849161434e575060a087015260405194859283928352600483019190602083019252565b038173__$30acca89589d9a9b80eb3e09f3c9eae508$__5af4928315611570578a936000938491614fd4575b5060c0820152614f99604051948593849363ad49774560e01b855260048501612bcc565b038173__$30acca89589d9a9b80eb3e09f3c9eae508$__5af4801561157057600192614fcc92600092613f815750612021565b989038614e12565b614fe891503d8086833e611560818361019a565b38614f75565b61500891935060203d6020116115d3576115c5818361019a565b9138614e76565b506082821315614e0d565b6150309197503d806000833e613299818361019a565b9538614dce565b9493969592979198612ec6906150c29b839e9d6150726000956150648f604051978893602085019061131f565b03601f19810186528561019a565b61507a6101f7565b928d84528660208501528660408501526060840152608083015260a08201526150a660c0820160029052565b6040516305d35c4360e21b81529b8c9283928960048501613bb6565b038173__$30acca89589d9a9b80eb3e09f3c9eae508$__5af498891561157057600099615405575b5060609860005b81518110156153f65761510481836129eb565b518d61511c85615117613d26858c611fa5565b6111b1565b91601d19831215806153eb575b615139575b5050506001016150f1565b61516261518392949e94612ecc615152612ec694615601565b604051948593602085019061131f565b8b60208c60405180958192638587a4a560e01b958684528760048501613c34565b038173__$30acca89589d9a9b80eb3e09f3c9eae508$__5af4928315611570576000936153ca575b50604051908152602081806151c38560048301612bb4565b038173__$30acca89589d9a9b80eb3e09f3c9eae508$__5af4938415611570578b61523f8f8f9761525e956000916153ab575b5061539657613e4f6152398d61523361522c856000195b60000b996000198b0361538757613e3d61522691611142565b9d611fa5565b948b611fa5565b95611fa5565b936120c9565b908b1561536b57613e5961422a926148b5926120f5565b614233612943565b60405163171a458b60e31b8082526004820192909252909260008260248173__$30acca89589d9a9b80eb3e09f3c9eae508$__5af4938415611570576152c594600093849161434e575060a087015260405194859283928352600483019190602083019252565b038173__$30acca89589d9a9b80eb3e09f3c9eae508$__5af4928315611570578d936000938491615351575b5060c0820152615315604051948593849363ad49774560e01b855260048501612bcc565b038173__$30acca89589d9a9b80eb3e09f3c9eae508$__5af480156115705760019261534892600092613f815750612021565b9a908d3861512e565b61536591503d8086833e611560818361019a565b386152f1565b613e596153819261537b926120f5565b8d611fa5565b93615256565b613e3d613fe16152269261238a565b613e4f6152398d61523361522c85600161520d565b6153c4915060203d6020116115d3576115c5818361019a565b386151f6565b6153e491935060203d6020116115d3576115c5818361019a565b91386151ab565b506082831315615129565b50989a50505050505050505050565b61541b9199503d806000833e613299818361019a565b97386150ea565b9092919281908251928151865193602097888080950195019087856040510193019385850198811115615499575b5050508394508095939160405195869103910301945b83821061548a5750506000848401968701525050603f909301601f19166040528252565b81518152908201908201615466565b90919293959450602181870301968a60009360008285101561558f575b601f859998979916830360031b9851965b88518881188b1c1561550357815260018091019801988b8a10156154ed575b98976154c7565b505050959750505050509183925b388080615450565b918497949598919a92819d94979a9c9d615548575b50505050505b8181840101518188015201908382101561553a5790829061551e565b5050920192019283926154fb565b90809293949596508a8d200361556057879594615518565b8a9192989597949c9b9996939a5260018091019801988b8a106154e657505050959750505050509183926154fb565b508386206154b6565b60008112156155bc576715cc96efd11924eb6155b66102d692612489565b01615c3b565b6715cc96efd11924eb6102d69101615c3b565b906155d982610216565b6155e6604051918261019a565b82815280926155f7601f1991610216565b0190602036910137565b806000917a184f03e93ff9f4daa797ed6e38ed64bf6a1f01000000000000000080821015615737575b506d04ee2d6d415b85acef810000000080831015615728575b50662386f26fc1000080831015615719575b506305f5e1008083101561570a575b50612710808310156156fb575b5060648210156156eb575b600a809210156156e1575b600190816021615699600187016155cf565b95860101905b6156ab575b5050505090565b600019019083906f181899199a1a9b1b9c1cb0b131b232b360811b8282061a8353049182156156dc5791908261569f565b6156a4565b9160010191615687565b919060646002910491019161567c565b60049193920491019138615671565b60089193920491019138615664565b60109193920491019138615655565b60209193920491019138615643565b60409350810491503861562a565b604051906157528261017e565b61040482527ac90f8801921d20025b26d703242abf03ed26e604b6195d057f003560208301527f0647d97c0710a34507d95b9e08a2009a096a90490a3308bc0afb68050bc3ac3560408301527f0c8bd35e0d53db920e1bc2e40ee387660fab272b1072a0481139f0cf120116d560608301527f12c8106e138edbb1145576b1151bdf8515e2144416a81305176dd9de183366e860808301527f18f8b83c19bdcbf31a82a0251b4732ef1c0b826a1ccf8cb31d934fe51e56ca1e60a08301527f1f19f97b1fdcdc1b209f701c2161b39f2223a4c522e541af23a6887e2467775760c08301527f25280c5d25e845b626a8218527679df42826b92828e5714a29a3c4852a61b10160e08301527f2b1f34eb2bdc4e6f2c98fbba2d553afb2e110a622ecc681e2f8752623041c7606101008301527f30fbc54d31b54a5d326e54c73326e2c233def2873496824f354d905636041ad96101208301527f36ba2013376f9e46382493b038d8fe93398cdd323a402dd13af2eeb73ba51e296101408301527f3c56ba703d07c1d53db832a53e680b2c3f1749b73fc5ec974073f21d4121589a6101608301527f41ce1e64427a41d04325c13543d09aec447acd50452456bc45cd358f467568276101808301527f471cece647c3c22e4869e664490f57ee49b415334a581c9d4afb6c974b9e038f6101a08301527f4c3fdff34ce100344d8162c34e2106174ebfe8a44f5e08e24ffb654c5097fc5e6101c08301527f5133cc9451ced46e5269126e53028517539b2aef5433027d54ca0a4a556040e26101e08301527f55f5a4d2568a34a9571deef957b0d2555842dd5458d40e8c5964649759f3de126102008301527f5a8279995b1035ce5b9d11535c290acc5cb420df5d3e52365dc79d7b5e50015d6102208301527f5ed77c895f5e0db25fe3b38d60686cce60ec382f616f146b61f1003e6271fa686102408301527f62f201ac637114cc63ef328f646c59bf64e889256563bf9165ddfbd266573cbb6102608301527f66cf811f6746c7d767bd0fbc683257aa68a69e806919e31f698c246b69fd614a6102808301527f6a6d98a36adcc9646b4af2786bb812d06c24295f6c8f351b6cf934fb6d6227f96102a08301527f6dca0d146e30e3496e96a99c6efb5f116f5f02b16fc1938470231099708378fe6102c08301527f70e2cbc571410804719e2cd171fa394872552c8472af05a67307c3cf735f66256102e08301527f73b5ebd0740b53fa745f9dd074b2c8837504d3447555bd4b75a585ce75f42c0a6103008301527f7641af3c768e0ea576d9498877235f2c776c4eda77b417df77fab988784033286103208301527f7884841378c7aba17909a92c794a7c11798a23b079c89f6d7a05eeac7a4210d86103408301527f7a7d055a7ab6cba37aef63237b26cb4e7b5d039d7b920b887bc5e28f7bf8882f6103608301527f7c29fbed7c5a3d4f7c894bdd7cb727237ce3ceb17d0f42177d3980eb7d628ac56103808301527f7d8a5f3f7db0fdf77dd6668e7dfa98a77e1d93e97e3f57fe7e5fe4927e7f39566103a08301527f7e9d55fb7eba3a387ed5e5c57ef0585f7f0991c37f2191b37f3857f57f4de4506103c08301527f7f62368e7f754e7f7f872bf27f97cebc7fa736b37fb563b27fc255957fce0c3d6103e08301527f7fd8878d7fe1c76a7fe9cbbf7ff094777ff621817ffa72d07ffd88597fff6215610400830152637fffffff60e01b610420830152565b670de0b6b3a7640000637fffffff916757325bbf446493ac809106601e1b0460ff8160141c166310000000821615908115615ccf575b6002615c7b615745565b910160021b015163ffffffff808260201c16911661ffff8460041c168282030260101c92600014615cc75750015b6320000000819216615cbc575b50020590565b905060000338615cb6565b905003615ca9565b60ff03615c71565b6102d690615d10600082129182600014615d1e57604051615cf7816100f2565b60018152602d60f81b6020820152925b615d1657615601565b90612021565b600003615601565b604051615d2a81610163565b6000815292615d0756fea26469706673582212209810a0c0e447aed224b4edec2df6dc6cb9413639137d5c682a91dededa10b47464736f6c63430008190033","linkReferences":{"contracts/NDUtils.sol":{"NDUtils":[{"start":5219,"length":20},{"start":7081,"length":20},{"start":7397,"length":20},{"start":8888,"length":20},{"start":9247,"length":20},{"start":9852,"length":20},{"start":11866,"length":20},{"start":12077,"length":20},{"start":12177,"length":20},{"start":12268,"length":20},{"start":12362,"length":20},{"start":12442,"length":20},{"start":12530,"length":20},{"start":14241,"length":20},{"start":14333,"length":20},{"start":14422,"length":20},{"start":14488,"length":20},{"start":14560,"length":20},{"start":14639,"length":20},{"start":14706,"length":20},{"start":14789,"length":20},{"start":14896,"length":20},{"start":15606,"length":20},{"start":15798,"length":20},{"start":15870,"length":20},{"start":16069,"length":20},{"start":16152,"length":20},{"start":16232,"length":20},{"start":16622,"length":20},{"start":16792,"length":20},{"start":16856,"length":20},{"start":17024,"length":20},{"start":17100,"length":20},{"start":17180,"length":20},{"start":17517,"length":20},{"start":17685,"length":20},{"start":17757,"length":20},{"start":17853,"length":20},{"start":17935,"length":20},{"start":18015,"length":20},{"start":18299,"length":20},{"start":18460,"length":20},{"start":18524,"length":20},{"start":18682,"length":20},{"start":18757,"length":20},{"start":18837,"length":20},{"start":19162,"length":20},{"start":19331,"length":20},{"start":19395,"length":20},{"start":19507,"length":20},{"start":19582,"length":20},{"start":19662,"length":20},{"start":19913,"length":20},{"start":20081,"length":20},{"start":20145,"length":20},{"start":20257,"length":20},{"start":20332,"length":20},{"start":20412,"length":20},{"start":20709,"length":20},{"start":20902,"length":20},{"start":20966,"length":20},{"start":21149,"length":20},{"start":21224,"length":20},{"start":21304,"length":20}]}}},"methodIdentifiers":{"getDiffAngle(int256,int256)":"88134137","renderAirplanes(string,uint256,uint256,uint256,MotifType)":"75fd56ba","renderFlower(string,SunMoon,int256,FlowerType,FlowerParts,bool,uint256)":"5f7a1862","renderLighthouse(string,int256,uint256,uint256)":"86689cfb","renderMainScene(string,uint256,uint256,SceneInMotif[],AssetInScene[],uint256,uint256)":"b057948e","renderMoon(uint256,int256,int256,int256,int256,int256,int256,int256)":"d49f8002","renderMovingAsset(uint256,string,string,uint256,uint256,bool,uint256,uint256,uint256,uint256,uint256,uint256)":"fdb68cd3","renderSceneAssets(SceneInMotif,AssetInScene[],NDRenderer.SceneUtils)":"9a085c48","renderSun(uint256,int256,int256,uint256)":"955cb78f","renderSunclock(string,int256,int256,int256)":"31ae97d0","renderWaterScene(string,uint256,uint256,Motif)":"98d37b63","sortElements(SceneElement[])":"b6ad9795"},"id":5}