{"abi":[{"type":"function","name":"adjustTimeStampsForAssetVisibility","inputs":[{"name":"minStartTime","type":"uint256","internalType":"uint256"},{"name":"maxStartTime","type":"uint256","internalType":"uint256"},{"name":"sunriseTime","type":"uint256","internalType":"uint256"},{"name":"sunsetTime","type":"uint256","internalType":"uint256"},{"name":"timeOfDayVisibility","type":"DAYTIME","internalType":"enum DAYTIME"},{"name":"tolerance","type":"uint256","internalType":"uint256"},{"name":"maxDuration","type":"uint256","internalType":"uint256"}],"outputs":[{"name":"","type":"uint256","internalType":"uint256"},{"name":"","type":"uint256","internalType":"uint256"},{"name":"","type":"bool","internalType":"bool"}],"stateMutability":"pure"},{"type":"function","name":"applyNight","inputs":[{"name":"altitude","type":"int256","internalType":"int256"},{"name":"motifType","type":"MotifType","internalType":"enum MotifType"}],"outputs":[{"name":"","type":"string","internalType":"string"}],"stateMutability":"pure"},{"type":"function","name":"computeStarttime","inputs":[{"name":"timestamp","type":"uint256","internalType":"uint256"},{"name":"checkInterval","type":"uint256","internalType":"uint256"},{"name":"minDuration","type":"uint256","internalType":"uint256"},{"name":"maxDuration","type":"uint256","internalType":"uint256"},{"name":"possibleOffset","type":"uint256","internalType":"uint256"},{"name":"appearanceProbability","type":"uint256","internalType":"uint256"},{"name":"salt","type":"string","internalType":"string"},{"name":"dayNight","type":"DAYTIME","internalType":"enum DAYTIME"},{"name":"sunrise","type":"uint256","internalType":"uint256"},{"name":"sunset","type":"uint256","internalType":"uint256"}],"outputs":[{"name":"","type":"uint256[]","internalType":"uint256[]"}],"stateMutability":"pure"},{"type":"function","name":"generateClouds","inputs":[{"name":"skyHeight","type":"int256","internalType":"int256"},{"name":"nonce","type":"uint256","internalType":"uint256"}],"outputs":[{"name":"","type":"string","internalType":"string"}],"stateMutability":"pure"},{"type":"function","name":"getDiffAngle","inputs":[{"name":"azimuth","type":"int256","internalType":"int256"},{"name":"heading","type":"int256","internalType":"int256"}],"outputs":[{"name":"","type":"int256","internalType":"int256"}],"stateMutability":"pure"},{"type":"function","name":"p_atan2","inputs":[{"name":"y","type":"int256","internalType":"int256"},{"name":"x","type":"int256","internalType":"int256"}],"outputs":[{"name":"T","type":"int256","internalType":"int256"}],"stateMutability":"pure"},{"type":"function","name":"randomNum","inputs":[{"name":"nonce","type":"uint256","internalType":"uint256"},{"name":"min","type":"uint256","internalType":"uint256"},{"name":"max","type":"uint256","internalType":"uint256"}],"outputs":[{"name":"","type":"uint256","internalType":"uint256"}],"stateMutability":"pure"},{"type":"function","name":"randomNum","inputs":[{"name":"nonce","type":"string","internalType":"string"},{"name":"min","type":"uint256","internalType":"uint256"},{"name":"max","type":"uint256","internalType":"uint256"}],"outputs":[{"name":"","type":"uint256","internalType":"uint256"}],"stateMutability":"pure"},{"type":"function","name":"renderDecimal","inputs":[{"name":"value","type":"int256","internalType":"int256"}],"outputs":[{"name":"","type":"string","internalType":"string"}],"stateMutability":"pure"},{"type":"function","name":"renderFlower","inputs":[{"name":"svg","type":"string","internalType":"string"},{"name":"azimuth","type":"int256","internalType":"int256"},{"name":"altitude","type":"int256","internalType":"int256"},{"name":"heading","type":"int256","internalType":"int256"},{"name":"flowerType","type":"FlowerType","internalType":"enum FlowerType"},{"name":"blossom","type":"string","internalType":"string"},{"name":"stick","type":"string","internalType":"string"},{"name":"back","type":"string","internalType":"string"},{"name":"front","type":"string","internalType":"string"},{"name":"hasPot","type":"bool","internalType":"bool"}],"outputs":[{"name":"","type":"string","internalType":"string"}],"stateMutability":"pure"},{"type":"function","name":"renderMainScene","inputs":[{"name":"svg","type":"string","internalType":"string"},{"name":"timestamp","type":"uint256","internalType":"uint256"},{"name":"tokenID","type":"uint256","internalType":"uint256"},{"name":"scenes","type":"tuple[]","internalType":"struct SceneInMotif[]","components":[{"name":"placeHolder","type":"string","internalType":"string"},{"name":"assets","type":"uint8[]","internalType":"uint8[]"},{"name":"area","type":"int256[4]","internalType":"int256[4]"},{"name":"scale","type":"uint256","internalType":"uint256"}]},{"name":"assetsInScene","type":"tuple[]","internalType":"struct AssetInScene[]","components":[{"name":"name","type":"string","internalType":"string"},{"name":"minDuration","type":"uint256","internalType":"uint256"},{"name":"maxDuration","type":"uint256","internalType":"uint256"},{"name":"checkInterval","type":"uint256","internalType":"uint256"},{"name":"possibleOffset","type":"uint256","internalType":"uint256"},{"name":"probability","type":"uint256","internalType":"uint256"},{"name":"dayTime","type":"DAYTIME","internalType":"enum DAYTIME"}]},{"name":"sunrise","type":"uint256","internalType":"uint256"},{"name":"sunset","type":"uint256","internalType":"uint256"}],"outputs":[{"name":"","type":"string","internalType":"string"},{"name":"","type":"string","internalType":"string"}],"stateMutability":"pure"},{"type":"function","name":"renderMoon","inputs":[{"name":"motifType","type":"MotifType","internalType":"enum MotifType"},{"name":"heading","type":"int256","internalType":"int256"},{"name":"skyHeight","type":"int256","internalType":"int256"},{"name":"azimuth","type":"int256","internalType":"int256"},{"name":"altitude","type":"int256","internalType":"int256"},{"name":"pa","type":"int256","internalType":"int256"},{"name":"fraction","type":"int256","internalType":"int256"},{"name":"angle","type":"int256","internalType":"int256"}],"outputs":[{"name":"","type":"string","internalType":"string"}],"stateMutability":"pure"},{"type":"function","name":"renderMovingAsset","inputs":[{"name":"timestamp","type":"uint256","internalType":"uint256"},{"name":"salt","type":"string","internalType":"string"},{"name":"assetName","type":"string","internalType":"string"},{"name":"hasRandomColor","type":"bool","internalType":"bool"},{"name":"minY","type":"uint256","internalType":"uint256"},{"name":"maxY","type":"uint256","internalType":"uint256"},{"name":"horizontUp","type":"bool","internalType":"bool"},{"name":"minScale","type":"uint256","internalType":"uint256"},{"name":"maxScale","type":"uint256","internalType":"uint256"},{"name":"duration","type":"uint256","internalType":"uint256"},{"name":"checkInterval","type":"uint256","internalType":"uint256"},{"name":"appearanceProbability","type":"uint256","internalType":"uint256"},{"name":"possibleOffset","type":"uint256","internalType":"uint256"}],"outputs":[{"name":"","type":"string","internalType":"string"}],"stateMutability":"pure"},{"type":"function","name":"renderReplacements","inputs":[{"name":"svg","type":"string","internalType":"string"},{"name":"replacements","type":"tuple[]","internalType":"struct Replacement[]","components":[{"name":"tag","type":"ObjectType","internalType":"enum ObjectType"},{"name":"dataType","type":"RenderDataType","internalType":"enum RenderDataType"},{"name":"data","type":"int256[]","internalType":"int256[]"},{"name":"placeholder","type":"string","internalType":"string"},{"name":"ref","type":"string","internalType":"string"}]}],"outputs":[{"name":"","type":"string","internalType":"string"}],"stateMutability":"pure"},{"type":"function","name":"renderSceneAssets","inputs":[{"name":"assetIds","type":"uint8[]","internalType":"uint8[]"},{"name":"assets","type":"tuple[]","internalType":"struct AssetInScene[]","components":[{"name":"name","type":"string","internalType":"string"},{"name":"minDuration","type":"uint256","internalType":"uint256"},{"name":"maxDuration","type":"uint256","internalType":"uint256"},{"name":"checkInterval","type":"uint256","internalType":"uint256"},{"name":"possibleOffset","type":"uint256","internalType":"uint256"},{"name":"probability","type":"uint256","internalType":"uint256"},{"name":"dayTime","type":"DAYTIME","internalType":"enum DAYTIME"}]},{"name":"timestamp","type":"uint256","internalType":"uint256"},{"name":"tokenID","type":"uint256","internalType":"uint256"},{"name":"area","type":"int256[4]","internalType":"int256[4]"},{"name":"scale","type":"uint256","internalType":"uint256"},{"name":"sunrise","type":"uint256","internalType":"uint256"},{"name":"sunset","type":"uint256","internalType":"uint256"}],"outputs":[{"name":"sceneSvg","type":"string","internalType":"string"},{"name":"sceneMaskSvg","type":"string","internalType":"string"}],"stateMutability":"pure"},{"type":"function","name":"renderSun","inputs":[{"name":"skyHeight","type":"uint256","internalType":"uint256"},{"name":"azimuth","type":"int256","internalType":"int256"},{"name":"altitude","type":"int256","internalType":"int256"},{"name":"heading","type":"uint256","internalType":"uint256"}],"outputs":[{"name":"","type":"string","internalType":"string"}],"stateMutability":"pure"},{"type":"function","name":"setRandomColor","inputs":[{"name":"svg","type":"string","internalType":"string"},{"name":"salt","type":"string","internalType":"string"}],"outputs":[{"name":"","type":"string","internalType":"string"}],"stateMutability":"pure"},{"type":"function","name":"setUseRotations","inputs":[{"name":"svg","type":"string","internalType":"string"},{"name":"ref","type":"string","internalType":"string"},{"name":"rotations","type":"int256[]","internalType":"int256[]"},{"name":"rotationAnchor","type":"int16[2]","internalType":"int16[2]"}],"outputs":[{"name":"","type":"string","internalType":"string"}],"stateMutability":"pure"},{"type":"function","name":"setUseTags","inputs":[{"name":"svgTemplate","type":"string","internalType":"string"},{"name":"ref","type":"string","internalType":"string"},{"name":"positions","type":"int16[]","internalType":"int16[]"},{"name":"hasScale","type":"bool","internalType":"bool"},{"name":"placeholder","type":"string","internalType":"string"}],"outputs":[{"name":"","type":"string","internalType":"string"}],"stateMutability":"pure"}],"bytecode":{"object":"0x6080806040523460195761494a908161001f823930815050f35b600080fdfe610120604052600436101561001357600080fd5b60003560e01c806307704b931461231957806328294640146122f25780633235ac6d14611c1d578063366a301814611b6b5780633899f054146118ce5780634b54268f146114ce5780638587a4a514611491578063881341371461147d5780639163cba514611336578063955cb78f14611313578063a40e9e9e14611271578063b057948e14611019578063b4ce66db14610ffd578063b8d22c5814610fe3578063c2209fb914610b4e578063c528fb3314610afc578063d79783a71461048a578063d8ce367a146102855763fecb0d4f146100ee57600080fd5b60403660031901126102805760043560243560048110156102805761022f916202bf1f198082121561024557505061012760645b614067565b906102335761021b6099610139612852565b6040519384917f3c72656374206d61736b3d2275726c28236e696768744d61736b0000000000006020840152610179815180926020603a8701910161235a565b82017f2922207374796c653d226d69782d626c656e642d6d6f64653a6d756c7469706c603a8201527f79222077696474683d223130302522206865696768743d223130302522206669605a8201527536361e911198231999991b911037b830b1b4ba3c9e9160511b607a8201526101fa82518093602060908501910161235a565b0168111f1e17b932b1ba1f60b91b60908201520360798101845201826123f3565b60405191829160208352602083019061237d565b0390f35b61021b6099610240612835565b610139565b600082129081610276575b501561026b57610898610265610127926148e0565b05614067565b506101276000614067565b9050811338610250565b600080fd5b60a0366003190112610280576001600160401b03600435818111610280576102b190369060040161242f565b602435828111610280576102c990369060040161242f565b91604435908111610280576102e2903690600401612663565b90366083121561028057604051926102f9846123a2565b60a484368211610280576064905b82821061047257505050909160405161031f816123d8565b600081529160009160209586810191878401955b8151861015610448578661044060466001938c6103596103538c89612f1d565b51614717565b885161037461036a8992830b614717565b918c51900b614717565b918c604051988661038e8b9851809289808c01910161235a565b87016b3c75736520687265663d222360a01b878201526103b6602c935180938584019061235a565b01907304440e8e4c2dce6ccdee4da7a44e4dee8c2e8ca560631b908201526103e7825180938760408501910161235a565b0190600160fd1b9081604084015260419261040a8251809388878501910161235a565b01918201526104246042938351938491868501910161235a565b0190631491179f60e11b908201520360268101845201826123f3565b950194610333565b61045d899189610457886135f7565b9061476a565b9061022f60405192828493845283019061237d565b6020809161047f8461263f565b815201910190610307565b610140366003190112610280576001600160401b03600435818111610280576104b790369060040161242f565b608435919060443560038410156102805760a435838111610280576104e090369060040161242f565b9360c435848111610280576104f990369060040161242f565b9160e4358581116102805761051290369060040161242f565b95610104358681116102805761052c90369060040161242f565b9161012435948515158603610280576121349182811315610af6575081985b606461055a8135602435613746565b05996040519360a085019a858c10908c1117610ae05761045d9a604052606e855260209b8c8601937f3c67207374796c653d227472616e73666f726d3a20726f7461746559283c212d85527f2d617a692d2d3e2920726f7461746558283c212d2d616c742d2d3e293b20747260408801527f616e73666f726d2d626f783a66696c6c2d626f783b7472616e73666f726d2d6f60608801526d3934b3b4b71d31b2b73a32b9111f60911b60808801526000841315600014610815575050505050926106419261062b92610649956143fe565b6106336144b2565b61063b61286f565b9161476a565b6106336144d8565b915b61067d575b50906040519061065f826123a2565b600d82526c1e109696b33637bbb2b916969f60991b8583015261476a565b80610689600292612fa1565b0361074c57610743608560405180937f3c67207472616e73666f726d3d227472616e736c617465283020333229223e3c888301527f706f6c79676f6e2066696c6c3d22236664653061642220706f696e74733d222d60408301527f37202d37332037202d37332031392033202d31392033202d37202d373322202f6060830152601f60f91b6080830152610726815180928a60818601910161235a565b8101631e17b39f60e11b60818201520360658101845201826123f3565b905b9084610650565b61080f609d60405180937f3c7265637420793d222d313522202066696c6c3d22236664653061642220783d888301527f222d323522202077696474683d22353022206865696768743d22353022202f3e60408301527f3c7265637420793d222d35222066696c6c3d222361613730333522207769647460608301527f683d22333022206865696768743d2231302220783d222d313522202f3e00000060808301526107ff815180928a868601910161235a565b810103607d8101845201826123f3565b90610745565b9399979296919590948d6123289b8c61082d896148e0565b12610a6557505061083e94506143fe565b955b82821380610a5c575b156108e85750509061088061086c61087a61088994975b61087161086c8a614067565b614478565b906104576144b2565b92614067565b906104576144d8565b9261089383612fa1565b600183146108a2575b5061064b565b926108b361086c6108e19395614067565b90604051906108c1826123a2565b600f82526e1e109696b0bd34a9ba34b1b596969f60891b8983015261476a565b918661089c565b908092501380610a51575b1561090f57506108899061088061086c61087a61251c97610860565b612133199081811280610a45575b1561093757509061088061086c61087a6108899497610860565b905061232719811280610a39575b1561096257506108899061088061086c61087a61251b1997610860565b610a5a9081811380610a2e575b1561098957509061088061086c61087a6108899497610860565b610a5919915081811280610a22575b156109b257509061088061086c61087a6108899497610860565b9050610a8c811380610a17575b156109db57506108899061088061086c61087a610abe97610860565b93610a8b19851280610a0b575b610a00575b9061088061086c61087a61088994610860565b610abd1994506109ed565b50610abd1985136109e8565b50610abe81126109bf565b50610a8b198113610998565b50610a8c811261096f565b5061251b198113610945565b5061232719811361091d565b5061251c81126108f3565b50808212610849565b610ada9550610a8796602495610acb92604051998a97518092878a019061235a565b8601610a9b8251809387808501910161235a565b01610aae8251809386808501910161235a565b0191631e17b39f60e11b818401528351938491878501910161235a565b010360048101845201826123f3565b95610840565b634e487b7160e01b600052604160045260246000fd5b9861054b565b6040366003190112610280576001600160401b0360043581811161028057610b2890369060040161242f565b906024359081116102805761022f91610b4861021b92369060040161242f565b906140fe565b6040366003190112610280576001600160401b0360043581811161028057610b7a90369060040161242f565b90602491823591808311610280573660238401121561028057826004013592610ba284612485565b93610bb060405195866123f3565b80855285602086019160051b8301019136831161028057868197969701915b838310610f075785600089895b8151831015610ef157610bef8383612f1d565b51936060948051610bff81612fa1565b610c0881612fa1565b15610c2e575b94610c2591610457606060019596979801516135f7565b93019190610bdc565b906020820151610c3d81612fa1565b610c4681612fa1565b610ec3576002955b6000905b60408401518051831015610eb75782610c6a91612f1d565b516040850151600184018411610ea257610c88906001850190612f1d565b51906020860151610c9881612fa1565b610ca181612fa1565b610e6857610cad61288c565b8660026020820151610cbe81612fa1565b610cc781612fa1565b03610e315760400151600386018611610e1c57936000805160206148f58339815191529388610e0b946054946705240e6c6c2d8ca560c31b610d32610d2c6080610d22610d1c8f9e610e169f60030190612f1d565b51614067565b965b015194614717565b95614717565b946040519987610d4c8c995180926020808d01910161235a565b8801946b3c75736520687265663d222360a01b6020870152602c95610d7a8251809360208a8501910161235a565b0194850152604393610d95825180936020888501910161235a565b019461016160f51b8094870152604595610db88251809360208a8501910161235a565b0194850152604d93610dd3825180936020888501910161235a565b0192830152604f91610dee825180936020868501910161235a565b019064149110179f60d91b908201520360348101845201826123f3565b9160ff891690612f71565b90610c52565b88634e487b7160e01b60005260116004526000fd5b936000805160206148f583398151915293610e1695610e0b94846705240e6c6c2d8ca560c31b610d32610d2c608060549996610d24565b6040860151600285018511610e8d57610d1c610e88916002870190612f1d565b610cad565b87634e487b7160e01b60005260116004526000fd5b86634e487b7160e01b60005260116004526000fd5b50965090919050610c0e565b60016020830151610ed381612fa1565b610edc81612fa1565b03610eea5760035b95610c4e565b6004610ee4565b6040516020808252819061022f9082018761237d565b829796973585811161028057820160a0918260231983360301126102805760405192830183811088821117610fce576040526003828b013581811015610280578452604483013590811015610280576020840152606482013587811161028057610f76908b3691850101612663565b6040840152608482013587811161028057610f96908b369185010161242f565b606084015260a48201359287841161028057610fbb602094938c86953692010161242f565b6080820152815201920191969596610bcf565b8a634e487b7160e01b60005260416004526000fd5b60203660031901126102805761022f61021b600435614067565b602061101161100b3661264d565b90613db6565b604051908152f35b60e0366003190112610280576004356001600160401b0381116102805761104490369060040161242f565b6001600160401b036064351161028057366023606435011215610280576064356004013561107181612485565b9061107f60405192836123f3565b80825260208201903660248260051b60643501011161028057602460643501915b60248260051b6064350101831061115c575050506084356001600160401b038111610280576110d3903690600401612506565b60a43560c4356040516110e5816123d8565b60008152916000955b855187101561114b5761114261045761113c60019361110d8b8b612f1d565b5190611133888860208501518d6040870151906060880151926044359160243591612fba565b949092516135f7565b95612f7e565b960195926110ee565b839061022f60405192839283612617565b82356001600160401b0381116102805760e060643582013603602319011261028057604051908160808101106001600160401b03608084011117610ae057608082016040526024816064350101356001600160401b038111610280576111cc90602436918460643501010161242f565b82526044816064350101356001600160401b038111610280576111f990602436918460643501010161249c565b6020830152366083826064350101121561028057604051611219816123bd565b803660e4846064350101116102805760648381350101905b60e4846064350101821061126157505060408301526064350160e4013560608201528152602092830192016110a0565b8135815260209182019101611231565b6101403660031901126102805760c4356001600160401b0381116102805761129d90369060040161242f565b60e4356003811015610280576112ce916101243591610104359160a4356084356064356044356024356004356139e4565b6040518091602080830160208452825180915260206040850193019160005b8281106112fc57505050500390f35b8351855286955093810193928101926001016112ed565b60803660031901126102805761022f61021b6064356044356024356004356137dc565b60e03660031901126102805760643560843560443560243560043560038410156102805760609460c4359083839560019661137089612fa1565b60018914958680611474575b1561144557505080975b606461139460a43587612f54565b049561139f82612fa1565b156113f0575050506113ba92916113b591612f47565b612f71565b8082116113e8575b508083116113df575b604051928352602083015215156040820152f35b600091506113cb565b9050846113c2565b90919492506113fe81612fa1565b1561140d575b505050506113cb565b61141a926113b591612f47565b80911161143d575b50808311611434575b84808080611404565b6000915061142b565b905084611422565b6114508a929a612fa1565b848215918261146a575b5050156113865797508297611386565b119050848c61145a565b5082811061137c565b602061101161148b3661264d565b90613746565b6060366003190112610280576004356001600160401b038111610280576110116114c1602092369060040161242f565b60443590602435906136cc565b60403660031901126102805760243560056114f16114eb83612fab565b926145ae565b60405161151b6020828161150e818301968781519384920161235a565b81010380845201826123f3565b51902006806001016001116118a857604051611536816123d8565b600081529160005b8260010181106115a15761022f8461021b60356040518093701e339037b830b1b4ba3c9e9118171c111f60791b602083015261158481518092602060318601910161235a565b8101631e17b39f60e11b60318201520360158101845201826123f3565b60016115b56115af84612fab565b936145ae565b6040516115d26020828161150e818301968781519384920161235a565b51902016600101806001116118a8576115ff6115ed84612fab565b936115fa600435916145ae565b613670565b9061044361161561160f86612fab565b956145ae565b6040516116326020828161150e818301968781519384920161235a565b5190200690816009198101136001166118a8576000915b81831061165c575050505060010161153e565b92969195909493602961167761167187612fab565b966145ae565b6040516116946020828161150e818301968781519384920161235a565b51902006600a0180600a116118a8576116d6908060016116c46116bf6116b98b612fab565b9a6145ae565b613649565b146118be575b50600919860190612800565b9360156116eb6116e588612fab565b976145ae565b6040516117086020828161150e818301968781519384920161235a565b519020069260509284840184116118a85761173661172588614717565b9561172f8d6145ae565b95016145ae565b98601e98604051996117478b6123a2565b60028b52602036818d0137600a60228c015b60001901916f181899199a1a9b1b9c1cb0b131b232b360811b8282061a83530490811561178857600a90611759565b50509994600960fb1b6118929598939a603b60f91b6117d598603e979f9c6117b7600d60fb1b919c979c614717565b95600160fd1b6020806040519e8f8d83829f5194859301910161235a565b8b01753c706174682066696c6c3d22234646462220643d224d60501b8282015261180a60368c819d519485928501910161235a565b01988901526037976118258251809360208c8501910161235a565b01968701526038956118408251809360208a8501910161235a565b019485015260399361185b825180936020888501910161235a565b0192830152603a91611876825180936020868501910161235a565b0190633d11179f60e11b9082015203601e8101845201826123f3565b96601e81018091116118a8579260010191611649565b634e487b7160e01b600052601160045260246000fd5b6118c8915061279e565b8a6116ca565b60a0366003190112610280576001600160401b03600435818111610280576118fa90369060040161242f565b90602480358281116102805761191490369060040161242f565b6044359183831161028057366023840112156102805782600401359261193984612485565b9361194760405195866123f3565b8085526024602086019160051b8301019136831161028057602401905b828210611b5357505050611976612476565b936084359081116102805761198f90369060040161242f565b9360405161199c816123d8565b60008152938115611b4b576003965b6000955b8251871015611b3a576119ce6119c58885612f1d565b5160010b614717565b60018801808911610ea2576119c56119e69186612f1d565b878615611aff5750600289018911610ea2576052611af993896000805160206148f5833981519152946705240e6c6c2d8ca560c31b611aee9561016160f51b8f6119c58d6002611a37930190612f1d565b935b6040519987611a528c995180926020808d01910161235a565b8801966b3c75736520687265663d222360a01b6020890152602c97611a808251809360208c8501910161235a565b0196870152604395611a9b8251809360208a8501910161235a565b0194850152604593611ab6825180936020888501910161235a565b0192830152604d91611ad1825180936020868501910161235a565b019064149110179f60d91b908201520360328101845201826123f3565b9660ff8a1690612f71565b956119af565b611af9936052916000805160206148f5833981519152946705240e6c6c2d8ca560c31b611aee9561016160f51b611b3461288c565b93611a39565b61021b9061022f926104578a6135f7565b6002966119ab565b60208091611b608461263f565b815201910190611964565b610160366003190112610280576001600160401b0360043581811161028057611b9890369060040161249c565b9060243590811161028057611bb1903690600401612506565b3660a3121561028057604051611bc6816123bd565b809261010491368311610280576084945b838610611c0d5750611bfd94506101443593610124359335926064359160443591612fba565b9061022f60405192839283612617565b8535815260209586019501611bd7565b6101a0366003190112610280576001600160401b0360243581811161028057611c4a90369060040161242f565b9060443590811161028057611c6390369060040161242f565b611c6b612476565b9060c435151560c435036102805760405191611cb66020848651611c9481848401858b0161235a565b855190611ca8828583860101868a0161235a565b8201010380865201846123f3565b611cd161018435611ccc61012435600435612f47565b612f47565b92611cec611ce46101443560043561363f565b600435612f47565b90611d1a611d06611d00610144358861363f565b87612f47565b92611d15846101443592612f47565b612f67565b906001820182116118a857611d31600183016139b2565b9560009360005b6001850181106121f4575050505050611d50816139b2565b9360005b8281106121d55750505060609060005b84518110156121bf57611d778186612f1d565b51611d8481600435612f47565b806064810205606414811517156118a857611da6906064610124359102612783565b90601d19821215806121b4575b611dc2575b5050600101611d64565b611dcf90949192946145ae565b90611e0d602060405180948b611ded8151809286808701910161235a565b8201611e018251809386808501910161235a565b010380855201836123f3565b611e1c60a435608435846136cc565b91611e2681613649565b6121ac57600019935b600085900b1961217d57611e446064916126c3565b05905b611e5660e43561010435612f47565b93611e6360843582612f47565b806064810204606414811517156118a857611e8f906064611e8860843560a435612f47565b9102612f67565b9460c43515612138575060e435606460e435020460641460e4351517156118a85760019589611ed461202297611ecf6101043591606460e4350290612f71565b612f54565b945b891561202a5761201792606992600160fd1b61201c986705240e6c6c2d8ca560c31b611f3e61087a610122611f34611f2e7f222066696c6c3d223c212d2d7264436f6c6f722d2d3e22207472616e73666f729a614717565b9c6145ae565b9760000b8561273a565b9461016160f51b6040519a8b9889976b3c75736520687265663d222360a01b60208a0152611f79602c998260208c945194859301910161235a565b8a01978801526c0da7a44e8e4c2dce6d8c2e8ca5609b1b604c880152605996611fab8251809360208b8501910161235a565b0195860152605b94611fc6825180936020898501910161235a565b0193840152606392611fe1825180936020878501910161235a565b0191820152611ffa82518093602060648501910161235a565b0164149011179f60d91b60648201520360498101845201826123f3565b6140fe565b90612f7e565b929087611db8565b61201c945091600160fd1b605394966705240e6c6c2d8ca560c31b61207361087a610122612069611f2e6000805160206148f58339815191529a614717565b9660000b8561273a565b9361016160f51b6040519a8b9889986b3c75736520687265663d222360a01b60208b01526120ae602c9a8260208d945194859301910161235a565b8a01988901526043976120ca8251809360208c8501910161235a565b01968701526045956120e58251809360208a8501910161235a565b0194850152604d93612100825180936020888501910161235a565b0192830152604e9161211b825180936020868501910161235a565b019064149011179f60d91b908201520360338101845201826123f3565b956064868103116118a85760e435606460e435020460641460e4351517156118a85789612177600198611ecf61202299606460e4350290606403612f71565b94611ed6565b60008112606482810312811690606483810313901516176118a8576121a560649182036126c3565b0590611e47565b600193611e2f565b506082821315611db3565b6040516020808252819061022f9082018661237d565b806121e260019284612f1d565b516121ed8289612f1d565b5201611d54565b61220a6122046101443583612f54565b83612f71565b89612214826145ae565b91612251602060405180958a51612231818d86808701910161235a565b82016122458251809386808501910161235a565b010380865201846123f3565b6101643561225e846136a5565b1061226f575b505050600101611d38565b61220461228c612299926122866101843587613670565b90612f71565b93610124359081906136cc565b60043583111590816122e5575b50806122db575b6122b8575b81612264565b8760019398926122cc85946122d294612f1d565b52612fab565b969150896122b2565b50848210156122ad565b905060043511158d6122a6565b60603660031901126102805760206110116044356024356123146004356145ae565b6136cc565b6101003660031901126102805760043560048110156102805761021b61022f9160e4359060c4359060a43590608435906064359060443590602435906128a9565b60005b83811061236d5750506000910152565b818101518382015260200161235d565b906020916123968151809281855285808601910161235a565b601f01601f1916010190565b604081019081106001600160401b03821117610ae057604052565b608081019081106001600160401b03821117610ae057604052565b602081019081106001600160401b03821117610ae057604052565b90601f801991011681019081106001600160401b03821117610ae057604052565b6001600160401b038111610ae057601f01601f191660200190565b81601f820112156102805780359061244682612414565b9261245460405194856123f3565b8284526020838301011161028057816000926020809301838601378301015290565b60643590811515820361028057565b6001600160401b038111610ae05760051b60200190565b9080601f830112156102805760209082356124b681612485565b936124c460405195866123f3565b81855260208086019260051b82010192831161028057602001905b8282106124ed575050505090565b813560ff811681036102805781529083019083016124df565b9080601f830112156102805781359160209161252184612485565b9360409161253260405196876123f3565b818652848087019260051b8501019381851161028057858101925b85841061255e575050505050505090565b6001600160401b039084358281116102805783019060e080601f19848803011261028057875193818501858110828211176126025789528a84013590811161028057868b6125ae9286010161242f565b8452878301358a8501526060928381013589860152608093848201359086015260a093848201359086015260c09384820135908601520135926003841015610280578993849382015281520193019261254d565b60246000634e487b7160e01b81526041600452fd5b909161262e61263c9360408452604084019061237d565b91602081840391015261237d565b90565b35908160010b820361028057565b6040906003190112610280576004359060243590565b9080601f8301121561028057602090823561267d81612485565b9361268b60405195866123f3565b81855260208086019260051b82010192831161028057602001905b8282106126b4575050505090565b813581529083019083016126a6565b9061043891808302928305036118a857565b9062a4cb80918281029281840514901517156118a857565b90670de0b6b3a7640000918281029281840514901517156118a857565b906702b965cf5968c00091808302928305036118a857565b90670d9fb2f2e000400091808302928305036118a857565b818102929160008212600160ff1b8214166118a85781840514901517156118a857565b801561276d57640165a0bc000590565b634e487b7160e01b600052601260045260246000fd5b811561276d57600160ff1b81146000198314166118a8570590565b600160ff1b81146118a85760000390565b9081620927c0019182126001166118a857565b906236ee8091600083820193841291129080158216911516176118a857565b90620927c091600083820193841291129080158216911516176118a857565b919091600083820193841291129080158216911516176118a857565b818103929160001380158285131691841216176118a857565b60405190612842826123a2565b60018252604760f81b6020830152565b6040519061285f826123a2565b60018252605360f81b6020830152565b6040519061287c826123a2565b60018252600360fc1b6020830152565b60405190612899826123a2565b60018252603160f81b6020830152565b95969192906128b78461275d565b603a810290808205603a14901517156118a8576128d38161279e565b86139081612f0a575b506128fd575b50505050505050506040516128f6816123d8565b6000815290565b61290691613746565b620a2376811280612efd575b61291c57806128e2565b61293561293062124f8092999798996127e1565b6126d5565b05926208d99f1984019384136001166118a857606461296784620927c061296061297197859661273a565b059061281c565b940593059361281c565b908560011b956002870581036118a85761270f1987019687136001166118a8576208d9a09587878102058714881517156118a8576004811015612ee757612ed4576129c660646129bf612852565b9405614067565b936116a897888401988912600085129080158216911516176118a85796976129ed90614067565b96612a0361087a6129fd84614067565b95614067565b612a0b613ed2565b612a13613ed2565b91612a2f604051612a23816123d8565b6000815261201c6144fe565b9b612a4b604051612a3f816123d8565b6000815261201c61454a565b600281511015612a9a579c60029d612a926040519182602091600360fc1b83830152612a826021938251928391868601910161235a565b81010360018101845201826123f3565b9d509c612a4b565b9495969798999a9b9c612710612b0e92612afd60216064946040519a81612acb8d935180926020808701910161235a565b601760f91b60208285010152612aec8251809360208785880101910161235a565b82010103600181018b5201896123f3565b612b05613ed2565b98020505614067565b95611388881215612ec357611388612b2461288c565b985b1315612eb557612b3461288c565b985b612b5b604051612b45816123a2565b60018152602d60f81b602082015261201c6144fe565b9d612b6b604051612a3f816123d8565b600281511015612bb657604051809160208201600360fc1b905280519081602184019160200191612b9b9261235a565b810103600181018252602101612bb190826123f3565b612b6b565b9b9c9d9e6040519c818e92519081602085019160200191612bd69261235a565b820160208101601760f91b905281519182602183019160200191612bf99261235a565b0103600181018d52602101612c0e908d6123f3565b6040519d8e9d8e753c67206d61736b3d2275726c28236d6f6f6e4d61736b60501b602082015281519182603683019160200191612c4a9261235a565b01603681017f29223e3c70617468207472616e73666f726d3d22726f74617465280000000000905281519182605183019160200191612c889261235a565b818101605101600160fd1b9052825192838383016052019160200191612cad9261235a565b010160528101600160fd1b905281519182605383019160200191612cd09261235a565b01605381017f2922207374726f6b653d2277686974652220736861706552656e646572696e679052607381017f3d2267656f6d6574726963507265636973696f6e222066696c6c3d22776869749052670329110321e9126960c51b609382015281519182609b83019160200191612d469261235a565b01609b8101600160fd1b905281519182609c83019160200191612d689261235a565b01609c81016201030960ed1b905281519182609f83019160200191612d8c9261235a565b01609f8101600160fd1b90528151918260a083019160200191612dae9261235a565b0160a08101660101810181018960cd1b90528151918260a783019160200191612dd69261235a565b0160a7810164010181030960dd1b90528151918260ac83019160200191612dfc9261235a565b0160ac8101600160fd1b90528151918260ad83019160200191612e1e9261235a565b0160ad81016201018160ed1b90528151918260b083019160200191612e429261235a565b0160b08101600160fd1b90528151918260b183019160200191612e649261235a565b0160b18101600160fd1b90528151918260b283019160200191612e869261235a565b01701018103d111f1e17b830ba341f1e17b39f60791b60b28201520360a38101825260c30161263c90826123f3565b612ebd61286f565b98612b36565b611388612ece61286f565b98612b26565b6129c66064612ee1612835565b94610265565b634e487b7160e01b600052602160045260246000fd5b50620a2375198113612912565b612f1491506127af565b851315386128dc565b8051821015612f315760209160051b010190565b634e487b7160e01b600052603260045260246000fd5b919082039182116118a857565b818102929181159184041417156118a857565b811561276d570490565b919082018092116118a857565b6020612f9f919392936040519481611ded879351809286808701910161235a565b565b60031115612ee757565b60001981146118a85760010190565b97929491969390959760e05260a0526080526060938051612feb612fdd82612485565b60405160c05260c0516123f3565b8060c05152612ffc601f1991612485565b0160005b8181106135c2575050604051613015816123d8565b60008152926000975b60e051518910156134b35760009761304560ff61303d8c60e051612f1d565b511685612f1d565b516101005261309e838361306661305b8b6145ae565b610100515190612f7e565b61010051606081015160208201516040830151608084015160a085015160c09095015195949390929061309887612fa1565b8a6139e4565b9689965b88518810156134a1576130cd6130b8898b612f1d565b5160006040516130c7816123d8565b526145ae565b906130f160206101005151936040519481611ded879351809286808701910161235a565b61310b602060a0510151612286606060a051015185613670565b9b61312360a05151612286604060a051015186613670565b9061312d84613649565b613497578d6001945b610100515190613145856145ae565b9161314f846145ae565b60805161315c908a61273a565b61316590614067565b60805161317190614067565b91604051958694602086017f3c7573652066696c6c3d223c212d2d7264436f6c6f722d2d3e2220687265663d905261222360f01b60408701526042908051908183890191602001916131c29261235a565b86019081016000805160206148f5833981519152905260598251928382840191602001916131ef9261235a565b82820101600b60fa1b905282519283838301605a0191602001916132129261235a565b8282820101605a016705240e6c6c2d8ca560c31b905283519384848484010160620191602001916132429261235a565b600160fd1b82820184018501606281019190915285519561326d91879160639091019060200161235a565b631491179f60e11b85858585850101010160630152010101010360478101835260670161329a90836123f3565b6132a3916140fe565b604051916132b0836123a2565b825260208201528160c051906132c591612f1d565b528060c051906132d491612f1d565b506132de90612fab565b9c610100515193604051928360208101968781516020819301916133019261235a565b810160208101642d6d61736b60d81b90520360058101855260250161332690856123f3565b61332f906145ae565b91613339906145ae565b906080516133469161273a565b61334f90614067565b9060805161335c90614067565b926040519686889751908160208a0191602001916133799261235a565b87016b3c75736520687265663d222360a01b6020820152602c965191828883016133a29261235a565b7f2266696c7465723d2275726c28236d616b65426c61636b2922207472616e73669101958601526f037b9369e913a3930b739b630ba3294160851b604c8601528051605c9590916133fb9083908884019060200161235a565b01938401600b60fa1b9052605d9381519182868301916020019161341e9261235a565b019283016705240e6c6c2d8ca560c31b90526065928151918285830191602001916134489261235a565b01918201600160fd1b905260669181519182848301916020019161346b9261235a565b0190631491179f60e11b9082015203604a81018252606a0161348d90826123f3565b96600101966130a2565b8d60001994613136565b6001909b019a9199509650945061301e565b50505093509193505060c0515160005b8181106135055750506000925b60c05151841015613500576134f860019160206134ef8760c051612f1d565b51015190612f7e565b9301926134d0565b925090565b9260009491945b6135168587612f47565b60001981019081116118a8578110156135b5576135358160c051612f1d565b515190600181018082116118a8576001926135528260c051612f1d565b515110613561575b500161350c565b6135ae906135718360c051612f1d565b5161357e8260c051612f1d565b5161358b8560c051612f1d565b526135988460c051612f1d565b506135a58260c051612f1d565b5260c051612f1d565b503861355a565b50909390926001016134c3565b602090604099959693989499516135d8816123a2565b60008152826060818301528260c0510101520197929691949397613000565b90612f9f60276040518094633c212d2d60e01b602083015261362381518092602060248601910161235a565b81016216969f60e91b60248201520360078101855201836123f3565b811561276d570690565b6001906040516136696020828161150e818301968781519384920161235a565b5190201690565b60405161368d6020828161150e818301968781519384920161235a565b51902090600181018091116118a85761263c9161363f565b6065906040516136c56020828161150e818301968781519384920161235a565b5190200690565b82821161371757816136fe916040516136f56020828161150e818301968781519384920161235a565b51902093612f47565b91600183018093116118a85761263c926122869161363f565b60405162461bcd60e51b81526020600482015260076024820152660dad2dc7cdac2f60cb1b6044820152606490fd5b9061376c906236ee808091079207916000928381126137ce575b8382126137be5761281c565b90621b774061377a836148e0565b13613783575090565b808213156137b4576236ee7f1982019182136001166137a0575090565b634e487b7160e01b81526011600452602490fd5b5061263c906127c2565b906137c8906127c2565b9061281c565b6137d7906127c2565b613760565b91926137e78361275d565b605f810290808205605f14901517156118a8576138038161279e565b8513908161399f575b50613822575b505050506040516128f6816123d8565b61382b91613746565b90620ac409821280613992575b6138425780613812565b60648061386d83620927c0612960608a9662124f8061386661293061263c9b6127e1565b059961273a565b940593059261387b81614067565b9061388b6129fd61087a87614067565b906040519586936f3c673e203c636972636c652063783d2760801b60208601526138bf81518092602060308901910161235a565b84019165272063793d2760d01b928360308201526138e782518093602060368501910161235a565b017f2720723d273538272066696c6c3d272366666627202f3e203c636972636c652060368201526363783d2760e01b605682015261392f825180936020605a8501910161235a565b0190605a82015261394a82518093602060608501910161235a565b017f2720723d273935272066696c6c3d272366666627206f7061636974793d27302e606082015269191b1390179f1e17b39f60b11b608082015203606a8101845201826123f3565b50620ac408198213613838565b6139a991506127af565b8413153861380c565b906139bc82612485565b6139c960405191826123f3565b82815280926139da601f1991612485565b0190602036910137565b9391979096929594986139fb83611ccc8988612f47565b938592613a0782612fa1565b60028203613b97575b50505080613a2188613a279361363f565b90612f47565b97613a4387611d15613a3c611d00838861363f565b809c612f47565b95600198600188018098116118a857613a5b886139b2565b9a6000998b8b8e5b8c8210613ab05750505050505050505050505050613a80816139b2565b9260005b828110613a92575050505090565b80613a9e859284612f1d565b51613aa98288612f1d565b5201613a84565b8b9089613ac6613ac08786612f54565b88612f71565b613b0d613ad2826145ae565b946040518096602092613aed8151809286808701910161235a565b8201613b018251809386808501910161235a565b010380875201856123f3565b89898c613b19876136a5565b10613b2e575b505050505050018c908e613a63565b613b4261220493612286613b489689613670565b956136cc565b8c808411159182613b8c575b505080613b82575b613b6a575b89828989613b1f565b906122cc613b7a939f8093612f1d565b9b388f613b61565b508a821015613b5c565b101590508c38613b54565b6001959193508692670de0b6b3a7640000918290049291900481613bba86612fa1565b60018614928380613cc0575b15613c9157505082945b60018b1517156118a8578a92613be582612fa1565b15613c475750613bf59250612f47565b808211613c3f575b50808211613c36575b909215613c1557388080613a10565b505050505050505050604051613c2a816123d8565b60008152600036813790565b60009350613c06565b905038613bfd565b9050613c5281612fa1565b15613c5f575b5050613c06565b613c6891612f47565b808611613c89575b50808211613c80575b3887613c58565b60009350613c79565b905038613c70565b613c9c879297612fa1565b8282159182613cb6575b505015613bd05794508094613bd0565b1190508238613ca6565b50848110613bc6565b8015613db05760009081811380600114613d895715613d63575b808002916001805b808211613d205750508082136001600160ff1b038490048311166137a057808212600160ff1b8490058312166137a057500290565b90936001600160ff1b038190048111613d4f57818516613d46575b800293811c90613ceb565b80930292613d3b565b634e487b7160e01b83526011600452602483fd5b6001600160ff1b03819005811215613ce357634e487b7160e01b82526011600452602482fd5b506001600160ff1b03819004811115613ce357634e487b7160e01b82526011600452602482fd5b50600090565b600080821292909183613ec4575b6305f5e10090838282019283129112908015821691151617613d4f57828212613e7e5781613e0a82613e04613dff613e1095613e4c9761281c565b6126ed565b92612800565b90612783565b670de0b6b3a7640000612960760a70c3c40a64e6c51999090b65f67d9240000000000000613e45613e4085613cc9565b61270a565b0592612722565b90670ae64b77e88c9285918183820193841291129080158216911516176137a05750905b1561263c5761263c9061279e565b80613e0a83613e96613dff613e1095613e9c97612800565b9261281c565b906720b2e267b9a5b78f918183820193841291129080158216911516176137a0575090613e70565b613ecd9061279e565b613dc4565b604090815191613ee1836123d8565b600083528051603a93613ef3826123a2565b60029160028152602095863681840137602282015b6000190190600a906f181899199a1a9b1b9c1cb0b131b232b360811b8282061a8353049081613f08575050613f3c91612f7e565b918051613f48816123d8565b600081526000825193613f5a856123a2565b600194859360018252893681840137602193828501865b614029575b505090613f8291612f7e565b945b613fd9575b50505091602191613fca949561263c94519583613faf889551809285808901910161235a565b840191601760f91b818401528351938491878501910161235a565b010360018101845201826123f3565b90919381815110156140235790849161401b8486518093600360fc1b8d83015261400c8d8251928391868601910161235a565b810103858101845201826123f3565b949291613f84565b93613f89565b9495946000190190600a906f181899199a1a9b1b9c1cb0b131b232b360811b8282061a8353049085821561405e579695613f71565b50959495613f76565b614087614081606461407a8185076148e0565b9305614717565b91614717565b6002815110156140bf576140ba6040519182602091600360fc1b83830152612a826021938251928391868601910161235a565b614087565b90602161263c9160405193816140df86935180926020808701910161235a565b8201601760f91b6020820152613fca825180936020878501910161235a565b9190604090601182519160209261412484828161150e818301968781519384920161235a565b519020069382519461022086018681106001600160401b03821117610ae05780855261414f816123a2565b600481526311b3333360e11b6102408801528652835161416e816123a2565b600790818152660236462643865360cc1b85820152848801528451614192816123a2565b818152662336383431393360c81b858201528588015284516141b3816123a2565b818152662365336363653560c81b85820152606088015284516141d5816123a2565b818152662366666636636360c81b85820152608088015284516141f7816123a2565b8181526608cd8d0e4d8c8d60ca1b8582015260a08801528451614219816123a2565b818152662339626232323160c81b8582015260c0880152845161423b816123a2565b818152662363336431376360c81b8582015260e0880152845161425d816123a2565b818152660236666643730360cc1b858201526101008801528451614280816123a2565b8181526611b333329b9b1b60c91b8582015261012088015284516142a3816123a2565b818152662366636438393960c81b8582015261014088015284516142c6816123a2565b8181526608d98c8e4c4c0d60ca1b8582015261016088015284516142e9816123a2565b818152662365363334326160c81b85820152610180880152845161430c816123a2565b818152662365393466316360c81b858201526101a0880152845161432f816123a2565b818152662362653138323360c81b858201526101c08801528451614352816123a2565b8181526608d8584dcc0ccd60ca1b858201526101e0880152845190614376826123a2565b81526611b29c9a3298b160c91b8482015261020087015260118110156143cb5761263c94956d1e109696b93221b7b637b916969f60911b9160051b01519351926143bf846123a2565b600e845283015261476a565b835162461bcd60e51b815260048101849052600c60248201526b0deeae840decc40d2dcc8caf60a31b6044820152606490fd5b90602491631e17b39f60e11b612f9f94969560405197889460209461442b8151809288808b01910161235a565b860161443f8251809388808501910161235a565b016144528251809387808501910161235a565b016144658251809386808501910161235a565b01918201520360048101855201836123f3565b90612f9f60236040518461449682965180926020808601910161235a565b81016264656760e81b60208201520360038101855201836123f3565b604051906144bf826123a2565b600a8252691e109696b0bd3496969f60b11b6020830152565b604051906144e5826123a2565b600a8252691e109696b0b63a16969f60b11b6020830152565b604051607461450c826123a2565b6003825260203681840137602382015b6000190190600a906f181899199a1a9b1b9c1cb0b131b232b360811b8282061a835304908161451c57505090565b6040516000614558826123a2565b600190600183526020368185013760218301825b614577575b50505090565b6000190190600a906f181899199a1a9b1b9c1cb0b131b232b360811b8282061a8353049182156145a95791908261456c565b614571565b806000917a184f03e93ff9f4daa797ed6e38ed64bf6a1f01000000000000000080821015614709575b506d04ee2d6d415b85acef8100000000808310156146fa575b50662386f26fc10000808310156146eb575b506305f5e100808310156146dc575b50612710808310156146cd575b5060648210156146bd575b600a809210156146b3575b600190816021600186019561464887612414565b9661465660405198896123f3565b808852614665601f1991612414565b01366020890137860101905b61467d575b5050505090565b600019019083906f181899199a1a9b1b9c1cb0b131b232b360811b8282061a8353049182156146ae57919082614671565b614676565b9160010191614634565b9190606460029104910191614629565b6004919392049101913861461e565b60089193920491019138614611565b60109193920491019138614602565b602091939204910191386145f0565b6040935081049150386145d7565b61263c9061201c60008212918260001461475457604051614737816123a2565b60018152602d60f81b6020820152925b156145ae576000036145ae565b604051614760816123d8565b6000815292614747565b90929192819082519281518651936020978880809501950190878560405101930193858501988111156147e1575b5050508394508095939160405195869103910301945b8382106147d25750506000848401968701525050603f909301601f19166040528252565b815181529082019082016147ae565b90919293959450602181870301968a6000936000828510156148d7575b601f859998979916830360031b9851965b88518881188b1c1561484b57815260018091019801988b8a1015614835575b989761480f565b505050959750505050509183925b388080614798565b918497949598919a92819d94979a9c9d614890575b50505050505b8181840101518188015201908382101561488257908290614866565b505092019201928392614843565b90809293949596508a8d20036148a857879594614860565b8a9192989597949c9b9996939a5260018091019801988b8a1061482e5750505095975050505050918392614843565b508386206147fe565b600081126148eb5790565b61263c9061279e56fe22207472616e73666f726d3d227472616e736c61746528000000000000000000a26469706673582212208badc8708c41f01c4ee64345b609506f72cbc25465f480dd9a202c7fa32f714364736f6c63430008190033","linkReferences":{}},"methodIdentifiers":{"adjustTimeStampsForAssetVisibility(uint256,uint256,uint256,uint256,DAYTIME,uint256,uint256)":"9163cba5","applyNight(int256,MotifType)":"fecb0d4f","computeStarttime(uint256,uint256,uint256,uint256,uint256,uint256,string,DAYTIME,uint256,uint256)":"a40e9e9e","generateClouds(int256,uint256)":"4b54268f","getDiffAngle(int256,int256)":"88134137","p_atan2(int256,int256)":"b4ce66db","randomNum(string,uint256,uint256)":"8587a4a5","randomNum(uint256,uint256,uint256)":"28294640","renderDecimal(int256)":"b8d22c58","renderFlower(string,int256,int256,int256,FlowerType,string,string,string,string,bool)":"d79783a7","renderMainScene(string,uint256,uint256,SceneInMotif[],AssetInScene[],uint256,uint256)":"b057948e","renderMoon(MotifType,int256,int256,int256,int256,int256,int256,int256)":"07704b93","renderMovingAsset(uint256,string,string,bool,uint256,uint256,bool,uint256,uint256,uint256,uint256,uint256,uint256)":"3235ac6d","renderReplacements(string,Replacement[])":"c2209fb9","renderSceneAssets(uint8[],AssetInScene[],uint256,uint256,int256[4],uint256,uint256,uint256)":"366a3018","renderSun(uint256,int256,int256,uint256)":"955cb78f","setRandomColor(string,string)":"c528fb33","setUseRotations(string,string,int256[],int16[2])":"d8ce367a","setUseTags(string,string,int16[],bool,string)":"3899f054"},"id":6}