{"abi":[{"type":"function","name":"applyNight","inputs":[{"name":"altitude","type":"int256","internalType":"int256"},{"name":"tokenId","type":"uint256","internalType":"uint256"}],"outputs":[{"name":"","type":"string","internalType":"string"}],"stateMutability":"pure"},{"type":"function","name":"generateClouds","inputs":[{"name":"skyHeight","type":"int256","internalType":"int256"},{"name":"nonce","type":"uint256","internalType":"uint256"}],"outputs":[{"name":"","type":"string","internalType":"string"}],"stateMutability":"pure"},{"type":"function","name":"getDiffAngle","inputs":[{"name":"azimuth","type":"int256","internalType":"int256"},{"name":"heading","type":"int256","internalType":"int256"}],"outputs":[{"name":"","type":"int256","internalType":"int256"}],"stateMutability":"pure"},{"type":"function","name":"renderAirplanes","inputs":[{"name":"svg","type":"string","internalType":"string"},{"name":"timestamp","type":"uint256","internalType":"uint256"},{"name":"tokenId","type":"uint256","internalType":"uint256"},{"name":"horizonInPx","type":"uint256","internalType":"uint256"}],"outputs":[{"name":"","type":"string","internalType":"string"},{"name":"","type":"string","internalType":"string"}],"stateMutability":"pure"},{"type":"function","name":"renderFlower","inputs":[{"name":"svg","type":"string","internalType":"string"},{"name":"azimuth","type":"int256","internalType":"int256"},{"name":"altitude","type":"int256","internalType":"int256"},{"name":"heading","type":"int256","internalType":"int256"},{"name":"flowerType","type":"FlowerType","internalType":"enum FlowerType"},{"name":"flowerParts","type":"tuple","internalType":"struct FlowerParts","components":[{"name":"back","type":"string","internalType":"string"},{"name":"front","type":"string","internalType":"string"},{"name":"blossom","type":"string","internalType":"string"},{"name":"stick","type":"string","internalType":"string"}]},{"name":"hasPot","type":"bool","internalType":"bool"}],"outputs":[{"name":"","type":"string","internalType":"string"}],"stateMutability":"pure"},{"type":"function","name":"renderLighthouse","inputs":[{"name":"svg","type":"string","internalType":"string"},{"name":"altitude","type":"int256","internalType":"int256"},{"name":"timestamp","type":"uint256","internalType":"uint256"},{"name":"tokenId","type":"uint256","internalType":"uint256"}],"outputs":[{"name":"","type":"string","internalType":"string"}],"stateMutability":"pure"},{"type":"function","name":"renderMainScene","inputs":[{"name":"svg","type":"string","internalType":"string"},{"name":"timestamp","type":"uint256","internalType":"uint256"},{"name":"tokenID","type":"uint256","internalType":"uint256"},{"name":"scenes","type":"tuple[]","internalType":"struct SceneInMotif[]","components":[{"name":"placeHolder","type":"string","internalType":"string"},{"name":"assets","type":"uint8[]","internalType":"uint8[]"},{"name":"area","type":"int256[4]","internalType":"int256[4]"},{"name":"scale","type":"uint256","internalType":"uint256"}]},{"name":"assetsInScene","type":"tuple[]","internalType":"struct AssetInScene[]","components":[{"name":"name","type":"string","internalType":"string"},{"name":"minDuration","type":"uint256","internalType":"uint256"},{"name":"maxDuration","type":"uint256","internalType":"uint256"},{"name":"checkInterval","type":"uint256","internalType":"uint256"},{"name":"possibleOffset","type":"uint256","internalType":"uint256"},{"name":"probability","type":"uint256","internalType":"uint256"},{"name":"dayTime","type":"DAYTIME","internalType":"enum DAYTIME"}]},{"name":"sunrise","type":"uint256","internalType":"uint256"},{"name":"sunset","type":"uint256","internalType":"uint256"}],"outputs":[{"name":"","type":"string","internalType":"string"},{"name":"","type":"string","internalType":"string"}],"stateMutability":"pure"},{"type":"function","name":"renderMoon","inputs":[{"name":"tokenId","type":"uint256","internalType":"uint256"},{"name":"heading","type":"int256","internalType":"int256"},{"name":"skyHeight","type":"int256","internalType":"int256"},{"name":"azimuth","type":"int256","internalType":"int256"},{"name":"altitude","type":"int256","internalType":"int256"},{"name":"pa","type":"int256","internalType":"int256"},{"name":"fraction","type":"int256","internalType":"int256"},{"name":"angle","type":"int256","internalType":"int256"}],"outputs":[{"name":"","type":"string","internalType":"string"}],"stateMutability":"pure"},{"type":"function","name":"renderMovingAsset","inputs":[{"name":"timestamp","type":"uint256","internalType":"uint256"},{"name":"salt","type":"string","internalType":"string"},{"name":"assetName","type":"string","internalType":"string"},{"name":"hasRandomColor","type":"bool","internalType":"bool"},{"name":"minY","type":"uint256","internalType":"uint256"},{"name":"maxY","type":"uint256","internalType":"uint256"},{"name":"horizontUp","type":"bool","internalType":"bool"},{"name":"minScale","type":"uint256","internalType":"uint256"},{"name":"maxScale","type":"uint256","internalType":"uint256"},{"name":"duration","type":"uint256","internalType":"uint256"},{"name":"checkInterval","type":"uint256","internalType":"uint256"},{"name":"appearanceProbability","type":"uint256","internalType":"uint256"},{"name":"possibleOffset","type":"uint256","internalType":"uint256"}],"outputs":[{"name":"","type":"string","internalType":"string"}],"stateMutability":"pure"},{"type":"function","name":"renderSceneAssets","inputs":[{"name":"scene","type":"tuple","internalType":"struct SceneInMotif","components":[{"name":"placeHolder","type":"string","internalType":"string"},{"name":"assets","type":"uint8[]","internalType":"uint8[]"},{"name":"area","type":"int256[4]","internalType":"int256[4]"},{"name":"scale","type":"uint256","internalType":"uint256"}]},{"name":"assets","type":"tuple[]","internalType":"struct AssetInScene[]","components":[{"name":"name","type":"string","internalType":"string"},{"name":"minDuration","type":"uint256","internalType":"uint256"},{"name":"maxDuration","type":"uint256","internalType":"uint256"},{"name":"checkInterval","type":"uint256","internalType":"uint256"},{"name":"possibleOffset","type":"uint256","internalType":"uint256"},{"name":"probability","type":"uint256","internalType":"uint256"},{"name":"dayTime","type":"DAYTIME","internalType":"enum DAYTIME"}]},{"name":"sceneUtils","type":"tuple","internalType":"struct NDRenderer.SceneUtils","components":[{"name":"sunrise","type":"uint256","internalType":"uint256"},{"name":"sunset","type":"uint256","internalType":"uint256"},{"name":"timestamp","type":"uint256","internalType":"uint256"},{"name":"tokenId","type":"uint256","internalType":"uint256"}]}],"outputs":[{"name":"","type":"tuple","internalType":"struct NDRenderer.RenderedScene","components":[{"name":"sceneSvg","type":"string","internalType":"string"},{"name":"nightMaskSvg","type":"string","internalType":"string"}]}],"stateMutability":"pure"},{"type":"function","name":"renderSun","inputs":[{"name":"skyHeight","type":"uint256","internalType":"uint256"},{"name":"azimuth","type":"int256","internalType":"int256"},{"name":"altitude","type":"int256","internalType":"int256"},{"name":"heading","type":"uint256","internalType":"uint256"}],"outputs":[{"name":"","type":"string","internalType":"string"}],"stateMutability":"pure"},{"type":"function","name":"renderSunclock","inputs":[{"name":"svg","type":"string","internalType":"string"},{"name":"azimuth","type":"int256","internalType":"int256"},{"name":"altitude","type":"int256","internalType":"int256"},{"name":"heading","type":"int256","internalType":"int256"}],"outputs":[{"name":"","type":"string","internalType":"string"}],"stateMutability":"pure"},{"type":"function","name":"sortElements","inputs":[{"name":"elements","type":"tuple[]","internalType":"struct NDRenderer.SceneElement[]","components":[{"name":"y","type":"uint256","internalType":"uint256"},{"name":"x","type":"uint256","internalType":"uint256"},{"name":"xScale","type":"int256","internalType":"int256"},{"name":"svg","type":"string","internalType":"string"},{"name":"posSalt","type":"string","internalType":"string"},{"name":"decimalScaleX","type":"string","internalType":"string"},{"name":"decimalScaleY","type":"string","internalType":"string"}]}],"outputs":[{"name":"","type":"tuple[]","internalType":"struct NDRenderer.SceneElement[]","components":[{"name":"y","type":"uint256","internalType":"uint256"},{"name":"x","type":"uint256","internalType":"uint256"},{"name":"xScale","type":"int256","internalType":"int256"},{"name":"svg","type":"string","internalType":"string"},{"name":"posSalt","type":"string","internalType":"string"},{"name":"decimalScaleX","type":"string","internalType":"string"},{"name":"decimalScaleY","type":"string","internalType":"string"}]}],"stateMutability":"pure"}],"bytecode":{"object":"0x60808060405234601957615480908161001f823930815050f35b600080fdfe6080604052600436101561001257600080fd5b60003560e01c806331ae97d0146100e75780633235ac6d146100e257806336f14057146100dd5780633ec6da90146100d85780634b54268f146100d3578063717dbd5a146100ce57806386689cfb146100c957806388134137146100c4578063955cb78f146100bf5780639a085c48146100ba578063b057948e146100b5578063cd1406d6146100b05763d49f8002146100ab57600080fd5b6111db565b611098565b610fb7565b610f23565b610cb8565b610c94565b610c52565b610b5d565b6106dc565b6105f0565b61047b565b6102fe565b610286565b634e487b7160e01b600052604160045260246000fd5b608081019081106001600160401b0382111761011d57604052565b6100ec565b604081019081106001600160401b0382111761011d57604052565b602081019081106001600160401b0382111761011d57604052565b61044081019081106001600160401b0382111761011d57604052565b90601f801991011681019081106001600160401b0382111761011d57604052565b6040519060e082018281106001600160401b0382111761011d57604052565b604051906101c182610102565b565b6001600160401b03811161011d57601f01601f191660200190565b81601f82011215610225578035906101f5826101c3565b926102036040519485610174565b8284526020838301011161022557816000926020809301838601378301015290565b600080fd5b60005b83811061023d5750506000910152565b818101518382015260200161022d565b906020916102668151809281855285808601910161022a565b601f01601f1916010190565b90602061028392818152019061024d565b90565b6080366003190112610225576004356001600160401b038111610225576102c86102b76102dc9236906004016101de565b606435906044359060243590611616565b60405191829160208352602083019061024d565b0390f35b60643590811515820361022557565b60c43590811515820361022557565b6101a0366003190112610225576001600160401b036024358181116102255761032b9036906004016101de565b90604435908111610225576102dc9161034b61038a9236906004016101de565b6103536102e0565b9061035c6102ef565b906101843593610164359361014435936101243593610104359360e4359360a435926084359260043561240d565b60405191829182610272565b6001600160401b03811161011d5760051b60200190565b6020808201908083528351809252604092604081018260408560051b8401019601946000925b8584106103e4575050505050505090565b90919293949596858061046a600193603f198682030188528b5161045761044461043160e08451865287850151888701528b8501518c87015260609080828701519288015286019061024d565b608080850151908683039087015261024d565b60a080840151908583039086015261024d565b9160c0809201519181840391015261024d565b9901940194019295949391906103d3565b602080600319360112610225576001600160401b0390600435828111610225573660238201121561022557602460048201356104b681610396565b946040906104c76040519788610174565b82875283602088019360051b8601019436861161022557848101935b868510610502576102dc6104f68a612918565b604051918291826103ad565b843583811161022557820160e0602319823603011261022557610523610195565b9187820135835260448201358a840152606482013586840152608482013585811161022557610557908936918501016101de565b606084015260a482013585811161022557610577908936918501016101de565b608084015260c482013585811161022557610597908936918501016101de565b60a084015260e482013592858411610225576105bb8b94938a8695369201016101de565b60c08201528152019401936104e3565b90916105e26102839360408452604084019061024d565b91602081840391015261024d565b6080366003190112610225576004356001600160401b0381116102255761061b9036906004016101de565b60243560643561062c604435614d21565b601d198201918083116106d7576106b26106b8926106c7956106a361069d6106778860405161065a81610122565b60098152686165726f706c616e6560b81b60208201528686611d1d565b9760405161068481610122565b6005815264666c6f636b60d81b602082015285856120fd565b94611af9565b916106ac6129e0565b91611d1d565b92611cdc565b926106c1612a02565b90614af6565b906102dc604051928392836105cb565b61123c565b604036600319011261022557602435600461072960206106fb84612a21565b936040518093819262a0a51960e61b8352868301604060059193929360608101948152600160208201520152565b038173__$30acca89589d9a9b80eb3e09f3c9eae508$__5af4908115610a8e57600091610b3e575b5061075a61120b565b9260005b828110610771576102dc61038a86612b1c565b6107ad602061077f84612a21565b936040518093819262a0a51960e61b8352898301604060029193929360608101948152600160208201520152565b038173__$30acca89589d9a9b80eb3e09f3c9eae508$__5af4908115610a8e57600091610b1f575b5061081460206107e485612a21565b946040518093819262a0a51960e61b83528a35908b84016040909392919360608101948152600060208201520152565b038173__$30acca89589d9a9b80eb3e09f3c9eae508$__5af4908115610a8e57600091610b00575b5061087a602061084b86612a21565b956040518093819262a0a51960e61b83528b830160406104429193929360608101948152600060208201520152565b038173__$30acca89589d9a9b80eb3e09f3c9eae508$__5af48015610a8e576108ae91600091610ae1575b509291926119e4565b6000905b8282106108c5575050505060010161075e565b9091929761090560206108d788612a21565b976040518093819262a0a51960e61b83528d8301604060329193929360608101948152600a60208201520152565b038173__$30acca89589d9a9b80eb3e09f3c9eae508$__5af4908115610a8e57600091610ac2575b5061096c81602061093d8a612a21565b998c604051948592839262a0a51960e61b84528301604060019193929360608101948152600060208201520152565b038173__$30acca89589d9a9b80eb3e09f3c9eae508$__5af4908115610a8e576109e893600187936109ad95600091610aa3575b5014610a93575b50611490565b9160206109b989612a21565b988b604051948592839262a0a51960e61b84528301604060649193929360608101948152605060208201520152565b038173__$30acca89589d9a9b80eb3e09f3c9eae508$__5af4908115610a8e576001938c610a5093610a5695600091610a5f575b50610a38610a32610a2c85614e65565b93614d21565b91614d21565b91610a4a610a44614cd5565b94614e65565b94612a41565b99611b07565b939201906108b2565b610a81915060203d602011610a87575b610a798183610174565b8101906113be565b38610a1c565b503d610a6f565b6113cd565b610a9d9150612a30565b386109a7565b610abc915060203d602011610a8757610a798183610174565b386109a0565b610adb915060203d602011610a8757610a798183610174565b3861092d565b610afa915060203d602011610a8757610a798183610174565b386108a5565b610b19915060203d602011610a8757610a798183610174565b3861083c565b610b38915060203d602011610a8757610a798183610174565b386107d5565b610b57915060203d602011610a8757610a798183610174565b38610751565b60031960e0368201126102255760046001600160401b03813581811161022557610b8a90369084016101de565b90608435838110156102255760a4359482861161022557608090863603011261022557610bb56101b4565b918585013581811161022557610bd0908636918901016101de565b8352602486013581811161022557610bed908636918901016101de565b6020840152604486013581811161022557610c0d908636918901016101de565b60408401526064860135908111610225576102dc9561038a95610c3392369201016101de565b6060830152610c406102ef565b92606435906044359060243590612fc9565b6080366003190112610225576004356001600160401b038111610225576102c8610c836102dc9236906004016101de565b6064359060443590602435906134b5565b6040366003190112610225576020610cb060243560043561360a565b604051908152f35b6080366003190112610225576102dc6102c86064356044356024356004356137e9565b9080601f830112156102255760405191610cf483610102565b82906080810192831161022557905b828210610d105750505090565b8135815260209182019101610d03565b91909160e0818403126102255760405190610d3a82610102565b819381356001600160401b03908181116102255782610d5a9185016101de565b8452602090818401359081116102255783019082601f8301121561022557813591610d8483610396565b92610d926040519485610174565b808452828085019160051b83010191858311610225578301905b828210610dd85750505084015260609160c091610dcc9060408301610cdb565b60408501520135910152565b813560ff81168103610225578152908301908301610dac565b3590600382101561022557565b81601f8201121561022557803591602091610e1884610396565b93604092610e296040519687610174565b818652848087019260051b8401019381851161022557858401925b858410610e55575050505050505090565b6001600160401b039084358281116102255786019060e09182601f19828803011261022557610e82610195565b908a81013594851161022557610edf8b9594610ea3898880988601016101de565b845287830135868501526060928381013589860152608093848201359086015260a093848201359086015260c093848201359086015201610df1565b90820152815201930192610e44565b9061028391602081526020610f0e8351604083850152606084019061024d565b920151906040601f198285030191015261024d565b60c0366003190112610225576001600160401b0360043581811161022557610f4f903690600401610d20565b9060243590811161022557610f68903690600401610dfe565b6080366043190112610225576102dc91610fab9160405191610f8983610102565b60443583526064356020840152608435604084015260a4356060840152613d07565b60405191829182610eee565b60e0366003190112610225576001600160401b0360043581811161022557610fe39036906004016101de565b60249060643583811161022557366023820112156102255780600401359061100a82610396565b936110186040519586610174565b8285526020926024602087019160051b840101923684116102255760248101915b8483106110725760843588888b83116102255761105d6106c7933690600401610dfe565b60c4359260a43592604435906024359061423b565b823589811161022557869161108d8392873691870101610d20565b815201920191611039565b60403660031901126102255760043560006202bf1f1980831215611144575050506110e0600060645b6040518093819263171a458b60e31b8352600483019190602083019252565b038173__$30acca89589d9a9b80eb3e09f3c9eae508$__5af4908115610a8e576102dc9161038a91600091611121575b5061111c602435614d21565b6142ff565b61113e91503d806000833e6111368183610174565b8101906114ac565b38611110565b81831290816111d1575b50156111c45750604051631b5ac4b560e01b8152600481019190915260208160248173__$30acca89589d9a9b80eb3e09f3c9eae508$__5af48015610a8e576108986000916110e09383916111a5575b50056110c1565b6111be915060203d602011610a8757610a798183610174565b3861119e565b6110e091506000906110c1565b905082133861114e565b610100366003190112610225576102dc6102c860e43560c43560a4356084356064356044356024356004356145ef565b604051906112188261013d565b60008252565b6040519061122b82610122565b6002825261247360f01b6020830152565b634e487b7160e01b600052601160045260246000fd5b90663e01ad54cfec80918281029281840514901517156106d757565b90601e820291808305601e14901517156106d757565b906064820291808305606414901517156106d757565b9061043891808302928305036106d757565b9061032a918281029281840514901517156106d757565b906044820291808305604414901517156106d757565b90605f820291808305605f14901517156106d757565b9062a4cb80918281029281840514901517156106d757565b90603a820291808305603a14901517156106d757565b908160011b9160028305036106d757565b906208d9a0918281029281840514901517156106d757565b818102929160008212600160ff1b8214166106d75781840514901517156106d757565b634e487b7160e01b600052601260045260246000fd5b801561138e576302faf0800590565b611369565b801561138e57640165a0bc000590565b811561138e57600160ff1b81146000198314166106d7570590565b90816020910312610225575190565b6040513d6000823e3d90fd5b9081611770019182126001166106d757565b9081600a019182126001166106d757565b906803afb087b87690000091600083820193841291129080158216911516176106d757565b906236ee8091600083820193841291129080158216911516176106d757565b9081620927c0019182126001166106d757565b90620927c091600083820193841291129080158216911516176106d757565b906116a891600083820193841291129080158216911516176106d757565b919091600083820193841291129080158216911516176106d757565b602081830312610225578051906001600160401b038211610225570181601f820112156102255780516114de816101c3565b926114ec6040519485610174565b8184526020828401011161022557610283916020808501910161022a565b9061151d6020928281519485920161022a565b0190565b60876101c1919392936040519485917f3c7265637420783d223831372220793d2236363422206f7061636974793d223060208401527f2e36222066696c6c3d2223363439363234222077696474683d22332e3622206860408401526632b4b3b43a1e9160c91b60608401526115a081518092602060678701910161022a565b82017304440e8e4c2dce6ccdee4da7a44e4dee8c2e8ca560631b60678201526115d3825180936020607b8501910161022a565b016b101c189c901b1b1a1491179f60a11b607b820152036067810185520183610174565b6040519061160482610122565b6003825262048e6d60eb1b6020830152565b91929060008094126117b1579061162c9161360a565b9161164161163984611252565b612710900590565b611692602061167361166773__$30acca89589d9a9b80eb3e09f3c9eae508$__94614c6c565b655af3107a4000900590565b60405180938192631b5ac4b560e01b8352600483019190602083019252565b0381855af48015610a8e576116b56116ba916116bf938691611792575b5061137f565b6113d9565b61126e565b620f4240908181131561178a5750905b60405163171a458b60e31b808252606490930560048201528381602481855af4918215610a8e57611724968592839461176b575b50606492939460405198899485938493845205600483019190602083019252565b03915af4908115610a8e576102839483611745949361174e575b5050611521565b906106c16115f7565b6117639293503d8091833e6111368183610174565b90388061173e565b6064939450611783903d8087833e6111368183610174565b9392611703565b9050906116cf565b6117ab915060203d602011610a8757610a798183610174565b386116af565b505061028391506117c061121e565b6117c861120b565b91614af6565b634e487b7160e01b600052602160045260246000fd5b6020908181840312610225578051906001600160401b03821161022557019180601f8401121561022557825161181981610396565b936118276040519586610174565b818552838086019260051b820101928311610225578301905b82821061184e575050505090565b81518152908301908301611840565b9060c0611873835160e0845260e084019061024d565b926020810151602084015260408101516040840152606081015160608401526080810151608084015260a081015160a084015201519060038210156118b95760c0015290565b6117ce565b93926118ee906118e060019460a094885260c0602089015260c088019061185d565b90868203604088015261024d565b9360006060820152600060808201520152565b80518210156119155760209160051b010190565b634e487b7160e01b600052603260045260246000fd5b6000198101919082116106d757565b60640390606482116106d757565b601d198101919082116106d757565b919082039182116106d757565b92919061197b60409160608652606086019061024d565b93600060208201520152565b92919061199e60409160608652606086019061024d565b93601e60208201520152565b6119c26040929594939560608352606083019061024d565b9460208201520152565b9190604061197b60019260608652606086019061024d565b9060091982019182136001166106d757565b9060008260640392126064831281169060648413901516176106d757565b906236ee7f1982019182136001166106d757565b906208d99f1982019182136001166106d757565b9061270f1982019182136001166106d757565b818103929160001380158285131691841216176106d757565b90670de0b6b3a7640000918281029281840414901517156106d757565b906064820291808304606414901517156106d757565b908160011b91808304600214901517156106d757565b90666f9c9e6576434c918281029281840414901517156106d757565b9060009115600117156106d757565b818102929181159184041417156106d757565b811561138e570490565b9060c882018092116106d757565b90601e82018092116106d757565b90600182018092116106d757565b919082018092116106d757565b90611b7595946001611be46101c196604d600597611bf396602c6040519d8e809b6b3c75736520687265663d222360a01b60208301526020815194859301910161022a565b89017604440e8e4c2dce6ccdee4da7a44e8e4c2dce6d8c2e8ca5604b1b602c820152611bab82518093602060438501910161022a565b0161016160f51b6043820152611bcb82518093602060458501910161022a565b016705240e6c6c2d8ca560c31b6045820152019061150a565b600160fd1b81525b019061150a565b64149011179f60d91b815203601a19810185520183610174565b90611c5295946001611be46101c1966063600597611bf396602c6040519d8e809b6b3c75736520687265663d222360a01b60208301526020815194859301910161022a565b89017f222066696c6c3d223c212d2d7264436f6c6f722d2d3e22207472616e73666f72602c8201526c0da7a44e8e4c2dce6d8c2e8ca5609b1b604c820152611ca482518093602060598501910161022a565b0161016160f51b6059820152611cc4825180936020605b8501910161022a565b01611bec605b82016705240e6c6c2d8ca560c31b9052565b60206101c1919392936040519481611cfd879351809286808701910161022a565b8201611d118251809386808501910161022a565b01038085520183610174565b92611dab9194936040805196600088611d42611d3c602083018561150a565b8961150a565b0398611d56601f199a8b8101835282610174565b611d5e610195565b8881526078602082015260788582015260786060820152603c6080820152603260a0820152611d9060c0820160029052565b84516305d35c4360e21b8152978892839288600485016118be565b038173__$30acca89589d9a9b80eb3e09f3c9eae508$__5af4948515610a8e576000956120d8575b5060609460005b81518110156120cc57611ded8183611901565b51611e0a611e03611dfe8389611957565b611284565b6078900590565b90601d19821215806120c1575b611e26575b5050600101611dda565b97611e5c611e38611e5093949a614d21565b8751938491611e4a602084018a61150a565b9061150a565b038d8101845283610174565b855191638587a4a560e01b80845260208480611e7c8d8660048401611964565b038173__$30acca89589d9a9b80eb3e09f3c9eae508$__5af4938415610a8e57600094612099575b50611ebe91602091895193849283928352600483016119cc565b038173__$30acca89589d9a9b80eb3e09f3c9eae508$__5af4908115610a8e5760009161207a575b5061205d5787611f60611f59611f53611f4d611f48611f3a611f356000195b60000b9a6000198c0361204357611f1e611f259161129a565b6064900590565b975b611f308b611a68565b611aef565b611acd565b670de0b6b3a7640000900490565b61193a565b93614e65565b94614d21565b9482611346565b875163171a458b60e31b80825260048201929092529160008360248173__$30acca89589d9a9b80eb3e09f3c9eae508$__5af4908115610a8e57611fc193600092612026575b50895192835260048301529091600090839081906024820190565b038173__$30acca89589d9a9b80eb3e09f3c9eae508$__5af4908115610a8e57600195612001958e611ffb95600095612009575b50611b30565b90611cdc565b969038611e1c565b61201f9195503d806000833e6111368183610174565b9338611ff5565b6000925061203d903d8085833e6111368183610174565b91611fa6565b611f1e612052612057926119f6565b61129a565b97611f27565b87611f60611f59611f53611f4d611f48611f3a611f356001611f05565b612093915060203d602011610a8757610a798183610174565b38611ee6565b6020919450916120b8611ebe93833d8511610a8757610a798183610174565b94915091611ea4565b506082821315611e17565b50949750505050505050565b6120f69195503d806000833e6120ee8183610174565b8101906117e4565b9338611dd3565b92612169919493604080519660008861211c611d3c602083018561150a565b0398612130601f199a8b8101835282610174565b612138610195565b88815261012c80602083015280868301526060820152605a6080820152603260a0820152611d9060c0820160029052565b038173__$30acca89589d9a9b80eb3e09f3c9eae508$__5af4948515610a8e576000956123f0575b5060609460005b81518110156120cc576121ab8183611901565b516121c46121bc611dfe8389611957565b61012c900590565b90601d19821215806123e5575b6121e0575b5050600101612198565b976121f2611e38611e5093949a614d21565b855191638587a4a560e01b808452602084806122128d8660048401611987565b038173__$30acca89589d9a9b80eb3e09f3c9eae508$__5af4938415610a8e576000946123bd575b5061225491602091895193849283928352600483016119cc565b038173__$30acca89589d9a9b80eb3e09f3c9eae508$__5af4908115610a8e5760009161239e575b5061237e57876122ce611f59611f53611f4d611f48611f3a611f356122bd6000195b60000b9b6000198d0361236f57611f1e6122b79161129a565b98611948565b611f306122c98c611948565b611a68565b875163171a458b60e31b80825260048201929092529160008360248173__$30acca89589d9a9b80eb3e09f3c9eae508$__5af4908115610a8e5761232e936000926120265750895192835260048301529091600090839081906024820190565b038173__$30acca89589d9a9b80eb3e09f3c9eae508$__5af4908115610a8e57600195612367958e611ffb956000956120095750611b30565b9690386121d6565b611f1e6120526122b7926119f6565b876122ce611f59611f53611f4d611f48611f3a611f356122bd600161229e565b6123b7915060203d602011610a8757610a798183610174565b3861227c565b6020919450916123dc61225493833d8511610a8757610a798183610174565b9491509161223a565b5060828213156121d1565b6124069195503d806000833e6120ee8183610174565b9338612191565b9693929799611e4a9061249a9c839f9e61244a60009561243c889f989c9b9c604051978893602085019061150a565b03601f198101865285610174565b612452610195565b928d84528660208501528660408501526060840152608083015260a082015261247e60c0820160029052565b6040516305d35c4360e21b81529c8d9283928b600485016118be565b038173__$30acca89589d9a9b80eb3e09f3c9eae508$__5af4998a15610a8e5760009a6128fb575b5060609960005b81518110156128eb57878e6124f5856124f0611dfe6124e88789611901565b518096611957565b6113a3565b91601d19831215806128e0575b612512575b5050506001016124c9565b611e4a91939e9361253861252861254693614d21565b604051948593602085019061150a565b03601f198101835282610174565b604051638587a4a560e01b815290602082806125678d8b86600485016119aa565b038173__$30acca89589d9a9b80eb3e09f3c9eae508$__5af4918215610a8e576000926128bf575b50604051638587a4a560e01b8152602081806125ae85600483016119cc565b038173__$30acca89589d9a9b80eb3e09f3c9eae508$__5af4908115610a8e578f90918c926000916128a0575b5061288757896126298a611f3061262361261c612615846000195b60000b9c6000198e0361287857611f1e61260f9161129a565b99611957565b938a611957565b9486611957565b93611a68565b918c1561285b5750611f3a6126479261264192611adc565b8a611b23565b905b8d156127a957611f59611f5361265e92614e65565b60405163171a458b60e31b80825260048201929092529160008360248173__$30acca89589d9a9b80eb3e09f3c9eae508$__5af4908115610a8e576126c19360009261278c575b5060405192835260048301529091600090839081906024820190565b038173__$30acca89589d9a9b80eb3e09f3c9eae508$__5af4908115610a8e578f95600095612716976126fb958895612770575b50611c0d565b60405163c528fb3360e01b81529384928392600484016105cb565b038173__$30acca89589d9a9b80eb3e09f3c9eae508$__5af4918215610a8e5760019261274c92600091612755575b5090611cdc565b9b908e38612507565b61276a91503d806000833e6111368183610174565b38612745565b6127859195503d808a833e6111368183610174565b93386126f5565b600092506127a3903d8085833e6111368183610174565b916126a5565b6127bf919250611f53611f599196949596614e65565b60405163171a458b60e31b80825260048201929092529160008360248173__$30acca89589d9a9b80eb3e09f3c9eae508$__5af4908115610a8e576128219360009261278c575060405192835260048301529091600090839081906024820190565b038173__$30acca89589d9a9b80eb3e09f3c9eae508$__5af4908115610a8e576001958f9561274c96611ffb956000956120095750611b30565b90611f3a6128729361286c92611adc565b90611957565b90612649565b611f1e61205261260f926119f6565b896126298a611f3061262361261c6126158460016125f6565b6128b9915060203d602011610a8757610a798183610174565b386125db565b6128d991925060203d602011610a8757610a798183610174565b903861258f565b506082831315612502565b50999b5050505050505050505050565b612911919a503d806000833e6120ee8183610174565b98386124c2565b805160009060005b81811061292d5750505090565b90929193845b6129456129408487611957565b61192b565b8110156129d3578061295960019286611901565b515161296d61296783611b15565b87611901565b51511061297b575b01612933565b6129cd6129888287611901565b5161299b61299584611b15565b88611901565b516129a68489611901565b526129b18388611901565b506129bb83611b15565b906129c68289611901565b5286611901565b50612975565b5093919290600101612920565b604051906129ed82610122565b600682526533bab63616b360d11b6020830152565b60405190612a0f82610122565b600382526224626960e81b6020830152565b60001981146106d75760010190565b600160ff1b81146106d75760000390565b946001612af66101c1966039600497612b0296979b9a612ae56040519d8e9a8b93612a78602095828780945194859301910161022a565b8c01753c706174682066696c6c3d22234646462220643d224d60501b85820152612aab825180938760368501910161022a565b01600160fd1b6036820152612ac9825180938660378501910161022a565b0191600d60fb1b6037840152835193849160388501910161022a565b01611bec60388201603b60f91b9052565b600960fb1b8152611bec565b633d11179f60e11b81525b03601b19810185520183610174565b906101c160356040518094701e339037b830b1b4ba3c9e9118171c111f60791b6020830152612b5581518092602060318601910161022a565b8101631e17b39f60e11b6031820152036015810185520183610174565b6040519060a082018281106001600160401b0382111761011d576040908152606283527f3c67207374796c653d227472616e73666f726d3a20726f74617465592824617a60208401527f692920726f74617465582824616c74293b207472616e73666f726d2d626f783a908301527f66696c6c2d626f783b7472616e73666f726d2d6f726967696e3a63656e746572606083015261111f60f11b6080830152565b906101c1929493602492612c7f604051978894602093612c3b8151809287808b01910161022a565b8601612c4f8251809387808501910161022a565b01612c628251809386808501910161022a565b0191631e17b39f60e11b818401528351938491878501910161022a565b01036004810185520183610174565b90602491631e17b39f60e11b6101c1949695604051978894602094612cbb8151809288808b01910161022a565b8601612ccf8251809388808501910161022a565b01612ce28251809387808501910161022a565b01612cf58251809386808501910161022a565b0191820152036004810185520183610174565b906101c1602360405184612d2682965180926020808601910161022a565b81016264656760e81b6020820152036003810185520183610174565b60405190612d4f82610122565b600482526324617a6960e01b6020830152565b60405190612d6f82610122565b600482526309185b1d60e21b6020830152565b600411156118b957565b60405190612d9982610122565b600582526424617a697360d81b6020830152565b60405190612dba82610122565b60018252600360fc1b6020830152565b906101c1609d60405180947f3c7265637420793d222d313522202066696c6c3d22236437653061372220783d60208301527f222d323522202077696474683d22353022206865696768743d22353022202f3e60408301527f3c7265637420793d222d35222066696c6c3d222361613730333522207769647460608301527f683d22333022206865696768743d2231302220783d222d313522202f3e0000006080830152612e80815180926020868601910161022a565b810103607d810185520183610174565b906101c1604360405180947f3c67207472616e73666f726d3d227472616e736c617465283020333229223e006020830152612ed5815180926020603f8601910161022a565b8101631e17b39f60e11b603f820152036023810185520183610174565b906101c1608560405180947f3c67207472616e73666f726d3d227472616e736c617465283020333229223e3c60208301527f706f6c79676f6e2066696c6c3d22236437653061372220706f696e74733d222d60408301527f37202d37332037202d37332031392033202d31392033202d37202d373322202f6060830152601f60f91b6080830152612f8d81518092602060818601910161022a565b8101631e17b39f60e11b6081820152036065810185520183610174565b60405190612fb782610122565b600382526209199b60ea1b6020830152565b94959392612fec606491939293612134938481136000146133c05750839461360a565b0591600091612ff9612b72565b938383136130c3575050505061303961302961304192876060610283990151916020604083015192015192612c8e565b613031612d42565b6117c8612dad565b613031612d62565b9161304b82612d82565b600282146130b0575b613063575b50906106c1612faa565b61306c81612d82565b60018103613087575061307e90612ef2565b905b9038613059565b80613093600392612d82565b036130a7576130a190612e90565b90613080565b6130a190612dca565b916130bd90613031612d8c565b91613054565b60408051631b5ac4b560e01b81526004810183905297999097949573__$30acca89589d9a9b80eb3e09f3c9eae508$__956020816024818a5af4978815610a8e579761339f575b506123289687136133845781606061312e9301519160208b83015192015192612c8e565b945b8282138061337b575b1561326a575050925b855163171a458b60e31b808252600482018690529290600081602481885af48015610a8e576131a39361318261318b926000948591613256575b50612d08565b906106c1612d42565b91885180948192878352600483019190602083019252565b0381875af4918215610a8e576131cd926131c49160009161323b5750612d08565b906106c1612d62565b946131d785612d82565b600285146131ed575b5050505061028393613054565b51908152600481019290925290949290600090869060249082905af4908115610a8e57613228613231926102839760009161323b5750612d08565b906106c1612d8c565b91933880806131e0565b61325091503d806000833e6111368183610174565b3861317c565b61325091503d8087833e6111368183610174565b908092501380613370575b15613284575061251c92613142565b612133199081811280613364575b1561329e575092613142565b905061232719811280613358575b156132bc575061251b1992613142565b610a5a908181138061334d575b156132d5575092613142565b610a5919915081811280613341575b156132f15750925b613142565b9050610a8c811380613336575b1561330d5750610abe92613142565b92610a8b1984128061332a575b156132ec57610abd199350613142565b50610abd19841361331a565b50610abe81126132fe565b50610a8b1981136132e4565b50610a8c81126132c9565b5061251b1981136132ac565b50612327198113613292565b5061251c8112613275565b50808212613139565b81896133999301516060825192015192612c13565b94613130565b6133b991975060203d602011610a8757610a798183610174565b953861310a565b9461360a565b61347e600392959460536101c1956040519889957f3c706f6c79676f6e206f7061636974793d22302e32222066696c6c3d2223666660208801526a3311103837b4b73a399e9160a91b6040880152613428815180926020604b8b01910161022a565b8601600b60fa1b604b820152613448825180936020604c8501910161022a565b01640b0c0b0c0b60da1b604c82015261346b82518093602060518501910161022a565b01612c2d60f01b6051820152019061150a565b6211179f60e91b815203601c19810185520183610174565b604051906134a382610122565b6003825262246c6960e81b6020830152565b9190926000809413613603576003036135fd576134e96134e46134dd60286134ee9406611a85565b6028900490565b611a9b565b611ab1565b9161352b61352661352161351c6715cc96efd11924eb613515613510896153ae565b6112ac565b97016153ae565b6112c3565b6113eb565b6113fc565b60405163171a458b60e31b808252662386f26fc100009586900560048301529473__$30acca89589d9a9b80eb3e09f3c9eae508$__8483602481845af4938415610a8e5761359897869485966135e1575b5060405198899485938493845205600483019190602083019252565b03915af4908115610a8e5761028394836135bb94936135c4575b505081816133c6565b906106c1613496565b6135d99293503d8091833e6111368183610174565b9038806135b2565b6135f69196503d8087833e6111368183610174565b943861357c565b50905090565b5050905090565b61362d916236ee808091079107600081126136c4575b600082126136b457611a4f565b604051631b5ac4b560e01b81526004810182905260208160248173__$30acca89589d9a9b80eb3e09f3c9eae508$__5af48015610a8e57621b774091600091613695575b501361367a5790565b600081131561368c5761028390611a14565b61028390611421565b6136ae915060203d602011610a8757610a798183610174565b38613671565b906136be90611421565b90611a4f565b6136cd90611421565b613620565b9060606101c19395946137db926040519788956f3c673e203c636972636c652063783d2760801b602088015261371281518092602060308b01910161022a565b86019165272063793d2760d01b9283603082015261373a82518093602060368501910161022a565b017f2720723d273538272066696c6c3d272366666627202f3e203c636972636c652060368201526363783d2760e01b6056820152613782825180936020605a8501910161022a565b0190605a82015261379c825180936020868501910161022a565b0101602a907f2720723d273935272066696c6c3d272366666627206f7061636974793d27302e815269191b1390179f1e17b39f60b11b60208201520190565b03601f198101845283610174565b926137fb6137f685611393565b6112d9565b61380481612a30565b8413908161394e575b5061381f575b5050505061028361120b565b6138289161360a565b620ac409811280613941575b61383e5780613813565b826136be61386e60649561386861385f61385a61387797611453565b6112ef565b62124f80900590565b95611346565b620927c0900590565b60405163171a458b60e31b808252939092056004830152600092909173__$30acca89589d9a9b80eb3e09f3c9eae508$__908481602481855af4918215610a8e576138e69486928394613922575b50606492939460405196879485938493845205600483019190602083019252565b03915af4918215610a8e57836102839493613905575b505081816136d2565b61391a9293503d8091833e6111368183610174565b9038806138fc565b606493945061393a903d8087833e6111368183610174565b93926138c5565b50620ac408198113613834565b6139589150611440565b8313153861380d565b60405190604082018281106001600160401b0382111761011d5760405260606020838281520152565b60405190606082018281106001600160401b0382111761011d5760405260006040838281528260208201520152565b6040519060e082018281106001600160401b0382111761011d57604052606060c08360008152600060208201526000604082015282808201528260808201528260a08201520152565b90613a0c82610396565b613a196040519182610174565b8281528092613a2a601f1991610396565b019060005b828110613a3b57505050565b602090613a466139b9565b82828501015201613a2f565b6101c191939293604051948591602093613a748151809287808801910161022a565b8301613a888251809387808501910161022a565b01611d118251809386808501910161022a565b9160a093613abf613acd92600097999894865260c0602087015260c086019061185d565b90848203604086015261024d565b95606083015260808201520152565b90613b3d95946001611be46101c1966062600497613baa9660426040519d8e809b7f3c7573652066696c6c3d223c212d2d7264436f6c6f722d2d3e2220687265663d602083015261222360f01b60408301526020815194859301910161022a565b89017604440e8e4c2dce6ccdee4da7a44e8e4c2dce6d8c2e8ca5604b1b6042820152613b7382518093602060598501910161022a565b01600b60fa1b6059820152613b92825180936020605a8501910161022a565b01611bec605a82016705240e6c6c2d8ca560c31b9052565b631491179f60e11b8152612b0d565b906101c1602560405184613bd782965180926020808601910161022a565b8101642d6d61736b60d81b6020820152036005810185520183610174565b9391959492909560405196858896519081602089019160200191613c189261022a565b86016b3c75736520687265663d222360a01b602082015281519182602c83019160200191613c459261022a565b01602c81017f222066696c7465723d2275726c28236d616b65426c61636b2922207472616e7390527003337b9369e913a3930b739b630ba32941607d1b604c82015281519182605d83019160200191613c9d9261022a565b01605d8101613caf90600b60fa1b9052565b605e01613cbb9161150a565b6705240e6c6c2d8ca560c31b8152600801613cd59161150a565b600160fd1b8152600101613ce89161150a565b631491179f60e11b815203601b19810183526004016101c19083610174565b9092613d11613961565b50613d1a61398a565b93613d258151613a02565b92613d2e613961565b9460006040880152600087525b8651602083015180518210156141e657613d65613d5e613d7193613d6b93611901565b5160ff1690565b60ff1690565b84611901565b5192613d8d613d836060840151614d21565b8551855191613a52565b946000856040850151613dbc86516020880151906040519b8c9586956305d35c4360e21b875260048701613a9b565b038173__$30acca89589d9a9b80eb3e09f3c9eae508$__5af4958615610a8e576000966141c9575b50600060208a01525b6020890151865111156141ae5788613e6b611e4a613e38613e23613e1d6020613e146139b9565b9601518c611901565b51614d21565b6125388a51604051948593602085019061150a565b8060808401526020604088015191606082840151930151906040519485928392638587a4a560e01b845260048401611964565b038173__$30acca89589d9a9b80eb3e09f3c9eae508$__5af4908115610a8e57613e9d9260009261418d575b50611b23565b8152613ed26040860151602081519160406080860151910151906040519485928392638587a4a560e01b845260048401611964565b038173__$30acca89589d9a9b80eb3e09f3c9eae508$__5af4908115610a8e57613f039260009261418d5750611b23565b6020820152613f2c6020608083015160405180938192638587a4a560e01b8352600483016119cc565b038173__$30acca89589d9a9b80eb3e09f3c9eae508$__5af4908115610a8e5760009161416e575b50614165576001905b816040820152613f736060870192835190611346565b60405163171a458b60e31b80825260048201929092529060008260248173__$30acca89589d9a9b80eb3e09f3c9eae508$__5af4938415610a8e57613fda94600093849161414b575b5060a085015251604051918252600482015292839081906024820190565b038173__$30acca89589d9a9b80eb3e09f3c9eae508$__5af48015610a8e5761406492600091614130575b5060c0820152614038875161401d6020840151614d21565b6140278451614d21565b60a08501519160c086015193613adc565b60608201818152608083015160405163c528fb3360e01b815294919260009286928392600484016105cb565b038173__$30acca89589d9a9b80eb3e09f3c9eae508$__5af4908115610a8e576140f793600092614113575b50526140ac60408c0151826140a5828d611901565b528a611901565b506140ba60408c0151611b15565b60408c015260208a0151906140cf8851613bb9565b6140dc6020830151614d21565b6140e68351614d21565b9160c060a085015194015194613bf5565b602089015261410960208a0151612a21565b60208a0152613ded565b6141299192503d806000833e6111368183610174565b9038614090565b61414591503d806000833e6111368183610174565b38614005565b61415f91503d8086833e6111368183610174565b38613fbc565b60001990613f5d565b614187915060203d602011610a8757610a798183610174565b38613f54565b6141a791925060203d602011610a8757610a798183610174565b9038613e97565b9194509192506141be8751612a21565b875292919091613d3b565b6141df9196503d806000833e6120ee8183610174565b9438613de4565b5050505050906141f590612918565b90600084525b835182518110156142345761422190606061421886519286611901565b51015190611cdc565b835261422d8451612a21565b84526141fb565b5092505090565b9296959490966040926040516142508161013d565b60008152986040519361426285610102565b84526020976020850152604084015260608301526000975b81518910156142f3576142eb600191886142e26142978d87611901565b51986142a4888c8c613d07565b99516142da8a5191600960fa1b86840152826021916142cb815180928a868601910161022a565b81010389810184520182610174565b8a5191614af6565b97015190611cdc565b98019761427a565b97505050509150509190565b60996101c1919392936040519485917f3c72656374206d61736b3d2275726c28236e696768744d61736b0000000000006020840152614348815180926020603a8701910161022a565b82017f2922207374796c653d226d69782d626c656e642d6d6f64653a6d756c7469706c603a8201527f79222077696474683d223130383022206865696768743d223130383022206669605a8201527536361e911198231999991b911037b830b1b4ba3c9e9160511b607a8201526143c982518093602060908501910161022a565b0168111f1e17b932b1ba1f60b91b6090820152036079810185520183610174565b604051906143f782610122565b60018252603160f81b6020830152565b9b989399959d9c9a969194909d9792976040519e8f9d8e6020810161444490753c67206d61736b3d2275726c28236d6f6f6e4d61736b60501b9052565b6036016144509161150a565b7f29223e3c70617468207472616e73666f726d3d22726f746174652800000000008152601b0161447f9161150a565b600160fd1b8152916001809c819b82809a8180980161449d9161150a565b600160fd1b8152016144ae9161150a565b7f2922207374726f6b653d2277686974652220736861706552656e646572696e6781527f3d2267656f6d6574726963507265636973696f6e222066696c6c3d22776869746020820152670329110321e9126960c51b60408201526048016145149161150a565b600160fd1b8152016145259161150a565b6201030960ed1b815260030161453a9161150a565b600160fd1b81520161454b9161150a565b660101810181018960cd1b81526007016145649161150a565b64010181030960dd1b815260050161457b9161150a565b600160fd1b81520161458c9161150a565b6201018160ed1b81526003016145a19161150a565b600160fd1b8152016145b29161150a565b600160fd1b8152016145c39161150a565b701018103d111f1e17b830ba341f1e17b39f60791b815203600e19810183526011016101c19083610174565b9593949691929061460761460285611393565b611307565b61461081612a30565b87139081614ae3575b5061462f575b505050505050505061028361120b565b6146389161360a565b620a2376811280614ad6575b61464e578061461f565b606461467c846136be61386e6146869761467661467161385f61385a899a611453565b611a28565b9a611346565b9505940595611a4f565b916146a361163961469e6146998561131d565b611a3c565b61132e565b60405163171a458b60e31b81526116a86004820152949060008660248173__$30acca89589d9a9b80eb3e09f3c9eae508$__5af4918215610a8e5761471a96600093614ab0575b5060646146f8600092614d21565b60405163171a458b60e31b815291909705600482015296879081906024820190565b038173__$30acca89589d9a9b80eb3e09f3c9eae508$__5af4958615610a8e57600096614a8f575b50614773949596600061475485611472565b6040518098819263171a458b60e31b8352600483019190602083019252565b038173__$30acca89589d9a9b80eb3e09f3c9eae508$__5af4958615610a8e57600096614a72575b5060405163171a458b60e31b8152600481018290529360008560248173__$30acca89589d9a9b80eb3e09f3c9eae508$__5af4948515610a8e57600095614a4d575b5060405163171a458b60e31b815260048101919091529060008280602481015b038173__$30acca89589d9a9b80eb3e09f3c9eae508$__5af4908115610a8e5761484c92600092614a2e575b506000906040518094819263171a458b60e31b8352600483019190602083019252565b038173__$30acca89589d9a9b80eb3e09f3c9eae508$__5af4918215610a8e57600092614a11575b5060405163171a458b60e31b8152612d5060048201529460008660248173__$30acca89589d9a9b80eb3e09f3c9eae508$__5af4938415610a8e576148e2966000956149ef575b5060405163171a458b60e31b81526064909105600482015295600090879081906024820190565b038173__$30acca89589d9a9b80eb3e09f3c9eae508$__5af4958615610a8e576000966149d2575b506113888712156149c1576113886149206143ea565b975b13156149b3576149306143ea565b975b60405163171a458b60e31b8152612d4f1960048201529a60008c60248173__$30acca89589d9a9b80eb3e09f3c9eae508$__5af49a8b15610a8e576102839c60009c614987575b509187959391869593614407565b8896949290879694929d506149a6903d806000833e6111368183610174565b9c91939550919395614979565b6149bb612dad565b97614932565b6113886149cc612dad565b97614922565b6149e89196503d806000833e6111368183610174565b943861490a565b6000919550614a096064913d8085833e6111368183610174565b9591506148bb565b614a279192503d806000833e6111368183610174565b9038614874565b6000919250614a46903d8084833e6111368183610174565b9190614829565b6147fd92919550614a696000913d8084833e6111368183610174565b959192506147dd565b614a889196503d806000833e6111368183610174565b943861479b565b614773959650614aa9903d806000833e6111368183610174565b9594614742565b60009193506146f8614acd6064923d8086833e6111368183610174565b949250506146ea565b50620a2375198113614644565b614aed9150611440565b86131538614619565b9092919281908251928151865193602097888080950195019087856040510193019385850198811115614b6d575b5050508394508095939160405195869103910301945b838210614b5e5750506000848401968701525050603f909301601f19166040528252565b81518152908201908201614b3a565b90919293959450602181870301968a600093600082851015614c63575b601f859998979916830360031b9851965b88518881188b1c15614bd757815260018091019801988b8a1015614bc1575b9897614b9b565b505050959750505050509183925b388080614b24565b918497949598919a92819d94979a9c9d614c1c575b50505050505b81818401015181880152019083821015614c0e57908290614bf2565b505092019201928392614bcf565b90809293949596508a8d2003614c3457879594614bec565b8a9192989597949c9b9996939a5260018091019801988b8a10614bba5750505095975050505050918392614bcf565b50838620614b8a565b6000811215614c90576715cc96efd11924eb614c8a61028392612a30565b016153ae565b6715cc96efd11924eb61028391016153ae565b90614cad826101c3565b614cba6040519182610174565b8281528092614ccb601f19916101c3565b0190602036910137565b604051601e614ce382610122565b6002825260203681840137602282015b6000190190600a906f181899199a1a9b1b9c1cb0b131b232b360811b8282061a8353049081614cf357505090565b806000917a184f03e93ff9f4daa797ed6e38ed64bf6a1f01000000000000000080821015614e57575b506d04ee2d6d415b85acef810000000080831015614e48575b50662386f26fc1000080831015614e39575b506305f5e10080831015614e2a575b5061271080831015614e1b575b506064821015614e0b575b600a80921015614e01575b600190816021614db960018701614ca3565b95860101905b614dcb575b5050505090565b600019019083906f181899199a1a9b1b9c1cb0b131b232b360811b8282061a835304918215614dfc57919082614dbf565b614dc4565b9160010191614da7565b9190606460029104910191614d9c565b60049193920491019138614d91565b60089193920491019138614d84565b60109193920491019138614d75565b60209193920491019138614d63565b604093508104915038614d4a565b61028390611ffb600082129182600014614ea257604051614e8581610122565b60018152602d60f81b6020820152925b15614d2157600003614d21565b604051614eae8161013d565b6000815292614e95565b60405190614ec582610158565b61040482527ac90f8801921d20025b26d703242abf03ed26e604b6195d057f003560208301527f0647d97c0710a34507d95b9e08a2009a096a90490a3308bc0afb68050bc3ac3560408301527f0c8bd35e0d53db920e1bc2e40ee387660fab272b1072a0481139f0cf120116d560608301527f12c8106e138edbb1145576b1151bdf8515e2144416a81305176dd9de183366e860808301527f18f8b83c19bdcbf31a82a0251b4732ef1c0b826a1ccf8cb31d934fe51e56ca1e60a08301527f1f19f97b1fdcdc1b209f701c2161b39f2223a4c522e541af23a6887e2467775760c08301527f25280c5d25e845b626a8218527679df42826b92828e5714a29a3c4852a61b10160e08301527f2b1f34eb2bdc4e6f2c98fbba2d553afb2e110a622ecc681e2f8752623041c7606101008301527f30fbc54d31b54a5d326e54c73326e2c233def2873496824f354d905636041ad96101208301527f36ba2013376f9e46382493b038d8fe93398cdd323a402dd13af2eeb73ba51e296101408301527f3c56ba703d07c1d53db832a53e680b2c3f1749b73fc5ec974073f21d4121589a6101608301527f41ce1e64427a41d04325c13543d09aec447acd50452456bc45cd358f467568276101808301527f471cece647c3c22e4869e664490f57ee49b415334a581c9d4afb6c974b9e038f6101a08301527f4c3fdff34ce100344d8162c34e2106174ebfe8a44f5e08e24ffb654c5097fc5e6101c08301527f5133cc9451ced46e5269126e53028517539b2aef5433027d54ca0a4a556040e26101e08301527f55f5a4d2568a34a9571deef957b0d2555842dd5458d40e8c5964649759f3de126102008301527f5a8279995b1035ce5b9d11535c290acc5cb420df5d3e52365dc79d7b5e50015d6102208301527f5ed77c895f5e0db25fe3b38d60686cce60ec382f616f146b61f1003e6271fa686102408301527f62f201ac637114cc63ef328f646c59bf64e889256563bf9165ddfbd266573cbb6102608301527f66cf811f6746c7d767bd0fbc683257aa68a69e806919e31f698c246b69fd614a6102808301527f6a6d98a36adcc9646b4af2786bb812d06c24295f6c8f351b6cf934fb6d6227f96102a08301527f6dca0d146e30e3496e96a99c6efb5f116f5f02b16fc1938470231099708378fe6102c08301527f70e2cbc571410804719e2cd171fa394872552c8472af05a67307c3cf735f66256102e08301527f73b5ebd0740b53fa745f9dd074b2c8837504d3447555bd4b75a585ce75f42c0a6103008301527f7641af3c768e0ea576d9498877235f2c776c4eda77b417df77fab988784033286103208301527f7884841378c7aba17909a92c794a7c11798a23b079c89f6d7a05eeac7a4210d86103408301527f7a7d055a7ab6cba37aef63237b26cb4e7b5d039d7b920b887bc5e28f7bf8882f6103608301527f7c29fbed7c5a3d4f7c894bdd7cb727237ce3ceb17d0f42177d3980eb7d628ac56103808301527f7d8a5f3f7db0fdf77dd6668e7dfa98a77e1d93e97e3f57fe7e5fe4927e7f39566103a08301527f7e9d55fb7eba3a387ed5e5c57ef0585f7f0991c37f2191b37f3857f57f4de4506103c08301527f7f62368e7f754e7f7f872bf27f97cebc7fa736b37fb563b27fc255957fce0c3d6103e08301527f7fd8878d7fe1c76a7fe9cbbf7ff094777ff621817ffa72d07ffd88597fff6215610400830152637fffffff60e01b610420830152565b670de0b6b3a7640000637fffffff916757325bbf446493ac809106601e1b0460ff8160141c166310000000821615908115615442575b60026153ee614eb8565b910160021b015163ffffffff808260201c16911661ffff8460041c168282030260101c9260001461543a5750015b632000000081921661542f575b50020590565b905060000338615429565b90500361541c565b60ff036153e456fea2646970667358221220ca2fd68d778b59bdadfbcebf87fcf00a47aeced19ccba1c2c1360f5cccdadfe164736f6c63430008190033","linkReferences":{"contracts/NDUtils.sol":{"NDUtils":[{"start":1868,"length":20},{"start":2000,"length":20},{"start":2103,"length":20},{"start":2205,"length":20},{"start":2344,"length":20},{"start":2447,"length":20},{"start":2571,"length":20},{"start":4355,"length":20},{"start":4497,"length":20},{"start":5741,"length":20},{"start":7630,"length":20},{"start":7839,"length":20},{"start":7905,"length":20},{"start":8093,"length":20},{"start":8164,"length":20},{"start":8588,"length":20},{"start":8757,"length":20},{"start":8823,"length":20},{"start":8971,"length":20},{"start":9041,"length":20},{"start":9405,"length":20},{"start":9610,"length":20},{"start":9681,"length":20},{"start":9884,"length":20},{"start":9956,"length":20},{"start":10041,"length":20},{"start":10237,"length":20},{"start":10308,"length":20},{"start":12543,"length":20},{"start":13676,"length":20},{"start":13928,"length":20},{"start":14516,"length":20},{"start":15839,"length":20},{"start":16014,"length":20},{"start":16117,"length":20},{"start":16207,"length":20},{"start":16305,"length":20},{"start":16381,"length":20},{"start":16519,"length":20},{"start":18145,"length":20},{"start":18237,"length":20},{"start":18326,"length":20},{"start":18392,"length":20},{"start":18464,"length":20},{"start":18543,"length":20},{"start":18610,"length":20},{"start":18693,"length":20},{"start":18800,"length":20}]}}},"methodIdentifiers":{"applyNight(int256,uint256)":"cd1406d6","generateClouds(int256,uint256)":"4b54268f","getDiffAngle(int256,int256)":"88134137","renderAirplanes(string,uint256,uint256,uint256)":"3ec6da90","renderFlower(string,int256,int256,int256,FlowerType,FlowerParts,bool)":"717dbd5a","renderLighthouse(string,int256,uint256,uint256)":"86689cfb","renderMainScene(string,uint256,uint256,SceneInMotif[],AssetInScene[],uint256,uint256)":"b057948e","renderMoon(uint256,int256,int256,int256,int256,int256,int256,int256)":"d49f8002","renderMovingAsset(uint256,string,string,bool,uint256,uint256,bool,uint256,uint256,uint256,uint256,uint256,uint256)":"3235ac6d","renderSceneAssets(SceneInMotif,AssetInScene[],NDRenderer.SceneUtils)":"9a085c48","renderSun(uint256,int256,int256,uint256)":"955cb78f","renderSunclock(string,int256,int256,int256)":"31ae97d0","sortElements(NDRenderer.SceneElement[])":"36f14057"},"id":5}