{"abi":[{"type":"function","name":"adjustTimeStampsForAssetVisibility","inputs":[{"name":"minStartTime","type":"uint256","internalType":"uint256"},{"name":"maxStartTime","type":"uint256","internalType":"uint256"},{"name":"sunriseTime","type":"uint256","internalType":"uint256"},{"name":"sunsetTime","type":"uint256","internalType":"uint256"},{"name":"timeOfDayVisibility","type":"DAYTIME","internalType":"enum DAYTIME"},{"name":"tolerance","type":"uint256","internalType":"uint256"},{"name":"maxDuration","type":"uint256","internalType":"uint256"}],"outputs":[{"name":"","type":"uint256","internalType":"uint256"},{"name":"","type":"uint256","internalType":"uint256"},{"name":"","type":"bool","internalType":"bool"}],"stateMutability":"pure"},{"type":"function","name":"applyNight","inputs":[{"name":"altitude","type":"int256","internalType":"int256"},{"name":"motifType","type":"MotifType","internalType":"enum MotifType"}],"outputs":[{"name":"","type":"string","internalType":"string"}],"stateMutability":"pure"},{"type":"function","name":"computeStarttime","inputs":[{"name":"timestamp","type":"uint256","internalType":"uint256"},{"name":"asset","type":"tuple","internalType":"struct AssetInScene","components":[{"name":"name","type":"string","internalType":"string"},{"name":"minDuration","type":"uint256","internalType":"uint256"},{"name":"maxDuration","type":"uint256","internalType":"uint256"},{"name":"checkInterval","type":"uint256","internalType":"uint256"},{"name":"possibleOffset","type":"uint256","internalType":"uint256"},{"name":"probability","type":"uint256","internalType":"uint256"},{"name":"dayTime","type":"DAYTIME","internalType":"enum DAYTIME"}]},{"name":"salt","type":"string","internalType":"string"},{"name":"sunrise","type":"uint256","internalType":"uint256"},{"name":"sunset","type":"uint256","internalType":"uint256"},{"name":"isMoving","type":"bool","internalType":"bool"}],"outputs":[{"name":"","type":"uint256[]","internalType":"uint256[]"}],"stateMutability":"pure"},{"type":"function","name":"generateClouds","inputs":[{"name":"skyHeight","type":"int256","internalType":"int256"},{"name":"nonce","type":"uint256","internalType":"uint256"}],"outputs":[{"name":"","type":"string","internalType":"string"}],"stateMutability":"pure"},{"type":"function","name":"getDiffAngle","inputs":[{"name":"azimuth","type":"int256","internalType":"int256"},{"name":"heading","type":"int256","internalType":"int256"}],"outputs":[{"name":"","type":"int256","internalType":"int256"}],"stateMutability":"pure"},{"type":"function","name":"renderAirplanes","inputs":[{"name":"timestamp","type":"uint256","internalType":"uint256"},{"name":"tokenId","type":"uint256","internalType":"uint256"},{"name":"horizonInPx","type":"uint256","internalType":"uint256"}],"outputs":[{"name":"","type":"string","internalType":"string"}],"stateMutability":"view"},{"type":"function","name":"renderFlower","inputs":[{"name":"svg","type":"string","internalType":"string"},{"name":"azimuth","type":"int256","internalType":"int256"},{"name":"altitude","type":"int256","internalType":"int256"},{"name":"heading","type":"int256","internalType":"int256"},{"name":"flowerType","type":"FlowerType","internalType":"enum FlowerType"},{"name":"blossom","type":"string","internalType":"string"},{"name":"stick","type":"string","internalType":"string"},{"name":"back","type":"string","internalType":"string"},{"name":"front","type":"string","internalType":"string"},{"name":"hasPot","type":"bool","internalType":"bool"}],"outputs":[{"name":"","type":"string","internalType":"string"}],"stateMutability":"pure"},{"type":"function","name":"renderLighthouse","inputs":[{"name":"svg","type":"string","internalType":"string"},{"name":"altitude","type":"int256","internalType":"int256"},{"name":"timestamp","type":"uint256","internalType":"uint256"}],"outputs":[{"name":"","type":"string","internalType":"string"}],"stateMutability":"pure"},{"type":"function","name":"renderMainScene","inputs":[{"name":"svg","type":"string","internalType":"string"},{"name":"timestamp","type":"uint256","internalType":"uint256"},{"name":"tokenID","type":"uint256","internalType":"uint256"},{"name":"scenes","type":"tuple[]","internalType":"struct SceneInMotif[]","components":[{"name":"placeHolder","type":"string","internalType":"string"},{"name":"assets","type":"uint8[]","internalType":"uint8[]"},{"name":"area","type":"int256[4]","internalType":"int256[4]"},{"name":"scale","type":"uint256","internalType":"uint256"}]},{"name":"assetsInScene","type":"tuple[]","internalType":"struct AssetInScene[]","components":[{"name":"name","type":"string","internalType":"string"},{"name":"minDuration","type":"uint256","internalType":"uint256"},{"name":"maxDuration","type":"uint256","internalType":"uint256"},{"name":"checkInterval","type":"uint256","internalType":"uint256"},{"name":"possibleOffset","type":"uint256","internalType":"uint256"},{"name":"probability","type":"uint256","internalType":"uint256"},{"name":"dayTime","type":"DAYTIME","internalType":"enum DAYTIME"}]},{"name":"sunrise","type":"uint256","internalType":"uint256"},{"name":"sunset","type":"uint256","internalType":"uint256"}],"outputs":[{"name":"","type":"string","internalType":"string"},{"name":"","type":"string","internalType":"string"}],"stateMutability":"pure"},{"type":"function","name":"renderMoon","inputs":[{"name":"motifType","type":"MotifType","internalType":"enum MotifType"},{"name":"heading","type":"int256","internalType":"int256"},{"name":"skyHeight","type":"int256","internalType":"int256"},{"name":"azimuth","type":"int256","internalType":"int256"},{"name":"altitude","type":"int256","internalType":"int256"},{"name":"pa","type":"int256","internalType":"int256"},{"name":"fraction","type":"int256","internalType":"int256"},{"name":"angle","type":"int256","internalType":"int256"}],"outputs":[{"name":"","type":"string","internalType":"string"}],"stateMutability":"pure"},{"type":"function","name":"renderMovingAsset","inputs":[{"name":"timestamp","type":"uint256","internalType":"uint256"},{"name":"salt","type":"string","internalType":"string"},{"name":"assetName","type":"string","internalType":"string"},{"name":"hasRandomColor","type":"bool","internalType":"bool"},{"name":"minY","type":"uint256","internalType":"uint256"},{"name":"maxY","type":"uint256","internalType":"uint256"},{"name":"horizontUp","type":"bool","internalType":"bool"},{"name":"minScale","type":"uint256","internalType":"uint256"},{"name":"maxScale","type":"uint256","internalType":"uint256"},{"name":"duration","type":"uint256","internalType":"uint256"},{"name":"checkInterval","type":"uint256","internalType":"uint256"},{"name":"appearanceProbability","type":"uint256","internalType":"uint256"},{"name":"possibleOffset","type":"uint256","internalType":"uint256"}],"outputs":[{"name":"","type":"string","internalType":"string"}],"stateMutability":"view"},{"type":"function","name":"renderSceneAssets","inputs":[{"name":"scene","type":"tuple","internalType":"struct SceneInMotif","components":[{"name":"placeHolder","type":"string","internalType":"string"},{"name":"assets","type":"uint8[]","internalType":"uint8[]"},{"name":"area","type":"int256[4]","internalType":"int256[4]"},{"name":"scale","type":"uint256","internalType":"uint256"}]},{"name":"assets","type":"tuple[]","internalType":"struct AssetInScene[]","components":[{"name":"name","type":"string","internalType":"string"},{"name":"minDuration","type":"uint256","internalType":"uint256"},{"name":"maxDuration","type":"uint256","internalType":"uint256"},{"name":"checkInterval","type":"uint256","internalType":"uint256"},{"name":"possibleOffset","type":"uint256","internalType":"uint256"},{"name":"probability","type":"uint256","internalType":"uint256"},{"name":"dayTime","type":"DAYTIME","internalType":"enum DAYTIME"}]},{"name":"timestamp","type":"uint256","internalType":"uint256"},{"name":"tokenID","type":"uint256","internalType":"uint256"},{"name":"sunrise","type":"uint256","internalType":"uint256"},{"name":"sunset","type":"uint256","internalType":"uint256"}],"outputs":[{"name":"sceneSvg","type":"string","internalType":"string"},{"name":"sceneMaskSvg","type":"string","internalType":"string"}],"stateMutability":"pure"},{"type":"function","name":"renderSun","inputs":[{"name":"skyHeight","type":"uint256","internalType":"uint256"},{"name":"azimuth","type":"int256","internalType":"int256"},{"name":"altitude","type":"int256","internalType":"int256"},{"name":"heading","type":"uint256","internalType":"uint256"}],"outputs":[{"name":"","type":"string","internalType":"string"}],"stateMutability":"pure"},{"type":"function","name":"renderSunclock","inputs":[{"name":"svg","type":"string","internalType":"string"},{"name":"azimuth","type":"int256","internalType":"int256"},{"name":"altitude","type":"int256","internalType":"int256"},{"name":"heading","type":"int256","internalType":"int256"}],"outputs":[{"name":"","type":"string","internalType":"string"}],"stateMutability":"view"},{"type":"function","name":"sortElements","inputs":[{"name":"elements","type":"tuple[]","internalType":"struct NDRenderer.SceneElement[]","components":[{"name":"y","type":"uint256","internalType":"uint256"},{"name":"svg","type":"string","internalType":"string"}]}],"outputs":[{"name":"","type":"tuple[]","internalType":"struct NDRenderer.SceneElement[]","components":[{"name":"y","type":"uint256","internalType":"uint256"},{"name":"svg","type":"string","internalType":"string"}]}],"stateMutability":"pure"}],"bytecode":{"object":"0x60808060405234601957615eb1908161001f823930815050f35b600080fdfe6080604052600436101561001257600080fd5b60003560e01c806307704b9314610107578063174d710c1461010257806331ae97d0146100fd5780633235ac6d146100f857806336f14057146100f35780634b54268f146100ee5780636d5b57a0146100e957806388134137146100e457806388330ed5146100df5780639163cba5146100da578063955cb78f146100d5578063b057948e146100d0578063c187234c146100cb578063d79783a7146100c65763fecb0d4f146100c157600080fd5b61149c565b6113ea565b61138d565b61129c565b6110bf565b610f72565b610bb7565b610b93565b610b55565b6106d4565b6105f3565b6104cd565b61048b565b6103e6565b61017c565b60243590600482101561011b57565b600080fd5b60005b8381106101335750506000910152565b8181015183820152602001610123565b9060209161015c81518092818552858086019101610120565b601f01601f1916010190565b906020610179928181520190610143565b90565b61010036600319011261011b57600435600481101561011b576101bd6101d19160e4359060c4359060a4359060843590606435906044359060243590611bf2565b604051918291602083526020830190610143565b0390f35b634e487b7160e01b600052604160045260246000fd5b604081019081106001600160401b0382111761020657604052565b6101d5565b608081019081106001600160401b0382111761020657604052565b602081019081106001600160401b0382111761020657604052565b61044081019081106001600160401b0382111761020657604052565b90601f801991011681019081106001600160401b0382111761020657604052565b6040519060e082018281106001600160401b0382111761020657604052565b604051906102aa826101eb565b565b6001600160401b03811161020657601f01601f191660200190565b81601f8201121561011b578035906102de826102ac565b926102ec604051948561025d565b8284526020838301011161011b57816000926020809301838601378301015290565b6003111561011b57565b608435906102aa8261030e565b35906102aa8261030e565b91909160e08184031261011b5761034561027e565b928135916001600160401b03831161011b5761036860c0926103a29483016102c7565b85526020810135602086015260408101356040860152606081013560608601526080810135608086015260a081013560a086015201610325565b60c0830152565b60a43590811515820361011b57565b60643590811515820361011b57565b60c43590811515820361011b57565b6101243590811515820361011b57565b60c036600319011261011b576001600160401b0360243581811161011b57610412903690600401610330565b60443591821161011b5761042d6104469236906004016102c7565b6104356103a9565b916084359160643591600435612a4d565b6040518091602080830160208452825180915260206040850193019160005b82811061047457505050500390f35b835185528695509381019392810192600101610465565b608036600319011261011b576004356001600160401b03811161011b576101bd6104bc6101d19236906004016102c7565b606435906044359060243590612e11565b6101a036600319011261011b576001600160401b0360243581811161011b576104fa9036906004016102c7565b9060443590811161011b576101d19161051a6105599236906004016102c7565b6105226103b8565b9061052b6103c7565b906101843593610164359361014435936101243593610104359360e4359360a43592608435926004356134d8565b60405191829182610168565b6001600160401b0381116102065760051b60200190565b6020808201908083528351809252604092604081018260408560051b8401019601946000925b8584106105b3575050505050505090565b9091929394959685806105e2600193603f1986820301885286838d518051845201519181858201520190610143565b9901940194019295949391906105a2565b60208060031936011261011b576001600160401b039060043582811161011b573660238201121561011b576024600482013561062e81610565565b9460409061063f604051978861025d565b8287526024602088019360051b8601019436861161011b5760248101935b86851061067c576101d16106708a6139b5565b6040519182918261057c565b843583811161011b57820184602319823603011261011b578451916106a0836101eb565b87820135835260448201359285841161011b576106c58b94938a8695369201016102c7565b8382015281520194019361065d565b604036600319011261011b57602435600461072160206106f38461241e565b936040518093819262a0a51960e61b8352868301604060059193929360608101948152600160208201520152565b038173__$30acca89589d9a9b80eb3e09f3c9eae508$__5af4908115610a8657600091610b36575b50610752611902565b9260005b828110610769576101d161055986613b58565b6107a560206107778461241e565b936040518093819262a0a51960e61b8352898301604060029193929360608101948152600160208201520152565b038173__$30acca89589d9a9b80eb3e09f3c9eae508$__5af4908115610a8657600091610b17575b5061080c60206107dc8561241e565b946040518093819262a0a51960e61b83528a35908b84016040909392919360608101948152600060208201520152565b038173__$30acca89589d9a9b80eb3e09f3c9eae508$__5af4908115610a8657600091610af8575b5061087260206108438661241e565b956040518093819262a0a51960e61b83528b830160406104429193929360608101948152600060208201520152565b038173__$30acca89589d9a9b80eb3e09f3c9eae508$__5af48015610a86576108a691600091610ad9575b50929192611859565b6000905b8282106108bd5750505050600101610756565b909192976108fd60206108cf8861241e565b976040518093819262a0a51960e61b83528d8301604060329193929360608101948152600a60208201520152565b038173__$30acca89589d9a9b80eb3e09f3c9eae508$__5af4908115610a8657600091610aba575b506109648160206109358a61241e565b998c604051948592839262a0a51960e61b84528301604060019193929360608101948152600060208201520152565b038173__$30acca89589d9a9b80eb3e09f3c9eae508$__5af4908115610a86576109e093600187936109a595600091610a9b575b5014610a8b575b5061183d565b9160206109b18961241e565b988b604051948592839262a0a51960e61b84528301604060649193929360608101948152605060208201520152565b038173__$30acca89589d9a9b80eb3e09f3c9eae508$__5af4908115610a86576001938c610a4893610a4e95600091610a57575b50610a30610a2a610a2485615855565b93615564565b91615564565b91610a42610a3c615518565b94615855565b94613a7d565b99612265565b939201906108aa565b610a79915060203d602011610a7f575b610a71818361025d565b810190612365565b38610a14565b503d610a67565b6119ad565b610a959150611775565b3861099f565b610ab4915060203d602011610a7f57610a71818361025d565b38610998565b610ad3915060203d602011610a7f57610a71818361025d565b38610925565b610af2915060203d602011610a7f57610a71818361025d565b3861089d565b610b11915060203d602011610a7f57610a71818361025d565b38610834565b610b30915060203d602011610a7f57610a71818361025d565b386107cd565b610b4f915060203d602011610a7f57610a71818361025d565b38610749565b606036600319011261011b576004356001600160401b03811161011b576101bd610b866101d19236906004016102c7565b6044359060243590613ca6565b604036600319011261011b576020610baf602435600435613dec565b604051908152f35b606036600319011261011b576004803560443591610bd6602435615564565b91601d1991828501948511610f6d57604092835193610bf4856101eb565b600985526020686165726f706c616e6560b81b81870152815197610c7a89610c27610c218583018c6119f3565b8a6119f3565b0399610c3b601f199b8c810183528261025d565b610c4361027e565b89815260788582015260788682015260786060820152603c6080820152603260a0820152610c7460c0820160029052565b8861242d565b9760609660005b8a51811015610f2c57610c94818c6123f4565b518c610cb2610cab610ca684876121f0565b611692565b6078900590565b918983121580610f21575b610ccd575b505050600101610c81565b610cf792939b91610ce0610d0392615564565b8a51948591610cf18c84018b6119f3565b906119f3565b0390810184528361025d565b73__$30acca89589d9a9b80eb3e09f3c9eae508$__8851928b898580610d378c86638587a4a560e01b968785528401612398565b0381865af4948515610a86578a918e91600097610f02575b50610d638d51948593849384528301612fc7565b0381855af4918215610a865788928d92600091610ee5575b50610edd57846000195b60000b966000198814600014610df1610deb610a3c610de6610dd8610dd3610e169b610dce600099610df899610ec957610dc1610dc8916116a8565b6064900590565b9a61228e565b612207565b612302565b670de0b6b3a7640000900490565b6121c7565b98615564565b98836116fd565b8d518096819263171a458b60e31b9788845283019190602083019252565b0381855af4918215610a86578e8d94610e4c96600095610ead575b50600094955196879485938493845283019190602083019252565b03915af4908115610a86576001958f95610e8196610e7295600095610e8a575b50612fdf565b90610e7c826158a8565b612324565b98908c38610cc2565b610ea691953d8091833e610e9e818361025d565b81019061194f565b9338610e6c565b610ec3906000963d8091833e610e9e818361025d565b94610e31565b610dc1610ed8610dc892611892565b6116a8565b846001610d85565b610efc91508b3d8d11610a7f57610a71818361025d565b38610d7b565b610f1a919750833d8511610a7f57610a71818361025d565b9538610d4f565b506082831315610cbd565b6101d186610f628b610f5c888a898964666c6f636b60d81b885193610f50856101eb565b6005855284015261318b565b90612324565b905191829182610168565b6115f3565b60e036600319011261011b576060608435604435602435600435606435610f988561030e565b60c43590838395600196610fab896121fd565b600189149586806110b6575b1561108757505080975b610fd7610fd060a43587612311565b6064900490565b95610fe1826121fd565b1561103257505050610ffc9291610ff7916121f0565b612281565b80821161102a575b50808311611021575b604051928352602083015215156040820152f35b6000915061100d565b905038611004565b9091949250611040816121fd565b1561104f575b5050505061100d565b61105c92610ff7916121f0565b80911161107f575b50808311611076575b38808080611046565b6000915061106d565b905038611064565b6110928a929a6121fd565b84821591826110ac575b505015610fc15797508297610fc1565b119050843861109c565b50828110610fb7565b608036600319011261011b576101d16101bd60643560443560243560043561418a565b9080601f8301121561011b57604051916110fb8361020b565b82906080810192831161011b57905b8282106111175750505090565b813581526020918201910161110a565b91909160e08184031261011b57604051906111418261020b565b819381356001600160401b039081811161011b57826111619185016102c7565b84526020908184013590811161011b5783019082601f8301121561011b5781359161118b83610565565b92611199604051948561025d565b808452828085019160051b8301019185831161011b578301905b8282106111df5750505084015260609160c0916111d390604083016110e2565b60408501520135910152565b813560ff8116810361011b5781529083019083016111b3565b81601f8201121561011b5780359160209161121284610565565b93611220604051958661025d565b808552838086019160051b8301019280841161011b57848301915b84831061124b5750505050505090565b82356001600160401b03811161011b57869161126c84848094890101610330565b81520192019161123b565b909161128e61017993604084526040840190610143565b916020818403910152610143565b60e036600319011261011b576001600160401b0360043581811161011b576112c89036906004016102c7565b60249060643583811161011b573660238201121561011b578060040135906112ef82610565565b936112fd604051958661025d565b8285526020926024602087019160051b8401019236841161011b5760248101915b8483106113675760843588888b831161011b576113426113579336906004016111f8565b60c4359260a43592604435906024359061437d565b906101d160405192839283611277565b823589811161011b5786916113828392873691870101611127565b81520192019161131e565b60c036600319011261011b576001600160401b0360043581811161011b576113b9903690600401611127565b60243591821161011b576113d46113579236906004016111f8565b9060a435916084359160643591604435916146fe565b61014036600319011261011b576001600160401b036004803582811161011b5761141790369083016102c7565b50611420610318565b60a43583811161011b5761143790369084016102c7565b60c43584811161011b5761144e90369085016102c7565b60e43585811161011b5761146590369086016102c7565b906101043595861161011b57611484610559956101d1973691016102c7565b9261148d6103d6565b94606435604435602435615049565b604036600319011261011b576004356114b361010c565b9060006202bf1f198083121561155c575050506114ed600060645b6040518093819263171a458b60e31b8352600483019190602083019252565b038173__$30acca89589d9a9b80eb3e09f3c9eae508$__5af48015610a86576101d1926105599260009261153f575b50611526816118f3565b61153757611532611932565b615405565b611532611915565b6115559192503d806000833e610e9e818361025d565b903861151c565b81831290816115e9575b50156115dc5750604051631b5ac4b560e01b8152600481019190915260208160248173__$30acca89589d9a9b80eb3e09f3c9eae508$__5af48015610a86576108986000916114ed9383916115bd575b50056114ce565b6115d6915060203d602011610a7f57610a71818361025d565b386115b6565b6114ed91506000906114ce565b9050821338611566565b634e487b7160e01b600052601160045260246000fd5b90603a820291808305603a1490151715610f6d57565b9062a4cb8091828102928184051490151715610f6d57565b908160011b916002830503610f6d57565b906208d9a091828102928184051490151715610f6d57565b90663e01ad54cfec8091828102928184051490151715610f6d57565b90601e820291808305601e1490151715610f6d57565b90606482029180830560641490151715610f6d57565b906104389180830292830503610f6d57565b9061032a91828102928184051490151715610f6d57565b90604482029180830560441490151715610f6d57565b90605f820291808305605f1490151715610f6d57565b818102929160008212600160ff1b821416610f6d578184051490151715610f6d57565b634e487b7160e01b600052601260045260246000fd5b8015611745576302faf0800590565b611720565b801561174557640165a0bc000590565b811561174557600160ff1b8114600019831416610f6d570590565b600160ff1b8114610f6d5760000390565b9081620927c001918212600116610f6d57565b908161177001918212600116610f6d57565b9081600a01918212600116610f6d57565b906803afb087b8769000009160008382019384129112908015821691151617610f6d57565b906236ee809160008382019384129112908015821691151617610f6d57565b90620927c09160008382019384129112908015821691151617610f6d57565b906116a89160008382019384129112908015821691151617610f6d57565b91909160008382019384129112908015821691151617610f6d57565b906009198201918213600116610f6d57565b906208d99f198201918213600116610f6d57565b9061270f198201918213600116610f6d57565b906000826064039212606483128116906064841390151617610f6d57565b906236ee7f198201918213600116610f6d57565b81810392916000138015828513169184121617610f6d57565b634e487b7160e01b600052602160045260246000fd5b600411156118fd57565b6118dd565b6040519061190f82610226565b60008252565b60405190611922826101eb565b60018252604760f81b6020830152565b6040519061193f826101eb565b60018252605360f81b6020830152565b60208183031261011b578051906001600160401b03821161011b570181601f8201121561011b578051611981816102ac565b9261198f604051948561025d565b8184526020828401011161011b576101799160208085019101610120565b6040513d6000823e3d90fd5b604051906119c6826101eb565b60018252600360fc1b6020830152565b604051906119e3826101eb565b60018252603160f81b6020830152565b90611a0660209282815194859201610120565b0190565b9b989399959d9c9a969194909d9792976040519e8f9d8e60208101611a4790753c67206d61736b3d2275726c28236d6f6f6e4d61736b60501b9052565b603601611a53916119f3565b7f29223e3c70617468207472616e73666f726d3d22726f746174652800000000008152601b01611a82916119f3565b600160fd1b8152916001809c819b82809a81809801611aa0916119f3565b600160fd1b815201611ab1916119f3565b7f2922207374726f6b653d2277686974652220736861706552656e646572696e6781527f3d2267656f6d6574726963507265636973696f6e222066696c6c3d22776869746020820152670329110321e9126960c51b6040820152604801611b17916119f3565b600160fd1b815201611b28916119f3565b6201030960ed1b8152600301611b3d916119f3565b600160fd1b815201611b4e916119f3565b660101810181018960cd1b8152600701611b67916119f3565b64010181030960dd1b8152600501611b7e916119f3565b600160fd1b815201611b8f916119f3565b6201018160ed1b8152600301611ba4916119f3565b600160fd1b815201611bb5916119f3565b600160fd1b815201611bc6916119f3565b701018103d111f1e17b830ba341f1e17b39f60791b815203600e19810183526011016102aa908361025d565b96919290959395611c0a611c058561174a565b611609565b611c1381611775565b881390816121a5575b50611c32575b5050505050505050610179611902565b611c3b91613dec565b620a2376811280612198575b611c515780611c22565b6064611c9c84611c96611c8d611ca697611c87611c82611c79611c74899a611800565b61161f565b62124f80900590565b61186b565b9b6116fd565b620927c0900590565b906118c4565b96059505936118c4565b91611ccb611cc3611cbe611cb985611637565b61187f565b611648565b612710900590565b94611cd5816118f3565b61218757611d0e611ce4611932565b945b6040805163171a458b60e31b8152606490960560048701529491600090839081906024820190565b038173__$30acca89589d9a9b80eb3e09f3c9eae508$__5af4918215610a8657600092612168575b50611d6591926000611d478361181f565b87518095819263171a458b60e31b8352600483019190602083019252565b038173__$30acca89589d9a9b80eb3e09f3c9eae508$__5af4928315610a865760009361214b575b50855163171a458b60e31b8152600481018290529060008260248173__$30acca89589d9a9b80eb3e09f3c9eae508$__5af4918215610a865760009261212a575b50865163171a458b60e31b8152600481019390935290919060008280602481015b038173__$30acca89589d9a9b80eb3e09f3c9eae508$__5af4918215610a8657600092612107575b50865163171a458b60e31b8152600481019190915260008180602481015b038173__$30acca89589d9a9b80eb3e09f3c9eae508$__5af4908115610a86576000916120ec575b50865163171a458b60e31b81526116a860048201529060008260248173__$30acca89589d9a9b80eb3e09f3c9eae508$__5af4918215610a86576000926120cf575b50875163171a458b60e31b81526116a860048201529260008460248173__$30acca89589d9a9b80eb3e09f3c9eae508$__5af4938415610a86576000946120b2575b50885163171a458b60e31b8152612d5060048201529460008660248173__$30acca89589d9a9b80eb3e09f3c9eae508$__5af4958615610a8657600096612095575b50895163171a458b60e31b81526116a860048201529660008860248173__$30acca89589d9a9b80eb3e09f3c9eae508$__5af4978815610a8657600098612078575b508a5163171a458b60e31b81526064909d0560048e015273__$30acca89589d9a9b80eb3e09f3c9eae508$__8d6024815a93600094f4988915610a865760009d8e9a61205b575b506113888b128e1461204a57611388611fc36119d6565b9b5b138e1461203c57611fd46119d6565b9b5b5163171a458b60e31b8152612d4f1960048201529d8e60248173__$30acca89589d9a9b80eb3e09f3c9eae508$__5af49c8d15610a86576101799e60009e61201f575b50611a0a565b612035919e503d806000833e610e9e818361025d565b9c38612019565b6120446119b9565b9b611fd6565b6113886120556119b9565b9b611fc5565b612071919a503d8f8190833e610e9e818361025d565b9838611fac565b61208e9198503d806000833e610e9e818361025d565b9638611f65565b6120ab9196503d806000833e610e9e818361025d565b9438611f23565b6120c89194503d806000833e610e9e818361025d565b9238611ee1565b6120e59192503d806000833e610e9e818361025d565b9038611e9f565b61210191503d806000833e610e9e818361025d565b38611e5d565b611e359192506121226000913d8084833e610e9e818361025d565b929150611e17565b611def92506121446000913d8084833e610e9e818361025d565b9250611dce565b6121619193503d806000833e610e9e818361025d565b9138611d8d565b611d659250612181903d806000833e610e9e818361025d565b91611d36565b611d0e612192611915565b94611ce6565b50620a2375198113611c47565b6121af9150611786565b87131538611c1c565b600019810191908211610f6d57565b6064039060648211610f6d57565b601d19810191908211610f6d57565b908160000391610f6d57565b91908203918211610f6d57565b600311156118fd57565b8115611745570490565b60405161221d81610226565b60008152906000368137565b9061223382610565565b612240604051918261025d565b8281528092612251601f1991610565565b0190602036910137565b8115611745570690565b90601e8201809211610f6d57565b9060018201809211610f6d57565b91908201809211610f6d57565b90670de0b6b3a764000091828102928184041490151715610f6d57565b90606482029180830460641490151715610f6d57565b908160011b9180830460021490151715610f6d57565b90666f9c9e6576434c91828102928184041490151715610f6d57565b906001600092151715610f6d57565b906000911560011715610f6d57565b81810292918115918404141715610f6d57565b60206102aa9193929360405194816123458793518092868087019101610120565b820161235982518093868085019101610120565b0103808552018361025d565b9081602091031261011b575190565b9190604061238c606492606086526060860190610143565b93600060208201520152565b92919061238c604091606086526060860190610143565b9291906123c6604091606086526060860190610143565b93601e60208201520152565b6123ea60409295949395606083526060830190610143565b9460208201520152565b80518210156124085760209160051b010190565b634e487b7160e01b600052603260045260246000fd5b6000198114610f6d5760010190565b92919060009160409160408101956124468751826121f0565b9061245760808401928351906121f0565b90809460c085016002815161246b816121fd565b612474816121fd565b03612702575b50612494606086019661248e88518261225b565b906121f0565b996124c66124c16124b96124b26124ac8b518961225b565b886121f0565b809e6121f0565b895190612207565b612273565b966124d088612229565b9b73__$30acca89589d9a9b80eb3e09f3c9eae508$__918b8e5b8b8210612538575050505050505050505050505061250781612229565b9060005b818110612519575090925050565b80612526600192876123f4565b5161253182866123f4565b520161250b565b8a908d61254f612549865186612311565b87612281565b908c8861256461255e85615564565b8d612324565b92805190638587a4a560e01b918281526020948582600496818061258a8c8b8301612374565b03915af48015610a86578e926000916126e5575b5060a08b0151116125bd575b505050505050505050506001018e6124ea565b6125db9493929186915190835180809881948883528c8a8401612398565b03915af4908115610a8657858f98612618936126019183986000926126c6575b50612281565b9a01978851905191519788958695865285016123d2565b03818c5af48015610a86578c92612639926000926126a9575b505085612281565b81851115928361268c575b50505080612682575b612661575b81808f818f958f8b84916125aa565b9d61267a916001939f82612674916123f4565b5261241e565b9c908f612652565b508982101561264d565b5191925061269f91600390045b90612281565b1015893880612644565b6126bf9250803d10610a7f57610a71818361025d565b3880612631565b6126de919250843d8611610a7f57610a71818361025d565b90386125fb565b6126fc9150873d8911610a7f57610a71818361025d565b3861259e565b61271d929391965051612714816121fd565b838b5192613eae565b9291959095921561272e573861247a565b50505050505050509050610179612211565b9493906000936127626127576040840151896121f0565b6080840151906121f0565b92879160c084019060028251612777816121fd565b612780816121fd565b03612a00575b50505061279b9061248e60608401518261225b565b956127ce6124c16127c36127bc6127b660608701518861225b565b876121f0565b809a6121f0565b606085015190612207565b926127d884612229565b97865b85811061282357505050505050506127f281612229565b9060005b818110612804575090925050565b80612811600192876123f4565b5161281c82866123f4565b52016127f6565b61283a612834606087015183612311565b83612281565b61284c61284682615564565b89612324565b90604051638587a4a560e01b81526020818061286b8660048301612374565b038173__$30acca89589d9a9b80eb3e09f3c9eae508$__5af4908115610a86576000916129e1575b5060a0880151116128a9575b50506001016127db565b6128cf906020608089015160405180948192638587a4a560e01b83528760048401612398565b038173__$30acca89589d9a9b80eb3e09f3c9eae508$__5af4908115610a8657612900926000926129c75750612281565b9060208088015160408901519261292b6040519485938493638587a4a560e01b8552600485016123d2565b038173__$30acca89589d9a9b80eb3e09f3c9eae508$__5af4908115610a86578c91612960916000916129a8575b5083612281565b8680841115918261299d575b505080612993575b1561289f579861298b91612674826001959c6123f4565b97908a61289f565b5084821015612974565b10159050863861296c565b6129c1915060203d602011610a7f57610a71818361025d565b38612959565b6126de91925060203d602011610a7f57610a71818361025d565b6129fa915060203d602011610a7f57610a71818361025d565b38612893565b90519394612a2e9492935089670de0b6b3a7640000612a1e856121fd565b8060408901519604930491613f9e565b92919215612a3e57388080612786565b50505050509050610179612211565b929195946000946040830194612a648651826121f0565b92612a7560808601948551906121f0565b92829660c087019060028251612a8a816121fd565b612a93816121fd565b03612cdd575b505050612ab2606086989798019761248e89518261225b565b99612ad26124c1612aca6124b26124ac8c518961225b565b8a5190612207565b96612adc88612229565b9b73__$30acca89589d9a9b80eb3e09f3c9eae508$__998d8c5b8b8110612b445750505050505050505050505050612b1381612229565b9060005b818110612b25575090925050565b80612b32600192876123f4565b51612b3d82866123f4565b5201612b17565b8a8a928e612b5c612b56875186612311565b88612281565b612b6e612b6882615564565b8b612324565b604051638587a4a560e01b808252936020939291600490858180612b9487868301612374565b0381865af4908115610a8657600091612cc0575b5060a089015111612bc8575b505050505050505060019150018e90612af6565b84612be5969798999a51604051809881928b835287868401612398565b0381855af4938415610a8657612c0886958f989287936000926126c65750612281565b990196612c258851975160405198899687958695865285016123d2565b03915af48015610a86578c92612c44926000926126a957505085612281565b818511159283612c92575b50505080612c88575b612c6d575b8b90828f81808f97968390612bb4565b9d612c80916001939f82612674916123f4565b9c908f612c5d565b5089821015612c58565b612caf9293506000908c600014612cb95751600390049050612699565b1015893880612c4f565b5090612281565b612cd79150863d8811610a7f57610a71818361025d565b38612ba8565b90919297508394612d0a94670de0b6b3a7640000935193612cfd856121fd565b808c519604930491613f9e565b9291959095921561272e57388080612a99565b60405190612d2a826101eb565b6002825261247360f01b6020830152565b60876102aa919392936040519485917f3c7265637420783d223831372220793d2236363422206f7061636974793d223060208401527f2e36222066696c6c3d2223363439363234222077696474683d22332e3622206860408401526632b4b3b43a1e9160c91b6060840152612dba815180926020606787019101610120565b82017304440e8e4c2dce6ccdee4da7a44e4dee8c2e8ca560631b6067820152612ded825180936020607b85019101610120565b016b101c189c901b1b1a1491179f60a11b607b82015203606781018552018361025d565b9192906000809412612faa5790612e2791613dec565b91612e34611cc384611660565b612e856020612e66612e5a73__$30acca89589d9a9b80eb3e09f3c9eae508$__9461581e565b655af3107a4000900590565b60405180938192631b5ac4b560e01b8352600483019190602083019252565b0381855af48015610a8657612ea8612ead91612eb2938691612f8b575b50611736565b611799565b61167c565b620f42409081811315612f835750905b60405163171a458b60e31b808252606490930560048201528381602481855af4918215610a8657612f179685928394612f64575b50606492939460405198899485938493845205600483019190602083019252565b03915af4908115610a86576101799483612f389493612f47575b5050612d3b565b90612f41612d1d565b906156a8565b612f5c9293503d8091833e610e9e818361025d565b903880612f31565b6064939450612f7c903d8087833e610e9e818361025d565b9392612ef6565b905090612ec2565b612fa4915060203d602011610a7f57610a71818361025d565b38612ea2565b50506101799150612fb9612d1d565b612fc1611902565b916156a8565b9190604061238c600192606086526060860190610143565b90613024959460016130936102aa96604d6005976130a296602c6040519d8e809b6b3c75736520687265663d222360a01b602083015260208151948593019101610120565b89017604440e8e4c2dce6ccdee4da7a44e8e4c2dce6d8c2e8ca5604b1b602c82015261305a825180936020604385019101610120565b0161016160f51b604382015261307a825180936020604585019101610120565b016705240e6c6c2d8ca560c31b604582015201906119f3565b600160fd1b81525b01906119f3565b64149011179f60d91b815203601a1981018552018361025d565b90613101959460016130936102aa9660636005976130a296602c6040519d8e809b6b3c75736520687265663d222360a01b602083015260208151948593019101610120565b89017f222066696c6c3d223c212d2d7264436f6c6f722d2d3e22207472616e73666f72602c8201526c0da7a44e8e4c2dce6d8c2e8ca5609b1b604c820152613153825180936020605985019101610120565b0161016160f51b6059820152613173825180936020605b85019101610120565b0161309b605b82016705240e6c6c2d8ca560c31b9052565b9392604051946131ff866131ab6131a560208301876119f3565b876119f3565b03966131bf601f199889810183528261025d565b6131c761027e565b86815261012c8060208301528060408301526060820152605a6080820152603260a08201526131f960c0820160029052565b8361242d565b9260609360005b81518110156134cd5761321981836123f4565b5161323261322a610ca683886121f0565b61012c900590565b90601d19821215806134c2575b61324e575b5050600101613206565b9661327f613260613273939499615564565b604051938491610cf1602084018a6119f3565b038c810184528361025d565b60405191638587a4a560e01b808452602084806132a08c86600484016123af565b038173__$30acca89589d9a9b80eb3e09f3c9eae508$__5af4938415610a865760009461349a575b506132e3916020916040519384928392835260048301612fc7565b038173__$30acca89589d9a9b80eb3e09f3c9eae508$__5af4908115610a865760009161347b575b5061345b578661337061336961336361335d610de6610dd8610dd361334c6000195b60000b9b6000198d0361344c57610dc1613346916116a8565b986121d5565b610dce6133588c6121d5565b61228e565b93615855565b94615564565b94826116fd565b60405163171a458b60e31b80825260048201929092529160008360248173__$30acca89589d9a9b80eb3e09f3c9eae508$__5af4908115610a86576133d393600092613430575b5060405192835260048301529091600090839081906024820190565b038173__$30acca89589d9a9b80eb3e09f3c9eae508$__5af4908115610a865760019561340d95610e7294600094613415575b508d612fdf565b959038613244565b61342991943d8091833e610e9e818361025d565b9238613406565b613446906000933d8091833e610e9e818361025d565b916133b7565b610dc1610ed861334692611892565b8661337061336961336361335d610de6610dd8610dd361334c600161332d565b613494915060203d602011610a7f57610a71818361025d565b3861330b565b6020919450916134b96132e393833d8511610a7f57610a71818361025d565b949150916132c8565b50608282131561323f565b509396505050505050565b969392979998809b829e9d849b613514610cf19561350661354d989c9b9c60405198899360208501906119f3565b03601f19810187528661025d565b61351c61027e565b938d855280602086015260408501526060840152608083015260a082015261354760c0820160029052565b8761242d565b9860609960005b81518110156139a557878e6135808561357b610ca661357387896123f4565b5180966121f0565b61175a565b91601d198312158061399a575b61359d575b505050600101613554565b610cf191939e936135c36135b36135d193615564565b60405194859360208501906119f3565b03601f19810183528261025d565b604051638587a4a560e01b815290602082806135f28d8b86600485016123d2565b038173__$30acca89589d9a9b80eb3e09f3c9eae508$__5af4918215610a8657600092613979575b50604051638587a4a560e01b8152602081806136398560048301612fc7565b038173__$30acca89589d9a9b80eb3e09f3c9eae508$__5af4908115610a86578f90918c9260009161395a575b5061394157896136b48a610dce6136ae6136a76136a0846000195b60000b9c6000198e0361393257610dc161369a916116a8565b996121f0565b938a6121f0565b94866121f0565b9361228e565b918c1561391b5750610dd86136d2926136cc92612311565b8a612281565b905b60008e1561381b57506133696133636136ec92615855565b60405163171a458b60e31b80825260048201929092529160008360248173__$30acca89589d9a9b80eb3e09f3c9eae508$__5af4908115610a865761374e93600092613430575060405192835260048301529091600090839081906024820190565b038173__$30acca89589d9a9b80eb3e09f3c9eae508$__5af4908115610a86578f956000956137a397613788958895613800575b506130bc565b60405163c528fb3360e01b8152938492839260048401611277565b038173__$30acca89589d9a9b80eb3e09f3c9eae508$__5af4918215610a86576001926137de926000916137e7575b50905b610e7c826158a8565b9b908e38613592565b6137fa913d8091833e610e9e818361025d565b386137d2565b61381491953d8091833e610e9e818361025d565b9338613782565b925061383861383261383f92979597969396615855565b96615564565b91856116fd565b60405163171a458b60e31b8082526004820192909252909490838160248173__$30acca89589d9a9b80eb3e09f3c9eae508$__5af4918215610a86576138a196859283946138ff575b5060405197889283928352600483019190602083019252565b038173__$30acca89589d9a9b80eb3e09f3c9eae508$__5af4918215610a86578f966001976137de97866138dc97966138e2575b5050612fdf565b906137d5565b6138f79296503d8091833e610e9e818361025d565b9338806138d5565b6139149194503d8085833e610e9e818361025d565b9238613888565b90610dd861392c9361248e92612311565b906136d4565b610dc1610ed861369a92611892565b896136b48a610dce6136ae6136a76136a0846001613681565b613973915060203d602011610a7f57610a71818361025d565b38613666565b61399391925060203d602011610a7f57610a71818361025d565b903861361a565b50608283131561358d565b50999b5050505050505050505050565b805160009060005b8181106139ca5750505090565b90929193845b6139e26139dd84876121f0565b6121b8565b811015613a7057806139f6600192866123f4565b5151613a0a613a0483612273565b876123f4565b515110613a18575b016139d0565b613a6a613a2582876123f4565b51613a38613a3284612273565b886123f4565b51613a4384896123f4565b52613a4e83886123f4565b50613a5883612273565b90613a6382896123f4565b52866123f4565b50613a12565b50939192906001016139bd565b946001613b326102aa966039600497613b3e96979b9a613b216040519d8e9a8b93613ab46020958287809451948593019101610120565b8c01753c706174682066696c6c3d22234646462220643d224d60501b85820152613ae78251809387603685019101610120565b01600160fd1b6036820152613b058251809386603785019101610120565b0191600d60fb1b60378401528351938491603885019101610120565b0161309b60388201603b60f91b9052565b600960fb1b815261309b565b633d11179f60e11b81525b03601b1981018552018361025d565b906102aa60356040518094701e339037b830b1b4ba3c9e9118171c111f60791b6020830152613b91815180926020603186019101610120565b8101631e17b39f60e11b603182015203601581018552018361025d565b613c66600392959460536102aa956040519889957f3c706f6c79676f6e206f7061636974793d22302e32222066696c6c3d2223666660208801526a3311103837b4b73a399e9160a91b6040880152613c10815180926020604b8b019101610120565b8601600b60fa1b604b820152613c30825180936020604c85019101610120565b01640b0c0b0c0b60da1b604c820152613c53825180936020605185019101610120565b01612c2d60f01b605182015201906119f3565b6211179f60e91b815203601c1981018552018361025d565b60405190613c8b826101eb565b600c82526b1e109696b634b3b43a16969f60a11b6020830152565b90916000809313613de657613cd2613ccd613cc66028613cd794066122ab565b6028900490565b6122c1565b6122d7565b91613d14613d0f613d0a613d056715cc96efd11924eb613cfe613cf989615ddf565b6116ba565b9701615ddf565b6116d1565b6117ab565b6117bc565b60405163171a458b60e31b808252662386f26fc100009586900560048301529473__$30acca89589d9a9b80eb3e09f3c9eae508$__8483602481845af4938415610a8657613d819786948596613dca575b5060405198899485938493845205600483019190602083019252565b03915af4908115610a86576101799483613da49493613dad575b50508181613bae565b90612f41613c7e565b613dc29293503d8091833e610e9e818361025d565b903880613d9b565b613ddf9196503d8087833e610e9e818361025d565b9438613d65565b50905090565b613e0f916236ee80809107910760008112613ea0575b60008212613e96576118c4565b604051631b5ac4b560e01b81526004810182905260208160248173__$30acca89589d9a9b80eb3e09f3c9eae508$__5af48015610a8657621b774091600091613e77575b5013613e5c5790565b6000811315613e6e57610179906118b0565b610179906117e1565b613e90915060203d602011610a7f57610a71818361025d565b38613e53565b90611c96906117e1565b613ea9906117e1565b613e02565b9293919093600193613ebf836121fd565b60018314908180613f96575b15613f6d57506000925b613ee1610fd0846122f3565b91613eeb826121fd565b15613f225750610ff7613efd926121e4565b808511613f1a575b50838111613f1257929190565b929150600090565b935038613f05565b613f2b816121fd565b15613f38575b5050929190565b610ff7613f44926121e4565b808511613f65575b50838111613f5c575b3880613f31565b60009250613f55565b935038613f4c565b92613f77816121fd565b801580613f8d575b15613ed55760009350613ed5565b50831515613f7f565b506000613ecb565b90959392949194600195613fb1856121fd565b6001851492838061406a575b15614041575080945b613fd2610fd0866122f3565b93613fdc826121fd565b15613ff0575050613efd92610ff7916121f0565b909150613ffc816121fd565b1561400a575b505050929190565b61401792610ff7916121f0565b808511614039575b50838111614030575b388080614002565b60009250614028565b93503861401f565b9461404b816121fd565b801580614061575b15613fc65794508194613fc6565b50828611614053565b50818110613fbd565b9060606102aa93959461417c926040519788956f3c673e203c636972636c652063783d2760801b60208801526140b381518092602060308b019101610120565b86019165272063793d2760d01b928360308201526140db825180936020603685019101610120565b017f2720723d273538272066696c6c3d272366666627202f3e203c636972636c652060368201526363783d2760e01b6056820152614123825180936020605a85019101610120565b0190605a82015261413d8251809360208685019101610120565b0101602a907f2720723d273935272066696c6c3d272366666627206f7061636974793d27302e815269191b1390179f1e17b39f60b11b60208201520190565b03601f19810184528361025d565b919261419d6141988461174a565b6116e7565b6141a681611775565b8513908161436a575b506141c1575b50505050610179611902565b6141ca91613dec565b90620ac40982128061435d575b6141e157806141b5565b61420581611c96611c8d606495946141ff611c79611c748998611800565b976116fd565b9205910573__$30acca89589d9a9b80eb3e09f3c9eae508$__6040519263171a458b60e31b9283855260009485818061424686600483019190602083019252565b0381875af4908115610a86578691614343575b5060405185815260048101839052918683602481885af4928315610a865787908194614323575b506040518781526004810195909552929391928280602481015b0381885af4948515610a86576142cd9688938497614307575b506040518098819482938352600483019190602083019252565b03915af4938415610a86578561017996956142ea575b5050614073565b6142ff9295503d8091833e610e9e818361025d565b9238806142e3565b61431c9197503d8086833e610e9e818361025d565b95386142b3565b61429a93945061433c903d8084833e610e9e818361025d565b9392614280565b61435791503d8088833e610e9e818361025d565b38614259565b50620ac4081982136141d7565b6143749150611786565b841315386141af565b9695919490939460409460405161439381610226565b60008152946000995b81518b10156144195761441061440561440a8b8b8f956143cd8c8c8c8c6143c560019c8e6123f4565b5197886146fe565b9590935192519283602091600960fa1b838301526143f660219382519283918686019101610120565b8101038981018552018361025d565b6156a8565b98612324565b9a01999561439c565b975050505050509350509190565b9061443182610565565b6040614440604051928361025d565b8382528193614451601f1991610565565b019160009160005b848110614467575050505050565b6020908251614475816101eb565b85815282606081830152828601015201614459565b6102aa919392936040519485916020936144ac81518092878088019101610120565b83016144c082518093878085019101610120565b0161235982518093868085019101610120565b90614534959460016130936102aa9660626004976145a19660426040519d8e809b7f3c7573652066696c6c3d223c212d2d7264436f6c6f722d2d3e2220687265663d602083015261222360f01b604083015260208151948593019101610120565b89017604440e8e4c2dce6ccdee4da7a44e8e4c2dce6d8c2e8ca5604b1b604282015261456a825180936020605985019101610120565b01600b60fa1b6059820152614589825180936020605a85019101610120565b0161309b605a82016705240e6c6c2d8ca560c31b9052565b631491179f60e11b8152613b49565b906102aa6025604051846145ce829651809260208086019101610120565b8101642d6d61736b60d81b602082015203600581018552018361025d565b939195949290956040519685889651908160208901916020019161460f92610120565b86016b3c75736520687265663d222360a01b602082015281519182602c8301916020019161463c92610120565b01602c81017f222066696c7465723d2275726c28236d616b65426c61636b2922207472616e7390527003337b9369e913a3930b739b630ba32941607d1b604c82015281519182605d8301916020019161469492610120565b01605d81016146a690600b60fa1b9052565b605e016146b2916119f3565b6705240e6c6c2d8ca560c31b81526008016146cc916119f3565b600160fd1b81526001016146df916119f3565b631491179f60e11b815203601b19810183526004016102aa908361025d565b9194909493929360609182906147148851614427565b986000965b60208701518051891015614bb3579088999a92919581858d9b9798600098614740916123f4565b5161474e9060ff16876123f4565b519b61475990615564565b8c518c51906147679261448a565b91614773928d85612740565b96865b8851881015614b8a57908a8f610cf1908e9998979695946147c76147a461479e8f8f906123f4565b51615564565b6147b98d5160405196879360208501906119f3565b03601f19810185528461025d565b8d6040850151918160208401519301519260405190602082806147f9638587a4a560e01b988983528b60048401612398565b038173__$30acca89589d9a9b80eb3e09f3c9eae508$__5af4908115610a865761482a926000926129c75750612281565b936148506040880151602060408251920151604051809481928a83528c60048401612398565b038173__$30acca89589d9a9b80eb3e09f3c9eae508$__5af4908115610a8657614881926000926129c75750612281565b95604051948552602085806148998460048301612fc7565b038173__$30acca89589d9a9b80eb3e09f3c9eae508$__5af48015610a86578f95600091614b6b575b50614b62576001945b516148d588615564565b916149118a60006148f2896148e98d615564565b9301518b6116fd565b6040518094819263171a458b60e31b8352600483019190602083019252565b038173__$30acca89589d9a9b80eb3e09f3c9eae508$__5af4918215610a865761496692898e92600092614b46575b506000919201516040518095819263171a458b60e31b8352600483019190602083019252565b038173__$30acca89589d9a9b80eb3e09f3c9eae508$__5af4918215610a865761499e96600096613788958895614b2b575b506144d3565b038173__$30acca89589d9a9b80eb3e09f3c9eae508$__5af48015610a86578391600091614b12575b506149d061029d565b9087825260208201526149e382846123f4565b526149ed916123f4565b506149f79061241e565b9b51614a02906145b0565b93614a0c90615564565b92614a1690615564565b940151614a22916116fd565b60405163171a458b60e31b815260048101919091529273__$30acca89589d9a9b80eb3e09f3c9eae508$__846024815a93600094f4918215610a86578f8f90614a9496600095614af2575b50015160405163171a458b60e31b8152600481019190915294600090869081906024820190565b038173__$30acca89589d9a9b80eb3e09f3c9eae508$__5af4938415610a8657600196614ac996600096614ad7575b506145ec565b970196909192939495614776565b614aeb91963d8091833e610e9e818361025d565b9438614ac3565b614b0a9060009392963d8091833e610e9e818361025d565b949091614a6d565b614b25913d8091833e610e9e818361025d565b386149c7565b614b3f91953d8091833e610e9e818361025d565b9338614998565b614b5c906000933d8091833e610e9e818361025d565b91614940565b600019946148cb565b614b84915060203d602011610a7f57610a71818361025d565b386148c2565b509a9c90949b939950600192979650614ba49195506139b5565b9a019698919394909792614719565b50509750509350509250506000915b8451831015614bee57614be66001916020614bdd86896123f4565b51015190612324565b920191614bc2565b9350919050565b6040519060a082018281106001600160401b03821117610206576040908152606e83527f3c67207374796c653d227472616e73666f726d3a20726f7461746559283c212d60208401527f2d617a692d2d3e2920726f7461746558283c212d2d616c742d2d3e293b207472908301527f616e73666f726d2d626f783a66696c6c2d626f783b7472616e73666f726d2d6f60608301526d3934b3b4b71d31b2b73a32b9111f60911b6080830152565b906102aa929493602492614d0e604051978894602093614cca8151809287808b019101610120565b8601614cde82518093878085019101610120565b01614cf182518093868085019101610120565b0191631e17b39f60e11b8184015283519384918785019101610120565b0103600481018552018361025d565b90602491631e17b39f60e11b6102aa949695604051978894602094614d4a8151809288808b019101610120565b8601614d5e82518093888085019101610120565b01614d7182518093878085019101610120565b01614d8482518093868085019101610120565b019182015203600481018552018361025d565b906102aa602360405184614db5829651809260208086019101610120565b81016264656760e81b602082015203600381018552018361025d565b60405190614dde826101eb565b600a8252691e109696b0bd3496969f60b11b6020830152565b60405190614e04826101eb565b600a8252691e109696b0b63a16969f60b11b6020830152565b60405190614e2a826101eb565b600f82526e1e109696b0bd34a9ba34b1b596969f60891b6020830152565b906102aa602f60405180946a1e339034b21e913339911f60a91b6020830152614e7b815180926020602b86019101610120565b8101631e17b39f60e11b602b82015203600f81018552018361025d565b906102aa609d60405180947f3c7265637420793d222d313522202066696c6c3d22236437653061372220783d60208301527f222d323522202077696474683d22353022206865696768743d22353022202f3e60408301527f3c7265637420793d222d35222066696c6c3d222361613730333522207769647460608301527f683d22333022206865696768743d2231302220783d222d313522202f3e0000006080830152614f4e8151809260208686019101610120565b810103607d81018552018361025d565b906102aa608560405180947f3c67207472616e73666f726d3d227472616e736c617465283020333229223e3c60208301527f706f6c79676f6e2066696c6c3d22236437653061372220706f696e74733d222d60408301527f37202d37332037202d37332031392033202d31392033202d37202d373322202f6060830152601f60f91b6080830152614ff9815180926020608186019101610120565b8101631e17b39f60e11b608182015203606581018552018361025d565b906102aa602f60405180946a1e339034b21e913333911f60a91b6020830152614e7b815180926020602b86019101610120565b9161506d60649199979598969499612134938481136000146153ff57508394613dec565b059360009161507a614bf5565b95838513615112575050505050916150b2939461509a926150aa94614d1d565b6150a2614dd1565b612fc16119b9565b6150a2614df7565b906150bc836121fd565b600183146150ff575b156150f5576002826150d9610179946121fd565b036150ec576150e790614f5e565b615016565b6150e790614e98565b6101799150614e48565b9061510c906150a2614e1d565b906150c5565b939890949296919573__$30acca89589d9a9b80eb3e09f3c9eae508$__96604051631b5ac4b560e01b8152602081806151538a600483019190602083019252565b03818c5af4998a15610a8657996153de575b506123289889136153cb575061517a93614d1d565b935b828213806153c2575b156152b1575050915b60405163171a458b60e31b808252600482018590529590600081602481875af48015610a86576151f1936151cf6151d892600094859161529d575b50614d97565b90612f41614dd1565b91604051809481928a8352600483019190602083019252565b0381865af4918215610a865761521b92615212916000916152825750614d97565b90612f41614df7565b93615225866121fd565b60018614615236575b5050506150c5565b604051908152600481019290925291929091600090839060249082905af4918215610a865761527992615270916000916152825750614d97565b90612f41614e1d565b9038808061522e565b61529791503d806000833e610e9e818361025d565b386151c9565b61529791503d8087833e610e9e818361025d565b9080925013806153b7575b156152cb575061251c9161518e565b6121331990818112806153ab575b156152e557509161518e565b90506123271981128061539f575b15615303575061251b199161518e565b610a5a9081811380615394575b1561531c57509161518e565b610a5919915081811280615388575b156153385750915b61518e565b9050610a8c81138061537d575b156153545750610abe9161518e565b91610a8b19831280615371575b1561533357610abd19925061518e565b50610abd198313615361565b50610abe8112615345565b50610a8b19811361532b565b50610a8c8112615310565b5061251b1981136152f3565b506123271981136152d9565b5061251c81126152bc565b50808212615185565b91906153d8949350614ca2565b9361517c565b6153f891995060203d602011610a7f57610a71818361025d565b9738615165565b94613dec565b60996102aa919392936040519485917f3c72656374206d61736b3d2275726c28236e696768744d61736b000000000000602084015261544e815180926020603a87019101610120565b82017f2922207374796c653d226d69782d626c656e642d6d6f64653a6d756c7469706c603a8201527f79222077696474683d223130383022206865696768743d223130383022206669605a8201527536361e911198231999991b911037b830b1b4ba3c9e9160511b607a8201526154cf825180936020609085019101610120565b0168111f1e17b932b1ba1f60b91b609082015203607981018552018361025d565b906154fa826102ac565b615507604051918261025d565b8281528092612251601f19916102ac565b604051601e615526826101eb565b6002825260203681840137602282015b6000190190600a906f181899199a1a9b1b9c1cb0b131b232b360811b8282061a835304908161553657505090565b806000917a184f03e93ff9f4daa797ed6e38ed64bf6a1f0100000000000000008082101561569a575b506d04ee2d6d415b85acef81000000008083101561568b575b50662386f26fc100008083101561567c575b506305f5e1008083101561566d575b506127108083101561565e575b50606482101561564e575b600a80921015615644575b6001908160216155fc600187016154f0565b95860101905b61560e575b5050505090565b600019019083906f181899199a1a9b1b9c1cb0b131b232b360811b8282061a83530491821561563f57919082615602565b615607565b91600101916155ea565b91906064600291049101916155df565b600491939204910191386155d4565b600891939204910191386155c7565b601091939204910191386155b8565b602091939204910191386155a6565b60409350810491503861558d565b909291928190825192815186519360209788808095019501908785604051019301938585019881111561571f575b5050508394508095939160405195869103910301945b8382106157105750506000848401968701525050603f909301601f19166040528252565b815181529082019082016156ec565b90919293959450602181870301968a600093600082851015615815575b601f859998979916830360031b9851965b88518881188b1c1561578957815260018091019801988b8a1015615773575b989761574d565b505050959750505050509183925b3880806156d6565b918497949598919a92819d94979a9c9d6157ce575b50505050505b818184010151818801520190838210156157c0579082906157a4565b505092019201928392615781565b90809293949596508a8d20036157e65787959461579e565b8a9192989597949c9b9996939a5260018091019801988b8a1061576c5750505095975050505050918392615781565b5083862061573c565b6000811215615842576715cc96efd11924eb61583c61017992611775565b01615ddf565b6715cc96efd11924eb6101799101615ddf565b61017990610f5c60008212918260001461589257604051615875816101eb565b60018152602d60f81b6020820152925b1561556457600003615564565b60405161589e81610226565b6000815292615885565b600080916040516158d6816135c3602082019463104c13eb60e21b8652602060248401526044830190610143565b51906a636f6e736f6c652e6c6f675afa50565b604051906158f682610241565b61040482527ac90f8801921d20025b26d703242abf03ed26e604b6195d057f003560208301527f0647d97c0710a34507d95b9e08a2009a096a90490a3308bc0afb68050bc3ac3560408301527f0c8bd35e0d53db920e1bc2e40ee387660fab272b1072a0481139f0cf120116d560608301527f12c8106e138edbb1145576b1151bdf8515e2144416a81305176dd9de183366e860808301527f18f8b83c19bdcbf31a82a0251b4732ef1c0b826a1ccf8cb31d934fe51e56ca1e60a08301527f1f19f97b1fdcdc1b209f701c2161b39f2223a4c522e541af23a6887e2467775760c08301527f25280c5d25e845b626a8218527679df42826b92828e5714a29a3c4852a61b10160e08301527f2b1f34eb2bdc4e6f2c98fbba2d553afb2e110a622ecc681e2f8752623041c7606101008301527f30fbc54d31b54a5d326e54c73326e2c233def2873496824f354d905636041ad96101208301527f36ba2013376f9e46382493b038d8fe93398cdd323a402dd13af2eeb73ba51e296101408301527f3c56ba703d07c1d53db832a53e680b2c3f1749b73fc5ec974073f21d4121589a6101608301527f41ce1e64427a41d04325c13543d09aec447acd50452456bc45cd358f467568276101808301527f471cece647c3c22e4869e664490f57ee49b415334a581c9d4afb6c974b9e038f6101a08301527f4c3fdff34ce100344d8162c34e2106174ebfe8a44f5e08e24ffb654c5097fc5e6101c08301527f5133cc9451ced46e5269126e53028517539b2aef5433027d54ca0a4a556040e26101e08301527f55f5a4d2568a34a9571deef957b0d2555842dd5458d40e8c5964649759f3de126102008301527f5a8279995b1035ce5b9d11535c290acc5cb420df5d3e52365dc79d7b5e50015d6102208301527f5ed77c895f5e0db25fe3b38d60686cce60ec382f616f146b61f1003e6271fa686102408301527f62f201ac637114cc63ef328f646c59bf64e889256563bf9165ddfbd266573cbb6102608301527f66cf811f6746c7d767bd0fbc683257aa68a69e806919e31f698c246b69fd614a6102808301527f6a6d98a36adcc9646b4af2786bb812d06c24295f6c8f351b6cf934fb6d6227f96102a08301527f6dca0d146e30e3496e96a99c6efb5f116f5f02b16fc1938470231099708378fe6102c08301527f70e2cbc571410804719e2cd171fa394872552c8472af05a67307c3cf735f66256102e08301527f73b5ebd0740b53fa745f9dd074b2c8837504d3447555bd4b75a585ce75f42c0a6103008301527f7641af3c768e0ea576d9498877235f2c776c4eda77b417df77fab988784033286103208301527f7884841378c7aba17909a92c794a7c11798a23b079c89f6d7a05eeac7a4210d86103408301527f7a7d055a7ab6cba37aef63237b26cb4e7b5d039d7b920b887bc5e28f7bf8882f6103608301527f7c29fbed7c5a3d4f7c894bdd7cb727237ce3ceb17d0f42177d3980eb7d628ac56103808301527f7d8a5f3f7db0fdf77dd6668e7dfa98a77e1d93e97e3f57fe7e5fe4927e7f39566103a08301527f7e9d55fb7eba3a387ed5e5c57ef0585f7f0991c37f2191b37f3857f57f4de4506103c08301527f7f62368e7f754e7f7f872bf27f97cebc7fa736b37fb563b27fc255957fce0c3d6103e08301527f7fd8878d7fe1c76a7fe9cbbf7ff094777ff621817ffa72d07ffd88597fff6215610400830152637fffffff60e01b610420830152565b670de0b6b3a7640000637fffffff916757325bbf446493ac809106601e1b0460ff8160141c166310000000821615908115615e73575b6002615e1f6158e9565b910160021b015163ffffffff808260201c16911661ffff8460041c168282030260101c92600014615e6b5750015b6320000000819216615e60575b50020590565b905060000338615e5a565b905003615e4d565b60ff03615e1556fea2646970667358221220810b57eb802b73accce204a92722e047659e1f74da2aa74e5fd8d57a622f147964736f6c63430008190033","linkReferences":{"contracts/NDUtils.sol":{"NDUtils":[{"start":1860,"length":20},{"start":1992,"length":20},{"start":2095,"length":20},{"start":2197,"length":20},{"start":2336,"length":20},{"start":2439,"length":20},{"start":2563,"length":20},{"start":3364,"length":20},{"start":5392,"length":20},{"start":5545,"length":20},{"start":7473,"length":20},{"start":7560,"length":20},{"start":7625,"length":20},{"start":7698,"length":20},{"start":7768,"length":20},{"start":7834,"length":20},{"start":7900,"length":20},{"start":7966,"length":20},{"start":8032,"length":20},{"start":8093,"length":20},{"start":8208,"length":20},{"start":9458,"length":20},{"start":10382,"length":20},{"start":10482,"length":20},{"start":10574,"length":20},{"start":11006,"length":20},{"start":11872,"length":20},{"start":12995,"length":20},{"start":13062,"length":20},{"start":13230,"length":20},{"start":13302,"length":20},{"start":13845,"length":20},{"start":13916,"length":20},{"start":14122,"length":20},{"start":14193,"length":20},{"start":14278,"length":20},{"start":14462,"length":20},{"start":14532,"length":20},{"start":15701,"length":20},{"start":15946,"length":20},{"start":16938,"length":20},{"start":18460,"length":20},{"start":18547,"length":20},{"start":18620,"length":20},{"start":18740,"length":20},{"start":18825,"length":20},{"start":18881,"length":20},{"start":19033,"length":20},{"start":19127,"length":20},{"start":20795,"length":20}]}}},"methodIdentifiers":{"adjustTimeStampsForAssetVisibility(uint256,uint256,uint256,uint256,DAYTIME,uint256,uint256)":"9163cba5","applyNight(int256,MotifType)":"fecb0d4f","computeStarttime(uint256,AssetInScene,string,uint256,uint256,bool)":"174d710c","generateClouds(int256,uint256)":"4b54268f","getDiffAngle(int256,int256)":"88134137","renderAirplanes(uint256,uint256,uint256)":"88330ed5","renderFlower(string,int256,int256,int256,FlowerType,string,string,string,string,bool)":"d79783a7","renderLighthouse(string,int256,uint256)":"6d5b57a0","renderMainScene(string,uint256,uint256,SceneInMotif[],AssetInScene[],uint256,uint256)":"b057948e","renderMoon(MotifType,int256,int256,int256,int256,int256,int256,int256)":"07704b93","renderMovingAsset(uint256,string,string,bool,uint256,uint256,bool,uint256,uint256,uint256,uint256,uint256,uint256)":"3235ac6d","renderSceneAssets(SceneInMotif,AssetInScene[],uint256,uint256,uint256,uint256)":"c187234c","renderSun(uint256,int256,int256,uint256)":"955cb78f","renderSunclock(string,int256,int256,int256)":"31ae97d0","sortElements(NDRenderer.SceneElement[])":"36f14057"},"id":5}