{"abi":[{"type":"function","name":"adjustTimeStampsForAssetVisibility","inputs":[{"name":"minStartTime","type":"uint256","internalType":"uint256"},{"name":"maxStartTime","type":"uint256","internalType":"uint256"},{"name":"sunriseTime","type":"uint256","internalType":"uint256"},{"name":"sunsetTime","type":"uint256","internalType":"uint256"},{"name":"timeOfDayVisibility","type":"DAYTIME","internalType":"enum DAYTIME"},{"name":"tolerance","type":"uint256","internalType":"uint256"},{"name":"maxDuration","type":"uint256","internalType":"uint256"}],"outputs":[{"name":"","type":"uint256","internalType":"uint256"},{"name":"","type":"uint256","internalType":"uint256"},{"name":"","type":"bool","internalType":"bool"}],"stateMutability":"pure"},{"type":"function","name":"applyNight","inputs":[{"name":"altitude","type":"int256","internalType":"int256"},{"name":"motifType","type":"MotifType","internalType":"enum MotifType"}],"outputs":[{"name":"","type":"string","internalType":"string"}],"stateMutability":"pure"},{"type":"function","name":"computeStarttime","inputs":[{"name":"timestamp","type":"uint256","internalType":"uint256"},{"name":"checkInterval","type":"uint256","internalType":"uint256"},{"name":"minDuration","type":"uint256","internalType":"uint256"},{"name":"maxDuration","type":"uint256","internalType":"uint256"},{"name":"possibleOffset","type":"uint256","internalType":"uint256"},{"name":"appearanceProbability","type":"uint256","internalType":"uint256"},{"name":"salt","type":"string","internalType":"string"},{"name":"dayNight","type":"DAYTIME","internalType":"enum DAYTIME"},{"name":"sunrise","type":"uint256","internalType":"uint256"},{"name":"sunset","type":"uint256","internalType":"uint256"}],"outputs":[{"name":"","type":"uint256[]","internalType":"uint256[]"}],"stateMutability":"pure"},{"type":"function","name":"generateClouds","inputs":[{"name":"skyHeight","type":"int256","internalType":"int256"},{"name":"nonce","type":"uint256","internalType":"uint256"}],"outputs":[{"name":"","type":"string","internalType":"string"}],"stateMutability":"pure"},{"type":"function","name":"getDiffAngle","inputs":[{"name":"azimuth","type":"int256","internalType":"int256"},{"name":"heading","type":"int256","internalType":"int256"}],"outputs":[{"name":"","type":"int256","internalType":"int256"}],"stateMutability":"pure"},{"type":"function","name":"p_atan2","inputs":[{"name":"y","type":"int256","internalType":"int256"},{"name":"x","type":"int256","internalType":"int256"}],"outputs":[{"name":"T","type":"int256","internalType":"int256"}],"stateMutability":"pure"},{"type":"function","name":"randomNum","inputs":[{"name":"nonce","type":"uint256","internalType":"uint256"},{"name":"min","type":"uint256","internalType":"uint256"},{"name":"max","type":"uint256","internalType":"uint256"}],"outputs":[{"name":"","type":"uint256","internalType":"uint256"}],"stateMutability":"pure"},{"type":"function","name":"randomNum","inputs":[{"name":"nonce","type":"string","internalType":"string"},{"name":"min","type":"uint256","internalType":"uint256"},{"name":"max","type":"uint256","internalType":"uint256"}],"outputs":[{"name":"","type":"uint256","internalType":"uint256"}],"stateMutability":"pure"},{"type":"function","name":"renderDecimal","inputs":[{"name":"value","type":"int256","internalType":"int256"}],"outputs":[{"name":"","type":"string","internalType":"string"}],"stateMutability":"pure"},{"type":"function","name":"renderFlower","inputs":[{"name":"svg","type":"string","internalType":"string"},{"name":"azimuth","type":"int256","internalType":"int256"},{"name":"altitude","type":"int256","internalType":"int256"},{"name":"heading","type":"int256","internalType":"int256"},{"name":"flowerType","type":"FlowerType","internalType":"enum FlowerType"},{"name":"blossom","type":"string","internalType":"string"},{"name":"stick","type":"string","internalType":"string"},{"name":"back","type":"string","internalType":"string"},{"name":"front","type":"string","internalType":"string"},{"name":"hasPot","type":"bool","internalType":"bool"}],"outputs":[{"name":"","type":"string","internalType":"string"}],"stateMutability":"pure"},{"type":"function","name":"renderMainScene","inputs":[{"name":"svg","type":"string","internalType":"string"},{"name":"timestamp","type":"uint256","internalType":"uint256"},{"name":"tokenID","type":"uint256","internalType":"uint256"},{"name":"scenes","type":"tuple[]","internalType":"struct SceneInMotif[]","components":[{"name":"placeHolder","type":"string","internalType":"string"},{"name":"assets","type":"uint8[]","internalType":"uint8[]"},{"name":"area","type":"int256[4]","internalType":"int256[4]"},{"name":"scale","type":"uint256","internalType":"uint256"}]},{"name":"assetsInScene","type":"tuple[]","internalType":"struct AssetInScene[]","components":[{"name":"name","type":"string","internalType":"string"},{"name":"minDuration","type":"uint256","internalType":"uint256"},{"name":"maxDuration","type":"uint256","internalType":"uint256"},{"name":"checkInterval","type":"uint256","internalType":"uint256"},{"name":"possibleOffset","type":"uint256","internalType":"uint256"},{"name":"probability","type":"uint256","internalType":"uint256"},{"name":"dayTime","type":"DAYTIME","internalType":"enum DAYTIME"}]},{"name":"sunrise","type":"uint256","internalType":"uint256"},{"name":"sunset","type":"uint256","internalType":"uint256"}],"outputs":[{"name":"","type":"string","internalType":"string"},{"name":"","type":"string","internalType":"string"}],"stateMutability":"pure"},{"type":"function","name":"renderMoon","inputs":[{"name":"motifType","type":"MotifType","internalType":"enum MotifType"},{"name":"heading","type":"int256","internalType":"int256"},{"name":"skyHeight","type":"int256","internalType":"int256"},{"name":"azimuth","type":"int256","internalType":"int256"},{"name":"altitude","type":"int256","internalType":"int256"},{"name":"pa","type":"int256","internalType":"int256"},{"name":"fraction","type":"int256","internalType":"int256"},{"name":"angle","type":"int256","internalType":"int256"}],"outputs":[{"name":"","type":"string","internalType":"string"}],"stateMutability":"pure"},{"type":"function","name":"renderMovingAsset","inputs":[{"name":"timestamp","type":"uint256","internalType":"uint256"},{"name":"salt","type":"string","internalType":"string"},{"name":"assetName","type":"string","internalType":"string"},{"name":"hasRandomColor","type":"bool","internalType":"bool"},{"name":"minY","type":"uint256","internalType":"uint256"},{"name":"maxY","type":"uint256","internalType":"uint256"},{"name":"horizontUp","type":"bool","internalType":"bool"},{"name":"minScale","type":"uint256","internalType":"uint256"},{"name":"maxScale","type":"uint256","internalType":"uint256"},{"name":"duration","type":"uint256","internalType":"uint256"},{"name":"checkInterval","type":"uint256","internalType":"uint256"},{"name":"appearanceProbability","type":"uint256","internalType":"uint256"},{"name":"possibleOffset","type":"uint256","internalType":"uint256"}],"outputs":[{"name":"","type":"string","internalType":"string"}],"stateMutability":"pure"},{"type":"function","name":"renderReplacements","inputs":[{"name":"svg","type":"string","internalType":"string"},{"name":"replacements","type":"tuple[]","internalType":"struct Replacement[]","components":[{"name":"tag","type":"ObjectType","internalType":"enum ObjectType"},{"name":"dataType","type":"RenderDataType","internalType":"enum RenderDataType"},{"name":"data","type":"int256[]","internalType":"int256[]"},{"name":"placeholder","type":"string","internalType":"string"},{"name":"ref","type":"string","internalType":"string"}]}],"outputs":[{"name":"","type":"string","internalType":"string"}],"stateMutability":"pure"},{"type":"function","name":"renderSceneAssets","inputs":[{"name":"assetIds","type":"uint8[]","internalType":"uint8[]"},{"name":"assets","type":"tuple[]","internalType":"struct AssetInScene[]","components":[{"name":"name","type":"string","internalType":"string"},{"name":"minDuration","type":"uint256","internalType":"uint256"},{"name":"maxDuration","type":"uint256","internalType":"uint256"},{"name":"checkInterval","type":"uint256","internalType":"uint256"},{"name":"possibleOffset","type":"uint256","internalType":"uint256"},{"name":"probability","type":"uint256","internalType":"uint256"},{"name":"dayTime","type":"DAYTIME","internalType":"enum DAYTIME"}]},{"name":"timestamp","type":"uint256","internalType":"uint256"},{"name":"tokenID","type":"uint256","internalType":"uint256"},{"name":"area","type":"int256[4]","internalType":"int256[4]"},{"name":"scale","type":"uint256","internalType":"uint256"},{"name":"sunrise","type":"uint256","internalType":"uint256"},{"name":"sunset","type":"uint256","internalType":"uint256"}],"outputs":[{"name":"sceneSvg","type":"string","internalType":"string"},{"name":"sceneMaskSvg","type":"string","internalType":"string"}],"stateMutability":"pure"},{"type":"function","name":"renderSun","inputs":[{"name":"skyHeight","type":"uint256","internalType":"uint256"},{"name":"azimuth","type":"int256","internalType":"int256"},{"name":"altitude","type":"int256","internalType":"int256"},{"name":"heading","type":"uint256","internalType":"uint256"}],"outputs":[{"name":"","type":"string","internalType":"string"}],"stateMutability":"pure"},{"type":"function","name":"setRandomColor","inputs":[{"name":"svg","type":"string","internalType":"string"},{"name":"salt","type":"string","internalType":"string"}],"outputs":[{"name":"","type":"string","internalType":"string"}],"stateMutability":"pure"},{"type":"function","name":"setUseRotations","inputs":[{"name":"svg","type":"string","internalType":"string"},{"name":"ref","type":"string","internalType":"string"},{"name":"rotations","type":"int256[]","internalType":"int256[]"},{"name":"rotationAnchor","type":"int16[2]","internalType":"int16[2]"}],"outputs":[{"name":"","type":"string","internalType":"string"}],"stateMutability":"pure"},{"type":"function","name":"setUseTags","inputs":[{"name":"svgTemplate","type":"string","internalType":"string"},{"name":"ref","type":"string","internalType":"string"},{"name":"positions","type":"int16[]","internalType":"int16[]"},{"name":"hasScale","type":"bool","internalType":"bool"},{"name":"placeholder","type":"string","internalType":"string"}],"outputs":[{"name":"","type":"string","internalType":"string"}],"stateMutability":"pure"}],"bytecode":{"object":"0x6080806040523460195761489b908161001f823930815050f35b600080fdfe610120604052600436101561001357600080fd5b60003560e01c806307704b931461227857806328294640146122515780633235ac6d14611c4b578063366a301814611b995780633899f054146118e45780634b54268f146114e45780638587a4a5146114a757806388134137146114935780639163cba51461134c578063955cb78f14611329578063a40e9e9e14611287578063b057948e1461102f578063b4ce66db14611013578063b8d22c5814610ff9578063c2209fb914610b4c578063c528fb3314610afa578063d79783a714610488578063d8ce367a146102835763fecb0d4f146100ee57600080fd5b604036600319011261027e57600435602435600481101561027e5761022d916202bf1f198082121561024357505061012760645b613fd8565b906102315761021960976101396127b1565b6040519384917f3c72656374206d61736b3d2275726c28236e696768744d61736b0000000000006020840152610179815180926020603a870191016122b9565b82017f2922207374796c653d226d69782d626c656e642d6d6f64653a6d756c7469706c603a8201527f79222077696474683d223130302522206865696768743d223130302522206669605a820152746c6c3d222330463333323722206f7061636974793d60581b607a8201526101f9825180936020608f850191016122b9565b01671f1e17b932b1ba1f60c11b608f820152036077810184520182612352565b6040519182916020835260208301906122dc565b0390f35b610219609761023e612794565b610139565b600082129081610274575b50156102695761089861026361012792614851565b05613fd8565b506101276000613fd8565b905081133861024e565b600080fd5b60a036600319011261027e576001600160401b0360043581811161027e576102af90369060040161238e565b60243582811161027e576102c790369060040161238e565b9160443590811161027e576102e09036906004016125c2565b90366083121561027e57604051926102f784612301565b60a48436821161027e576064905b82821061047057505050909160405161031d81612337565b600081529160009160209586810191878401955b8151861015610446578661043e60466001938c6103576103518c89612e7c565b51614688565b88516103726103688992830b614688565b918c51900b614688565b918c604051988661038c8b9851809289808c0191016122b9565b87016b3c75736520687265663d222360a01b878201526103b4602c93518093858401906122b9565b01907304440e8e4c2dce6ccdee4da7a44e4dee8c2e8ca560631b908201526103e582518093876040850191016122b9565b0190600160fd1b90816040840152604192610408825180938887850191016122b9565b0191820152610422604293835193849186850191016122b9565b0190631491179f60e11b90820152036026810184520182612352565b950194610331565b61045b89918961045588613562565b906146db565b9061022d6040519282849384528301906122dc565b6020809161047d8461259e565b815201910190610305565b61014036600319011261027e576001600160401b0360043581811161027e576104b590369060040161238e565b6084359190604435600384101561027e5760a43583811161027e576104de90369060040161238e565b9360c43584811161027e576104f790369060040161238e565b9160e43585811161027e5761051090369060040161238e565b956101043586811161027e5761052a90369060040161238e565b916101243594851515860361027e576121349182811315610af4575081985b606461055881356024356136b1565b05996040519360a085019a858c10908c1117610ade5761045b9a604052606e855260209b8c8601937f3c67207374796c653d227472616e73666f726d3a20726f7461746559283c212d85527f2d617a692d2d3e2920726f7461746558283c212d2d616c742d2d3e293b20747260408801527f616e73666f726d2d626f783a66696c6c2d626f783b7472616e73666f726d2d6f60608801526d3934b3b4b71d31b2b73a32b9111f60911b608088015260008413156000146108135750505050509261063f92610629926106479561436f565b610631614423565b6106396127ce565b916146db565b610631614449565b915b61067b575b50906040519061065d82612301565b600d82526c1e109696b33637bbb2b916969f60991b858301526146db565b80610687600292612f00565b0361074a57610741608560405180937f3c67207472616e73666f726d3d227472616e736c617465283020333229223e3c888301527f706f6c79676f6e2066696c6c3d22236664653061642220706f696e74733d222d60408301527f37202d37332037202d37332031392033202d31392033202d37202d373322202f6060830152601f60f91b6080830152610724815180928a6081860191016122b9565b8101631e17b39f60e11b6081820152036065810184520182612352565b905b908461064e565b61080d609d60405180937f3c7265637420793d222d313522202066696c6c3d22236664653061642220783d888301527f222d323522202077696474683d22353022206865696768743d22353022202f3e60408301527f3c7265637420793d222d35222066696c6c3d222361613730333522207769647460608301527f683d22333022206865696768743d2231302220783d222d313522202f3e00000060808301526107fd815180928a86860191016122b9565b810103607d810184520182612352565b90610743565b9399979296919590948d6123289b8c61082b89614851565b12610a6357505061083c945061436f565b955b82821380610a5a575b156108e65750509061087e61086a61087861088794975b61086f61086a8a613fd8565b6143e9565b90610455614423565b92613fd8565b90610455614449565b9261089183612f00565b600183146108a0575b50610649565b926108b161086a6108df9395613fd8565b90604051906108bf82612301565b600f82526e1e109696b0bd34a9ba34b1b596969f60891b898301526146db565b918661089a565b908092501380610a4f575b1561090d57506108879061087e61086a61087861251c9761085e565b612133199081811280610a43575b1561093557509061087e61086a610878610887949761085e565b905061232719811280610a37575b1561096057506108879061087e61086a61087861251b199761085e565b610a5a9081811380610a2c575b1561098757509061087e61086a610878610887949761085e565b610a5919915081811280610a20575b156109b057509061087e61086a610878610887949761085e565b9050610a8c811380610a15575b156109d957506108879061087e61086a610878610abe9761085e565b93610a8b19851280610a09575b6109fe575b9061087e61086a6108786108879461085e565b610abd1994506109eb565b50610abd1985136109e6565b50610abe81126109bd565b50610a8b198113610996565b50610a8c811261096d565b5061251b198113610943565b5061232719811361091b565b5061251c81126108f1565b50808212610847565b610ad89550610a8596602495610ac992604051998a97518092878a01906122b9565b8601610a99825180938780850191016122b9565b01610aac825180938680850191016122b9565b0191631e17b39f60e11b81840152835193849187850191016122b9565b01036004810184520182612352565b9561083e565b634e487b7160e01b600052604160045260246000fd5b98610549565b604036600319011261027e576001600160401b0360043581811161027e57610b2690369060040161238e565b9060243590811161027e5761022d91610b4661021992369060040161238e565b9061406f565b604036600319011261027e576001600160401b0360043581811161027e57610b7890369060040161238e565b9060249182359180831161027e573660238401121561027e57826004013592610ba0846123e4565b93610bae6040519586612352565b80855285602086019160051b8301019136831161027e57868197969701915b838310610f1d5785600089895b8151831015610f0757610bed8383612e7c565b51936060948051610bfd81612f00565b610c0681612f00565b15610c2c575b94610c239161045560606001959697980151613562565b93019190610bda565b906020820151610c3b81612f00565b610c4481612f00565b610ed9576002955b6000905b60408401518051831015610ecd5782610c6891612e7c565b516040850151600184018411610eb857610c86906001850190612e7c565b51906020860151610c9681612f00565b610c9f81612f00565b610e7e57610cab6127eb565b8660026020820151610cbc81612f00565b610cc581612f00565b03610e3b5760400151600386018611610e2657937604440e8e4c2dce6ccdee4da7a44e8e4c2dce6d8c2e8ca5604b1b9388610e15946054946705240e6c6c2d8ca560c31b610d3c610d366080610d2c610d268f9e610e209f60030190612e7c565b51613fd8565b965b015194614688565b95614688565b946040519987610d568c995180926020808d0191016122b9565b8801946b3c75736520687265663d222360a01b6020870152602c95610d848251809360208a850191016122b9565b0194850152604393610d9f82518093602088850191016122b9565b019461016160f51b8094870152604595610dc28251809360208a850191016122b9565b0194850152604d93610ddd82518093602088850191016122b9565b0192830152604f91610df882518093602086850191016122b9565b019064149110179f60d91b90820152036034810184520182612352565b9160ff891690612ed0565b90610c50565b88634e487b7160e01b60005260116004526000fd5b937604440e8e4c2dce6ccdee4da7a44e8e4c2dce6d8c2e8ca5604b1b93610e2095610e1594846705240e6c6c2d8ca560c31b610d3c610d36608060549996610d2e565b6040860151600285018511610ea357610d26610e9e916002870190612e7c565b610cab565b87634e487b7160e01b60005260116004526000fd5b86634e487b7160e01b60005260116004526000fd5b50965090919050610c0c565b60016020830151610ee981612f00565b610ef281612f00565b03610f005760035b95610c4c565b6004610efa565b6040516020808252819061022d908201876122dc565b829796973585811161027e57820160a09182602319833603011261027e5760405192830183811088821117610fe4576040526003828b01358181101561027e57845260448301359081101561027e576020840152606482013587811161027e57610f8c908b36918501016125c2565b6040840152608482013587811161027e57610fac908b369185010161238e565b606084015260a48201359287841161027e57610fd1602094938c86953692010161238e565b6080820152815201920191969596610bcd565b8a634e487b7160e01b60005260416004526000fd5b602036600319011261027e5761022d610219600435613fd8565b6020611027611021366125ac565b90613d27565b604051908152f35b60e036600319011261027e576004356001600160401b03811161027e5761105a90369060040161238e565b6001600160401b036064351161027e5736602360643501121561027e5760643560040135611087816123e4565b906110956040519283612352565b80825260208201903660248260051b60643501011161027e57602460643501915b60248260051b60643501018310611172575050506084356001600160401b03811161027e576110e9903690600401612465565b60a43560c4356040516110fb81612337565b60008152916000955b8551871015611161576111586104556111526001936111238b8b612e7c565b5190611149888860208501518d6040870151906060880151926044359160243591612f19565b94909251613562565b95612edd565b96019592611104565b839061022d60405192839283612576565b82356001600160401b03811161027e5760e060643582013603602319011261027e57604051908160808101106001600160401b03608084011117610ade57608082016040526024816064350101356001600160401b03811161027e576111e290602436918460643501010161238e565b82526044816064350101356001600160401b03811161027e5761120f9060243691846064350101016123fb565b6020830152366083826064350101121561027e5760405161122f8161231c565b803660e48460643501011161027e5760648381350101905b60e4846064350101821061127757505060408301526064350160e4013560608201528152602092830192016110b6565b8135815260209182019101611247565b61014036600319011261027e5760c4356001600160401b03811161027e576112b390369060040161238e565b60e435600381101561027e576112e4916101243591610104359160a43560843560643560443560243560043561394f565b6040518091602080830160208452825180915260206040850193019160005b82811061131257505050500390f35b835185528695509381019392810192600101611303565b608036600319011261027e5761022d610219606435604435602435600435613747565b60e036600319011261027e57606435608435604435602435600435600384101561027e5760609460c4359083839560019661138689612f00565b6001891495868061148a575b1561145b57505080975b60646113aa60a43587612eb3565b04956113b582612f00565b15611406575050506113d092916113cb91612ea6565b612ed0565b8082116113fe575b508083116113f5575b604051928352602083015215156040820152f35b600091506113e1565b9050846113d8565b909194925061141481612f00565b15611423575b505050506113e1565b611430926113cb91612ea6565b809111611453575b5080831161144a575b8480808061141a565b60009150611441565b905084611438565b6114668a929a612f00565b8482159182611480575b50501561139c579750829761139c565b119050848c611470565b50828110611392565b60206110276114a1366125ac565b906136b1565b606036600319011261027e576004356001600160401b03811161027e576110276114d7602092369060040161238e565b6044359060243590613637565b604036600319011261027e57602435600561150761150183612f0a565b9261451f565b6040516115316020828161152481830196878151938492016122b9565b8101038084520182612352565b51902006806001016001116118be5760405161154c81612337565b600081529160005b8260010181106115b75761022d8461021960356040518093701e339037b830b1b4ba3c9e9118171c111f60791b602083015261159a8151809260206031860191016122b9565b8101631e17b39f60e11b6031820152036015810184520182612352565b60016115cb6115c584612f0a565b9361451f565b6040516115e86020828161152481830196878151938492016122b9565b51902016600101806001116118be5761161561160384612f0a565b936116106004359161451f565b6135db565b9061044361162b61162586612f0a565b9561451f565b6040516116486020828161152481830196878151938492016122b9565b5190200690816009198101136001166118be576000915b8183106116725750505050600101611554565b92969195909493602961168d61168787612f0a565b9661451f565b6040516116aa6020828161152481830196878151938492016122b9565b51902006600a0180600a116118be576116ec908060016116da6116d56116cf8b612f0a565b9a61451f565b6135b4565b146118d4575b5060091986019061275f565b9360156117016116fb88612f0a565b9761451f565b60405161171e6020828161152481830196878151938492016122b9565b519020069260509284840184116118be5761174c61173b88614688565b956117458d61451f565b950161451f565b98601e986040519961175d8b612301565b60028b52602036818d0137600a60228c015b60001901916f181899199a1a9b1b9c1cb0b131b232b360811b8282061a83530490811561179e57600a9061176f565b50509994600960fb1b6118a89598939a603b60f91b6117eb98603e979f9c6117cd600d60fb1b919c979c614688565b95600160fd1b6020806040519e8f8d83829f519485930191016122b9565b8b01753c706174682066696c6c3d22234646462220643d224d60501b8282015261182060368c819d51948592850191016122b9565b019889015260379761183b8251809360208c850191016122b9565b01968701526038956118568251809360208a850191016122b9565b019485015260399361187182518093602088850191016122b9565b0192830152603a9161188c82518093602086850191016122b9565b0190633d11179f60e11b9082015203601e810184520182612352565b96601e81018091116118be57926001019161165f565b634e487b7160e01b600052601160045260246000fd5b6118de91506126fd565b8a6116e0565b60a036600319011261027e576001600160401b0360043581811161027e5761191090369060040161238e565b906024803582811161027e5761192a90369060040161238e565b6044359183831161027e573660238401121561027e5782600401359261194f846123e4565b9361195d6040519586612352565b8085526024602086019160051b8301019136831161027e57602401905b828210611b815750505061198c6123d5565b9360843590811161027e576119a590369060040161238e565b936040516119b281612337565b60008152938115611b79576003965b6000955b8251871015611b68576119e46119db8885612e7c565b5160010b614688565b60018801808911610eb8576119db6119fc9186612e7c565b878615611b215750600289018911610eb8576052611b1b93897604440e8e4c2dce6ccdee4da7a44e8e4c2dce6d8c2e8ca5604b1b946705240e6c6c2d8ca560c31b611b109561016160f51b8f6119db8d6002611a59930190612e7c565b935b6040519987611a748c995180926020808d0191016122b9565b8801966b3c75736520687265663d222360a01b6020890152602c97611aa28251809360208c850191016122b9565b0196870152604395611abd8251809360208a850191016122b9565b0194850152604593611ad882518093602088850191016122b9565b0192830152604d91611af382518093602086850191016122b9565b019064149110179f60d91b90820152036032810184520182612352565b9660ff8a1690612ed0565b956119c5565b611b1b936052917604440e8e4c2dce6ccdee4da7a44e8e4c2dce6d8c2e8ca5604b1b946705240e6c6c2d8ca560c31b611b109561016160f51b611b626127eb565b93611a5b565b6102199061022d926104558a613562565b6002966119c1565b60208091611b8e8461259e565b81520191019061197a565b61016036600319011261027e576001600160401b0360043581811161027e57611bc69036906004016123fb565b9060243590811161027e57611bdf903690600401612465565b3660a3121561027e57604051611bf48161231c565b80926101049136831161027e576084945b838610611c3b5750611c2b94506101443593610124359335926064359160443591612f19565b9061022d60405192839283612576565b8535815260209586019501611c05565b6101a036600319011261027e576001600160401b0360243581811161027e57611c7890369060040161238e565b9060443590811161027e57611c9190369060040161238e565b90611c9a6123d5565b5060c435151560c4350361027e5760405190611ce56020838351611cc3818484018588016122b9565b865190611cd7828583860101868b016122b9565b820101038085520183612352565b611d0061018435611cfb61012435600435612ea6565b612ea6565b91611d1b611d13610144356004356135aa565b600435612ea6565b90611d49611d35611d2f61014435876135aa565b86612ea6565b92611d44846101443592612ea6565b612ec6565b906001820182116118be57611d606001830161391d565b9460009360005b600185018110612150575050505050611d7f8161391d565b9260005b8281106121315750505060606000905b835182101561211957611da68285612e7c565b51611db381600435612ea6565b6064810290808205606414901517156118be57611dd49061012435906126e2565b90601d198212158061210e575b611df2575b50509060010190611d93565b611dfb9061451f565b91611e37602060405180958851611e1781858501868d016122b9565b8201611e2b825180938680850191016122b9565b01038086520184612352565b611e4660a43560843585613637565b611e4f846135b4565b61210657600019925b600084900b196120d757611e6d606491612622565b05935b611e7f60e43561010435612ea6565b91611e8c60843582612ea6565b806064810204606414811517156118be57611eb8906064611eb160843560a435612ea6565b9102612ec6565b9260c4351561204a575060e435606460e435020460641460e4351517156118be5761203860687f2266696c6c3d223c212d2d7264436f6c6f722d2d3e22207472616e73666f726d8c61204398600160fd1b60019b6705240e6c6c2d8ca560c31b611f5e610878610122611f54611f4e61203d9f611f4890611f436101043591606460e4350290612ed0565b612eb3565b96614688565b9c61451f565b9660000b85612699565b9361016160f51b6040519a8b9889986b3c75736520687265663d222360a01b60208b0152611f99602c9a8260208d94519485930191016122b9565b8a01988901526b07a44e8e4c2dce6d8c2e8ca560a31b604c890152605897611fca8251809360208c850191016122b9565b0196870152605a95611fe58251809360208a850191016122b9565b019485015260629361200082518093602088850191016122b9565b019283015260639161201b82518093602086850191016122b9565b019064149011179f60d91b90820152036048810184520182612352565b61406f565b90612edd565b9086611de6565b95946064848103116118be5760e435606460e435020460641460e4351517156118be5760687f2266696c6c3d223c212d2d7264436f6c6f722d2d3e22207472616e73666f726d8c61203893600160fd1b6120439a6705240e6c6c2d8ca560c31b611f5e61087860019f611f54611f4e61203d9f61012293611f43611f4892606460e4350290606403612ed0565b60008112606482810312811690606483810313901516176118be576120ff6064918203612622565b0593611e70565b600192611e58565b506082821315611de1565b61022d906040519182916020835260208301906122dc565b8061213e60019284612e7c565b516121498288612e7c565b5201611d83565b6121666121606101443583612eb3565b83612ed0565b61216f8161451f565b906121ac60206040518094895161218c818c8680870191016122b9565b82016121a0825180938680850191016122b9565b01038085520183612352565b610164356121b983613610565b106121c9575b5050600101611d67565b6121f36121e66121f9926121e061018435866135db565b90612ed0565b9261012435908190613637565b82612ed0565b6004358211159081612244575b508061223a575b612218575b806121bf565b61223287600193989261222c85948d612e7c565b52612f0a565b969150612212565b508381101561220d565b905060043511158b612206565b606036600319011261027e57602061102760443560243561227360043561451f565b613637565b61010036600319011261027e57600435600481101561027e5761021961022d9160e4359060c4359060a4359060843590606435906044359060243590612808565b60005b8381106122cc5750506000910152565b81810151838201526020016122bc565b906020916122f5815180928185528580860191016122b9565b601f01601f1916010190565b604081019081106001600160401b03821117610ade57604052565b608081019081106001600160401b03821117610ade57604052565b602081019081106001600160401b03821117610ade57604052565b90601f801991011681019081106001600160401b03821117610ade57604052565b6001600160401b038111610ade57601f01601f191660200190565b81601f8201121561027e578035906123a582612373565b926123b36040519485612352565b8284526020838301011161027e57816000926020809301838601378301015290565b60643590811515820361027e57565b6001600160401b038111610ade5760051b60200190565b9080601f8301121561027e576020908235612415816123e4565b936124236040519586612352565b81855260208086019260051b82010192831161027e57602001905b82821061244c575050505090565b813560ff8116810361027e57815290830190830161243e565b9080601f8301121561027e57813591602091612480846123e4565b936040916124916040519687612352565b818652848087019260051b8501019381851161027e57858101925b8584106124bd575050505050505090565b6001600160401b0390843582811161027e5783019060e080601f19848803011261027e57875193818501858110828211176125615789528a84013590811161027e57868b61250d9286010161238e565b8452878301358a8501526060928381013589860152608093848201359086015260a093848201359086015260c0938482013590860152013592600384101561027e57899384938201528152019301926124ac565b60246000634e487b7160e01b81526041600452fd5b909161258d61259b936040845260408401906122dc565b9160208184039101526122dc565b90565b35908160010b820361027e57565b604090600319011261027e576004359060243590565b9080601f8301121561027e5760209082356125dc816123e4565b936125ea6040519586612352565b81855260208086019260051b82010192831161027e57602001905b828210612613575050505090565b81358152908301908301612605565b9061043891808302928305036118be57565b9062a4cb80918281029281840514901517156118be57565b90670de0b6b3a7640000918281029281840514901517156118be57565b906702b965cf5968c00091808302928305036118be57565b90670d9fb2f2e000400091808302928305036118be57565b818102929160008212600160ff1b8214166118be5781840514901517156118be57565b80156126cc57640165a0bc000590565b634e487b7160e01b600052601260045260246000fd5b81156126cc57600160ff1b81146000198314166118be570590565b600160ff1b81146118be5760000390565b9081620927c0019182126001166118be57565b906236ee8091600083820193841291129080158216911516176118be57565b90620927c091600083820193841291129080158216911516176118be57565b919091600083820193841291129080158216911516176118be57565b818103929160001380158285131691841216176118be57565b604051906127a182612301565b60018252604760f81b6020830152565b604051906127be82612301565b60018252605360f81b6020830152565b604051906127db82612301565b60018252600360fc1b6020830152565b604051906127f882612301565b60018252603160f81b6020830152565b9596919290612816846126bc565b603a810290808205603a14901517156118be57612832816126fd565b86139081612e69575b5061285c575b505050505050505060405161285581612337565b6000815290565b612865916136b1565b620a2376811280612e5c575b61287b5780612841565b61289461288f62124f809299979899612740565b612634565b05926208d99f1984019384136001166118be5760646128c684620927c06128bf6128d0978596612699565b059061277b565b940593059361277b565b908560011b956002870581036118be5761270f1987019687136001166118be576208d9a09587878102058714881517156118be576004811015612e4657612e3357612925606461291e6127b1565b9405613fd8565b936116a897888401988912600085129080158216911516176118be57969761294c90613fd8565b9661296261087861295c84613fd8565b95613fd8565b61296a613e43565b612972613e43565b9161298e60405161298281612337565b6000815261203d61446f565b9b6129aa60405161299e81612337565b6000815261203d6144bb565b6002815110156129f9579c60029d6129f16040519182602091600360fc1b838301526129e1602193825192839186860191016122b9565b8101036001810184520182612352565b9d509c6129aa565b9495969798999a9b9c612710612a6d92612a5c60216064946040519a81612a2a8d93518092602080870191016122b9565b601760f91b60208285010152612a4b825180936020878588010191016122b9565b82010103600181018b520189612352565b612a64613e43565b98020505613fd8565b95611388881215612e2257611388612a836127eb565b985b1315612e1457612a936127eb565b985b612aba604051612aa481612301565b60018152602d60f81b602082015261203d61446f565b9d612aca60405161299e81612337565b600281511015612b1557604051809160208201600360fc1b905280519081602184019160200191612afa926122b9565b810103600181018252602101612b109082612352565b612aca565b9b9c9d9e6040519c818e92519081602085019160200191612b35926122b9565b820160208101601760f91b905281519182602183019160200191612b58926122b9565b0103600181018d52602101612b6d908d612352565b6040519d8e9d8e753c67206d61736b3d2275726c28236d6f6f6e4d61736b60501b602082015281519182603683019160200191612ba9926122b9565b01603681017f29223e3c70617468207472616e73666f726d3d22726f74617465280000000000905281519182605183019160200191612be7926122b9565b818101605101600160fd1b9052825192838383016052019160200191612c0c926122b9565b010160528101600160fd1b905281519182605383019160200191612c2f926122b9565b01605381017f2922207374726f6b653d2277686974652220736861706552656e646572696e679052607381017f3d2267656f6d6574726963507265636973696f6e222066696c6c3d22776869749052670329110321e9126960c51b609382015281519182609b83019160200191612ca5926122b9565b01609b8101600160fd1b905281519182609c83019160200191612cc7926122b9565b01609c81016201030960ed1b905281519182609f83019160200191612ceb926122b9565b01609f8101600160fd1b90528151918260a083019160200191612d0d926122b9565b0160a08101660101810181018960cd1b90528151918260a783019160200191612d35926122b9565b0160a7810164010181030960dd1b90528151918260ac83019160200191612d5b926122b9565b0160ac8101600160fd1b90528151918260ad83019160200191612d7d926122b9565b0160ad81016201018160ed1b90528151918260b083019160200191612da1926122b9565b0160b08101600160fd1b90528151918260b183019160200191612dc3926122b9565b0160b18101600160fd1b90528151918260b283019160200191612de5926122b9565b01701018103d111f1e17b830ba341f1e17b39f60791b60b28201520360a38101825260c30161259b9082612352565b612e1c6127ce565b98612a95565b611388612e2d6127ce565b98612a85565b6129256064612e40612794565b94610263565b634e487b7160e01b600052602160045260246000fd5b50620a2375198113612871565b612e73915061270e565b8513153861283b565b8051821015612e905760209160051b010190565b634e487b7160e01b600052603260045260246000fd5b919082039182116118be57565b818102929181159184041417156118be57565b81156126cc570490565b919082018092116118be57565b6020612efe91939293604051948161218c87935180928680870191016122b9565b565b60031115612e4657565b60001981146118be5760010190565b97929491969390959760e05260a0526080526060938051612f4a612f3c826123e4565b60405160c05260c051612352565b8060c05152612f5b601f19916123e4565b0160005b81811061352d575050604051612f7481612337565b60008152926000975b60e0515189101561341e57600097612fa460ff612f9c8c60e051612e7c565b511685612e7c565b5161010052612ffd8383612fc5612fba8b61451f565b610100515190612edd565b61010051606081015160208201516040830151608084015160a085015160c090950151959493909290612ff787612f00565b8a61394f565b9689965b885188101561340c5761302c613017898b612e7c565b51600060405161302681612337565b5261451f565b906130506020610100515193604051948161218c87935180928680870191016122b9565b61306a602060a05101516121e0606060a0510151856135db565b9b61308260a051516121e0604060a0510151866135db565b9061308c846135b4565b613402578d6001945b6101005151906130a48561451f565b916130ae8461451f565b6080516130bb908a612699565b6130c490613fd8565b6080516130d090613fd8565b91604051958694602086017f3c7573652066696c6c3d223c212d2d7264436f6c6f722d2d3e2220687265663d905261222360f01b6040870152604290805190818389019160200191613121926122b9565b86019081017604440e8e4c2dce6ccdee4da7a44e8e4c2dce6d8c2e8ca5604b1b9052605982519283828401916020019161315a926122b9565b82820101600b60fa1b905282519283838301605a01916020019161317d926122b9565b8282820101605a016705240e6c6c2d8ca560c31b905283519384848484010160620191602001916131ad926122b9565b600160fd1b8282018401850160628101919091528551956131d89187916063909101906020016122b9565b631491179f60e11b8585858585010101016063015201010101036047810183526067016132059083612352565b61320e9161406f565b6040519161321b83612301565b825260208201528160c0519061323091612e7c565b528060c0519061323f91612e7c565b5061324990612f0a565b9c6101005151936040519283602081019687815160208193019161326c926122b9565b810160208101642d6d61736b60d81b9052036005810185526025016132919085612352565b61329a9061451f565b916132a49061451f565b906080516132b191612699565b6132ba90613fd8565b906080516132c790613fd8565b926040519686889751908160208a0191602001916132e4926122b9565b87016b3c75736520687265663d222360a01b6020820152602c9651918288830161330d926122b9565b7f2266696c7465723d2275726c28236d616b65426c61636b2922207472616e73669101958601526f037b9369e913a3930b739b630ba3294160851b604c8601528051605c959091613366908390888401906020016122b9565b01938401600b60fa1b9052605d93815191828683019160200191613389926122b9565b019283016705240e6c6c2d8ca560c31b90526065928151918285830191602001916133b3926122b9565b01918201600160fd1b90526066918151918284830191602001916133d6926122b9565b0190631491179f60e11b9082015203604a81018252606a016133f89082612352565b9660010196613001565b8d60001994613095565b6001909b019a91995096509450612f7d565b50505093509193505060c0515160005b8181106134705750506000925b60c0515184101561346b57613463600191602061345a8760c051612e7c565b51015190612edd565b93019261343b565b925090565b9260009491945b6134818587612ea6565b60001981019081116118be57811015613520576134a08160c051612e7c565b515190600181018082116118be576001926134bd8260c051612e7c565b5151106134cc575b5001613477565b613519906134dc8360c051612e7c565b516134e98260c051612e7c565b516134f68560c051612e7c565b526135038460c051612e7c565b506135108260c051612e7c565b5260c051612e7c565b50386134c5565b509093909260010161342e565b6020906040999596939894995161354381612301565b60008152826060818301528260c0510101520197929691949397612f5f565b90612efe60276040518094633c212d2d60e01b602083015261358e8151809260206024860191016122b9565b81016216969f60e91b6024820152036007810185520183612352565b81156126cc570690565b6001906040516135d46020828161152481830196878151938492016122b9565b5190201690565b6040516135f86020828161152481830196878151938492016122b9565b51902090600181018091116118be5761259b916135aa565b6065906040516136306020828161152481830196878151938492016122b9565b5190200690565b8282116136825781613669916040516136606020828161152481830196878151938492016122b9565b51902093612ea6565b91600183018093116118be5761259b926121e0916135aa565b60405162461bcd60e51b81526020600482015260076024820152660dad2dc7cdac2f60cb1b6044820152606490fd5b906136d7906236ee80809107920791600092838112613739575b8382126137295761277b565b90621b77406136e583614851565b136136ee575090565b8082131561371f576236ee7f19820191821360011661370b575090565b634e487b7160e01b81526011600452602490fd5b5061259b90612721565b9061373390612721565b9061277b565b61374290612721565b6136cb565b9192613752836126bc565b605f810290808205605f14901517156118be5761376e816126fd565b8513908161390a575b5061378d575b5050505060405161285581612337565b613796916136b1565b90620ac4098212806138fd575b6137ad578061377d565b6064806137d883620927c06128bf608a9662124f806137d161288f61259b9b612740565b0599612699565b94059305926137e681613fd8565b906137f661295c61087887613fd8565b906040519586936f3c673e203c636972636c652063783d2760801b602086015261382a8151809260206030890191016122b9565b84019165272063793d2760d01b928360308201526138528251809360206036850191016122b9565b017f2720723d273538272066696c6c3d272366666627202f3e203c636972636c652060368201526363783d2760e01b605682015261389a825180936020605a850191016122b9565b0190605a8201526138b58251809360206060850191016122b9565b017f2720723d273935272066696c6c3d272366666627206f7061636974793d27302e606082015269191b1390179f1e17b39f60b11b608082015203606a810184520182612352565b50620ac4081982136137a3565b613914915061270e565b84131538613777565b90613927826123e4565b6139346040519182612352565b8281528092613945601f19916123e4565b0190602036910137565b93919790969295949861396683611cfb8988612ea6565b93859261397282612f00565b60028203613b08575b5050508061398c88613992936135aa565b90612ea6565b976139b487611d446139ad6139a783886135aa565b87612ea6565b809c612ea6565b95600198600188018098116118be576139cc8861391d565b9a6000998b8b8e5b8c8210613a2157505050505050505050505050506139f18161391d565b9260005b828110613a03575050505090565b80613a0f859284612e7c565b51613a1a8288612e7c565b52016139f5565b8b9089613a37613a318786612eb3565b88612ed0565b613a7e613a438261451f565b946040518096602092613a5e815180928680870191016122b9565b8201613a72825180938680850191016122b9565b01038087520185612352565b89898c613a8a87613610565b10613a9f575b505050505050018c908e6139d4565b613ab3612160936121e0613ab996896135db565b95613637565b8c808411159182613afd575b505080613af3575b613adb575b89828989613a90565b9061222c613aeb939f8093612e7c565b9b388f613ad2565b508a821015613acd565b101590508c38613ac5565b6001959193508692670de0b6b3a7640000918290049291900481613b2b86612f00565b60018614928380613c31575b15613c0257505082945b60018b1517156118be578a92613b5682612f00565b15613bb85750613b669250612ea6565b808211613bb0575b50808211613ba7575b909215613b865738808061397b565b505050505050505050604051613b9b81612337565b60008152600036813790565b60009350613b77565b905038613b6e565b9050613bc381612f00565b15613bd0575b5050613b77565b613bd991612ea6565b808611613bfa575b50808211613bf1575b3887613bc9565b60009350613bea565b905038613be1565b613c0d879297612f00565b8282159182613c27575b505015613b415794508094613b41565b1190508238613c17565b50848110613b37565b8015613d215760009081811380600114613cfa5715613cd4575b808002916001805b808211613c915750508082136001600160ff1b0384900483111661370b57808212600160ff1b84900583121661370b57500290565b90936001600160ff1b038190048111613cc057818516613cb7575b800293811c90613c5c565b80930292613cac565b634e487b7160e01b83526011600452602483fd5b6001600160ff1b03819005811215613c5457634e487b7160e01b82526011600452602482fd5b506001600160ff1b03819004811115613c5457634e487b7160e01b82526011600452602482fd5b50600090565b600080821292909183613e35575b6305f5e10090838282019283129112908015821691151617613cc057828212613def5781613d7b82613d75613d70613d8195613dbd9761277b565b61264c565b9261275f565b906126e2565b670de0b6b3a76400006128bf760a70c3c40a64e6c51999090b65f67d9240000000000000613db6613db185613c3a565b612669565b0592612681565b90670ae64b77e88c92859181838201938412911290801582169115161761370b5750905b1561259b5761259b906126fd565b80613d7b83613e07613d70613d8195613e0d9761275f565b9261277b565b906720b2e267b9a5b78f9181838201938412911290801582169115161761370b575090613de1565b613e3e906126fd565b613d35565b604090815191613e5283612337565b600083528051603a93613e6482612301565b60029160028152602095863681840137602282015b6000190190600a906f181899199a1a9b1b9c1cb0b131b232b360811b8282061a8353049081613e79575050613ead91612edd565b918051613eb981612337565b600081526000825193613ecb85612301565b600194859360018252893681840137602193828501865b613f9a575b505090613ef391612edd565b945b613f4a575b50505091602191613f3b949561259b94519583613f2088955180928580890191016122b9565b840191601760f91b81840152835193849187850191016122b9565b01036001810184520182612352565b9091938181511015613f9457908491613f8c8486518093600360fc1b8d830152613f7d8d825192839186860191016122b9565b81010385810184520182612352565b949291613ef5565b93613efa565b9495946000190190600a906f181899199a1a9b1b9c1cb0b131b232b360811b8282061a83530490858215613fcf579695613ee2565b50959495613ee7565b613ff8613ff26064613feb818507614851565b9305614688565b91614688565b6002815110156140305761402b6040519182602091600360fc1b838301526129e1602193825192839186860191016122b9565b613ff8565b90602161259b9160405193816140508693518092602080870191016122b9565b8201601760f91b6020820152613f3b82518093602087850191016122b9565b9190604090601182519160209261409584828161152481830196878151938492016122b9565b519020069382519461022086018681106001600160401b03821117610ade578085526140c081612301565b600481526311b3333360e11b610240880152865283516140df81612301565b600790818152660236462643865360cc1b8582015284880152845161410381612301565b818152662336383431393360c81b8582015285880152845161412481612301565b818152662365336363653560c81b858201526060880152845161414681612301565b818152662366666636636360c81b858201526080880152845161416881612301565b8181526608cd8d0e4d8c8d60ca1b8582015260a0880152845161418a81612301565b818152662339626232323160c81b8582015260c088015284516141ac81612301565b818152662363336431376360c81b8582015260e088015284516141ce81612301565b818152660236666643730360cc1b8582015261010088015284516141f181612301565b8181526611b333329b9b1b60c91b85820152610120880152845161421481612301565b818152662366636438393960c81b85820152610140880152845161423781612301565b8181526608d98c8e4c4c0d60ca1b85820152610160880152845161425a81612301565b818152662365363334326160c81b85820152610180880152845161427d81612301565b818152662365393466316360c81b858201526101a088015284516142a081612301565b818152662362653138323360c81b858201526101c088015284516142c381612301565b8181526608d8584dcc0ccd60ca1b858201526101e08801528451906142e782612301565b81526611b29c9a3298b160c91b84820152610200870152601181101561433c5761259b94956d1e109696b93221b7b637b916969f60911b9160051b015193519261433084612301565b600e84528301526146db565b835162461bcd60e51b815260048101849052600c60248201526b0deeae840decc40d2dcc8caf60a31b6044820152606490fd5b90602491631e17b39f60e11b612efe94969560405197889460209461439c8151809288808b0191016122b9565b86016143b0825180938880850191016122b9565b016143c3825180938780850191016122b9565b016143d6825180938680850191016122b9565b0191820152036004810185520183612352565b90612efe6023604051846144078296518092602080860191016122b9565b81016264656760e81b6020820152036003810185520183612352565b6040519061443082612301565b600a8252691e109696b0bd3496969f60b11b6020830152565b6040519061445682612301565b600a8252691e109696b0b63a16969f60b11b6020830152565b604051607461447d82612301565b6003825260203681840137602382015b6000190190600a906f181899199a1a9b1b9c1cb0b131b232b360811b8282061a835304908161448d57505090565b60405160006144c982612301565b600190600183526020368185013760218301825b6144e8575b50505090565b6000190190600a906f181899199a1a9b1b9c1cb0b131b232b360811b8282061a83530491821561451a579190826144dd565b6144e2565b806000917a184f03e93ff9f4daa797ed6e38ed64bf6a1f0100000000000000008082101561467a575b506d04ee2d6d415b85acef81000000008083101561466b575b50662386f26fc100008083101561465c575b506305f5e1008083101561464d575b506127108083101561463e575b50606482101561462e575b600a80921015614624575b60019081602160018601956145b987612373565b966145c76040519889612352565b8088526145d6601f1991612373565b01366020890137860101905b6145ee575b5050505090565b600019019083906f181899199a1a9b1b9c1cb0b131b232b360811b8282061a83530491821561461f579190826145e2565b6145e7565b91600101916145a5565b919060646002910491019161459a565b6004919392049101913861458f565b60089193920491019138614582565b60109193920491019138614573565b60209193920491019138614561565b604093508104915038614548565b61259b9061203d6000821291826000146146c5576040516146a881612301565b60018152602d60f81b6020820152925b1561451f5760000361451f565b6040516146d181612337565b60008152926146b8565b9092919281908251928151865193602097888080950195019087856040510193019385850198811115614752575b5050508394508095939160405195869103910301945b8382106147435750506000848401968701525050603f909301601f19166040528252565b8151815290820190820161471f565b90919293959450602181870301968a600093600082851015614848575b601f859998979916830360031b9851965b88518881188b1c156147bc57815260018091019801988b8a10156147a6575b9897614780565b505050959750505050509183925b388080614709565b918497949598919a92819d94979a9c9d614801575b50505050505b818184010151818801520190838210156147f3579082906147d7565b5050920192019283926147b4565b90809293949596508a8d2003614819578795946147d1565b8a9192989597949c9b9996939a5260018091019801988b8a1061479f57505050959750505050509183926147b4565b5083862061476f565b6000811261485c5790565b61259b906126fd56fea264697066735822122047a8a54fddff4d2e79ef7f19fe76b7445aebc03dfe837f1b0ec35f1b5f7d95e364736f6c63430008190033","linkReferences":{}},"methodIdentifiers":{"adjustTimeStampsForAssetVisibility(uint256,uint256,uint256,uint256,DAYTIME,uint256,uint256)":"9163cba5","applyNight(int256,MotifType)":"fecb0d4f","computeStarttime(uint256,uint256,uint256,uint256,uint256,uint256,string,DAYTIME,uint256,uint256)":"a40e9e9e","generateClouds(int256,uint256)":"4b54268f","getDiffAngle(int256,int256)":"88134137","p_atan2(int256,int256)":"b4ce66db","randomNum(string,uint256,uint256)":"8587a4a5","randomNum(uint256,uint256,uint256)":"28294640","renderDecimal(int256)":"b8d22c58","renderFlower(string,int256,int256,int256,FlowerType,string,string,string,string,bool)":"d79783a7","renderMainScene(string,uint256,uint256,SceneInMotif[],AssetInScene[],uint256,uint256)":"b057948e","renderMoon(MotifType,int256,int256,int256,int256,int256,int256,int256)":"07704b93","renderMovingAsset(uint256,string,string,bool,uint256,uint256,bool,uint256,uint256,uint256,uint256,uint256,uint256)":"3235ac6d","renderReplacements(string,Replacement[])":"c2209fb9","renderSceneAssets(uint8[],AssetInScene[],uint256,uint256,int256[4],uint256,uint256,uint256)":"366a3018","renderSun(uint256,int256,int256,uint256)":"955cb78f","setRandomColor(string,string)":"c528fb33","setUseRotations(string,string,int256[],int16[2])":"d8ce367a","setUseTags(string,string,int16[],bool,string)":"3899f054"},"id":6}