{"abi":[{"type":"function","name":"findClosestPathToDistance","inputs":[{"name":"locations","type":"tuple[]","internalType":"struct Seaports.Location[]","components":[{"name":"code","type":"string","internalType":"string"},{"name":"lat","type":"int256","internalType":"int256"},{"name":"lng","type":"int256","internalType":"int256"},{"name":"heading","type":"int256","internalType":"int256"},{"name":"isLeftSided","type":"bool","internalType":"bool"},{"name":"neighbours","type":"uint256[]","internalType":"uint256[]"}]},{"name":"startIndex","type":"uint256","internalType":"uint256"},{"name":"endIndex","type":"uint256","internalType":"uint256"},{"name":"maxDistance","type":"uint256","internalType":"uint256"}],"outputs":[{"name":"","type":"tuple","internalType":"struct NDAlgos.BestPath","components":[{"name":"path","type":"uint256[]","internalType":"uint256[]"},{"name":"distance","type":"uint256","internalType":"uint256"},{"name":"distances","type":"uint256[]","internalType":"uint256[]"}]}],"stateMutability":"view"},{"type":"function","name":"getAngleOfCoords","inputs":[{"name":"lat1","type":"int256","internalType":"int256"},{"name":"lng1","type":"int256","internalType":"int256"},{"name":"lat2","type":"int256","internalType":"int256"},{"name":"lng2","type":"int256","internalType":"int256"}],"outputs":[{"name":"","type":"int256","internalType":"int256"}],"stateMutability":"pure"},{"type":"function","name":"getCoordsOfMovingObject","inputs":[{"name":"lat1","type":"int256","internalType":"int256"},{"name":"lon1","type":"int256","internalType":"int256"},{"name":"lat2","type":"int256","internalType":"int256"},{"name":"lon2","type":"int256","internalType":"int256"},{"name":"elapsedTime","type":"int256","internalType":"int256"},{"name":"speed","type":"int256","internalType":"int256"}],"outputs":[{"name":"","type":"int256","internalType":"int256"},{"name":"","type":"int256","internalType":"int256"},{"name":"","type":"int256","internalType":"int256"}],"stateMutability":"pure"},{"type":"function","name":"getDistance","inputs":[{"name":"lat1","type":"int256","internalType":"int256"},{"name":"lng1","type":"int256","internalType":"int256"},{"name":"lat2","type":"int256","internalType":"int256"},{"name":"lng2","type":"int256","internalType":"int256"}],"outputs":[{"name":"","type":"int256","internalType":"int256"}],"stateMutability":"pure"},{"type":"function","name":"p_atan2","inputs":[{"name":"y","type":"int256","internalType":"int256"},{"name":"x","type":"int256","internalType":"int256"}],"outputs":[{"name":"T","type":"int256","internalType":"int256"}],"stateMutability":"pure"},{"type":"error","name":"PRBMath_MulDiv18_Overflow","inputs":[{"name":"x","type":"uint256","internalType":"uint256"},{"name":"y","type":"uint256","internalType":"uint256"}]},{"type":"error","name":"PRBMath_MulDiv_Overflow","inputs":[{"name":"x","type":"uint256","internalType":"uint256"},{"name":"y","type":"uint256","internalType":"uint256"},{"name":"denominator","type":"uint256","internalType":"uint256"}]},{"type":"error","name":"PRBMath_SD59x18_Div_InputTooSmall","inputs":[]},{"type":"error","name":"PRBMath_SD59x18_Div_Overflow","inputs":[{"name":"x","type":"int256","internalType":"SD59x18"},{"name":"y","type":"int256","internalType":"SD59x18"}]},{"type":"error","name":"PRBMath_SD59x18_Mul_InputTooSmall","inputs":[]},{"type":"error","name":"PRBMath_SD59x18_Mul_Overflow","inputs":[{"name":"x","type":"int256","internalType":"SD59x18"},{"name":"y","type":"int256","internalType":"SD59x18"}]},{"type":"error","name":"PRBMath_SD59x18_Sqrt_NegativeInput","inputs":[{"name":"x","type":"int256","internalType":"SD59x18"}]},{"type":"error","name":"PRBMath_SD59x18_Sqrt_Overflow","inputs":[{"name":"x","type":"int256","internalType":"SD59x18"}]}],"bytecode":{"object":"0x60808060405234601957611baa908161001f823930815050f35b600080fdfe6080604052600436101561001257600080fd5b60003560e01c80632098a22a146100675780634fa687fb146100625780636833e5e51461005d5780636b02c5ec146100585763b4ce66db1461005357600080fd5b610731565b610712565b610524565b610404565b61007036610194565b61007a8483610786565b6100839061079f565b9261008d91610786565b6100969061079f565b91600290056100a481610d25565b906100ae90610d25565b6100b791610851565b670de0b6b3a76400009005926100cc90610d50565b906100d690610d50565b6100df91610851565b9060029005906100ee82610d25565b6100f791610851565b9061010190610d25565b61010a91610851565b751aba4714957d300d0e549208b31adb10000000000000900561012c916109a4565b61013581610d91565b90670de0b6b3a764000081810391600013801582841316918312161761018f5761017661017161018b9361016b61017b94610d91565b90610c3d565b6107bd565b6107ce565b6040519081529081906020820190565b0390f35b61074d565b60809060031901126101b25760043590602435906044359060643590565b600080fd5b634e487b7160e01b600052604160045260246000fd5b6040519060c0820182811067ffffffffffffffff8211176101ed57604052565b6101b7565b604051906060820182811067ffffffffffffffff8211176101ed57604052565b604051906020820182811067ffffffffffffffff8211176101ed57604052565b604051906103e0820182811067ffffffffffffffff8211176101ed57604052565b604051906104c0820182811067ffffffffffffffff8211176101ed57604052565b60405190610440820182811067ffffffffffffffff8211176101ed57604052565b6040519190601f01601f1916820167ffffffffffffffff8111838210176101ed57604052565b67ffffffffffffffff81116101ed5760051b60200190565b81601f820112156101b25780359067ffffffffffffffff82116101ed57610303601f8301601f1916602001610295565b92828452602083830101116101b257816000926020809301838601378301015290565b359081151582036101b257565b9080601f830112156101b2576020908235610355610350826102bb565b610295565b9360208086848152019260051b8201019283116101b257602001905b82821061037f575050505090565b81358152908301908301610371565b90815180825260208080930193019160005b8281106103ae575050505090565b8351855293810193928101926001016103a0565b90610401916020815260406103e3835160606020850152608084019061038e565b926020810151828401520151906060601f198285030191015261038e565b90565b6080806003193601126101b25767ffffffffffffffff6004358181116101b257366023820112156101b2576024906004810135610443610350826102bb565b9485948287528460208098019360051b850101933685116101b257858101935b85851061048a5761018b61047e6064356044358a358c610a43565b604051918291826103c2565b84358381116101b257820160c060231982360301126101b2576104ab6101cd565b91888201358581116101b2576104c6908a36918501016102d3565b835260448201358b84015260648201356040840152608482013560608401526104f160a48301610326565b8684015260c4820135928584116101b2576105148c94938b869536920101610333565b60a0820152815201940193610463565b60c03660031901126101b25761053e60843560a435610851565b6236ee80900561054f6004356107e8565b670de0b6b3a76400009005906105666024356107e8565b670de0b6b3a7640000900561057c6044356107e8565b670de0b6b3a764000090056105926064356107e8565b670de0b6b3a764000090056105a8918386610aef565b916105b284610d25565b906901595f62d8fecdac00009005906105ca82610d50565b6105d391610851565b670de0b6b3a764000090056105e785610d50565b6105f083610d25565b6105f991610851565b61060285610d50565b61060b91610851565b6ec097ce7bc90715b34b9f10000000009005610626916109a4565b61062f9061102d565b9361063984610d25565b61064283610d25565b61064b91610851565b61065482610d50565b61065d91610851565b6ec097ce7bc90715b34b9f100000000090059161067990610d50565b9061068390610d25565b61068c86610d25565b61069591610851565b670de0b6b3a764000090056106a991610786565b6106b291610c3d565b6106bb916109a4565b916106c59061079f565b670de0b6b3a76400009005916106da9061079f565b670de0b6b3a76400009005906106ef9061079f565b670de0b6b3a7640000900560408051938452602084019290925290820152606090f35b602061072961072036610194565b92919091610aef565b604051908152f35b60403660031901126101b2576020610729602435600435610c3d565b634e487b7160e01b600052601160045260246000fd5b906715cc96efd11924eb6000838203931281841281169184139015161761018f57565b8181039291600013801582851316918412161761018f57565b9068031b237fe6b6d8e0009182810292818405149015171561018f57565b908160011b91600283050361018f57565b906901595f62d8fecdac0000918083029283050361018f57565b90663e01ad54cfec809182810292818405149015171561018f57565b90670de0b6b3a76400009182810292818405149015171561018f57565b906702b965cf5968c000918083029283050361018f57565b90670d9fb2f2e0004000918083029283050361018f57565b818102929160008212600160ff1b82141661018f57818405149015171561018f57565b634e487b7160e01b600052601260045260246000fd5b81156108a557600160ff1b811460001983141661018f570590565b610874565b906305f5e100916000838201938412911290801582169115161761018f57565b90670ae64b77e88c9285916000838201938412911290801582169115161761018f57565b9081670107d3fc6daa50000191821260011661018f57565b90816702f194ec47bebfff19019182121560011661018f57565b90816715cc59858279c0000191821260011661018f57565b908167010a741a462780000191821260011661018f57565b90816702501e734690aaaa0191821260011661018f57565b9081670de0b6b3a76400000191821260011661018f57565b906720b2e267b9a5b78f916000838201938412911290801582169115161761018f57565b9190916000838201938412911290801582169115161761018f57565b6109c86101f2565b90606082526000602083015260606040830152565b6109e5610212565b60008152906000368137565b906109fe610350836102bb565b8281528092610a0f601f19916102bb565b0190602036910137565b8051821015610a2d5760209160051b010190565b634e487b7160e01b600052603260045260246000fd5b919091610a4e6109c0565b506040519061066082019382851067ffffffffffffffff8611176101ed57600080926104019660405260328552610640366020870137610a8c610212565b97828952610a986101f2565b98899687528360208801526040870152610ab0610232565b96601e88526103c03660208a0137610ac6610253565b94602586526104a03660208801376001610ae08288610a19565b52610ae96109dd565b93610f10565b6ec097ce7bc90715b34b9f1000000000610b6b610b4794610b41610b65610b1c61016b976104019a610786565b92610b41610b65610b2c86610d25565b670de0b6b3a76400009b8c91610b4186610d50565b90610851565b059a610b5e610b558b610d50565b610b4186610d25565b0598610d25565b91610d50565b0590610786565b600160ff1b811461018f5760000390565b8015610c37576000811380600114610c1f5715610c08575b808002906001805b808211610bd9575050600081136001600160ff1b0383900482111661018f5760008112600160ff1b83900582121661018f570290565b90926001600160ff1b03819004811161018f57818416610bff575b800292811c90610ba3565b80920291610bf4565b6001600160ff1b03819005811215610b9b5761074d565b506001600160ff1b03819004811115610b9b5761074d565b50600090565b600081129190610c519083610d17576108aa565b60008212610ceb57610c8582610c7f83610c79610c74610cd696610cdb98610786565b610804565b926109a4565b9061088a565b610cd0610cc2610cbc610c9f610c9a85610b83565b610821565b760a70c3c40a64e6c51999090b65f67d9240000000000000900590565b92610839565b670de0b6b3a7640000900590565b90610786565b6108ca565b905b156104015761040190610b72565b610c8581610c7f84610d06610c74610d0c96610d11986109a4565b92610786565b610980565b90610cdd565b610d2090610b72565b6108aa565b6000811215610d4757610d42610d3d61040192610b72565b6115c9565b610b72565b610401906115c9565b6000811215610d74576715cc96efd11924eb610d6e61040192610b72565b016115c9565b6715cc96efd11924eb61040191016115c9565b81156108a5570490565b908115610ec357600182600160801b811015610eb1575b610e4a610e40610e36610e2c610e22610e18610e5b97600488600160401b610e549a1015610ea4575b640100000000811015610e97575b62010000811015610e8a575b610100811015610e7e575b6010811015610e72575b1015610e6a575b610e11818c610d87565b0160011c90565b610e11818b610d87565b610e11818a610d87565b610e118189610d87565b610e118188610d87565b610e118187610d87565b610e118186610d87565b8093610d87565b80831015610e665750565b9150565b60011b610e07565b811c9160021b91610e00565b60081c91811b91610df6565b60101c9160081b91610deb565b60201c9160101b91610ddf565b60401c9160201b91610dd1565b50600160401b9050608083901c610da8565b60009150565b600019811461018f5760010190565b906001820180921161018f57565b906064820180921161018f57565b60001981019190821161018f57565b801561018f576000190190565b9499989693929190959787610f2a9186858e88878d611665565b969061102057610f3a9086610a19565b5160a0019860005b8a5180518210156110115781610f5791610a19565b516001610f64828d610a19565b511115610f75575b50600101610f42565b9b878a8a8f8e8b8b8b8885610f8b8e9b85610a19565b52610f9590610ec9565b988993610fa28787610a19565b51610fac90610ed8565b610fb68888610a19565b52610fc085610ef4565b610fca908a610a19565b60649052610fd790610ee6565b95610fe199610f10565b610fea90610f03565b9b610ff5818c610a19565b51610fff90610ef4565b9061100a908c610a19565b5238610f6c565b50509950505050505050505050565b5050505050505050509050565b670de0b6b3a763ffff19811215806110c5575b15611080576000811290811561107b5761105990610b72565b6706a50a102e75000081121561107257610cdb9061181b565b610d1190611757565b611059565b60405162461bcd60e51b815260206004820152601b60248201527f496e7665727365547269676f6e6f6d657472793a20444f4d41494e00000000006044820152606490fd5b50670de0b6b3a7640000811315611040565b6110df610274565b61040481527ac90f8801921d20025b26d703242abf03ed26e604b6195d057f003560208201527f0647d97c0710a34507d95b9e08a2009a096a90490a3308bc0afb68050bc3ac3560408201527f0c8bd35e0d53db920e1bc2e40ee387660fab272b1072a0481139f0cf120116d560608201527f12c8106e138edbb1145576b1151bdf8515e2144416a81305176dd9de183366e860808201527f18f8b83c19bdcbf31a82a0251b4732ef1c0b826a1ccf8cb31d934fe51e56ca1e60a08201527f1f19f97b1fdcdc1b209f701c2161b39f2223a4c522e541af23a6887e2467775760c08201527f25280c5d25e845b626a8218527679df42826b92828e5714a29a3c4852a61b10160e08201527f2b1f34eb2bdc4e6f2c98fbba2d553afb2e110a622ecc681e2f8752623041c7606101008201527f30fbc54d31b54a5d326e54c73326e2c233def2873496824f354d905636041ad96101208201527f36ba2013376f9e46382493b038d8fe93398cdd323a402dd13af2eeb73ba51e296101408201527f3c56ba703d07c1d53db832a53e680b2c3f1749b73fc5ec974073f21d4121589a6101608201527f41ce1e64427a41d04325c13543d09aec447acd50452456bc45cd358f467568276101808201527f471cece647c3c22e4869e664490f57ee49b415334a581c9d4afb6c974b9e038f6101a08201527f4c3fdff34ce100344d8162c34e2106174ebfe8a44f5e08e24ffb654c5097fc5e6101c08201527f5133cc9451ced46e5269126e53028517539b2aef5433027d54ca0a4a556040e26101e08201527f55f5a4d2568a34a9571deef957b0d2555842dd5458d40e8c5964649759f3de126102008201527f5a8279995b1035ce5b9d11535c290acc5cb420df5d3e52365dc79d7b5e50015d6102208201527f5ed77c895f5e0db25fe3b38d60686cce60ec382f616f146b61f1003e6271fa686102408201527f62f201ac637114cc63ef328f646c59bf64e889256563bf9165ddfbd266573cbb6102608201527f66cf811f6746c7d767bd0fbc683257aa68a69e806919e31f698c246b69fd614a6102808201527f6a6d98a36adcc9646b4af2786bb812d06c24295f6c8f351b6cf934fb6d6227f96102a08201527f6dca0d146e30e3496e96a99c6efb5f116f5f02b16fc1938470231099708378fe6102c08201527f70e2cbc571410804719e2cd171fa394872552c8472af05a67307c3cf735f66256102e08201527f73b5ebd0740b53fa745f9dd074b2c8837504d3447555bd4b75a585ce75f42c0a6103008201527f7641af3c768e0ea576d9498877235f2c776c4eda77b417df77fab988784033286103208201527f7884841378c7aba17909a92c794a7c11798a23b079c89f6d7a05eeac7a4210d86103408201527f7a7d055a7ab6cba37aef63237b26cb4e7b5d039d7b920b887bc5e28f7bf8882f6103608201527f7c29fbed7c5a3d4f7c894bdd7cb727237ce3ceb17d0f42177d3980eb7d628ac56103808201527f7d8a5f3f7db0fdf77dd6668e7dfa98a77e1d93e97e3f57fe7e5fe4927e7f39566103a08201527f7e9d55fb7eba3a387ed5e5c57ef0585f7f0991c37f2191b37f3857f57f4de4506103c08201527f7f62368e7f754e7f7f872bf27f97cebc7fa736b37fb563b27fc255957fce0c3d6103e08201527f7fd8878d7fe1c76a7fe9cbbf7ff094777ff621817ffa72d07ffd88597fff6215610400820152637fffffff60e01b61042082015290565b670de0b6b3a7640000637fffffff916757325bbf446493ac809106601e1b0460ff8160141c16631000000082161590811561165d575b60026116096110d7565b910160021b015163ffffffff808260201c16911661ffff8460041c168282030260101c926000146116555750015b632000000081921661164a575b50020590565b905060000338611644565b905003611637565b60ff036115ff565b90919597969492936116756109c0565b50831161174b571461168c575b5050505060009190565b8015158061172b575b15611682576116bc916116b79160208801526116b0816109f1565b8752610ef4565b6109f1565b926040850193845260005b83518110156116f057806116dd60019286610a19565b516116e9828951610a19565b52016116c7565b509291509260005b8451811015611721578061170e60019287610a19565b5161171a828651610a19565b52016116f8565b5092505060019190565b5060208601518015908115611741575b50611695565b905081103861173b565b50505050505060019190565b670de0b6b3a7640000818103600083128282128116908383139015161761018f5760008112611803577809392ee8e921d5d073aff322e62439fcf32d7f344649470f9081136117eb57916117db6117e16117b86117e6946104019602610d91565b926117db6117d66117d06117cb846118e6565b6108ee565b83611973565b610906565b90611973565b610920565b610763565b6024906040519063063103bf60e01b82526004820152fd5b6024906040519063b9b0f49b60e01b82526004820152fd5b906118268280611973565b91600160ff1b831480156118de575b6118cc5760008312156118c35761184e83600003611a02565b6001600160ff1b03811161189d5761189061040193946117db61188b6117d06117db95600019669e9a7129c22db686181360001461189557610938565b610950565b610968565b600003610938565b60405163120b5b4360e01b815260048101859052669e9a7129c22db66024820152604490fd5b61184e83611a02565b60405163a6070c2560e01b8152600490fd5b506000611835565b600160ff1b8114801561196b575b6118cc5760008112156119625761190d81600003611a9f565b906001600160ff1b03821161193a5760001966428a32f96447ff1990911813156119345790565b60000390565b60405163120b5b4360e01b8152600481019190915266428a32f96447ff196024820152604490fd5b61190d81611a9f565b5060006118f4565b600160ff1b8181149081156119f8575b506118cc5760008112156119ef576119ac816000035b60008412156119e8578360000390611b0d565b916001600160ff1b0383116119c957600019911813156119345790565b60405163120b5b4360e01b815260048101929092526024820152604490fd5b8390611b0d565b6119ac81611999565b9050821438611983565b669e9a7129c22db6919060001983820983820291828083109203918083039214611a8e57670de0b6b3a76400009081831015611a7057947faccb18165bd6fe31ae1cf318dc5b51eee0e1ba569b88cd74c1773b91fac1066994950990828211900360ee1b910360121c170290565b6044908660405191635173648d60e01b835260048301526024820152fd5b5050670de0b6b3a764000090049150565b66428a32f9644800919060001983820983820291828083109203918083039214611a8e57670de0b6b3a76400009081831015611a7057947faccb18165bd6fe31ae1cf318dc5b51eee0e1ba569b88cd74c1773b91fac1066994950990828211900360ee1b910360121c170290565b90919060001983820983820291828083109203918083039214611a8e57670de0b6b3a76400009081831015611a7057947faccb18165bd6fe31ae1cf318dc5b51eee0e1ba569b88cd74c1773b91fac1066994950990828211900360ee1b910360121c17029056fea26469706673582212207b66b16f876b4d6b39335da09e39e86a2e448b845677f6d7d80cfd88c725b91164736f6c63430008190033","linkReferences":{}},"methodIdentifiers":{"findClosestPathToDistance(Seaports.Location[],uint256,uint256,uint256)":"4fa687fb","getAngleOfCoords(int256,int256,int256,int256)":"6b02c5ec","getCoordsOfMovingObject(int256,int256,int256,int256,int256,int256)":"6833e5e5","getDistance(int256,int256,int256,int256)":"2098a22a","p_atan2(int256,int256)":"b4ce66db"},"id":3}