{"abi":[{"type":"function","name":"algo1","inputs":[{"name":"_t","type":"int256","internalType":"int256"},{"name":"te","type":"int256","internalType":"int256"},{"name":"_longitude","type":"int256","internalType":"int256"}],"outputs":[{"name":"","type":"int256","internalType":"int256"},{"name":"","type":"int256","internalType":"int256"}],"stateMutability":"pure"},{"type":"function","name":"altitude","inputs":[{"name":"H","type":"uint256","internalType":"uint256"},{"name":"phi","type":"uint256","internalType":"uint256"},{"name":"dec","type":"uint256","internalType":"uint256"}],"outputs":[{"name":"","type":"int256","internalType":"int256"}],"stateMutability":"pure"},{"type":"function","name":"azimuth","inputs":[{"name":"H","type":"int256","internalType":"int256"},{"name":"phi","type":"uint256","internalType":"uint256"},{"name":"dec","type":"int256","internalType":"int256"}],"outputs":[{"name":"","type":"int256","internalType":"int256"}],"stateMutability":"pure"},{"type":"function","name":"azimuthZenit","inputs":[{"name":"lat_rad","type":"int256","internalType":"int256"},{"name":"hourAngle","type":"int256","internalType":"int256"},{"name":"declination","type":"int256","internalType":"int256"}],"outputs":[{"name":"","type":"int256","internalType":"int256"},{"name":"","type":"int256","internalType":"int256"}],"stateMutability":"pure"},{"type":"function","name":"calcT","inputs":[{"name":"_timestamp","type":"uint256","internalType":"uint256"}],"outputs":[{"name":"","type":"int256","internalType":"int256"}],"stateMutability":"pure"},{"type":"function","name":"calculateSolarPosition","inputs":[{"name":"_latitude","type":"int256","internalType":"int256"},{"name":"_longitude","type":"int256","internalType":"int256"}],"outputs":[{"name":"","type":"int256","internalType":"int256"},{"name":"","type":"int256","internalType":"int256"}],"stateMutability":"view"},{"type":"function","name":"declinationMoon","inputs":[{"name":"l","type":"uint256","internalType":"uint256"},{"name":"b","type":"uint256","internalType":"uint256"}],"outputs":[{"name":"","type":"int256","internalType":"int256"}],"stateMutability":"pure"},{"type":"function","name":"deltaT","inputs":[{"name":"_timestamp","type":"uint256","internalType":"uint256"}],"outputs":[{"name":"","type":"uint256","internalType":"uint256"}],"stateMutability":"pure"},{"type":"function","name":"getMoonPosition","inputs":[{"name":"lat","type":"uint256","internalType":"uint256"},{"name":"lng","type":"uint256","internalType":"uint256"},{"name":"timestamp","type":"uint256","internalType":"uint256"}],"outputs":[{"name":"","type":"int256","internalType":"int256"},{"name":"","type":"int256","internalType":"int256"}],"stateMutability":"pure"},{"type":"function","name":"moonCoords","inputs":[{"name":"d","type":"uint256","internalType":"uint256"}],"outputs":[{"name":"","type":"int256","internalType":"int256"},{"name":"","type":"int256","internalType":"int256"},{"name":"","type":"uint256","internalType":"uint256"}],"stateMutability":"pure"},{"type":"function","name":"p_atan2","inputs":[{"name":"y","type":"int256","internalType":"int256"},{"name":"x","type":"int256","internalType":"int256"}],"outputs":[{"name":"T","type":"int256","internalType":"int256"}],"stateMutability":"pure"},{"type":"function","name":"rightAscensionMoon","inputs":[{"name":"l","type":"uint256","internalType":"uint256"},{"name":"b","type":"uint256","internalType":"uint256"}],"outputs":[{"name":"","type":"int256","internalType":"int256"}],"stateMutability":"pure"},{"type":"function","name":"sideRealTime","inputs":[{"name":"d","type":"uint256","internalType":"uint256"},{"name":"lw","type":"int256","internalType":"int256"}],"outputs":[{"name":"","type":"int256","internalType":"int256"}],"stateMutability":"pure"},{"type":"function","name":"tan","inputs":[{"name":"x","type":"uint256","internalType":"uint256"}],"outputs":[{"name":"","type":"int256","internalType":"int256"}],"stateMutability":"pure"},{"type":"error","name":"PRBMath_MulDiv18_Overflow","inputs":[{"name":"x","type":"uint256","internalType":"uint256"},{"name":"y","type":"uint256","internalType":"uint256"}]},{"type":"error","name":"PRBMath_MulDiv_Overflow","inputs":[{"name":"x","type":"uint256","internalType":"uint256"},{"name":"y","type":"uint256","internalType":"uint256"},{"name":"denominator","type":"uint256","internalType":"uint256"}]},{"type":"error","name":"PRBMath_SD59x18_Div_InputTooSmall","inputs":[]},{"type":"error","name":"PRBMath_SD59x18_Div_Overflow","inputs":[{"name":"x","type":"int256","internalType":"SD59x18"},{"name":"y","type":"int256","internalType":"SD59x18"}]},{"type":"error","name":"PRBMath_SD59x18_Mul_InputTooSmall","inputs":[]},{"type":"error","name":"PRBMath_SD59x18_Mul_Overflow","inputs":[{"name":"x","type":"int256","internalType":"SD59x18"},{"name":"y","type":"int256","internalType":"SD59x18"}]},{"type":"error","name":"PRBMath_SD59x18_Sqrt_NegativeInput","inputs":[{"name":"x","type":"int256","internalType":"SD59x18"}]},{"type":"error","name":"PRBMath_SD59x18_Sqrt_Overflow","inputs":[{"name":"x","type":"int256","internalType":"SD59x18"}]}],"bytecode":{"object":"0x6080806040523460155761200f908161001b8239f35b600080fdfe6080604052600436101561001257600080fd5b60003560e01c80630d7c56f0146100f757806317fe9ff7146100f25780631873689c146100ed578063268bb59c146100e85780632b84a4b8146100e35780634332cd4b146100de5780634a34ca4f146100d957806377127512146100d457806384ffee32146100cf578063b4ce66db146100ca578063cfdefa41146100c5578063d75ec3fc146100c0578063dda45618146100bb5763e10803ee146100b657600080fd5b61043a565b610423565b610405565b610363565b610342565b610324565b610303565b6101ec565b6101bb565b61019a565b61017c565b610158565b61013f565b346101205760403660031901126101205760206101186024356004356108a7565b604051908152f35b600080fd5b606090600319011261012057600435906024359060443590565b3461012057602061011861015236610125565b91610938565b34610120576060366003190112610120576020610118604435602435600435610a43565b34610120576020366003190112610120576020610118600435610b41565b34610120576040366003190112610120576020610118602435600435610bb8565b346101205760203660031901126101205760606101d9600435610c17565b9060405192835260208301526040820152f35b34610120576101fa36610125565b91663e01ad54cfec80808302928084048214901517156102fe57610228670de0b6b3a76400008094056104e7565b918181029181830414901517156102fe5761026761026261025d69124bc0ddd92e560000006102ed9661028195049704610aa8565b610b12565b610b28565b61027c61027382610c17565b50949092610d47565b610a2a565b9261028d828286610938565b936102e76102d961029d84610fe4565b6102d36102be6715cc96efd11924eb926102b8848a016118ff565b906106aa565b916102b86102cb896118ff565b9187016118ff565b90610a2a565b6102e2836118ff565b610f10565b50610a43565b604080519182526020820192909252f35b61044b565b34610120576040366003190112610120576020610118602435600435610d47565b34610120576020366003190112610120576020610118600435610da0565b34610120576040366003190112610120576020610118602435600435610f10565b3461012057604036600319011261012057670de0b6b3a76400008042029042820414421517156102fe5761039f61039982610b41565b91610da0565b90612d3691808302928304036102fe576103ed6103c66402540be4006103f394048361088b565b916103e36103d56004356104fe565b670de0b6b3a7640000900590565b9260243591611000565b91611225565b60408051928352602083019190915290f35b34610120576020366003190112610120576020610118600435610fe4565b34610120576103f361043436610125565b91611000565b34610120576103f36103ed36610125565b634e487b7160e01b600052601160045260246000fd5b90663e01ad54cfec8091808302928304036102fe57565b9062c82f7691808302928304036102fe57565b90619b4b91808302928304036102fe57565b906101aa91808302928304036102fe57565b818102929181159184041417156102fe57565b634e487b7160e01b600052601260045260246000fd5b81156104e2570490565b6104c2565b90816000039180830560001914901517156102fe57565b90663e01ad54cfec80918281029281840514901517156102fe57565b906151a991808302928305036102fe57565b90670de0b6b3a7640000918281029281840514901517156102fe57565b906702b965cf5968c00091808302928305036102fe57565b90670d9fb2f2e000400091808302928305036102fe57565b906301067e6291808302928305036102fe57565b908160011b9160028305036102fe57565b906301067e6891808302928305036102fe57565b90610c7f91808302928305036102fe57565b9061010991808302928305036102fe57565b9061019591808302928305036102fe57565b906105f591808302928305036102fe57565b90611cb391808302928305036102fe57565b90619bef91808302928305036102fe57565b90816049029160498305036102fe57565b90816042029160428305036102fe57565b906303c15ce991808302928305036102fe57565b9068031b237fe6b6d8e000918281029281840514901517156102fe57565b906e1523c5620c6c2b78929bf79540000091808302928305036102fe57565b906804da11980ae4f9640091808302928305036102fe57565b818102929160008212600160ff1b8214166102fe5781840514901517156102fe57565b81156104e257600160ff1b81146000198314166102fe570590565b906305f5e10091600083820193841291129080158216911516176102fe57565b90670ae64b77e88c928591600083820193841291129080158216911516176102fe57565b9081671346023de80fffff1901918212156001166102fe57565b908166175761542ca000019182126001166102fe57565b90816718534d991da5e000019182126001166102fe57565b90672b992ddfa23249d691600083820193841291129080158216911516176102fe57565b9081672b992ddfa23249d6019182126001166102fe57565b9081670107d3fc6daa5000019182126001166102fe57565b90816702f194ec47bebfff1901918212156001166102fe57565b90816715cc59858279c000019182126001166102fe57565b908167010a741a46278000019182126001166102fe57565b90816702501e734690aaaa019182126001166102fe57565b9081670de0b6b3a7640000019182126001166102fe57565b906720b2e267b9a5b78f91600083820193841291129080158216911516176102fe57565b906757325bbf446493ac91600083820193841291129080158216911516176102fe57565b919091600083820193841291129080158216911516176102fe57565b61092f610935926108b7816118ff565b92610928637fffffff916102b8610922670de0b6b3a7640000978895866109096715cc96efd11924eb61090263ffffffff958585886104046108f76113f1565b0151160205906106aa565b9a016118ff565b9260086109146113f1565b015160201c160205906106aa565b916118ff565b059061088b565b056119ae565b90565b906ec097ce7bc90715b34b9f100000000061092861099a936102b8610993610993610935986102b8670de0b6b3a764000061097e6109758b6118ff565b6102b8856118ff565b05986715cc96efd11924eb94858092016118ff565b92016118ff565b6119ae565b90695186f22f0d4776040000600083820393128184128116918413901516176102fe57565b90672b992ddfa23249d51982019182136001166102fe57565b906ec097ce7bc90715b34b9f1000000000600083820393128184128116918413901516176102fe57565b906715cc96efd11924eb600083820393128184128116918413901516176102fe57565b818103929160001380158285131691841216176102fe57565b610aa1670de0b6b3a7640000916102d361093595610a9b610a63846118ff565b96610a95610a8f610a7e6715cc96efd11924eb8098016118ff565b96610a88846118ff565b93016118ff565b93610fe4565b946106aa565b926106aa565b0590610f10565b906a0204d08a63ea965eb0000082018092116102fe57565b90680750fce56f750b80009182018092116102fe57565b9068050e68b5d2e23c00009182018092116102fe57565b906803aa6a7fbbdfea00009182018092116102fe57565b919082018092116102fe57565b6706f05b59d3b1ffff198101919082116102fe57565b6a020722854fb1e9d1c3ffff198101919082116102fe57565b6201518090046a0204d08a63ea965eb000008101908181116102fe57690251faebc7537313ffff1981019182116102fe576906f85362bcdb1e6bffff1981019182136001166102fe576906f5fea40cae009fffff1901906000680254beb02d1dcc0000831291129080158216911516176102fe5790565b610c116715cc96efd11924eb61093593610c09610bd4856118ff565b916102d3637fffffff93670de0b6b3a76400009485610909610c0363ffffffff948484876104046108f76113f1565b95610fe4565b0592016118ff565b90610f10565b9062c90e4c9082820291820483036102fe57620f42409182680bd5be3d4ff02e0000910481018091116102fe57610c56670de0b6b3a764000091610461565b049162c75b2184810290810485036102fe5704610c7290610ac0565b610c7b90610461565b670de0b6b3a7640000900492610c9090610478565b620f42409004610c9f90610ad7565b610ca890610461565b670de0b6b3a7640000900491610cbd846118ff565b610cc690610672565b6ec097ce7bc90715b34b9f10000000009005610ce19161088b565b91610ceb906118ff565b610cf490610691565b701d6329f1c35ca4bfabb9f56100000000009005926715cc96efd11924eb01610d1c906118ff565b610d259061051a565b610d2e9061099f565b91610d398482610bb8565b93610d43916108a7565b9190565b9063d72a08eb91808302928304036102fe5762989680680f300043a611700000920482018092116102fe57663e01ad54cfec8091808302928304036102fe57670de0b6b3a7640000916102d3610d9c9261052c565b0590565b6201518090046a0204d08a63ea965eb000008101908181116102fe57690251faebc7537313ffff19019081116102fe576064810290808204606414901517156102fe57618ead900467d02ab486cedbffff1981019081116102fe57610e3d81810290810482036102fe57610e40612710610e39610e28610e2386610935976104af565b61048b565b6a52b7d2dcc80cd2e4000000900490565b9204610aee565b610b05565b600160ff1b81146102fe5760000390565b8015610f0a576000811380600114610ef25715610edb575b808002906001805b808211610eac575050600081136001600160ff1b038390048211166102fe5760008112600160ff1b8390058212166102fe570290565b90926001600160ff1b0381900481116102fe57818416610ed2575b800292811c90610e76565b80920291610ec7565b6001600160ff1b03819005811215610e6e5761044b565b506001600160ff1b03819004811115610e6e5761044b565b50600090565b600081129190610f249083610fd6576106e8565b60008212610faa57610f5882610f5283610f4c610f47610f9596610f9a98610a2a565b61052c565b9261088b565b906106cd565b6102d36103d5610f8f610f72610f6d85610e56565b610549565b760a70c3c40a64e6c51999090b65f67d9240000000000000900590565b92610561565b610708565b905b156109355761093590610e45565b610f5881610f5284610fc5610f47610fcb96610fd09861088b565b92610a2a565b610843565b90610f9c565b610fdf90610e45565b6106e8565b61093590610f526715cc96efd11924eb610993610f47846118ff565b929161101861100e83610579565b633b9aca00900590565b9160008312156111cb5761102b836104e7565b611034906118ff565b61103d906104e7565b8061104881956104e7565b6110519061199b565b916110f56110e96110d56110c96110ae6110a961100e6110a36103d58b9a6102b861109c6757325bbf446493ac9c6110968f6103d5905b6110918461058d565b6106aa565b9f61088b565b918d610a2a565b9a61059e565b61072c565b6110c36110ba8c6105b2565b620186a0900590565b9061088b565b6102d36110ba876105c4565b6110c36110e1876105d6565b612710900590565b6110c36110ba876105e8565b0794600086126111b5575b611193946110c36103d561117a61117561116c6111666111859a6102d36110e16111989f9b6111809d6110c36110ba61115a61027c9f946102d36110ba61115461114f6110ba6111609a6105fa565b610746565b9261060c565b9261061e565b9261062f565b9d610640565b62989680900590565b61075d565b926104fe565b610775565b6757325bbf446493ac900790565b6109c4565b672b992ddfa23249d51981126111ac579190565b610d4390610867565b919293946111c290610867565b94939291611100565b6111d4836118ff565b806715cc96efd11924eb8195016111ea906118ff565b916110f56110e96110d56110c96110ae6110a961100e6110a36103d58b9a6102b861109c6757325bbf446493ac9c6110968f6103d590611088565b91929160008112156113cc5761124561124061124a926104e7565b6118ff565b6104e7565b925b61126661126161125c86806106aa565b6109dd565b611a84565b9060008112156113be5761124561124061127f926104e7565b61128f61126161125c83806106aa565b90600084121561139d576112b96112b46112ae611245611240886104e7565b956104e7565b61199b565b6112c382886106aa565b6112cc9061052c565b816112d785876106aa565b906112e1916106aa565b6112ea9161088b565b6ec097ce7bc90715b34b9f1000000000900561130681806106aa565b61130f906109dd565b90611319906119ae565b9061132390611a84565b61132c9061049d565b62989680900461133b91610a2a565b96611345916106aa565b670de0b6b3a764000090059261135a916106aa565b90611364916106cd565b61136d91610a2a565b61137691610f10565b61137f90610799565b61138890610654565b670de0b6b3a76400009005916103d590610654565b6113b96715cc96efd11924eb6113b2866118ff565b95016118ff565b6112b9565b6113c7906118ff565b61127f565b6113d5906118ff565b9261124c565b634e487b7160e01b600052604160045260246000fd5b60405190610440820182811067ffffffffffffffff8211176118fa57604090815261040483527ac90f8801921d20025b26d703242abf03ed26e604b6195d057f003560208401527f0647d97c0710a34507d95b9e08a2009a096a90490a3308bc0afb68050bc3ac35908301527f0c8bd35e0d53db920e1bc2e40ee387660fab272b1072a0481139f0cf120116d560608301527f12c8106e138edbb1145576b1151bdf8515e2144416a81305176dd9de183366e860808301527f18f8b83c19bdcbf31a82a0251b4732ef1c0b826a1ccf8cb31d934fe51e56ca1e60a08301527f1f19f97b1fdcdc1b209f701c2161b39f2223a4c522e541af23a6887e2467775760c08301527f25280c5d25e845b626a8218527679df42826b92828e5714a29a3c4852a61b10160e08301527f2b1f34eb2bdc4e6f2c98fbba2d553afb2e110a622ecc681e2f8752623041c7606101008301527f30fbc54d31b54a5d326e54c73326e2c233def2873496824f354d905636041ad96101208301527f36ba2013376f9e46382493b038d8fe93398cdd323a402dd13af2eeb73ba51e296101408301527f3c56ba703d07c1d53db832a53e680b2c3f1749b73fc5ec974073f21d4121589a6101608301527f41ce1e64427a41d04325c13543d09aec447acd50452456bc45cd358f467568276101808301527f471cece647c3c22e4869e664490f57ee49b415334a581c9d4afb6c974b9e038f6101a08301527f4c3fdff34ce100344d8162c34e2106174ebfe8a44f5e08e24ffb654c5097fc5e6101c08301527f5133cc9451ced46e5269126e53028517539b2aef5433027d54ca0a4a556040e26101e08301527f55f5a4d2568a34a9571deef957b0d2555842dd5458d40e8c5964649759f3de126102008301527f5a8279995b1035ce5b9d11535c290acc5cb420df5d3e52365dc79d7b5e50015d6102208301527f5ed77c895f5e0db25fe3b38d60686cce60ec382f616f146b61f1003e6271fa686102408301527f62f201ac637114cc63ef328f646c59bf64e889256563bf9165ddfbd266573cbb6102608301527f66cf811f6746c7d767bd0fbc683257aa68a69e806919e31f698c246b69fd614a6102808301527f6a6d98a36adcc9646b4af2786bb812d06c24295f6c8f351b6cf934fb6d6227f96102a08301527f6dca0d146e30e3496e96a99c6efb5f116f5f02b16fc1938470231099708378fe6102c08301527f70e2cbc571410804719e2cd171fa394872552c8472af05a67307c3cf735f66256102e08301527f73b5ebd0740b53fa745f9dd074b2c8837504d3447555bd4b75a585ce75f42c0a6103008301527f7641af3c768e0ea576d9498877235f2c776c4eda77b417df77fab988784033286103208301527f7884841378c7aba17909a92c794a7c11798a23b079c89f6d7a05eeac7a4210d86103408301527f7a7d055a7ab6cba37aef63237b26cb4e7b5d039d7b920b887bc5e28f7bf8882f6103608301527f7c29fbed7c5a3d4f7c894bdd7cb727237ce3ceb17d0f42177d3980eb7d628ac56103808301527f7d8a5f3f7db0fdf77dd6668e7dfa98a77e1d93e97e3f57fe7e5fe4927e7f39566103a08301527f7e9d55fb7eba3a387ed5e5c57ef0585f7f0991c37f2191b37f3857f57f4de4506103c08301527f7f62368e7f754e7f7f872bf27f97cebc7fa736b37fb563b27fc255957fce0c3d6103e08301527f7fd8878d7fe1c76a7fe9cbbf7ff094777ff621817ffa72d07ffd88597fff6215610400830152637fffffff60e01b610420830152565b6113db565b670de0b6b3a7640000637fffffff916757325bbf446493ac809106601e1b0460ff8160141c166310000000821615908115611993575b600261193f6113f1565b910160021b015163ffffffff808260201c16911661ffff8460041c168282030260101c9260001461198b5750015b6320000000819216611980575b50020590565b90506000033861197a565b90500361196d565b60ff03611935565b6715cc96efd11924eb61093591016118ff565b670de0b6b3a763ffff199081811215611a645750805b81121580611a52575b15611a0d5760008112908115611a08576119e690610e45565b6706a50a102e7500008112156119ff57610f9a90611c80565b610fd090611bbc565b6119e6565b60405162461bcd60e51b815260206004820152601b60248201527f496e7665727365547269676f6e6f6d657472793a20444f4d41494e00000000006044820152606490fd5b50670de0b6b3a76400008113156119cd565b90670de0b6b3a7640000808313611a7c575b506119c4565b915038611a76565b908115611bb657600182600160801b811015611ba4575b611b3d611b33611b29611b1f611b15611b0b611b4e97600488600160401b611b479a1015611b97575b640100000000811015611b8a575b62010000811015611b7d575b610100811015611b71575b6010811015611b65575b1015611b5d575b611b04818c6104d8565b0160011c90565b611b04818b6104d8565b611b04818a6104d8565b611b0481896104d8565b611b0481886104d8565b611b0481876104d8565b611b0481866104d8565b80936104d8565b80831015611b595750565b9150565b60011b611afa565b811c9160021b91611af3565b60081c91811b91611ae9565b60101c9160081b91611ade565b60201c9160101b91611ad2565b60401c9160201b91611ac4565b50600160401b9050608083901c611a9b565b60009150565b670de0b6b3a764000081810360008312828212811690838313901516176102fe5760008112611c68577809392ee8e921d5d073aff322e62439fcf32d7f344649470f908113611c505791611c40611c46611c1d611c4b946109359602611a84565b92611c40611c3b611c35611c3084611d4b565b6107b1565b83611dd8565b6107c9565b90611dd8565b6107e3565b610a07565b6024906040519063063103bf60e01b82526004820152fd5b6024906040519063b9b0f49b60e01b82526004820152fd5b90611c8b8280611dd8565b91600160ff1b83148015611d43575b611d31576000831215611d2857611cb383600003611e67565b6001600160ff1b038111611d0257611cf56109359394611c40611cf0611c35611c4095600019669e9a7129c22db6861813600014611cfa576107fb565b610813565b61082b565b6000036107fb565b60405163120b5b4360e01b815260048101859052669e9a7129c22db66024820152604490fd5b611cb383611e67565b60405163a6070c2560e01b8152600490fd5b506000611c9a565b600160ff1b81148015611dd0575b611d31576000811215611dc757611d7281600003611f04565b906001600160ff1b038211611d9f5760001966428a32f96447ff199091181315611d995790565b60000390565b60405163120b5b4360e01b8152600481019190915266428a32f96447ff196024820152604490fd5b611d7281611f04565b506000611d59565b600160ff1b818114908115611e5d575b50611d31576000811215611e5457611e11816000035b6000841215611e4d578360000390611f72565b916001600160ff1b038311611e2e5760001991181315611d995790565b60405163120b5b4360e01b815260048101929092526024820152604490fd5b8390611f72565b611e1181611dfe565b9050821438611de8565b669e9a7129c22db6919060001983820983820291828083109203918083039214611ef357670de0b6b3a76400009081831015611ed557947faccb18165bd6fe31ae1cf318dc5b51eee0e1ba569b88cd74c1773b91fac1066994950990828211900360ee1b910360121c170290565b6044908660405191635173648d60e01b835260048301526024820152fd5b5050670de0b6b3a764000090049150565b66428a32f9644800919060001983820983820291828083109203918083039214611ef357670de0b6b3a76400009081831015611ed557947faccb18165bd6fe31ae1cf318dc5b51eee0e1ba569b88cd74c1773b91fac1066994950990828211900360ee1b910360121c170290565b90919060001983820983820291828083109203918083039214611ef357670de0b6b3a76400009081831015611ed557947faccb18165bd6fe31ae1cf318dc5b51eee0e1ba569b88cd74c1773b91fac1066994950990828211900360ee1b910360121c17029056fea26469706673582212205543eef18cc23e490bd7e8e281ac3e539b37be7668c5948df654b5e75f3b9d7a64736f6c63430008190033","linkReferences":{}},"methodIdentifiers":{"algo1(int256,int256,int256)":"dda45618","altitude(uint256,uint256,uint256)":"17fe9ff7","azimuth(int256,uint256,int256)":"1873689c","azimuthZenit(int256,int256,int256)":"e10803ee","calcT(uint256)":"268bb59c","calculateSolarPosition(int256,int256)":"cfdefa41","declinationMoon(uint256,uint256)":"0d7c56f0","deltaT(uint256)":"84ffee32","getMoonPosition(uint256,uint256,uint256)":"4a34ca4f","moonCoords(uint256)":"4332cd4b","p_atan2(int256,int256)":"b4ce66db","rightAscensionMoon(uint256,uint256)":"2b84a4b8","sideRealTime(uint256,int256)":"77127512","tan(uint256)":"d75ec3fc"},"id":7}