{"abi":[{"type":"constructor","inputs":[{"name":"_motifDataManager","type":"address","internalType":"address"}],"stateMutability":"nonpayable"},{"type":"function","name":"approve","inputs":[{"name":"to","type":"address","internalType":"address"},{"name":"tokenId","type":"uint256","internalType":"uint256"}],"outputs":[],"stateMutability":"nonpayable"},{"type":"function","name":"balanceOf","inputs":[{"name":"owner","type":"address","internalType":"address"}],"outputs":[{"name":"","type":"uint256","internalType":"uint256"}],"stateMutability":"view"},{"type":"function","name":"generateNFT","inputs":[{"name":"tokenId","type":"uint256","internalType":"uint256"},{"name":"_timestamp","type":"uint256","internalType":"uint256"}],"outputs":[{"name":"","type":"string","internalType":"string"}],"stateMutability":"view"},{"type":"function","name":"generateNFT","inputs":[{"name":"tokenId","type":"uint256","internalType":"uint256"}],"outputs":[{"name":"","type":"string","internalType":"string"}],"stateMutability":"view"},{"type":"function","name":"getApproved","inputs":[{"name":"tokenId","type":"uint256","internalType":"uint256"}],"outputs":[{"name":"","type":"address","internalType":"address"}],"stateMutability":"view"},{"type":"function","name":"isApprovedForAll","inputs":[{"name":"owner","type":"address","internalType":"address"},{"name":"operator","type":"address","internalType":"address"}],"outputs":[{"name":"","type":"bool","internalType":"bool"}],"stateMutability":"view"},{"type":"function","name":"maxSupply","inputs":[],"outputs":[{"name":"","type":"uint256","internalType":"uint256"}],"stateMutability":"view"},{"type":"function","name":"mint","inputs":[],"outputs":[],"stateMutability":"nonpayable"},{"type":"function","name":"motifDataManager","inputs":[],"outputs":[{"name":"","type":"address","internalType":"contract NDMotifDataManager"}],"stateMutability":"view"},{"type":"function","name":"name","inputs":[],"outputs":[{"name":"","type":"string","internalType":"string"}],"stateMutability":"view"},{"type":"function","name":"ownerOf","inputs":[{"name":"tokenId","type":"uint256","internalType":"uint256"}],"outputs":[{"name":"","type":"address","internalType":"address"}],"stateMutability":"view"},{"type":"function","name":"renderAirplanes","inputs":[{"name":"timestamp","type":"uint256","internalType":"uint256"},{"name":"tokenId","type":"uint256","internalType":"uint256"},{"name":"horizonInPx","type":"uint256","internalType":"uint256"},{"name":"heading","type":"int256","internalType":"int256"}],"outputs":[{"name":"","type":"string","internalType":"string"}],"stateMutability":"pure"},{"type":"function","name":"renderBeachTraits","inputs":[{"name":"svg","type":"string","internalType":"string"},{"name":"tokenId","type":"uint256","internalType":"uint256"}],"outputs":[{"name":"","type":"string","internalType":"string"}],"stateMutability":"view"},{"type":"function","name":"renderCityTraits","inputs":[{"name":"svg","type":"string","internalType":"string"},{"name":"tokenId","type":"uint256","internalType":"uint256"}],"outputs":[{"name":"","type":"string","internalType":"string"}],"stateMutability":"view"},{"type":"function","name":"renderLandscapeTraits","inputs":[{"name":"svg","type":"string","internalType":"string"},{"name":"tokenId","type":"uint256","internalType":"uint256"}],"outputs":[{"name":"","type":"string","internalType":"string"}],"stateMutability":"view"},{"type":"function","name":"renderNFT","inputs":[{"name":"skyColor","type":"string","internalType":"string"},{"name":"motifType","type":"uint8","internalType":"enum MotifType"},{"name":"motifSVG","type":"string","internalType":"string"},{"name":"sunSVG","type":"string","internalType":"string"},{"name":"cloudsSVG","type":"string","internalType":"string"},{"name":"skySceneSVG","type":"string","internalType":"string"},{"name":"maskedAssetsSVG","type":"string","internalType":"string"},{"name":"moonSVG","type":"string","internalType":"string"},{"name":"nightSVG","type":"string","internalType":"string"}],"outputs":[{"name":"","type":"string","internalType":"string"}],"stateMutability":"view"},{"type":"function","name":"renderNFTInside","inputs":[{"name":"svg","type":"string","internalType":"string"},{"name":"tokenId","type":"uint256","internalType":"uint256"},{"name":"timestamp","type":"uint256","internalType":"uint256"}],"outputs":[{"name":"","type":"string","internalType":"string"}],"stateMutability":"view"},{"type":"function","name":"renderWaterScene","inputs":[{"name":"svg","type":"string","internalType":"string"},{"name":"timestamp","type":"uint256","internalType":"uint256"},{"name":"tokenId","type":"uint256","internalType":"uint256"},{"name":"horizonInPx","type":"uint256","internalType":"uint256"},{"name":"heading","type":"int256","internalType":"int256"}],"outputs":[{"name":"","type":"string","internalType":"string"}],"stateMutability":"pure"},{"type":"function","name":"reservedMint","inputs":[{"name":"signature","type":"bytes","internalType":"bytes"}],"outputs":[],"stateMutability":"nonpayable"},{"type":"function","name":"reservedSupply","inputs":[],"outputs":[{"name":"","type":"uint256","internalType":"uint256"}],"stateMutability":"view"},{"type":"function","name":"royaltyInfo","inputs":[{"name":"tokenId","type":"uint256","internalType":"uint256"},{"name":"salePrice","type":"uint256","internalType":"uint256"}],"outputs":[{"name":"","type":"address","internalType":"address"},{"name":"","type":"uint256","internalType":"uint256"}],"stateMutability":"view"},{"type":"function","name":"safeTransferFrom","inputs":[{"name":"from","type":"address","internalType":"address"},{"name":"to","type":"address","internalType":"address"},{"name":"tokenId","type":"uint256","internalType":"uint256"}],"outputs":[],"stateMutability":"nonpayable"},{"type":"function","name":"safeTransferFrom","inputs":[{"name":"from","type":"address","internalType":"address"},{"name":"to","type":"address","internalType":"address"},{"name":"tokenId","type":"uint256","internalType":"uint256"},{"name":"data","type":"bytes","internalType":"bytes"}],"outputs":[],"stateMutability":"nonpayable"},{"type":"function","name":"setApprovalForAll","inputs":[{"name":"operator","type":"address","internalType":"address"},{"name":"approved","type":"bool","internalType":"bool"}],"outputs":[],"stateMutability":"nonpayable"},{"type":"function","name":"supportsInterface","inputs":[{"name":"interfaceId","type":"bytes4","internalType":"bytes4"}],"outputs":[{"name":"","type":"bool","internalType":"bool"}],"stateMutability":"view"},{"type":"function","name":"symbol","inputs":[],"outputs":[{"name":"","type":"string","internalType":"string"}],"stateMutability":"view"},{"type":"function","name":"tokenURI","inputs":[{"name":"tokenId","type":"uint256","internalType":"uint256"}],"outputs":[{"name":"","type":"string","internalType":"string"}],"stateMutability":"view"},{"type":"function","name":"tokenUriWithTime","inputs":[{"name":"tokenId","type":"uint256","internalType":"uint256"},{"name":"timestamp","type":"uint256","internalType":"uint256"}],"outputs":[{"name":"","type":"string","internalType":"string"}],"stateMutability":"view"},{"type":"function","name":"totalSupply","inputs":[],"outputs":[{"name":"","type":"uint256","internalType":"uint256"}],"stateMutability":"view"},{"type":"function","name":"transferFrom","inputs":[{"name":"from","type":"address","internalType":"address"},{"name":"to","type":"address","internalType":"address"},{"name":"tokenId","type":"uint256","internalType":"uint256"}],"outputs":[],"stateMutability":"nonpayable"},{"type":"event","name":"Approval","inputs":[{"name":"owner","type":"address","indexed":true,"internalType":"address"},{"name":"approved","type":"address","indexed":true,"internalType":"address"},{"name":"tokenId","type":"uint256","indexed":true,"internalType":"uint256"}],"anonymous":false},{"type":"event","name":"ApprovalForAll","inputs":[{"name":"owner","type":"address","indexed":true,"internalType":"address"},{"name":"operator","type":"address","indexed":true,"internalType":"address"},{"name":"approved","type":"bool","indexed":false,"internalType":"bool"}],"anonymous":false},{"type":"event","name":"Transfer","inputs":[{"name":"from","type":"address","indexed":true,"internalType":"address"},{"name":"to","type":"address","indexed":true,"internalType":"address"},{"name":"tokenId","type":"uint256","indexed":true,"internalType":"uint256"}],"anonymous":false},{"type":"error","name":"ECDSAInvalidSignature","inputs":[]},{"type":"error","name":"ECDSAInvalidSignatureLength","inputs":[{"name":"length","type":"uint256","internalType":"uint256"}]},{"type":"error","name":"ECDSAInvalidSignatureS","inputs":[{"name":"s","type":"bytes32","internalType":"bytes32"}]},{"type":"error","name":"ERC2981InvalidDefaultRoyalty","inputs":[{"name":"numerator","type":"uint256","internalType":"uint256"},{"name":"denominator","type":"uint256","internalType":"uint256"}]},{"type":"error","name":"ERC2981InvalidDefaultRoyaltyReceiver","inputs":[{"name":"receiver","type":"address","internalType":"address"}]},{"type":"error","name":"ERC721IncorrectOwner","inputs":[{"name":"sender","type":"address","internalType":"address"},{"name":"tokenId","type":"uint256","internalType":"uint256"},{"name":"owner","type":"address","internalType":"address"}]},{"type":"error","name":"ERC721InsufficientApproval","inputs":[{"name":"operator","type":"address","internalType":"address"},{"name":"tokenId","type":"uint256","internalType":"uint256"}]},{"type":"error","name":"ERC721InvalidApprover","inputs":[{"name":"approver","type":"address","internalType":"address"}]},{"type":"error","name":"ERC721InvalidOperator","inputs":[{"name":"operator","type":"address","internalType":"address"}]},{"type":"error","name":"ERC721InvalidOwner","inputs":[{"name":"owner","type":"address","internalType":"address"}]},{"type":"error","name":"ERC721InvalidReceiver","inputs":[{"name":"receiver","type":"address","internalType":"address"}]},{"type":"error","name":"ERC721InvalidSender","inputs":[{"name":"sender","type":"address","internalType":"address"}]},{"type":"error","name":"ERC721NonexistentToken","inputs":[{"name":"tokenId","type":"uint256","internalType":"uint256"}]},{"type":"error","name":"ReentrancyGuardReentrantCall","inputs":[]}],"bytecode":{"object":"0x60803461156657601f61661e38819003828101601f199081168501946001600160401b039493909285871184881017611550578084926040988952833960209384918101031261156657516001600160a01b03811694908590036115665761006561156b565b91600d908184526c4e6967687420416e642044617960981b8585015261008961156b565b916003918284526213899160ea1b87850152855185811161155057806000976100b2895461158a565b8a8c8211611523575b505089908b83116001146114c55789926114ba575b50508160011b9160001990861b1c19161786555b8351908582116114a65781906001956100fd875461158a565b8a8c821161146f575b505089918b841160011461141457508892611409575b505060001982851b1c191690841b1783555b6006839055600780546001600160a01b03199081167309505292d5eae5504cec5c8ba86e09e83c810aa91790915589519097613e808201868111838210176113f5578b52610154825260a7888301526101a78b8301526101f2606083015260a8608083015260a960a083015261015060c08301526101d060e0830152876101006039818501526101209360b785820152610140946101b9868301526101609061014d82840152610180906101a8828501526101a09161015d838601526101c09260fb848701526101e097602a89880152609e610200880152606c61022088015260f16102408801526101eb6102608801526101d76102808801526101c76102a088015261018e6102c0880152607e6102e08801526101e46103008801526101976103208801526101af61034088015260d26103608801526101b861038088015260916103a08801526101316103c088015260296103e088015260ee61040088015260ac610420880152610190610440880152603761046088015260af6104808801526101bf6104a088015260426104c088015261019b6104e08801526101db61050088015261018361052088015260ae6105408801526052610560880152610199610580880152604b6105a088015261018f6105c08801526101236105e08801526101e261060088015260eb61062088015260cb61064088015260b061066088015260266106808801526101e96106a088015260f56106c08801526106e0870152609861070087015260a261072087015261016b6107408701526101166107608701526101b361078087015260f76107a0870152609c6107c087015260856107e087015260b461080087015260096108208701526101556108408701526071610860870152606061088087015260d36108a087015260186108c087015260de6108e08701526109008601526101ba610920860152600c610940860152605d610960860152609661098086015260db6109a086015260ab6109c086015261012c6109e08601526101a5610a00860152605a610a2086015261017d610a40860152605c610a608601526101c8610a80860152610147610aa086015261010f610ac0860152610188610ae08601526062610b00860152610177610b2086015260fa610b40860152610130610b608601526101d9610b808601526086610ba086015260e6610bc0860152610108610be0860152607b610c008601526036610c208601526097610c408601526101cd610c60860152610162610c8086015261010b610ca086015260f9610cc08601526093610ce08601526073610d00860152607d610d2086015261019e610d4086015261016c610d60860152610111610d80860152610da085015260aa610dc085015260ed610de08501526101ef610e008501526056610e2085015261013c610e4085015261011a610e60850152610102610e808501526033610ea08501526101c29586610ec0860152610189610ee08601526010610f0086015261011d610f208601526101ac610f4086015260ea610f6086015260b5610f80860152610103610fa086015261015b610fc0860152610125610fe08601526055611000860152603b6110208601526101b5611040860152605061106086015261017061108086015261014b6110a086015260886110c0860152603c6110e086015261010c6111008601526101286111208601526101ab611140860152600e611160860152608f61118086015260b86111a086015260e96111c086015260486111e086015261010e611200860152605761122086015260e3611240860152606361126086015260be611280860152608e6112a08601526101756112c08601526101066112e0860152610166611300860152610159611320860152610173611340860152600261136086015260146113808601526101876113a086015260c56113c086015261014a6113e0860152602d611400860152603d611420860152610167611440860152604f6114608601526064611480860152606b6114a086015260f46114c086015260a66114e08601526101ca611500860152610163611520860152610133611540860152609d611560860152876115808601526101bd6115a086015260386115c08601526101846115e086015260696116008601526101a461162086015260f8611640860152610151611660860152605461168086015260156116a08601526116c085015260ec6116e085015260dc61170085015261013b611720850152603e611740850152607a611760850152609b61178085015260d56117a085015261013d6117c085015260ad6117e085015261012f61180085015261019561182085015260cc611840850152607661186085015261017a61188085015260e76118a0850152896118c085015260956118e085015261013f61190085015260d66119208501526101ad61194085015261011261196085015261014f61198085015260076119a0850152604e6119c085015260d96119e08501526024611a008501526068611a208501526101d2611a40850152610171611a6085015261014e611a808501526101b7611aa0850152608d611ac085015260b2611ae08501526021611b008501526045611b208501526023611b40850152610174611b6085015261017e611b80850152610113611ba085015260fe611bc0850152610192611be085015260fd611c00850152602c611c20850152610165611c408501526101f0611c608501526101b0611c8085015260d1611ca08501526101cb611cc0850152610181611ce0850152610186611d00850152601d611d20850152610136611d408501526017611d6085015260a3611d8085015261012a611da08501526058611dc085015261018a611de0850152610110611e0085015261013a611e208501526067611e408501526053611e60850152610149611e8085015260c0611ea085015260cf611ec0850152610178611ee085015260f0611f0085015260bc611f2085015260b9611f40850152602f611f608501526083611f80850152610115611fa08501526101e5611fc085015260e2611fe0850152610143612000850152604961202085015260d4612040850152608961206085015260bb61208085015261011e6120a08501526101416120c0850152601c6120e08501526004612100850152606161212085015260a46121408501526101046121608501526101c46121808501526101946121a08501526101576121c085015260666121e085015260816122008501526101bc612220850152610158612240850152603161226085015261016f6122808501526101ae6122a0850152606d6122c08501526101b16122e08501526051612300850152609461232085015261014c61234085015261013761236085015260ce61238085015260bd6123a08501526101326123c085015260c86123e08501526019612400850152604d61242085015260826124408501526101da61246085015260726124808501526101766124a08501526101c66124c085015261015e6124e08501526101dd6125008501526101466125208501526101bb61254085015261016861256085015261017261258085015261015a6125a085015261019a6125c08501526101e66125e08501526101196126008501526101f36126208501526059612640850152603f612660850152603561268085015260b16126a085015260466126c08501526101426126e085015261019661270085015260e061272085015261017c612740850152601e61276085015261011f61278085015261017b6127a085015260116127c085015260da6127e08501526087612800850152605e6128208501526101146128408501526101a661286085015261288084015260dd6128a084015261016a6128c084015260926128e0840152607f61290084015260416129208401526101d36129408401526090612960840152603461298084015261018b96876129a08501526101a16129c08501526101526129e085015260f2612a00850152604a612a208501526101e8612a4085015260c4612a608501526008612a80850152603a612aa0850152610134612ac08501526101ce612ae0850152612b008401526043612b208401526077612b40840152605b612b608401526101ea612b808401526101b2612ba0840152610101612bc084015261013e612be0840152604c612c0084015261011b612c2084015261010a612c4084015260ba612c608401526101df612c80840152609f612ca0840152610198612cc084015260cd612ce08401526030612d0084015261017f612d208401526101c5612d40840152610124612d608401526028612d808401526080612da08401526044612dc0840152610164612de0840152610126612e00840152610153612e2084015260b3612e40840152602b612e608401526101cf612e808401526027612ea0840152601b612ec08401526101d6612ee08401526101e3612f00840152610118612f2084015261018c612f408401526101d5612f6084015261010d612f808401526075612fa0840152610156612fc0840152610129612fe0840152605f61300084015260166130208401526101e761304084015261018d61306084015261013561308084015260df6130a08401526101936130c08401526101dc6130e08401526131008301526101f1613120830152600a61314083015260c16131608301526101d161318083015260a06131a08301526101456131c083015260e46131e0830152606a613200830152606e61322083015260a561324083015260c76132608301526101396132808301526101176132a08301526101a36132c0830152607c6132e0830152602e613300830152609a6133208301526101b661334083015260c96133608301528861338083015260056133a083015260c36133c08301526101cc6133e083015261011c61340083015260e861342083015260d0613440830152608c61346083015261016161348083015261019f6134a083015260ca6134c083015260706134e0830152600f6135008301526084613520830152610121613540830152601a613560830152606f61358083015261019d6135a08301526101d86135c083015261012d6135e083015260136136008301526136208201526101a96136408201526101c36136608201526101056136808201526101696136a08201526101ee6136c082015260746136e082015260d86137008201526101c961372082015260f66137408201526101c1613760820152608b613780820152856137a0820152608a6137c08201526101b46137e08201526025613800820152600b61382082015260a161384082015260476138608201526101386138808201526101446138a08201526101de6138c082015260796138e08201526101276139008201526101ec61392082015260226139408201526101e1613960820152600661398082015260ef6139a08201526101486139c082015260c26139e082015261016e613a008201526032613a208201528d613a408201526101be613a6082015261019c613a80820152610109613aa08201526099613ac08201526012613ae08201526101d4613b00820152610179613b20820152610191613b4082015260c6613b6082015260f3613b808201526078613ba08201526101ed613bc082015261015f613be082015260ff613c0082015260e5613c208201526101f49182613c4083015260b6613c6083015260bf613c8083015261015c613ca0830152610185613cc0830152610107613ce083015260fc613d008301526101a2613d2083015261016d613d4083015261012e613d60830152610182613d808301526065613da083015260e1613dc083015261012b613de0830152610122613e0083015260d7613e20830152613e408201526101aa613e60820152600854826008558083106113da575b5060088a528a8a208a5b8381106113c55750505050927f226d616b65426c61636b223e3c6665436f6c6f724d617472697820747970653d926006959264363a32b91f60d91b97956032600955600a5589600b5561125d835461158a565b8181116113a4575b5050815587527f30302f7376672220786d6c3a73706163653d2270726573657276652220766965888820937f3c73766720786d6c6e733d22687474703a2f2f7777772e77332e6f72672f323085558401557f77626f783d2230203020313038302031303830223e3c66696c7465722069643d60028401558201557f226d6174726978222076616c7565733d2230203020302030203020302030203060048201557f20302030203020302030203020302030203020302031203022202f3e3c2f66696005820155015585519186830191838310908311176113905750906109c4929186527329c8950157979a0bc26772f1cc74006d6cf97473815201527509c429c8950157979a0bc26772f1cc74006d6cf97473600c55600e541617600e555161504290816115dc8239f35b634e487b7160e01b81526041600452602490fd5b60076113be92858d528d8d20920160051c820191016115c4565b3880611265565b825161ffff1682820155918c0191890161120a565b60088b528b8b206113ef9181019084016115c4565b38611200565b634e487b7160e01b88526041600452602488fd5b01519050388061011c565b878a528a8a20889590939291168a5b8c8282106114595750508411611441575b505050811b01835561012e565b015160001983871b60f8161c19169055388080611434565b8385015186558a97909501949384019301611423565b61149691898c528d828d209181880160051c830193881061149d575b0160051c01906115c4565b388a610106565b9250819261148b565b634e487b7160e01b87526041600452602487fd5b0151905038806100d0565b8980528a8a209285168a5b8c82821061150d5750509084600195949392106114f5575b505050811b0186556100e4565b015160001983881b60f8161c191690553880806114e8565b60018596829396860151815501950193016114d0565b611549918b80528d828d209181870160051c830193871061149d570160051c01906115c4565b388a6100bb565b634e487b7160e01b600052604160045260246000fd5b600080fd5b60408051919082016001600160401b0381118382101761155057604052565b90600182811c921680156115ba575b60208310146115a457565b634e487b7160e01b600052602260045260246000fd5b91607f1691611599565b8181106115cf575050565b600081556001016115c456fe608080604052600436101561001357600080fd5b60003560e01c90816301ffc9a714610f7d5750806306945b3a14610beb57806306fdde0314610b40578063081812fc14610b0257806308457ad114610a09578063095ea7b3146109225780630e931f30146109085780631249c58b146107f457806318160ddd146107d657806323b872dd146107bf5780632a55205a146107315780632ca8985214610709578063386b2304146106e057806340709fe11461065f57806342842e0e146106b257806344d19d2b14610694578063584f3c3f146103d15780636352211e14610664578063709c163e1461065f57806370a082311461060657806395d89b4114610523578063a22cb4651461047e578063abca27bd14610464578063b88d4fde14610409578063c87b56dd146103d1578063d5abeb01146103b3578063e985e9c51461035d578063ec24f692146101e3578063f73a6a8a146101c95763fe363e241461016957600080fd5b346101c45760603660031901126101c4576004356001600160401b0381116101c4576101ac61019f6101c09236906004016110aa565b6044359060243590614036565b604051918291602083526020830190611114565b0390f35b600080fd5b346101c4576101c06101ac6101dd36611165565b9061378f565b346101c45760203660031901126101c4576004356001600160401b0381116101c4576102139036906004016110aa565b61021b614444565b60405160208101903360601b82526014815261023681611038565b5190206007546001600160a01b039081169290916102609161025791614ec1565b90929192614efd565b160361031857600b54610276600a548210611c47565b60095480156102d357600019908082019081116102bd5760095581146102bd576102a98160016102b69301600b55611c88565b90549060031b1c33614467565b6001600655005b634e487b7160e01b600052601160045260246000fd5b60405162461bcd60e51b815260206004820152601760248201527f4e6f20726573657276656420737570706c79206c6566740000000000000000006044820152606490fd5b60405162461bcd60e51b815260206004820152601b60248201527f5349474e41545552455f56414c49444154494f4e5f4641494c454400000000006044820152606490fd5b346101c45760403660031901126101c457610376611139565b61037e61114f565b9060018060a01b03809116600052600560205260406000209116600052602052602060ff604060002054166040519015158152f35b346101c45760003660031901126101c4576020600a54604051908152f35b346101c45760203660031901126101c4576101c06040516103f181611053565b60008152604051918291602083526020830190611114565b346101c45760803660031901126101c457610422611139565b61042a61114f565b90604435606435926001600160401b0384116101c4576104516104629436906004016110aa565b9261045d838383611cef565b614d7d565b005b346101c4576101c06101ac61047836611165565b906135e9565b346101c45760403660031901126101c457610497611139565b602435908115158092036101c4576001600160a01b031690811561050a57336000526005602052604060002082600052602052604060002060ff1981541660ff83161790556040519081527f17307eab39ab6107e8899845ad3d59bd9653f200f220920489ca2b5937696c3160203392a3005b604051630b61174360e31b815260048101839052602490fd5b346101c45760003660031901126101c4576040516000600182600154926105498461129c565b92838352602094856001821691826000146105e6575050600114610589575b506105759250038361106e565b6101c0604051928284938452830190611114565b84915060016000527fb10e2d527612073b26eecdfd717e6a320cf44b4afac2b0732d9fcbe2b7fa0cf6906000915b8583106105ce575050610575935082010185610568565b805483890185015287945086939092019181016105b7565b60ff19168582015261057595151560051b85010192508791506105689050565b346101c45760203660031901126101c4576001600160a01b03610627611139565b1680156106465760005260036020526020604060002054604051908152f35b6040516322718ad960e21b815260006004820152602490fd5b6111e1565b346101c45760203660031901126101c4576020610682600435614409565b6040516001600160a01b039091168152f35b346101c45760003660031901126101c4576020600954604051908152f35b346101c4576104626106c336611196565b90604051926106d184611053565b6000845261045d838383611cef565b346101c45760003660031901126101c457600e546040516001600160a01b039091168152602090f35b346101c45760803660031901126101c4576101c06101ac606435604435602435600435611ecf565b346101c45761073f366111cb565b60408051925082016001600160401b038111838210176107a957604052600c549160018060a01b0392838116825260a01c918260208301528281029281840414901517156102bd575160408051939091166001600160a01b03168352612710909104602083015290f35b634e487b7160e01b600052604160045260246000fd5b346101c4576104626107d036611196565b91611cef565b346101c45760003660031901126101c4576020600b54604051908152f35b346101c45760003660031901126101c45761080d614444565b600b5461081d600a548210611c47565b604051602081019144835242604083015260608201526060815261084081611002565b5190206008549081156108f25781900661085981611c88565b92905491600019918281019081116102bd5761087761088491611c88565b90549060031b1c91611c88565b83829392549160031b92831b921b191617905560085480156108dc578101906108ac82611c88565b909182549160031b1b19169055600855600b5491600183018093116102bd576102b692600b5560031b1c33614467565b634e487b7160e01b600052603160045260246000fd5b634e487b7160e01b600052601260045260246000fd5b346101c4576101c06101ac61091c36611165565b90611869565b346101c45760403660031901126101c45761093b611139565b60243561094781614409565b331515806109f6575b806109c9575b6109b1576001600160a01b039283169282918491167f8c5be1e5ebec7d5bd14f71427d1e84f3dd0314c0f7b2291e5b200ac8c7c3b925600080a4600090815260046020526040902080546001600160a01b0319169091179055005b60405163a9fbf51f60e01b8152336004820152602490fd5b5060018060a01b038116600052600560205260406000203360005260205260ff6040600020541615610956565b506001600160a01b038116331415610950565b346101c4576101203660031901126101c4576001600160401b036004358181116101c457610a3b9036906004016110aa565b906024359160048310156101c4576044358281116101c457610a619036906004016110aa565b6064358381116101c457610a799036906004016110aa565b6084358481116101c457610a919036906004016110aa565b60a4358581116101c457610aa99036906004016110aa565b9060c4358681116101c457610ac29036906004016110aa565b9260e4358781116101c457610adb9036906004016110aa565b94610104359788116101c4576101c098610afc6101ac9936906004016110aa565b976112f6565b346101c45760203660031901126101c457600435610b1f81614409565b506000526004602052602060018060a01b0360406000205416604051908152f35b346101c45760003660031901126101c457604051600080549082610b638361129c565b91828252602093600190856001821691826000146105e6575050600114610b9157506105759250038361106e565b6000808052859250907f290decd9548b62a8d60345a988386fc84ba6bc95484008f6362f93160ef3e5635b858310610bd3575050610575935082010185610568565b80548389018501528794508693909201918101610bbc565b346101c45760a03660031901126101c4576004356001600160401b0381116101c457610c1b9036906004016110aa565b610c3a610c296044356140d7565b610c34608435614240565b906111fb565b60405190633235ac6d60e01b825260243560048301526101a06024830152600082604081610c6c6101a4820186611114565b60031982820301604483015260068152653a30b735b2b960d11b60208201526001606483015260643560848301528460a48301528460c4830152600160e483015260036101048301526078610124830152603c6101448301526064610164830152603c61018483015203018173__$2d8ca8bf86eea40aef689c316826963c89$__5af4918215610f3557600092610f60575b5060405192633235ac6d60e01b845260243560048501526101a06024850152600084604081610d316101a4820187611114565b60031982820301604483015260068152653334b9b432b960d11b60208201526001606483015260643560848301528460a48301528460c4830152600160e483015260036101048301526078610124830152603c6101448301526064610164830152603c61018483015203018173__$2d8ca8bf86eea40aef689c316826963c89$__5af4918215610f3557610df894600093610f41575b506000906040805180978193633235ac6d60e01b835260243560048401526101a060248401526101a4830190611114565b60031982820301604483015260058152641e5858da1d60da1b60208201526001606483015260643560848301528460a48301528460c4830152600160e483015260036101048301526078610124830152603c6101448301526064610164830152603c61018483015203018173__$2d8ca8bf86eea40aef689c316826963c89$__5af48015610f355760206101ac94610ee2926101c097600091610f12575b506040519582610eaf88945180928780880191016110f1565b8301610ec3825180938780850191016110f1565b01610ed6825180938680850191016110f1565b0103808552018361106e565b60405190610eef82611038565b60118252701e109696bbb0ba32b939b1b2b73296969f60791b6020830152614293565b610f2f91503d806000833e610f27818361106e565b810190611277565b88610e96565b6040513d6000823e3d90fd5b6000919350610f59903d8084833e610f27818361106e565b9290610dc7565b610f769192503d806000833e610f27818361106e565b9083610cfe565b346101c45760203660031901126101c4576004359063ffffffff60e01b82168092036101c45760209163152a902d60e11b8114908115610fbf575b5015158152f35b6380ac58cd60e01b811491508115610ff1575b8115610fe0575b5083610fb8565b6301ffc9a760e01b14905083610fd9565b635b5e139f60e01b81149150610fd2565b608081019081106001600160401b038211176107a957604052565b606081019081106001600160401b038211176107a957604052565b604081019081106001600160401b038211176107a957604052565b602081019081106001600160401b038211176107a957604052565b90601f801991011681019081106001600160401b038211176107a957604052565b6001600160401b0381116107a957601f01601f191660200190565b81601f820112156101c4578035906110c18261108f565b926110cf604051948561106e565b828452602083830101116101c457816000926020809301838601378301015290565b60005b8381106111045750506000910152565b81810151838201526020016110f4565b9060209161112d815180928185528580860191016110f1565b601f01601f1916010190565b600435906001600160a01b03821682036101c457565b602435906001600160a01b03821682036101c457565b60406003198201126101c457600435906001600160401b0382116101c45761118f916004016110aa565b9060243590565b60609060031901126101c4576001600160a01b039060043582811681036101c4579160243590811681036101c4579060443590565b60409060031901126101c4576004359060243590565b346101c4576101c06101ac6111f5366111cb565b90612ade565b602061123091939293604051948161121c87935180928680870191016110f1565b8201610ed6825180938680850191016110f1565b565b81601f820112156101c45780516112488161108f565b92611256604051948561106e565b818452602082840101116101c45761127491602080850191016110f1565b90565b906020828203126101c45781516001600160401b0381116101c4576112749201611232565b90600182811c921680156112cc575b60208310146112b657565b634e487b7160e01b600052602260045260246000fd5b91607f16916112ab565b600411156112e057565b634e487b7160e01b600052602160045260246000fd5b60049195989397969498611309876112d6565b866117f75760405161131a81611038565b60018152605360f81b6020820152995b600e546040516371a9730560e01b81529460009186919082906001600160a01b03165afa938415610f35576000946117da575b506113c7604a60405180956b1e3932b1ba103334b6361e9160a11b6020830152611391815180926020602c860191016110f1565b81017f222077696474683d223130383022206865696768743d2231303830222f3e0000602c82015203602a81018652018461106e565b604051998a93600090600d546113dc8161129c565b906001908181169081156117b45750600114611752575b505093611420602061143d98956114208261142e9761142082896114208e839f9c849d51948592016110f1565b0191828151948592016110f1565b0103601f19810188528761106e565b60405193611562609c866020810198713c6d61736b2069643d226d6f6f6e4d61736b60701b8a528b519660208d019761147a81603286018b6110f1565b7f223e3c726563742066696c6c3d2223666666222077696474683d2231303830226032918501918201526f103432b4b3b43a1e9118981c1811179f60811b6052820152701e3ab9b290343932b31e9111b6b7ba34b360791b60628201528d51906114e882607383018c6110f1565b017f222066696c7465723d2275726c28236d616b65426c61636b29222f3e3c2f6d6160738201526239b59f60e91b609382015261152f8251809360206096850191016110f1565b016115448251809360206096850191016110f1565b01651e17b9bb339f60d11b609682015203607c81018852018661106e565b6040519061156f8261101d565b603282527f3c75736520687265663d22236c69676874686f757365222066696c7465723d226020830152713ab9361411b6b0b5b2a13630b1b59491179f60711b60408301526115bd816112d6565b61173c575b604051928360208101957f3c2f673e3c6d61736b2069643d226e696768744d61736b00000000000000000087528a5180603784019061160191866110f1565b82019361111f60f11b94856037820152603981017f3c726563742066696c6c3d2223666666222077696474683d223130383022206890526d32b4b3b43a1e9118981c1811179f60911b605982015281519182606783019160200191611665926110f1565b018151918260678301916020019161167c926110f1565b0160678101661e17b6b0b9b59f60c91b905203604e81018552606e016116a2908561106e565b60405198888a9951908160208c0191602001916116be926110f1565b8901906b1e339034b21e9136b7ba34b360a11b6020830152519182602c83016116e6926110f1565b0190602c82015281519182602e83019160200191611703926110f1565b0190519182602e8301611715926110f1565b0190519182602e8301611727926110f1565b0103600e81018252602e01611274908261106e565b5060405161174981611053565b600081526115c2565b90919250600d6000527fd7b6990105719101dabeb77144f2a3385c8033acd3af97e9423a695e81ad1eb5906000915b83831061179d57505050850160209081019190611420906113f3565b805460209984018a01528f98909201918101611781565b60ff191660208a8101919091528315159093028901830194506114209291506113f39050565b6117f09194503d806000833e610f27818361106e565b923861135d565b60405161180381611038565b60018152604760f81b60208201529961132a565b6040519061182482611038565b60068252653434b23232b760d11b6020830152565b6040519061184682611038565b600782526676697369626c6560c81b6020830152565b519081151582036101c457565b600e546040805163228b974b60e01b8152600481018590526001600160a01b0390921694939092916000919082816024818a5afa908115611c3d5783908492611bbc575b50608091600261195f6119206118e8611999958b516118cb81611038565b6009815260209b681e109696b1b196969f60b91b8d830152614293565b84611bae576118f5611839565b905b8b519061190382611038565b600c82526b1e109696b837b630b916969f60a11b8c830152614293565b60018403611ba057611930611839565b905b8a519061193e82611038565b601082526f1e109696ba32b6b832b930ba3296969f60811b8b830152614293565b9103611b925761196d611839565b905b87519061197b82611038565b600d82526c1e109696b232b9b2b93a16969f60991b88830152614293565b91602486518099819363b4d6438b60e01b835260048301525afa908115611b88578290839184988594611b08575b50611a8892611a12611274999a93611a4b93600014611afa576119e8611839565b905b8a51906119f682611038565b600b82526a1e109696b1b4ba3c96969f60a91b8b830152614293565b9015611aec57611a20611839565b905b885190611a2e82611038565b600c82526b1e109696b934bb32b916969f60a11b89830152614293565b9015611ade57611a59611839565b905b865190611a6782611038565b601082526f1e109696b6b7bab73a30b4b73996969f60811b87830152614293565b915015611ac0576b1e109696b7b1b2b0b716969f60a11b611aa7611839565b935b5192611ab484611038565b600c8452830152614293565b6b1e109696b7b1b2b0b716969f60a11b611ad8611817565b93611aa9565b611ae6611817565b90611a5b565b611af4611817565b90611a22565b611b02611817565b906119ea565b9850509150506080863d608011611b80575b81611b276080938361106e565b81010312611b7c57611a8886611a4b611b43611274989961185c565b91611a12611b5288830161185c565b95611b6a6060611b638c860161185c565b940161185c565b94969294969350939a995050926119c7565b5080fd5b3d9150611b1a565b84513d84823e3d90fd5b611b9a611817565b9061196f565b611ba8611817565b90611932565b611bb6611817565b906118f7565b9150503d8084833e611bce818361106e565b810190606081830312611c39578051916001600160401b0392838111611c355781611bfa918401611232565b926020830151908111611c355761195f6119206118e88a86611c26608099976002976119999a01611232565b500151965050505050906118ad565b8580fd5b8380fd5b85513d85823e3d90fd5b15611c4e57565b60405162461bcd60e51b815260206004820152601260248201527113585e081cdd5c1c1b1e481c995858da195960721b6044820152606490fd5b600854811015611cbf5760086000527ff3f7a9fe364faab93b216da50a3214154f22a0a2b415b23a84c8169e8b636ee30190600090565b634e487b7160e01b600052603260045260246000fd5b919082039182116102bd57565b919082018092116102bd57565b6001600160a01b039182169290918315611e7857600092828452826020956002875260409684888820541696879133151580611ddf575b509060027fddf252ad1be2c89b69c2b068fc378daa952ba7f163c4a11628f55a4df523b3ef9284611dac575b858352600381528b8320805460010190558683525289812080546001600160a01b0319168517905580a41692838303611d8b5750505050565b6064945051926364283d7b60e01b8452600484015260248301526044820152fd5b600087815260046020526040902080546001600160a01b0319169055848352600381528b83208054600019019055611d52565b91939450915080611e37575b15611dfb57859291879138611d26565b878688611e18576024915190637e27328960e01b82526004820152fd5b905163177e802f60e01b81523360048201526024810191909152604490fd5b503387148015611e5c575b80611deb5750858252600481523385898420541614611deb565b5086825260058152878220338352815260ff8883205416611e42565b604051633250574960e11b815260006004820152602490fd5b90670de0b6b3a7640000918281029281840414901517156102bd57565b90612710918281029281840414901517156102bd57565b81156108f2570490565b919290611f36611f10611f4893610c34611f0a60405195611eef87611038565b60098752686165726f706c616e6560b81b60208801526140d7565b91614240565b60405194633235ac6d60e01b865260048601526101a060248601526101a4850190611114565b83810360031901604485015290611114565b918180600094859384606484015284608484015260a48301528360c4830152600160e483015260036101048301526078610124830152603c6101448301526064610164830152603c610184830152038173__$2d8ca8bf86eea40aef689c316826963c89$__5af4918215611fd5578092611fc157505090565b61127492503d8091833e610f27818361106e565b604051903d90823e3d90fd5b6001600160401b0381116107a95760051b60200190565b6020818303126101c4578051906001600160401b0382116101c457016101209182828203126101c4576040519283018381106001600160401b038211176107a95760405281516001600160401b0381116101c45781612058918401611232565b83526020820151602084015260408201516040840152606082015160608401526080820151608084015260a08201516001600160401b0381116101c457816120a1918401611232565b60a084015260c08201516001600160401b0381116101c45781601f8285010112156101c45780830151906120d482611fe1565b916120e2604051938461106e565b808352602083018460208360051b8589010101116101c457602083870101905b60208360051b85890101018210612346575050505060c084015260e08201516001600160401b0381116101c45781601f8285010112156101c457808301519061214a82611fe1565b92612158604051948561106e565b82845260208401908060208560051b8589010101116101c457602083870101915b60208560051b858901010183106121ab57505050505060e0830152610100809101519060048210156101c45782015290565b82516001600160401b0381116101c45760a088860182018403601f1901126101c4576040519160a083018381106001600160401b0382111761233157604052602082878b01010151600390818110156101c4578452604083888c01010151908110156101c4576020840152606082878b010101516001600160401b0381116101c45784603f82858a8e0101010112156101c457808760208c9386838601010101519187604061225985611fe1565b956122668251978861106e565b858752838960208901968860051b930101010101116101c4578991868e60408483878401010101925b60408760051b868589860101010101841061232157505050505050506040840152608082878b010101516001600160401b0381116101c4578460206122da92858a8e01010101611232565b606084015260a082878b01010151906001600160401b0382116101c45760209361230f868680969581968f8d01010101611232565b60808201528152019301929050612179565b835181526020938401930161228f565b60246000634e487b7160e01b81526041600452fd5b81516001600160401b0381116101c45760e088860182018803601f1901126101c4576040519061237582611002565b602081878b010101516001600160401b0381116101c45788602061239f92848a8e01010101611232565b8252604081878b010101516001600160401b0381116101c45781878b01010188603f820112156101c4576020810151906123d882611fe1565b916123e6604051938461106e565b808352602083018b60408360051b850101116101c45760408301905b60408360051b85010182106124945750505050602083015287607f82888c01010112156101c45760405161243581611002565b898960e0848a8594010101116101c4578a90886060858285010101915b60e08683860101018310612484575050505060408301528886010160e001516060820152815260209182019101612102565b8251815260209283019201612452565b815160ff811681036101c457815260209182019101612402565b9064e8d4a51000918281029281840514901517156102bd57565b90612710918281029281840514901517156102bd57565b91908260409103126101c4576020825192015190565b908160609103126101c4578051916040602083015192015190565b94919260e0969399989794919961010087019a61252c816112d6565b8752602087015260408601526060850152608084015260a083015260c08201520152565b6040519061255d82611038565b60118252701e109696bbb0ba32b931b7b637b916969f60791b6020830152565b908160209103126101c4575190565b600311156112e057565b916080838303126101c4578251906001600160401b03918281116101c457836125c0918601611232565b9360208101518381116101c457846125d9918301611232565b9360408201518481116101c457816125f2918401611232565b9360608301519081116101c4576112749201611232565b98959161268c979261267d966101209a9661266f969d9e9d60408e61263961266198610140808452830190611114565b966020820152015260608d015261264f8161258c565b60808c01528a820360a08c0152611114565b9088820360c08a0152611114565b9086820360e0880152611114565b90848203610100860152611114565b931515910152565b908152604081019291906020906126aa836112d6565b0152565b60209081818403126101c45780516001600160401b03918282116101c457019083601f830112156101c45781516126e481611fe1565b946040926126f5604051978861106e565b828752858088019360051b860101948286116101c457868101935b86851061272257505050505050505090565b84518381116101c457820160e09182601f1983880301126101c457875192808401848110878211176123315789528a8301518681116101c457878c61276992860101611232565b8452888301518b850152606092838101518a860152608093848201519086015260a093848201519086015260c093848201519086015201519260038410156101c4578a938493820152815201940193612710565b9190916040818403126101c4578051926001600160401b03938481116101c457816127e9918401611232565b9360208301519081116101c4576112749201611232565b94939796959791909161281b60e09384885284880190611114565b93602092838801526040906040880152606094878103606089015282518082528482019185808360051b8301019501926000915b83831061291c57505050505060809087830360808901528651948584528484019285808860051b8701019901976000955b88871061289f57505050505050505050509060c0919460a08201520152565b909192939495969798998880600192601f19858203018a528d51906128cb82518a83528a830190611114565b9183810151848301528a8101518b8301528781015188830152888101518983015260a0808201519083015260c080910151916129068361258c565b01529c0197019701959897969493929190612880565b9091929395601f999798991982820301835288875191896129458d855190808552840190611114565b938381015194838103858501528480875192838152019601906000905b8082106129b957505050808a0151600090848c015b6004831061299f57505050015160c0909101529799989790968101949360010192019061284f565b815181528f968f9550600193909301929182019101612977565b825160ff168852968601968f968f95509290920191600190910190612962565b6129ed604092604083526040830190611114565b906020908181840391015283519182815281810182808560051b8401019601946000906000935b868510612a2657505050505050505090565b9091929394959697601f1982820301855286895160a08084018251612a4a8161258c565b855283830151612a598161258c565b8486015286830151918786015281518091528360c0860192019088905b808210612ac4575050506001938392612a9f612ab2936060808401519085830390860152611114565b9160808092015191818403910152611114565b9a019501950193969594929190612a14565b825184528c95938401939092019160019190910190612a76565b600e54909190612afe906001600160a01b03165b6001600160a01b031690565b604051632548117960e01b81526004810184905290600090829060249082905afa90811561326d576000916135c6575b5060a081015192612b4260208301516124ae565b916040612b51818301516124ae565b612b5a86611e91565b82516375cbcb7960e11b81526004810196909652602486019190915260448501528360648173__$a216d4fe4243b110e5694abc7741cd783a$__5af493841561326d5760009360009561359f575b506003831461359057612bba81611e91565b6040612bc960208501516124ae565b612bd5828601516124ae565b8251632c0f47d960e21b81526004810194909452602484019190915260448301528160648173__$a216d4fe4243b110e5694abc7741cd783a$__5af490811561326d57655af3107a40009160009160009161355f575b50905b60008389612c87612c4260808a0151611eae565b8b612c5060608c0151611eae565b91604051998a96879663955cb78f60e01b885205920590600486019094939260609260808301968352602083015260408201520152565b038173__$2d8ca8bf86eea40aef689c316826963c89$__5af492831561326d57600093613542575b50612cbd60208601516124ae565b966060612ccd60408801516124ae565b612cd687611e91565b604051633b7eb8ed60e21b8152600481019b909b5260248b019190915260448a01528860648173__$a216d4fe4243b110e5694abc7741cd783a$__5af4801561326d5760009860009060009261351b575b50612d556060612d3689611e91565b60405180938192633d5756df60e21b8352600483019190602083019252565b038173__$a216d4fe4243b110e5694abc7741cd783a$__5af492831561326d576000916000946134e6575b506101008a015192612d91846112d6565b60608b0151612d9f906124c8565b9c60808c0151612dae906124c8565b9d6040519e8f976307704b9360e01b8952655af3107a4000900595655af3107a4000900594655af3107a4000900593655af3107a4000900592655af3107a40009005916004890197612dff98612510565b038873__$2d8ca8bf86eea40aef689c316826963c89$__91815a93600094f497881561326d576000986134c9575b50612e53612e43662386f26fc100008b0561472f565b909b612e4d612550565b90614293565b60405162a0a51960e61b815260048101899052600060248201526002604482015290919060208160648173__$2d8ca8bf86eea40aef689c316826963c89$__5af4801561326d5760049160009161349a575b50612eaf8161258c565b61010089015190612ebf826112d6565b612ec8826112d6565b612ed18161258c565b6002810361335357600e54600090612ef1906001600160a01b0316612af2565b60405163cba4cbbd60e01b815294859182905afa93841561326d578a6000958f9295662386f26fc1000096612f6d95655af3107a40009a8a928b938c958d9761331e575b506060612f4891959697985b01516124c8565b60405163d79783a760e01b81529d8e9c8d9c15159a9294920592059060048c01612609565b038173__$2d8ca8bf86eea40aef689c316826963c89$__5af490811561326d57600091613303575b506000655af3107a40006101008801519a612faf8c6112d6565b612fce6040519c8d93849363fecb0d4f60e01b85520560048401612694565b038173__$2d8ca8bf86eea40aef689c316826963c89$__5af498891561326d576000996132e3575b50600e5460049190600090613013906001600160a01b0316612af2565b60405163485c475f60e01b815293849182905afa91821561326d57889460009488946130619387916132c1575b5060c08b015160405163582bca4760e11b81529c8d97889760048901612800565b038173__$2d8ca8bf86eea40aef689c316826963c89$__5af493841561326d57600095600095613291575b5060006130b694959660e083015190604051968792839263c2209fb960e01b8452600484016129d9565b038173__$2d8ca8bf86eea40aef689c316826963c89$__5af493841561326d57600094613272575b50839461314494926130fb60808401516060850151908385611ecf565b9660006131168361311162015180420642611cd5565b611ce2565b6080860151604051634b54268f60e01b81526004810191909152602481019190915297889081906044820190565b038173__$2d8ca8bf86eea40aef689c316826963c89$__5af496871561326d57600097613250575b50600161010085015161317e816112d6565b613187816112d6565b1461323c575b50600261010084015161319f816112d6565b6131a8816112d6565b1461322b575b60036101008401516131bf816112d6565b6131c8816112d6565b1461321a575b6101008301516131dd816112d6565b6131e6816112d6565b613204575b50506101000151611274986131ff826112d6565b6112f6565b61320e9293614036565b906101006112746131eb565b928361322591611869565b926131ce565b92836132369161378f565b926131ae565b81945090613249916135e9565b923861318d565b6132669197503d806000833e610f27818361106e565b953861316c565b610f35565b613144945061328b903d806000833e610f27818361106e565b936130de565b600096506130b69495506132b6903d8089833e6132ae818361106e565b8101906127bd565b96909695945061308c565b6132dd91503d8089833e6132d5818361106e565b8101906126ae565b38613040565b60049199506132fc903d806000833e610f27818361106e565b9890612ff6565b61331891503d806000833e610f27818361106e565b38612f95565b9050612f489650613346919550606094503d808e833e61333e818361106e565b810190612596565b9750959094909190612f35565b61335c8161258c565b8061340057600e54600090613379906001600160a01b0316612af2565b604051630f773e0b60e41b815294859182905afa92831561326d578a6000958f9295662386f26fc1000096612f6d95655af3107a40009a8a948b958c948d966133d2575b506060612f4891979596975b95969798612f41565b9050612f489650606095506133f29194503d808e833e61333e818361106e565b9197509095909491906133bd565b600e54600090613418906001600160a01b0316612af2565b60405163018a5f4d60e01b815294859182905afa92831561326d578a6000958f9295662386f26fc1000096612f6d95655af3107a40009a8a948b958c948d9661346c575b506060612f4891979596976133c9565b9050612f4896506060955061348c9194503d808e833e61333e818361106e565b91975090959094919061345c565b6134bc915060203d6020116134c2575b6134b4818361106e565b81019061257d565b38612ea5565b503d6134aa565b6134df9198503d806000833e610f27818361106e565b9638612e2d565b90935061350b915060603d606011613514575b613503818361106e565b8101906124f5565b93905038612d80565b503d6134f9565b91505061353891985060603d60601161351457613503818361106e565b9098919838612d27565b6135589193503d806000833e610f27818361106e565b9138612caf565b9050613583915060403d604011613589575b61357b818361106e565b8101906124df565b38612c2b565b503d613571565b655af3107a4000600080612c2e565b9094506135bc91935060403d6040116135895761357b818361106e565b9290929338612ba8565b6135e391503d806000833e6135db818361106e565b810190611ff8565b38612b2e565b600e54604080516312591c3f60e11b815260048101859052600095946001600160a01b03909316938691908282602481895afa9182156136f25790613658929184926136d5575b5084519061363d82611038565b60098252681e109696b13196969f60b91b6020830152614293565b9260248351809681936373075aff60e01b835260048301525afa9283156136cb57856112749596946136ad575b5050519061369282611038565b60098252681e109696b9b196969f60b91b6020830152614293565b6136c29294503d8091833e6132ae818361106e565b50913880613685565b81513d87823e3d90fd5b6136ea9192503d8086833e6132ae818361106e565b509038613630565b84513d85823e3d90fd5b519069ffffffffffffffffffff821682036101c457565b908160a09103126101c457613727816136fc565b916020820151916040810151916112746080606084015193016136fc565b805115611cbf5760200190565b805160011015611cbf5760400190565b8051821015611cbf5760209160051b010190565b69ffffffffffffffffffff1680156102bd576000190190565b9160409283519261379f84611002565b8451916137ab83611038565b600493848452602093636d696e6960e01b85820152865286516137cd81611038565b858152636d69646960e01b85820152848701528651926137ec84611038565b60059360058152646c6172676560d81b8682015288880152875161380f81611038565b868152636d65676160e01b86820152606088015260018060a01b039283600e5416948951631c6e9c1560e01b8152838982015260249988828c818b5afa918215613ead57600092614007575b506000929190898c8e5b8d8710613f8757955050505050505190630bc90ad560e41b8252828883015286828a81895afa8015613f2457600090613f51575b6138d8925015613f43576138ab611839565b905b8a51906138b982611038565b600e82526d1e109696b1b7b0b9ba30b616969f60911b89830152614293565b9288519461022086018681106001600160401b03821117613f2f578a52866010936010885261020036838a01378a8c51809481936313aa362d60e01b83528d8301525afa908115613f2457600091613eeb575b501694885191633fabe5a360e21b835260a080848a818b5afa8015613ee057600094600090600092613eb8575b5061396289613745565b5261396c88613752565b528a51633942720b60e11b8152936000858b818c5afa948515613ead57600095613e8c575b509061399d8c92613776565b986002998c6002945b8d878710613dc55750505050505050506139bf85613745565b51926139ca86613745565b519460005b8751811015613a4157856139e3828a613762565b5110613a2e575b866139f5828a613762565b5111613a1b575b888101809111156139cf578a60118b634e487b7160e01b600052526000fd5b9550613a278688613762565b51956139fc565b9450613a3a8588613762565b51946139ea565b509299919484613a5391959295611cd5565b90613a5d87613752565b518751600019969190878101908111613db15790613a7e613a85928b613762565b5190611cd5565b906060956000965b8a51881015613c68576001808901808a11613c5357613aac908d613762565b518c518b8101908111613c265790613a7e613ac7928f613762565b61015e90818102918183041490151715613c535785613ae591611ec5565b9160288301809311613c5357613b0687613b008f8d90613762565b51611cd5565b60969081810290808204831490151715613c3c5789613b2491611ec5565b8103908111613c26576102a88101809111613c2657918c91613bde938c15600014613c0357613b72613b6c8d51613b5a81611038565b858152604d60f81b87820152976140d7565b916140d7565b908c519683613b8a89955180928980890191016110f1565b8401613b9e825180938980850191016110f1565b01613bb1825180938880850191016110f1565b01600160fd1b85820152613bd0602195835193849188850191016110f1565b01039081018452018261106e565b968b8101809111613bef5796613a8d565b8d60118e634e487b7160e01b600052526000fd5b613b72613b6c8d51613c1481611038565b858152601360fa1b87820152976140d7565b50508e60118f634e487b7160e01b600052526000fd5b5050508e60118f634e487b7160e01b600052526000fd5b508e60118f634e487b7160e01b600052526000fd5b959b5098509b945050505061127497506b1e109696b1b430b93a16969f60a11b939550611aa79250613d0e605b88518093681e3830ba3410321e9160b91b8a830152613cbd815180928c6029860191016110f1565b81017f222066696c6c3d226e6f6e6522207374726f6b653d22234646444231392220736029820152713a3937b5b296bbb4b23a341e911a1110179f60711b604982015203603b81018452018261106e565b613dac6076885180947f3c7465787420783d2232302220793d22363230222066696c6c3d2223393430308a8301527f45332220666f6e742d66616d696c793d22417269616c2d426c61636b2220666f8b8301526e373a16b9b4bd329e91191a383c111f60891b6060830152613d8c815180928c606f860191016110f1565b8101661e17ba32bc3a1f60c91b606f82015203605681018552018361106e565b6111fb565b8c60118d634e487b7160e01b600052526000fd5b859151928391639a6fc8f560e01b835269ffffffffffffffffffff86169083015281865afa908115613e81576000908192613e4e575b50613e06868d613762565b5260018501808611613e3a5790613e21613e2793928d613762565b52613776565b928a8101809111613db157928c8e6139a6565b8e60118f634e487b7160e01b600052526000fd5b9050613e709150843d8611613e7a575b613e68818361106e565b810190613713565b5092505038613dfb565b503d613e5e565b8f513d6000823e3d90fd5b61399d919550613ea6903d806000833e610f27818361106e565b9490613991565b8c513d6000823e3d90fd5b91505081613ed39295503d8611613e7a57613e68818361106e565b5091959290509438613958565b8b513d6000823e3d90fd5b8781813d8311613f1d575b613f00818361106e565b81010312611b7c5751908282168203613f1a57503861392b565b80fd5b503d613ef6565b8a513d6000823e3d90fd5b8960418a634e487b7160e01b600052526000fd5b613f4b611817565b906138ad565b508682813d8311613f80575b613f67818361106e565b810103126101c457613f7b6138d89261185c565b613899565b503d613f5d565b613fdd6027613ff294899a946216969f60e91b613fc9958b9c60019a9b9c1b8b015190519684633c212d2d60e01b8996870152825192839186880191016110f1565b83019182015203600781018452018261106e565b858811613fff57613fec611839565b91614293565b9401929190898c8e613865565b613fec611817565b9091508881813d831161402f575b61401f818361106e565b810103126101c45751903861385b565b503d614015565b916040519162a0a51960e61b83526004830152600060248301526012604483015260208260648173__$2d8ca8bf86eea40aef689c316826963c89$__5af4801561326d5761408c926000916140b8575b50612ade565b6040516112749261409c82611038565b600a8252691e109696b7333a16969f60b11b6020830152614293565b6140d1915060203d6020116134c2576134b4818361106e565b38614086565b806000917a184f03e93ff9f4daa797ed6e38ed64bf6a1f01000000000000000080821015614232575b506d04ee2d6d415b85acef810000000080831015614223575b50662386f26fc1000080831015614214575b506305f5e10080831015614205575b50612710808310156141f6575b5060648210156141e6575b600a809210156141dc575b60019081602160018601956141718761108f565b9661417f604051988961106e565b80885261418e601f199161108f565b01366020890137860101905b6141a6575b5050505090565b600019019083906f181899199a1a9b1b9c1cb0b131b232b360811b8282061a8353049182156141d75791908261419a565b61419f565b916001019161415d565b9190606460029104910191614152565b60049193920491019138614147565b6008919392049101913861413a565b6010919392049101913861412b565b60209193920491019138614119565b604093508104915038614100565b61127490610c3460008212918260001461427d5760405161426081611038565b60018152602d60f81b6020820152925b156140d7576000036140d7565b60405161428981611053565b6000815292614270565b909291928190825192815186519360209788808095019501908785604051019301938585019881111561430a575b5050508394508095939160405195869103910301945b8382106142fb5750506000848401968701525050603f909301601f19166040528252565b815181529082019082016142d7565b90919293959450602181870301968a600093600082851015614400575b601f859998979916830360031b9851965b88518881188b1c1561437457815260018091019801988b8a101561435e575b9897614338565b505050959750505050509183925b3880806142c1565b918497949598919a92819d94979a9c9d6143b9575b50505050505b818184010151818801520190838210156143ab5790829061438f565b50509201920192839261436c565b90809293949596508a8d20036143d157879594614389565b8a9192989597949c9b9996939a5260018091019801988b8a10614357575050509597505050505091839261436c565b50838620614327565b6000818152600260205260409020546001600160a01b031690811561442c575090565b60249060405190637e27328960e01b82526004820152fd5b600260065414614455576002600655565b604051633ee5aeb560e01b8152600490fd5b604080519261447584611053565b60008085526001600160a01b039484861694919291851561467d578284526020966002885285852054168387821515928361464a575b81885260038b528888208054600101905582885260028b5288882080546001600160a01b031916831790557fddf252ad1be2c89b69c2b068fc378daa952ba7f163c4a11628f55a4df523b3ef8880a4614632573b61450c575b505050505050565b8561454a918596979894955180938192630a85bd0160e11b968784523360048501528960248501526044840152608060648401526084830190611114565b0381878a5af18491816145ee575b506145b7575050503d6000146145af573d6145728161108f565b9061457f8451928361106e565b81528091853d92013e5b805193846145a9578251633250574960e11b815260048101859052602490fd5b84925001fd5b506060614589565b919550915063ffffffff60e01b16036145d7575050388080808080614504565b602492505190633250574960e11b82526004820152fd5b9091508781813d831161462b575b614606818361106e565b8101031261462757516001600160e01b031981168103614627579038614558565b8480fd5b503d6145fc565b84516339e3563760e11b815260048101859052602490fd5b600083815260046020526040902080546001600160a01b031916905580885260038b5288882080546000190190556144ab565b8451633250574960e11b815260048101859052602490fd5b604051906146a282611038565b600782526611b1b29c18333360c91b6020830152565b604051906146c582611038565b60078252662366396232333360c81b6020830152565b604051906146e882611038565b6007825266119cb11a31b13360c91b6020830152565b6040519061470b82611038565b600482526311b3333360e11b6020830152565b906011811015611cbf5760051b0190565b60409182519261022084018481106001600160401b038211176107a9578082526147588161101d565b612327198152614766614695565b6102408601526147746146b8565b610260860152845280516147878161101d565b6104af198152614795614695565b90602091828201526147a56146b8565b83820152818601528151906147b98261101d565b6102bb1982528251916147cb83611038565b600792838152660236537383063360cc1b838201528282015283516147ef81611038565b838152662365306234333960c81b83820152848201528387015282516148148161101d565b61018f198152835161482581611038565b838152660236666383038360cc1b8382015282820152835161484681611038565b8381526611b19c311b19b360c91b8382015284820152606087015282519161486d8361101d565b60009260008152845161487f81611038565b8281526611b3331c9c9c1b60c91b848201528382015284516148a081611038565b828152662361666238343560c81b8482015285820152608088015283516148c68161101d565b61012c815284516148d681611038565b828152662366666232386360c81b848201528382015284516148f781611038565b828152662339366239346360c81b848201528582015260a0880152835161491d8161101d565b6102bc8152845161492d81611038565b8281526611b333321c9c1b60c91b8482015283820152845161494e81611038565b82815266119bb231311a9960c91b848201528582015260c088015283516149748161101d565b61044c8152845161498481611038565b828152660236666666638360cc1b848201528382015284516149a581611038565b828152660466c6ac4c86a760cb1b848201528582015260e088015283516149cb8161101d565b6105dc815284516149db81611038565b828152660236330656163360cc1b848201528382015284516149fc81611038565b828152662334636266356560c81b84820152858201526101008801528351614a238161101d565b6109c4908181528551614a3581611038565b83815266119c18321ab33360c91b85820152848201528551614a5681611038565b838152662335376166366360c81b85820152868201526101208901528451614a7d8161101d565b61070881528551614a8d81611038565b838152660466e6ec66ecc760cb1b85820152848201528551614aae81611038565b838152662336333965376160c81b8582015286820152610140890152845190614ad68261101d565b81528451614ae381611038565b828152662336646261663160c81b84820152838201528451614b0481611038565b828152660466cca70ca70760cb1b84820152858201526101608801528351614b2b8161101d565b610dac81528451614b3b81611038565b828152662336346163656160c81b84820152838201528451614b5c81611038565b828152662337393764393560c81b84820152858201526101808801528351614b838161101d565b61125c81528451614b9381611038565b8281526608cd584e59594d60ca1b84820152838201528451614bb481611038565b828152662338343664613360c81b84820152858201526101a08801528351614bdb8161101d565b61177081528451614beb81611038565b8281526608cd4c4e4c191960ca1b84820152838201528451614c0c81611038565b828152662339303563623160c81b84820152858201526101c08801528351614c338161101d565b611c8481528451614c4381611038565b82815266119a1b9c19b21b60c91b8482015283820152614c616146db565b858201526101e0880152835190614c778261101d565b611f408252845190614c8882611038565b8152661199b29b9ab1b360c91b8382015282820152614ca56146db565b84820152610200870152614cb76146fe565b94614cc06146fe565b956000935b601180861015614d7257614cd9868b61471e565b5151841215614cef575b50600190940193614cc5565b60108603614d1b5750505050614d1592939450614d0c828761471e565b5101519461471e565b51015190565b60018692939495960190818311614d605750614d37908a61471e565b51518412614d4a57939291906001614ce3565b9392505050614d1592939450614d0c828761471e565b634e487b7160e01b8452600452602483fd5b509097505050505050565b813b614d8a575b50505050565b604051630a85bd0160e11b8082523360048301526001600160a01b03928316602483015260448201949094526080606482015260209592909116939092908390614dd8906084830190611114565b039285816000958187895af1849181614e81575b50614e4c575050503d600014614e44573d614e068161108f565b90614e14604051928361106e565b81528091843d92013e5b80519283614e3f57604051633250574960e11b815260048101849052602490fd5b019050fd5b506060614e1e565b919450915063ffffffff60e01b1603614e69575038808080614d84565b60249060405190633250574960e11b82526004820152fd5b9091508681813d8311614eba575b614e99818361106e565b8101031261462757516001600160e01b031981168103614627579038614dec565b503d614e8f565b8151919060418303614ef257614eeb92506020820151906060604084015193015160001a90614f88565b9192909190565b505060009160029190565b614f06816112d6565b80614f0f575050565b614f18816112d6565b60018103614f325760405163f645eedf60e01b8152600490fd5b614f3b816112d6565b60028103614f5c5760405163fce698f760e01b815260048101839052602490fd5b80614f686003926112d6565b14614f705750565b602490604051906335e2f38360e21b82526004820152fd5b91907f7fffffffffffffffffffffffffffffff5d576e7357a4501ddfe92f46681b20a0841161500057926020929160ff608095604051948552168484015260408301526060820152600092839182805260015afa15611fd55780516001600160a01b03811615614ff757918190565b50809160019190565b5050506000916003919056fea264697066735822122084df137ae3a4c954440b215180c7e7c0080bd59de729657406f0ef6f888f077464736f6c63430008190033","linkReferences":{"contracts/NDRenderer.sol":{"NDRenderer":[{"start":8886,"length":20},{"start":9083,"length":20},{"start":9281,"length":20},{"start":13686,"length":20},{"start":16999,"length":20},{"start":17375,"length":20},{"start":17499,"length":20},{"start":17741,"length":20},{"start":17838,"length":20},{"start":17985,"length":20},{"start":18070,"length":20},{"start":18212,"length":20},{"start":22075,"length":20}]},"contracts/SunCalc.sol":{"SunCalc":[{"start":16733,"length":20},{"start":16856,"length":20},{"start":17114,"length":20},{"start":17205,"length":20}]}}},"methodIdentifiers":{"approve(address,uint256)":"095ea7b3","balanceOf(address)":"70a08231","generateNFT(uint256)":"584f3c3f","generateNFT(uint256,uint256)":"40709fe1","getApproved(uint256)":"081812fc","isApprovedForAll(address,address)":"e985e9c5","maxSupply()":"d5abeb01","mint()":"1249c58b","motifDataManager()":"386b2304","name()":"06fdde03","ownerOf(uint256)":"6352211e","renderAirplanes(uint256,uint256,uint256,int256)":"2ca89852","renderBeachTraits(string,uint256)":"abca27bd","renderCityTraits(string,uint256)":"f73a6a8a","renderLandscapeTraits(string,uint256)":"0e931f30","renderNFT(string,uint8,string,string,string,string,string,string,string)":"08457ad1","renderNFTInside(string,uint256,uint256)":"fe363e24","renderWaterScene(string,uint256,uint256,uint256,int256)":"06945b3a","reservedMint(bytes)":"ec24f692","reservedSupply()":"44d19d2b","royaltyInfo(uint256,uint256)":"2a55205a","safeTransferFrom(address,address,uint256)":"42842e0e","safeTransferFrom(address,address,uint256,bytes)":"b88d4fde","setApprovalForAll(address,bool)":"a22cb465","supportsInterface(bytes4)":"01ffc9a7","symbol()":"95d89b41","tokenURI(uint256)":"c87b56dd","tokenUriWithTime(uint256,uint256)":"709c163e","totalSupply()":"18160ddd","transferFrom(address,address,uint256)":"23b872dd"},"id":2}