{"abi":[{"type":"constructor","inputs":[{"name":"_motifDataManager","type":"address","internalType":"address"}],"stateMutability":"nonpayable"},{"type":"function","name":"approve","inputs":[{"name":"to","type":"address","internalType":"address"},{"name":"tokenId","type":"uint256","internalType":"uint256"}],"outputs":[],"stateMutability":"nonpayable"},{"type":"function","name":"balanceOf","inputs":[{"name":"owner","type":"address","internalType":"address"}],"outputs":[{"name":"","type":"uint256","internalType":"uint256"}],"stateMutability":"view"},{"type":"function","name":"generateNFT","inputs":[{"name":"tokenId","type":"uint256","internalType":"uint256"},{"name":"timestamp","type":"uint256","internalType":"uint256"}],"outputs":[{"name":"","type":"tuple","internalType":"struct NAD.ConstructedNFT","components":[{"name":"svg","type":"string","internalType":"string"},{"name":"attributes","type":"string","internalType":"string"},{"name":"name","type":"string","internalType":"string"}]}],"stateMutability":"view"},{"type":"function","name":"getApproved","inputs":[{"name":"tokenId","type":"uint256","internalType":"uint256"}],"outputs":[{"name":"","type":"address","internalType":"address"}],"stateMutability":"view"},{"type":"function","name":"isApprovedForAll","inputs":[{"name":"owner","type":"address","internalType":"address"},{"name":"operator","type":"address","internalType":"address"}],"outputs":[{"name":"","type":"bool","internalType":"bool"}],"stateMutability":"view"},{"type":"function","name":"maxSupply","inputs":[],"outputs":[{"name":"","type":"uint256","internalType":"uint256"}],"stateMutability":"view"},{"type":"function","name":"mint","inputs":[],"outputs":[],"stateMutability":"nonpayable"},{"type":"function","name":"motifDataManager","inputs":[],"outputs":[{"name":"","type":"address","internalType":"contract NDMotifDataManager"}],"stateMutability":"view"},{"type":"function","name":"name","inputs":[],"outputs":[{"name":"","type":"string","internalType":"string"}],"stateMutability":"view"},{"type":"function","name":"ownerOf","inputs":[{"name":"tokenId","type":"uint256","internalType":"uint256"}],"outputs":[{"name":"","type":"address","internalType":"address"}],"stateMutability":"view"},{"type":"function","name":"renderBallon","inputs":[{"name":"svg","type":"string","internalType":"string"},{"name":"timestamp","type":"uint256","internalType":"uint256"},{"name":"tokenId","type":"uint256","internalType":"uint256"}],"outputs":[{"name":"","type":"string","internalType":"string"}],"stateMutability":"view"},{"type":"function","name":"renderBeachTraits","inputs":[{"name":"nft","type":"tuple","internalType":"struct NAD.ConstructedNFT","components":[{"name":"svg","type":"string","internalType":"string"},{"name":"attributes","type":"string","internalType":"string"},{"name":"name","type":"string","internalType":"string"}]},{"name":"tokenId","type":"uint256","internalType":"uint256"}],"outputs":[{"name":"","type":"tuple","internalType":"struct NAD.ConstructedNFT","components":[{"name":"svg","type":"string","internalType":"string"},{"name":"attributes","type":"string","internalType":"string"},{"name":"name","type":"string","internalType":"string"}]}],"stateMutability":"view"},{"type":"function","name":"renderCityTraits","inputs":[{"name":"nft","type":"tuple","internalType":"struct NAD.ConstructedNFT","components":[{"name":"svg","type":"string","internalType":"string"},{"name":"attributes","type":"string","internalType":"string"},{"name":"name","type":"string","internalType":"string"}]},{"name":"tokenId","type":"uint256","internalType":"uint256"}],"outputs":[{"name":"","type":"tuple","internalType":"struct NAD.ConstructedNFT","components":[{"name":"svg","type":"string","internalType":"string"},{"name":"attributes","type":"string","internalType":"string"},{"name":"name","type":"string","internalType":"string"}]}],"stateMutability":"view"},{"type":"function","name":"renderLandscapeTraits","inputs":[{"name":"nft","type":"tuple","internalType":"struct NAD.ConstructedNFT","components":[{"name":"svg","type":"string","internalType":"string"},{"name":"attributes","type":"string","internalType":"string"},{"name":"name","type":"string","internalType":"string"}]},{"name":"tokenId","type":"uint256","internalType":"uint256"}],"outputs":[{"name":"","type":"tuple","internalType":"struct NAD.ConstructedNFT","components":[{"name":"svg","type":"string","internalType":"string"},{"name":"attributes","type":"string","internalType":"string"},{"name":"name","type":"string","internalType":"string"}]}],"stateMutability":"view"},{"type":"function","name":"renderNFTInside","inputs":[{"name":"nft","type":"tuple","internalType":"struct NAD.ConstructedNFT","components":[{"name":"svg","type":"string","internalType":"string"},{"name":"attributes","type":"string","internalType":"string"},{"name":"name","type":"string","internalType":"string"}]},{"name":"tokenId","type":"uint256","internalType":"uint256"},{"name":"timestamp","type":"uint256","internalType":"uint256"}],"outputs":[{"name":"","type":"tuple","internalType":"struct NAD.ConstructedNFT","components":[{"name":"svg","type":"string","internalType":"string"},{"name":"attributes","type":"string","internalType":"string"},{"name":"name","type":"string","internalType":"string"}]}],"stateMutability":"view"},{"type":"function","name":"renderWaterScene","inputs":[{"name":"svg","type":"string","internalType":"string"},{"name":"timestamp","type":"uint256","internalType":"uint256"},{"name":"tokenId","type":"uint256","internalType":"uint256"},{"name":"motifType","type":"uint8","internalType":"enum MotifType"}],"outputs":[{"name":"","type":"string","internalType":"string"}],"stateMutability":"view"},{"type":"function","name":"reservedSupply","inputs":[],"outputs":[{"name":"","type":"uint256","internalType":"uint256"}],"stateMutability":"view"},{"type":"function","name":"royaltyInfo","inputs":[{"name":"tokenId","type":"uint256","internalType":"uint256"},{"name":"salePrice","type":"uint256","internalType":"uint256"}],"outputs":[{"name":"","type":"address","internalType":"address"},{"name":"","type":"uint256","internalType":"uint256"}],"stateMutability":"view"},{"type":"function","name":"safeTransferFrom","inputs":[{"name":"from","type":"address","internalType":"address"},{"name":"to","type":"address","internalType":"address"},{"name":"tokenId","type":"uint256","internalType":"uint256"}],"outputs":[],"stateMutability":"nonpayable"},{"type":"function","name":"safeTransferFrom","inputs":[{"name":"from","type":"address","internalType":"address"},{"name":"to","type":"address","internalType":"address"},{"name":"tokenId","type":"uint256","internalType":"uint256"},{"name":"data","type":"bytes","internalType":"bytes"}],"outputs":[],"stateMutability":"nonpayable"},{"type":"function","name":"setApprovalForAll","inputs":[{"name":"operator","type":"address","internalType":"address"},{"name":"approved","type":"bool","internalType":"bool"}],"outputs":[],"stateMutability":"nonpayable"},{"type":"function","name":"supportsInterface","inputs":[{"name":"interfaceId","type":"bytes4","internalType":"bytes4"}],"outputs":[{"name":"","type":"bool","internalType":"bool"}],"stateMutability":"view"},{"type":"function","name":"symbol","inputs":[],"outputs":[{"name":"","type":"string","internalType":"string"}],"stateMutability":"view"},{"type":"function","name":"tokenURI","inputs":[{"name":"tokenId","type":"uint256","internalType":"uint256"}],"outputs":[{"name":"","type":"string","internalType":"string"}],"stateMutability":"view"},{"type":"function","name":"tokenUriWithTime","inputs":[{"name":"tokenId","type":"uint256","internalType":"uint256"},{"name":"timestamp","type":"uint256","internalType":"uint256"}],"outputs":[{"name":"","type":"string","internalType":"string"}],"stateMutability":"view"},{"type":"function","name":"totalSupply","inputs":[],"outputs":[{"name":"","type":"uint256","internalType":"uint256"}],"stateMutability":"view"},{"type":"function","name":"transferFrom","inputs":[{"name":"from","type":"address","internalType":"address"},{"name":"to","type":"address","internalType":"address"},{"name":"tokenId","type":"uint256","internalType":"uint256"}],"outputs":[],"stateMutability":"nonpayable"},{"type":"event","name":"Approval","inputs":[{"name":"owner","type":"address","indexed":true,"internalType":"address"},{"name":"approved","type":"address","indexed":true,"internalType":"address"},{"name":"tokenId","type":"uint256","indexed":true,"internalType":"uint256"}],"anonymous":false},{"type":"event","name":"ApprovalForAll","inputs":[{"name":"owner","type":"address","indexed":true,"internalType":"address"},{"name":"operator","type":"address","indexed":true,"internalType":"address"},{"name":"approved","type":"bool","indexed":false,"internalType":"bool"}],"anonymous":false},{"type":"event","name":"Transfer","inputs":[{"name":"from","type":"address","indexed":true,"internalType":"address"},{"name":"to","type":"address","indexed":true,"internalType":"address"},{"name":"tokenId","type":"uint256","indexed":true,"internalType":"uint256"}],"anonymous":false},{"type":"error","name":"ERC2981InvalidDefaultRoyalty","inputs":[{"name":"numerator","type":"uint256","internalType":"uint256"},{"name":"denominator","type":"uint256","internalType":"uint256"}]},{"type":"error","name":"ERC2981InvalidDefaultRoyaltyReceiver","inputs":[{"name":"receiver","type":"address","internalType":"address"}]},{"type":"error","name":"ERC721IncorrectOwner","inputs":[{"name":"sender","type":"address","internalType":"address"},{"name":"tokenId","type":"uint256","internalType":"uint256"},{"name":"owner","type":"address","internalType":"address"}]},{"type":"error","name":"ERC721InsufficientApproval","inputs":[{"name":"operator","type":"address","internalType":"address"},{"name":"tokenId","type":"uint256","internalType":"uint256"}]},{"type":"error","name":"ERC721InvalidApprover","inputs":[{"name":"approver","type":"address","internalType":"address"}]},{"type":"error","name":"ERC721InvalidOperator","inputs":[{"name":"operator","type":"address","internalType":"address"}]},{"type":"error","name":"ERC721InvalidOwner","inputs":[{"name":"owner","type":"address","internalType":"address"}]},{"type":"error","name":"ERC721InvalidReceiver","inputs":[{"name":"receiver","type":"address","internalType":"address"}]},{"type":"error","name":"ERC721InvalidSender","inputs":[{"name":"sender","type":"address","internalType":"address"}]},{"type":"error","name":"ERC721NonexistentToken","inputs":[{"name":"tokenId","type":"uint256","internalType":"uint256"}]},{"type":"error","name":"ReentrancyGuardReentrantCall","inputs":[]}],"bytecode":{"object":"0x608034610e1757601f1990601f616723388190038281018516840193916001600160401b039182861184871017610e015780849260409788528339602093849181010312610e1757516001600160a01b0381169390849003610e1757610063610e1c565b90600d82526c4e6967687420416e642044617960981b84830152610085610e1c565b906003918281526213899160ea1b86820152835198858a11610e01576000998a54956001968781811c91168015610df7575b8a821014610de357908c8a838880879611610db6575b5050505089908d878411600114610d5c5792610d51575b505060001982871b1c191690861b178a555b815191868311610d3d5785548681811c91168015610d33575b89821014610d1f57908b828a8787969511610ce9575b5050508891858411600114610c8e57508b92610c83575b505060001982851b1c191690841b1783555b826006558651916127e0830183811086821117610c6f57885260bb83526101038684015260628884015260b260608401526101266080840152608060a084015261011560c0840152602460e08401526101009160d883850152610120608c8186015260b0610140860152607961016086015260c761018086015260a56101a08601526101286101c086015260da6101e086015260ed61020086015260a961022086015261010161024086015260c861026086015261011661028086015260176102a086015260876102c086015260236102e086015261011e610300860152604e610320860152601461034086015260c9610360860152610109610380860152606f6103a086015260ec6103c086015260476103e0860152603e61040086015261011261042086015260906104408601526013610460860152607061048086015260e86104a08601526101146104c0860152607d6104e0860152608a61050086015261011861052086015260ac610540860152606561056086015261010e61058086015260746105a086015260446105c086015260086105e08601526049610600860152605c6106208601526038610640860152608361066086015261013e61068086015260866106a086015260546106c086015260316106e0860152601a61070086015260076107208601526101376107408601526022610760860152600d610780860152602c6107a086015261011c6107c086015260be6107e0860152610800850152606661082085015260d2610840850152605f610860850152604661088085015261013a6108a085015261012e6108c085015260b96108e085015260c461090085015261010f610920850152605a610940850152609e610960850152610105610980850152609a6109a085015261013d6109c085015260516109e0850152606a610a008501526026610a20850152610106610a40850152601c610a60850152600a610a808501526097610aa08501526034610ac08501526011610ae08501526035610b0085015260e6610b208501526052610b408501526042610b608501526037610b8085015260eb610ba0850152605b610bc08501526043610be0850152608e610c0085015260f9610c20850152610113610c408501526089610c6085015260ea610c8085015260d1610ca085015261012d610cc08501526019610ce085015260df610d0085015260d0610d208501526032610d4085015260e0610d6085015260a0610d8085015260f0610da0850152606e610dc0850152600b610de085015260d3610e0085015261011a610e2085015260ba610e4085015260af610e6085015261012f610e80850152603c610ea0850152607c610ec085015261013b610ee0850152604c610f008501526009610f208501526033610f408501526027610f608501526068610f808501526056610fa08501526059610fc085015260bf610fe0850152608461100085015260ab61102085015260e461104085015260bc61106085015261010c61108085015261012a6110a0850152866110c08501526110e0840152605361110084015260e561112084015260e161114084015261011761116084015260f361118084015260fc6111a0840152603b6111c084015260ae6111e0840152605d611200840152605e61122084015260166112408401526095611260840152609c6112808401526101396112a0840152607f6112c084015260736112e084015260e261130084015260fe611320840152606161134084015260cb61136084015260c26113808401526113a083015260a86113c083015260d46113e08301526050611400830152600e61142083015261012461144083015260816114608301528761148083015260f76114a083015260b66114c083015260d96114e0830152608561150083015260996115208301526092611540830152606d611560830152610110611580830152606c6115a08301526101046115c08301526101196115e083015261013461160083015260a3611620830152610132611640830152610131611660830152608b61168083015260b86116a083015260966116c083015260986116e0830152601d6117008301526075611720830152601261174083015260a261176083015260776117808301526101236117a083015260a66117c083015260786117e0830152606b61180083015260186118208301528261184083015260ce61186083015261010b61188083015261011d6118a0830152608f6118c08301526101026118e083015260fb611900830152600f61192083015260bd611940830152600261196083015260936119808301526101386119a08301526101366119c0830152602d6119e0830152609f611a008301526021611a20830152602f611a4083015260c0611a60830152610135611a8083015261012c611aa083015260ee611ac083015260d7611ae083015260c1611b0083015286611b20830152610108611b408301526028611b6083015260fd611b8083015260cd611ba08301526055611bc0830152610125611be083015260f5611c0083015260e7611c208301526036611c40830152608d611c60830152604d611c80830152609d611ca08301526071611cc0830152603f611ce0830152604f611d0083015260aa611d20830152610111611d40830152611d6082015260db611d80820152610130611da082015260a1611dc0820152601e611de082015260c3611e008201526039611e208201526060611e408201526064611e608201526005611e8082015260de611ea0820152610122611ec08201526082611ee082015260e9611f0082015260a4611f2082015261011f611f40820152610127611f608201526072611f80820152610107611fa08201526025611fc08201526067611fe08201526088612000820152604161202082015261010d61204082015260c56120608201526045612080820152603d6120a0820152602e6120c082015260a76120e08201526057612100820152604861212082015260cf61214082015261010a6121608201526101336121808201526101216121a0820152601b6121c082015260ad6121e0820152609b61220082015260f861222082015260b16122408201526006612260820152607a61228082015260046122a082015260946122c082015260b46122e08201526010612300820152607b612320820152604b61234082015260fa61236082015260c661238082015260636123a082015260dd6123c082015261011b6123e082015260ff612400820152602b612420820152601561244082015260d5612460820152602961248082015260916124a0820152602a6124c082015260b76124e08201526069612500820152607e612520820152603061254082015260dc61256082015260ca61258082015260cc6125a082015260ef6125c082015260f66125e082015260b561260082015260b3612620820152603a61264082015261012b61266082015260f461268082015260d66126a082015261013c6126c082015260586126e082015260e36127008201526076612720820152604a612740820152610129612760820152600c61278082015260f26127a082015260f16127c08201526007549061013f9182600755808310610c54575b5060078852848820885b838110610c3f57505050505060326008556101c260095584600a558351908482019082821090821117610c2b5784527329c8950157979a0bc26772f1cc74006d6cf9747381526109c49101527509c429c8950157979a0bc26772f1cc74006d6cf97473600b55600c80546001600160a01b031916919091179055516158d09081610e538239f35b634e487b7160e01b86526041600452602486fd5b825161ffff1682820155918601918401610ba4565b60078952858920610c69918101908401610e3b565b38610b9a565b634e487b7160e01b8a52604160045260248afd5b01519050388061013c565b878d52898d20889590939291168d5b8b828210610cd35750508411610cbb575b505050811b01835561014e565b015160001983871b60f8161c19169055388080610cae565b8385015186558a97909501949384019301610c9d565b828a610d0e9452208780870160051c8201928d8810610d16575b0160051c0190610e3b565b8b388a610125565b92508192610d03565b634e487b7160e01b8c52602260045260248cfd5b90607f169061010f565b634e487b7160e01b8b52604160045260248bfd5b0151905038806100e4565b9190858a95168380528c8420935b8d828210610da05750508411610d88575b505050811b018a556100f6565b015160001983891b60f8161c19169055388080610d7b565b8385015186558c97909501949384019301610d6a565b828480610dda9652209181870160051c8301938710610d16570160051c0190610e3b565b8c8a38886100cd565b634e487b7160e01b8d52602260045260248dfd5b90607f16906100b7565b634e487b7160e01b600052604160045260246000fd5b600080fd5b60408051919082016001600160401b03811183821017610e0157604052565b818110610e46575050565b60008155600101610e3b56fe608060408181526004918236101561001657600080fd5b600092833560e01c91826301ffc9a714610d215750816306fdde0314610c54578163081812fc14610c18578163095ea7b314610b3b5781631249c58b146107ad5781631717f5f81461079057816318160ddd1461077157816323b872dd146107595781632a55205a146106bb578163386b23041461069257816340709fe11461067b57816342842e0e1461064c57816344d19d2b1461062d5781634e7632b4146105e85781636352211e146105b7578163709c163e1461059157816370a082311461053c57816395d89b4114610422578163996c7bde146103dd578163a22cb46514610337578163b88d4fde146102c6578163c5421be7146102a9578163c87b56dd14610251578163ce01149414610229578163d5abeb011461020a578163dfa3ae851461019e575063e985e9c51461014e57600080fd5b3461019a578060031936011261019a5760ff8160209361016c610dee565b610174610e09565b6001600160a01b0391821683526005875283832091168252855220549151911615158152f35b5080fd5b8284346102075760803660031901126102075782356001600160401b03811161019a576101ce9036908501610f30565b90606435938410156102075750610203926101f091604435906024359061484c565b9051918291602083526020830190610dc9565b0390f35b80fd5b50503461019a578160031936011261019a576020906009549051908152f35b50503461019a576102039061024661024036610fc5565b90613cb9565b905191829182610ff6565b82843461020757602036600319011261020757506101f06102a461029f61027d610203954290356124e6565b61028f61028a82516154c1565b61350b565b9060208682015191015190613577565b6154c1565b613624565b50503461019a57610203906102466102c036610fc5565b906137fd565b83903461019a57608036600319011261019a576102e1610dee565b6102e9610e09565b604435906064356001600160401b0381116103335736602382011215610333576103309481602461031f93369301359101610ef9565b9261032b83838361136b565b615756565b80f35b8580fd5b919050346103d957806003193601126103d957610352610dee565b90602435918215158093036103d5576001600160a01b03169283156103c05750338452600560205280842083855260205280842060ff1981541660ff8416179055519081527f17307eab39ab6107e8899845ad3d59bd9653f200f220920489ca2b5937696c3160203392a380f35b836024925191630b61174360e31b8352820152fd5b8480fd5b8280fd5b828434610207576060366003190112610207578235906001600160401b0382116102075750610415610203936101f092369101610f30565b6044359060243590613678565b82843461020757806003193601126102075781519181600192600154938460011c9160018616958615610532575b602096878510811461051f578899509688969785829a5291826000146104f857505060011461049c575b505050610203929161048d910385610ebd565b51928284938452830190610dc9565b9190869350600183527fb10e2d527612073b26eecdfd717e6a320cf44b4afac2b0732d9fcbe2b7fa0cf65b8284106104e0575050508201018161048d61020361047a565b8054848a0186015288955087949093019281016104c7565b60ff19168782015293151560051b8601909301935084925061048d9150610203905061047a565b634e487b7160e01b835260228a52602483fd5b92607f1692610450565b828434610207576020366003190112610207576001600160a01b0361055f610dee565b1692831561057c5750806020938392526003845220549051908152f35b91516322718ad960e21b815291820152602490fd5b50503461019a57610203906101f06102a461029f61027d6105b13661107a565b906124e6565b82843461020757602036600319011261020757506105d760209235614ba7565b90516001600160a01b039091168152f35b828434610207576060366003190112610207578235906001600160401b03821161020757506106206102039361024692369101610f4e565b604435906024359061344a565b50503461019a578160031936011261019a576020906008549051908152f35b50503461019a576103309061066036611045565b9192519261066d84610e87565b85845261032b83838361136b565b50503461019a57610203906102466105b13661107a565b50503461019a578160031936011261019a57600c5490516001600160a01b039091168152602090f35b83833461019a576106cb3661107a565b92905081518281018181106001600160401b03821117610746578352600b549160018060a01b0392838116835260a01c9485602084015285810295818704149015171561073357815184519084166001600160a01b0316815261271086046020820152604090f35b634e487b7160e01b815260118652602490fd5b634e487b7160e01b835260418652602483fd5b83346102075761033061076b36611045565b9161136b565b50503461019a578160031936011261019a57602090600a549051908152f35b50503461019a57610203906102466107a736610fc5565b90611225565b9050346103d957826003193601126103d957600260065414610b2d576002600655600a546009541115610af6578151916020928381019044825242838201523360601b60608201526054815261080281610e6c565b519020600754908115610ae3578190069061081c82611090565b919054600392831b1c9260001991828101908111610ad05761084061084c91611090565b905490851b1c91611090565b838293925491861b92831b921b19161790556007548015610abd57810161087281611090565b83825491861b1b19169055600755600a5460018101809111610aaa57600a5583519161089d83610e87565b8783523315610a935783885260028752848820546001600160a01b03168015159285929084610a62575b5033808b52908952868a2080546001019055828a5260028952868a2080546001600160a01b03191682179055907fddf252ad1be2c89b69c2b068fc378daa952ba7f163c4a11628f55a4df523b3ef8a80a4610a4b57333b61092c575b85600160065580f35b846109689184959697945180938192630a85bd0160e11b96878452338b8501528860248501526044840152608060648401526084830190610dc9565b038186335af1839181610a07575b506109d05750503d156109c8573d61098d81610ede565b9061099a84519283610ebd565b81528091853d92013e5b805193846109c2578251633250574960e11b81523381860152602490fd5b84925001fd5b5060606109a4565b9194506001600160e01b0319909116036109f05750503880808080610923565b602492505190633250574960e11b82523390820152fd5b9091508681813d8311610a44575b610a1f8183610ebd565b81010312610a4057516001600160e01b031981168103610a40579038610976565b8380fd5b503d610a15565b82516339e3563760e11b8152808501879052602490fd5b600084815260046020526040902080546001600160a01b0319169055828b52818a52878b20908154019055386108c7565b8451633250574960e11b8152808701899052602490fd5b634e487b7160e01b885260118652602488fd5b634e487b7160e01b885260318652602488fd5b634e487b7160e01b895260118752602489fd5b634e487b7160e01b865260128452602486fd5b6020606492519162461bcd60e51b8352820152601260248201527113585e081cdd5c1c1b1e481c995858da195960721b6044820152fd5b9051633ee5aeb560e01b8152fd5b919050346103d957806003193601126103d957610b56610dee565b91602435610b6381614ba7565b33151580610c05575b80610bdc575b610bc6576001600160a01b039485169482918691167f8c5be1e5ebec7d5bd14f71427d1e84f3dd0314c0f7b2291e5b200ac8c7c3b9258880a48452602052822080546001600160a01b031916909117905580f35b835163a9fbf51f60e01b81523381850152602490fd5b506001600160a01b03811686526005602090815284872033885290528386205460ff1615610b72565b506001600160a01b038116331415610b6c565b9050346103d95760203660031901126103d957918260209335610c3a81614ba7565b50825283528190205490516001600160a01b039091168152f35b8284346102075780600319360112610207578151918182549260018460011c9160018616958615610d17575b602096878510811461051f578899509688969785829a5291826000146104f8575050600114610cbc57505050610203929161048d910385610ebd565b91908693508280527f290decd9548b62a8d60345a988386fc84ba6bc95484008f6362f93160ef3e5635b828410610cff575050508201018161048d61020361047a565b8054848a018601528895508794909301928101610ce6565b92607f1692610c80565b8491346103d95760203660031901126103d9573563ffffffff60e01b81168091036103d9576020925063152a902d60e11b8114908115610d63575b5015158152f35b6380ac58cd60e01b811491508115610d95575b8115610d84575b5083610d5c565b6301ffc9a760e01b14905083610d7d565b635b5e139f60e01b81149150610d76565b60005b838110610db95750506000910152565b8181015183820152602001610da9565b90602091610de281518092818552858086019101610da6565b601f01601f1916010190565b600435906001600160a01b0382168203610e0457565b600080fd5b602435906001600160a01b0382168203610e0457565b606081019081106001600160401b03821117610e3a57604052565b634e487b7160e01b600052604160045260246000fd5b61012081019081106001600160401b03821117610e3a57604052565b608081019081106001600160401b03821117610e3a57604052565b602081019081106001600160401b03821117610e3a57604052565b604081019081106001600160401b03821117610e3a57604052565b90601f801991011681019081106001600160401b03821117610e3a57604052565b6001600160401b038111610e3a57601f01601f191660200190565b929192610f0582610ede565b91610f136040519384610ebd565b829481845281830111610e04578281602093846000960137010152565b9080601f83011215610e0457816020610f4b93359101610ef9565b90565b9190606083820312610e045760405190610f6782610e1f565b81938035916001600160401b0392838111610e045781610f88918401610f30565b84526020820135838111610e045781610fa2918401610f30565b60208501526040820135928311610e0457604092610fc09201610f30565b910152565b6040600319820112610e0457600435906001600160401b038211610e0457610fef91600401610f4e565b9060243590565b90610f4b91602081526110158251606060208401526080830190610dc9565b9060606040611035602086015194601f1995868683030184870152610dc9565b9401519282850301910152610dc9565b6060906003190112610e04576001600160a01b03906004358281168103610e0457916024359081168103610e04579060443590565b6040906003190112610e04576004359060243590565b6007548110156110c75760076000527fa66cc928b5edb82af9bd49922954155ab7b0942694bea4ce44661d9a8736c6880190600090565b634e487b7160e01b600052603260045260246000fd5b919082039182116110ea57565b634e487b7160e01b600052601160045260246000fd5b919082018092116110ea57565b6040519061111a82610e1f565b60606040838281528260208201520152565b81601f82011215610e0457805161114281610ede565b926111506040519485610ebd565b81845260208284010111610e0457610f4b9160208085019101610da6565b919091604081840312610e04578051926001600160401b0393848111610e04578161119a91840161112c565b936020830151908111610e0457610f4b920161112c565b6040513d6000823e3d90fd5b60206111fe9193929360405194816111de8793518092868087019101610da6565b82016111f282518093868085019101610da6565b01038085520183610ebd565b565b6040519061120d82610ea2565b60098252681e109696b9b196969f60b91b6020830152565b9061122e61110d565b50600c546040516312591c3f60e11b815260048101839052916001600160a01b03909116906000908184602481865afa938415611360578290839561133a575b509061129f839287516040519061128482610ea2565b60098252681e109696b13196969f60b91b6020830152614be2565b86526112b0602087019586516111bd565b85526024604051809581936373075aff60e01b835260048301525afa91821561132d57906113009291818093611305575b50506112f79085516112f1611200565b90614be2565b845282516111bd565b905290565b6112f7935061132692503d8091833e61131e8183610ebd565b81019061116e565b91386112e1565b50604051903d90823e3d90fd5b61129f955083929150611356903d8085833e61131e8183610ebd565b959091925061126e565b6040513d84823e3d90fd5b6001600160a01b0391821692909183156114f45760009282845282602095600287526040968488882054169687913315158061145b575b509060027fddf252ad1be2c89b69c2b068fc378daa952ba7f163c4a11628f55a4df523b3ef9284611428575b858352600381528b8320805460010190558683525289812080546001600160a01b0319168517905580a416928383036114075750505050565b6064945051926364283d7b60e01b8452600484015260248301526044820152fd5b600087815260046020526040902080546001600160a01b0319169055848352600381528b832080546000190190556113ce565b919394509150806114b3575b15611477578592918791386113a2565b878688611494576024915190637e27328960e01b82526004820152fd5b905163177e802f60e01b81523360048201526024810191909152604490fd5b5033871480156114d8575b806114675750858252600481523385898420541614611467565b5086825260058152878220338352815260ff88832054166114be565b604051633250574960e11b815260006004820152602490fd5b90670de0b6b3a7640000918281029281840414901517156110ea57565b90612710918281029281840414901517156110ea57565b811561154b570490565b634e487b7160e01b600052601260045260246000fd5b6001600160401b038111610e3a5760051b60200190565b519060ff82168203610e0457565b602081830312610e04578051906001600160401b038211610e04570161012081830312610e0457604051916115ba83610e50565b81516001600160401b038111610e0457816115d691840161112c565b83526020820151602084015260408201516040840152606082015160608401526080820151608084015260a08201516001600160401b038111610e04578161161f91840161112c565b60a084015260c08201516001600160401b038111610e045781601f828501011215610e0457808301519061165282611561565b916116606040519384610ebd565b808352602083018460208360051b858901010111610e0457602083870101905b60208360051b858901010182106118c4575050505060c084015260e08201516001600160401b038111610e045781601f828501011215610e045780830151906116c882611561565b926116d66040519485610ebd565b82845260208401908060208560051b858901010111610e0457602083870101915b60208560051b8589010101831061172957505050505060e083015261010080910151906004821015610e045782015290565b82516001600160401b038111610e045760a088860182018403601f190112610e04576040519160a083018381106001600160401b038211176118af57604052602082878b0101015160039081811015610e04578452604083888c0101015190811015610e04576020840152606082878b010101516001600160401b038111610e045784603f82858a8e010101011215610e0457808760208c938683860101010151918760406117d785611561565b956117e482519788610ebd565b858752838960208901968860051b93010101010111610e04578991868e60408483878401010101925b60408760051b868589860101010101841061189f57505050505050506040840152608082878b010101516001600160401b038111610e045784602061185892858a8e0101010161112c565b606084015260a082878b01010151906001600160401b038211610e045760209361188d868680969581968f8d0101010161112c565b608082015281520193019290506116f7565b835181526020938401930161180d565b60246000634e487b7160e01b81526041600452fd5b81516001600160401b038111610e045760e088860182018803601f190112610e0457604051906118f382610e6c565b602081878b010101516001600160401b038111610e045788602061191d92848a8e0101010161112c565b8252604081878b010101516001600160401b038111610e045781878b01010188603f82011215610e0457602081015161195581611561565b916119636040519384610ebd565b81835260208301908b60408460051b83010111610e045760408101915b60408460051b8301018310611a125750505050602083015287607f82888c0101011215610e04576040516119b381610e6c565b898960e0848a859401010111610e04578a90886060858285010101915b60e08683860101018310611a02575050505060408301528886010160e001516060820152815260209182019101611680565b82518152602092830192016119d0565b60208091611a1f85611578565b815201920191611980565b60405190611a3782610e50565b816101006000918281528260208201528260408201528260608201528260808201528260a08201528260c08201528260e08201520152565b6040519061010082018281106001600160401b03821117610e3a576040528160e060609182815282602082015282604082015282808201528260808201528260a08201528260c08201520152565b60405190611aca82610ea2565b600b82526a19d95b995c985d1953919560aa1b6020830152565b9064e8d4a51000918281029281840514901517156110ea57565b90612710918281029281840514901517156110ea57565b9190826040910312610e04576020825192015190565b90602082820312610e045781516001600160401b038111610e0457610f4b920161112c565b90816060910312610e04578051916040602083015192015190565b60041115611b7557565b634e487b7160e01b600052602160045260246000fd5b906004821015611b755752565b94919260e09693999897949199611bb48761010081019c611b8b565b602087015260408601526060850152608084015260a083015260c08201520152565b60405190611be382610ea2565b60118252701e109696bbb0ba32b931b7b637b916969f60791b6020830152565b90816020910312610e04575190565b91906040611c2a600292606086526060860190610dc9565b93600060208201520152565b60031115611b7557565b92919060408452611ca0611c6282516101206040880152610160870190610dc9565b6020830151606087015260408301516080870152606083015160a0870152608083015160c087015260a0830151603f198783030160e0880152610dc9565b9060c081015191603f1986820301610100870152825180825260208201916020808360051b8301019501926000915b838310611df257505050505060e081015191603f1986820301610120870152825180825260208201916020808360051b8301019501926000915b838310611d3a57505050505090611d2c6101006020930151610140870190611b8b565b93611d3683611c36565b0152565b9091929395601f1982820301835286519060a081018251611d5a81611c36565b82526020830151611d6a81611c36565b602083015260408301519060a060408401528151809152602060c084019201906000905b808210611dda57505050611dcb836020936080611dba8695606060019901518482036060860152610dc9565b920151906080818403910152610dc9565b98019301930191939290611d09565b90919260208060019286518152019401920190611d8e565b9091929395601f19828203018352865190611e16825160e0835260e0830190610dc9565b916020810151928281036020840152602080855192838152019401906000905b808210611e8a5750505060408181015160009184015b60048310611e74575050506060015160c0909101529560209081019493600101920190611ccf565b6020806001928451815201920192019190611e4c565b90919460208060019260ff8951168152019601920190611e36565b91608083830312610e04578251906001600160401b0391828111610e045783611ecf91860161112c565b936020810151838111610e045784611ee891830161112c565b936040820151848111610e045781611f0191840161112c565b936060830151908111610e0457610f4b920161112c565b989591611f9b9792611f8c966101209a96611f7e969d9e9d60408e611f48611f7098610140808452830190610dc9565b966020820152015260608d0152611f5e81611c36565b60808c01528a820360a08c0152610dc9565b9088820360c08a0152610dc9565b9086820360e0880152610dc9565b90848203610100860152610dc9565b931515910152565b611fbb60409295949395606083526060830190610dc9565b9460208201520152565b9081526040810192916111fe9160200190611b8b565b6020908181840312610e045780516001600160401b0391828211610e0457019083601f83011215610e0457815161201181611561565b946040926120226040519788610ebd565b828752858088019360051b86010194828611610e0457868101935b86851061204f57505050505050505090565b8451838111610e0457820160e09182601f198388030112610e0457875192808401848110878211176118af5789528a830151868111610e0457878c6120969286010161112c565b8452888301518b850152606092838101518a860152608093848201519086015260a093848201519086015260c09384820151908601520151926003841015610e04578a93849382015281520194019361203d565b94939796959791909161210560e09384885284880190610dc9565b93602092838801526040906040880152606094878103606089015282518082528482019185808360051b8301019501926000915b83831061220657505050505060809087830360808901528651948584528484019285808860051b8701019901976000955b88871061218957505050505050505050509060c0919460a08201520152565b909192939495969798998880600192601f19858203018a528d51906121b582518a83528a830190610dc9565b9183810151848301528a8101518b8301528781015188830152888101518983015260a0808201519083015260c080910151916121f083611c36565b01529c019701970195989796949392919061216a565b9091929395601f9997989919828203018352888751918961222f8d855190808552840190610dc9565b938381015194838103858501528480875192838152019601906000905b8082106122a357505050808a0151600090848c015b6004831061228957505050015160c09091015297999897909681019493600101920190612139565b815181528f968f9550600193909301929182019101612261565b825160ff168852968601968f968f9550929092019160019091019061224c565b6122d7604092604083526040830190610dc9565b906020908181840391015283519182815281810182808560051b8401019601946000906000935b86851061231057505050505050505090565b9091929394959697601f1982820301855286895160a0808401825161233481611c36565b85528383015161234381611c36565b8486015286830151918786015281518091528360c0860192019088905b8082106123ae57505050600193839261238961239c936060808401519085830390860152610dc9565b9160808092015191818403910152610dc9565b9a0195019501939695949291906122fe565b825184528c95938401939092019160019190910190612360565b90926123e1606093969594608084526080840190610dc9565b95602083015260408201520152565b93906124d892610f4b969461241e61241361242b9460a08a5260a08a0190610dc9565b926020890190611b8b565b8682036040880152610dc9565b848103606086015260e06124c76124b56124a361249161247f61246d61245b6101008a5190808b528a0190610dc9565b60208a015189820360208b0152610dc9565b604089015188820360408a0152610dc9565b60608801518782036060890152610dc9565b60808701518682036080880152610dc9565b60a086015185820360a0870152610dc9565b60c085015184820360c0860152610dc9565b9201519060e0818403910152610dc9565b916080818403910152610dc9565b906124ef61110d565b50600c5461250d906001600160a01b03165b6001600160a01b031690565b604051632548117960e01b8152600481018490529290600090849060249082905afa928315612ea85760009361334b575b5061254761110d565b9260a08101518452612557611a2a565b90612560611a6f565b9161257161256c611abd565b614d58565b61257b8251614d58565b6125886020830151611ae4565b604061259681850151611ae4565b61259f8861150d565b82516375cbcb7960e11b81526004810194909452602484019190915260448301528160648173__$a216d4fe4243b110e5694abc7741cd783a$__5af48015612ea85760009160009161332a575b50604083015260608201526126008561150d565b604061260f6020850151611ae4565b61261b82860151611ae4565b8251632c0f47d960e21b81526004810194909452602484019190915260448301528160648173__$a216d4fe4243b110e5694abc7741cd783a$__5af48015612ea8576000916000916132f9575b506020830152815261267d608083015161152a565b60006126936060840151655af3107a4000900590565b6040840151655af3107a40009005926126e46126b2606088015161152a565b604051958694859463955cb78f60e01b8652600486019094939260609260808301968352602083015260408201520152565b038173__$2d8ca8bf86eea40aef689c316826963c89$__5af4908115612ea8576000916132de575b50835261271c6020830151611ae4565b606061272b6040850151611ae4565b6127348861150d565b604051633b7eb8ed60e21b81526004810194909452602484019190915260448301528160648173__$a216d4fe4243b110e5694abc7741cd783a$__5af4908115612ea8576000916000916000916132bc575b5060c084015260a083015260808201526127c360606127a48761150d565b60405180938192633d5756df60e21b8352600483019190602083019252565b038173__$a216d4fe4243b110e5694abc7741cd783a$__5af48015612ea857600091600091613289575b5061010083015260e08201526101008201519061280982611b6b565b60006128186060850151611afe565b6128256080860151611afe565b9361289961283d6080860151655af3107a4000900590565b60a0860151655af3107a4000900560c0870151655af3107a4000900560e0880151655af3107a400090059161287d6101008a0151655af3107a4000900590565b936040519a8b9889986307704b9360e01b8a5260048a01611b98565b038173__$2d8ca8bf86eea40aef689c316826963c89$__5af48015612ea8576129209260009161326e575b5060408501526129006128ea6128e56040840151662386f26fc10000900590565b614e41565b90816080880152602087015288516112f1611bd6565b87526020835160405180948192638587a4a560e01b835260048301611c12565b038173__$30acca89589d9a9b80eb3e09f3c9eae508$__5af4918215612ea85760009261323d575b5061295282611c36565b6101008301519161296283611b6b565b61296b83611b6b565b6040516372609aa760e11b81526000818061298a858960048401611c40565b038173__$30acca89589d9a9b80eb3e09f3c9eae508$__5af4908115612ea857600091613222575b5060208901526129c181611c36565b600281036130c857600c54600491906000906129e5906001600160a01b0316612501565b60405163cba4cbbd60e01b815293849182905afa938415612ea857612a74848b88976000968396889089918a938b95613087575b506060612a4e6040612a3e83612a56959798999a5b519b0151655af3107a4000900590565b9c0151662386f26fc10000900590565b9d0151611afe565b60405163d79783a760e01b81529c8d9a8b9a15159860048c01611f18565b038173__$2d8ca8bf86eea40aef689c316826963c89$__5af48015612ea857869260009161306c575b5060e085015260008751604083015190612acb604051958693849363036adabd60e51b855260048501611fa3565b038173__$2d8ca8bf86eea40aef689c316826963c89$__5af48015612ea857612b3a92600091613051575b5087526000612b0f6040830151655af3107a4000900590565b61010085015190612b1f82611b6b565b60405163fecb0d4f60e01b8152948592839260048401611fc5565b038173__$2d8ca8bf86eea40aef689c316826963c89$__5af48015612ea857600492600091613036575b506060850152600c54600090612b82906001600160a01b0316612501565b60405163485c475f60e01b815293849182905afa8015612ea8578660009187948391613014575b50612bda8a519160c088015190865190602088015192604051998a97889763582bca4760e11b8952600489016120ea565b038173__$2d8ca8bf86eea40aef689c316826963c89$__5af4918215612ea857600090600093612fef575b5080885260e084015160405163c2209fb960e01b81529160009183918291612c3091600484016122c3565b038173__$30acca89589d9a9b80eb3e09f3c9eae508$__5af4908115612ea8578688612c8593612c6b93600091612fd4575b50808c52613678565b808952868861010087015192612c8084611b6b565b61484c565b875260808301516040516388330ed560e01b81526004810188905260248101879052604481019190915260008160648173__$2d8ca8bf86eea40aef689c316826963c89$__5af4908115612ea857600091612fb9575b5060c0850152612d2960006080850151612d0388612cfe620151808c068c6110dd565b611100565b604051634b54268f60e01b81526004810192909252602482015291829081906044820190565b038173__$2d8ca8bf86eea40aef689c316826963c89$__5af4908115612ea857600091612f9e575b5060a08501526001610100840151612d6881611b6b565b612d7181611b6b565b14612f8d575b6002610100840151612d8881611b6b565b612d9181611b6b565b14612f7c575b6003610100840151612da881611b6b565b612db181611b6b565b14612ec7575b50600c5460049190600090612dd4906001600160a01b0316612501565b6040516371a9730560e01b815293849182905afa8015612ea8576000928391612ead575b50612e2a61010085015192612e0c84611b6b565b8951966040519788958695632b36bac160e21b8752600487016123f0565b038173__$30acca89589d9a9b80eb3e09f3c9eae508$__5af48015612ea85761010092600091612e85575b508552805160408601520151612e6a81611b6b565b612e7381611b6b565b612e7c57505090565b610f4b9261344a565b612ea291503d806000833e612e9a8183610ebd565b810190611b2b565b38612e55565b6111b1565b612ec191503d8085833e612e9a8183610ebd565b38612df8565b909584612ed3916137fd565b956000875192612f026040612ef26060840151655af3107a4000900590565b920151662386f26fc10000900590565b93612f2e612f136060880151611afe565b60405163031ae97d60e41b81529687948594600486016123c8565b038173__$2d8ca8bf86eea40aef689c316826963c89$__5af48015612ea857600492600091612f61575b50875290612db7565b612f7691503d806000833e612e9a8183610ebd565b38612f58565b9584612f8791613cb9565b95612d97565b9584612f9891611225565b95612d77565b612fb391503d806000833e612e9a8183610ebd565b38612d51565b612fce91503d806000833e612e9a8183610ebd565b38612cdb565b612fe991503d806000833e612e9a8183610ebd565b38612c62565b60009350612c30915061300b903d8086833e61131e8183610ebd565b93909150612c05565b61303091503d8085833e6130288183610ebd565b810190611fdb565b38612ba9565b61304b91503d806000833e612e9a8183610ebd565b38612b64565b61306691503d806000833e612e9a8183610ebd565b38612af6565b61308191503d806000833e612e9a8183610ebd565b38612a9d565b612a3e95506040945060609350612a569150612a4e6130b985923d8f8190833e6130b18183610ebd565b810190611ea5565b9950975095509250612a199050565b916130d283611c36565b8261317f57600c546004906000906130f2906001600160a01b0316612501565b604051630f773e0b60e41b815292839182905afa918215612ea857612a74848b88976000968396889289938a928b94613144575b506060612a4e6040612a3e83612a5695999798995b9798999a612a2e565b612a3e95506060945060409350612a569150612a4e61316e86923d8f8190833e6130b18183610ebd565b919950909750955092506131269050565b600c5460049060009061319a906001600160a01b0316612501565b60405163018a5f4d60e01b815292839182905afa918215612ea857612a74848b88976000968396889289938a928b946131e7575b506060612a4e6040612a3e83612a56959997989961313b565b612a3e95506060945060409350612a569150612a4e61321186923d8f8190833e6130b18183610ebd565b919950909750955092506131ce9050565b61323791503d806000833e612e9a8183610ebd565b386129b2565b61326091925060203d602011613267575b6132588183610ebd565b810190611c03565b9038612948565b503d61324e565b61328391503d806000833e612e9a8183610ebd565b386128c4565b90506132ad915060603d6060116132b5575b6132a58183610ebd565b810190611b50565b9050386127ed565b503d61329b565b9150506132d8915060603d6060116132b5576132a58183610ebd565b38612786565b6132f391503d806000833e612e9a8183610ebd565b3861270c565b905061331d915060403d604011613323575b6133158183610ebd565b810190611b15565b38612668565b503d61330b565b9050613345915060403d604011613323576133158183610ebd565b386125ec565b6133699193503d806000833e6133618183610ebd565b810190611586565b913861253e565b6040519061337d82610ea2565b600f82526e72656e6465724e4654496e7369646560881b6020830152565b604a6111fe9193929360405194816133bd879351809260208087019101610da6565b82017f2c7b2274726169745f74797065223a20224e465420496e73696465222c20227660208201526730b63ab2911d101160c11b604082015261340a825180936020604885019101610da6565b0161227d60f01b604882015203602a810185520183610ebd565b6040519061343182610ea2565b600a8252691e109696b7333a16969f60b11b6020830152565b9161345361110d565b506040519162a0a51960e61b83526004830152600060248301526012604483015260208260648173__$30acca89589d9a9b80eb3e09f3c9eae508$__5af48015612ea8576134a9926000916134ec575b506124e6565b6134e7906134b861256c613370565b604081016134c68151614d58565b6134d86020850191825190519061339b565b905282519051906112f1613424565b815290565b613505915060203d602011613267576132588183610ebd565b386134a3565b906111fe604560405180947f22696d616765223a2022646174613a696d6167652f7376672b786d6c3b626173602083015263194d8d0b60e21b604083015261355d815180926020604486019101610da6565b8101601160f91b6044820152036025810185520183610ebd565b6046906111fe9294936040519586927f7b226465736372697074696f6e22203a20226a756875222c20226e616d65223a6020850152601160f91b60408501526135ca815180926020604188019101610da6565b830161088b60f21b60418201526135eb825180936020604385019101610da6565b0161174b60f21b604382015261360b825180936020604585019101610da6565b01607d60f81b6045820152036026810185520183610ebd565b906111fe603d60405180947f646174613a6170706c69636174696f6e2f6a736f6e3b6261736536342c00000060208301526136688151809260208686019101610da6565b810103601d810185520183610ebd565b9291926136e26136a46040519561368e87610ea2565b600487526318985b1b60e21b6020880152615612565b946136d0604051968795633235ac6d60e01b875260048701526101a060248701526101a4860190610dc9565b84810360031901604486015290610dc9565b60016064840152826000958692836084830152609660a48301528360c4830152603260e483015260326101048301526104b0610124830152611c206101448301526046610164830152610708610184830152038173__$2d8ca8bf86eea40aef689c316826963c89$__5af49182156137a05784610f4b949593613783575b50506040519061376f82610ea2565b6002825261123160f11b6020830152614be2565b6137989293503d8091833e612e9a8183610ebd565b903880613760565b6040513d86823e3d90fd5b604051906137b882610ea2565b60068252653434b23232b760d11b6020830152565b604051906137da82610ea2565b600782526676697369626c6560c81b6020830152565b51908115158203610e0457565b9061380661110d565b5061380f6137ab565b906138186137cd565b60018060a01b03600c541660409283519463228b974b60e01b86528160048701526000938487602481875afa908115613bfd57859186988791613b94575b5061393e906138898b51948a5161386c81610ea2565b60098152602096681e109696b1b196969f60b91b88830152614be2565b8b52613899848c019a8b516111bd565b8a52600261390d8c6138d78c82518615600014613b8d5788915b51906138be82610ea2565b60088252671e109696b816969f60c11b8b830152614be2565b80915260018414600014613b865785905b8c51906138f482610ea2565b60088252671e109696ba16969f60c11b89830152614be2565b808d529103613b7f5782905b89519061392582610ea2565b60088252671e109696b216969f60c11b86830152614be2565b8952865163b4d6438b60e01b815260048101859052928684602481895afa938415613b75579187959493918b938a88898a918b948c9a613abf575b5092889694926139f88d613a28946139c6613a4d9c9a98613a569f9e5190600014613ab7578b8b915b671e109696b196969f60c11b8951926139ba84610ea2565b60088452830152614be2565b808c52915015613ab05787905b8451906139df82610ea2565b60088252671e109696b916969f60c11b8b830152614be2565b8089529015613aa95785915b5190613a0f82610ea2565b60088252671e109696b696969f60c11b88830152614be2565b809552600014613aa15750915b671e109696b796969f60c11b8b51926139ba84610ea2565b895287516111bd565b865260248551809481936373075aff60e01b835260048301525afa928315613a9657509061130092918180936113055750506112f79085516112f1611200565b51913d9150823e3d90fd5b905091613a35565b8491613a04565b86906139d3565b8b8a916139a2565b9a9b50505050505091935091503d8088863e613adb8186610ebd565b84019360a081860312613b7157613af1816137f0565b90613afd8582016137f0565b95613b098b83016137f0565b90613b16606084016137f0565b926080810151906001600160401b038211613b6d578f9591613a5699958f918f809e9d9b976139c6613b54613a4d9d996139f895613a28990161112c565b979d9194979e5050945050509294969890939597613979565b8c80fd5b8780fd5b88513d89823e3d90fd5b8490613919565b87906138e8565b8a916138b3565b92505096503d8086833e613ba88183610ebd565b810196606082890312610333578151976001600160401b0398898111613b715781613bd491850161112c565b986020840151908111613b7157613bf161393e928a92860161112c565b93015198929890613856565b86513d87823e3d90fd5b9060048110156110c75760051b0190565b519069ffffffffffffffffffff82168203610e0457565b908160a0910312610e0457613c4381613c18565b91602082015191604081015191610f4b608060608401519301613c18565b8051156110c75760200190565b8051600110156110c75760400190565b80518210156110c75760209160051b010190565b69ffffffffffffffffffff1680156110ea576000190190565b604d81116110ea57600a0a90565b613cc161110d565b50604051613cce81610e6c565b604051613cda81610ea2565b60048152636d696e6960e01b60208201528152604051613cf981610ea2565b60048152636d69646960e01b60208201526020820152604051613d1b81610ea2565b60058152646c6172676560d81b60208201526040820152604051613d3e81610ea2565b60048152636d65676160e01b6020820152606082015260018060a01b039081600c541690604051631c6e9c1560e01b8152856004820152602081602481865afa9081156111b15760009161481a575b5060005b6004811061479a57506047613dae613e2d92602088015194613c07565b51926040519381613dc9869351809260208087019101610da6565b82017f2c7b2274726169745f74797065223a2022536b796c696e65222c202276616c7560208201526432911d101160d91b6040820152613e13825180936020604585019101610da6565b0161227d60f01b6045820152036027810184520182610ebd565b6020840152604051630bc90ad560e41b815260048101859052600081602481855afa9081156111b1576000908192614743575b50613e72613ef99260208701516111bd565b6020860152613ebb85518260001461473557613e8c6137ab565b905b60405190613e9b82610ea2565b600e82526d1e109696b1b7b0b9ba30b616969f60911b6020830152614be2565b808652901561472757613ecc6137cd565b905b60405190613edb82610ea2565b600c82526b1e109696bbb0ba32b916969f60a11b6020830152614be2565b8352604051936102208501908582106001600160401b03831117610e3a576020916040526010865261020036838801376024604051809481936313aa362d60e01b835260048301525afa9081156111b1576000916146ec575b50604051633fabe5a360e21b81529060a0826004818685165afa80156111b1576000926000906000926146c2575b50613f8a87613c61565b52613f9486613c6e565b5260405163313ce56760e01b8152926020846004818585165afa9384156111b157600094614686575b50604051633942720b60e11b8152926000846004818686165afa9384156111b157600094614665575b5061407f906020870151614075604a6040518361400d829551809260208086019101610da6565b81017f2c7b2274726169745f74797065223a2254726164696e67204368617274222c226020820152673b30b63ab2911d1160c11b604082015289519061405b828c6020604885019101610da6565b0161227d60f01b604882015203602a810184520182610ebd565b6020880152613c92565b906002915b601083106145b5575050505061409984613c61565b51916140a485613c61565b519360005b865181101561411e57846140bd8289613c7e565b511061410b575b856140cf8289613c7e565b51116140f8575b60028101809111156140a957634e487b7160e01b600052601160045260246000fd5b94506141048587613c7e565b51946140d6565b93506141178487613c7e565b51936140c4565b509294919593909361413086836110dd565b9361413a84613c6e565b51845190816000198101116110ea5761415a614161926000190187613c7e565b51906110dd565b926060966000975b8651891015614308576001890189116110ea5761418960018a0188613c7e565b51875190816000198101116110ea5761415a6141a992600019018a613c7e565b610118908181029181830414901517156110ea57866141c791611541565b906028820182116110ea576141e68b6141e08c8b613c7e565b516110dd565b609690818102908082048314901517156110ea578a61420491611541565b81039081116110ea576102a8810181116110ea576142c9918b6142dd576142556102a861424e602860405161423881610ea2565b60018152604d60f81b6020820152975b01615612565b9301615612565b91604051948261426f879451809260208088019101610da6565b83016142848251809360208085019101610da6565b016142988251809360208085019101610da6565b0191600160fd1b60208401526021926142ba8251809360208785019101610da6565b01036001810184520182610ebd565b976002810181116110ea5760020197614169565b6142556102a861424e60286040516142f481610ea2565b60018152601360fa1b602082015297614248565b965094509550959096915061433e73__$30acca89589d9a9b80eb3e09f3c9eae508$__9561433860ff8616613cab565b90611541565b9060405193632c7cc89b60e11b9283865260048601526000856024818a5af49485156111b157600095614584575b506143826000939261433860ff60249416613cab565b916040519788938492835260048301525af49384156111b1576134e7946145379361452e92600092614563575b5061450290614435605b6040518099681e3830ba3410321e9160b91b60208301526143e4815180926020602986019101610da6565b81017f222066696c6c3d226e6f6e6522207374726f6b653d22234646444231392220736029820152713a3937b5b296bbb4b23a341e911a1110179f60711b604982015203603b81018a520188610ebd565b6144d7607660405180977f3c7465787420783d2232302220793d22363230222066696c6c3d22233934303060208301527f45332220666f6e742d66616d696c793d22417269616c2d426c61636b2220666f60408301526e373a16b9b4bd329e91191a383c111f60891b60608301526144b7815180926020606f86019101610da6565b8101661e17ba32bc3a1f60c91b606f820152036056810188520186610ebd565b8851604051906144e682610ea2565b600a8252691e109696b6b0b816969f60b11b6020830152614be2565b8088526040519061451282610ea2565b600a8252691e109696b6b4b816969f60b11b6020830152614be2565b928386526111bd565b906040519061454582610ea2565b600c82526b1e109696b1b430b93a16969f60a11b6020830152614be2565b61450291925061457d903d806000833e612e9a8183610ebd565b91906143af565b60249195506000939261433860ff6145a8614382943d808a833e612e9a8183610ebd565b989450505092935061436c565b604051639a6fc8f560e01b815269ffffffffffffffffffff821660048201529060a0826024818887165afa9182156111b157600090819361462e575b506145fc858b613c7e565b5260018401918285116110ea5761461661461c938b613c7e565b52613c92565b91600281018091116110ea5791614084565b905061465391925060a03d60a01161465e575b61464b8183610ebd565b810190613c2f565b5093925050386145f1565b503d614641565b61407f91945061467f903d806000833e612e9a8183610ebd565b9390613fe6565b9093506020813d6020116146ba575b816146a260209383610ebd565b81010312610e04576146b390611578565b9238613fbd565b3d9150614695565b9150506146df91925060a03d60a01161465e5761464b8183610ebd565b5091939290509238613f80565b6020813d60201161471f575b8161470560209383610ebd565b8101031261019a5751908282168203610207575038613f52565b3d91506146f8565b61472f6137ab565b90613ece565b61473d6137cd565b90613e8e565b91503d8082843e6147548184610ebd565b8201906040838303126102075761476a836137f0565b926020810151916001600160401b0383116102075750613ef99392613e7292614793920161112c565b9250613e60565b8061480a6147aa60019386613c07565b518851906147f560276040518093633c212d2d60e01b60208301526147d9815180926020602486019101610da6565b81016216969f60e91b6024820152036007810184520182610ebd565b858411614812576148046137cd565b91614be2565b875201613d91565b6148046137ab565b90506020813d602011614844575b8161483560209383610ebd565b81010312610e04575138613d8d565b3d9150614828565b90929161485890615612565b916004811015611b755760038114908115614b9c575b5015614b94576046915b60405193633235ac6d60e01b85528060048601526101a060248601526000856040816148a86101a4820187610dc9565b600319828203016044830152600681526563727569736560d01b6020820152846064830152846084830152600560a4830152600160c483015260ff891660e483015260ff89166101048301526101686101248301526104b0610144830152603261016483015261016861018483015203018173__$2d8ca8bf86eea40aef689c316826963c89$__5af49485156111b157600095614b77575b5060405193633235ac6d60e01b85528160048601526101a0602486015260008560406149706101a4830187610dc9565b653334b9b432b960d11b60208483039260031984016044870152600681520152836064840152836084840152600560a4840152600160c484015260ff851660e484015260ff8516610104840152610258806101248501526104b06101448501526032610164850152610184840152018173__$2d8ca8bf86eea40aef689c316826963c89$__5af49485156111b157600095614b53575b5090604060009260ff614a398351968795633235ac6d60e01b875260048701526101a060248701526101a4860190610dc9565b91641e5858da1d60da1b6020868503946003198601604489015260058152015260016064860152856084860152600560a4860152600160c486015281811660e48601521661010484015260b4610124840152610168610144840152603261016484015260b4610184840152018173__$2d8ca8bf86eea40aef689c316826963c89$__5af49081156111b157610f4b94614b1792602092600091614b38575b506040519582614af08894518092878088019101610da6565b8301614b0482518093878085019101610da6565b016111f282518093868085019101610da6565b60405190614b2482610ea2565b6002825261247760f01b6020830152614be2565b614b4d91503d806000833e612e9a8183610ebd565b38614ad7565b600092919550614b6e6040913d8086833e612e9a8183610ebd565b95919250614a06565b614b8d9195503d806000833e612e9a8183610ebd565b9338614940565b606491614878565b60029150143861486e565b6000818152600260205260409020546001600160a01b0316908115614bca575090565b60249060405190637e27328960e01b82526004820152fd5b9092919281908251928151865193602097888080950195019087856040510193019385850198811115614c59575b5050508394508095939160405195869103910301945b838210614c4a5750506000848401968701525050603f909301601f19166040528252565b81518152908201908201614c26565b90919293959450602181870301968a600093600082851015614d4f575b601f859998979916830360031b9851965b88518881188b1c15614cc357815260018091019801988b8a1015614cad575b9897614c87565b505050959750505050509183925b388080614c10565b918497949598919a92819d94979a9c9d614d08575b50505050505b81818401015181880152019083821015614cfa57908290614cde565b505092019201928392614cbb565b90809293949596508a8d2003614d2057879594614cd8565b8a9192989597949c9b9996939a5260018091019801988b8a10614ca65750505095975050505050918392614cbb565b50838620614c76565b60008091604051614d9481614d86602082019463104c13eb60e21b8652602060248401526044830190610dc9565b03601f198101835282610ebd565b51906a636f6e736f6c652e6c6f675afa50565b60405190614db482610ea2565b600782526611b1b29c18333360c91b6020830152565b60405190614dd782610ea2565b60078252662366396232333360c81b6020830152565b60405190614dfa82610ea2565b6007825266119cb11a31b13360c91b6020830152565b60405190614e1d82610ea2565b600482526311b3333360e11b6020830152565b9060118110156110c75760051b0190565b60409182519261022084018481106001600160401b03821117610e3a57808252614e6a81610e1f565b612327198152614e78614da7565b610240860152614e86614dca565b61026086015284528051614e9981610e1f565b6104af198152614ea7614da7565b9060209182820152614eb7614dca565b8382015281860152815190614ecb82610e1f565b6102bb198252825191614edd83610ea2565b600792838152660236537383063360cc1b83820152828201528351614f0181610ea2565b838152662365306234333960c81b8382015284820152838701528251614f2681610e1f565b61018f1981528351614f3781610ea2565b838152660236666383038360cc1b83820152828201528351614f5881610ea2565b8381526611b19c311b19b360c91b83820152848201526060870152825191614f7f83610e1f565b600092600081528451614f9181610ea2565b8281526611b3331c9c9c1b60c91b84820152838201528451614fb281610ea2565b828152662361666238343560c81b848201528582015260808801528351614fd881610e1f565b61012c81528451614fe881610ea2565b828152662366666232386360c81b8482015283820152845161500981610ea2565b828152662339366239346360c81b848201528582015260a0880152835161502f81610e1f565b6102bc8152845161503f81610ea2565b8281526611b333321c9c1b60c91b8482015283820152845161506081610ea2565b82815266119bb231311a9960c91b848201528582015260c0880152835161508681610e1f565b61044c8152845161509681610ea2565b828152660236666666638360cc1b848201528382015284516150b781610ea2565b828152660466c6ac4c86a760cb1b848201528582015260e088015283516150dd81610e1f565b6105dc815284516150ed81610ea2565b828152660236330656163360cc1b8482015283820152845161510e81610ea2565b828152662334636266356560c81b8482015285820152610100880152835161513581610e1f565b6109c490818152855161514781610ea2565b83815266119c18321ab33360c91b8582015284820152855161516881610ea2565b838152662335376166366360c81b8582015286820152610120890152845161518f81610e1f565b6107088152855161519f81610ea2565b838152660466e6ec66ecc760cb1b858201528482015285516151c081610ea2565b838152662336333965376160c81b85820152868201526101408901528451906151e882610e1f565b815284516151f581610ea2565b828152662336646261663160c81b8482015283820152845161521681610ea2565b828152660466cca70ca70760cb1b8482015285820152610160880152835161523d81610e1f565b610dac8152845161524d81610ea2565b828152662336346163656160c81b8482015283820152845161526e81610ea2565b828152662337393764393560c81b8482015285820152610180880152835161529581610e1f565b61125c815284516152a581610ea2565b8281526608cd584e59594d60ca1b848201528382015284516152c681610ea2565b828152662338343664613360c81b84820152858201526101a088015283516152ed81610e1f565b611770815284516152fd81610ea2565b8281526608cd4c4e4c191960ca1b8482015283820152845161531e81610ea2565b828152662339303563623160c81b84820152858201526101c0880152835161534581610e1f565b611c848152845161535581610ea2565b82815266119a1b9c19b21b60c91b8482015283820152615373614ded565b858201526101e088015283519061538982610e1f565b611f40825284519061539a82610ea2565b8152661199b29b9ab1b360c91b83820152828201526153b7614ded565b848201526102008701526153c9614e10565b946153d2614e10565b956000935b601180861015615484576153eb868b614e30565b5151841215615401575b506001909401936153d7565b6010860361542d57505050506154279293945061541e8287614e30565b51015194614e30565b51015190565b600186929394959601908183116154725750615449908a614e30565b5151841261545c579392919060016153f5565b93925050506154279293945061541e8287614e30565b634e487b7160e01b8452600452602483fd5b509097505050505050565b9061549982610ede565b6154a66040519182610ebd565b82815280926154b7601f1991610ede565b0190602036910137565b8051156155fe576040516154d481610e1f565b604081527f4142434445464748494a4b4c4d4e4f505152535455565758595a61626364656660208201527f6768696a6b6c6d6e6f707172737475767778797a303132333435363738392b2f6040820152815191600292600281018091116110ea576003908190046001600160fe1b03811681036110ea5761555b906002959492951b61548f565b936020850193839284518501935b8481106155ab5750505050506003905106806001146155985760021461558d575090565b603d90600019015390565b50603d9081600019820153600119015390565b8360049197929394959701918251600190603f9082828260121c16880101518453828282600c1c16880101518385015382828260061c168801015188850153168501015186820153019593929190615569565b5060405161560b81610e87565b6000815290565b806000917a184f03e93ff9f4daa797ed6e38ed64bf6a1f01000000000000000080821015615748575b506d04ee2d6d415b85acef810000000080831015615739575b50662386f26fc100008083101561572a575b506305f5e1008083101561571b575b506127108083101561570c575b5060648210156156fc575b600a809210156156f2575b6001908160216156aa6001870161548f565b95860101905b6156bc575b5050505090565b600019019083906f181899199a1a9b1b9c1cb0b131b232b360811b8282061a8353049182156156ed579190826156b0565b6156b5565b9160010191615698565b919060646002910491019161568d565b60049193920491019138615682565b60089193920491019138615675565b60109193920491019138615666565b60209193920491019138615654565b60409350810491503861563b565b813b615763575b50505050565b604051630a85bd0160e11b8082523360048301526001600160a01b039283166024830152604482019490945260806064820152602095929091169390929083906157b1906084830190610dc9565b039285816000958187895af184918161585a575b50615825575050503d60001461581d573d6157df81610ede565b906157ed6040519283610ebd565b81528091843d92013e5b8051928361581857604051633250574960e11b815260048101849052602490fd5b019050fd5b5060606157f7565b919450915063ffffffff60e01b160361584257503880808061575d565b60249060405190633250574960e11b82526004820152fd5b9091508681813d8311615893575b6158728183610ebd565b810103126103d557516001600160e01b0319811681036103d55790386157c5565b503d61586856fea26469706673582212207f3a5de420c74e73c7f65c380a8b41e367c08faf90019bc2e33353b95f4eb84764736f6c63430008190033","linkReferences":{"contracts/NDRenderer.sol":{"NDRenderer":[{"start":13627,"length":20},{"start":14064,"length":20},{"start":14539,"length":20},{"start":14626,"length":20},{"start":14737,"length":20},{"start":14897,"length":20},{"start":15114,"length":20},{"start":15232,"length":20},{"start":15749,"length":20},{"start":17803,"length":20},{"start":22383,"length":20},{"start":22581,"length":20},{"start":22779,"length":20}]},"contracts/NDUtils.sol":{"NDUtils":[{"start":14199,"length":20},{"start":14305,"length":20},{"start":14983,"length":20},{"start":15489,"length":20},{"start":17103,"length":20},{"start":20843,"length":20}]},"contracts/SunCalc.sol":{"SunCalc":[{"start":13337,"length":20},{"start":13461,"length":20},{"start":13743,"length":20},{"start":13850,"length":20}]}}},"methodIdentifiers":{"approve(address,uint256)":"095ea7b3","balanceOf(address)":"70a08231","generateNFT(uint256,uint256)":"40709fe1","getApproved(uint256)":"081812fc","isApprovedForAll(address,address)":"e985e9c5","maxSupply()":"d5abeb01","mint()":"1249c58b","motifDataManager()":"386b2304","name()":"06fdde03","ownerOf(uint256)":"6352211e","renderBallon(string,uint256,uint256)":"996c7bde","renderBeachTraits((string,string,string),uint256)":"1717f5f8","renderCityTraits((string,string,string),uint256)":"ce011494","renderLandscapeTraits((string,string,string),uint256)":"c5421be7","renderNFTInside((string,string,string),uint256,uint256)":"4e7632b4","renderWaterScene(string,uint256,uint256,uint8)":"dfa3ae85","reservedSupply()":"44d19d2b","royaltyInfo(uint256,uint256)":"2a55205a","safeTransferFrom(address,address,uint256)":"42842e0e","safeTransferFrom(address,address,uint256,bytes)":"b88d4fde","setApprovalForAll(address,bool)":"a22cb465","supportsInterface(bytes4)":"01ffc9a7","symbol()":"95d89b41","tokenURI(uint256)":"c87b56dd","tokenUriWithTime(uint256,uint256)":"709c163e","totalSupply()":"18160ddd","transferFrom(address,address,uint256)":"23b872dd"},"id":2}