{"abi":[{"type":"constructor","inputs":[{"name":"_motifDataManager","type":"address","internalType":"address"}],"stateMutability":"nonpayable"},{"type":"function","name":"approve","inputs":[{"name":"to","type":"address","internalType":"address"},{"name":"tokenId","type":"uint256","internalType":"uint256"}],"outputs":[],"stateMutability":"nonpayable"},{"type":"function","name":"balanceOf","inputs":[{"name":"owner","type":"address","internalType":"address"}],"outputs":[{"name":"","type":"uint256","internalType":"uint256"}],"stateMutability":"view"},{"type":"function","name":"getApproved","inputs":[{"name":"tokenId","type":"uint256","internalType":"uint256"}],"outputs":[{"name":"","type":"address","internalType":"address"}],"stateMutability":"view"},{"type":"function","name":"isApprovedForAll","inputs":[{"name":"owner","type":"address","internalType":"address"},{"name":"operator","type":"address","internalType":"address"}],"outputs":[{"name":"","type":"bool","internalType":"bool"}],"stateMutability":"view"},{"type":"function","name":"maxSupply","inputs":[],"outputs":[{"name":"","type":"uint256","internalType":"uint256"}],"stateMutability":"view"},{"type":"function","name":"mint","inputs":[],"outputs":[],"stateMutability":"payable"},{"type":"function","name":"mintPrice","inputs":[],"outputs":[{"name":"","type":"uint256","internalType":"uint256"}],"stateMutability":"view"},{"type":"function","name":"motifDataManager","inputs":[],"outputs":[{"name":"","type":"address","internalType":"contract NDMotifDataManager"}],"stateMutability":"view"},{"type":"function","name":"name","inputs":[],"outputs":[{"name":"","type":"string","internalType":"string"}],"stateMutability":"view"},{"type":"function","name":"owner","inputs":[],"outputs":[{"name":"","type":"address","internalType":"address"}],"stateMutability":"view"},{"type":"function","name":"ownerOf","inputs":[{"name":"tokenId","type":"uint256","internalType":"uint256"}],"outputs":[{"name":"","type":"address","internalType":"address"}],"stateMutability":"view"},{"type":"function","name":"premintSupply","inputs":[],"outputs":[{"name":"","type":"uint256","internalType":"uint256"}],"stateMutability":"view"},{"type":"function","name":"renounceOwnership","inputs":[],"outputs":[],"stateMutability":"nonpayable"},{"type":"function","name":"royaltyInfo","inputs":[{"name":"tokenId","type":"uint256","internalType":"uint256"},{"name":"salePrice","type":"uint256","internalType":"uint256"}],"outputs":[{"name":"","type":"address","internalType":"address"},{"name":"","type":"uint256","internalType":"uint256"}],"stateMutability":"view"},{"type":"function","name":"safeTransferFrom","inputs":[{"name":"from","type":"address","internalType":"address"},{"name":"to","type":"address","internalType":"address"},{"name":"tokenId","type":"uint256","internalType":"uint256"}],"outputs":[],"stateMutability":"nonpayable"},{"type":"function","name":"safeTransferFrom","inputs":[{"name":"from","type":"address","internalType":"address"},{"name":"to","type":"address","internalType":"address"},{"name":"tokenId","type":"uint256","internalType":"uint256"},{"name":"data","type":"bytes","internalType":"bytes"}],"outputs":[],"stateMutability":"nonpayable"},{"type":"function","name":"setApprovalForAll","inputs":[{"name":"operator","type":"address","internalType":"address"},{"name":"approved","type":"bool","internalType":"bool"}],"outputs":[],"stateMutability":"nonpayable"},{"type":"function","name":"supportsInterface","inputs":[{"name":"interfaceId","type":"bytes4","internalType":"bytes4"}],"outputs":[{"name":"","type":"bool","internalType":"bool"}],"stateMutability":"view"},{"type":"function","name":"symbol","inputs":[],"outputs":[{"name":"","type":"string","internalType":"string"}],"stateMutability":"view"},{"type":"function","name":"tokenURI","inputs":[{"name":"tokenId","type":"uint256","internalType":"uint256"}],"outputs":[{"name":"","type":"string","internalType":"string"}],"stateMutability":"view"},{"type":"function","name":"tokenUriWithTime","inputs":[{"name":"tokenId","type":"uint256","internalType":"uint256"},{"name":"timestamp","type":"uint256","internalType":"uint256"}],"outputs":[{"name":"","type":"string","internalType":"string"}],"stateMutability":"view"},{"type":"function","name":"totalSupply","inputs":[],"outputs":[{"name":"","type":"uint256","internalType":"uint256"}],"stateMutability":"view"},{"type":"function","name":"transferFrom","inputs":[{"name":"from","type":"address","internalType":"address"},{"name":"to","type":"address","internalType":"address"},{"name":"tokenId","type":"uint256","internalType":"uint256"}],"outputs":[],"stateMutability":"nonpayable"},{"type":"function","name":"transferOwnership","inputs":[{"name":"newOwner","type":"address","internalType":"address"}],"outputs":[],"stateMutability":"nonpayable"},{"type":"function","name":"withdraw","inputs":[],"outputs":[],"stateMutability":"nonpayable"},{"type":"event","name":"Approval","inputs":[{"name":"owner","type":"address","indexed":true,"internalType":"address"},{"name":"approved","type":"address","indexed":true,"internalType":"address"},{"name":"tokenId","type":"uint256","indexed":true,"internalType":"uint256"}],"anonymous":false},{"type":"event","name":"ApprovalForAll","inputs":[{"name":"owner","type":"address","indexed":true,"internalType":"address"},{"name":"operator","type":"address","indexed":true,"internalType":"address"},{"name":"approved","type":"bool","indexed":false,"internalType":"bool"}],"anonymous":false},{"type":"event","name":"OwnershipTransferred","inputs":[{"name":"previousOwner","type":"address","indexed":true,"internalType":"address"},{"name":"newOwner","type":"address","indexed":true,"internalType":"address"}],"anonymous":false},{"type":"event","name":"Transfer","inputs":[{"name":"from","type":"address","indexed":true,"internalType":"address"},{"name":"to","type":"address","indexed":true,"internalType":"address"},{"name":"tokenId","type":"uint256","indexed":true,"internalType":"uint256"}],"anonymous":false},{"type":"error","name":"ERC2981InvalidDefaultRoyalty","inputs":[{"name":"numerator","type":"uint256","internalType":"uint256"},{"name":"denominator","type":"uint256","internalType":"uint256"}]},{"type":"error","name":"ERC2981InvalidDefaultRoyaltyReceiver","inputs":[{"name":"receiver","type":"address","internalType":"address"}]},{"type":"error","name":"ERC721IncorrectOwner","inputs":[{"name":"sender","type":"address","internalType":"address"},{"name":"tokenId","type":"uint256","internalType":"uint256"},{"name":"owner","type":"address","internalType":"address"}]},{"type":"error","name":"ERC721InsufficientApproval","inputs":[{"name":"operator","type":"address","internalType":"address"},{"name":"tokenId","type":"uint256","internalType":"uint256"}]},{"type":"error","name":"ERC721InvalidApprover","inputs":[{"name":"approver","type":"address","internalType":"address"}]},{"type":"error","name":"ERC721InvalidOperator","inputs":[{"name":"operator","type":"address","internalType":"address"}]},{"type":"error","name":"ERC721InvalidOwner","inputs":[{"name":"owner","type":"address","internalType":"address"}]},{"type":"error","name":"ERC721InvalidReceiver","inputs":[{"name":"receiver","type":"address","internalType":"address"}]},{"type":"error","name":"ERC721InvalidSender","inputs":[{"name":"sender","type":"address","internalType":"address"}]},{"type":"error","name":"ERC721NonexistentToken","inputs":[{"name":"tokenId","type":"uint256","internalType":"uint256"}]},{"type":"error","name":"OwnableInvalidOwner","inputs":[{"name":"owner","type":"address","internalType":"address"}]},{"type":"error","name":"OwnableUnauthorizedAccount","inputs":[{"name":"account","type":"address","internalType":"address"}]},{"type":"error","name":"ReentrancyGuardReentrantCall","inputs":[]}],"bytecode":{"object":"0x608034610eff57601f616e4338819003828101601f199081168501946001600160401b039493909285871184881017610ee95780849260409889528339602093849181010312610eff57516001600160a01b038082169590949091869003610eff57610069610f04565b600d81526c4e6967687420416e642044617960981b8582015261008a610f04565b906003918281526213899160ea1b87820152815195858711610ee9576000968754936001948581811c91168015610edf575b8b821014610ecb5790898b838a80879611610e9e575b505050508a90888311600114610e41578a92610e36575b505060001982871b1c191690841b1787555b815191868311610e225783548481811c91168015610e18575b8a821014610e045790818a8886959411610dcd575b50508991878411600114610d7257508892610d67575b505060001982851b1c191690821b1781555b3315610d4f57600680546001600160a01b03198082163390811790935598167f8be0079c531659141344cd1fd0a4f28419497f9722a3daafe3b4186f6b6457e08780a3806007558851916127e0830183811086821117610d3b578a5260bb83526101038784015260628a84015260b260608401526101266080840152608060a084015261011560c0840152602460e08401526101009060d88285015261012094608c8686015260b0610140860152607961016086015260c761018086015260a56101a08601526101286101c086015260da6101e086015260ed61020086015260a961022086015261010161024086015260c861026086015261011661028086015260176102a086015260876102c086015260236102e086015261011e610300860152604e610320860152601461034086015260c9610360860152610109610380860152606f6103a086015260ec6103c086015260476103e0860152603e61040086015261011261042086015260906104408601526013956013610460870152607061048087015260e86104a08701526101146104c0870152607d6104e0870152608a61050087015261011861052087015260ac610540870152606561056087015261010e61058087015260746105a087015260446105c087015260086105e08701526049610600870152605c6106208701526038610640870152608361066087015261013e61068087015260866106a087015260546106c087015260316106e0870152601a61070087015260076107208701526101376107408701526022610760870152600d610780870152602c6107a087015261011c6107c087015260be6107e0870152610800860152606661082086015260d2610840860152605f610860860152604661088086015261013a6108a086015261012e6108c086015260b96108e086015260c461090086015261010f610920860152605a610940860152609e610960860152610105610980860152609a6109a086015261013d6109c086015260516109e0860152606a610a008601526026610a20860152610106610a40860152601c610a60860152600a610a808601526097610aa08601526034610ac08601526011610ae08601526035610b0086015260e6610b208601526052610b408601526042610b608601526037610b8086015260eb610ba0860152605b610bc08601526043610be0860152608e610c0086015260f9610c20860152610113610c408601526089610c6086015260ea610c8086015260d1610ca086015261012d610cc08601526019610ce086015260df610d0086015260d0610d208601526032610d4086015260e0610d6086015260a0610d8086015260f0610da0860152606e610dc0860152600b610de086015260d3610e0086015261011a610e2086015260ba610e4086015260af610e6086015261012f610e80860152603c610ea0860152607c610ec086015261013b610ee0860152604c610f008601526009610f208601526033610f408601526027610f608601526068610f808601526056610fa08601526059610fc086015260bf610fe0860152608461100086015260ab61102086015260e461104086015260bc61106086015261010c61108086015261012a6110a0860152886110c08601526110e0850152605361110085015260e561112085015260e161114085015261011761116085015260f361118085015260fc6111a0850152603b6111c085015260ae6111e0850152605d611200850152605e61122085015260166112408501526095611260850152609c6112808501526101396112a0850152607f6112c085015260736112e085015260e261130085015260fe611320850152606161134085015260cb61136085015260c26113808501526113a084015260a86113c084015260d46113e08401526050611400840152600e61142084015261012461144084015260816114608401528561148084015260f76114a084015260b66114c084015260d96114e0840152608561150084015260996115208401526092611540840152606d611560840152610110611580840152606c6115a08401526101046115c08401526101196115e084015261013461160084015260a3611620840152610132611640840152610131611660840152608b61168084015260b86116a084015260966116c084015260986116e0840152601d6117008401526075611720840152601261174084015260a261176084015260776117808401526101236117a084015260a66117c084015260786117e0840152606b61180084015260186118208401528161184084015260ce61186084015261010b61188084015261011d6118a0840152608f6118c08401526101026118e084015260fb611900840152600f90600f61192085015260bd611940850152600261196085015260936119808501526101386119a08501526101366119c0850152602d6119e0850152609f611a008501526021611a20850152602f611a4085015260c0611a60850152610135611a8085015261012c611aa085015260ee611ac085015260d7611ae085015260c1611b008501528a611b20850152610108611b408501526028611b6085015260fd611b8085015260cd611ba08501526055611bc0850152610125611be085015260f5611c0085015260e7611c208501526036611c40850152608d611c60850152604d611c80850152609d611ca08501526071611cc0850152603f611ce0850152604f611d0085015260aa611d20850152610111611d40850152611d6084015260db611d80840152610130611da084015260a1611dc0840152601e611de084015260c3611e008401526039611e208401526060611e408401526064611e608401526005611e8084015260de611ea0840152610122611ec08401526082611ee084015260e9611f0084015260a4611f2084015261011f611f40840152610127611f608401526072611f80840152610107611fa08401526025611fc08401526067611fe08401526088612000840152604161202084015261010d61204084015260c56120608401526045612080840152603d6120a0840152602e6120c084015260a76120e08401526057612100840152604861212084015260cf61214084015261010a6121608401526101336121808401526101216121a0840152601b6121c084015260ad6121e0840152609b61220084015260f861222084015260b16122408401526006612260840152607a61228084015260046122a084015260946122c084015260b46122e08401526010926010612300820152607b612320820152604b61234082015260fa61236082015260c661238082015260636123a082015260dd6123c082015261011b6123e082015260ff612400820152602b612420820152601561244082015260d5612460820152602961248082015260916124a0820152602a6124c082015260b76124e08201526069612500820152607e612520820152603061254082015260dc61256082015260ca61258082015260cc6125a082015260ef6125c082015260f66125e082015260b561260082015260b3612620820152603a61264082015261012b61266082015260f461268082015260d66126a082015261013c6126c082015260586126e082015260e36127008201526076612720820152604a612740820152610129612760820152600c61278082015260f26127a082015260f16127c08201526008548061013f8060085510610d08575b5093919093916008875287872093875b828110610cc2575050508593865b88828210610c8f57505050505060130155816009558551918683019183831090831117610c7b57509060fa929186527329c8950157979a0bc26772f1cc74006d6cf974738152015274fa29c8950157979a0bc26772f1cc74006d6cf97473600a55600b541617600b5551615f089081610f3b8239f35b634e487b7160e01b81526041600452602490fd5b610cb7859761ffff86979694959651169085851b60031b9161ffff809116831b921b19161790565b960193929101610c05565b8896939496895b8b848210610ce257505086820155929593928301610bf7565b8951919992889261ffff8c851b60031b81811b19909316911690911b1792019801610cc9565b600888528888206013810180546001600160f01b03169055610d3591600f0160041c810190601401610f23565b38610be7565b634e487b7160e01b87526041600452602487fd5b8851631e4fbdf760e01b815260048101869052602490fd5b01519050388061013f565b858a528a8a20869590939291168a5b8c828210610db75750508411610d9f575b505050811b018155610151565b015160001983871b60f8161c19169055388080610d92565b8385015186558897909501949384019301610d81565b610df491878c5289828d209181880160051c8301938810610dfb575b0160051c0190610f23565b388a610129565b92508192610de9565b634e487b7160e01b89526022600452602489fd5b90607f1690610114565b634e487b7160e01b88526041600452602488fd5b0151905038806100e9565b9084879416918b80528c8c20928d8d905b828210610e875750508411610e6f575b505050811b0187556100fb565b015160001983891b60f8161c19169055388080610e62565b8385015186558a979095019493840193018e610e52565b828480610ec29652209181870160051c8301938710610dfb570160051c0190610f23565b898b388a6100d2565b634e487b7160e01b8a52602260045260248afd5b90607f16906100bc565b634e487b7160e01b600052604160045260246000fd5b600080fd5b60408051919082016001600160401b03811183821017610ee957604052565b818110610f2e575050565b60008155600101610f2356fe6080604081815260048036101561001557600080fd5b600092833560e01c90816301ffc9a714610f315750806306fdde0314610e64578063081812fc14610e29578063095ea7b314610d4d5780631249c58b1461098a57806318160ddd1461096b57806323b872dd146109535780632a55205a146108d5578063386b2304146108ac5780633ccfd60b1461081157806342842e0e146107e25780636352211e146107b15780636817c76c1461078e578063709c163e146106b657806370a0823114610661578063715018a61461060457806374b1ceaf146105e85780638da5cb5b146105bf57806395d89b41146104a2578063a22cb46514610401578063b88d4fde1461036e578063c87b56dd14610237578063d5abeb011461021a578063e985e9c5146101c85763f2fde38b1461013657600080fd5b346101c45760203660031901126101c45761014f610fff565b906101586117d4565b6001600160a01b039182169283156101ae575050600654826bffffffffffffffffffffffff60a01b821617600655167f8be0079c531659141344cd1fd0a4f28419497f9722a3daafe3b4186f6b6457e08380a380f35b51631e4fbdf760e01b8152908101849052602490fd5b8280fd5b50503461021657806003193601126102165760ff816020936101e8610fff565b6101f061101a565b6001600160a01b0391821683526005875283832091168252855220549151911615158152f35b5080fd5b5050346102165781600319360112610216576020905161013f8152f35b50346101c45760203660031901126101c457803561025861014182106113b6565b600b54835163485c475f60e01b8152919085906001600160a01b031681848681845afa938415610364578294610340575b5085516371a9730560e01b815294859182905afa928315610336576102fa936102f5936102f0936102c8938961030d9a94610311575b5050429061269a565b6102da6102d58251613521565b611583565b90608081015190602087820151910151916115f1565b613521565b6116b2565b9051918291602083526020830190610fda565b0390f35b61032e9294503d8091833e61032681836111b9565b81019061155e565b9138806102bf565b84513d87823e3d90fd5b61035d9194503d8084833e61035581836111b9565b810190611456565b9238610289565b86513d84823e3d90fd5b5090346101c45760803660031901126101c457610389610fff565b61039161101a565b6044359185606435956001600160401b038711610216573660238801121561021657860135956103cc6103c3886111da565b965196876111b9565b868652366024888301011161021657866103fe9760246020930183890137860101526103f98383836111f5565b613672565b80f35b5090346101c457806003193601126101c45761041b610fff565b906024359182151580930361049e576001600160a01b03169283156104895750338452600560205280842083855260205280842060ff1981541660ff8416179055519081527f17307eab39ab6107e8899845ad3d59bd9653f200f220920489ca2b5937696c3160203392a380f35b836024925191630b61174360e31b8352820152fd5b8480fd5b5091346105bc57806003193601126105bc5781519181600192600154938460011c91600186169586156105b2575b602096878510811461059f578899509688969785829a52918260001461057857505060011461051c575b50505061030d929161050d9103856111b9565b51928284938452830190610fda565b9190869350600183527fb10e2d527612073b26eecdfd717e6a320cf44b4afac2b0732d9fcbe2b7fa0cf65b828410610560575050508201018161050d61030d6104fa565b8054848a018601528895508794909301928101610547565b60ff19168782015293151560051b8601909301935084925061050d915061030d90506104fa565b634e487b7160e01b835260228a52602483fd5b92607f16926104d0565b80fd5b50503461021657816003193601126102165760065490516001600160a01b039091168152602090f35b5050346102165781600319360112610216576020905160268152f35b83346105bc57806003193601126105bc5761061d6117d4565b600680546001600160a01b0319811690915581906001600160a01b03167f8be0079c531659141344cd1fd0a4f28419497f9722a3daafe3b4186f6b6457e08280a380f35b5091346105bc5760203660031901126105bc576001600160a01b03610684610fff565b169283156106a15750806020938392526003845220549051908152f35b91516322718ad960e21b815291820152602490fd5b50346101c4576106c536611065565b6106d261014183106113b6565b600b54845163485c475f60e01b8152929086906001600160a01b031681858781845afa948515610784578295610768575b5086516371a9730560e01b815295869182905afa93841561075e57936102f5936102f0936102c8936102fa978a61030d9b95610741575b505061269a565b6107569295503d8091833e61032681836111b9565b92388061073a565b85513d88823e3d90fd5b61077d9195503d8084833e61035581836111b9565b9338610703565b87513d84823e3d90fd5b50503461021657816003193601126102165760209051671bc16d674ec800008152f35b5091346105bc5760203660031901126105bc57506107d160209235611706565b90516001600160a01b039091168152f35b505034610216576103fe906107f636611030565b919251926108038461119e565b8584526103f98383836111f5565b50346101c457826003193601126101c45761082a6117d4565b610832611741565b47908115610869575060065483918291829182916001600160a01b031682f11561085f5750600160075580f35b51903d90823e3d90fd5b606490602084519162461bcd60e51b8352820152601e60248201527f4e6f20457468657220617661696c61626c6520746f20776974686472617700006044820152fd5b505034610216578160031936011261021657600b5490516001600160a01b039091168152602090f35b50919034610216576108e636611065565b92905081516108f4816110e5565b600a549160018060a01b0392838116835260a01c9485602084015285810295818704149015171561094057815184519084166001600160a01b0316815261271086046020820152604090f35b634e487b7160e01b815260118652602490fd5b83346105bc576103fe61096536611030565b916111f5565b5050346102165781600319360112610216576020906009549051908152f35b50826003193601126101c45761099e611741565b671bc16d674ec800003410610d165761013f6009541015610cdf578151916020928381019044825242838201523360601b6060820152605481526109e181611183565b519020600854908115610ccc57819006906109fb82611764565b919061ffff809154600394851b1c169360001992838101908111610cb95782610a26610a3392611764565b905490871b1c1691611764565b838293925491871b92831b921b19161790556008548015610ca657820190610a5a82611764565b9091825491861b1b1916905560085560095460018101809111610c9357600955835191610a868361119e565b8783523315610c7c5783885260028752848820546001600160a01b03168015159285929084610c4b575b5033808b52908952868a2080546001019055828a5260028952868a2080546001600160a01b03191682179055907fddf252ad1be2c89b69c2b068fc378daa952ba7f163c4a11628f55a4df523b3ef8a80a4610c3457333b610b15575b85600160075580f35b84610b519184959697945180938192630a85bd0160e11b96878452338b8501528860248501526044840152608060648401526084830190610fda565b038186335af1839181610bf0575b50610bb95750503d15610bb1573d610b76816111da565b90610b83845192836111b9565b81528091853d92013e5b80519384610bab578251633250574960e11b81523381860152602490fd5b84925001fd5b506060610b8d565b9194506001600160e01b031990911603610bd95750503880808080610b0c565b602492505190633250574960e11b82523390820152fd5b9091508681813d8311610c2d575b610c0881836111b9565b81010312610c2957516001600160e01b031981168103610c29579038610b5f565b8380fd5b503d610bfe565b82516339e3563760e11b8152808501879052602490fd5b600084815260046020526040902080546001600160a01b0319169055828b52818a52878b2090815401905538610ab0565b8451633250574960e11b8152808701899052602490fd5b634e487b7160e01b885260118652602488fd5b634e487b7160e01b895260318752602489fd5b634e487b7160e01b8a526011885260248afd5b634e487b7160e01b865260128452602486fd5b6020606492519162461bcd60e51b8352820152601260248201527113585e081cdd5c1c1b1e481c995858da195960721b6044820152fd5b6020606492519162461bcd60e51b83528201526012602482015271496e73756666696369656e742066756e647360701b6044820152fd5b5090346101c457806003193601126101c457610d67610fff565b91602435610d7481611706565b33151580610e16575b80610ded575b610dd7576001600160a01b039485169482918691167f8c5be1e5ebec7d5bd14f71427d1e84f3dd0314c0f7b2291e5b200ac8c7c3b9258880a48452602052822080546001600160a01b031916909117905580f35b835163a9fbf51f60e01b81523381850152602490fd5b506001600160a01b03811686526005602090815284872033885290528386205460ff1615610d83565b506001600160a01b038116331415610d7d565b50346101c45760203660031901126101c457918260209335610e4a81611706565b50825283528190205490516001600160a01b039091168152f35b5091346105bc57806003193601126105bc578151918182549260018460011c9160018616958615610f27575b602096878510811461059f578899509688969785829a529182600014610578575050600114610ecc5750505061030d929161050d9103856111b9565b91908693508280527f290decd9548b62a8d60345a988386fc84ba6bc95484008f6362f93160ef3e5635b828410610f0f575050508201018161050d61030d6104fa565b8054848a018601528895508794909301928101610ef6565b92607f1692610e90565b925050346101c45760203660031901126101c4573563ffffffff60e01b81168091036101c4576020925063152a902d60e11b8114908115610f74575b5015158152f35b6380ac58cd60e01b811491508115610fa6575b8115610f95575b5038610f6d565b6301ffc9a760e01b14905038610f8e565b635b5e139f60e01b81149150610f87565b60005b838110610fca5750506000910152565b8181015183820152602001610fba565b90602091610ff381518092818552858086019101610fb7565b601f01601f1916010190565b600435906001600160a01b038216820361101557565b600080fd5b602435906001600160a01b038216820361101557565b6060906003190112611015576001600160a01b0390600435828116810361101557916024359081168103611015579060443590565b6040906003190112611015576004359060243590565b90670de0b6b3a76400009182810292818404149015171561109857565b634e487b7160e01b600052601160045260246000fd5b906127109182810292818404149015171561109857565b81156110cf570490565b634e487b7160e01b600052601260045260246000fd5b604081019081106001600160401b0382111761110057604052565b634e487b7160e01b600052604160045260246000fd5b60e081019081106001600160401b0382111761110057604052565b60a081019081106001600160401b0382111761110057604052565b61012081019081106001600160401b0382111761110057604052565b606081019081106001600160401b0382111761110057604052565b608081019081106001600160401b0382111761110057604052565b602081019081106001600160401b0382111761110057604052565b90601f801991011681019081106001600160401b0382111761110057604052565b6001600160401b03811161110057601f01601f191660200190565b6001600160a01b03918216929091831561137e576000928284528260209560028752604096848888205416968791331515806112e5575b509060027fddf252ad1be2c89b69c2b068fc378daa952ba7f163c4a11628f55a4df523b3ef92846112b2575b858352600381528b8320805460010190558683525289812080546001600160a01b0319168517905580a416928383036112915750505050565b6064945051926364283d7b60e01b8452600484015260248301526044820152fd5b600087815260046020526040902080546001600160a01b0319169055848352600381528b83208054600019019055611258565b9193945091508061133d575b156113015785929187913861122c565b87868861131e576024915190637e27328960e01b82526004820152fd5b905163177e802f60e01b81523360048201526024810191909152604490fd5b503387148015611362575b806112f157508582526004815233858984205416146112f1565b5086825260058152878220338352815260ff8883205416611348565b604051633250574960e11b815260006004820152602490fd5b6040513d6000823e3d90fd5b604051906113b08261119e565b60008252565b156113bd57565b60405162461bcd60e51b8152602060048201526015602482015274546f6b656e204944206f7574206f662072616e676560581b6044820152606490fd5b6001600160401b0381116111005760051b60200190565b81601f82011215611015578051611427816111da565b9261143560405194856111b9565b81845260208284010111611015576114539160208085019101610fb7565b90565b60209081818403126110155780516001600160401b039182821161101557019083601f8301121561101557815161148c816113fa565b9460409261149d60405197886111b9565b828752858088019360051b8601019482861161101557868101935b8685106114ca57505050505050505090565b845183811161101557820160e09182601f198388030112611015578751926114f184611116565b8a83015186811161101557878c61150a92860101611411565b8452888301518b850152606092838101518a860152608093848201519086015260a093848201519086015260c09384820151908601520151926003841015611015578a9384938201528152019401936114b8565b906020828203126110155781516001600160401b038111611015576114539201611411565b906115ef604560405180947f22696d616765223a2022646174613a696d6167652f7376672b786d6c3b626173602083015263194d8d0b60e21b60408301526115d5815180926020604486019101610fb7565b8101601160f91b60448201520360258101855201836111b9565b565b60429194936115ef93604051968793713d913232b9b1b934b83a34b7b711101d101160711b602086015261162f815180926020603289019101610fb7565b84016a111610113730b6b2911d1160a91b6032820152611659825180936020603d85019101610fb7565b0161088b60f21b603d820152611679825180936020603f85019101610fb7565b0161174b60f21b603f820152611699825180936020604185019101610fb7565b01607d60f81b60418201520360228101855201836111b9565b906115ef603d60405180947f646174613a6170706c69636174696f6e2f6a736f6e3b6261736536342c00000060208301526116f68151809260208686019101610fb7565b810103601d8101855201836111b9565b6000818152600260205260409020546001600160a01b0316908115611729575090565b60249060405190637e27328960e01b82526004820152fd5b600260075414611752576002600755565b604051633ee5aeb560e01b8152600490fd5b906008548210156117a4576008600052601e8260041c7ff3f7a9fe364faab93b216da50a3214154f22a0a2b415b23a84c8169e8b636ee3019260011b1690565b634e487b7160e01b600052603260045260246000fd5b9190820391821161109857565b9190820180921161109857565b6006546001600160a01b031633036117e857565b60405163118cdaa760e01b8152336004820152602490fd5b6040519061180d82611131565b60606080838281528260208201528260408201526000838201520152565b602081830312611015578051906001600160401b038211611015570161012081830312611015576040519161185f8361114c565b81516001600160401b038111611015578161187b918401611411565b83526020820151602084015260408201516040840152606082015160608401526080820151608084015260a08201516001600160401b03811161101557816118c4918401611411565b60a084015260c08201516001600160401b0381116110155781601f82850101121561101557808301516118f6816113fa565b9161190460405193846111b9565b81835260208301908460208460051b83890101011161101557602081870101915b60208460051b83890101018310611b44575050505060c084015260e08201516001600160401b0381116110155781601f82850101121561101557808301519061196d826113fa565b9261197b60405194856111b9565b82845260208401908060208560051b85890101011161101557602083870101915b60208560051b858901010183106119ce57505050505060e0830152610100809101519060048210156110155782015290565b82516001600160401b0381116110155760a088860182018403601f19011261101557604051916119fd83611131565b602082878b0101015160039081811015611015578452604083888c0101015190811015611015576020840152606082878b010101516001600160401b0381116110155784603f82858a8e01010101121561101557808760208c93868386010101015191876040611a6c856113fa565b95611a79825197886111b9565b858752838960208901968860051b93010101010111611015578991868e60408483878401010101925b60408760051b8685898601010101018410611b3457505050505050506040840152608082878b010101516001600160401b03811161101557846020611aed92858a8e01010101611411565b606084015260a082878b01010151906001600160401b03821161101557602093611b22868680969581968f8d01010101611411565b6080820152815201930192905061199c565b8351815260209384019301611aa2565b82516001600160401b03811161101557878301016040818803601f1901126110155760405190611b73826110e5565b60208101516001600160401b03811161101557886020611b9592840101611411565b825260408101516001600160401b0381116110155788603f8284010112156110155760208183010151611bc7816113fa565b92611bd560405194856111b9565b81845260208401908b60408460051b86840101011161101557604084820101915b60408460051b86840101018310611c225750505050506020828101919091529082529283019201611925565b82516001600160401b0381116110155760c083870182018f03603f19011261101557604051908e611c5283611168565b605f8289870101011215611015576040518f611c6d82611183565b819060c0848b8901010111611015576040838a88010101905b60c0848b890101018210611d5a575050825260c0818886010101516001600160401b038111611015578f605f82848b89010101011215611015578f604082848b89010101015190611cd6826113fa565b92611ce460405194856111b9565b828452602084019160608c83888760051b928d01010101011161101557606081868d8b01010101915b60608c83888760051b928d01010101018310611d4a57505050509160e0602094928594858401528987010101516040820152815201920191611bf6565b8251815260209283019201611d0d565b8151815260209182019101611c86565b60405190611d778261114c565b816101006000918281528260208201528260408201528260608201528260808201528260a08201528260c08201528260e08201520152565b6040519061010082018281106001600160401b03821117611100576040528160e060609182815282602082015282604082015282808201528260808201528260a08201528260c08201520152565b9064e8d4a510009182810292818405149015171561109857565b906127109182810292818405149015171561109857565b9190826040910312611015576020825192015190565b90816060910312611015578051916040602083015192015190565b60041115611e6957565b634e487b7160e01b600052602160045260246000fd5b60405190611e8c826110e5565b600382526224776360e81b6020830152565b90816020910312611015575160048110156110155790565b919091604081840312611015578051926001600160401b03938481116110155781611ee2918401611411565b936020830151908111611015576114539201611411565b9080602083519182815201916020808360051b8301019401926000915b838310611f2557505050505090565b9091929394601f1982820301835285516020611f4a8251604085526040850190610fda565b910151916020818303910152815180825260208201906020808260051b85010194019260005b828110611f9157505050505060208060019297019301930191939290611f16565b9091929394601f198382030185528551908151816000905b600482106120165750505060208201519160c0608083015282518060c0840152602060e084019401906000905b808210611ffd575050506040015160a0909101529460209081019401929190600101611f70565b8251865260209586019590920191600190910190611fd6565b825181526020928301926001929092019101611fa9565b60031115611e6957565b908082519081815260208091019281808460051b830101950193600080925b858410612067575050505050505090565b90919293949596601f1982820301845285885160a0808401825161208a8161202d565b8552838301516120998161202d565b84860152604091828401519286015281518091528360c0860192019087905b8082106121055750505060019383926120e16120f4936060808401519085830390860152610fda565b9160808092015191818403910152610fda565b990194019401929594939190612056565b825184528b959384019390920191600191909101906120b8565b9061219b61218961217761213d610120865190808752860190610fda565b6020860151602086015260408601516040860152606086015160608601526080860151608086015260a086015185820360a0870152610fda565b60c085015184820360c0860152611ef9565b60e084015183820360e0850152612037565b9161010080910151916121ad83611e5f565b015290565b6121ca6040929594939560608352606083019061211f565b946121d481611e5f565b60208201520152565b906020828203126110155781516001600160401b0392838211611015570190608082820312611015576040519260808401848110828211176111005760405282518181116110155782612231918501611411565b84526020830151818111611015578261224b918501611411565b602085015260408301518181116110155782612268918501611411565b60408501526060830151908111611015576122839201611411565b606082015290565b9190602083019261229b82611e5f565b52565b93612386936122be6101c09794939a99989a6101e0808952880190610fda565b9280516020880152602081015160408801526040810151606088015260608101516080880152608081015160a088015260a081015160c088015260c081015160e088015260e0810151906101009182890152015161012087015261014086015261232781611e5f565b61016085015283810361018085015260606123756123636123518551608086526080860190610fda565b60208601518582036020870152610fda565b60408501518482036040860152610fda565b920151906060818403910152610fda565b9415156101a08201520152565b604051906123a0826110e5565b600582526424666c6f6b60d81b6020830152565b90926123cd606093969594608084526080840190610fda565b95602083015260408201520152565b90916123f361145393604084526040840190610fda565b916020818403910152612037565b91959493909261241b60809460a0855260a0850190610fda565b9660208401526040830152606082015261243483611e5f565b0152565b8051156117a45760200190565b8051600110156117a45760400190565b8051600210156117a45760600190565b80518210156117a45760209160051b010190565b949392979695979190916124b961249a60e09460e0895260e0890190610fda565b60209384890152604092604089015260609588820360608a0152611ef9565b9060809087830360808901528651948584528484019285808860051b8701019901976000955b8887106124fe57505050505050505050509060c0919460a08201520152565b909192939495969798998880600192601f19858203018a528d519061252a82518a83528a830190610fda565b9183810151848301528a8101518b8301528781015188830152888101518983015260a0808201519083015260c080910151916125658361202d565b01529c01970197019598979694939291906124df565b9092612594611453959394608084526080840190610fda565b9360208301526040820152606081840391015261211f565b939061268c9261145396946125cc6125df9360a0895260a0890190610fda565b9160208801528682036040880152610fda565b848103606086015260e061267b61266961265761264561263361262161260f6101008a5190808b528a0190610fda565b60208a015189820360208b0152610fda565b604089015188820360408a0152610fda565b60608801518782036060890152610fda565b60808701518682036080880152610fda565b60a086015185820360a0870152610fda565b60c085015184820360c0860152610fda565b9201519060e0818403910152610fda565b916080818403910152610fda565b6126a2611800565b50600b546126c0906001600160a01b03165b6001600160a01b031690565b604051632548117960e01b81526004810183905290600090829060249082905afa90811561308b576000916134cc575b506126f9611800565b9460a08201518652612709611d6a565b91612712611daf565b926127206020830151611dfd565b604061272e81850151611dfd565b6127378961107b565b82516375cbcb7960e11b81526004810194909452602484019190915260448301528160648173__$a216d4fe4243b110e5694abc7741cd783a$__5af4801561308b576000916000916134ab575b50604083015260608201526127988661107b565b60406127a76020850151611dfd565b6127b382860151611dfd565b8251632c0f47d960e21b81526004810194909452602484019190915260448301528160648173__$a216d4fe4243b110e5694abc7741cd783a$__5af4801561308b5760009160009161347a575b506020830152815261281560808301516110ae565b600061282b6060840151655af3107a4000900590565b6040840151655af3107a400090059261287c61284a60608801516110ae565b604051958694859463955cb78f60e01b8652600486019094939260609260808301968352602083015260408201520152565b038173__$2d8ca8bf86eea40aef689c316826963c89$__5af490811561308b5760009161345f575b5084526128b46020830151611dfd565b60606128c36040850151611dfd565b6128cc8961107b565b604051633b7eb8ed60e21b81526004810194909452602484019190915260448301528160648173__$a216d4fe4243b110e5694abc7741cd783a$__5af490811561308b5760009160009160009161343d575b5060c084015260a0830152608082015261295b606061293c8861107b565b60405180938192633d5756df60e21b8352600483019190602083019252565b038173__$a216d4fe4243b110e5694abc7741cd783a$__5af490811561308b57600090600092613409575b50610100830191825260e083015260006129a36060850151611e17565b87612a606129b46080880151611e17565b946129c96080880151655af3107a4000900590565b906129de60a0890151655af3107a4000900590565b60c0890151655af3107a4000900590612a12612a0460e08c0151655af3107a4000900590565b9351655af3107a4000900590565b93604051998a988998636a4fc00160e11b8a5260048a0194919260e0969399989794919961010087019a8752602087015260408601526060850152608084015260a083015260c08201520152565b038173__$2d8ca8bf86eea40aef689c316826963c89$__5af490811561308b576000916133ee575b506040850152612aab612aa66040830151662386f26fc10000900590565b6137c7565b60808601526020850152610100820151612ac481611e5f565b612acd81611e5f565b158015906133e6575b80156133dc575b80156133d2575b80156133c8575b80156133be575b80156133b4575b80156133aa575b80156133a0575b8015613396575b61337c575b600b54612b28906001600160a01b03166126b4565b6040516304e74e5f60e01b81526004810187905290602090829060249082905afa90811561308b5760009161334d575b50612b8e6000612b726040850151655af3107a4000900590565b6040518093819263fe288cdb60e01b83528689600485016121b2565b038173__$30acca89589d9a9b80eb3e09f3c9eae508$__5af4801561308b57600091600091613330575b5060808b015260208a0152600b54612bd8906001600160a01b03166126b4565b6000604051809263237f554160e21b82528180612bf8876004830161228b565b03915afa90811561308b57839060009261330b575b5060009192612c5d898d51612c2560608a0151611e17565b966101008a015194612c3686611e5f565b612c3f86611e5f565b604051632fbd0c3160e11b815298899788971515946004890161229e565b038173__$2d8ca8bf86eea40aef689c316826963c89$__5af490811561308b576000916132f0575b5060e0850152856000612cab8a51612c9c89613e24565b90612ca5612393565b90613cae565b808b52604084015190612cd38960405195869485946386689cfb60e01b8652600486016123b4565b038173__$2d8ca8bf86eea40aef689c316826963c89$__5af490811561308b576000916132d5575b508852612d41600086612d186040850151655af3107a4000900590565b60405163668a036b60e11b81526004810191909152602481019190915291829081906044820190565b038173__$30acca89589d9a9b80eb3e09f3c9eae508$__5af490811561308b576000916132ba575b506060850152875160e083015160405163c2209fb960e01b81529160009183918291612d9891600484016123dc565b038173__$30acca89589d9a9b80eb3e09f3c9eae508$__5af4801561308b5787612dd388828d600095839787916132a0575b50809152613f68565b808c52612e09608087015161010088015190612dee82611e5f565b604051633afeab5d60e11b8152968795869560048701612401565b038173__$2d8ca8bf86eea40aef689c316826963c89$__5af4801561308b57600091600091613283575b50895260c0850152612e8360006080840151612e5d88612e58620151808c068c6117ba565b6117c7565b604051634b54268f60e01b81526004810192909252602482015291829081906044820190565b038173__$30acca89589d9a9b80eb3e09f3c9eae508$__5af490811561308b57600091613268575b5060a08501526001610100830151612ec281611e5f565b612ecb81611e5f565b14613257575b6002610100830151612ee281611e5f565b612eeb81611e5f565b14613245575b6003610100830151612f0281611e5f565b612f0b81611e5f565b14613192575b6000868692610100850151612f2581611e5f565b612f2e81611e5f565b6130dd575b612f638b519160c0870151908c6020825192015192604051988997889763582bca4760e11b895260048901612479565b038173__$2d8ca8bf86eea40aef689c316826963c89$__5af492831561308b578686926000906000966130b5575b50808b526040516398d37b6360e01b81529360009285928392612fb99289926004860161257b565b038173__$2d8ca8bf86eea40aef689c316826963c89$__5af493841561308b578692600095613090575b5061300b908596600095968c52604051978895869563341652d960e11b8752600487016125ac565b038173__$30acca89589d9a9b80eb3e09f3c9eae508$__5af4801561308b5761010092600091613070575b50865280516040870152015161304b81611e5f565b61305481611e5f565b61305f575b50505090565b61306893615d66565b388080613059565b61308591503d806000833e61032681836111b9565b38613036565b611397565b6000949550906130ac61300b923d8088833e61032681836111b9565b95945090612fe3565b60009296506130d691503d8084833e6130ce81836111b9565b810190611eb6565b9591612f91565b60608b016130f56130ef825160ff1690565b60ff1690565b9060c0870191613116602061310e8161310e8751612438565b510151612438565b52600161010088015161312881611e5f565b61313181611e5f565b1461313e575b5050612f33565b602061310e8161318261316b6130ef868861317a8661310e8161317261316b6130ef61318a9f5160ff1690565b9551612438565b510151612445565b525160ff1690565b510151612455565b523880613137565b968461319d9161585b565b96875160006131b66060840151655af3107a4000900590565b6040840151662386f26fc100009005926131f16131d66060880151611e17565b60405163031ae97d60e41b81529586948594600486016123b4565b038173__$2d8ca8bf86eea40aef689c316826963c89$__5af490811561308b5786926000928992849161322b575b508b5292505050612f11565b61323f91503d8086833e61032681836111b9565b3861321f565b96878561325192614585565b96612ef1565b9684613262916140f3565b96612ed1565b61327d91503d806000833e61032681836111b9565b38612eab565b905061329a91503d806000833e6130ce81836111b9565b38612e33565b6132b491503d8089833e61032681836111b9565b38612dca565b6132cf91503d806000833e61032681836111b9565b38612d69565b6132ea91503d806000833e61032681836111b9565b38612cfb565b61330591503d806000833e61032681836111b9565b38612c85565b6000925061332a903d8085833e61332281836111b9565b8101906121dd565b91612c0d565b905061334791503d806000833e6130ce81836111b9565b38612bb8565b61336f915060203d602011613375575b61336781836111b9565b810190611e9e565b38612b58565b503d61335d565b61338f8851608086015190612ca5611e7f565b8852612b13565b5060148514612b0e565b5060128514612b07565b50600e8514612b00565b50600d8514612af9565b50600a8514612af2565b5060068514612aeb565b5060038514612ae4565b5060018514612add565b508415612ad6565b61340391503d806000833e61032681836111b9565b38612a88565b905061342d915060603d606011613436575b61342581836111b9565b810190611e44565b91905038612986565b503d61341b565b915050613459915060603d6060116134365761342581836111b9565b3861291e565b61347491503d806000833e61032681836111b9565b386128a4565b905061349e915060403d6040116134a4575b61349681836111b9565b810190611e2e565b38612800565b503d61348c565b90506134c6915060403d6040116134a45761349681836111b9565b38612784565b6134e991503d806000833e6134e181836111b9565b81019061182b565b386126f0565b906134f9826111da565b61350660405191826111b9565b8281528092613517601f19916111da565b0190602036910137565b80511561365e5760405161353481611168565b604081527f4142434445464748494a4b4c4d4e4f505152535455565758595a61626364656660208201527f6768696a6b6c6d6e6f707172737475767778797a303132333435363738392b2f604082015281519160029260028101809111611098576003908190046001600160fe1b0381168103611098576135bb906002959492951b6134ef565b936020850193839284518501935b84811061360b5750505050506003905106806001146135f8576002146135ed575090565b603d90600019015390565b50603d9081600019820153600119015390565b8360049197929394959701918251600190603f9082828260121c16880101518453828282600c1c16880101518385015382828260061c1688010151888501531685010151868201530195939291906135c9565b5060405161366b8161119e565b6000815290565b813b61367f575b50505050565b604051630a85bd0160e11b8082523360048301526001600160a01b039283166024830152604482019490945260806064820152602095929091169390929083906136cd906084830190610fda565b039285816000958187895af1849181613776575b50613741575050503d600014613739573d6136fb816111da565b9061370960405192836111b9565b81528091843d92013e5b8051928361373457604051633250574960e11b815260048101849052602490fd5b019050fd5b506060613713565b919450915063ffffffff60e01b160361375e575038808080613679565b60249060405190633250574960e11b82526004820152fd5b9091508681813d83116137af575b61378e81836111b9565b8101031261049e57516001600160e01b03198116810361049e5790386136e1565b503d613784565b9060118110156117a45760051b0190565b60409182519261022084018481106001600160401b03821117611100578082526137f081611168565b6123271981526531b29c18333360d11b61024086018190526566396232333360d01b61026087018190529186528251909161382a82611168565b6104af198252602092838301528382015281860152815161384a81611168565b6102bb1981526506537383063360d41b828201526565306234333960d01b8382015285830152815161387b81611168565b61018f1981526506666383038360d41b8282015265319c311b19b360d11b8382015260608601528151936138ae85611168565b60008086526533331c9c9c1b60d11b838701526561666238343560d01b84870152608087019590955282516138e281611168565b61012c81526566666232386360d01b838201526539366239346360d01b8482015260a0870152825161391381611168565b6102bc8152653333321c9c1b60d11b83820152651bb231311a9960d11b8482015260c0870152825161394481611168565b61044c81526506666666638360d41b838201526506c6ac4c86a760d31b8482015260e0870152825161397581611168565b6105dc81526506330656163360d41b838201526534636266356560d01b8482015261010087015282516139a781611168565b6109c4808252651c18321ab33360d11b848301526535376166366360d01b8583015261012088019190915283516139dd81611168565b61070881526506e6ec66ecc760d31b848201526536333965376160d01b85820152610140880152835190613a1082611168565b81526536646261663160d01b838201526506cca70ca70760d31b848201526101608701528251613a3f81611168565b610dac81526536346163656160d01b838201526537393764393560d01b848201526101808701528251613a7181611168565b61125c8152650d584e59594d60d21b838201526538343664613360d01b848201526101a08701528251613aa381611168565b6117708152650d4c4e4c191960d21b838201526539303563623160d01b848201526101c08701528251613ad581611168565b611c848152651a1b9c19b21b60d11b83820152651cb11a31b13360d11b8482018190526101e0880191909152835190613b0d82611168565b611f4082526519b29b9ab1b360d11b84830152848201526102008701526533333333333360d11b94859060005b601180821015613c9457613b4e828b6137b6565b5151851215613b61575b50600101613b3a565b601082999594939214600014613c1d5750505050509081613c0d8583613ba9613bd597988a613c1998613b9f65ffffffffffff60d01b9687936137b6565b510151169a6137b6565b51015116965b8351958691848301600791602360f81b825265ffffffffffff60d01b1660018201520190565b0392613be9601f19948581018852876111b9565b519687928301600791602360f81b825265ffffffffffff60d01b1660018201520190565b039081018552846111b9565b9190565b60018992939495990190818311613c825750613c39908a6137b6565b51518412613c48576001613b58565b959650613bd595613c1995949350613c0d92506001600160d01b031991508490613c78908386613b9f838e6137b6565b5101511696613baf565b634e487b7160e01b8452600452602483fd5b505050613bd594959650613c1993929150613c0d90613baf565b9092919281908251928151865193602097888080950195019087856040510193019385850198811115613d25575b5050508394508095939160405195869103910301945b838210613d165750506000848401968701525050603f909301601f19166040528252565b81518152908201908201613cf2565b90919293959450602181870301968a600093600082851015613e1b575b601f859998979916830360031b9851965b88518881188b1c15613d8f57815260018091019801988b8a1015613d79575b9897613d53565b505050959750505050509183925b388080613cdc565b918497949598919a92819d94979a9c9d613dd4575b50505050505b81818401015181880152019083821015613dc657908290613daa565b505092019201928392613d87565b90809293949596508a8d2003613dec57879594613da4565b8a9192989597949c9b9996939a5260018091019801988b8a10613d725750505095975050505050918392613d87565b50838620613d42565b806000917a184f03e93ff9f4daa797ed6e38ed64bf6a1f01000000000000000080821015613f5a575b506d04ee2d6d415b85acef810000000080831015613f4b575b50662386f26fc1000080831015613f3c575b506305f5e10080831015613f2d575b5061271080831015613f1e575b506064821015613f0e575b600a80921015613f04575b600190816021613ebc600187016134ef565b95860101905b613ece575b5050505090565b600019019083906f181899199a1a9b1b9c1cb0b131b232b360811b8282061a835304918215613eff57919082613ec2565b613ec7565b9160010191613eaa565b9190606460029104910191613e9f565b60049193920491019138613e94565b60089193920491019138613e87565b60109193920491019138613e78565b60209193920491019138613e66565b604093508104915038613e4d565b929192600b84148015906140a7575b6140a257613fe2613fa460405195613f8e876110e5565b600487526318985b1b60e21b6020880152613e24565b94613fd060405196879563fdb68cd360e01b875260048701526101806024870152610184860190610fda565b84810360031901604486015290610fda565b826000958692836064830152607460848301528360a4830152603260c4830152609660e48301526104b0610104830152610708806101248401526064610144840152610164830152038173__$2d8ca8bf86eea40aef689c316826963c89$__5af4918215614097578461145394959361407a575b505060405190614065826110e5565b600382526224626160e81b6020830152613cae565b61408f9293503d8091833e61032681836111b9565b903880614056565b6040513d86823e3d90fd5b925050565b50600f841415613f77565b60206115ef9193929360405194816140d38793518092868087019101610fb7565b82016140e782518093868085019101610fb7565b010380855201836111b9565b9190916140fe611800565b50600b5460408051633a0de35f60e21b8152600481019590955260009490918590829060249082906001600160a01b03165afa90811561443b578591614228575b50614223929394506101808101516060850152835190614180602092838301519085519061416c826110e5565b600382526224626360e81b86830152613cae565b855281850161419281518351906140b2565b90526224746f60e81b61420b6141f56141cb885187860151908851906141b7826110e5565b600382526224736360e81b89830152613cae565b808952610140850151908751906141e1826110e5565b6003825262048e6d60eb1b88830152613cae565b928388526101c0610160820151910151906140b2565b935192614217846110e5565b60038452830152613cae565b815290565b90503d8086833e61423981836111b9565b8101946020828703126105bc5781516001600160401b03928382116101c45701916101e09283818903126101c4578451938401848110838211176144275785528051828111610c29578861428e918301611411565b84526020810151828111610c2957886142a8918301611411565b602085015284810151828111610c2957886142c4918301611411565b858501526060810151828111610c2957886142e0918301611411565b60608501526080810151828111610c2957886142fd918301611411565b608085015260a0810151828111610c29578861431a918301611411565b60a085015260c0810151828111610c295788614337918301611411565b60c085015260e0810151828111610c295788614354918301611411565b60e08501526101008082015183811161049e5789614373918401611411565b908501526101208082015183811161049e5789614391918401611411565b908501526101408082015183811161049e57896143af918401611411565b908501526101608082015183811161049e57896143cd918401611411565b9085015261018080820151908501526101a08082015183811161049e57896143f6918401611411565b908501526101c092838201519283116105bc57509661441b9161422396979801611411565b9082015284939261413f565b634e487b7160e01b84526041600452602484fd5b82513d87823e3d90fd5b90816020910312611015575190565b5190811515820361101557565b6040519061446e826110e5565b600382526224626560e81b6020830152565b6040519061448d826110e5565b600482526324746f6b60e01b6020830152565b604051906144ad826110e5565b600782526676697369626c6560c81b6020830152565b604051906144d0826110e5565b60068252653434b23232b760d11b6020830152565b604051906144f2826110e5565b6003825262246f6360e81b6020830152565b9060078110156117a45760051b0190565b519069ffffffffffffffffffff8216820361101557565b908160a09103126110155761454081614515565b91602082015191604081015191611453608060608401519301614515565b69ffffffffffffffffffff168015611098576000190190565b604d811161109857600a0a90565b929061461c92614593611800565b50602061459f83613e24565b6145fa60266145b084860151613e24565b92604051938491651e131a59da1d60d21b878401526145d781518092898787019101610fb7565b82016145eb82518093898785019101610fb7565b010360068101845201826111b9565b60405180968192638587a4a560e01b8352606060048401526064830190610fda565b600060248301526101906044830152038173__$30acca89589d9a9b80eb3e09f3c9eae508$__5af493841561139757600094615826575b5060206146bd9161469b60266146748461466c88613e24565b940151613e24565b92604051938491651e531a59da1d60d21b878401526145d781518092898787019101610fb7565b60405180938192638587a4a560e01b8352606060048401526064830190610fda565b600060248301526101906044830152038173__$30acca89589d9a9b80eb3e09f3c9eae508$__5af4908115611397576000916157f3575b5061475c9061473961473060249661470d895191613e24565b906040519061471b826110e5565b600382526224786360e81b6020830152613cae565b91828852613e24565b9060405190614747826110e5565b600382526224796360e81b6020830152613cae565b8452600b546040516309a1a3cf60e31b8152600481018390529360009185919082906001600160a01b03165afa928315611397576000936155e4575b5061014083015160608501526147b460208501518451906140b2565b602085015261484861480b6147eb6147d6875161018088015190612ca5614461565b8088526147e285613e24565b90612ca5614480565b808752610100860151156155dc576148016144c3565b905b612ca56144e5565b808652610100850151156155ce576148216144a0565b905b60405190614830826110e5565b6006825265123bb0ba32b960d11b6020830152613cae565b84526148ea60405161485981611116565b6001815260026020820152600360408201526004606082015260056080820152600660a0820152600760c0820152602061489284613e24565b6148c86022604051809361683160f01b868301526148b881518092888686019101610fb7565b81010360028101845201826111b9565b60405180948192638587a4a560e01b8352606060048401526064830190610fda565b6000602483015260066044830152038173__$30acca89589d9a9b80eb3e09f3c9eae508$__5af491821561139757600092615597575b5060206149516149999460ff6149368686614504565b51169461494b60ff60c0870151169186614504565b52613e24565b6149776022604051809361341960f11b868301526148b881518092888686019101610fb7565b60405180958192638587a4a560e01b8352606060048401526064830190610fda565b6000602483015260056044830152038173__$30acca89589d9a9b80eb3e09f3c9eae508$__5af49283156113975760009361555f575b50614b566033614b8b936149f660ff6149ee614ba198614b2a97614504565b511691613e24565b60405191614b3a614a866020850192614a81605b87713c75736520687265663d2223686f7573655f60701b97888852614a39815180926020603286019101610fb7565b81017f2220793d2235353622207472616e73666f726d3d227472616e736c61746528346032820152681b181618149110179f60b91b605282015203603b8101895201876111b9565b613e24565b91614aff6066604051809560208201978852614aac815180926020603286019101610fb7565b81017f22207472616e73666f726d3d227472616e736c617465283435302c302920736360328201527330b63294169896189491103c9e911a9a9b11179f60611b60528201520360468101865201846111b9565b6040519788956e1e339034b21e93b437bab9b2b9939f60891b6020880152518092602f880190610fb7565b840191518093602f840190610fb7565b01631e17b39f60e11b602f8201520360138101845201826111b9565b614b6686519160408701516140b2565b9060405190614b74826110e5565b6005825264091cdade5b60da1b6020830152613cae565b80855261010084015115615551576148016144a0565b835260405191826102208101106001600160401b0361022085011117611100576102208301604052601083526102003660208501376020810151604051633fabe5a360e21b81526001600160a01b039091169060a081600481855afa80156113975760009160009060009261552b575b50614c1b87612438565b52614c2586612445565b5260405163313ce56760e01b815291602083600481845afa928315611397576000936154ed575b50604051633942720b60e11b815291600083600481855afa928315611397576000936154cc575b50614d11906020890151614d07604a60405183614c9a829551809260208086019101610fb7565b7f2c7b2274726169745f74797065223a2254726164696e67204368617274222c2260208284010152673b30b63ab2911d1160c11b60408284010152885190614ceb8260488386010160208d01610fb7565b82010161227d60f01b604882015203602a8101845201826111b9565b60208a015261455e565b6002905b6010821061541d57505050614d2985612438565b5192614d3486612438565b519460005b8751811015614dae5785614d4d828a612465565b5110614d9b575b86614d5f828a612465565b5111614d88575b6002810180911115614d3957634e487b7160e01b600052601160045260246000fd5b9550614d948688612465565b5195614d66565b9450614da78588612465565b5194614d54565b5090919395929496614dc087896117ba565b94614dca85612445565b518551908160001981011161109857614dea614df1926000190188612465565b51906117ba565b936060976000985b87518a1015614f905760018a01808b1161109857614e179089612465565b51885160001981019190821161109857614dea614e34928b612465565b60c8908181029181830414901517156110985787614e51916110c5565b90603e8201821161109857614e708c614e6a8d8c612465565b516117ba565b60909081810290808204831490151715611098578b614e8e916110c5565b8103908111611098576103098101811161109857614f53918c614f6557614edf610309614ed8603e604051614ec2816110e5565b60018152604d60f81b6020820152975b01613e24565b9301613e24565b916040519482614ef9879451809260208088019101610fb7565b8301614f0e8251809360208085019101610fb7565b01614f228251809360208085019101610fb7565b0191600160fd1b6020840152602192614f448251809360208785019101610fb7565b010360018101845201826111b9565b98600281018091116110985798614df9565b614edf610309614ed8603e604051614f7c816110e5565b60018152601360fa1b602082015297614ed2565b985094509450945095909660ff831660011960ff8516011161109857614fc690614fc060ff851660011901614577565b906110c5565b9060405192632c7cc89b60e11b92838552600485015260008460248173__$30acca89589d9a9b80eb3e09f3c9eae508$__5af4938415611397576000946153f6575b5061501e9190614fc09060ff1660011901614577565b604051918252600482015260008160248173__$30acca89589d9a9b80eb3e09f3c9eae508$__5af4908115611397576000916153db575b50604051936150d9605b866020810198681e3830ba3410321e9160b91b8a52615088815180926020602986019101610fb7565b81017f222066696c6c3d226e6f6e6522207374726f6b653d22234646444231392220736029820152713a3937b5b296bbb4b23a341e911a1110179f60711b604982015203603b8101885201866111b9565b60c08401516153b9576040516150ee816110e5565b600381526203736360ec1b6020820152905b60405180916020820193701e3a32bc3a103c1e91189c9811103c9e9160791b85528051908160318501916020019161513792610fb7565b7f2220746578742d616e63686f723d226d6964646c65222066696c6c3d222339346031918401918201527f303045332220666f6e742d66616d696c793d22417269616c2d426c61636b2220605182015271103337b73a16b9b4bd329e911918383c111f60711b60718201528151916151b89083906083840190602001610fb7565b0160838101661e17ba32bc3a1f60c91b905203606a81018252608a016151de90826111b9565b604051809360208201957f3c6720666f6e742d66616d696c793d22417269616c2d426f6c644d54222066698752604083017f6c6c3d22233934303045332220746578742d616e63686f723d22656e642220669052606083017f6f6e742d73697a653d223138223e3c74657874207472616e73666f726d3d22749052723930b739b630ba329419991c101b9c9814911f60691b60808401528051908160938501916020019161528b92610fb7565b7f3c2f746578743e3c74657874207472616e73666f726d3d227472616e736c61746093918401918201526b329419991c101c989b14911f60a11b60b38201528151916152e090839060bf840190602001610fb7565b0160bf81016a1e17ba32bc3a1f1e17b39f60a91b90520360aa8101845260ca0161530a90846111b9565b87519660a08601519560600151966040519787899851908160208b01916020019161533492610fb7565b88018151918260208301916020019161534c92610fb7565b01905191826020830161535e92610fb7565b01905191826020830161537092610fb7565b01905191826020830161538292610fb7565b010380825260200161539490826111b9565b6040516153a0816110e5565b600381526224646960e81b602082015261422392613cae565b6040516153c5816110e5565b600381526203936360ec1b602082015290615100565b6153f091503d806000833e61032681836111b9565b38615055565b61501e92919450615414614fc0913d806000833e61032681836111b9565b94919250615008565b604051639a6fc8f560e01b815269ffffffffffffffffffff821660048201529060a082602481875afa91821561139757600090600093615495575b50615463848b612465565b5260018301918284116110985761547d615483938b612465565b5261455e565b90600281018091116110985790614d15565b90506154ba91925060a03d60a0116154c5575b6154b281836111b9565b81019061452c565b509392505038615458565b503d6154a8565b614d119193506154e6903d806000833e61032681836111b9565b9290614c73565b9092506020813d602011615523575b81615509602093836111b9565b81010312611015575160ff81168103611015579138614c4c565b3d91506154fc565b915050615547915060a03d60a0116154c5576154b281836111b9565b5091905038614c11565b6155596144c3565b90614803565b9250906020833d60201161558f575b8161557b602093836111b9565b810103126110155791519190614b566149cf565b3d915061556e565b9291506020833d6020116155c6575b816155b3602093836111b9565b8101031261101557915190916020614920565b3d91506155a6565b6155d66144c3565b90614823565b6155596144a0565b9092503d806000833e6155f781836111b9565b6020828281010312611015578151916001600160401b038311611015576101a092838183018484010312611015576040519384818101106001600160401b038287011117611100578401604052808201516001600160401b03811161101557615667908484019083850101611411565b8452818101602001516001600160a01b0381168103611015576020850152604081830101516001600160401b038111611015576156ab908484019083850101611411565b6040850152606081830101516001600160401b038111611015576156d6908484019083850101611411565b6060850152608081830101516001600160401b03811161101557615701908484019083850101611411565b608085015260a081830101516001600160401b0381116110155761572c908484019083850101611411565b60a085015260c0818301015160c085015260e0818301015160e08501526101006157598183850101614454565b908501526101208082840101516001600160401b03811161101557615785908585019084860101611411565b908501528181016101408181015190860152610160908101516001600160401b038111611015576157bd908585019084860101611411565b908501526101808183010151906001600160401b038211611015576157e6938301920101611411565b6101808201529138614798565b90506020813d60201161581e575b8161580e602093836111b9565b81010312611015575160246146f4565b3d9150615801565b9093506020813d602011615853575b81615842602093836111b9565b810103126110155751926020614653565b3d9150615835565b90615864611800565b50600b546040805163b4d6438b60e01b815260048101849052929091600091908290859060249082906001600160a01b03165afa938415615c2657829461599e575b506159999261597a6159416158ee615921956158d561598a966102208b015160608d01526147e28c5191613e24565b808b526101e08a015190915015615551576148016144a0565b808952610200880151908451968792602098816159148b93518092858086019101610fb7565b81010380855201836111b9565b84519061592d826110e5565b600382526224706560e81b88830152613cae565b808852615959610180880151610260890151906140b2565b90835190615966826110e5565b600382526224667560e81b87830152613cae565b9081875285015190612ca5614461565b845283019182519051906140b2565b905290565b9093503d8083833e6159b081836111b9565b81016020828203126101c45781516001600160401b039283821161049e57019061028092838383031261049e57855193840184811082821117615c125786528251818111615c0a5782615a04918501611411565b84526020830151602085015285830151818111615c0a5782615a27918501611411565b86850152615a3760608401614454565b60608501526080830151818111615c0a5782615a54918501611411565b608085015260a0830151818111615c0a5782615a71918501611411565b60a085015260c0830151818111615c0a5782615a8e918501611411565b60c085015260e0830151818111615c0a5782615aab918501611411565b60e085015261010080840151828111615c0e5783615aca918601611411565b9085015261012080840151828111615c0e5783615ae8918601611411565b9085015261014080840151828111615c0e5783615b06918601611411565b9085015261016080840151828111615c0e5783615b24918601611411565b9085015261018080840151828111615c0e5783615b42918601611411565b908501526101a0615b54818501614454565b908501526101c0615b66818501614454565b908501526101e0615b78818501614454565b9085015261020080840151828111615c0e5783615b96918601611411565b90850152610220808401519085015261024080840151828111615c0e5783615bbf918601611411565b908501526102609283810151918211615c0a57615921956158d561598a966159999996615bf761597a97615941976158ee9701611411565b90820152999650509550505050926158a6565b8580fd5b8680fd5b634e487b7160e01b86526041600452602486fd5b83513d84823e3d90fd5b60405190615c3d826110e5565b601282527139b4b3b43a1039b2b2b4b733903a37b5b2b760711b6020830152565b60405190615c6b826110e5565b60118252701b999d125b9cda59194818dc99585d1959607a1b6020830152565b604a6115ef919392936040519481615cad879351809260208087019101610fb7565b82017f2c7b2274726169745f74797065223a20224e465420496e73696465222c20227660208201526730b63ab2911d101160c11b6040820152615cfa825180936020604885019101610fb7565b0161227d60f01b604882015203602a8101855201836111b9565b60405190615d21826110e5565b6004825263091b999d60e21b6020830152565b60405190615d41826110e5565b60168252756e6674496e7369646520616464656420746f2073766760501b6020830152565b926020615dac9392615d76611800565b50600b54615d8c906001600160a01b03166126b4565b6040518080978194632ff4051960e01b8352600483019190602083019252565b03915afa91821561308b57615deb93600093615e2a575b50615dd4615dcf615c30565b615e5b565b615ddd83615eaa565b615de56113a3565b9261269a565b615e1d90615dfa615dcf615c5e565b60208301615e0e8151604084015190615c8b565b90528251905190612ca5615d14565b8152611453615dcf615d34565b615e4d91935060203d602011615e54575b615e4581836111b9565b810190614445565b9138615dc3565b503d615e3b565b60008091604051615e9781615e89602082019463104c13eb60e21b8652602060248401526044830190610fda565b03601f1981018352826111b9565b51906a636f6e736f6c652e6c6f675afa50565b60008091604051602081019163f5b1bba960e01b8352602482015260248152615e978161116856fea26469706673582212202ff395534821c1dc3d99a5353ca4b10dcad3f06f351d4c4a31ee6d875299740664736f6c63430008190033","linkReferences":{"contracts/NDRenderer.sol":{"NDRenderer":[{"start":14267,"length":20},{"start":14751,"length":20},{"start":15260,"length":20},{"start":15378,"length":20},{"start":15688,"length":20},{"start":16034,"length":20},{"start":16120,"length":20},{"start":16688,"length":20},{"start":20329,"length":20}]},"contracts/NDUtils.sol":{"NDUtils":[{"start":15053,"length":20},{"start":15488,"length":20},{"start":15575,"length":20},{"start":15810,"length":20},{"start":16202,"length":20},{"start":21866,"length":20},{"start":22027,"length":20},{"start":22583,"length":20},{"start":22758,"length":20},{"start":24351,"length":20},{"start":24428,"length":20}]},"contracts/SunCalc.sol":{"SunCalc":[{"start":13977,"length":20},{"start":14101,"length":20},{"start":14383,"length":20},{"start":14490,"length":20}]}}},"methodIdentifiers":{"approve(address,uint256)":"095ea7b3","balanceOf(address)":"70a08231","getApproved(uint256)":"081812fc","isApprovedForAll(address,address)":"e985e9c5","maxSupply()":"d5abeb01","mint()":"1249c58b","mintPrice()":"6817c76c","motifDataManager()":"386b2304","name()":"06fdde03","owner()":"8da5cb5b","ownerOf(uint256)":"6352211e","premintSupply()":"74b1ceaf","renounceOwnership()":"715018a6","royaltyInfo(uint256,uint256)":"2a55205a","safeTransferFrom(address,address,uint256)":"42842e0e","safeTransferFrom(address,address,uint256,bytes)":"b88d4fde","setApprovalForAll(address,bool)":"a22cb465","supportsInterface(bytes4)":"01ffc9a7","symbol()":"95d89b41","tokenURI(uint256)":"c87b56dd","tokenUriWithTime(uint256,uint256)":"709c163e","totalSupply()":"18160ddd","transferFrom(address,address,uint256)":"23b872dd","transferOwnership(address)":"f2fde38b","withdraw()":"3ccfd60b"},"id":2}