{"abi":[{"type":"constructor","inputs":[{"name":"_motifDataManager","type":"address","internalType":"address"}],"stateMutability":"nonpayable"},{"type":"function","name":"approve","inputs":[{"name":"to","type":"address","internalType":"address"},{"name":"tokenId","type":"uint256","internalType":"uint256"}],"outputs":[],"stateMutability":"nonpayable"},{"type":"function","name":"balanceOf","inputs":[{"name":"owner","type":"address","internalType":"address"}],"outputs":[{"name":"","type":"uint256","internalType":"uint256"}],"stateMutability":"view"},{"type":"function","name":"generateNFT","inputs":[{"name":"tokenId","type":"uint256","internalType":"uint256"},{"name":"timestamp","type":"uint256","internalType":"uint256"},{"name":"assetInScene","type":"tuple[]","internalType":"struct AssetInScene[]","components":[{"name":"name","type":"string","internalType":"string"},{"name":"minDuration","type":"uint256","internalType":"uint256"},{"name":"maxDuration","type":"uint256","internalType":"uint256"},{"name":"checkInterval","type":"uint256","internalType":"uint256"},{"name":"possibleOffset","type":"uint256","internalType":"uint256"},{"name":"probability","type":"uint256","internalType":"uint256"},{"name":"dayTime","type":"uint8","internalType":"enum DAYTIME"}]},{"name":"assets","type":"string","internalType":"string"}],"outputs":[{"name":"","type":"tuple","internalType":"struct NAD.ConstructedNFT","components":[{"name":"svg","type":"string","internalType":"string"},{"name":"attributes","type":"string","internalType":"string"},{"name":"name","type":"string","internalType":"string"},{"name":"assetTraitId","type":"uint256","internalType":"uint256"}]}],"stateMutability":"view"},{"type":"function","name":"getApproved","inputs":[{"name":"tokenId","type":"uint256","internalType":"uint256"}],"outputs":[{"name":"","type":"address","internalType":"address"}],"stateMutability":"view"},{"type":"function","name":"isApprovedForAll","inputs":[{"name":"owner","type":"address","internalType":"address"},{"name":"operator","type":"address","internalType":"address"}],"outputs":[{"name":"","type":"bool","internalType":"bool"}],"stateMutability":"view"},{"type":"function","name":"maxSupply","inputs":[],"outputs":[{"name":"","type":"uint256","internalType":"uint256"}],"stateMutability":"view"},{"type":"function","name":"mint","inputs":[],"outputs":[],"stateMutability":"nonpayable"},{"type":"function","name":"motifDataManager","inputs":[],"outputs":[{"name":"","type":"address","internalType":"contract NDMotifDataManager"}],"stateMutability":"view"},{"type":"function","name":"name","inputs":[],"outputs":[{"name":"","type":"string","internalType":"string"}],"stateMutability":"view"},{"type":"function","name":"ownerOf","inputs":[{"name":"tokenId","type":"uint256","internalType":"uint256"}],"outputs":[{"name":"","type":"address","internalType":"address"}],"stateMutability":"view"},{"type":"function","name":"premintSupply","inputs":[],"outputs":[{"name":"","type":"uint256","internalType":"uint256"}],"stateMutability":"view"},{"type":"function","name":"renderCityTraits","inputs":[{"name":"nft","type":"tuple","internalType":"struct NAD.ConstructedNFT","components":[{"name":"svg","type":"string","internalType":"string"},{"name":"attributes","type":"string","internalType":"string"},{"name":"name","type":"string","internalType":"string"},{"name":"assetTraitId","type":"uint256","internalType":"uint256"}]},{"name":"tokenId","type":"uint256","internalType":"uint256"}],"outputs":[{"name":"","type":"tuple","internalType":"struct NAD.ConstructedNFT","components":[{"name":"svg","type":"string","internalType":"string"},{"name":"attributes","type":"string","internalType":"string"},{"name":"name","type":"string","internalType":"string"},{"name":"assetTraitId","type":"uint256","internalType":"uint256"}]}],"stateMutability":"view"},{"type":"function","name":"renderLandscapeTraits","inputs":[{"name":"nft","type":"tuple","internalType":"struct NAD.ConstructedNFT","components":[{"name":"svg","type":"string","internalType":"string"},{"name":"attributes","type":"string","internalType":"string"},{"name":"name","type":"string","internalType":"string"},{"name":"assetTraitId","type":"uint256","internalType":"uint256"}]},{"name":"tokenId","type":"uint256","internalType":"uint256"}],"outputs":[{"name":"","type":"tuple","internalType":"struct NAD.ConstructedNFT","components":[{"name":"svg","type":"string","internalType":"string"},{"name":"attributes","type":"string","internalType":"string"},{"name":"name","type":"string","internalType":"string"},{"name":"assetTraitId","type":"uint256","internalType":"uint256"}]}],"stateMutability":"view"},{"type":"function","name":"renderNFTInside","inputs":[{"name":"nft","type":"tuple","internalType":"struct NAD.ConstructedNFT","components":[{"name":"svg","type":"string","internalType":"string"},{"name":"attributes","type":"string","internalType":"string"},{"name":"name","type":"string","internalType":"string"},{"name":"assetTraitId","type":"uint256","internalType":"uint256"}]},{"name":"tokenId","type":"uint256","internalType":"uint256"},{"name":"timestamp","type":"uint256","internalType":"uint256"},{"name":"assetInScene","type":"tuple[]","internalType":"struct AssetInScene[]","components":[{"name":"name","type":"string","internalType":"string"},{"name":"minDuration","type":"uint256","internalType":"uint256"},{"name":"maxDuration","type":"uint256","internalType":"uint256"},{"name":"checkInterval","type":"uint256","internalType":"uint256"},{"name":"possibleOffset","type":"uint256","internalType":"uint256"},{"name":"probability","type":"uint256","internalType":"uint256"},{"name":"dayTime","type":"uint8","internalType":"enum DAYTIME"}]},{"name":"assets","type":"string","internalType":"string"}],"outputs":[{"name":"","type":"tuple","internalType":"struct NAD.ConstructedNFT","components":[{"name":"svg","type":"string","internalType":"string"},{"name":"attributes","type":"string","internalType":"string"},{"name":"name","type":"string","internalType":"string"},{"name":"assetTraitId","type":"uint256","internalType":"uint256"}]}],"stateMutability":"view"},{"type":"function","name":"royaltyInfo","inputs":[{"name":"tokenId","type":"uint256","internalType":"uint256"},{"name":"salePrice","type":"uint256","internalType":"uint256"}],"outputs":[{"name":"","type":"address","internalType":"address"},{"name":"","type":"uint256","internalType":"uint256"}],"stateMutability":"view"},{"type":"function","name":"safeTransferFrom","inputs":[{"name":"from","type":"address","internalType":"address"},{"name":"to","type":"address","internalType":"address"},{"name":"tokenId","type":"uint256","internalType":"uint256"}],"outputs":[],"stateMutability":"nonpayable"},{"type":"function","name":"safeTransferFrom","inputs":[{"name":"from","type":"address","internalType":"address"},{"name":"to","type":"address","internalType":"address"},{"name":"tokenId","type":"uint256","internalType":"uint256"},{"name":"data","type":"bytes","internalType":"bytes"}],"outputs":[],"stateMutability":"nonpayable"},{"type":"function","name":"setApprovalForAll","inputs":[{"name":"operator","type":"address","internalType":"address"},{"name":"approved","type":"bool","internalType":"bool"}],"outputs":[],"stateMutability":"nonpayable"},{"type":"function","name":"supportsInterface","inputs":[{"name":"interfaceId","type":"bytes4","internalType":"bytes4"}],"outputs":[{"name":"","type":"bool","internalType":"bool"}],"stateMutability":"view"},{"type":"function","name":"symbol","inputs":[],"outputs":[{"name":"","type":"string","internalType":"string"}],"stateMutability":"view"},{"type":"function","name":"tokenURI","inputs":[{"name":"tokenId","type":"uint256","internalType":"uint256"}],"outputs":[{"name":"","type":"string","internalType":"string"}],"stateMutability":"view"},{"type":"function","name":"tokenUriWithTime","inputs":[{"name":"tokenId","type":"uint256","internalType":"uint256"},{"name":"timestamp","type":"uint256","internalType":"uint256"}],"outputs":[{"name":"","type":"string","internalType":"string"}],"stateMutability":"view"},{"type":"function","name":"totalSupply","inputs":[],"outputs":[{"name":"","type":"uint256","internalType":"uint256"}],"stateMutability":"view"},{"type":"function","name":"transferFrom","inputs":[{"name":"from","type":"address","internalType":"address"},{"name":"to","type":"address","internalType":"address"},{"name":"tokenId","type":"uint256","internalType":"uint256"}],"outputs":[],"stateMutability":"nonpayable"},{"type":"event","name":"Approval","inputs":[{"name":"owner","type":"address","indexed":true,"internalType":"address"},{"name":"approved","type":"address","indexed":true,"internalType":"address"},{"name":"tokenId","type":"uint256","indexed":true,"internalType":"uint256"}],"anonymous":false},{"type":"event","name":"ApprovalForAll","inputs":[{"name":"owner","type":"address","indexed":true,"internalType":"address"},{"name":"operator","type":"address","indexed":true,"internalType":"address"},{"name":"approved","type":"bool","indexed":false,"internalType":"bool"}],"anonymous":false},{"type":"event","name":"Transfer","inputs":[{"name":"from","type":"address","indexed":true,"internalType":"address"},{"name":"to","type":"address","indexed":true,"internalType":"address"},{"name":"tokenId","type":"uint256","indexed":true,"internalType":"uint256"}],"anonymous":false},{"type":"error","name":"ERC2981InvalidDefaultRoyalty","inputs":[{"name":"numerator","type":"uint256","internalType":"uint256"},{"name":"denominator","type":"uint256","internalType":"uint256"}]},{"type":"error","name":"ERC2981InvalidDefaultRoyaltyReceiver","inputs":[{"name":"receiver","type":"address","internalType":"address"}]},{"type":"error","name":"ERC721IncorrectOwner","inputs":[{"name":"sender","type":"address","internalType":"address"},{"name":"tokenId","type":"uint256","internalType":"uint256"},{"name":"owner","type":"address","internalType":"address"}]},{"type":"error","name":"ERC721InsufficientApproval","inputs":[{"name":"operator","type":"address","internalType":"address"},{"name":"tokenId","type":"uint256","internalType":"uint256"}]},{"type":"error","name":"ERC721InvalidApprover","inputs":[{"name":"approver","type":"address","internalType":"address"}]},{"type":"error","name":"ERC721InvalidOperator","inputs":[{"name":"operator","type":"address","internalType":"address"}]},{"type":"error","name":"ERC721InvalidOwner","inputs":[{"name":"owner","type":"address","internalType":"address"}]},{"type":"error","name":"ERC721InvalidReceiver","inputs":[{"name":"receiver","type":"address","internalType":"address"}]},{"type":"error","name":"ERC721InvalidSender","inputs":[{"name":"sender","type":"address","internalType":"address"}]},{"type":"error","name":"ERC721NonexistentToken","inputs":[{"name":"tokenId","type":"uint256","internalType":"uint256"}]},{"type":"error","name":"ReentrancyGuardReentrantCall","inputs":[]}],"bytecode":{"object":"0x608034610ead57601f1990601f616a59388190038281018516840193916001600160401b039182861184871017610e975780849260409788528339602093849181010312610ead57516001600160a01b0381169390849003610ead57610063610eb2565b600d81526c4e6967687420416e642044617960981b84820152610084610eb2565b906003918281526213899160ea1b86820152815198858a11610e97576000998a54936001948581811c91168015610e8d575b8a821014610e7957908c8a838a80879611610e4c575b5050505089908d898411600114610df25792610de7575b505060001982871b1c191690841b178a555b815191868311610dd35783548481811c91168015610dc9575b89821014610db557908b828a8987969511610d7f575b5050508891878411600114610d2457508b92610d19575b505060001982851b1c191690821b1781555b806006558651916127e0830183811086821117610d0557885260bb83526101038684015260628884015260b260608401526101266080840152608060a084015261011560c0840152602460e08401526101009060d88285015261012094608c8686015260b0610140860152607961016086015260c761018086015260a56101a08601526101286101c086015260da6101e086015260ed61020086015260a961022086015261010161024086015260c861026086015261011661028086015260176102a086015260876102c086015260236102e086015261011e610300860152604e610320860152601461034086015260c9610360860152610109610380860152606f6103a086015260ec6103c086015260476103e0860152603e61040086015261011261042086015260906104408601526013956013610460870152607061048087015260e86104a08701526101146104c0870152607d6104e0870152608a61050087015261011861052087015260ac610540870152606561056087015261010e61058087015260746105a087015260446105c087015260086105e08701526049610600870152605c6106208701526038610640870152608361066087015261013e61068087015260866106a087015260546106c087015260316106e0870152601a61070087015260076107208701526101376107408701526022610760870152600d610780870152602c6107a087015261011c6107c087015260be6107e0870152610800860152606661082086015260d2610840860152605f610860860152604661088086015261013a6108a086015261012e6108c086015260b96108e086015260c461090086015261010f610920860152605a610940860152609e610960860152610105610980860152609a6109a086015261013d6109c086015260516109e0860152606a610a008601526026610a20860152610106610a40860152601c610a60860152600a610a808601526097610aa08601526034610ac08601526011610ae08601526035610b0086015260e6610b208601526052610b408601526042610b608601526037610b8086015260eb610ba0860152605b610bc08601526043610be0860152608e610c0086015260f9610c20860152610113610c408601526089610c6086015260ea610c8086015260d1610ca086015261012d610cc08601526019610ce086015260df610d0086015260d0610d208601526032610d4086015260e0610d6086015260a0610d8086015260f0610da0860152606e610dc0860152600b610de086015260d3610e0086015261011a610e2086015260ba610e4086015260af610e6086015261012f610e80860152603c610ea0860152607c610ec086015261013b610ee0860152604c610f008601526009610f208601526033610f408601526027610f608601526068610f808601526056610fa08601526059610fc086015260bf610fe0860152608461100086015260ab61102086015260e461104086015260bc61106086015261010c61108086015261012a6110a0860152876110c08601526110e0850152605361110085015260e561112085015260e161114085015261011761116085015260f361118085015260fc6111a0850152603b6111c085015260ae6111e0850152605d611200850152605e61122085015260166112408501526095611260850152609c6112808501526101396112a0850152607f6112c085015260736112e085015260e261130085015260fe611320850152606161134085015260cb61136085015260c26113808501526113a084015260a86113c084015260d46113e08401526050611400840152600e61142084015261012461144084015260816114608401528861148084015260f76114a084015260b66114c084015260d96114e0840152608561150084015260996115208401526092611540840152606d611560840152610110611580840152606c6115a08401526101046115c08401526101196115e084015261013461160084015260a3611620840152610132611640840152610131611660840152608b61168084015260b86116a084015260966116c084015260986116e0840152601d6117008401526075611720840152601261174084015260a261176084015260776117808401526101236117a084015260a66117c084015260786117e0840152606b61180084015260186118208401528161184084015260ce61186084015261010b61188084015261011d6118a0840152608f6118c08401526101026118e084015260fb611900840152600f90600f61192085015260bd611940850152600261196085015260936119808501526101386119a08501526101366119c0850152602d6119e0850152609f611a008501526021611a20850152602f611a4085015260c0611a60850152610135611a8085015261012c611aa085015260ee611ac085015260d7611ae085015260c1611b0085015288611b20850152610108611b408501526028611b6085015260fd611b8085015260cd611ba08501526055611bc0850152610125611be085015260f5611c0085015260e7611c208501526036611c40850152608d611c60850152604d611c80850152609d611ca08501526071611cc0850152603f611ce0850152604f611d0085015260aa611d20850152610111611d40850152611d6084015260db611d80840152610130611da084015260a1611dc0840152601e611de084015260c3611e008401526039611e208401526060611e408401526064611e608401526005611e8084015260de611ea0840152610122611ec08401526082611ee084015260e9611f0084015260a4611f2084015261011f611f40840152610127611f608401526072611f80840152610107611fa08401526025611fc08401526067611fe08401526088612000840152604161202084015261010d61204084015260c56120608401526045612080840152603d6120a0840152602e6120c084015260a76120e08401526057612100840152604861212084015260cf61214084015261010a6121608401526101336121808401526101216121a0840152601b6121c084015260ad6121e0840152609b61220084015260f861222084015260b16122408401526006612260840152607a61228084015260046122a084015260946122c084015260b46122e08401526010926010612300820152607b612320820152604b61234082015260fa61236082015260c661238082015260636123a082015260dd6123c082015261011b6123e082015260ff612400820152602b612420820152601561244082015260d5612460820152602961248082015260916124a0820152602a6124c082015260b76124e08201526069612500820152607e612520820152603061254082015260dc61256082015260ca61258082015260cc6125a082015260ef6125c082015260f66125e082015260b561260082015260b3612620820152603a61264082015261012b61266082015260f461268082015260d66126a082015261013c6126c082015260586126e082015260e36127008201526076612720820152604a612740820152610129612760820152600c61278082015260f26127a082015260f16127c082015289600754888161013f8060075510610cd0575b505050939190939160078a52868a20938a5b828110610c8a575050508893895b87828210610c5757505050505060130155846008558351908482019082821090821117610c435784527329c8950157979a0bc26772f1cc74006d6cf9747381526109c49101527509c429c8950157979a0bc26772f1cc74006d6cf97473600955600a80546001600160a01b03191691909117905551615b709081610ee98239f35b634e487b7160e01b86526041600452602486fd5b610c7f859761ffff86979694959651169085851b60031b9161ffff809116831b921b19161790565b960193929101610bc2565b8b969394968c5b8a848210610caa57505086820155929593928301610bb4565b8951919992889261ffff8c851b60031b81811b19909316911690911b1792019801610c91565b600783529091206013810180546001600160f01b03169055610cfd91600f0160041c810190601401610ed1565b893888610ba2565b634e487b7160e01b8a52604160045260248afd5b01519050388061013b565b858d52898d20869590939291168d5b8b828210610d695750508411610d51575b505050811b01815561014d565b015160001983871b60f8161c19169055388080610d44565b8385015186558897909501949384019301610d33565b8288610da49452208980870160051c8201928d8810610dac575b0160051c0190610ed1565b8b388a610124565b92508192610d99565b634e487b7160e01b8c52602260045260248cfd5b90607f169061010e565b634e487b7160e01b8b52604160045260248bfd5b0151905038806100e3565b9190858895168380528c8420935b8d828210610e365750508411610e1e575b505050811b018a556100f5565b015160001983891b60f8161c19169055388080610e11565b8385015186558a97909501949384019301610e00565b828480610e709652209181870160051c8301938710610dac570160051c0190610ed1565b8c8a388a6100cc565b634e487b7160e01b8d52602260045260248dfd5b90607f16906100b6565b634e487b7160e01b600052604160045260246000fd5b600080fd5b60408051919082016001600160401b03811183821017610e9757604052565b818110610edc575050565b60008155600101610ed156fe608060408181526004918236101561001657600080fd5b600092833560e01c91826301ffc9a714610af95750816306fdde0314610a2c578163081812fc146109f0578163095ea7b3146109135781631249c58b1461089c57816318160ddd1461087d57816323b872dd146108655781632a55205a146107c7578163386b23041461079e57816342842e0e146107755781636352211e14610744578163709c163e1461067857816370a082311461062357816374b1ceaf14610607578163793964c0146105a957816395d89b411461048f578163a026ad2214610472578163a22cb465146103d4578163b88d4fde1461036d578163c3ac35e514610350578163c87b56dd1461022c578163d4c2629f1461019957508063d5abeb011461017d5763e985e9c51461012d57600080fd5b3461017957806003193601126101795760ff8160209361014b610bc6565b610153610be1565b6001600160a01b0391821683526005875283832091168252855220549151911615158152f35b5080fd5b50346101795781600319360112610179576020905161013f8152f35b8284346102215760a0366003190112610221576001600160401b03928035848111610228576101cb9036908301610f5b565b93606435818111610224576101e39036908401610e0d565b9260843591821161022157509161020461021d959261021294369101610def565b9160443590602435906148c2565b905191829182610f02565b0390f35b80fd5b8380fd5b8280fd5b90503461022857602036600319011261022857600a54825163485c475f60e01b81526001600160a01b03909116908480828581865afa9283156103445784928294610320575b5085516371a9730560e01b815294859182905afa928315610316576102de936102d9936102d4936102b2938961021d9a946102f1575b5050429035612313565b6102c46102bf82516149fc565b611325565b9060208682015191015190611393565b6149fc565b611440565b9051918291602083526020830190610ba1565b61030e9294503d8091833e6103068183610d65565b810190611300565b9138806102a8565b84513d87823e3d90fd5b61033d9194503d8084833e6103358183610d65565b8101906111ec565b9238610272565b508451903d90823e3d90fd5b5050346101795761021d9061021261036736610fdd565b90613705565b83903461017957608036600319011261017957610388610bc6565b610390610be1565b906064356001600160401b0381116103d057366023820112156103d0576103cd938160246103c393369301359101610db8565b9160443591613526565b80f35b8480fd5b919050346102285780600319360112610228576103ef610bc6565b90602435918215158093036103d0576001600160a01b031692831561045d5750338452600560205280842083855260205280842060ff1981541660ff8416179055519081527f17307eab39ab6107e8899845ad3d59bd9653f200f220920489ca2b5937696c3160203392a380f35b836024925191630b61174360e31b8352820152fd5b5050346101795761021d9061021261048936610fdd565b906130e8565b82843461022157806003193601126102215781519181600192600154938460011c916001861695861561059f575b602096878510811461058c578899509688969785829a529182600014610565575050600114610509575b50505061021d92916104fa910385610d65565b51928284938452830190610ba1565b9190869350600183527fb10e2d527612073b26eecdfd717e6a320cf44b4afac2b0732d9fcbe2b7fa0cf65b82841061054d57505050820101816104fa61021d6104e7565b8054848a018601528895508794909301928101610534565b60ff19168782015293151560051b860190930193508492506104fa915061021d90506104e7565b634e487b7160e01b835260228a52602483fd5b92607f16926104bd565b828434610221576080366003190112610221576001600160401b03604435818111610228576105db9036908601610e0d565b91606435918211610221575092610212916105fc61021d9536908401610def565b916024359035612313565b5050346101795781600319360112610179576020905160268152f35b828434610221576020366003190112610221576001600160a01b03610646610bc6565b169283156106635750806020938392526003845220549051908152f35b91516322718ad960e21b815291820152602490fd5b9050346102285761068836610c2c565b600a54845163485c475f60e01b8152929086906001600160a01b031681858781845afa94851561073a57829561071e575b5086516371a9730560e01b815295869182905afa93841561071457936102d9936102d4936102b2936102de978a61021d9b956106f7575b5050612313565b61070c9295503d8091833e6103068183610d65565b9238806106f0565b85513d88823e3d90fd5b6107339195503d8084833e6103358183610d65565b93386106b9565b87513d84823e3d90fd5b82843461022157602036600319011261022157506107646020923561498f565b90516001600160a01b039091168152f35b505034610179576103cd9061078936610bf7565b9192519261079684610d2f565b858452613526565b505034610179578160031936011261017957600a5490516001600160a01b039091168152602090f35b838334610179576107d736610c2c565b92905081518281018181106001600160401b038211176108525783526009549160018060a01b0392838116835260a01c9485602084015285810295818704149015171561083f57815184519084166001600160a01b0316815261271086046020820152604090f35b634e487b7160e01b815260118652602490fd5b634e487b7160e01b835260418652602483fd5b8334610221576103cd61087736610bf7565b9161100e565b5050346101795781600319360112610179576020906008549051908152f35b919050346102285782600319360112610228576002600654146109065761013f60085410156108ce5782600160065580f35b906020606492519162461bcd60e51b8352820152601260248201527113585e081cdd5c1c1b1e481c995858da195960721b6044820152fd5b51633ee5aeb560e01b8152fd5b9190503461022857806003193601126102285761092e610bc6565b9160243561093b8161498f565b331515806109dd575b806109b4575b61099e576001600160a01b039485169482918691167f8c5be1e5ebec7d5bd14f71427d1e84f3dd0314c0f7b2291e5b200ac8c7c3b9258880a48452602052822080546001600160a01b031916909117905580f35b835163a9fbf51f60e01b81523381850152602490fd5b506001600160a01b03811686526005602090815284872033885290528386205460ff161561094a565b506001600160a01b038116331415610944565b90503461022857602036600319011261022857918260209335610a128161498f565b50825283528190205490516001600160a01b039091168152f35b8284346102215780600319360112610221578151918182549260018460011c9160018616958615610aef575b602096878510811461058c578899509688969785829a529182600014610565575050600114610a945750505061021d92916104fa910385610d65565b91908693508280527f290decd9548b62a8d60345a988386fc84ba6bc95484008f6362f93160ef3e5635b828410610ad757505050820101816104fa61021d6104e7565b8054848a018601528895508794909301928101610abe565b92607f1692610a58565b849134610228576020366003190112610228573563ffffffff60e01b8116809103610228576020925063152a902d60e11b8114908115610b3b575b5015158152f35b6380ac58cd60e01b811491508115610b6d575b8115610b5c575b5083610b34565b6301ffc9a760e01b14905083610b55565b635b5e139f60e01b81149150610b4e565b60005b838110610b915750506000910152565b8181015183820152602001610b81565b90602091610bba81518092818552858086019101610b7e565b601f01601f1916010190565b600435906001600160a01b0382168203610bdc57565b600080fd5b602435906001600160a01b0382168203610bdc57565b6060906003190112610bdc576001600160a01b03906004358281168103610bdc57916024359081168103610bdc579060443590565b6040906003190112610bdc576004359060243590565b90670de0b6b3a764000091828102928184041490151715610c5f57565b634e487b7160e01b600052601160045260246000fd5b9061271091828102928184041490151715610c5f57565b8115610c96570490565b634e487b7160e01b600052601260045260246000fd5b60e081019081106001600160401b03821117610cc757604052565b634e487b7160e01b600052604160045260246000fd5b608081019081106001600160401b03821117610cc757604052565b61012081019081106001600160401b03821117610cc757604052565b606081019081106001600160401b03821117610cc757604052565b602081019081106001600160401b03821117610cc757604052565b604081019081106001600160401b03821117610cc757604052565b90601f801991011681019081106001600160401b03821117610cc757604052565b6001600160401b038111610cc75760051b60200190565b6001600160401b038111610cc757601f01601f191660200190565b929192610dc482610d9d565b91610dd26040519384610d65565b829481845281830111610bdc578281602093846000960137010152565b9080601f83011215610bdc57816020610e0a93359101610db8565b90565b9080601f83011215610bdc57813591602091610e2884610d86565b93604091610e396040519687610d65565b818652848087019260051b85010193818511610bdc57858101925b858410610e65575050505050505090565b6001600160401b03908435828111610bdc5783019060e080601f198488030112610bdc57875193610e9585610cac565b8a840135908111610bdc57868b610eae92860101610def565b8452878301358a8501526060928381013589860152608093848201359086015260a093848201359086015260c09384820135908601520135926003841015610bdc5789938493820152815201930192610e54565b6020815260806060610f52610f22855184602087015260a0860190610ba1565b610f3e602087015191601f199283888303016040890152610ba1565b906040870151908683030184870152610ba1565b93015191015290565b919091608081840312610bdc5760405190610f7582610cdd565b81938135916001600160401b0392838111610bdc5782610f96918301610def565b84526020810135838111610bdc5782610fb0918301610def565b60208501526040810135928311610bdc57610fd16060939284938301610def565b60408501520135910152565b6040600319820112610bdc57600435906001600160401b038211610bdc5761100791600401610f5b565b9060243590565b916001600160a01b03918216918215611191576000938285528260209460028652604095848789205416968791331515806110f8575b509060027fddf252ad1be2c89b69c2b068fc378daa952ba7f163c4a11628f55a4df523b3ef92846110c9575b858c5260038152828c2080546001019055868c5252808a2080546001600160a01b03191685179055519880a4168083036110aa5750505050565b6364283d7b60e01b845260048401526024830152604482015260649150fd5b868c5260048152828c2080546001600160a01b0319169055848c5260038152828c208054600019019055611070565b91939450915080611150575b1561111457859291879138611044565b508486611131576024915190637e27328960e01b82526004820152fd5b905163177e802f60e01b81523360048201526024810191909152604490fd5b503387148015611175575b806111045750858852600481523385838a20541614611104565b5086885260058152818820338952815260ff828920541661115b565b604051633250574960e11b815260006004820152602490fd5b81601f82011215610bdc5780516111c081610d9d565b926111ce6040519485610d65565b81845260208284010111610bdc57610e0a9160208085019101610b7e565b6020908181840312610bdc5780516001600160401b0391828211610bdc57019083601f83011215610bdc57815161122281610d86565b946040926112336040519788610d65565b828752858088019360051b86010194828611610bdc57868101935b86851061126057505050505050505090565b8451838111610bdc57820160e09182601f198388030112610bdc5787519261128784610cac565b8a830151868111610bdc57878c6112a0928601016111aa565b8452888301518b850152606092838101518a860152608093848201519086015260a093848201519086015260c09384820151908601520151926003841015610bdc578a93849382015281520194019361124e565b6040513d6000823e3d90fd5b90602082820312610bdc5781516001600160401b038111610bdc57610e0a92016111aa565b90611391604560405180947f22696d616765223a2022646174613a696d6167652f7376672b786d6c3b626173602083015263194d8d0b60e21b6040830152611377815180926020604486019101610b7e565b8101601160f91b6044820152036025810185520183610d65565b565b6046906113919294936040519586927f7b226465736372697074696f6e22203a20226a756875222c20226e616d65223a6020850152601160f91b60408501526113e6815180926020604188019101610b7e565b830161088b60f21b6041820152611407825180936020604385019101610b7e565b0161174b60f21b6043820152611427825180936020604585019101610b7e565b01607d60f81b6045820152036026810185520183610d65565b90611391603d60405180947f646174613a6170706c69636174696f6e2f6a736f6e3b6261736536342c00000060208301526114848151809260208686019101610b7e565b810103601d810185520183610d65565b604051906114a182610cdd565b60006060838181528160208201528160408201520152565b519060ff82168203610bdc57565b602081830312610bdc578051906001600160401b038211610bdc570161012081830312610bdc57604051916114fb83610cf8565b81516001600160401b038111610bdc57816115179184016111aa565b83526020820151602084015260408201516040840152606082015160608401526080820151608084015260a08201516001600160401b038111610bdc57816115609184016111aa565b60a084015260c08201516001600160401b038111610bdc5781601f828501011215610bdc57808301519061159382610d86565b916115a16040519384610d65565b808352602083018460208360051b858901010111610bdc57602083870101905b60208360051b85890101018210611805575050505060c084015260e08201516001600160401b038111610bdc5781601f828501011215610bdc57808301519061160982610d86565b926116176040519485610d65565b82845260208401908060208560051b858901010111610bdc57602083870101915b60208560051b8589010101831061166a57505050505060e083015261010080910151906004821015610bdc5782015290565b82516001600160401b038111610bdc5760a088860182018403601f190112610bdc576040519160a083018381106001600160401b038211176117f057604052602082878b0101015160039081811015610bdc578452604083888c0101015190811015610bdc576020840152606082878b010101516001600160401b038111610bdc5784603f82858a8e010101011215610bdc57808760208c9386838601010101519187604061171885610d86565b9561172582519788610d65565b858752838960208901968860051b93010101010111610bdc578991868e60408483878401010101925b60408760051b86858986010101010184106117e057505050505050506040840152608082878b010101516001600160401b038111610bdc5784602061179992858a8e010101016111aa565b606084015260a082878b01010151906001600160401b038211610bdc576020936117ce868680969581968f8d010101016111aa565b60808201528152019301929050611638565b835181526020938401930161174e565b60246000634e487b7160e01b81526041600452fd5b81516001600160401b038111610bdc5760e088860182018803601f190112610bdc576040519061183482610cdd565b602081878b010101516001600160401b038111610bdc5788602061185e92848a8e010101016111aa565b8252604081878b010101516001600160401b038111610bdc5781878b01010188603f82011215610bdc57602081015161189681610d86565b916118a46040519384610d65565b81835260208301908b60408460051b83010111610bdc5760408101915b60408460051b83010183106119535750505050602083015287607f82888c0101011215610bdc576040516118f481610cdd565b898960e0848a859401010111610bdc578a90886060858285010101915b60e08683860101018310611943575050505060408301528886010160e0015160608201528152602091820191016115c1565b8251815260209283019201611911565b60208091611960856114b9565b8152019201916118c1565b6040519061197882610cf8565b816101006000918281528260208201528260408201528260608201528260808201528260a08201528260c08201528260e08201520152565b604051906119bd82610cac565b8160c060609182815282602082015282604082015282808201528260808201528260a08201520152565b9064e8d4a5100091828102928184051490151715610c5f57565b9061271091828102928184051490151715610c5f57565b9190826040910312610bdc576020825192015190565b90816060910312610bdc578051916040602083015192015190565b60405190611a5682610d4a565b600382526224776360e81b6020830152565b90816020910312610bdc57516004811015610bdc5790565b60031115611a8a57565b634e487b7160e01b600052602160045260246000fd5b60041115611a8a57565b92919060408452611b0a611acc82516101206040880152610160870190610ba1565b6020830151606087015260408301516080870152606083015160a0870152608083015160c087015260a0830151603f198783030160e0880152610ba1565b9060c081015191603f1986820301610100870152825180825260208201916020808360051b8301019501926000915b838310611c5d57505050505060e081015191603f1986820301610120870152825180825260208201916020808360051b8301019501926000915b838310611ba5575050505050906101006020920151611b9181611aa0565b61014086015293611ba183611aa0565b0152565b9091929395601f1982820301835286519060a081018251611bc581611a80565b82526020830151611bd581611a80565b602083015260408301519060a060408401528151809152602060c084019201906000905b808210611c4557505050611c36836020936080611c258695606060019901518482036060860152610ba1565b920151906080818403910152610ba1565b98019301930191939290611b73565b90919260208060019286518152019401920190611bf9565b9091929395601f19828203018352865190611c81825160e0835260e0830190610ba1565b916020810151928281036020840152602080855192838152019401906000905b808210611cf55750505060408181015160009184015b60048310611cdf575050506060015160c0909101529560209081019493600101920190611b39565b6020806001928451815201920192019190611cb7565b90919460208060019260ff8951168152019601920190611ca1565b90602082820312610bdc5781516001600160401b0392838211610bdc570190608082820312610bdc5760405192611d4684610cdd565b8251818111610bdc5782611d5b9185016111aa565b84526020830151818111610bdc5782611d759185016111aa565b60208501526040830151818111610bdc5782611d929185016111aa565b60408501526060830151908111610bdc57611dad92016111aa565b606082015290565b91906020830192611dc582611aa0565b52565b959293611e5d94611de760c097939a999a60e08a5260e08a0190610ba1565b93602089015260408801526060870152611e0081611aa0565b608086015284810360a08601526060611e4c611e3a611e288551608086526080860190610ba1565b60208601518582036020870152610ba1565b60408501518482036040860152610ba1565b920151906060818403910152610ba1565b931515910152565b9092611e7e606093969594608084526080840190610ba1565b95602083015260408201520152565b611ea1604092604083526040830190610ba1565b906020908181840391015283519182815281810182808560051b8401019601946000906000935b868510611eda57505050505050505090565b9091929394959697601f1982820301855286895160a08084018251611efe81611a80565b855283830151611f0d81611a80565b8486015286830151918786015281518091528360c0860192019088905b808210611f78575050506001938392611f53611f66936060808401519085830390860152610ba1565b9160808092015191818403910152610ba1565b9a019501950193969594929190611ec8565b825184528c95938401939092019160019190910190611f2a565b919091604081840312610bdc578051926001600160401b0393848111610bdc5781611fbe9184016111aa565b936020830151908111610bdc57610e0a92016111aa565b91908203918211610c5f57565b91908201809211610c5f57565b60405190611ffc82610d4a565b601082526f030b9b9b4b3b7103a3930b4ba1034b2160851b6020830152565b8051156120285760200190565b634e487b7160e01b600052603260045260246000fd5b8051600110156120285760400190565b80518210156120285760209160051b010190565b94939796959791909161207d60e09384885284880190610ba1565b93602092838801526040906040880152606094878103606089015282518082528482019185808360051b8301019501926000915b83831061217e57505050505060809087830360808901528651948584528484019285808860051b8701019901976000955b88871061210157505050505050505050509060c0919460a08201520152565b909192939495969798998880600192601f19858203018a528d519061212d82518a83528a830190610ba1565b9183810151848301528a8101518b8301528781015188830152888101518983015260a0808201519083015260c0809101519161216883611a80565b01529c01970197019598979694939291906120e2565b9091929395601f999798991982820301835288875191896121a78d855190808552840190610ba1565b938381015194838103858501528480875192838152019601906000905b80821061221b57505050808a0151600090848c015b6004831061220157505050015160c090910152979998979096810194936001019201906120b1565b815181528f968f95506001939093019291820191016121d9565b825160ff168852968601968f968f955092909201916001909101906121c4565b939061230592610e0a969461225b61226e9360a0895260a0890190610ba1565b9160208801528682036040880152610ba1565b848103606086015260c06122f46122e26122d06122be6122ac61229a885160e0895260e0890190610ba1565b602089015188820360208a0152610ba1565b60408801518782036040890152610ba1565b60608701518682036060880152610ba1565b60808601518582036080870152610ba1565b60a085015184820360a0860152610ba1565b9201519060c0818403910152610ba1565b916080818403910152610ba1565b92919061231e611494565b50600a5461233c906001600160a01b03165b6001600160a01b031690565b604051632548117960e01b8152600481018690529490600090869060249082905afa948515612c6b57600095612ff1575b50612376611494565b9460a0810151865261238661196b565b61238e6119b0565b9061239c60208401516119e7565b60406123aa818601516119e7565b6123b388610c42565b82516375cbcb7960e11b81526004810194909452602484019190915260448301528160648173__$a216d4fe4243b110e5694abc7741cd783a$__5af48015612c6b57600091600091612fd0575b506040830152606082015261241485610c42565b604061242360208601516119e7565b61242f828701516119e7565b8251632c0f47d960e21b81526004810194909452602484019190915260448301528160648173__$a216d4fe4243b110e5694abc7741cd783a$__5af48015612c6b57600091600091612f9f575b50602083015281526124916080840151610c75565b60006124a76060840151655af3107a4000900590565b6040840151655af3107a40009005926124f86124c66060890151610c75565b604051958694859463955cb78f60e01b8652600486019094939260609260808301968352602083015260408201520152565b038173__$2d8ca8bf86eea40aef689c316826963c89$__5af4908115612c6b57600091612f84575b50825261253060208401516119e7565b606061253f60408601516119e7565b61254888610c42565b604051633b7eb8ed60e21b81526004810194909452602484019190915260448301528160648173__$a216d4fe4243b110e5694abc7741cd783a$__5af4908115612c6b57600091600091600091612f62575b5060c084015260a083015260808201526125d760606125b887610c42565b60405180938192633d5756df60e21b8352600483019190602083019252565b038173__$a216d4fe4243b110e5694abc7741cd783a$__5af4908115612c6b57600090600092612f2e575b50610100830191825260e0830152600061261f6060860151611a01565b866126dc6126306080890151611a01565b946126456080880151655af3107a4000900590565b9061265a60a0890151655af3107a4000900590565b60c0890151655af3107a400090059061268e61268060e08c0151655af3107a4000900590565b9351655af3107a4000900590565b93604051998a988998636a4fc00160e11b8a5260048a0194919260e0969399989794919961010087019a8752602087015260408601526060850152608084015260a083015260c08201520152565b038173__$2d8ca8bf86eea40aef689c316826963c89$__5af4908115612c6b57600091612f13575b50604083015261274661272a6127256040840151662386f26fc10000900590565b614b5e565b9081608086015260208501528951612740611a49565b90615045565b8852600a5461275d906001600160a01b0316612330565b6040516304e74e5f60e01b81526004810186905290602090829060249082905afa908115612c6b57600091612ee4575b506040516372609aa760e11b8152600081806127ad858960048401611aaa565b038173__$30acca89589d9a9b80eb3e09f3c9eae508$__5af4908115612c6b57600091612ec9575b5060208a0152600a546127f0906001600160a01b0316612330565b906000604051809363237f554160e21b825281806128118660048301611db5565b03915afa918215612c6b57600092612ea2575b506000908a519061289e6128426060870151655af3107a4000900590565b926128586040880151662386f26fc10000900590565b9561286660608b0151611a01565b936101008b01519461287786611aa0565b61288086611aa0565b6040516338bedead60e11b8152988997889715159560048901611dc8565b038173__$2d8ca8bf86eea40aef689c316826963c89$__5af4908115612c6b5786916000918291612e88575b50808b526040840151906128f38860405195869485946386689cfb60e01b865260048601611e65565b038173__$2d8ca8bf86eea40aef689c316826963c89$__5af4908115612c6b57600091612e6d575b5088526129616000856129386040850151655af3107a4000900590565b60405163668a036b60e11b81526004810191909152602481019190915291829081906044820190565b038173__$2d8ca8bf86eea40aef689c316826963c89$__5af4908115612c6b57600091612e52575b506060830152875160e084015160405163c2209fb960e01b815291600091839182916129b89160048401611e8d565b038173__$30acca89589d9a9b80eb3e09f3c9eae508$__5af4908115612c6b5786612a116129f788838e82976000978891612e38575b508091526151bb565b808d5284836101008a015192612a0c84611aa0565b61530f565b808c52612a37608088015160405195869485946303ec6da960e41b865260048601611e65565b038173__$2d8ca8bf86eea40aef689c316826963c89$__5af48015612c6b57600091600091612e1b575b50895260c0830152612ab160006080850151612a8b87612a86620151808b068b611fd5565b611fe2565b604051634b54268f60e01b81526004810192909252602482015291829081906044820190565b038173__$2d8ca8bf86eea40aef689c316826963c89$__5af4908115612c6b57600091612e00575b5060a08301526001610100840151612af081611aa0565b612af981611aa0565b14612def575b6002610100840151612b1081611aa0565b612b1981611aa0565b14612dde575b6003610100840151612b3081611aa0565b612b3981611aa0565b14612d27575b906000858493848b61010089980151612b5781611aa0565b612b6081611aa0565b612c98575b612b969150519160c0870151908b60208251920151926040519a8b97889763582bca4760e11b895260048901612062565b038173__$2d8ca8bf86eea40aef689c316826963c89$__5af4928315612c6b57600090600094612c70575b5090816000928a52612be9604051958693849363341652d960e11b8552898d6004870161223b565b038173__$30acca89589d9a9b80eb3e09f3c9eae508$__5af48015612c6b5761010092600091612c50575b508752805160408801520151612c2981611aa0565b612c3281611aa0565b612c3e575b5050505090565b612c47946148c2565b38808080612c37565b612c6591503d806000833e6103068183610d65565b38612c14565b6112f4565b6000929450612c9191503d8084833e612c898183610d65565b810190611f92565b9391612bc1565b612cf9612cf26020612cea612d2095612d1a612d0460c06060612cff99612cc5612cc0611fef565b615980565b0193612cd185516159cf565b0192612cf2612cff612cf9612cf289612cea895161201b565b51015161201b565b5160ff1690565b60ff1690565b6159cf565b612d1285612cea855161201b565b9060ff169052565b5161201b565b848b612b65565b91909683612d34916130e8565b9687516000612d4d6060860151655af3107a4000900590565b6040860151662386f26fc10000900592612d88612d6d6060880151611a01565b60405163031ae97d60e41b8152958694859460048601611e65565b038173__$2d8ca8bf86eea40aef689c316826963c89$__5af4908115612c6b57859460009288928491612dc4575b508b52929394505050612b3f565b612dd891503d8086833e6103068183610d65565b38612db6565b9683612de991613705565b96612b1f565b9683612dfa91615674565b96612aff565b612e1591503d806000833e6103068183610d65565b38612ad9565b9050612e3291503d806000833e612c898183610d65565b38612a61565b612e4c91503d808a833e6103068183610d65565b386129ee565b612e6791503d806000833e6103068183610d65565b38612989565b612e8291503d806000833e6103068183610d65565b3861291b565b612e9c91503d8084833e6103068183610d65565b386128ca565b6000919250612ec2903d8084833e612eba8183610d65565b810190611d10565b9190612824565b612ede91503d806000833e6103068183610d65565b386127d5565b612f06915060203d602011612f0c575b612efe8183610d65565b810190611a68565b3861278d565b503d612ef4565b612f2891503d806000833e6103068183610d65565b38612704565b9050612f52915060603d606011612f5b575b612f4a8183610d65565b810190611a2e565b91905038612602565b503d612f40565b915050612f7e915060603d606011612f5b57612f4a8183610d65565b3861259a565b612f9991503d806000833e6103068183610d65565b38612520565b9050612fc3915060403d604011612fc9575b612fbb8183610d65565b810190611a18565b3861247c565b503d612fb1565b9050612feb915060403d604011612fc957612fbb8183610d65565b38612400565b61300f9195503d806000833e6130078183610d65565b8101906114c7565b933861236d565b51908115158203610bdc57565b6040519061303082610d4a565b600482526324746f6b60e01b6020830152565b6040519061305082610d4a565b60068252653434b23232b760d11b6020830152565b6040519061307282610d4a565b600782526676697369626c6560c81b6020830152565b6040519061309582610d4a565b6003825262246f6360e81b6020830152565b60206113919193929360405194816130c88793518092868087019101610b7e565b82016130dc82518093868085019101610b7e565b01038085520183610d65565b906130f1611494565b50600a546040805163b4d6438b60e01b815260048101849052929091600091908290859060249082906001600160a01b03165afa93841561351c578294613282575b5061318561326f93926131626132609361026088015160608a01526131598951916159f7565b90612740613023565b808852610220870151909150156132745761317b613065565b905b612740613088565b9182865261323861320f6131e56131bb8489015185516131a481610d4a565b600381526020986224636360e81b8a830152615045565b808a52610240890151908551906131d182610d4a565b600382526224706560e81b89830152615045565b8089526101c0880151908451906131fb82610d4a565b600382526224667560e81b88830152615045565b80885260a08701519083519061322482610d4a565b60038252621230b360e91b87830152615045565b808752608086015191519061324c82610d4a565b600382526224626560e81b85830152615045565b845283019182519051906130a7565b905290565b61327c613043565b9061317d565b9093503d8083833e6132948183610d65565b81016020828203126102285781516001600160401b03928382116103d05701906102a09283838303126103d057855193840184811082821117613508578652825181811161350057826132e89185016111aa565b8452602083015181811161350057826133029185016111aa565b602085015285830151818111613500578261331e9185016111aa565b8685015260608301516060850152608083015181811161350057826133449185016111aa565b608085015260a083015181811161350057826133619185016111aa565b60a085015261337260c08401613016565b60c085015260e0830151818111613500578261338f9185016111aa565b60e08501526101008084015182811161350457836133ae9186016111aa565b908501526101208084015182811161350457836133cc9186016111aa565b908501526101408084015182811161350457836133ea9186016111aa565b908501526101608084015182811161350457836134089186016111aa565b908501526101808084015182811161350457836134269186016111aa565b908501526101a08084015182811161350457836134449186016111aa565b908501526101c08084015182811161350457836134629186016111aa565b908501526101e0613474818501613016565b90850152610200613486818501613016565b90850152610220613498818501613016565b908501526102408084015182811161350457836134b69186016111aa565b90850152610260808401519085015261028092838101519182116135005793613185936134f061326f9897946131629461326098016111aa565b9082015296935050929350613133565b8580fd5b8680fd5b634e487b7160e01b86526041600452602486fd5b83513d84823e3d90fd5b61353183838361100e565b813b61353e575b50505050565b604051630a85bd0160e11b8082523360048301526001600160a01b0392831660248301526044820194909452608060648201526020959290911693909290839061358c906084830190610ba1565b039285816000958187895af1849181613635575b50613600575050503d6000146135f8573d6135ba81610d9d565b906135c86040519283610d65565b81528091843d92013e5b805192836135f357604051633250574960e11b815260048101849052602490fd5b019050fd5b5060606135d2565b919450915063ffffffff60e01b160361361d575038808080613538565b60249060405190633250574960e11b82526004820152fd5b9091508681813d831161366e575b61364d8183610d65565b810103126103d057516001600160e01b0319811681036103d05790386135a0565b503d613643565b90816020910312610bdc575190565b9060048110156120285760051b0190565b519069ffffffffffffffffffff82168203610bdc57565b908160a0910312610bdc576136c081613695565b91602082015191604081015191610e0a608060608401519301613695565b69ffffffffffffffffffff168015610c5f576000190190565b604d8111610c5f57600a0a90565b91602491613711611494565b50600a546040516309a1a3cf60e31b8152600481018390529360009185919082906001600160a01b03165afa9283156112f45760009361468e575b5061386090610140840151606086015261376c60208601518551906130a7565b60208601526137d661379a6137858751613159856159f7565b80885260e0870151156146865761317b613043565b80875260e086015115614678576137af613065565b905b604051906137be82610d4a565b6006825265123bb0ba32b960d11b6020830152615045565b85526040516137e481610cdd565b600181526002602082015260036040820152600460608201526020613808836159f7565b61383e6022604051809361683160f01b8683015261382e81518092888686019101610b7e565b8101036002810184520182610d65565b60405180958192638587a4a560e01b8352606060048401526064830190610ba1565b6000602483015260036044830152038173__$30acca89589d9a9b80eb3e09f3c9eae508$__5af49081156112f457600091614642575b613910935060ff6138a78383613684565b5116916138bc60ff6060840151169183613684565b5260206138c8846159f7565b6138ee6022604051809361341960f11b8683015261382e81518092888686019101610b7e565b60405180968192638587a4a560e01b8352606060048401526064830190610ba1565b6000602483015260026044830152038173__$30acca89589d9a9b80eb3e09f3c9eae508$__5af49384156112f45760009461460c575b5061395661399b9460ff92613684565b5116916020613964826159f7565b6138ee602360405180936268317960e81b8683015261398b81518092888686019101610b7e565b8101036003810184520182610d65565b610218602483015261027c6044830152038173__$30acca89589d9a9b80eb3e09f3c9eae508$__5af49384156112f4576000946145d5575b509060206139e3613a2c936159f7565b613a0a602360405180936268327960e81b8683015261398b81518092888686019101610b7e565b60405180948192638587a4a560e01b8352606060048401526064830190610ba1565b610218602483015261027c6044830152038173__$30acca89589d9a9b80eb3e09f3c9eae508$__5af49182156112f457600092614599575b5092613be29291613a77613bf7956159f7565b91613b9d6063613a86836159f7565b94613b0c60405196713c75736520687265663d2223686f7573655f60701b928360208a0152613abf81518092602060328d019101610b7e565b88016411103c9e9160d91b6032820152613ae3825180936020603785019101610b7e565b0197613b07603a896211179f60e91b9b8c603782015203601a81018b520189610d65565b6159f7565b96613b16866159f7565b6040519889936020850152613b35815180926020603288019101610b7e565b83017f22207472616e73666f726d3d227472616e736c617465283838382c302920736360328201526d30b63294169896189491103c9e9160911b6052820152613b88825180936020606085019101610b7e565b01906060820152036043810187520185610d65565b101561458b5790613bad916130a7565b613bbd86519160408701516130a7565b9060405190613bcb82610d4a565b6005825264091cdade5b60da1b6020830152615045565b80855260e0840151156132745761317b613065565b83526040519161022083018381106001600160401b03821117610cc757604052601083526102003660208501376020810151604051633fabe5a360e21b81526001600160a01b039091169060a081600481855afa80156112f457600091600090600092614565575b50613c698761201b565b52613c738661203e565b5260405163313ce56760e01b815291602083600481845afa9283156112f457600093614529575b50604051633942720b60e11b815291600083600481855afa9283156112f457600093614508575b50613d5f906020890151613d55604a60405183613ce8829551809260208086019101610b7e565b7f2c7b2274726169745f74797065223a2254726164696e67204368617274222c2260208284010152673b30b63ab2911d1160c11b60408284010152885190613d398260488386010160208d01610b7e565b82010161227d60f01b604882015203602a810184520182610d65565b60208a01526136de565b6002905b6010821061445957505050613d778561201b565b5192613d828661201b565b519460005b8751811015613dfc5785613d9b828a61204e565b5110613de9575b86613dad828a61204e565b5111613dd6575b6002810180911115613d8757634e487b7160e01b600052601160045260246000fd5b9550613de2868861204e565b5195613db4565b9450613df5858861204e565b5194613da2565b5090919395929496613e0e8789611fd5565b94613e188561203e565b5185519081600019810111610c5f57613e38613e3f92600019018861204e565b5190611fd5565b936060976000985b87518a1015613fde5760018a01808b11610c5f57613e65908961204e565b518851600019810191908211610c5f57613e38613e82928b61204e565b60c890818102918183041490151715610c5f5787613e9f91610c8c565b90603e82018211610c5f57613ebe8c613eb88d8c61204e565b51611fd5565b60909081810290808204831490151715610c5f578b613edc91610c8c565b8103908111610c5f5761030981018111610c5f57613fa1918c613fb357613f2d610309613f26603e604051613f1081610d4a565b60018152604d60f81b6020820152975b016159f7565b93016159f7565b916040519482613f47879451809260208088019101610b7e565b8301613f5c8251809360208085019101610b7e565b01613f708251809360208085019101610b7e565b0191600160fd1b6020840152602192613f928251809360208785019101610b7e565b01036001810184520182610d65565b9860028101809111610c5f5798613e47565b613f2d610309613f26603e604051613fca81610d4a565b60018152601360fa1b602082015297613f20565b9850945094509450959096613fff90613ff960ff85166136f7565b90610c8c565b9060405192632c7cc89b60e11b92838552600485015260008460248173__$30acca89589d9a9b80eb3e09f3c9eae508$__5af49384156112f45760009461442f575b5090613ff960ff61405293166136f7565b604051918252600482015260008160248173__$30acca89589d9a9b80eb3e09f3c9eae508$__5af49081156112f457600091614414575b506040519361410d605b866020810198681e3830ba3410321e9160b91b8a526140bc815180926020602986019101610b7e565b81017f222066696c6c3d226e6f6e6522207374726f6b653d22234646444231392220736029820152713a3937b5b296bbb4b23a341e911a1110179f60711b604982015203603b810188520186610d65565b60a08401516143f25760405161412281610d4a565b600381526203937360ec1b6020820152905b60405180916020820193701e3a32bc3a103c1e9119191811103c9e9160791b85528051908160318501916020019161416b92610b7e565b7f2220746578742d616e63686f723d226d6964646c65222066696c6c3d222339346031918401918201527f303045332220666f6e742d66616d696c793d22417269616c2d426c61636b2220605182015271103337b73a16b9b4bd329e911918383c111f60711b60718201528151916141ec9083906083840190602001610b7e565b0160838101661e17ba32bc3a1f60c91b905203606a81018252608a016142129082610d65565b604051809360208201957f3c6720666f6e742d66616d696c793d22417269616c2d426f6c644d54222066698752604083017f6c6c3d22233934303045332220746578742d616e63686f723d22656e642220669052606083017f6f6e742d73697a653d223138223e3c74657874207472616e73666f726d3d22749052723930b739b630ba329419991c101b9c9814911f60691b6080840152805190816093850191602001916142bf92610b7e565b7f3c2f746578743e3c74657874207472616e73666f726d3d227472616e736c61746093918401918201526b329419991c101c989b14911f60a11b60b382015281519161431490839060bf840190602001610b7e565b0160bf81016a1e17ba32bc3a1f1e17b39f60a91b90520360aa8101845260ca0161433e9084610d65565b87519660808601519560600151966040519787899851908160208b01916020019161436892610b7e565b88018151918260208301916020019161438092610b7e565b01905191826020830161439292610b7e565b0190519182602083016143a492610b7e565b0190519182602083016143b692610b7e565b01038082526020016143c89082610d65565b6040516143d481610d4a565b600381526224646960e81b60208201526143ed92615045565b815290565b6040516143fe81610d4a565b600381526203735360ec1b602082015290614134565b61442991503d806000833e6103068183610d65565b38614089565b6140529291945060ff61444f613ff9923d806000833e6103068183610d65565b9592935050614041565b604051639a6fc8f560e01b815269ffffffffffffffffffff821660048201529060a082602481875afa9182156112f4576000906000936144d1575b5061449f848b61204e565b526001830191828411610c5f576144b96144bf938b61204e565b526136de565b9060028101809111610c5f5790613d63565b90506144f691925060a03d60a011614501575b6144ee8183610d65565b8101906136ac565b509392505038614494565b503d6144e4565b613d5f919350614522903d806000833e6103068183610d65565b9290613cc1565b9092506020813d60201161455d575b8161454560209383610d65565b81010312610bdc57614556906114b9565b9138613c9a565b3d9150614538565b915050614581915060a03d60a011614501576144ee8183610d65565b5091905038613c5f565b614594916130a7565b613bad565b929150926020833d6020116145cd575b816145b660209383610d65565b81010312610bdc5791519192909190613bf7613a64565b3d91506145a9565b919093506020823d602011614604575b816145f260209383610d65565b81010312610bdc5790519260206139d3565b3d91506145e5565b93506020843d60201161463a575b8161462760209383610d65565b81010312610bdc57925192613956613946565b3d915061461a565b90506020833d602011614670575b8161465d60209383610d65565b81010312610bdc57613910925190613896565b3d9150614650565b614680613043565b906137b1565b61327c613065565b9092503d806000833e6146a18183610d65565b8101602082820312610bdc5781516001600160401b0392838211610bdc570190610180918281830312610bdc5760405192830183811085821117610cc7576040528051848111610bdc57826146f79183016111aa565b835260208101516001600160a01b0381168103610bdc5760208401526040810151848111610bdc578261472b9183016111aa565b60408401526060810151848111610bdc57826147489183016111aa565b60608401526080810151848111610bdc57826147659183016111aa565b608084015260a081015160a084015260c081015160c084015261478a60e08201613016565b60e0840152610100808201519084015261012080820151858111610bdc57836147b49184016111aa565b9084015261014080820151908401526101609182820151948511610bdc57613860946147e092016111aa565b90820152929061374c565b604051906147f882610d4a565b601282527139b4b3b43a1039b2b2b4b733903a37b5b2b760711b6020830152565b604a61139191939293604051948161483b879351809260208087019101610b7e565b82017f2c7b2274726169745f74797065223a20224e465420496e73696465222c20227660208201526730b63ab2911d101160c11b6040820152614888825180936020604885019101610b7e565b0161227d60f01b604882015203602a810185520183610d65565b604051906148af82610d4a565b6004825263091b999d60e21b6020830152565b9391602061490994926148d3611494565b50600a546148e9906001600160a01b0316612330565b6040518080988194632ff4051960e01b8352600483019190602083019252565b03915afa8015612c6b5761493994600091614960575b5061492b612cc06147eb565b614934816159cf565b612313565b6143ed90602083016149518151604084015190614819565b905282519051906127406148a2565b614982915060203d602011614988575b61497a8183610d65565b810190613675565b3861491f565b503d614970565b6000818152600260205260409020546001600160a01b03169081156149b2575090565b60249060405190637e27328960e01b82526004820152fd5b906149d482610d9d565b6149e16040519182610d65565b82815280926149f2601f1991610d9d565b0190602036910137565b805115614b3957604051614a0f81610d14565b604081527f4142434445464748494a4b4c4d4e4f505152535455565758595a61626364656660208201527f6768696a6b6c6d6e6f707172737475767778797a303132333435363738392b2f604082015281519160029260028101809111610c5f576003908190046001600160fe1b0381168103610c5f57614a96906002959492951b6149ca565b936020850193839284518501935b848110614ae6575050505050600390510680600114614ad357600214614ac8575090565b603d90600019015390565b50603d9081600019820153600119015390565b8360049197929394959701918251600190603f9082828260121c16880101518453828282600c1c16880101518385015382828260061c168801015188850153168501015186820153019593929190614aa4565b50604051614b4681610d2f565b6000815290565b9060118110156120285760051b0190565b60409182519261022084018481106001600160401b03821117610cc757808252614b8781610d14565b6123271981526531b29c18333360d11b61024086018190526566396232333360d01b610260870181905291865282519091614bc182610d14565b6104af1982526020928383015283820152818601528151614be181610d14565b6102bb1981526506537383063360d41b828201526565306234333960d01b83820152858301528151614c1281610d14565b61018f1981526506666383038360d41b8282015265319c311b19b360d11b838201526060860152815193614c4585610d14565b60008086526533331c9c9c1b60d11b838701526561666238343560d01b8487015260808701959095528251614c7981610d14565b61012c81526566666232386360d01b838201526539366239346360d01b8482015260a08701528251614caa81610d14565b6102bc8152653333321c9c1b60d11b83820152651bb231311a9960d11b8482015260c08701528251614cdb81610d14565b61044c81526506666666638360d41b838201526506c6ac4c86a760d31b8482015260e08701528251614d0c81610d14565b6105dc81526506330656163360d41b838201526534636266356560d01b848201526101008701528251614d3e81610d14565b6109c4808252651c18321ab33360d11b848301526535376166366360d01b858301526101208801919091528351614d7481610d14565b61070881526506e6ec66ecc760d31b848201526536333965376160d01b85820152610140880152835190614da782610d14565b81526536646261663160d01b838201526506cca70ca70760d31b848201526101608701528251614dd681610d14565b610dac81526536346163656160d01b838201526537393764393560d01b848201526101808701528251614e0881610d14565b61125c8152650d584e59594d60d21b838201526538343664613360d01b848201526101a08701528251614e3a81610d14565b6117708152650d4c4e4c191960d21b838201526539303563623160d01b848201526101c08701528251614e6c81610d14565b611c848152651a1b9c19b21b60d11b83820152651cb11a31b13360d11b8482018190526101e0880191909152835190614ea482610d14565b611f4082526519b29b9ab1b360d11b84830152848201526102008701526533333333333360d11b94859060005b60118082101561502b57614ee5828b614b4d565b5151851215614ef8575b50600101614ed1565b601082999594939214600014614fb45750505050509081614fa48583614f40614f6c97988a614fb098614f3665ffffffffffff60d01b968793614b4d565b510151169a614b4d565b51015116965b8351958691848301600791602360f81b825265ffffffffffff60d01b1660018201520190565b0392614f80601f1994858101885287610d65565b519687928301600791602360f81b825265ffffffffffff60d01b1660018201520190565b03908101855284610d65565b9190565b600189929394959901908183116150195750614fd0908a614b4d565b51518412614fdf576001614eef565b959650614f6c95614fb095949350614fa492506001600160d01b03199150849061500f908386614f36838e614b4d565b5101511696614f46565b634e487b7160e01b8452600452602483fd5b505050614f6c94959650614fb093929150614fa490614f46565b90929192819082519281518651936020978880809501950190878560405101930193858501988111156150bc575b5050508394508095939160405195869103910301945b8382106150ad5750506000848401968701525050603f909301601f19166040528252565b81518152908201908201615089565b90919293959450602181870301968a6000936000828510156151b2575b601f859998979916830360031b9851965b88518881188b1c1561512657815260018091019801988b8a1015615110575b98976150ea565b505050959750505050509183925b388080615073565b918497949598919a92819d94979a9c9d61516b575b50505050505b8181840101518188015201908382101561515d57908290615141565b50509201920192839261511e565b90809293949596508a8d20036151835787959461513b565b8a9192989597949c9b9996939a5260018091019801988b8a10615109575050509597505050505091839261511e565b508386206150d9565b929192600b8414801590615304575b6152ff576152356151f7604051956151e187610d4a565b600487526318985b1b60e21b60208801526159f7565b94615223604051968795633235ac6d60e01b875260048701526101a060248701526101a4860190610ba1565b84810360031901604486015290610ba1565b60016064840152826000958692836084830152609660a48301528360c4830152603260e483015260326101048301526104b0610124830152611c206101448301526046610164830152610708610184830152038173__$2d8ca8bf86eea40aef689c316826963c89$__5af49182156152f45784610e0a9495936152d7575b5050604051906152c282610d4a565b600382526224626160e81b6020830152615045565b6152ec9293503d8091833e6103068183610d65565b9038806152b3565b6040513d86823e3d90fd5b925050565b50600f8414156151ca565b90929161531b906159f7565b9161532581611aa0565b60038114908115615660575b5015615658576046915b60405193633235ac6d60e01b85528060048601526101a0602486015260008560408161536b6101a4820187610ba1565b600319828203016044830152600681526563727569736560d01b6020820152846064830152846084830152600560a4830152600160c483015260ff891660e483015260ff89166101048301526101686101248301526104b0610144830152603261016483015261016861018483015203018173__$2d8ca8bf86eea40aef689c316826963c89$__5af49485156112f45760009561563b575b5060405193633235ac6d60e01b85528160048601526101a0602486015260008560406154336101a4830187610ba1565b653334b9b432b960d11b60208483039260031984016044870152600681520152836064840152836084840152600560a4840152600160c484015260ff851660e484015260ff8516610104840152610258806101248501526104b06101448501526032610164850152610184840152018173__$2d8ca8bf86eea40aef689c316826963c89$__5af49485156112f457600095615617575b5090604060009260ff6154fc8351968795633235ac6d60e01b875260048701526101a060248701526101a4860190610ba1565b91641e5858da1d60da1b6020868503946003198601604489015260058152015260016064860152856084860152600560a4860152600160c486015281811660e48601521661010484015260b4610124840152610168610144840152603261016484015260b4610184840152018173__$2d8ca8bf86eea40aef689c316826963c89$__5af49081156112f457610e0a946155da926020926000916155fc575b5060405195826155b38894518092878088019101610b7e565b83016155c782518093878085019101610b7e565b016130dc82518093868085019101610b7e565b604051906155e782610d4a565b600382526224777360e81b6020830152615045565b61561191503d806000833e6103068183610d65565b3861559a565b6000929195506156326040913d8086833e6103068183610d65565b959192506154c9565b6156519195503d806000833e6103068183610d65565b9338615403565b60649161533b565b6002915061566d81611aa0565b1438615331565b91909161567f611494565b50600a5460408051633a0de35f60e21b8152600481019590955260009490918590829060249082906001600160a01b03165afa908115615976578591615794575b506143ed92939450610180810151606085015283519061570160209283830151908551906156ed82610d4a565b600382526224626360e81b86830152615045565b855281850161571381518351906130a7565b90526224746f60e81b61016061577661574c8851878601519088519061573882610d4a565b600382526224736360e81b89830152615045565b8089526101408501519087519061576282610d4a565b6003825262048e6d60eb1b88830152615045565b92838852015193519261578884610d4a565b60038452830152615045565b90503d8086833e6157a58183610d65565b8101946020828703126102215781516001600160401b03928382116102285701916101c092838189031261022857845193840184811083821117615962578552805182811161022457886157fa9183016111aa565b8452602081015182811161022457886158149183016111aa565b60208501528481015182811161022457886158309183016111aa565b858501526060810151828111610224578861584c9183016111aa565b6060850152608081015182811161022457886158699183016111aa565b608085015260a081015182811161022457886158869183016111aa565b60a085015260c081015182811161022457886158a39183016111aa565b60c085015260e081015160e0850152610100808201518381116103d057896158cc9184016111aa565b90850152610120808201518381116103d057896158ea9184016111aa565b90850152610140808201518381116103d057896159089184016111aa565b90850152610160808201518381116103d057896159269184016111aa565b9085015261018080820151908501526101a09283820151928311610221575096615956916143ed969798016111aa565b908201528493926156c0565b634e487b7160e01b84526041600452602484fd5b82513d87823e3d90fd5b600080916040516159bc816159ae602082019463104c13eb60e21b8652602060248401526044830190610ba1565b03601f198101835282610d65565b51906a636f6e736f6c652e6c6f675afa50565b60008091604051602081019163f5b1bba960e01b83526024820152602481526159bc81610d14565b806000917a184f03e93ff9f4daa797ed6e38ed64bf6a1f01000000000000000080821015615b2c575b506d04ee2d6d415b85acef810000000080831015615b1d575b50662386f26fc1000080831015615b0e575b506305f5e10080831015615aff575b5061271080831015615af0575b506064821015615ae0575b600a80921015615ad6575b600190816021615a8f600187016149ca565b95860101905b615aa0575050505090565b600019019083906f181899199a1a9b1b9c1cb0b131b232b360811b8282061a835304918215615ad157919082615a95565b612c37565b9160010191615a7d565b9190606460029104910191615a72565b60049193920491019138615a67565b60089193920491019138615a5a565b60109193920491019138615a4b565b60209193920491019138615a39565b604093508104915038615a2056fea2646970667358221220d354f4c39390ebcb0705d13db5b7c2c11cfb0fd6de5fd2be4e336f09b78ccaef64736f6c63430008190033","linkReferences":{"contracts/NDRenderer.sol":{"NDRenderer":[{"start":13285,"length":20},{"start":13769,"length":20},{"start":14219,"length":20},{"start":14304,"length":20},{"start":14414,"length":20},{"start":14628,"length":20},{"start":14750,"length":20},{"start":14979,"length":20},{"start":15477,"length":20},{"start":24948,"length":20},{"start":25288,"length":20},{"start":25486,"length":20},{"start":25684,"length":20}]},"contracts/NDUtils.sol":{"NDUtils":[{"start":13978,"length":20},{"start":14501,"length":20},{"start":15062,"length":20},{"start":18267,"length":20},{"start":18443,"length":20},{"start":18584,"length":20},{"start":18729,"length":20},{"start":20230,"length":20},{"start":20302,"length":20}]},"contracts/SunCalc.sol":{"SunCalc":[{"start":12995,"length":20},{"start":13119,"length":20},{"start":13401,"length":20},{"start":13508,"length":20}]}}},"methodIdentifiers":{"approve(address,uint256)":"095ea7b3","balanceOf(address)":"70a08231","generateNFT(uint256,uint256,(string,uint256,uint256,uint256,uint256,uint256,uint8)[],string)":"793964c0","getApproved(uint256)":"081812fc","isApprovedForAll(address,address)":"e985e9c5","maxSupply()":"d5abeb01","mint()":"1249c58b","motifDataManager()":"386b2304","name()":"06fdde03","ownerOf(uint256)":"6352211e","premintSupply()":"74b1ceaf","renderCityTraits((string,string,string,uint256),uint256)":"c3ac35e5","renderLandscapeTraits((string,string,string,uint256),uint256)":"a026ad22","renderNFTInside((string,string,string,uint256),uint256,uint256,(string,uint256,uint256,uint256,uint256,uint256,uint8)[],string)":"d4c2629f","royaltyInfo(uint256,uint256)":"2a55205a","safeTransferFrom(address,address,uint256)":"42842e0e","safeTransferFrom(address,address,uint256,bytes)":"b88d4fde","setApprovalForAll(address,bool)":"a22cb465","supportsInterface(bytes4)":"01ffc9a7","symbol()":"95d89b41","tokenURI(uint256)":"c87b56dd","tokenUriWithTime(uint256,uint256)":"709c163e","totalSupply()":"18160ddd","transferFrom(address,address,uint256)":"23b872dd"},"id":2}