{"abi":[{"type":"constructor","inputs":[{"name":"_motifDataManager","type":"address","internalType":"address"}],"stateMutability":"nonpayable"},{"type":"function","name":"approve","inputs":[{"name":"to","type":"address","internalType":"address"},{"name":"tokenId","type":"uint256","internalType":"uint256"}],"outputs":[],"stateMutability":"nonpayable"},{"type":"function","name":"balanceOf","inputs":[{"name":"owner","type":"address","internalType":"address"}],"outputs":[{"name":"","type":"uint256","internalType":"uint256"}],"stateMutability":"view"},{"type":"function","name":"generateNFT","inputs":[{"name":"tokenId","type":"uint256","internalType":"uint256"},{"name":"_timestamp","type":"uint256","internalType":"uint256"}],"outputs":[{"name":"","type":"string","internalType":"string"}],"stateMutability":"view"},{"type":"function","name":"generateNFT","inputs":[{"name":"tokenId","type":"uint256","internalType":"uint256"}],"outputs":[{"name":"","type":"string","internalType":"string"}],"stateMutability":"view"},{"type":"function","name":"getApproved","inputs":[{"name":"tokenId","type":"uint256","internalType":"uint256"}],"outputs":[{"name":"","type":"address","internalType":"address"}],"stateMutability":"view"},{"type":"function","name":"isApprovedForAll","inputs":[{"name":"owner","type":"address","internalType":"address"},{"name":"operator","type":"address","internalType":"address"}],"outputs":[{"name":"","type":"bool","internalType":"bool"}],"stateMutability":"view"},{"type":"function","name":"maxSupply","inputs":[],"outputs":[{"name":"","type":"uint256","internalType":"uint256"}],"stateMutability":"view"},{"type":"function","name":"merkleRoot","inputs":[],"outputs":[{"name":"","type":"bytes32","internalType":"bytes32"}],"stateMutability":"view"},{"type":"function","name":"mint","inputs":[],"outputs":[],"stateMutability":"nonpayable"},{"type":"function","name":"mintWithCode","inputs":[{"name":"_merkleProof","type":"bytes32[]","internalType":"bytes32[]"},{"name":"_code","type":"string","internalType":"string"}],"outputs":[],"stateMutability":"nonpayable"},{"type":"function","name":"motifDataManager","inputs":[],"outputs":[{"name":"","type":"address","internalType":"contract NDMotifDataManager"}],"stateMutability":"view"},{"type":"function","name":"name","inputs":[],"outputs":[{"name":"","type":"string","internalType":"string"}],"stateMutability":"view"},{"type":"function","name":"ownerOf","inputs":[{"name":"tokenId","type":"uint256","internalType":"uint256"}],"outputs":[{"name":"","type":"address","internalType":"address"}],"stateMutability":"view"},{"type":"function","name":"renderAirplanes","inputs":[{"name":"timestamp","type":"uint256","internalType":"uint256"},{"name":"tokenId","type":"uint256","internalType":"uint256"},{"name":"horizonInPx","type":"uint256","internalType":"uint256"},{"name":"heading","type":"int256","internalType":"int256"}],"outputs":[{"name":"","type":"string","internalType":"string"}],"stateMutability":"pure"},{"type":"function","name":"renderBeachTraits","inputs":[{"name":"svg","type":"string","internalType":"string"},{"name":"tokenId","type":"uint256","internalType":"uint256"}],"outputs":[{"name":"","type":"string","internalType":"string"}],"stateMutability":"view"},{"type":"function","name":"renderCityTraits","inputs":[{"name":"svg","type":"string","internalType":"string"},{"name":"tokenId","type":"uint256","internalType":"uint256"}],"outputs":[{"name":"","type":"string","internalType":"string"}],"stateMutability":"view"},{"type":"function","name":"renderLandscapeTraits","inputs":[{"name":"svg","type":"string","internalType":"string"},{"name":"tokenId","type":"uint256","internalType":"uint256"}],"outputs":[{"name":"","type":"string","internalType":"string"}],"stateMutability":"view"},{"type":"function","name":"renderNFT","inputs":[{"name":"skyColor","type":"string","internalType":"string"},{"name":"motifType","type":"uint8","internalType":"enum MotifType"},{"name":"motifSVG","type":"string","internalType":"string"},{"name":"sunSVG","type":"string","internalType":"string"},{"name":"cloudsSVG","type":"string","internalType":"string"},{"name":"skySceneSVG","type":"string","internalType":"string"},{"name":"maskedAssetsSVG","type":"string","internalType":"string"},{"name":"moonSVG","type":"string","internalType":"string"},{"name":"nightSVG","type":"string","internalType":"string"}],"outputs":[{"name":"","type":"string","internalType":"string"}],"stateMutability":"view"},{"type":"function","name":"renderNFTInside","inputs":[{"name":"svg","type":"string","internalType":"string"},{"name":"tokenId","type":"uint256","internalType":"uint256"},{"name":"timestamp","type":"uint256","internalType":"uint256"}],"outputs":[{"name":"","type":"string","internalType":"string"}],"stateMutability":"view"},{"type":"function","name":"renderWaterScene","inputs":[{"name":"svg","type":"string","internalType":"string"},{"name":"timestamp","type":"uint256","internalType":"uint256"},{"name":"tokenId","type":"uint256","internalType":"uint256"},{"name":"horizonInPx","type":"uint256","internalType":"uint256"},{"name":"heading","type":"int256","internalType":"int256"}],"outputs":[{"name":"","type":"string","internalType":"string"}],"stateMutability":"pure"},{"type":"function","name":"reservedSupply","inputs":[],"outputs":[{"name":"","type":"uint256","internalType":"uint256"}],"stateMutability":"view"},{"type":"function","name":"royaltyInfo","inputs":[{"name":"tokenId","type":"uint256","internalType":"uint256"},{"name":"salePrice","type":"uint256","internalType":"uint256"}],"outputs":[{"name":"","type":"address","internalType":"address"},{"name":"","type":"uint256","internalType":"uint256"}],"stateMutability":"view"},{"type":"function","name":"safeTransferFrom","inputs":[{"name":"from","type":"address","internalType":"address"},{"name":"to","type":"address","internalType":"address"},{"name":"tokenId","type":"uint256","internalType":"uint256"}],"outputs":[],"stateMutability":"nonpayable"},{"type":"function","name":"safeTransferFrom","inputs":[{"name":"from","type":"address","internalType":"address"},{"name":"to","type":"address","internalType":"address"},{"name":"tokenId","type":"uint256","internalType":"uint256"},{"name":"data","type":"bytes","internalType":"bytes"}],"outputs":[],"stateMutability":"nonpayable"},{"type":"function","name":"setApprovalForAll","inputs":[{"name":"operator","type":"address","internalType":"address"},{"name":"approved","type":"bool","internalType":"bool"}],"outputs":[],"stateMutability":"nonpayable"},{"type":"function","name":"supportsInterface","inputs":[{"name":"interfaceId","type":"bytes4","internalType":"bytes4"}],"outputs":[{"name":"","type":"bool","internalType":"bool"}],"stateMutability":"view"},{"type":"function","name":"symbol","inputs":[],"outputs":[{"name":"","type":"string","internalType":"string"}],"stateMutability":"view"},{"type":"function","name":"tokenURI","inputs":[{"name":"tokenId","type":"uint256","internalType":"uint256"}],"outputs":[{"name":"","type":"string","internalType":"string"}],"stateMutability":"view"},{"type":"function","name":"tokenUriWithTime","inputs":[{"name":"tokenId","type":"uint256","internalType":"uint256"},{"name":"timestamp","type":"uint256","internalType":"uint256"}],"outputs":[{"name":"","type":"string","internalType":"string"}],"stateMutability":"view"},{"type":"function","name":"totalSupply","inputs":[],"outputs":[{"name":"","type":"uint256","internalType":"uint256"}],"stateMutability":"view"},{"type":"function","name":"transferFrom","inputs":[{"name":"from","type":"address","internalType":"address"},{"name":"to","type":"address","internalType":"address"},{"name":"tokenId","type":"uint256","internalType":"uint256"}],"outputs":[],"stateMutability":"nonpayable"},{"type":"function","name":"usedCodes","inputs":[{"name":"","type":"bytes32","internalType":"bytes32"}],"outputs":[{"name":"","type":"bool","internalType":"bool"}],"stateMutability":"view"},{"type":"event","name":"Approval","inputs":[{"name":"owner","type":"address","indexed":true,"internalType":"address"},{"name":"approved","type":"address","indexed":true,"internalType":"address"},{"name":"tokenId","type":"uint256","indexed":true,"internalType":"uint256"}],"anonymous":false},{"type":"event","name":"ApprovalForAll","inputs":[{"name":"owner","type":"address","indexed":true,"internalType":"address"},{"name":"operator","type":"address","indexed":true,"internalType":"address"},{"name":"approved","type":"bool","indexed":false,"internalType":"bool"}],"anonymous":false},{"type":"event","name":"Transfer","inputs":[{"name":"from","type":"address","indexed":true,"internalType":"address"},{"name":"to","type":"address","indexed":true,"internalType":"address"},{"name":"tokenId","type":"uint256","indexed":true,"internalType":"uint256"}],"anonymous":false},{"type":"error","name":"ERC2981InvalidDefaultRoyalty","inputs":[{"name":"numerator","type":"uint256","internalType":"uint256"},{"name":"denominator","type":"uint256","internalType":"uint256"}]},{"type":"error","name":"ERC2981InvalidDefaultRoyaltyReceiver","inputs":[{"name":"receiver","type":"address","internalType":"address"}]},{"type":"error","name":"ERC2981InvalidTokenRoyalty","inputs":[{"name":"tokenId","type":"uint256","internalType":"uint256"},{"name":"numerator","type":"uint256","internalType":"uint256"},{"name":"denominator","type":"uint256","internalType":"uint256"}]},{"type":"error","name":"ERC2981InvalidTokenRoyaltyReceiver","inputs":[{"name":"tokenId","type":"uint256","internalType":"uint256"},{"name":"receiver","type":"address","internalType":"address"}]},{"type":"error","name":"ERC721IncorrectOwner","inputs":[{"name":"sender","type":"address","internalType":"address"},{"name":"tokenId","type":"uint256","internalType":"uint256"},{"name":"owner","type":"address","internalType":"address"}]},{"type":"error","name":"ERC721InsufficientApproval","inputs":[{"name":"operator","type":"address","internalType":"address"},{"name":"tokenId","type":"uint256","internalType":"uint256"}]},{"type":"error","name":"ERC721InvalidApprover","inputs":[{"name":"approver","type":"address","internalType":"address"}]},{"type":"error","name":"ERC721InvalidOperator","inputs":[{"name":"operator","type":"address","internalType":"address"}]},{"type":"error","name":"ERC721InvalidOwner","inputs":[{"name":"owner","type":"address","internalType":"address"}]},{"type":"error","name":"ERC721InvalidReceiver","inputs":[{"name":"receiver","type":"address","internalType":"address"}]},{"type":"error","name":"ERC721InvalidSender","inputs":[{"name":"sender","type":"address","internalType":"address"}]},{"type":"error","name":"ERC721NonexistentToken","inputs":[{"name":"tokenId","type":"uint256","internalType":"uint256"}]},{"type":"error","name":"ReentrancyGuardReentrantCall","inputs":[]}],"bytecode":{"object":"0x60803461157d5761639b90813803601f1991601f838184011682019460018060401b0393838710858811176113ae578084926040988952833960209384918101031261157d57516001600160a01b038116949085900361157d57610061611582565b91600d83526c4e6967687420416e642044617960981b84840152610083611582565b916003928381526213899160ea1b8682015284518781116113ae57806002966100ac88546115a1565b86811161154f575b5088908683116001146114ef576000926114e4575b50508160011b9160001990871b1c19161785555b8051918783116113ae5782916100f386546115a1565b8581116114ac575b508791858411600114611449575060009261143e575b50508160011b9160001990851b1c19161782555b6001806008557fd93cc992f7664fad08565ac8e528121f35916c72b1ab662873a344f5e4bfcdc3600955875190613e808201828110888211176113ae578952610154825260a7868301526101a7898301526101f2606083015260a8608083015260a960a083015261015060c08301526101d060e08301526101006039818401526101209260b7848201526101406101b9818301526101609061014d82840152610180906101a8828501526101a09661015d888601526101c09260fb848701526101e098602a8a880152609e610200880152606c61022088015260f16102408801526101eb6102608801526101d76102808801526101c76102a088015261018e6102c0880152607e6102e08801526101e46103008801526101976103208801526101af61034088015260d26103608801526101b861038088015260916103a08801526101316103c088015260296103e088015260ee61040088015260ac610420880152610190610440880152603761046088015260af6104808801526101bf6104a088015260426104c088015261019b6104e08801526101db61050088015261018361052088015260ae6105408801526052610560880152610199610580880152604b6105a088015261018f6105c08801526101236105e08801526101e261060088015260eb61062088015260cb61064088015260b061066088015260266106808801526101e96106a088015260f56106c08801528d6106e0880152609861070088015260a261072088015261016b6107408801526101166107608801526101b361078088015260f76107a0880152609c6107c088015260856107e088015260b461080088015260096108208801526101556108408801526071610860880152606061088088015260d36108a088015260186108c088015260de6108e08801526109008701526101ba610920870152600c610940870152605d610960870152609661098087015260db6109a087015260ab6109c087015261012c6109e08701526101a5610a00870152605a610a2087015261017d610a40870152605c610a608701526101c8610a80870152610147610aa087015261010f610ac0870152610188610ae08701526062610b00870152610177610b2087015260fa610b40870152610130610b608701526101d9610b808701526086610ba087015260e6610bc0870152610108610be0870152607b610c008701526036610c208701526097610c408701526101cd610c60870152610162610c8087015261010b610ca087015260f9610cc08701526093610ce08701526073610d00870152607d610d2087015261019e610d4087015261016c610d60870152610111610d80870152610da086015260aa610dc086015260ed610de08601526101ef610e008601526056610e2086015261013c610e4086015261011a610e60860152610102610e808601526033610ea08601526101c29788610ec0870152610189610ee08701526010610f0087015261011d610f208701526101ac610f4087015260ea610f6087015260b5610f80870152610103610fa087015261015b610fc0870152610125610fe08701526055611000870152603b6110208701526101b5611040870152605061106087015261017061108087015261014b6110a087015260886110c0870152603c6110e087015261010c6111008701526101286111208701526101ab611140870152600e611160870152608f61118087015260b86111a087015260e96111c087015260486111e087015261010e611200870152605761122087015260e3611240870152606361126087015260be611280870152608e6112a08701526101756112c08701526101066112e08701526101666113008701526101596113208701526101736113408701528b61136087015260146113808701526101876113a087015260c56113c087015261014a6113e0870152602d611400870152603d611420870152610167611440870152604f6114608701526064611480870152606b6114a087015260f46114c087015260a66114e08701526101ca611500870152610163611520870152610133611540870152609d611560870152896115808701526101bd6115a087015260386115c08701526101846115e087015260696116008701526101a461162087015260f8611640870152610151611660870152605461168087015260156116a08701526116c086015260ec6116e086015260dc61170086015261013b611720860152603e611740860152607a611760860152609b61178086015260d56117a086015261013d6117c086015260ad6117e086015261012f61180086015261019561182086015260cc611840860152607661186086015261017a61188086015260e76118a0860152896118c086015260956118e086015261013f61190086015260d66119208601526101ad61194086015261011261196086015261014f61198086015260076119a0860152604e6119c086015260d96119e08601526024611a008601526068611a208601526101d2611a40860152610171611a6086015261014e611a808601526101b7611aa0860152608d611ac086015260b2611ae08601526021611b008601526045611b208601526023611b40860152610174611b6086015261017e611b80860152610113611ba086015260fe611bc0860152610192611be086015260fd611c00860152602c611c20860152610165611c408601526101f0611c608601526101b0611c8086015260d1611ca08601526101cb611cc0860152610181611ce0860152610186611d00860152601d611d20860152610136611d408601526017611d6086015260a3611d8086015261012a611da08601526058611dc086015261018a611de0860152610110611e0086015261013a611e208601526067611e408601526053611e60860152610149611e8086015260c0611ea086015260cf611ec0860152610178611ee086015260f0611f0086015260bc611f2086015260b9611f40860152602f611f608601526083611f80860152610115611fa08601526101e5611fc086015260e2611fe0860152610143612000860152604961202086015260d4612040860152608961206086015260bb61208086015261011e6120a08601526101416120c0860152601c6120e08601526004612100860152606161212086015260a46121408601526101046121608601526101c46121808601526101946121a08601526101576121c086015260666121e086015260816122008601526101bc612220860152610158612240860152603161226086015261016f6122808601526101ae6122a0860152606d6122c08601526101b16122e08601526051612300860152609461232086015261014c61234086015261013761236086015260ce61238086015260bd6123a08601526101326123c086015260c86123e08601526019612400860152604d61242086015260826124408601526101da61246086015260726124808601526101766124a08601526101c66124c086015261015e6124e08601526101dd6125008601526101466125208601526101bb61254086015261016861256086015261017261258086015261015a6125a086015261019a6125c08601526101e66125e08601526101196126008601526101f36126208601526059612640860152603f612660860152603561268086015260b16126a086015260466126c08601526101426126e086015261019661270086015260e061272086015261017c612740860152601e61276086015261011f61278086015261017b6127a086015260116127c086015260da6127e08601526087612800860152605e6128208601526101146128408601526101a661286086015261288085015260dd6128a085015261016a6128c085015260926128e0850152607f61290085015260416129208501526101d36129408501526090612960850152603461298085015261018b6129a08501526101a16129c08501526101526129e085015260f2612a00850152604a612a208501526101e8612a4085015260c4612a608501526008612a80850152603a612aa0850152610134612ac08501526101ce612ae0850152612b008401526043612b208401526077612b40840152605b612b608401526101ea612b808401526101b2612ba0840152610101612bc084015261013e612be0840152604c612c0084015261011b612c2084015261010a612c4084015260ba612c608401526101df612c80840152609f612ca0840152610198612cc084015260cd612ce08401526030612d0084015261017f612d208401526101c5612d40840152610124612d608401526028612d808401526080612da08401526044612dc0840152610164612de0840152610126612e00840152610153612e2084015260b3612e40840152602b612e608401526101cf612e808401526027612ea0840152601b612ec08401526101d6612ee08401526101e3612f00840152610118612f2084015261018c612f408401526101d5612f6084015261010d612f808401526075612fa0840152610156612fc0840152610129612fe0840152605f61300084015260166130208401526101e761304084015261018d61306084015261013561308084015260df6130a08401526101936130c08401526101dc6130e08401526131008301526101f1613120830152600a61314083015260c16131608301526101d161318083015260a06131a08301526101456131c083015260e46131e0830152606a613200830152606e61322083015260a561324083015260c76132608301526101396132808301526101176132a08301526101a36132c0830152607c6132e0830152602e613300830152609a6133208301526101b661334083015260c9613360830152600161338083015260056133a083015260c36133c08301526101cc6133e083015261011c61340083015260e861342083015260d0613440830152608c61346083015261016161348083015261019f6134a083015260ca6134c083015260706134e0830152600f6135008301526084613520830152610121613540830152601a613560830152606f61358083015261019d6135a08301526101d86135c083015261012d6135e083015260136136008301526136208201526101a96136408201526101c36136608201526101056136808201526101696136a08201526101ee6136c082015260746136e082015260d86137008201526101c961372082015260f66137408201526101c1613760820152608b613780820152600d6137a0820152608a6137c08201526101b46137e08201526025613800820152600b61382082015260a161384082015260476138608201526101386138808201526101446138a08201526101de6138c082015260796138e08201526101276139008201526101ec61392082015260226139408201526101e1613960820152600661398082015260ef6139a08201526101486139c082015260c26139e082015261016e613a008201526032613a208201528a613a408201526101be613a6082015261019c613a80820152610109613aa08201526099613ac08201526012613ae08201526101d4613b00820152610179613b20820152610191613b4082015260c6613b6082015260f3613b808201526078613ba08201526101ed613bc082015261015f613be082015260ff613c0082015260e5613c208201526101f49182613c4083015260b6613c6083015260bf613c8083015261015c613ca0830152610185613cc0830152610107613ce083015260fc613d008301526101a2613d2083015261016d613d4083015261012e613d60830152610182613d808301526065613da083015260e1613dc083015261012b613de0830152610122613e0083015260d7613e20830152613e408201526101aa613e60820152600a5482600a55808310611420575b50600a6000528760002060005b83811061140b5750505050506032600c55600e5561121c600f546115a1565b8181116113e8575b5060ab600f55600f6000527f77626f783d2230203020313038302031303830223e000000000000000000000083856000207f3c73766720786d6c6e733d22687474703a2f2f7777772e77332e6f72672f323081557f30302f7376672220786d6c3a73706163653d2270726573657276652220766965600182015501556112ab6010546115a1565b8181116113c4575b505060df60105560106000527f203020302030203020302030203020302030203020302030203020302030203183600020927f3c66696c7465722069643d226d616b65426c61636b223e3c6665436f6c6f724d84557f617472697820747970653d226d61747269782276616c7565733d22302030203060018501558301556e10181110179f1e17b334b63a32b91f60891b910155835184810192818410908411176113ae576109c49285527329c8950157979a0bc26772f1cc74006d6cf97473815201527509c429c8950157979a0bc26772f1cc74006d6cf9747360005560018060a01b0319601154161760115551614da890816115f38239f35b634e487b7160e01b600052604160045260246000fd5b60046113e192601060005286600020920160051c820191016115db565b38806112b3565b61140590600f600052838387600020920160051c820191016115db565b38611224565b825161ffff16828201559189019184016111fd565b61143890600a600052838a60002091820191016115db565b386111f0565b015190503880610111565b9092169185600052876000209260005b8982821061149657505090846001959493921061147e575b505050811b018255610125565b015160001983871b60f8161c19169055388080611471565b6001859682939686015181550195019301611459565b6114d59087600052896000208780870160051c8201928c88106114db575b0160051c01906115db565b386100fb565b925081926114ca565b0151905038806100c9565b60008981528a8120938716905b8b828210611539575050908460019594939210611521575b505050811b0185556100dd565b015160001983891b60f8161c19169055388080611514565b60018596829396860151815501950193016114fc565b61157790896000528a6000208880860160051c8201928d87106114db570160051c01906115db565b386100b4565b600080fd5b60408051919082016001600160401b038111838210176113ae57604052565b90600182811c921680156115d1575b60208310146115bb57565b634e487b7160e01b600052602260045260246000fd5b91607f16916115b0565b8181106115e6575050565b600081556001016115db56fe608080604052600436101561001357600080fd5b60003560e01c90816301ffc9a7146110b55750806306945b3a14610d2357806306fdde0314610c75578063081812fc14610c3757806308457ad114610b3e578063095ea7b314610a575780630e931f3014610a3d5780631249c58b146109b657806318160ddd1461099857806323b872dd146109815780632a55205a146108b75780632ca898521461088f5780632eb4a7ab14610871578063386b23041461084857806340709fe1146107c757806342842e0e1461081a57806344d19d2b146107fc578063584f3c3f1461026d5780636352211e146107cc578063709c163e146107c757806370a082311461076e578063904077a01461073d57806395d89b411461065a578063a22cb465146105b5578063abca27bd1461059b578063b88d4fde1461052f578063bcd875fe146102a5578063c87b56dd1461026d578063d5abeb011461024f578063e985e9c5146101f9578063f73a6a8a146101df5763fe363e241461017f57600080fd5b346101da5760603660031901126101da576004356001600160401b0381116101da576101c26101b56101d692369060040161122f565b6044359060243590613eea565b604051918291602083526020830190611270565b0390f35b600080fd5b346101da576101d66101c26101f3366112c1565b906136ce565b346101da5760403660031901126101da57610212611295565b61021a6112ab565b9060018060a01b03809116600052600760205260406000209116600052602052602060ff604060002054166040519015158152f35b346101da5760003660031901126101da576020600e54604051908152f35b346101da5760203660031901126101da576101d660405161028d816111a1565b60008152604051918291602083526020830190611270565b346101da5760403660031901126101da576001600160401b036004358181116101da57366023820112156101da578060040135918083116101da576024808460051b840101913683116101da578135908082116101da57366023830112156101da5781600401359081116101da57368382840101116101da576103266142f8565b610335600d54600e5411611b8e565b600c54156104eb576040516020939284820192610369918691849181908801873781016000838201520380845201826111bc565b5190209283600052600b835260ff604060002054166104b3576009549461038f87611f33565b9661039d60405198896111bc565b87528201838088015b8383106104a35750505050826000935b86518510156103fa576103c985886136a1565b5190818110156103e8576000528352600160406000205b9401936103b6565b906000528352600160406000206103e0565b90858492036104715790600b91600052526040600020600160ff19825416179055600c5490600019820191821161045d5750600c55610456610449600d5461044181611bcf565b600d55611bde565b90549060031b1c3361431b565b6001600855005b634e487b7160e01b60009081526011600452fd5b50600c6064926040519262461bcd60e51b845260048401528201526b496e76616c696420636f646560a01b6044820152fd5b82358152918101918591016103a6565b60405162461bcd60e51b8152600481018490526011818401527010dbd91948185b1c9958591e481d5cd959607a1b6044820152606490fd5b60405162461bcd60e51b8152602060048201526017818501527f4e6f20726573657276656420737570706c79206c6566740000000000000000006044820152606490fd5b346101da5760803660031901126101da57610548611295565b6105506112ab565b90604435606435926001600160401b0384116101da57366023850112156101da576105886105999436906024816004013591016111f8565b92610594838383611c2b565b614c2e565b005b346101da576101d66101c26105af366112c1565b90613528565b346101da5760403660031901126101da576105ce611295565b602435908115158092036101da576001600160a01b031690811561064157336000526007602052604060002082600052602052604060002060ff1981541660ff83161790556040519081527f17307eab39ab6107e8899845ad3d59bd9653f200f220920489ca2b5937696c3160203392a3005b604051630b61174360e31b815260048101839052602490fd5b346101da5760003660031901126101da5760405160035460008261067d836113f5565b918282526020936001908560018216918260001461071d5750506001146106c0575b506106ac925003836111bc565b6101d6604051928284938452830190611270565b84915060036000527fc2575a0e9e593c00f959f8c92f12db2869c3395a3b0502d05e2516446f71f85b906000915b8583106107055750506106ac93508201018561069f565b805483890185015287945086939092019181016106ee565b60ff1916858201526106ac95151560051b850101925087915061069f9050565b346101da5760203660031901126101da57600435600052600b602052602060ff604060002054166040519015158152f35b346101da5760203660031901126101da576001600160a01b0361078f611295565b1680156107ae5760005260056020526020604060002054604051908152f35b6040516322718ad960e21b815260006004820152602490fd5b61133d565b346101da5760203660031901126101da5760206107ea6004356142bd565b6040516001600160a01b039091168152f35b346101da5760003660031901126101da576020600c54604051908152f35b346101da5761059961082b366112f2565b9060405192610839846111a1565b60008452610594838383611c2b565b346101da5760003660031901126101da576011546040516001600160a01b039091168152602090f35b346101da5760003660031901126101da576020600954604051908152f35b346101da5760803660031901126101da576101d66101c2606435604435602435600435611e21565b346101da576108c536611327565b906000526001602052604060002090604051916108e18361113a565b546001600160a01b0380821680855260a09290921c602085015292901561095f575b6bffffffffffffffffffffffff60208201511691828102928184041490151715610949575160408051939091166001600160a01b03168352612710909104602083015290f35b634e487b7160e01b600052601160045260246000fd5b5060405161096c8161113a565b600054838116825260a01c6020820152610903565b346101da57610599610992366112f2565b91611c2b565b346101da5760003660031901126101da576020600d54604051908152f35b346101da5760003660031901126101da576109cf6142f8565b600d546109df600e548210611b8e565b600c5481106109f8576104498161044161045693611bcf565b60405162461bcd60e51b815260206004820152601d60248201527f526573657276656420737570706c79206e6f74206578686175737465640000006044820152606490fd5b346101da576101d66101c2610a51366112c1565b906119a3565b346101da5760403660031901126101da57610a70611295565b602435610a7c816142bd565b33151580610b2b575b80610afe575b610ae6576001600160a01b039283169282918491167f8c5be1e5ebec7d5bd14f71427d1e84f3dd0314c0f7b2291e5b200ac8c7c3b925600080a4600090815260066020526040902080546001600160a01b0319169091179055005b60405163a9fbf51f60e01b8152336004820152602490fd5b5060018060a01b038116600052600760205260406000203360005260205260ff6040600020541615610a8b565b506001600160a01b038116331415610a85565b346101da576101203660031901126101da576001600160401b036004358181116101da57610b7090369060040161122f565b906024359160048310156101da576044358281116101da57610b9690369060040161122f565b6064358381116101da57610bae90369060040161122f565b6084358481116101da57610bc690369060040161122f565b60a4358581116101da57610bde90369060040161122f565b9060c4358681116101da57610bf790369060040161122f565b9260e4358781116101da57610c1090369060040161122f565b94610104359788116101da576101d698610c316101c299369060040161122f565b9761144f565b346101da5760203660031901126101da57600435610c54816142bd565b506000526006602052602060018060a01b0360406000205416604051908152f35b346101da5760003660031901126101da57604051600254600082610c98836113f5565b918282526020936001908560018216918260001461071d575050600114610cc657506106ac925003836111bc565b84915060026000527f405787fa12a823e0f2b7631cc41b3ba8828b3321ca811111fa75cd3aa3bb5ace906000915b858310610d0b5750506106ac93508201018561069f565b80548389018501528794508693909201918101610cf4565b346101da5760a03660031901126101da576004356001600160401b0381116101da57610d5390369060040161122f565b610d72610d61604435613f8b565b610d6c6084356140f4565b90611357565b60405190633235ac6d60e01b825260243560048301526101a06024830152600082604081610da46101a4820186611270565b60031982820301604483015260068152653a30b735b2b960d11b60208201526001606483015260643560848301528460a48301528460c4830152600160e483015260036101048301526078610124830152603c6101448301526064610164830152603c61018483015203018173__$2d8ca8bf86eea40aef689c316826963c89$__5af491821561106d57600092611098575b5060405192633235ac6d60e01b845260243560048501526101a06024850152600084604081610e696101a4820187611270565b60031982820301604483015260068152653334b9b432b960d11b60208201526001606483015260643560848301528460a48301528460c4830152600160e483015260036101048301526078610124830152603c6101448301526064610164830152603c61018483015203018173__$2d8ca8bf86eea40aef689c316826963c89$__5af491821561106d57610f3094600093611079575b506000906040805180978193633235ac6d60e01b835260243560048401526101a060248401526101a4830190611270565b60031982820301604483015260058152641e5858da1d60da1b60208201526001606483015260643560848301528460a48301528460c4830152600160e483015260036101048301526078610124830152603c6101448301526064610164830152603c61018483015203018173__$2d8ca8bf86eea40aef689c316826963c89$__5af4801561106d5760206101c29461101a926101d69760009161104a575b506040519582610fe7889451809287808801910161124d565b8301610ffb8251809387808501910161124d565b0161100e8251809386808501910161124d565b010380855201836111bc565b604051906110278261113a565b60118252701e109696bbb0ba32b939b1b2b73296969f60791b6020830152614147565b61106791503d806000833e61105f81836111bc565b8101906113d0565b88610fce565b6040513d6000823e3d90fd5b6000919350611091903d8084833e61105f81836111bc565b9290610eff565b6110ae9192503d806000833e61105f81836111bc565b9083610e36565b346101da5760203660031901126101da576004359063ffffffff60e01b82168092036101da576020916380ac58cd60e01b8114908115611129575b81156110fe575b5015158152f35b63152a902d60e11b811491508115611118575b50836110f7565b6301ffc9a760e01b14905083611111565b635b5e139f60e01b811491506110f0565b604081019081106001600160401b0382111761115557604052565b634e487b7160e01b600052604160045260246000fd5b608081019081106001600160401b0382111761115557604052565b606081019081106001600160401b0382111761115557604052565b602081019081106001600160401b0382111761115557604052565b90601f801991011681019081106001600160401b0382111761115557604052565b6001600160401b03811161115557601f01601f191660200190565b929192611204826111dd565b9161121260405193846111bc565b8294818452818301116101da578281602093846000960137010152565b9080601f830112156101da5781602061124a933591016111f8565b90565b60005b8381106112605750506000910152565b8181015183820152602001611250565b906020916112898151809281855285808601910161124d565b601f01601f1916010190565b600435906001600160a01b03821682036101da57565b602435906001600160a01b03821682036101da57565b60406003198201126101da57600435906001600160401b0382116101da576112eb9160040161122f565b9060243590565b60609060031901126101da576001600160a01b039060043582811681036101da579160243590811681036101da579060443590565b60409060031901126101da576004359060243590565b346101da576101d66101c261135136611327565b90612a24565b602061138c919392936040519481611378879351809286808701910161124d565b820161100e8251809386808501910161124d565b565b81601f820112156101da5780516113a4816111dd565b926113b260405194856111bc565b818452602082840101116101da5761124a916020808501910161124d565b906020828203126101da5781516001600160401b0381116101da5761124a920161138e565b90600182811c92168015611425575b602083101461140f57565b634e487b7160e01b600052602260045260246000fd5b91607f1691611404565b6004111561143957565b634e487b7160e01b600052602160045260246000fd5b9792969593979490946004861015611439576004918661193e576040516114758161113a565b60018152605360f81b6020820152995b6011546040516371a9730560e01b81529460009186919082906001600160a01b03165afa93841561106d57600094611921575b50611522604a60405180956b1e3932b1ba103334b6361e9160a11b60208301526114ec815180926020602c8601910161124d565b81017f222077696474683d223130383022206865696768743d2231303830222f3e0000602c82015203602a8101865201846111bc565b604051998a93600090600f54611537816113f5565b90600181169081156118fd57506001146118a1575b509361157860206115959895611578826115869761157882896115788e839f9c849d519485920161124d565b01918281519485920161124d565b0103601f1981018852876111bc565b604051936116ba609c866020810198713c6d61736b2069643d226d6f6f6e4d61736b60701b8a528b519660208d01976115d281603286018b61124d565b7f223e3c726563742066696c6c3d2223666666222077696474683d2231303830226032918501918201526f103432b4b3b43a1e9118981c1811179f60811b6052820152701e3ab9b290343932b31e9111b6b7ba34b360791b60628201528d519061164082607383018c61124d565b017f222066696c7465723d2275726c28236d616b65426c61636b29222f3e3c2f6d6160738201526239b59f60e91b609382015261168782518093602060968501910161124d565b0161169c82518093602060968501910161124d565b01651e17b9bb339f60d11b609682015203607c8101885201866111bc565b604051906116c782611186565b603282527f3c75736520687265663d22236c69676874686f757365222066696c7465723d226020830152713ab9361411b6b0b5b2a13630b1b59491179f60711b604083015261188b575b604051928360208101957f3c2f673e3c6d61736b2069643d226e696768744d61736b00000000000000000087528a51806037840190611750918661124d565b82019361111f60f11b94856037820152603981017f3c726563742066696c6c3d2223666666222077696474683d223130383022206890526d32b4b3b43a1e9118981c1811179f60911b6059820152815191826067830191602001916117b49261124d565b01815191826067830191602001916117cb9261124d565b0160678101661e17b6b0b9b59f60c91b905203604e81018552606e016117f190856111bc565b60405198888a9951908160208c01916020019161180d9261124d565b8901906b1e339034b21e9136b7ba34b360a11b6020830152519182602c83016118359261124d565b0190602c82015281519182602e830191602001916118529261124d565b0190519182602e83016118649261124d565b0190519182602e83016118769261124d565b0103600e81018252602e0161124a90826111bc565b50604051611898816111a1565b60008152611711565b909150600f6000527f8d1108e10bcb7c27dddfc02ed9d693a074039d026cf4ea4240b40f7d581ac8026000905b8282106118e557505085016020019061157861154c565b805460209883018901528e97909101906001016118ce565b60ff191660208981019190915282151590920288019091019250611578905061154c565b6119379194503d806000833e61105f81836111bc565b92386114b8565b60405161194a8161113a565b60018152604760f81b602082015299611485565b6040519061196b8261113a565b60068252653434b23232b760d11b6020830152565b6040519061198d8261113a565b600782526676697369626c6560c81b6020830152565b6011546040805163228b974b60e01b81526004810194909452600094939092918590829060249082906001600160a01b03165afa918215611b845785918693611b00575b5091611a9b611a5b611a2260029461124a989996885190611a078261113a565b60098252681e109696b1b196969f60b91b6020830152614147565b83611af257611a2f611980565b905b875190611a3d8261113a565b600c82526b1e109696b837b630b916969f60a11b6020830152614147565b60018303611ae457611a6b611980565b905b865190611a798261113a565b601082526f1e109696ba32b6b832b930ba3296969f60811b6020830152614147565b925003611ad657611aaa611980565b915b5190611ab78261113a565b600d82526c1e109696b232b9b2b93a16969f60991b6020830152614147565b611ade61195e565b91611aac565b611aec61195e565b90611a6d565b611afa61195e565b90611a31565b915091503d8086833e611b1381836111bc565b810190606081830312611b80578051916001600160401b0392838111611b7c5781611b3f91840161138e565b926020830151908111611b7c57611a226002948785611b6c611a9b96611a5b9661124a9d9e9b990161138e565b50015196999850945050506119e7565b8780fd5b8580fd5b83513d87823e3d90fd5b15611b9557565b60405162461bcd60e51b815260206004820152601260248201527113585e081cdd5c1c1b1e481c995858da195960721b6044820152606490fd5b60001981146109495760010190565b600a54811015611c1557600a6000527fc65a7bb8d6351c1cf70c95a316cc6a92839c986682d98bc35f958f4883f9d2a80190600090565b634e487b7160e01b600052603260045260246000fd5b6001600160a01b039182169290918315611db457600092828452826020956004875260409684888820541696879133151580611d1b575b509060047fddf252ad1be2c89b69c2b068fc378daa952ba7f163c4a11628f55a4df523b3ef9284611ce8575b858352600581528b8320805460010190558683525289812080546001600160a01b0319168517905580a41692838303611cc75750505050565b6064945051926364283d7b60e01b8452600484015260248301526044820152fd5b600087815260066020526040902080546001600160a01b0319169055848352600581528b83208054600019019055611c8e565b91939450915080611d73575b15611d3757859291879138611c62565b878688611d54576024915190637e27328960e01b82526004820152fd5b905163177e802f60e01b81523360048201526024810191909152604490fd5b503387148015611d98575b80611d275750858252600681523385898420541614611d27565b5086825260078152878220338352815260ff8883205416611d7e565b604051633250574960e11b815260006004820152602490fd5b90670de0b6b3a76400009182810292818404149015171561094957565b906127109182810292818404149015171561094957565b8115611e0b570490565b634e487b7160e01b600052601260045260246000fd5b919290611e88611e62611e9a93610d6c611e5c60405195611e418761113a565b60098752686165726f706c616e6560b81b6020880152613f8b565b916140f4565b60405194633235ac6d60e01b865260048601526101a060248601526101a4850190611270565b83810360031901604485015290611270565b918180600094859384606484015284608484015260a48301528360c4830152600160e483015260036101048301526078610124830152603c6101448301526064610164830152603c610184830152038173__$2d8ca8bf86eea40aef689c316826963c89$__5af4918215611f27578092611f1357505090565b61124a92503d8091833e61105f81836111bc565b604051903d90823e3d90fd5b6001600160401b0381116111555760051b60200190565b6020818303126101da578051906001600160401b0382116101da57016101209182828203126101da576040519283018381106001600160401b038211176111555760405281516001600160401b0381116101da5781611faa91840161138e565b83526020820151602084015260408201516040840152606082015160608401526080820151608084015260a08201516001600160401b0381116101da5781611ff391840161138e565b60a084015260c08201516001600160401b0381116101da5781601f8285010112156101da57808301519061202682611f33565b9161203460405193846111bc565b808352602083018460208360051b8589010101116101da57602083870101905b60208360051b85890101018210612298575050505060c084015260e08201516001600160401b0381116101da5781601f8285010112156101da57808301519061209c82611f33565b926120aa60405194856111bc565b82845260208401908060208560051b8589010101116101da57602083870101915b60208560051b858901010183106120fd57505050505060e0830152610100809101519060048210156101da5782015290565b82516001600160401b0381116101da5760a088860182018403601f1901126101da576040519160a083018381106001600160401b0382111761228357604052602082878b01010151600390818110156101da578452604083888c01010151908110156101da576020840152606082878b010101516001600160401b0381116101da5784603f82858a8e0101010112156101da57808760208c938683860101010151918760406121ab85611f33565b956121b8825197886111bc565b858752838960208901968860051b930101010101116101da578991868e60408483878401010101925b60408760051b868589860101010101841061227357505050505050506040840152608082878b010101516001600160401b0381116101da5784602061222c92858a8e0101010161138e565b606084015260a082878b01010151906001600160401b0382116101da57602093612261868680969581968f8d0101010161138e565b608082015281520193019290506120cb565b83518152602093840193016121e1565b60246000634e487b7160e01b81526041600452fd5b81516001600160401b0381116101da5760e088860182018803601f1901126101da57604051906122c78261116b565b602081878b010101516001600160401b0381116101da578860206122f192848a8e0101010161138e565b8252604081878b010101516001600160401b0381116101da5781878b01010188603f820112156101da5760208101519061232a82611f33565b9161233860405193846111bc565b808352602083018b60408360051b850101116101da5760408301905b60408360051b85010182106123e65750505050602083015287607f82888c01010112156101da576040516123878161116b565b898960e0848a8594010101116101da578a90886060858285010101915b60e086838601010183106123d6575050505060408301528886010160e001516060820152815260209182019101612054565b82518152602092830192016123a4565b815160ff811681036101da57815260209182019101612354565b9064e8d4a510009182810292818405149015171561094957565b906127109182810292818405149015171561094957565b91908260409103126101da576020825192015190565b908160609103126101da578051916040602083015192015190565b9060048210156114395752565b94919260e0969399989794919961248b8761010081019c612462565b602087015260408601526060850152608084015260a083015260c08201520152565b9190820391821161094957565b9190820180921161094957565b908160209103126101da575190565b6003111561143957565b916080838303126101da578251906001600160401b03918281116101da578361250a91860161138e565b9360208101518381116101da578461252391830161138e565b9360408201518481116101da578161253c91840161138e565b9360608301519081116101da5761124a920161138e565b9895916125d697926125c7966101209a966125b9969d9e9d60408e6125836125ab98610140808452830190611270565b966020820152015260608d0152612599816124d6565b60808c01528a820360a08c0152611270565b9088820360c08a0152611270565b9086820360e0880152611270565b90848203610100860152611270565b931515910152565b90815260408101929161138c9160200190612462565b60209081818403126101da5780516001600160401b03918282116101da57019083601f830112156101da57815161262a81611f33565b9460409261263b60405197886111bc565b828752858088019360051b860101948286116101da57868101935b86851061266857505050505050505090565b84518381116101da57820160e09182601f1983880301126101da57875192808401848110878211176122835789528a8301518681116101da57878c6126af9286010161138e565b8452888301518b850152606092838101518a860152608093848201519086015260a093848201519086015260c093848201519086015201519260038410156101da578a938493820152815201940193612656565b9190916040818403126101da578051926001600160401b03938481116101da578161272f91840161138e565b9360208301519081116101da5761124a920161138e565b94939796959791909161276160e09384885284880190611270565b93602092838801526040906040880152606094878103606089015282518082528482019185808360051b8301019501926000915b83831061286257505050505060809087830360808901528651948584528484019285808860051b8701019901976000955b8887106127e557505050505050505050509060c0919460a08201520152565b909192939495969798998880600192601f19858203018a528d519061281182518a83528a830190611270565b9183810151848301528a8101518b8301528781015188830152888101518983015260a0808201519083015260c0809101519161284c836124d6565b01529c01970197019598979694939291906127c6565b9091929395601f9997989919828203018352888751918961288b8d855190808552840190611270565b938381015194838103858501528480875192838152019601906000905b8082106128ff57505050808a0151600090848c015b600483106128e557505050015160c09091015297999897909681019493600101920190612795565b815181528f968f95506001939093019291820191016128bd565b825160ff168852968601968f968f955092909201916001909101906128a8565b612933604092604083526040830190611270565b906020908181840391015283519182815281810182808560051b8401019601946000906000935b86851061296c57505050505050505090565b9091929394959697601f1982820301855286895160a08084018251612990816124d6565b85528383015161299f816124d6565b8486015286830151918786015281518091528360c0860192019088905b808210612a0a5750505060019383926129e56129f8936060808401519085830390860152611270565b9160808092015191818403910152611270565b9a01950195019396959492919061295a565b825184528c959384019390920191600191909101906129bc565b601154909190612a44906001600160a01b03165b6001600160a01b031690565b604051632548117960e01b81526004810184905290600090829060249082905afa9081156131a357600091613505575b5060a081015190612a886020820151612400565b936040612a9781840151612400565b612aa086611dcd565b82516375cbcb7960e11b81526004810198909852602488019190915260448701528560648173__$a216d4fe4243b110e5694abc7741cd783a$__5af49384156131a3576000956000956134de575b50600382146134cc57612b0081611dcd565b6040612b0f6020860151612400565b612b1b82870151612400565b8251632c0f47d960e21b81526004810194909452602484019190915260448301528160648173__$a216d4fe4243b110e5694abc7741cd783a$__5af49081156131a357655af3107a40009160009160009161349b575b5090945b60008389612bce612b896080860151611dea565b8d612b976060880151611dea565b91604051998a96879663955cb78f60e01b885205920590600486019094939260609260808301968352602083015260408201520152565b038173__$2d8ca8bf86eea40aef689c316826963c89$__5af49283156131a35760009361347e575b50612c046020820151612400565b956060612c146040840151612400565b612c1d87611dcd565b604051633b7eb8ed60e21b8152600481019a909a5260248a019190915260448901528760648173__$a216d4fe4243b110e5694abc7741cd783a$__5af480156131a357600097600090600092613457575b50612c9c6060612c7d89611dcd565b60405180938192633d5756df60e21b8352600483019190602083019252565b038173__$a216d4fe4243b110e5694abc7741cd783a$__5af49283156131a357600091600094613422575b5061010086015192612cd88461142f565b6060870151612ce69061241a565b9b6080880151612cf59061241a565b9c6040519d8e976307704b9360e01b8952655af3107a4000900595655af3107a4000900594655af3107a4000900593655af3107a4000900592655af3107a40009005916004890197612d469861246f565b038773__$2d8ca8bf86eea40aef689c316826963c89$__91815a93600094f49687156131a3576000976133ff575b50612dd894959697612d8e662386f26fc100008b056145e0565b509a6000612daa8a612da5620151804206426124ad565b6124ba565b6080860151604051634b54268f60e01b81526004810191909152602481019190915297889081906044820190565b038173__$2d8ca8bf86eea40aef689c316826963c89$__5af49687156131a3576000976133e2575b5060405162a0a51960e61b8152600481018a905260006024820152600260448201529060208260648173__$2d8ca8bf86eea40aef689c316826963c89$__5af49182156131a3576000926133b1575b50612e59826124d6565b610100850151612e688161142f565b612e718161142f565b612e7a836124d6565b600283036132685760115460049390600090612e9e906001600160a01b0316612a38565b60405163cba4cbbd60e01b815295869182905afa9384156131a357878f9195600096662386f26fc1000096612f1a95655af3107a40009a8a928b938c958d97613233575b506060612ef591959697985b015161241a565b60405163d79783a760e01b81529d8e9c8d9c15159a9294920592059060048c01612553565b038173__$2d8ca8bf86eea40aef689c316826963c89$__5af49081156131a357600091613218575b506000655af3107a40006101008501519b612f5c8d61142f565b612f7b6040519d8e93849363fecb0d4f60e01b855205600484016125de565b038173__$2d8ca8bf86eea40aef689c316826963c89$__5af4998a156131a35760009a6131f8575b5060115460049190600090612fc0906001600160a01b0316612a38565b60405163485c475f60e01b815293849182905afa9182156131a35789956000948a9461300e9387916131d6575b5060c088015160405163582bca4760e11b81529d8e97889760048901612746565b038173__$2d8ca8bf86eea40aef689c316826963c89$__5af49485156131a3576000966000966131a8575b5060e082015160405163c2209fb960e01b8152969760009188918291613062916004840161291f565b038173__$2d8ca8bf86eea40aef689c316826963c89$__5af49586156131a357600096613186575b5085926130a260808401516060850151908385611e21565b9660016101008501516130b48161142f565b6130bd8161142f565b14613172575b5060026101008401516130d58161142f565b6130de8161142f565b14613161575b60036101008401516130f58161142f565b6130fe8161142f565b14613150575b6101008301516131138161142f565b61311c8161142f565b61313a575b5050610100015161124a986131358261142f565b61144f565b6131449293613eea565b9061010061124a613121565b928361315b916119a3565b92613104565b928361316c916136ce565b926130e4565b8194509061317f91613528565b92386130c3565b61319c9196503d806000833e61105f81836111bc565b943861308a565b61106d565b6000975061306296506131cc903d808a833e6131c481836111bc565b810190612703565b9790979650613039565b6131f291503d8089833e6131ea81836111bc565b8101906125f4565b38612fed565b6004919a50613211903d806000833e61105f81836111bc565b9990612fa3565b61322d91503d806000833e61105f81836111bc565b38612f42565b9050612ef5965061325b919550606094503d808e833e61325381836111bc565b8101906124e0565b9750959094909190612ee2565b82613275600493946124d6565b8061331857601154600090613292906001600160a01b0316612a38565b604051630f773e0b60e41b815294859182905afa80156131a357878f9195600096662386f26fc1000096612f1a95655af3107a40009a8a948b958c948d966132ea575b506060612ef591979596975b95969798612eee565b9050612ef596506060955061330a9194503d808e833e61325381836111bc565b9197509095909491906132d5565b601154600090613330906001600160a01b0316612a38565b60405163018a5f4d60e01b815294859182905afa80156131a357878f9195600096662386f26fc1000096612f1a95655af3107a40009a8a948b958c948d96613383575b506060612ef591979596976132e1565b9050612ef59650606095506133a39194503d808e833e61325381836111bc565b919750909590949190613373565b6133d491925060203d6020116133db575b6133cc81836111bc565b8101906124c7565b9038612e4f565b503d6133c2565b6133f89197503d806000833e61105f81836111bc565b9538612e00565b612dd89596975061341a903d806000833e61105f81836111bc565b969594612d74565b909350613447915060603d606011613450575b61343f81836111bc565b810190612447565b93905038612cc7565b503d613435565b91505061347491975060603d6060116134505761343f81836111bc565b9097919738612c6e565b6134949193503d806000833e61105f81836111bc565b9138612bf6565b90506134bf915060403d6040116134c5575b6134b781836111bc565b810190612431565b38612b71565b503d6134ad565b655af3107a4000600093600090612b75565b9094506134fb91955060403d6040116134c5576134b781836111bc565b9490949338612aee565b61352291503d806000833e61351a81836111bc565b810190611f4a565b38612a74565b601154604080516312591c3f60e11b815260048101859052600095946001600160a01b03909316938691908282602481895afa918215613631579061359792918492613614575b5084519061357c8261113a565b60098252681e109696b13196969f60b91b6020830152614147565b9260248351809681936373075aff60e01b835260048301525afa92831561360a578561124a9596946135ec575b505051906135d18261113a565b60098252681e109696b9b196969f60b91b6020830152614147565b6136019294503d8091833e6131c481836111bc565b509138806135c4565b81513d87823e3d90fd5b6136299192503d8086833e6131c481836111bc565b50903861356f565b84513d85823e3d90fd5b519069ffffffffffffffffffff821682036101da57565b908160a09103126101da576136668161363b565b9160208201519160408101519161124a60806060840151930161363b565b805115611c155760200190565b805160011015611c155760400190565b8051821015611c155760209160051b010190565b69ffffffffffffffffffff168015610949576000190190565b916040928351926136de8461116b565b8451906136ea8261113a565b600492838352602092636d696e6960e01b848201528652865161370c8161113a565b848152636d69646960e01b848201528387015286519461372b8661113a565b60059560058152646c6172676560d81b8582015288880152875161374e8161113a565b858152636d65676160e01b85820152606088015260018060a01b0360119681885416908a51631c6e9c1560e01b8152868982015260249a88828d81875afa918215613edf57600092613eb0575b506000929190898d8f5b8d8710613e305795505050505050519461022086018681106001600160401b03821117613e1c578b5260108652869061020036888401378a8c51809481936313aa362d60e01b83528c8301525afa908115613e1157600091613dd4575b501693885190633fabe5a360e21b825260a09586838981845afa8015613dc957600093600090600092613da1575b5061383a88613684565b5261384487613691565b528a51633942720b60e11b8152926000848a81855afa938415613d9657600094613d75575b506138748c916136b5565b976002988c6002935b8c600a8610613caf575050505050505061389685613684565b51926138a186613684565b519460005b875181101561391757856138ba828a6136a1565b5110613904575b866138cc828a6136a1565b51116138f1575b888101809111156138a6578b8b8b634e487b7160e01b600052526000fd5b95506138fd86886136a1565b51956138d3565b945061391085886136a1565b51946138c1565b50929a919484613929919592956124ad565b9061393387613691565b518751600019969190878101908111613c9c579061395461395b928b6136a1565b51906124ad565b906060956000965b8a51881015613b3a576001808901808a11613b2657613982908d6136a1565b518c518b8101908111613afb579061395461399d928f6136a1565b61015e90818102918183041490151715613b2657856139bb91611e01565b9160288301809311613b26576139dc876139d68f8d906136a1565b516124ad565b60969081810290808204831490151715613b1057896139fa91611e01565b8103908111613afb576102a88101809111613afb57918c91613ab4938c15600014613ad857613a48613a428d51613a308161113a565b858152604d60f81b8782015297613f8b565b91613f8b565b908c519683613a60899551809289808901910161124d565b8401613a748251809389808501910161124d565b01613a878251809388808501910161124d565b01600160fd1b85820152613aa66021958351938491888501910161124d565b0103908101845201826111bc565b968b8101809111613ac55796613963565b8e8e8e634e487b7160e01b600052526000fd5b613a48613a428d51613ae98161113a565b858152601360fa1b8782015297613f8b565b50508f8f8f634e487b7160e01b600052526000fd5b5050508f8f8f634e487b7160e01b600052526000fd5b508f8f8f634e487b7160e01b600052526000fd5b965099509c9550505050965061124a9750613c849295506b1e109696b1b430b93a16969f60a11b9350613be1605b88518093681e3830ba3410321e9160b91b8a830152613b90815180928c60298601910161124d565b81017f222066696c6c3d226e6f6e6522207374726f6b653d22234646444231392220736029820152713a3937b5b296bbb4b23a341e911a1110179f60711b604982015203603b8101845201826111bc565b613c7f6076885180947f3c7465787420783d2232302220793d22363230222066696c6c3d2223393430308a8301527f45332220666f6e742d66616d696c793d22417269616c2d426c61636b2220666f8b8301526e373a16b9b4bd329e91191a383c111f60891b6060830152613c5f815180928c606f8601910161124d565b8101661e17ba32bc3a1f60c91b606f8201520360568101855201836111bc565b611357565b935192613c908461113a565b600c8452830152614147565b8d8d8d634e487b7160e01b600052526000fd5b849151928391639a6fc8f560e01b835269ffffffffffffffffffff86169083015281885afa908115613d6a576000908192613d37575b50613cf0858c6136a1565b5260018401808511613ac55790613d0b613d1193928c6136a1565b526136b5565b91898101809111613d2457918c8e61387d565b8c8c8c634e487b7160e01b600052526000fd5b9050613d599150833d8511613d63575b613d5181836111bc565b810190613652565b5092505038613ce5565b503d613d47565b8f513d6000823e3d90fd5b613874919450613d8f903d806000833e61105f81836111bc565b9390613869565b8c513d6000823e3d90fd5b915050613dbc919350873d8911613d6357613d5181836111bc565b5091949290509338613830565b8b513d6000823e3d90fd5b8681813d8311613e0a575b613de981836111bc565b81010312613e065751908282168203613e03575038613802565b80fd5b5080fd5b503d613ddf565b8a513d6000823e3d90fd5b8a60418a634e487b7160e01b600052526000fd5b613e866027613e9b94899d946216969f60e91b613e72958b9c60019a9b9c1b8b015190519684633c212d2d60e01b89968701528251928391868801910161124d565b8301918201520360078101845201826111bc565b858b11613ea857613e95611980565b91614147565b9701929190898d8f6137a5565b613e9561195e565b9091508881813d8311613ed8575b613ec881836111bc565b810103126101da5751903861379b565b503d613ebe565b8d513d6000823e3d90fd5b916040519162a0a51960e61b83526004830152600060248301526012604483015260208260648173__$2d8ca8bf86eea40aef689c316826963c89$__5af480156131a357613f4092600091613f6c575b50612a24565b60405161124a92613f508261113a565b600a8252691e109696b7333a16969f60b11b6020830152614147565b613f85915060203d6020116133db576133cc81836111bc565b38613f3a565b806000917a184f03e93ff9f4daa797ed6e38ed64bf6a1f010000000000000000808210156140e6575b506d04ee2d6d415b85acef8100000000808310156140d7575b50662386f26fc10000808310156140c8575b506305f5e100808310156140b9575b50612710808310156140aa575b50606482101561409a575b600a80921015614090575b6001908160216001860195614025876111dd565b9661403360405198896111bc565b808852614042601f19916111dd565b01366020890137860101905b61405a575b5050505090565b600019019083906f181899199a1a9b1b9c1cb0b131b232b360811b8282061a83530491821561408b5791908261404e565b614053565b9160010191614011565b9190606460029104910191614006565b60049193920491019138613ffb565b60089193920491019138613fee565b60109193920491019138613fdf565b60209193920491019138613fcd565b604093508104915038613fb4565b61124a90610d6c600082129182600014614131576040516141148161113a565b60018152602d60f81b6020820152925b15613f8b57600003613f8b565b60405161413d816111a1565b6000815292614124565b90929192819082519281518651936020978880809501950190878560405101930193858501988111156141be575b5050508394508095939160405195869103910301945b8382106141af5750506000848401968701525050603f909301601f19166040528252565b8151815290820190820161418b565b90919293959450602181870301968a6000936000828510156142b4575b601f859998979916830360031b9851965b88518881188b1c1561422857815260018091019801988b8a1015614212575b98976141ec565b505050959750505050509183925b388080614175565b918497949598919a92819d94979a9c9d61426d575b50505050505b8181840101518188015201908382101561425f57908290614243565b505092019201928392614220565b90809293949596508a8d20036142855787959461423d565b8a9192989597949c9b9996939a5260018091019801988b8a1061420b5750505095975050505050918392614220565b508386206141db565b6000818152600460205260409020546001600160a01b03169081156142e0575090565b60249060405190637e27328960e01b82526004820152fd5b600260085414614309576002600855565b604051633ee5aeb560e01b8152600490fd5b6040805190614329826111a1565b60008083526001600160a01b039484861693841561452e578183526004956020978789528585205416838782151592836144fb575b81885260058c52888820805460010190558288528a8c5288882080546001600160a01b031916831790557fddf252ad1be2c89b69c2b068fc378daa952ba7f163c4a11628f55a4df523b3ef8880a46144e4573b6143bf575b50505050505050565b866143fd91859697989994955180938192630a85bd0160e11b96878452338d8501528960248501526044840152608060648401526084830190611270565b0381878a5af18491816144a0575b50614469575050503d600014614461573d614425816111dd565b90614432845192836111bc565b81528091863d92013e5b8051948561445b57505051633250574960e11b81529182015260249150fd5b85925001fd5b50606061443c565b919650915063ffffffff60e01b160361448b57505050388080808080806143b6565b51633250574960e11b81529182015260249150fd5b9091508881813d83116144dd575b6144b881836111bc565b810103126144d957516001600160e01b0319811681036144d957903861440b565b8480fd5b503d6144ae565b84516339e3563760e11b8152808801859052602490fd5b600083815260066020526040902080546001600160a01b031916905580885260058c52888820805460001901905561435e565b8351633250574960e11b815260048101849052602490fd5b604051906145538261113a565b600782526611b1b29c18333360c91b6020830152565b604051906145768261113a565b60078252662366396232333360c81b6020830152565b604051906145998261113a565b6007825266119cb11a31b13360c91b6020830152565b604051906145bc8261113a565b600482526311b3333360e11b6020830152565b906011811015611c155760051b0190565b60409182519261022084018481106001600160401b038211176111555780825261460981611186565b612327198152614617614546565b610240860152614625614569565b6102608601528452805161463881611186565b6104af198152614646614546565b9060209182820152614656614569565b838201528186015281519061466a82611186565b6102bb19825282519161467c8361113a565b600792838152660236537383063360cc1b838201528282015283516146a08161113a565b838152662365306234333960c81b83820152848201528387015282516146c581611186565b61018f19815283516146d68161113a565b838152660236666383038360cc1b838201528282015283516146f78161113a565b8381526611b19c311b19b360c91b8382015284820152606087015282519161471e83611186565b6000926000815284516147308161113a565b8281526611b3331c9c9c1b60c91b848201528382015284516147518161113a565b828152662361666238343560c81b84820152858201526080880152835161477781611186565b61012c815284516147878161113a565b828152662366666232386360c81b848201528382015284516147a88161113a565b828152662339366239346360c81b848201528582015260a088015283516147ce81611186565b6102bc815284516147de8161113a565b8281526611b333321c9c1b60c91b848201528382015284516147ff8161113a565b82815266119bb231311a9960c91b848201528582015260c0880152835161482581611186565b61044c815284516148358161113a565b828152660236666666638360cc1b848201528382015284516148568161113a565b828152660466c6ac4c86a760cb1b848201528582015260e0880152835161487c81611186565b6105dc8152845161488c8161113a565b828152660236330656163360cc1b848201528382015284516148ad8161113a565b828152662334636266356560c81b848201528582015261010088015283516148d481611186565b6109c49081815285516148e68161113a565b83815266119c18321ab33360c91b858201528482015285516149078161113a565b838152662335376166366360c81b8582015286820152610120890152845161492e81611186565b6107088152855161493e8161113a565b838152660466e6ec66ecc760cb1b8582015284820152855161495f8161113a565b838152662336333965376160c81b858201528682015261014089015284519061498782611186565b815284516149948161113a565b828152662336646261663160c81b848201528382015284516149b58161113a565b828152660466cca70ca70760cb1b848201528582015261016088015283516149dc81611186565b610dac815284516149ec8161113a565b828152662336346163656160c81b84820152838201528451614a0d8161113a565b828152662337393764393560c81b84820152858201526101808801528351614a3481611186565b61125c81528451614a448161113a565b8281526608cd584e59594d60ca1b84820152838201528451614a658161113a565b828152662338343664613360c81b84820152858201526101a08801528351614a8c81611186565b61177081528451614a9c8161113a565b8281526608cd4c4e4c191960ca1b84820152838201528451614abd8161113a565b828152662339303563623160c81b84820152858201526101c08801528351614ae481611186565b611c8481528451614af48161113a565b82815266119a1b9c19b21b60c91b8482015283820152614b1261458c565b858201526101e0880152835190614b2882611186565b611f408252845190614b398261113a565b8152661199b29b9ab1b360c91b8382015282820152614b5661458c565b84820152610200870152614b686145af565b94614b716145af565b956000935b601180861015614c2357614b8a868b6145cf565b5151841215614ba0575b50600190940193614b76565b60108603614bcc5750505050614bc692939450614bbd82876145cf565b510151946145cf565b51015190565b60018692939495960190818311614c115750614be8908a6145cf565b51518412614bfb57939291906001614b94565b9392505050614bc692939450614bbd82876145cf565b634e487b7160e01b8452600452602483fd5b509097505050505050565b813b614c3b575b50505050565b604051630a85bd0160e11b8082523360048301526001600160a01b03928316602483015260448201949094526080606482015260209592909116939092908390614c89906084830190611270565b039285816000958187895af1849181614d32575b50614cfd575050503d600014614cf5573d614cb7816111dd565b90614cc560405192836111bc565b81528091843d92013e5b80519283614cf057604051633250574960e11b815260048101849052602490fd5b019050fd5b506060614ccf565b919450915063ffffffff60e01b1603614d1a575038808080614c35565b60249060405190633250574960e11b82526004820152fd5b9091508681813d8311614d6b575b614d4a81836111bc565b810103126144d957516001600160e01b0319811681036144d9579038614c9d565b503d614d4056fea2646970667358221220cdcbab8c8e0ab8b25ba2f1a86dc2a886314fdd4748a6332dc1a3ba3ec358e36b64736f6c63430008190033","linkReferences":{"contracts/NDRenderer.sol":{"NDRenderer":[{"start":9221,"length":20},{"start":9418,"length":20},{"start":9616,"length":20},{"start":13535,"length":20},{"start":16837,"length":20},{"start":17213,"length":20},{"start":17359,"length":20},{"start":17438,"length":20},{"start":17681,"length":20},{"start":17778,"length":20},{"start":17925,"length":20},{"start":18009,"length":20},{"start":21766,"length":20}]},"contracts/SunCalc.sol":{"SunCalc":[{"start":16570,"length":20},{"start":16693,"length":20},{"start":16952,"length":20},{"start":17043,"length":20}]}}},"methodIdentifiers":{"approve(address,uint256)":"095ea7b3","balanceOf(address)":"70a08231","generateNFT(uint256)":"584f3c3f","generateNFT(uint256,uint256)":"40709fe1","getApproved(uint256)":"081812fc","isApprovedForAll(address,address)":"e985e9c5","maxSupply()":"d5abeb01","merkleRoot()":"2eb4a7ab","mint()":"1249c58b","mintWithCode(bytes32[],string)":"bcd875fe","motifDataManager()":"386b2304","name()":"06fdde03","ownerOf(uint256)":"6352211e","renderAirplanes(uint256,uint256,uint256,int256)":"2ca89852","renderBeachTraits(string,uint256)":"abca27bd","renderCityTraits(string,uint256)":"f73a6a8a","renderLandscapeTraits(string,uint256)":"0e931f30","renderNFT(string,uint8,string,string,string,string,string,string,string)":"08457ad1","renderNFTInside(string,uint256,uint256)":"fe363e24","renderWaterScene(string,uint256,uint256,uint256,int256)":"06945b3a","reservedSupply()":"44d19d2b","royaltyInfo(uint256,uint256)":"2a55205a","safeTransferFrom(address,address,uint256)":"42842e0e","safeTransferFrom(address,address,uint256,bytes)":"b88d4fde","setApprovalForAll(address,bool)":"a22cb465","supportsInterface(bytes4)":"01ffc9a7","symbol()":"95d89b41","tokenURI(uint256)":"c87b56dd","tokenUriWithTime(uint256,uint256)":"709c163e","totalSupply()":"18160ddd","transferFrom(address,address,uint256)":"23b872dd","usedCodes(bytes32)":"904077a0"},"id":2}